{
  "fileName": "ChainLink_LinkToken_LLPZap.sol",
  "contractName": "ChainLink_LinkToken_LLPZap",
  "source": "// Copyright (C) 2019, 2020 dipeshsukhani, nodarjonashi, toshsharma, suhailg\n\n// This program is free software: you can redistribute it and/or modify\n// it under the terms of the GNU Affero General Public License as published by\n// the Free Software Foundation, either version 2 of the License, or\n// (at your option) any later version.\n//\n// This program is distributed in the hope that it will be useful,\n// but WITHOUT ANY WARRANTY; without even the implied warranty of\n// MERCHANTABILITY or FITNESS FOR A PARTICULAR PURPOSE.  See the\n// GNU Affero General Public License for more details.\n//\n// Visit <https://www.gnu.org/licenses/>for a copy of the GNU Affero General Public License\n\n/**\n * WARNING: This is an upgradable contract. Be careful not to disrupt\n * the existing storage layout when making upgrades to the contract. In particular,\n * existing fields should not be removed and should not have their types changed.\n * The order of field declarations must not be changed, and new fields must be added\n * below all existing declarations.\n *\n * The base contracts and the order in which they are declared must not be changed.\n * New fields must not be added to base contracts (unless the base contract has\n * reserved placeholder fields for this purpose).\n *\n * See https://docs.zeppelinos.org/docs/writing_contracts.html for more info.\n*/\n\npragma solidity ^0.5.0;\n\nimport \"../../../node_modules/@openzeppelin/upgrades/contracts/Initializable.sol\";\nimport \"../../../node_modules/@openzeppelin/contracts-ethereum-package/contracts/math/SafeMath.sol\";\nimport \"../../../node_modules/@openzeppelin/contracts-ethereum-package/contracts/token/ERC20/IERC20.sol\";\n\ninterface LLP_ERC20Token_General_Link {\n    function LetsInvest(\n        address payable _towhomtoIssueAddress,\n        uint256 _fulcrumPortionAllocation,\n        address _InvesteeTokenAddress,\n        address _fulcrumAddress,\n        address _ERC20forFulcrum\n    ) external payable returns (uint256);\n}\n\n// through this contract we are putting 34% allocation to 2xLongETH and 66% to Uniswap pool\ncontract ChainLink_LinkToken_LLPZap is Initializable {\n    using SafeMath for uint256;\n\n    // state variables\n\n    // - THESE MUST ALWAYS STAY IN THE SAME LAYOUT\n    bool private stopped;\n    address payable public owner;\n    LLP_ERC20Token_General_Link public LLP_ERC20Token_GeneralAddress;\n    address public ChainLinkAddress;\n    address public ChainLinkFulCrumAddress;\n\n    // circuit breaker modifiers\n    modifier stopInEmergency {\n        if (stopped) {\n            revert(\"Temporarily Paused\");\n        } else {\n            _;\n        }\n    }\n    modifier onlyOwner() {\n        require(isOwner(), \"you are not authorised to call this function\");\n        _;\n    }\n\n    function initialize(\n        address _LLP_ERC20Token_GeneralAddress,\n        address _ChainLinkAddress,\n        address _ChainLinkFulCrumAddress\n    ) public initializer {\n        stopped = false;\n        owner = msg.sender;\n        LLP_ERC20Token_GeneralAddress = LLP_ERC20Token_General_Link(\n            _LLP_ERC20Token_GeneralAddress\n        );\n        ChainLinkAddress = _ChainLinkAddress;\n        ChainLinkFulCrumAddress = _ChainLinkFulCrumAddress;\n    }\n\n    // this function should be called should we ever want to change the underlying LLP_GeneralAddress Contract address\n    function set_LLP_ERC20Token_GeneralAddress(\n        address _new_LLP_ERC20Token_GeneralAddress\n    ) public onlyOwner {\n        LLP_ERC20Token_GeneralAddress = LLP_ERC20Token_General_Link(\n            _new_LLP_ERC20Token_GeneralAddress\n        );\n    }\n\n    // this function should be called should we ever want to change the underlying ChainLink Contract address\n    function set_ChainLinkAddress(address _new_ChainLinkAddress)\n        public\n        onlyOwner\n    {\n        ChainLinkAddress = _new_ChainLinkAddress;\n    }\n\n    // this function should be called should we ever want to change the underlying Fulcrum ChainLink Contract address\n    function set_ChainLinkFulCrumAddress(address _new_ChainLinkFulCrumAddress)\n        public\n        onlyOwner\n    {\n        ChainLinkFulCrumAddress = _new_ChainLinkFulCrumAddress;\n    }\n\n    // main function which will make the investments\n    function LetsInvest(\n        address payable _towhomtoIssueAddress,\n        uint256 _FulcrumAllocation\n    ) public payable returns (uint256) {\n        LLP_ERC20Token_GeneralAddress.LetsInvest.value(msg.value)(\n            _towhomtoIssueAddress,\n            34,\n            ChainLinkAddress,\n            ChainLinkFulCrumAddress,\n            ChainLinkAddress\n        );\n    }\n\n    function inCaseTokengetsStuck(IERC20 _TokenAddress) public onlyOwner {\n        uint256 qty = _TokenAddress.balanceOf(address(this));\n        _TokenAddress.transfer(owner, qty);\n    }\n\n    // - fallback function let you / anyone send ETH to this wallet without the need to call any function\n    function() external payable {\n        if (msg.sender != owner) {\n            LetsInvest(msg.sender, 34);\n        }\n    }\n\n    // - to Pause the contract\n    function toggleContractActive() public onlyOwner {\n        stopped = !stopped;\n    }\n\n    // - to withdraw any ETH balance sitting in the contract\n    function withdraw() public onlyOwner {\n        owner.transfer(address(this).balance);\n    }\n\n    // - to kill the contract\n    function destruct() public onlyOwner {\n        selfdestruct(owner);\n    }\n\n    /**\n     * @return true if `msg.sender` is the owner of the contract.\n     */\n    function isOwner() public view returns (bool) {\n        return msg.sender == owner;\n    }\n\n    /**\n     * @dev Transfers ownership of the contract to a new account (`newOwner`).\n     * Can only be called by the current owner.\n     */\n    function transferOwnership(address payable newOwner) public onlyOwner {\n        _transferOwnership(newOwner);\n    }\n\n    /**\n     * @dev Transfers ownership of the contract to a new account (`newOwner`).\n     */\n    function _transferOwnership(address payable newOwner) internal {\n        require(\n            newOwner != address(0),\n            \"Ownable: new owner is the zero address\"\n        );\n        owner = newOwner;\n    }\n\n}\n",
  "sourcePath": "contracts/UpdatedZaps/Done/ChainLink_LinkToken_LLPZap.sol",
  "abi": [
    {
      "payable": true,
      "stateMutability": "payable",
      "type": "fallback"
    },
    {
      "constant": true,
      "inputs": [],
      "name": "ChainLinkAddress",
      "outputs": [
        {
          "internalType": "address",
          "name": "",
          "type": "address"
        }
      ],
      "payable": false,
      "stateMutability": "view",
      "type": "function"
    },
    {
      "constant": true,
      "inputs": [],
      "name": "ChainLinkFulCrumAddress",
      "outputs": [
        {
          "internalType": "address",
          "name": "",
          "type": "address"
        }
      ],
      "payable": false,
      "stateMutability": "view",
      "type": "function"
    },
    {
      "constant": true,
      "inputs": [],
      "name": "LLP_ERC20Token_GeneralAddress",
      "outputs": [
        {
          "internalType": "contract LLP_ERC20Token_General_Link",
          "name": "",
          "type": "address"
        }
      ],
      "payable": false,
      "stateMutability": "view",
      "type": "function"
    },
    {
      "constant": false,
      "inputs": [
        {
          "internalType": "address payable",
          "name": "_towhomtoIssueAddress",
          "type": "address"
        },
        {
          "internalType": "uint256",
          "name": "_FulcrumAllocation",
          "type": "uint256"
        }
      ],
      "name": "LetsInvest",
      "outputs": [
        {
          "internalType": "uint256",
          "name": "",
          "type": "uint256"
        }
      ],
      "payable": true,
      "stateMutability": "payable",
      "type": "function"
    },
    {
      "constant": false,
      "inputs": [],
      "name": "destruct",
      "outputs": [],
      "payable": false,
      "stateMutability": "nonpayable",
      "type": "function"
    },
    {
      "constant": false,
      "inputs": [
        {
          "internalType": "contract IERC20",
          "name": "_TokenAddress",
          "type": "address"
        }
      ],
      "name": "inCaseTokengetsStuck",
      "outputs": [],
      "payable": false,
      "stateMutability": "nonpayable",
      "type": "function"
    },
    {
      "constant": false,
      "inputs": [
        {
          "internalType": "address",
          "name": "_LLP_ERC20Token_GeneralAddress",
          "type": "address"
        },
        {
          "internalType": "address",
          "name": "_ChainLinkAddress",
          "type": "address"
        },
        {
          "internalType": "address",
          "name": "_ChainLinkFulCrumAddress",
          "type": "address"
        }
      ],
      "name": "initialize",
      "outputs": [],
      "payable": false,
      "stateMutability": "nonpayable",
      "type": "function"
    },
    {
      "constant": true,
      "inputs": [],
      "name": "isOwner",
      "outputs": [
        {
          "internalType": "bool",
          "name": "",
          "type": "bool"
        }
      ],
      "payable": false,
      "stateMutability": "view",
      "type": "function"
    },
    {
      "constant": true,
      "inputs": [],
      "name": "owner",
      "outputs": [
        {
          "internalType": "address payable",
          "name": "",
          "type": "address"
        }
      ],
      "payable": false,
      "stateMutability": "view",
      "type": "function"
    },
    {
      "constant": false,
      "inputs": [
        {
          "internalType": "address",
          "name": "_new_ChainLinkAddress",
          "type": "address"
        }
      ],
      "name": "set_ChainLinkAddress",
      "outputs": [],
      "payable": false,
      "stateMutability": "nonpayable",
      "type": "function"
    },
    {
      "constant": false,
      "inputs": [
        {
          "internalType": "address",
          "name": "_new_ChainLinkFulCrumAddress",
          "type": "address"
        }
      ],
      "name": "set_ChainLinkFulCrumAddress",
      "outputs": [],
      "payable": false,
      "stateMutability": "nonpayable",
      "type": "function"
    },
    {
      "constant": false,
      "inputs": [
        {
          "internalType": "address",
          "name": "_new_LLP_ERC20Token_GeneralAddress",
          "type": "address"
        }
      ],
      "name": "set_LLP_ERC20Token_GeneralAddress",
      "outputs": [],
      "payable": false,
      "stateMutability": "nonpayable",
      "type": "function"
    },
    {
      "constant": false,
      "inputs": [],
      "name": "toggleContractActive",
      "outputs": [],
      "payable": false,
      "stateMutability": "nonpayable",
      "type": "function"
    },
    {
      "constant": false,
      "inputs": [
        {
          "internalType": "address payable",
          "name": "newOwner",
          "type": "address"
        }
      ],
      "name": "transferOwnership",
      "outputs": [],
      "payable": false,
      "stateMutability": "nonpayable",
      "type": "function"
    },
    {
      "constant": false,
      "inputs": [],
      "name": "withdraw",
      "outputs": [],
      "payable": false,
      "stateMutability": "nonpayable",
      "type": "function"
    }
  ],
  "bytecode": "0x608060405234801561001057600080fd5b50610a9d806100206000396000f3fe6080604052600436106100e85760003560e01c80638f32d59b1161008a578063c0a205ed11610059578063c0a205ed1461027f578063c0c53b8b146102b2578063e8c949c3146102f7578063f2fde38b14610335576100e8565b80638f32d59b146101f957806391e2bb0014610222578063a0edcbb514610255578063ae4184f81461026a576100e8565b806352fac32a116100c657806352fac32a1461014d578063551196d51461017e5780638c294c5d146101b15780638da5cb5b146101e4576100e8565b80631385d24c1461010e5780632b68b9c6146101235780633ccfd60b14610138575b60335461010090046001600160a01b0316331461010c5761010a336022610368565b505b005b34801561011a57600080fd5b5061010c610415565b34801561012f57600080fd5b5061010c61046c565b34801561014457600080fd5b5061010c6104c2565b34801561015957600080fd5b50610162610549565b604080516001600160a01b039092168252519081900360200190f35b34801561018a57600080fd5b5061010c600480360360208110156101a157600080fd5b50356001600160a01b0316610558565b3480156101bd57600080fd5b5061010c600480360360208110156101d457600080fd5b50356001600160a01b031661069f565b3480156101f057600080fd5b50610162610704565b34801561020557600080fd5b5061020e610718565b604080519115158252519081900360200190f35b34801561022e57600080fd5b5061010c6004803603602081101561024557600080fd5b50356001600160a01b031661072e565b34801561026157600080fd5b50610162610793565b34801561027657600080fd5b506101626107a2565b34801561028b57600080fd5b5061010c600480360360208110156102a257600080fd5b50356001600160a01b03166107b1565b3480156102be57600080fd5b5061010c600480360360608110156102d557600080fd5b506001600160a01b038135811691602081013582169160409091013516610816565b6103236004803603604081101561030d57600080fd5b506001600160a01b038135169060200135610368565b60408051918252519081900360200190f35b34801561034157600080fd5b5061010c6004803603602081101561035857600080fd5b50356001600160a01b031661091c565b60345460355460365460408051631ae52f2760e11b81526001600160a01b0387811660048301526022602483015293841660448201819052928416606482015260848101929092525160009392909216916335ca5e4e91349160a480830192602092919082900301818588803b1580156103e157600080fd5b505af11580156103f5573d6000803e3d6000fd5b50505050506040513d602081101561040c57600080fd5b50909392505050565b61041d610718565b6104585760405162461bcd60e51b815260040180806020018281038252602c815260200180610a0f602c913960400191505060405180910390fd5b6033805460ff19811660ff90911615179055565b610474610718565b6104af5760405162461bcd60e51b815260040180806020018281038252602c815260200180610a0f602c913960400191505060405180910390fd5b60335461010090046001600160a01b0316ff5b6104ca610718565b6105055760405162461bcd60e51b815260040180806020018281038252602c815260200180610a0f602c913960400191505060405180910390fd5b6033546040516001600160a01b036101009092049190911690303180156108fc02916000818181858888f19350505050158015610546573d6000803e3d6000fd5b50565b6034546001600160a01b031681565b610560610718565b61059b5760405162461bcd60e51b815260040180806020018281038252602c815260200180610a0f602c913960400191505060405180910390fd5b604080516370a0823160e01b815230600482015290516000916001600160a01b038416916370a0823191602480820192602092909190829003018186803b1580156105e557600080fd5b505afa1580156105f9573d6000803e3d6000fd5b505050506040513d602081101561060f57600080fd5b50516033546040805163a9059cbb60e01b81526101009092046001600160a01b03908116600484015260248301849052905192935084169163a9059cbb916044808201926020929091908290030181600087803b15801561066f57600080fd5b505af1158015610683573d6000803e3d6000fd5b505050506040513d602081101561069957600080fd5b50505050565b6106a7610718565b6106e25760405162461bcd60e51b815260040180806020018281038252602c815260200180610a0f602c913960400191505060405180910390fd5b603580546001600160a01b0319166001600160a01b0392909216919091179055565b60335461010090046001600160a01b031681565b60335461010090046001600160a01b0316331490565b610736610718565b6107715760405162461bcd60e51b815260040180806020018281038252602c815260200180610a0f602c913960400191505060405180910390fd5b603480546001600160a01b0319166001600160a01b0392909216919091179055565b6036546001600160a01b031681565b6035546001600160a01b031681565b6107b9610718565b6107f45760405162461bcd60e51b815260040180806020018281038252602c815260200180610a0f602c913960400191505060405180910390fd5b603680546001600160a01b0319166001600160a01b0392909216919091179055565b600054610100900460ff168061082f575061082f610968565b8061083d575060005460ff16155b6108785760405162461bcd60e51b815260040180806020018281038252602e815260200180610a3b602e913960400191505060405180910390fd5b600054610100900460ff161580156108a3576000805460ff1961ff0019909116610100171660011790555b6033805474ffffffffffffffffffffffffffffffffffffffffff19166101003302179055603480546001600160a01b03199081166001600160a01b0387811691909117909255603580548216868416179055603680549091169184169190911790558015610699576000805461ff001916905550505050565b610924610718565b61095f5760405162461bcd60e51b815260040180806020018281038252602c815260200180610a0f602c913960400191505060405180910390fd5b6105468161096e565b303b1590565b6001600160a01b0381166109b35760405162461bcd60e51b81526004018080602001828103825260268152602001806109e96026913960400191505060405180910390fd5b603380546001600160a01b039092166101000274ffffffffffffffffffffffffffffffffffffffff001990921691909117905556fe4f776e61626c653a206e6577206f776e657220697320746865207a65726f2061646472657373796f7520617265206e6f7420617574686f726973656420746f2063616c6c20746869732066756e6374696f6e436f6e747261637420696e7374616e63652068617320616c7265616479206265656e20696e697469616c697a6564a265627a7a72315820ff8316fddea1a24ab514c97c6ca6794ab368a8d5e618165c34648caaa116baf564736f6c634300050d0032",
  "compiler": {
    "name": "solc",
    "version": "0.5.13+commit.5b0b510c.Emscripten.clang",
    "optimizer": {
      "enabled": true,
      "runs": 500
    },
    "evmVersion": "petersburg"
  }
}