{
  "fileName": "ChainLink_LinkToken_LLPZap.sol",
  "contractName": "ChainLink_LinkToken_LLPZap",
  "source": "// Copyright (C) 2019, 2020 dipeshsukhani, nodarjonashi, toshsharma, suhailg\n\n// This program is free software: you can redistribute it and/or modify\n// it under the terms of the GNU Affero General Public License as published by\n// the Free Software Foundation, either version 2 of the License, or\n// (at your option) any later version.\n//\n// This program is distributed in the hope that it will be useful,\n// but WITHOUT ANY WARRANTY; without even the implied warranty of\n// MERCHANTABILITY or FITNESS FOR A PARTICULAR PURPOSE.  See the\n// GNU Affero General Public License for more details.\n//\n// Visit <https://www.gnu.org/licenses/>for a copy of the GNU Affero General Public License\n\n/**\n * WARNING: This is an upgradable contract. Be careful not to disrupt\n * the existing storage layout when making upgrades to the contract. In particular,\n * existing fields should not be removed and should not have their types changed.\n * The order of field declarations must not be changed, and new fields must be added\n * below all existing declarations.\n *\n * The base contracts and the order in which they are declared must not be changed.\n * New fields must not be added to base contracts (unless the base contract has\n * reserved placeholder fields for this purpose).\n *\n * See https://docs.zeppelinos.org/docs/writing_contracts.html for more info.\n*/\n\npragma solidity ^0.5.0;\n\nimport \"../../../node_modules/@openzeppelin/upgrades/contracts/Initializable.sol\";\nimport \"../../../node_modules/@openzeppelin/contracts-ethereum-package/contracts/math/SafeMath.sol\";\nimport \"../../../node_modules/@openzeppelin/contracts-ethereum-package/contracts/token/ERC20/IERC20.sol\";\n\ninterface LLP_ERC20Token_General_Link {\n    function LetsInvest(\n        address payable _towhomtoIssueAddress,\n        uint256 _fulcrumPortionAllocation,\n        address _InvesteeTokenAddress,\n        address _fulcrumAddress,\n        address _ERC20forFulcrum\n    ) external payable returns (uint256);\n}\n\n// through this contract we are putting 34% allocation to 2xLongETH and 66% to Uniswap pool\ncontract ChainLink_LinkToken_LLPZap is Initializable {\n    using SafeMath for uint256;\n\n    // state variables\n\n    // - THESE MUST ALWAYS STAY IN THE SAME LAYOUT\n    bool private stopped;\n    address payable public owner;\n    LLP_ERC20Token_General_Link public LLP_ERC20Token_GeneralAddress;\n    address public ChainLinkAddress;\n    address public ChainLinkFulCrumAddress;\n\n    // circuit breaker modifiers\n    modifier stopInEmergency {\n        if (stopped) {\n            revert(\"Temporarily Paused\");\n        } else {\n            _;\n        }\n    }\n    modifier onlyOwner() {\n        require(isOwner(), \"you are not authorised to call this function\");\n        _;\n    }\n\n    function initialize(\n        address _LLP_ERC20Token_GeneralAddress,\n        address _ChainLinkAddress,\n        address _ChainLinkFulCrumAddress\n    ) public initializer {\n        stopped = false;\n        owner = msg.sender;\n        LLP_ERC20Token_GeneralAddress = LLP_ERC20Token_General_Link(\n            _LLP_ERC20Token_GeneralAddress\n        );\n        ChainLinkAddress = _ChainLinkAddress;\n        ChainLinkFulCrumAddress = _ChainLinkFulCrumAddress;\n    }\n\n    // this function should be called should we ever want to change the underlying LLP_GeneralAddress Contract address\n    function set_LLP_ERC20Token_GeneralAddress(\n        address _new_LLP_ERC20Token_GeneralAddress\n    ) public onlyOwner {\n        LLP_ERC20Token_GeneralAddress = LLP_ERC20Token_General_Link(\n            _new_LLP_ERC20Token_GeneralAddress\n        );\n    }\n\n    // this function should be called should we ever want to change the underlying ChainLink Contract address\n    function set_ChainLinkAddress(address _new_ChainLinkAddress)\n        public\n        onlyOwner\n    {\n        ChainLinkAddress = _new_ChainLinkAddress;\n    }\n\n    // this function should be called should we ever want to change the underlying Fulcrum ChainLink Contract address\n    function set_ChainLinkFulCrumAddress(address _new_ChainLinkFulCrumAddress)\n        public\n        onlyOwner\n    {\n        ChainLinkFulCrumAddress = _new_ChainLinkFulCrumAddress;\n    }\n\n    // main function which will make the investments\n    function LetsInvest(\n        address payable _towhomtoIssueAddress,\n        uint256 _FulcrumAllocation\n    ) public payable returns (uint256) {\n        LLP_ERC20Token_GeneralAddress.LetsInvest.value(msg.value)(\n            _towhomtoIssueAddress,\n            34,\n            ChainLinkAddress,\n            ChainLinkFulCrumAddress,\n            ChainLinkAddress\n        );\n    }\n\n    function inCaseTokengetsStuck(IERC20 _TokenAddress) public onlyOwner {\n        uint256 qty = _TokenAddress.balanceOf(address(this));\n        _TokenAddress.transfer(owner, qty);\n    }\n\n    // - fallback function let you / anyone send ETH to this wallet without the need to call any function\n    function() external payable {\n        if (msg.sender != owner) {\n            LetsInvest(msg.sender, 34);\n        }\n    }\n\n    // - to Pause the contract\n    function toggleContractActive() public onlyOwner {\n        stopped = !stopped;\n    }\n\n    // - to withdraw any ETH balance sitting in the contract\n    function withdraw() public onlyOwner {\n        owner.transfer(address(this).balance);\n    }\n\n    // - to kill the contract\n    function destruct() public onlyOwner {\n        selfdestruct(owner);\n    }\n\n    /**\n     * @return true if `msg.sender` is the owner of the contract.\n     */\n    function isOwner() public view returns (bool) {\n        return msg.sender == owner;\n    }\n\n    /**\n     * @dev Transfers ownership of the contract to a new account (`newOwner`).\n     * Can only be called by the current owner.\n     */\n    function transferOwnership(address payable newOwner) public onlyOwner {\n        _transferOwnership(newOwner);\n    }\n\n    /**\n     * @dev Transfers ownership of the contract to a new account (`newOwner`).\n     */\n    function _transferOwnership(address payable newOwner) internal {\n        require(\n            newOwner != address(0),\n            \"Ownable: new owner is the zero address\"\n        );\n        owner = newOwner;\n    }\n\n}\n",
  "sourcePath": "contracts/UpdatedZaps/Done/ChainLink_LinkToken_LLPZap.sol",
  "abi": [
    {
      "payable": true,
      "stateMutability": "payable",
      "type": "fallback"
    },
    {
      "constant": true,
      "inputs": [],
      "name": "ChainLinkAddress",
      "outputs": [
        {
          "internalType": "address",
          "name": "",
          "type": "address"
        }
      ],
      "payable": false,
      "stateMutability": "view",
      "type": "function"
    },
    {
      "constant": true,
      "inputs": [],
      "name": "ChainLinkFulCrumAddress",
      "outputs": [
        {
          "internalType": "address",
          "name": "",
          "type": "address"
        }
      ],
      "payable": false,
      "stateMutability": "view",
      "type": "function"
    },
    {
      "constant": true,
      "inputs": [],
      "name": "LLP_ERC20Token_GeneralAddress",
      "outputs": [
        {
          "internalType": "contract LLP_ERC20Token_General_Link",
          "name": "",
          "type": "address"
        }
      ],
      "payable": false,
      "stateMutability": "view",
      "type": "function"
    },
    {
      "constant": false,
      "inputs": [
        {
          "internalType": "address payable",
          "name": "_towhomtoIssueAddress",
          "type": "address"
        },
        {
          "internalType": "uint256",
          "name": "_FulcrumAllocation",
          "type": "uint256"
        }
      ],
      "name": "LetsInvest",
      "outputs": [
        {
          "internalType": "uint256",
          "name": "",
          "type": "uint256"
        }
      ],
      "payable": true,
      "stateMutability": "payable",
      "type": "function"
    },
    {
      "constant": false,
      "inputs": [],
      "name": "destruct",
      "outputs": [],
      "payable": false,
      "stateMutability": "nonpayable",
      "type": "function"
    },
    {
      "constant": false,
      "inputs": [
        {
          "internalType": "contract IERC20",
          "name": "_TokenAddress",
          "type": "address"
        }
      ],
      "name": "inCaseTokengetsStuck",
      "outputs": [],
      "payable": false,
      "stateMutability": "nonpayable",
      "type": "function"
    },
    {
      "constant": false,
      "inputs": [
        {
          "internalType": "address",
          "name": "_LLP_ERC20Token_GeneralAddress",
          "type": "address"
        },
        {
          "internalType": "address",
          "name": "_ChainLinkAddress",
          "type": "address"
        },
        {
          "internalType": "address",
          "name": "_ChainLinkFulCrumAddress",
          "type": "address"
        }
      ],
      "name": "initialize",
      "outputs": [],
      "payable": false,
      "stateMutability": "nonpayable",
      "type": "function"
    },
    {
      "constant": true,
      "inputs": [],
      "name": "isOwner",
      "outputs": [
        {
          "internalType": "bool",
          "name": "",
          "type": "bool"
        }
      ],
      "payable": false,
      "stateMutability": "view",
      "type": "function"
    },
    {
      "constant": true,
      "inputs": [],
      "name": "owner",
      "outputs": [
        {
          "internalType": "address payable",
          "name": "",
          "type": "address"
        }
      ],
      "payable": false,
      "stateMutability": "view",
      "type": "function"
    },
    {
      "constant": false,
      "inputs": [
        {
          "internalType": "address",
          "name": "_new_ChainLinkAddress",
          "type": "address"
        }
      ],
      "name": "set_ChainLinkAddress",
      "outputs": [],
      "payable": false,
      "stateMutability": "nonpayable",
      "type": "function"
    },
    {
      "constant": false,
      "inputs": [
        {
          "internalType": "address",
          "name": "_new_ChainLinkFulCrumAddress",
          "type": "address"
        }
      ],
      "name": "set_ChainLinkFulCrumAddress",
      "outputs": [],
      "payable": false,
      "stateMutability": "nonpayable",
      "type": "function"
    },
    {
      "constant": false,
      "inputs": [
        {
          "internalType": "address",
          "name": "_new_LLP_ERC20Token_GeneralAddress",
          "type": "address"
        }
      ],
      "name": "set_LLP_ERC20Token_GeneralAddress",
      "outputs": [],
      "payable": false,
      "stateMutability": "nonpayable",
      "type": "function"
    },
    {
      "constant": false,
      "inputs": [],
      "name": "toggleContractActive",
      "outputs": [],
      "payable": false,
      "stateMutability": "nonpayable",
      "type": "function"
    },
    {
      "constant": false,
      "inputs": [
        {
          "internalType": "address payable",
          "name": "newOwner",
          "type": "address"
        }
      ],
      "name": "transferOwnership",
      "outputs": [],
      "payable": false,
      "stateMutability": "nonpayable",
      "type": "function"
    },
    {
      "constant": false,
      "inputs": [],
      "name": "withdraw",
      "outputs": [],
      "payable": false,
      "stateMutability": "nonpayable",
      "type": "function"
    }
  ],
  "bytecode": "0x608060405234801561001057600080fd5b50611284806100206000396000f3fe6080604052600436106100e85760003560e01c80638f32d59b1161008a578063c0a205ed11610059578063c0a205ed1461040f578063c0c53b8b14610460578063e8c949c3146104f1578063f2fde38b14610553576100e8565b80638f32d59b146102e157806391e2bb0014610310578063a0edcbb514610361578063ae4184f8146103b8576100e8565b806352fac32a116100c657806352fac32a14610191578063551196d5146101e85780638c294c5d146102395780638da5cb5b1461028a576100e8565b80631385d24c1461014c5780632b68b9c6146101635780633ccfd60b1461017a575b603360019054906101000a900473ffffffffffffffffffffffffffffffffffffffff1673ffffffffffffffffffffffffffffffffffffffff163373ffffffffffffffffffffffffffffffffffffffff161461014a576101483360226105a4565b505b005b34801561015857600080fd5b50610161610795565b005b34801561016f57600080fd5b5061017861081e565b005b34801561018657600080fd5b5061018f6108b6565b005b34801561019d57600080fd5b506101a6610995565b604051808273ffffffffffffffffffffffffffffffffffffffff1673ffffffffffffffffffffffffffffffffffffffff16815260200191505060405180910390f35b3480156101f457600080fd5b506102376004803603602081101561020b57600080fd5b81019080803573ffffffffffffffffffffffffffffffffffffffff1690602001909291905050506109bb565b005b34801561024557600080fd5b506102886004803603602081101561025c57600080fd5b81019080803573ffffffffffffffffffffffffffffffffffffffff169060200190929190505050610bbd565b005b34801561029657600080fd5b5061029f610c5e565b604051808273ffffffffffffffffffffffffffffffffffffffff1673ffffffffffffffffffffffffffffffffffffffff16815260200191505060405180910390f35b3480156102ed57600080fd5b506102f6610c84565b604051808215151515815260200191505060405180910390f35b34801561031c57600080fd5b5061035f6004803603602081101561033357600080fd5b81019080803573ffffffffffffffffffffffffffffffffffffffff169060200190929190505050610cdc565b005b34801561036d57600080fd5b50610376610d7d565b604051808273ffffffffffffffffffffffffffffffffffffffff1673ffffffffffffffffffffffffffffffffffffffff16815260200191505060405180910390f35b3480156103c457600080fd5b506103cd610da3565b604051808273ffffffffffffffffffffffffffffffffffffffff1673ffffffffffffffffffffffffffffffffffffffff16815260200191505060405180910390f35b34801561041b57600080fd5b5061045e6004803603602081101561043257600080fd5b81019080803573ffffffffffffffffffffffffffffffffffffffff169060200190929190505050610dc9565b005b34801561046c57600080fd5b506104ef6004803603606081101561048357600080fd5b81019080803573ffffffffffffffffffffffffffffffffffffffff169060200190929190803573ffffffffffffffffffffffffffffffffffffffff169060200190929190803573ffffffffffffffffffffffffffffffffffffffff169060200190929190505050610e6a565b005b61053d6004803603604081101561050757600080fd5b81019080803573ffffffffffffffffffffffffffffffffffffffff169060200190929190803590602001909291905050506105a4565b6040518082815260200191505060405180910390f35b34801561055f57600080fd5b506105a26004803603602081101561057657600080fd5b81019080803573ffffffffffffffffffffffffffffffffffffffff16906020019092919050505061108b565b005b6000603460009054906101000a900473ffffffffffffffffffffffffffffffffffffffff1673ffffffffffffffffffffffffffffffffffffffff166335ca5e4e34856022603560009054906101000a900473ffffffffffffffffffffffffffffffffffffffff16603660009054906101000a900473ffffffffffffffffffffffffffffffffffffffff16603560009054906101000a900473ffffffffffffffffffffffffffffffffffffffff166040518763ffffffff1660e01b8152600401808673ffffffffffffffffffffffffffffffffffffffff1673ffffffffffffffffffffffffffffffffffffffff1681526020018581526020018473ffffffffffffffffffffffffffffffffffffffff1673ffffffffffffffffffffffffffffffffffffffff1681526020018373ffffffffffffffffffffffffffffffffffffffff1673ffffffffffffffffffffffffffffffffffffffff1681526020018273ffffffffffffffffffffffffffffffffffffffff1673ffffffffffffffffffffffffffffffffffffffff168152602001955050505050506020604051808303818588803b15801561075257600080fd5b505af1158015610766573d6000803e3d6000fd5b50505050506040513d602081101561077d57600080fd5b81019080805190602001909291905050505092915050565b61079d610c84565b6107f2576040517f08c379a000000000000000000000000000000000000000000000000000000000815260040180806020018281038252602c8152602001806111f6602c913960400191505060405180910390fd5b603360009054906101000a900460ff1615603360006101000a81548160ff021916908315150217905550565b610826610c84565b61087b576040517f08c379a000000000000000000000000000000000000000000000000000000000815260040180806020018281038252602c8152602001806111f6602c913960400191505060405180910390fd5b603360019054906101000a900473ffffffffffffffffffffffffffffffffffffffff1673ffffffffffffffffffffffffffffffffffffffff16ff5b6108be610c84565b610913576040517f08c379a000000000000000000000000000000000000000000000000000000000815260040180806020018281038252602c8152602001806111f6602c913960400191505060405180910390fd5b603360019054906101000a900473ffffffffffffffffffffffffffffffffffffffff1673ffffffffffffffffffffffffffffffffffffffff166108fc3073ffffffffffffffffffffffffffffffffffffffff16319081150290604051600060405180830381858888f19350505050158015610992573d6000803e3d6000fd5b50565b603460009054906101000a900473ffffffffffffffffffffffffffffffffffffffff1681565b6109c3610c84565b610a18576040517f08c379a000000000000000000000000000000000000000000000000000000000815260040180806020018281038252602c8152602001806111f6602c913960400191505060405180910390fd5b60008173ffffffffffffffffffffffffffffffffffffffff166370a08231306040518263ffffffff1660e01b8152600401808273ffffffffffffffffffffffffffffffffffffffff1673ffffffffffffffffffffffffffffffffffffffff16815260200191505060206040518083038186803b158015610a9757600080fd5b505afa158015610aab573d6000803e3d6000fd5b505050506040513d6020811015610ac157600080fd5b810190808051906020019092919050505090508173ffffffffffffffffffffffffffffffffffffffff1663a9059cbb603360019054906101000a900473ffffffffffffffffffffffffffffffffffffffff16836040518363ffffffff1660e01b8152600401808373ffffffffffffffffffffffffffffffffffffffff1673ffffffffffffffffffffffffffffffffffffffff16815260200182815260200192505050602060405180830381600087803b158015610b7d57600080fd5b505af1158015610b91573d6000803e3d6000fd5b505050506040513d6020811015610ba757600080fd5b8101908080519060200190929190505050505050565b610bc5610c84565b610c1a576040517f08c379a000000000000000000000000000000000000000000000000000000000815260040180806020018281038252602c8152602001806111f6602c913960400191505060405180910390fd5b80603560006101000a81548173ffffffffffffffffffffffffffffffffffffffff021916908373ffffffffffffffffffffffffffffffffffffffff16021790555050565b603360019054906101000a900473ffffffffffffffffffffffffffffffffffffffff1681565b6000603360019054906101000a900473ffffffffffffffffffffffffffffffffffffffff1673ffffffffffffffffffffffffffffffffffffffff163373ffffffffffffffffffffffffffffffffffffffff1614905090565b610ce4610c84565b610d39576040517f08c379a000000000000000000000000000000000000000000000000000000000815260040180806020018281038252602c8152602001806111f6602c913960400191505060405180910390fd5b80603460006101000a81548173ffffffffffffffffffffffffffffffffffffffff021916908373ffffffffffffffffffffffffffffffffffffffff16021790555050565b603660009054906101000a900473ffffffffffffffffffffffffffffffffffffffff1681565b603560009054906101000a900473ffffffffffffffffffffffffffffffffffffffff1681565b610dd1610c84565b610e26576040517f08c379a000000000000000000000000000000000000000000000000000000000815260040180806020018281038252602c8152602001806111f6602c913960400191505060405180910390fd5b80603660006101000a81548173ffffffffffffffffffffffffffffffffffffffff021916908373ffffffffffffffffffffffffffffffffffffffff16021790555050565b600060019054906101000a900460ff1680610e895750610e886110f4565b5b80610ea057506000809054906101000a900460ff16155b610ef5576040517f08c379a000000000000000000000000000000000000000000000000000000000815260040180806020018281038252602e815260200180611222602e913960400191505060405180910390fd5b60008060019054906101000a900460ff161590508015610f45576001600060016101000a81548160ff02191690831515021790555060016000806101000a81548160ff0219169083151502179055505b6000603360006101000a81548160ff02191690831515021790555033603360016101000a81548173ffffffffffffffffffffffffffffffffffffffff021916908373ffffffffffffffffffffffffffffffffffffffff16021790555083603460006101000a81548173ffffffffffffffffffffffffffffffffffffffff021916908373ffffffffffffffffffffffffffffffffffffffff16021790555082603560006101000a81548173ffffffffffffffffffffffffffffffffffffffff021916908373ffffffffffffffffffffffffffffffffffffffff16021790555081603660006101000a81548173ffffffffffffffffffffffffffffffffffffffff021916908373ffffffffffffffffffffffffffffffffffffffff16021790555080156110855760008060016101000a81548160ff0219169083151502179055505b50505050565b611093610c84565b6110e8576040517f08c379a000000000000000000000000000000000000000000000000000000000815260040180806020018281038252602c8152602001806111f6602c913960400191505060405180910390fd5b6110f181611105565b50565b600080303b90506000811491505090565b600073ffffffffffffffffffffffffffffffffffffffff168173ffffffffffffffffffffffffffffffffffffffff16141561118b576040517f08c379a00000000000000000000000000000000000000000000000000000000081526004018080602001828103825260268152602001806111d06026913960400191505060405180910390fd5b80603360016101000a81548173ffffffffffffffffffffffffffffffffffffffff021916908373ffffffffffffffffffffffffffffffffffffffff1602179055505056fe4f776e61626c653a206e6577206f776e657220697320746865207a65726f2061646472657373796f7520617265206e6f7420617574686f726973656420746f2063616c6c20746869732066756e6374696f6e436f6e747261637420696e7374616e63652068617320616c7265616479206265656e20696e697469616c697a6564a265627a7a723158206256b0ece792460651e8b7aba88959e3b0709c717961306e99147226b72f15eb64736f6c634300050d0032",
  "compiler": {
    "name": "solc",
    "version": "0.5.13+commit.5b0b510c.Emscripten.clang",
    "optimizer": {
      "enabled": false,
      "runs": 200
    },
    "evmVersion": "petersburg"
  }
}