{
  "fileName": "DoubleBullZap_GiftZap.sol",
  "contractName": "DoubleBullZap",
  "source": "// Copyright (C) 2019, 2020 dipeshsukhani, nodarjonashi, toshsharma, suhailg\n\n// This program is free software: you can redistribute it and/or modify\n// it under the terms of the GNU Affero General Public License as published by\n// the Free Software Foundation, either version 2 of the License, or\n// (at your option) any later version.\n//\n// This program is distributed in the hope that it will be useful,\n// but WITHOUT ANY WARRANTY; without even the implied warranty of\n// MERCHANTABILITY or FITNESS FOR A PARTICULAR PURPOSE.  See the\n// GNU Affero General Public License for more details.\n//\n// Visit <https://www.gnu.org/licenses/>for a copy of the GNU Affero General Public License\n\n/**\n * WARNING: This is an upgradable contract. Be careful not to disrupt\n * the existing storage layout when making upgrades to the contract. In particular,\n * existing fields should not be removed and should not have their types changed.\n * The order of field declarations must not be changed, and new fields must be added\n * below all existing declarations.\n *\n * The base contracts and the order in which they are declared must not be changed.\n * New fields must not be added to base contracts (unless the base contract has\n * reserved placeholder fields for this purpose).\n *\n * See https://docs.zeppelinos.org/docs/writing_contracts.html for more info.\n*/\n\npragma solidity ^0.5.0;\n\nimport \"../../../node_modules/@openzeppelin/upgrades/contracts/Initializable.sol\";\nimport \"../../../node_modules/@openzeppelin/contracts-ethereum-package/contracts/math/SafeMath.sol\";\nimport \"../../../node_modules/@openzeppelin/contracts-ethereum-package/contracts/token/ERC20/IERC20.sol\";\n\n\ninterface Invest2Fulcrum2xLongBTC {\n    function LetsInvest2Fulcrum2xLongBTC(address _towhomtoissue) external payable;\n}\n\n// this is the underlying contract that invests in 2xLongETH on Fulcrum\ninterface Invest2Fulcrum2xLongETH {\n    function LetsInvest2Fulcrum(address _towhomtoissue) external payable;\n}\n\n\n// through this contract we are putting 50% allocation to 2xLongETH and 50% to 2xLongBTC\ncontract DoubleBullZap is Initializable {\n    using SafeMath for uint;\n    // state variables\n    \n     // state variables\n    \n    // - THESE MUST ALWAYS STAY IN THE SAME LAYOUT\n    bool private stopped;\n    address payable public owner;\n    Invest2Fulcrum2xLongETH public Invest2Fulcrum2xLong_ETHContract;\n    Invest2Fulcrum2xLongBTC public Invest2Fulcrum2xLong_BTCContract;\n\n    // circuit breaker modifiers\n    modifier stopInEmergency {\n        if (stopped) \n            {revert(\"Temporarily Paused\");} \n        else {\n            _;}\n        }\n    modifier onlyInEmergency {if (stopped) _;}\n    modifier onlyOwner() {\n        require(isOwner(), \"you are not authorised to call this function\");\n        _;\n    }\n    \n    function initialize() initializer public {\n        stopped = false;\n        owner = msg.sender;\n        Invest2Fulcrum2xLong_ETHContract = Invest2Fulcrum2xLongETH(0xAB58BBF6B6ca1B064aa59113AeA204F554E8fBAe);\n        Invest2Fulcrum2xLong_BTCContract = Invest2Fulcrum2xLongBTC(0xd455e7368BcaB144C2944aD679E4Aa10bB3766c1);\n    }\n\n    // this function should be called should we ever want to change the underlying Fulcrum Long ETHContract address\n    function set_Invest2Fulcrum2xLong_ETHContract (Invest2Fulcrum2xLongETH _Invest2Fulcrum2xLong_ETHContract) onlyOwner public {\n        Invest2Fulcrum2xLong_ETHContract = _Invest2Fulcrum2xLong_ETHContract;\n    }\n    \n    // this function should be called should we ever want to change the underlying Fulcrum Long ETHContract address\n    function set_Invest2Fulcrum2xLong_BTCContract (Invest2Fulcrum2xLongBTC _Invest2Fulcrum2xLong_BTCContract) onlyOwner public {\n        Invest2Fulcrum2xLong_BTCContract = _Invest2Fulcrum2xLong_BTCContract;\n    }\n    \n    // main function which will make the investments\n    function LetsInvest(address _towhomtoIssueAddress, uint _BTC2xLongAllocation, uint _slippage) stopInEmergency public payable {\n        require(_BTC2xLongAllocation >= 0 || _BTC2xLongAllocation <= 100, \"wrong allocation\");\n        uint BTC2xLongPortion = SafeMath.div(SafeMath.mul(msg.value,_BTC2xLongAllocation),100);\n        uint ETH2xLongPortion = SafeMath.sub(msg.value, BTC2xLongPortion);\n        require (SafeMath.sub(msg.value, SafeMath.add(BTC2xLongPortion, ETH2xLongPortion))==0, \"Cannot split incoming ETH appropriately\");\n        Invest2Fulcrum2xLong_BTCContract.LetsInvest2Fulcrum2xLongBTC.value(BTC2xLongPortion)(_towhomtoIssueAddress);\n        Invest2Fulcrum2xLong_ETHContract.LetsInvest2Fulcrum.value(ETH2xLongPortion)(_towhomtoIssueAddress);\n    }\n    \n    function inCaseTokengetsStuck(IERC20 _TokenAddress) onlyOwner public {\n        uint qty = _TokenAddress.balanceOf(address(this));\n        _TokenAddress.transfer(owner, qty);\n    }\n\n    // - fallback function let you / anyone send ETH to this wallet without the need to call any function\n    function() external payable {\n        if (msg.sender != owner) {\n            LetsInvest(msg.sender, 50, 5);}\n    }\n\n    // - to Pause the contract\n    function toggleContractActive() onlyOwner public {\n        stopped = !stopped;\n    }\n    // - to withdraw any ETH balance sitting in the contract\n    function withdraw() onlyOwner public{\n        owner.transfer(address(this).balance);\n    }\n    // - to kill the contract\n    function destruct() public onlyOwner {\n        selfdestruct(owner);\n    }\n    /**\n     * @return true if `msg.sender` is the owner of the contract.\n     */\n    function isOwner() public view returns (bool) {\n        return msg.sender == owner;\n    }\n\n    /**\n     * @dev Transfers ownership of the contract to a new account (`newOwner`).\n     * Can only be called by the current owner.\n     */\n    function transferOwnership(address payable newOwner) public onlyOwner {\n        _transferOwnership(newOwner);\n    }\n\n    /**\n     * @dev Transfers ownership of the contract to a new account (`newOwner`).\n     */\n    function _transferOwnership(address payable newOwner) internal {\n        require(newOwner != address(0), \"Ownable: new owner is the zero address\");\n        owner = newOwner;\n    }   \n}\n",
  "sourcePath": "contracts/UpdatedZaps/Done/DoubleBullZap_GiftZap.sol",
  "abi": [
    {
      "payable": true,
      "stateMutability": "payable",
      "type": "fallback"
    },
    {
      "constant": true,
      "inputs": [],
      "name": "Invest2Fulcrum2xLong_BTCContract",
      "outputs": [
        {
          "internalType": "contract Invest2Fulcrum2xLongBTC",
          "name": "",
          "type": "address"
        }
      ],
      "payable": false,
      "stateMutability": "view",
      "type": "function"
    },
    {
      "constant": true,
      "inputs": [],
      "name": "Invest2Fulcrum2xLong_ETHContract",
      "outputs": [
        {
          "internalType": "contract Invest2Fulcrum2xLongETH",
          "name": "",
          "type": "address"
        }
      ],
      "payable": false,
      "stateMutability": "view",
      "type": "function"
    },
    {
      "constant": false,
      "inputs": [
        {
          "internalType": "address",
          "name": "_towhomtoIssueAddress",
          "type": "address"
        },
        {
          "internalType": "uint256",
          "name": "_BTC2xLongAllocation",
          "type": "uint256"
        },
        {
          "internalType": "uint256",
          "name": "_slippage",
          "type": "uint256"
        }
      ],
      "name": "LetsInvest",
      "outputs": [],
      "payable": true,
      "stateMutability": "payable",
      "type": "function"
    },
    {
      "constant": false,
      "inputs": [],
      "name": "destruct",
      "outputs": [],
      "payable": false,
      "stateMutability": "nonpayable",
      "type": "function"
    },
    {
      "constant": false,
      "inputs": [
        {
          "internalType": "contract IERC20",
          "name": "_TokenAddress",
          "type": "address"
        }
      ],
      "name": "inCaseTokengetsStuck",
      "outputs": [],
      "payable": false,
      "stateMutability": "nonpayable",
      "type": "function"
    },
    {
      "constant": false,
      "inputs": [],
      "name": "initialize",
      "outputs": [],
      "payable": false,
      "stateMutability": "nonpayable",
      "type": "function"
    },
    {
      "constant": true,
      "inputs": [],
      "name": "isOwner",
      "outputs": [
        {
          "internalType": "bool",
          "name": "",
          "type": "bool"
        }
      ],
      "payable": false,
      "stateMutability": "view",
      "type": "function"
    },
    {
      "constant": true,
      "inputs": [],
      "name": "owner",
      "outputs": [
        {
          "internalType": "address payable",
          "name": "",
          "type": "address"
        }
      ],
      "payable": false,
      "stateMutability": "view",
      "type": "function"
    },
    {
      "constant": false,
      "inputs": [
        {
          "internalType": "contract Invest2Fulcrum2xLongBTC",
          "name": "_Invest2Fulcrum2xLong_BTCContract",
          "type": "address"
        }
      ],
      "name": "set_Invest2Fulcrum2xLong_BTCContract",
      "outputs": [],
      "payable": false,
      "stateMutability": "nonpayable",
      "type": "function"
    },
    {
      "constant": false,
      "inputs": [
        {
          "internalType": "contract Invest2Fulcrum2xLongETH",
          "name": "_Invest2Fulcrum2xLong_ETHContract",
          "type": "address"
        }
      ],
      "name": "set_Invest2Fulcrum2xLong_ETHContract",
      "outputs": [],
      "payable": false,
      "stateMutability": "nonpayable",
      "type": "function"
    },
    {
      "constant": false,
      "inputs": [],
      "name": "toggleContractActive",
      "outputs": [],
      "payable": false,
      "stateMutability": "nonpayable",
      "type": "function"
    },
    {
      "constant": false,
      "inputs": [
        {
          "internalType": "address payable",
          "name": "newOwner",
          "type": "address"
        }
      ],
      "name": "transferOwnership",
      "outputs": [],
      "payable": false,
      "stateMutability": "nonpayable",
      "type": "function"
    },
    {
      "constant": false,
      "inputs": [],
      "name": "withdraw",
      "outputs": [],
      "payable": false,
      "stateMutability": "nonpayable",
      "type": "function"
    }
  ],
  "bytecode": "0x608060405234801561001057600080fd5b50610d16806100206000396000f3fe6080604052600436106100d25760003560e01c80638129fc1c1161007f5780639f753909116100595780639f75390914610220578063e8ac5abd14610253578063f242cc1614610286578063f2fde38b1461029b576100d2565b80638129fc1c146101cd5780638da5cb5b146101e25780638f32d59b146101f7576100d2565b80633ccfd60b116100b05780633ccfd60b1461015357806352abee4a14610168578063551196d51461019a576100d2565b80631385d24c146100f85780632b68b9c61461010d5780633893bf8614610122575b60335461010090046001600160a01b031633146100f6576100f633603260056102ce565b005b34801561010457600080fd5b506100f6610475565b34801561011957600080fd5b506100f66104cc565b34801561012e57600080fd5b50610137610522565b604080516001600160a01b039092168252519081900360200190f35b34801561015f57600080fd5b506100f6610531565b6100f66004803603606081101561017e57600080fd5b506001600160a01b0381351690602081013590604001356102ce565b3480156101a657600080fd5b506100f6600480360360208110156101bd57600080fd5b50356001600160a01b03166105b8565b3480156101d957600080fd5b506100f66106ff565b3480156101ee57600080fd5b5061013761080e565b34801561020357600080fd5b5061020c610822565b604080519115158252519081900360200190f35b34801561022c57600080fd5b506100f66004803603602081101561024357600080fd5b50356001600160a01b0316610838565b34801561025f57600080fd5b506100f66004803603602081101561027657600080fd5b50356001600160a01b031661089d565b34801561029257600080fd5b50610137610902565b3480156102a757600080fd5b506100f6600480360360208110156102be57600080fd5b50356001600160a01b0316610911565b60335460ff1615610326576040805162461bcd60e51b815260206004820152601260248201527f54656d706f726172696c79205061757365640000000000000000000000000000604482015290519081900360640190fd5b600061033c610335348561095d565b60646109bf565b9050600061034a3483610a01565b905061035f3461035a8484610a43565b610a01565b1561039b5760405162461bcd60e51b8152600401808060200182810382526027815260200180610cbb6027913960400191505060405180910390fd5b60355460408051630688ecc360e31b81526001600160a01b03888116600483015291519190921691633447661891859160248082019260009290919082900301818588803b1580156103ec57600080fd5b505af1158015610400573d6000803e3d6000fd5b50506034546040805163c310331360e01b81526001600160a01b038b81166004830152915191909216945063c31033139350859250602480830192600092919082900301818588803b15801561045557600080fd5b505af1158015610469573d6000803e3d6000fd5b50505050505050505050565b61047d610822565b6104b85760405162461bcd60e51b815260040180806020018281038252602c815260200180610c40602c913960400191505060405180910390fd5b6033805460ff19811660ff90911615179055565b6104d4610822565b61050f5760405162461bcd60e51b815260040180806020018281038252602c815260200180610c40602c913960400191505060405180910390fd5b60335461010090046001600160a01b0316ff5b6035546001600160a01b031681565b610539610822565b6105745760405162461bcd60e51b815260040180806020018281038252602c815260200180610c40602c913960400191505060405180910390fd5b6033546040516001600160a01b036101009092049190911690303180156108fc02916000818181858888f193505050501580156105b5573d6000803e3d6000fd5b50565b6105c0610822565b6105fb5760405162461bcd60e51b815260040180806020018281038252602c815260200180610c40602c913960400191505060405180910390fd5b604080516370a0823160e01b815230600482015290516000916001600160a01b038416916370a0823191602480820192602092909190829003018186803b15801561064557600080fd5b505afa158015610659573d6000803e3d6000fd5b505050506040513d602081101561066f57600080fd5b50516033546040805163a9059cbb60e01b81526101009092046001600160a01b03908116600484015260248301849052905192935084169163a9059cbb916044808201926020929091908290030181600087803b1580156106cf57600080fd5b505af11580156106e3573d6000803e3d6000fd5b505050506040513d60208110156106f957600080fd5b50505050565b600054610100900460ff16806107185750610718610a9d565b80610726575060005460ff16155b6107615760405162461bcd60e51b815260040180806020018281038252602e815260200180610c8d602e913960400191505060405180910390fd5b600054610100900460ff1615801561078c576000805460ff1961ff0019909116610100171660011790555b60338054336101000274ffffffffffffffffffffffffffffffffffffffffff19909116179055603480546001600160a01b031990811673ab58bbf6b6ca1b064aa59113aea204f554e8fbae179091556035805490911673d455e7368bcab144c2944ad679e4aa10bb3766c117905580156105b5576000805461ff001916905550565b60335461010090046001600160a01b031681565b60335461010090046001600160a01b0316331490565b610840610822565b61087b5760405162461bcd60e51b815260040180806020018281038252602c815260200180610c40602c913960400191505060405180910390fd5b603480546001600160a01b0319166001600160a01b0392909216919091179055565b6108a5610822565b6108e05760405162461bcd60e51b815260040180806020018281038252602c815260200180610c40602c913960400191505060405180910390fd5b603580546001600160a01b0319166001600160a01b0392909216919091179055565b6034546001600160a01b031681565b610919610822565b6109545760405162461bcd60e51b815260040180806020018281038252602c815260200180610c40602c913960400191505060405180910390fd5b6105b581610aa3565b60008261096c575060006109b9565b8282028284828161097957fe5b04146109b65760405162461bcd60e51b8152600401808060200182810382526021815260200180610c6c6021913960400191505060405180910390fd5b90505b92915050565b60006109b683836040518060400160405280601a81526020017f536166654d6174683a206469766973696f6e206279207a65726f000000000000815250610b1d565b60006109b683836040518060400160405280601e81526020017f536166654d6174683a207375627472616374696f6e206f766572666c6f770000815250610bbf565b6000828201838110156109b6576040805162461bcd60e51b815260206004820152601b60248201527f536166654d6174683a206164646974696f6e206f766572666c6f770000000000604482015290519081900360640190fd5b303b1590565b6001600160a01b038116610ae85760405162461bcd60e51b8152600401808060200182810382526026815260200180610c1a6026913960400191505060405180910390fd5b603380546001600160a01b039092166101000274ffffffffffffffffffffffffffffffffffffffff0019909216919091179055565b60008183610ba95760405162461bcd60e51b81526004018080602001828103825283818151815260200191508051906020019080838360005b83811015610b6e578181015183820152602001610b56565b50505050905090810190601f168015610b9b5780820380516001836020036101000a031916815260200191505b509250505060405180910390fd5b506000838581610bb557fe5b0495945050505050565b60008184841115610c115760405162461bcd60e51b8152602060048201818152835160248401528351909283926044909101919085019080838360008315610b6e578181015183820152602001610b56565b50505090039056fe4f776e61626c653a206e6577206f776e657220697320746865207a65726f2061646472657373796f7520617265206e6f7420617574686f726973656420746f2063616c6c20746869732066756e6374696f6e536166654d6174683a206d756c7469706c69636174696f6e206f766572666c6f77436f6e747261637420696e7374616e63652068617320616c7265616479206265656e20696e697469616c697a656443616e6e6f742073706c697420696e636f6d696e672045544820617070726f7072696174656c79a265627a7a72315820ecaaba4cb47c51843ec0402d2802c546aa0a357ea341ca757caef5237fe6eea764736f6c634300050d0032",
  "compiler": {
    "name": "solc",
    "version": "0.5.13+commit.5b0b510c.Emscripten.clang",
    "optimizer": {
      "enabled": true,
      "runs": 500
    },
    "evmVersion": "petersburg"
  }
}