{
  "fileName": "DoubleBullZap_GiftZap.sol",
  "contractName": "DoubleBullZap",
  "source": "// Copyright (C) 2019, 2020 dipeshsukhani, nodarjonashi, toshsharma, suhailg\n\n// This program is free software: you can redistribute it and/or modify\n// it under the terms of the GNU Affero General Public License as published by\n// the Free Software Foundation, either version 2 of the License, or\n// (at your option) any later version.\n//\n// This program is distributed in the hope that it will be useful,\n// but WITHOUT ANY WARRANTY; without even the implied warranty of\n// MERCHANTABILITY or FITNESS FOR A PARTICULAR PURPOSE.  See the\n// GNU Affero General Public License for more details.\n//\n// Visit <https://www.gnu.org/licenses/>for a copy of the GNU Affero General Public License\n\n/**\n * WARNING: This is an upgradable contract. Be careful not to disrupt\n * the existing storage layout when making upgrades to the contract. In particular,\n * existing fields should not be removed and should not have their types changed.\n * The order of field declarations must not be changed, and new fields must be added\n * below all existing declarations.\n *\n * The base contracts and the order in which they are declared must not be changed.\n * New fields must not be added to base contracts (unless the base contract has\n * reserved placeholder fields for this purpose).\n *\n * See https://docs.zeppelinos.org/docs/writing_contracts.html for more info.\n*/\n\npragma solidity ^0.5.0;\n\nimport \"../../../node_modules/@openzeppelin/upgrades/contracts/Initializable.sol\";\nimport \"../../../node_modules/@openzeppelin/contracts-ethereum-package/contracts/math/SafeMath.sol\";\nimport \"../../../node_modules/@openzeppelin/contracts-ethereum-package/contracts/token/ERC20/IERC20.sol\";\n\n\ninterface Invest2Fulcrum2xLongBTC {\n    function LetsInvest2Fulcrum2xLongBTC(address _towhomtoissue) external payable;\n}\n\n// this is the underlying contract that invests in 2xLongETH on Fulcrum\ninterface Invest2Fulcrum2xLongETH {\n    function LetsInvest2Fulcrum(address _towhomtoissue) external payable;\n}\n\n\n// through this contract we are putting 50% allocation to 2xLongETH and 50% to 2xLongBTC\ncontract DoubleBullZap is Initializable {\n    using SafeMath for uint;\n    // state variables\n    \n     // state variables\n    \n    // - THESE MUST ALWAYS STAY IN THE SAME LAYOUT\n    bool private stopped;\n    address payable public owner;\n    Invest2Fulcrum2xLongETH public Invest2Fulcrum2xLong_ETHContract;\n    Invest2Fulcrum2xLongBTC public Invest2Fulcrum2xLong_BTCContract;\n\n    // circuit breaker modifiers\n    modifier stopInEmergency {\n        if (stopped) \n            {revert(\"Temporarily Paused\");} \n        else {\n            _;}\n        }\n    modifier onlyInEmergency {if (stopped) _;}\n    modifier onlyOwner() {\n        require(isOwner(), \"you are not authorised to call this function\");\n        _;\n    }\n    \n    function initialize() initializer public {\n        stopped = false;\n        owner = msg.sender;\n        Invest2Fulcrum2xLong_ETHContract = Invest2Fulcrum2xLongETH(0xAB58BBF6B6ca1B064aa59113AeA204F554E8fBAe);\n        Invest2Fulcrum2xLong_BTCContract = Invest2Fulcrum2xLongBTC(0xd455e7368BcaB144C2944aD679E4Aa10bB3766c1);\n    }\n\n    // this function should be called should we ever want to change the underlying Fulcrum Long ETHContract address\n    function set_Invest2Fulcrum2xLong_ETHContract (Invest2Fulcrum2xLongETH _Invest2Fulcrum2xLong_ETHContract) onlyOwner public {\n        Invest2Fulcrum2xLong_ETHContract = _Invest2Fulcrum2xLong_ETHContract;\n    }\n    \n    // this function should be called should we ever want to change the underlying Fulcrum Long ETHContract address\n    function set_Invest2Fulcrum2xLong_BTCContract (Invest2Fulcrum2xLongBTC _Invest2Fulcrum2xLong_BTCContract) onlyOwner public {\n        Invest2Fulcrum2xLong_BTCContract = _Invest2Fulcrum2xLong_BTCContract;\n    }\n    \n    // main function which will make the investments\n    function LetsInvest(address _towhomtoIssueAddress, uint _BTC2xLongAllocation, uint _slippage) stopInEmergency public payable {\n        require(_BTC2xLongAllocation >= 0 || _BTC2xLongAllocation <= 100, \"wrong allocation\");\n        uint BTC2xLongPortion = SafeMath.div(SafeMath.mul(msg.value,_BTC2xLongAllocation),100);\n        uint ETH2xLongPortion = SafeMath.sub(msg.value, BTC2xLongPortion);\n        require (SafeMath.sub(msg.value, SafeMath.add(BTC2xLongPortion, ETH2xLongPortion))==0, \"Cannot split incoming ETH appropriately\");\n        Invest2Fulcrum2xLong_BTCContract.LetsInvest2Fulcrum2xLongBTC.value(BTC2xLongPortion)(_towhomtoIssueAddress);\n        Invest2Fulcrum2xLong_ETHContract.LetsInvest2Fulcrum.value(ETH2xLongPortion)(_towhomtoIssueAddress);\n    }\n    \n    function inCaseTokengetsStuck(IERC20 _TokenAddress) onlyOwner public {\n        uint qty = _TokenAddress.balanceOf(address(this));\n        _TokenAddress.transfer(owner, qty);\n    }\n\n    // - fallback function let you / anyone send ETH to this wallet without the need to call any function\n    function() external payable {\n        if (msg.sender != owner) {\n            LetsInvest(msg.sender, 50, 5);}\n    }\n\n    // - to Pause the contract\n    function toggleContractActive() onlyOwner public {\n        stopped = !stopped;\n    }\n    // - to withdraw any ETH balance sitting in the contract\n    function withdraw() onlyOwner public{\n        owner.transfer(address(this).balance);\n    }\n    // - to kill the contract\n    function destruct() public onlyOwner {\n        selfdestruct(owner);\n    }\n    /**\n     * @return true if `msg.sender` is the owner of the contract.\n     */\n    function isOwner() public view returns (bool) {\n        return msg.sender == owner;\n    }\n\n    /**\n     * @dev Transfers ownership of the contract to a new account (`newOwner`).\n     * Can only be called by the current owner.\n     */\n    function transferOwnership(address payable newOwner) public onlyOwner {\n        _transferOwnership(newOwner);\n    }\n\n    /**\n     * @dev Transfers ownership of the contract to a new account (`newOwner`).\n     */\n    function _transferOwnership(address payable newOwner) internal {\n        require(newOwner != address(0), \"Ownable: new owner is the zero address\");\n        owner = newOwner;\n    }   \n}\n",
  "sourcePath": "contracts/UpdatedZaps/Current WIP/DoubleBullZap_GiftZap.sol",
  "abi": [
    {
      "payable": true,
      "stateMutability": "payable",
      "type": "fallback"
    },
    {
      "constant": true,
      "inputs": [],
      "name": "Invest2Fulcrum2xLong_BTCContract",
      "outputs": [
        {
          "internalType": "contract Invest2Fulcrum2xLongBTC",
          "name": "",
          "type": "address"
        }
      ],
      "payable": false,
      "stateMutability": "view",
      "type": "function"
    },
    {
      "constant": true,
      "inputs": [],
      "name": "Invest2Fulcrum2xLong_ETHContract",
      "outputs": [
        {
          "internalType": "contract Invest2Fulcrum2xLongETH",
          "name": "",
          "type": "address"
        }
      ],
      "payable": false,
      "stateMutability": "view",
      "type": "function"
    },
    {
      "constant": false,
      "inputs": [
        {
          "internalType": "address",
          "name": "_towhomtoIssueAddress",
          "type": "address"
        },
        {
          "internalType": "uint256",
          "name": "_BTC2xLongAllocation",
          "type": "uint256"
        },
        {
          "internalType": "uint256",
          "name": "_slippage",
          "type": "uint256"
        }
      ],
      "name": "LetsInvest",
      "outputs": [],
      "payable": true,
      "stateMutability": "payable",
      "type": "function"
    },
    {
      "constant": false,
      "inputs": [],
      "name": "destruct",
      "outputs": [],
      "payable": false,
      "stateMutability": "nonpayable",
      "type": "function"
    },
    {
      "constant": false,
      "inputs": [
        {
          "internalType": "contract IERC20",
          "name": "_TokenAddress",
          "type": "address"
        }
      ],
      "name": "inCaseTokengetsStuck",
      "outputs": [],
      "payable": false,
      "stateMutability": "nonpayable",
      "type": "function"
    },
    {
      "constant": false,
      "inputs": [],
      "name": "initialize",
      "outputs": [],
      "payable": false,
      "stateMutability": "nonpayable",
      "type": "function"
    },
    {
      "constant": true,
      "inputs": [],
      "name": "isOwner",
      "outputs": [
        {
          "internalType": "bool",
          "name": "",
          "type": "bool"
        }
      ],
      "payable": false,
      "stateMutability": "view",
      "type": "function"
    },
    {
      "constant": true,
      "inputs": [],
      "name": "owner",
      "outputs": [
        {
          "internalType": "address payable",
          "name": "",
          "type": "address"
        }
      ],
      "payable": false,
      "stateMutability": "view",
      "type": "function"
    },
    {
      "constant": false,
      "inputs": [
        {
          "internalType": "contract Invest2Fulcrum2xLongBTC",
          "name": "_Invest2Fulcrum2xLong_BTCContract",
          "type": "address"
        }
      ],
      "name": "set_Invest2Fulcrum2xLong_BTCContract",
      "outputs": [],
      "payable": false,
      "stateMutability": "nonpayable",
      "type": "function"
    },
    {
      "constant": false,
      "inputs": [
        {
          "internalType": "contract Invest2Fulcrum2xLongETH",
          "name": "_Invest2Fulcrum2xLong_ETHContract",
          "type": "address"
        }
      ],
      "name": "set_Invest2Fulcrum2xLong_ETHContract",
      "outputs": [],
      "payable": false,
      "stateMutability": "nonpayable",
      "type": "function"
    },
    {
      "constant": false,
      "inputs": [],
      "name": "toggleContractActive",
      "outputs": [],
      "payable": false,
      "stateMutability": "nonpayable",
      "type": "function"
    },
    {
      "constant": false,
      "inputs": [
        {
          "internalType": "address payable",
          "name": "newOwner",
          "type": "address"
        }
      ],
      "name": "transferOwnership",
      "outputs": [],
      "payable": false,
      "stateMutability": "nonpayable",
      "type": "function"
    },
    {
      "constant": false,
      "inputs": [],
      "name": "withdraw",
      "outputs": [],
      "payable": false,
      "stateMutability": "nonpayable",
      "type": "function"
    }
  ],
  "bytecode": "0x608060405234801561001057600080fd5b506114e1806100206000396000f3fe6080604052600436106100c25760003560e01c80638129fc1c1161007f5780639f753909116100595780639f75390914610309578063e8ac5abd1461035a578063f242cc16146103ab578063f2fde38b14610402576100c2565b80638129fc1c1461026c5780638da5cb5b146102835780638f32d59b146102da576100c2565b80631385d24c146101275780632b68b9c61461013e5780633893bf86146101555780633ccfd60b146101ac57806352abee4a146101c3578063551196d51461021b575b603360019054906101000a900473ffffffffffffffffffffffffffffffffffffffff1673ffffffffffffffffffffffffffffffffffffffff163373ffffffffffffffffffffffffffffffffffffffff1614610125576101243360326005610453565b5b005b34801561013357600080fd5b5061013c610765565b005b34801561014a57600080fd5b506101536107ee565b005b34801561016157600080fd5b5061016a610886565b604051808273ffffffffffffffffffffffffffffffffffffffff1673ffffffffffffffffffffffffffffffffffffffff16815260200191505060405180910390f35b3480156101b857600080fd5b506101c16108ac565b005b610219600480360360608110156101d957600080fd5b81019080803573ffffffffffffffffffffffffffffffffffffffff1690602001909291908035906020019092919080359060200190929190505050610453565b005b34801561022757600080fd5b5061026a6004803603602081101561023e57600080fd5b81019080803573ffffffffffffffffffffffffffffffffffffffff16906020019092919050505061098b565b005b34801561027857600080fd5b50610281610b8d565b005b34801561028f57600080fd5b50610298610d92565b604051808273ffffffffffffffffffffffffffffffffffffffff1673ffffffffffffffffffffffffffffffffffffffff16815260200191505060405180910390f35b3480156102e657600080fd5b506102ef610db8565b604051808215151515815260200191505060405180910390f35b34801561031557600080fd5b506103586004803603602081101561032c57600080fd5b81019080803573ffffffffffffffffffffffffffffffffffffffff169060200190929190505050610e10565b005b34801561036657600080fd5b506103a96004803603602081101561037d57600080fd5b81019080803573ffffffffffffffffffffffffffffffffffffffff169060200190929190505050610eb1565b005b3480156103b757600080fd5b506103c0610f52565b604051808273ffffffffffffffffffffffffffffffffffffffff1673ffffffffffffffffffffffffffffffffffffffff16815260200191505060405180910390f35b34801561040e57600080fd5b506104516004803603602081101561042557600080fd5b81019080803573ffffffffffffffffffffffffffffffffffffffff169060200190929190505050610f78565b005b603360009054906101000a900460ff16156104d6576040517f08c379a00000000000000000000000000000000000000000000000000000000081526004018080602001828103825260128152602001807f54656d706f726172696c7920506175736564000000000000000000000000000081525060200191505060405180910390fd5b6000821015806104e7575060648211155b610559576040517f08c379a00000000000000000000000000000000000000000000000000000000081526004018080602001828103825260108152602001807f77726f6e6720616c6c6f636174696f6e0000000000000000000000000000000081525060200191505060405180910390fd5b600061056f6105683485610fe1565b6064611067565b9050600061057d34836110b1565b905060006105943461058f85856110fb565b6110b1565b146105ea576040517f08c379a00000000000000000000000000000000000000000000000000000000081526004018080602001828103825260278152602001806114866027913960400191505060405180910390fd5b603560009054906101000a900473ffffffffffffffffffffffffffffffffffffffff1673ffffffffffffffffffffffffffffffffffffffff16633447661883876040518363ffffffff1660e01b8152600401808273ffffffffffffffffffffffffffffffffffffffff1673ffffffffffffffffffffffffffffffffffffffff1681526020019150506000604051808303818588803b15801561068b57600080fd5b505af115801561069f573d6000803e3d6000fd5b5050505050603460009054906101000a900473ffffffffffffffffffffffffffffffffffffffff1673ffffffffffffffffffffffffffffffffffffffff1663c310331382876040518363ffffffff1660e01b8152600401808273ffffffffffffffffffffffffffffffffffffffff1673ffffffffffffffffffffffffffffffffffffffff1681526020019150506000604051808303818588803b15801561074557600080fd5b505af1158015610759573d6000803e3d6000fd5b50505050505050505050565b61076d610db8565b6107c2576040517f08c379a000000000000000000000000000000000000000000000000000000000815260040180806020018281038252602c81526020018061140b602c913960400191505060405180910390fd5b603360009054906101000a900460ff1615603360006101000a81548160ff021916908315150217905550565b6107f6610db8565b61084b576040517f08c379a000000000000000000000000000000000000000000000000000000000815260040180806020018281038252602c81526020018061140b602c913960400191505060405180910390fd5b603360019054906101000a900473ffffffffffffffffffffffffffffffffffffffff1673ffffffffffffffffffffffffffffffffffffffff16ff5b603560009054906101000a900473ffffffffffffffffffffffffffffffffffffffff1681565b6108b4610db8565b610909576040517f08c379a000000000000000000000000000000000000000000000000000000000815260040180806020018281038252602c81526020018061140b602c913960400191505060405180910390fd5b603360019054906101000a900473ffffffffffffffffffffffffffffffffffffffff1673ffffffffffffffffffffffffffffffffffffffff166108fc3073ffffffffffffffffffffffffffffffffffffffff16319081150290604051600060405180830381858888f19350505050158015610988573d6000803e3d6000fd5b50565b610993610db8565b6109e8576040517f08c379a000000000000000000000000000000000000000000000000000000000815260040180806020018281038252602c81526020018061140b602c913960400191505060405180910390fd5b60008173ffffffffffffffffffffffffffffffffffffffff166370a08231306040518263ffffffff1660e01b8152600401808273ffffffffffffffffffffffffffffffffffffffff1673ffffffffffffffffffffffffffffffffffffffff16815260200191505060206040518083038186803b158015610a6757600080fd5b505afa158015610a7b573d6000803e3d6000fd5b505050506040513d6020811015610a9157600080fd5b810190808051906020019092919050505090508173ffffffffffffffffffffffffffffffffffffffff1663a9059cbb603360019054906101000a900473ffffffffffffffffffffffffffffffffffffffff16836040518363ffffffff1660e01b8152600401808373ffffffffffffffffffffffffffffffffffffffff1673ffffffffffffffffffffffffffffffffffffffff16815260200182815260200192505050602060405180830381600087803b158015610b4d57600080fd5b505af1158015610b61573d6000803e3d6000fd5b505050506040513d6020811015610b7757600080fd5b8101908080519060200190929190505050505050565b600060019054906101000a900460ff1680610bac5750610bab611183565b5b80610bc357506000809054906101000a900460ff16155b610c18576040517f08c379a000000000000000000000000000000000000000000000000000000000815260040180806020018281038252602e815260200180611458602e913960400191505060405180910390fd5b60008060019054906101000a900460ff161590508015610c68576001600060016101000a81548160ff02191690831515021790555060016000806101000a81548160ff0219169083151502179055505b6000603360006101000a81548160ff02191690831515021790555033603360016101000a81548173ffffffffffffffffffffffffffffffffffffffff021916908373ffffffffffffffffffffffffffffffffffffffff16021790555073ab58bbf6b6ca1b064aa59113aea204f554e8fbae603460006101000a81548173ffffffffffffffffffffffffffffffffffffffff021916908373ffffffffffffffffffffffffffffffffffffffff16021790555073d455e7368bcab144c2944ad679e4aa10bb3766c1603560006101000a81548173ffffffffffffffffffffffffffffffffffffffff021916908373ffffffffffffffffffffffffffffffffffffffff1602179055508015610d8f5760008060016101000a81548160ff0219169083151502179055505b50565b603360019054906101000a900473ffffffffffffffffffffffffffffffffffffffff1681565b6000603360019054906101000a900473ffffffffffffffffffffffffffffffffffffffff1673ffffffffffffffffffffffffffffffffffffffff163373ffffffffffffffffffffffffffffffffffffffff1614905090565b610e18610db8565b610e6d576040517f08c379a000000000000000000000000000000000000000000000000000000000815260040180806020018281038252602c81526020018061140b602c913960400191505060405180910390fd5b80603460006101000a81548173ffffffffffffffffffffffffffffffffffffffff021916908373ffffffffffffffffffffffffffffffffffffffff16021790555050565b610eb9610db8565b610f0e576040517f08c379a000000000000000000000000000000000000000000000000000000000815260040180806020018281038252602c81526020018061140b602c913960400191505060405180910390fd5b80603560006101000a81548173ffffffffffffffffffffffffffffffffffffffff021916908373ffffffffffffffffffffffffffffffffffffffff16021790555050565b603460009054906101000a900473ffffffffffffffffffffffffffffffffffffffff1681565b610f80610db8565b610fd5576040517f08c379a000000000000000000000000000000000000000000000000000000000815260040180806020018281038252602c81526020018061140b602c913960400191505060405180910390fd5b610fde81611194565b50565b600080831415610ff45760009050611061565b600082840290508284828161100557fe5b041461105c576040517f08c379a00000000000000000000000000000000000000000000000000000000081526004018080602001828103825260218152602001806114376021913960400191505060405180910390fd5b809150505b92915050565b60006110a983836040518060400160405280601a81526020017f536166654d6174683a206469766973696f6e206279207a65726f00000000000081525061125e565b905092915050565b60006110f383836040518060400160405280601e81526020017f536166654d6174683a207375627472616374696f6e206f766572666c6f770000815250611324565b905092915050565b600080828401905083811015611179576040517f08c379a000000000000000000000000000000000000000000000000000000000815260040180806020018281038252601b8152602001807f536166654d6174683a206164646974696f6e206f766572666c6f77000000000081525060200191505060405180910390fd5b8091505092915050565b600080303b90506000811491505090565b600073ffffffffffffffffffffffffffffffffffffffff168173ffffffffffffffffffffffffffffffffffffffff16141561121a576040517f08c379a00000000000000000000000000000000000000000000000000000000081526004018080602001828103825260268152602001806113e56026913960400191505060405180910390fd5b80603360016101000a81548173ffffffffffffffffffffffffffffffffffffffff021916908373ffffffffffffffffffffffffffffffffffffffff16021790555050565b6000808311829061130a576040517f08c379a00000000000000000000000000000000000000000000000000000000081526004018080602001828103825283818151815260200191508051906020019080838360005b838110156112cf5780820151818401526020810190506112b4565b50505050905090810190601f1680156112fc5780820380516001836020036101000a031916815260200191505b509250505060405180910390fd5b50600083858161131657fe5b049050809150509392505050565b60008383111582906113d1576040517f08c379a00000000000000000000000000000000000000000000000000000000081526004018080602001828103825283818151815260200191508051906020019080838360005b8381101561139657808201518184015260208101905061137b565b50505050905090810190601f1680156113c35780820380516001836020036101000a031916815260200191505b509250505060405180910390fd5b506000838503905080915050939250505056fe4f776e61626c653a206e6577206f776e657220697320746865207a65726f2061646472657373796f7520617265206e6f7420617574686f726973656420746f2063616c6c20746869732066756e6374696f6e536166654d6174683a206d756c7469706c69636174696f6e206f766572666c6f77436f6e747261637420696e7374616e63652068617320616c7265616479206265656e20696e697469616c697a656443616e6e6f742073706c697420696e636f6d696e672045544820617070726f7072696174656c79a265627a7a72315820ad826316fdecacd00300cc6910c0293e0aa148030e8001ea17e09b9d21324aa864736f6c634300050d0032",
  "compiler": {
    "name": "solc",
    "version": "0.5.13+commit.5b0b510c.Emscripten.clang",
    "optimizer": {
      "enabled": false,
      "runs": 200
    },
    "evmVersion": "petersburg"
  }
}