{
  "fileName": "CustomZap1_backend.sol",
  "contractName": "DZCustomZap1_Calavera_Backend",
  "source": "// Copyright (C) 2019, 2020 dipeshsukhani, nodarjonashi, toshsharma, suhailg\n\n// This program is free software: you can redistribute it and/or modify\n// it under the terms of the GNU Affero General Public License as published by\n// the Free Software Foundation, either version 2 of the License, or\n// (at your option) any later version.\n//\n// This program is distributed in the hope that it will be useful,\n// but WITHOUT ANY WARRANTY; without even the implied warranty of\n// MERCHANTABILITY or FITNESS FOR A PARTICULAR PURPOSE.  See the\n// GNU Affero General Public License for more details.\n//\n// Visit <https://www.gnu.org/licenses/>for a copy of the GNU Affero General Public License\n\n/**\n * WARNING: This is an upgradable contract. Be careful not to disrupt\n * the existing storage layout when making upgrades to the contract. In particular,\n * existing fields should not be removed and should not have their types changed.\n * The order of field declarations must not be changed, and new fields must be added\n * below all existing declarations.\n *\n * The base contracts and the order in which they are declared must not be changed.\n * New fields must not be added to base contracts (unless the base contract has\n * reserved placeholder fields for this purpose).\n *\n * See https://docs.zeppelinos.org/docs/writing_contracts.html for more info.\n*/\n\npragma solidity ^0.5.0;\n\nimport \"../../../node_modules/@openzeppelin/upgrades/contracts/Initializable.sol\";\nimport \"../../../node_modules/@openzeppelin/contracts-ethereum-package/contracts/math/SafeMath.sol\";\nimport \"../../../node_modules/@openzeppelin/contracts-ethereum-package/contracts/token/ERC20/IERC20.sol\";\n\ninterface IUniswapFactory_CustomZap1_backend {\n    function getExchange(address token)\n        external\n        view\n        returns (address exchange);\n}\n\ninterface IuniswapExchange_CustomZap1_backend {\n    // for removing liquidity (returns ETH removed, ERC20 Removed)\n    function removeLiquidity(\n        uint256 amount,\n        uint256 min_eth,\n        uint256 min_tokens,\n        uint256 deadline\n    ) external returns (uint256, uint256);\n\n    // to convert ERC20 to ETH and transfer\n    function getTokenToEthInputPrice(uint256 tokens_sold)\n        external\n        view\n        returns (uint256 eth_bought);\n    function tokenToEthTransferInput(\n        uint256 tokens_sold,\n        uint256 min_eth,\n        uint256 deadline,\n        address recipient\n    ) external returns (uint256 eth_bought);\n    /// -- optional\n    function tokenToEthSwapInput(\n        uint256 tokens_sold,\n        uint256 min_eth,\n        uint256 deadline\n    ) external returns (uint256 eth_bought);\n\n    // to convert ETH to ERC20 and transfer\n    function getEthToTokenInputPrice(uint256 eth_sold)\n        external\n        view\n        returns (uint256 tokens_bought);\n    function ethToTokenTransferInput(\n        uint256 min_tokens,\n        uint256 deadline,\n        address recipient\n    ) external payable returns (uint256 tokens_bought);\n    /// -- optional\n    function ethToTokenSwapInput(uint256 min_tokens, uint256 deadline)\n        external\n        payable\n        returns (uint256 tokens_bought);\n\n    // converting ERC20 to ERC20 and transfer\n    function tokenToTokenTransferInput(\n        uint256 tokens_sold,\n        uint256 min_tokens_bought,\n        uint256 min_eth_bought,\n        uint256 deadline,\n        address recipient,\n        address token_addr\n    ) external returns (uint256 tokens_bought);\n\n    // misc\n    function allowance(address _owner, address _spender)\n        external\n        view\n        returns (uint256);\n    function balanceOf(address _owner) external view returns (uint256);\n    function transfer(address _to, uint256 _value) external returns (bool);\n    function transferFrom(address from, address to, uint256 tokens)\n        external\n        returns (bool success);\n\n}\n\ncontract DZCustomZap1_Calavera_Backend is Initializable {\n    using SafeMath for uint256;\n\n    // state variables\n    bool private stopped;\n    address payable public owner;\n    IUniswapFactory_CustomZap1_backend public UniSwapFactoryAddress;\n\n    // event\n    event txDetails(\n        address indexed endUser,\n        uint256 ETHValue,\n        address TokenAddress,\n        uint256 TokensIssued\n    );\n\n    // circuit breaker modifiers\n    modifier stopInEmergency {\n        if (stopped) {\n            revert(\"Temporarily Paused\");\n        } else {\n            _;\n        }\n    }\n\n    modifier onlyOwner() {\n        require(isOwner(), \"you are not authorised to call this function\");\n        _;\n    }\n\n    function initialize(address _UniSwapFactoryAddress) public initializer {\n        owner = msg.sender;\n        UniSwapFactoryAddress = IUniswapFactory_CustomZap1_backend(\n            _UniSwapFactoryAddress\n        );\n    }\n\n    function convertToToken(\n        address _toWhomToIssue,\n        uint16 _slippage,\n        address _TokenContractAddress\n    ) public payable {\n        IuniswapExchange_CustomZap1_backend UniSwapExchangeContractAddress = IuniswapExchange_CustomZap1_backend(\n            UniSwapFactoryAddress.getExchange(_TokenContractAddress)\n        );\n        uint256 min_Tokens = SafeMath.div(\n            SafeMath.mul(\n                UniSwapExchangeContractAddress.getEthToTokenInputPrice(\n                    msg.value\n                ),\n                98\n            ),\n            100\n        );\n        uint256 tokensBoughtAndSent = UniSwapExchangeContractAddress\n            .ethToTokenTransferInput\n            .value(msg.value)(\n            min_Tokens,\n            SafeMath.add(now, 1800),\n            _toWhomToIssue\n        );\n        emit txDetails(\n            _toWhomToIssue,\n            msg.value,\n            _TokenContractAddress,\n            tokensBoughtAndSent\n        );\n    }\n\n    function inCaseTokengetsStuck(IERC20 _TokenAddress) public onlyOwner {\n        uint256 qty = _TokenAddress.balanceOf(address(this));\n        _TokenAddress.transfer(owner, qty);\n    }\n\n    // - fallback function let you / anyone send ETH to this wallet without the need to call any function\n    function() external payable {\n        revert(\"not allowed\");\n    }\n\n    // - to Pause the contract\n    function toggleContractActive() public onlyOwner {\n        stopped = !stopped;\n    }\n\n    // - to withdraw any ETH balance sitting in the contract\n    function withdraw() public onlyOwner {\n        owner.transfer(address(this).balance);\n    }\n\n    // - to kill the contract\n    function destruct() public onlyOwner {\n        selfdestruct(owner);\n    }\n\n    /**\n     * @return true if `msg.sender` is the owner of the contract.\n     */\n    function isOwner() public view returns (bool) {\n        return msg.sender == owner;\n    }\n\n    /**\n     * @dev Transfers ownership of the contract to a new account (`newOwner`).\n     * Can only be called by the current owner.\n     */\n    function transferOwnership(address payable newOwner) public onlyOwner {\n        _transferOwnership(newOwner);\n    }\n\n    /**\n     * @dev Transfers ownership of the contract to a new account (`newOwner`).\n     */\n    function _transferOwnership(address payable newOwner) internal {\n        require(\n            newOwner != address(0),\n            \"Ownable: new owner is the zero address\"\n        );\n        owner = newOwner;\n    }\n\n}\n",
  "sourcePath": "contracts/UpdatedZaps/WIP/CustomZap1_backend.sol",
  "abi": [
    {
      "anonymous": false,
      "inputs": [
        {
          "indexed": true,
          "internalType": "address",
          "name": "endUser",
          "type": "address"
        },
        {
          "indexed": false,
          "internalType": "uint256",
          "name": "ETHValue",
          "type": "uint256"
        },
        {
          "indexed": false,
          "internalType": "address",
          "name": "TokenAddress",
          "type": "address"
        },
        {
          "indexed": false,
          "internalType": "uint256",
          "name": "TokensIssued",
          "type": "uint256"
        }
      ],
      "name": "txDetails",
      "type": "event"
    },
    {
      "payable": true,
      "stateMutability": "payable",
      "type": "fallback"
    },
    {
      "constant": true,
      "inputs": [],
      "name": "UniSwapFactoryAddress",
      "outputs": [
        {
          "internalType": "contract IUniswapFactory_CustomZap1_backend",
          "name": "",
          "type": "address"
        }
      ],
      "payable": false,
      "stateMutability": "view",
      "type": "function"
    },
    {
      "constant": false,
      "inputs": [
        {
          "internalType": "address",
          "name": "_toWhomToIssue",
          "type": "address"
        },
        {
          "internalType": "uint16",
          "name": "_slippage",
          "type": "uint16"
        },
        {
          "internalType": "address",
          "name": "_TokenContractAddress",
          "type": "address"
        }
      ],
      "name": "convertToToken",
      "outputs": [],
      "payable": true,
      "stateMutability": "payable",
      "type": "function"
    },
    {
      "constant": false,
      "inputs": [],
      "name": "destruct",
      "outputs": [],
      "payable": false,
      "stateMutability": "nonpayable",
      "type": "function"
    },
    {
      "constant": false,
      "inputs": [
        {
          "internalType": "contract IERC20",
          "name": "_TokenAddress",
          "type": "address"
        }
      ],
      "name": "inCaseTokengetsStuck",
      "outputs": [],
      "payable": false,
      "stateMutability": "nonpayable",
      "type": "function"
    },
    {
      "constant": false,
      "inputs": [
        {
          "internalType": "address",
          "name": "_UniSwapFactoryAddress",
          "type": "address"
        }
      ],
      "name": "initialize",
      "outputs": [],
      "payable": false,
      "stateMutability": "nonpayable",
      "type": "function"
    },
    {
      "constant": true,
      "inputs": [],
      "name": "isOwner",
      "outputs": [
        {
          "internalType": "bool",
          "name": "",
          "type": "bool"
        }
      ],
      "payable": false,
      "stateMutability": "view",
      "type": "function"
    },
    {
      "constant": true,
      "inputs": [],
      "name": "owner",
      "outputs": [
        {
          "internalType": "address payable",
          "name": "",
          "type": "address"
        }
      ],
      "payable": false,
      "stateMutability": "view",
      "type": "function"
    },
    {
      "constant": false,
      "inputs": [],
      "name": "toggleContractActive",
      "outputs": [],
      "payable": false,
      "stateMutability": "nonpayable",
      "type": "function"
    },
    {
      "constant": false,
      "inputs": [
        {
          "internalType": "address payable",
          "name": "newOwner",
          "type": "address"
        }
      ],
      "name": "transferOwnership",
      "outputs": [],
      "payable": false,
      "stateMutability": "nonpayable",
      "type": "function"
    },
    {
      "constant": false,
      "inputs": [],
      "name": "withdraw",
      "outputs": [],
      "payable": false,
      "stateMutability": "nonpayable",
      "type": "function"
    }
  ],
  "bytecode": "0x608060405234801561001057600080fd5b506110d4806100206000396000f3fe6080604052600436106100915760003560e01c80638da5cb5b116100595780638da5cb5b146101ec5780638f32d59b14610243578063ad88f05214610272578063c4d66de8146102e4578063f2fde38b1461033557610091565b80631385d24c146100ff5780632b68b9c6146101165780633ccfd60b1461012d578063525d509e14610144578063551196d51461019b575b6040517f08c379a000000000000000000000000000000000000000000000000000000000815260040180806020018281038252600b8152602001807f6e6f7420616c6c6f77656400000000000000000000000000000000000000000081525060200191505060405180910390fd5b34801561010b57600080fd5b50610114610386565b005b34801561012257600080fd5b5061012b61040f565b005b34801561013957600080fd5b506101426104a7565b005b34801561015057600080fd5b50610159610586565b604051808273ffffffffffffffffffffffffffffffffffffffff1673ffffffffffffffffffffffffffffffffffffffff16815260200191505060405180910390f35b3480156101a757600080fd5b506101ea600480360360208110156101be57600080fd5b81019080803573ffffffffffffffffffffffffffffffffffffffff1690602001909291905050506105ac565b005b3480156101f857600080fd5b506102016107ae565b604051808273ffffffffffffffffffffffffffffffffffffffff1673ffffffffffffffffffffffffffffffffffffffff16815260200191505060405180910390f35b34801561024f57600080fd5b506102586107d4565b604051808215151515815260200191505060405180910390f35b6102e26004803603606081101561028857600080fd5b81019080803573ffffffffffffffffffffffffffffffffffffffff169060200190929190803561ffff169060200190929190803573ffffffffffffffffffffffffffffffffffffffff16906020019092919050505061082c565b005b3480156102f057600080fd5b506103336004803603602081101561030757600080fd5b81019080803573ffffffffffffffffffffffffffffffffffffffff169060200190929190505050610b1a565b005b34801561034157600080fd5b506103846004803603602081101561035857600080fd5b81019080803573ffffffffffffffffffffffffffffffffffffffff169060200190929190505050610c9c565b005b61038e6107d4565b6103e3576040517f08c379a000000000000000000000000000000000000000000000000000000000815260040180806020018281038252602c815260200180611025602c913960400191505060405180910390fd5b603360009054906101000a900460ff1615603360006101000a81548160ff021916908315150217905550565b6104176107d4565b61046c576040517f08c379a000000000000000000000000000000000000000000000000000000000815260040180806020018281038252602c815260200180611025602c913960400191505060405180910390fd5b603360019054906101000a900473ffffffffffffffffffffffffffffffffffffffff1673ffffffffffffffffffffffffffffffffffffffff16ff5b6104af6107d4565b610504576040517f08c379a000000000000000000000000000000000000000000000000000000000815260040180806020018281038252602c815260200180611025602c913960400191505060405180910390fd5b603360019054906101000a900473ffffffffffffffffffffffffffffffffffffffff1673ffffffffffffffffffffffffffffffffffffffff166108fc3073ffffffffffffffffffffffffffffffffffffffff16319081150290604051600060405180830381858888f19350505050158015610583573d6000803e3d6000fd5b50565b603460009054906101000a900473ffffffffffffffffffffffffffffffffffffffff1681565b6105b46107d4565b610609576040517f08c379a000000000000000000000000000000000000000000000000000000000815260040180806020018281038252602c815260200180611025602c913960400191505060405180910390fd5b60008173ffffffffffffffffffffffffffffffffffffffff166370a08231306040518263ffffffff1660e01b8152600401808273ffffffffffffffffffffffffffffffffffffffff1673ffffffffffffffffffffffffffffffffffffffff16815260200191505060206040518083038186803b15801561068857600080fd5b505afa15801561069c573d6000803e3d6000fd5b505050506040513d60208110156106b257600080fd5b810190808051906020019092919050505090508173ffffffffffffffffffffffffffffffffffffffff1663a9059cbb603360019054906101000a900473ffffffffffffffffffffffffffffffffffffffff16836040518363ffffffff1660e01b8152600401808373ffffffffffffffffffffffffffffffffffffffff1673ffffffffffffffffffffffffffffffffffffffff16815260200182815260200192505050602060405180830381600087803b15801561076e57600080fd5b505af1158015610782573d6000803e3d6000fd5b505050506040513d602081101561079857600080fd5b8101908080519060200190929190505050505050565b603360019054906101000a900473ffffffffffffffffffffffffffffffffffffffff1681565b6000603360019054906101000a900473ffffffffffffffffffffffffffffffffffffffff1673ffffffffffffffffffffffffffffffffffffffff163373ffffffffffffffffffffffffffffffffffffffff1614905090565b6000603460009054906101000a900473ffffffffffffffffffffffffffffffffffffffff1673ffffffffffffffffffffffffffffffffffffffff166306f2bf62836040518263ffffffff1660e01b8152600401808273ffffffffffffffffffffffffffffffffffffffff1673ffffffffffffffffffffffffffffffffffffffff16815260200191505060206040518083038186803b1580156108cd57600080fd5b505afa1580156108e1573d6000803e3d6000fd5b505050506040513d60208110156108f757600080fd5b8101908080519060200190929190505050905060006109ac6109a58373ffffffffffffffffffffffffffffffffffffffff1663cd7724c3346040518263ffffffff1660e01b81526004018082815260200191505060206040518083038186803b15801561096357600080fd5b505afa158015610977573d6000803e3d6000fd5b505050506040513d602081101561098d57600080fd5b81019080805190602001909291905050506062610d05565b6064610d8b565b905060008273ffffffffffffffffffffffffffffffffffffffff1663ad65d76d34846109da42610708610dd5565b8a6040518563ffffffff1660e01b8152600401808481526020018381526020018273ffffffffffffffffffffffffffffffffffffffff1673ffffffffffffffffffffffffffffffffffffffff16815260200193505050506020604051808303818588803b158015610a4a57600080fd5b505af1158015610a5e573d6000803e3d6000fd5b50505050506040513d6020811015610a7557600080fd5b810190808051906020019092919050505090508573ffffffffffffffffffffffffffffffffffffffff167f84c67173e879a6aba5517cd57b0b28de000aee2dce9d0e3160c052843073fefb348684604051808481526020018373ffffffffffffffffffffffffffffffffffffffff1673ffffffffffffffffffffffffffffffffffffffff168152602001828152602001935050505060405180910390a2505050505050565b600060019054906101000a900460ff1680610b395750610b38610e5d565b5b80610b5057506000809054906101000a900460ff16155b610ba5576040517f08c379a000000000000000000000000000000000000000000000000000000000815260040180806020018281038252602e815260200180611072602e913960400191505060405180910390fd5b60008060019054906101000a900460ff161590508015610bf5576001600060016101000a81548160ff02191690831515021790555060016000806101000a81548160ff0219169083151502179055505b33603360016101000a81548173ffffffffffffffffffffffffffffffffffffffff021916908373ffffffffffffffffffffffffffffffffffffffff16021790555081603460006101000a81548173ffffffffffffffffffffffffffffffffffffffff021916908373ffffffffffffffffffffffffffffffffffffffff1602179055508015610c985760008060016101000a81548160ff0219169083151502179055505b5050565b610ca46107d4565b610cf9576040517f08c379a000000000000000000000000000000000000000000000000000000000815260040180806020018281038252602c815260200180611025602c913960400191505060405180910390fd5b610d0281610e6e565b50565b600080831415610d185760009050610d85565b6000828402905082848281610d2957fe5b0414610d80576040517f08c379a00000000000000000000000000000000000000000000000000000000081526004018080602001828103825260218152602001806110516021913960400191505060405180910390fd5b809150505b92915050565b6000610dcd83836040518060400160405280601a81526020017f536166654d6174683a206469766973696f6e206279207a65726f000000000000815250610f38565b905092915050565b600080828401905083811015610e53576040517f08c379a000000000000000000000000000000000000000000000000000000000815260040180806020018281038252601b8152602001807f536166654d6174683a206164646974696f6e206f766572666c6f77000000000081525060200191505060405180910390fd5b8091505092915050565b600080303b90506000811491505090565b600073ffffffffffffffffffffffffffffffffffffffff168173ffffffffffffffffffffffffffffffffffffffff161415610ef4576040517f08c379a0000000000000000000000000000000000000000000000000000000008152600401808060200182810382526026815260200180610fff6026913960400191505060405180910390fd5b80603360016101000a81548173ffffffffffffffffffffffffffffffffffffffff021916908373ffffffffffffffffffffffffffffffffffffffff16021790555050565b60008083118290610fe4576040517f08c379a00000000000000000000000000000000000000000000000000000000081526004018080602001828103825283818151815260200191508051906020019080838360005b83811015610fa9578082015181840152602081019050610f8e565b50505050905090810190601f168015610fd65780820380516001836020036101000a031916815260200191505b509250505060405180910390fd5b506000838581610ff057fe5b04905080915050939250505056fe4f776e61626c653a206e6577206f776e657220697320746865207a65726f2061646472657373796f7520617265206e6f7420617574686f726973656420746f2063616c6c20746869732066756e6374696f6e536166654d6174683a206d756c7469706c69636174696f6e206f766572666c6f77436f6e747261637420696e7374616e63652068617320616c7265616479206265656e20696e697469616c697a6564a265627a7a72315820771ad555d927e3861ac66feb2a1c4b1be1f646be41ab573e3542d1d787aac06a64736f6c634300050d0032",
  "compiler": {
    "name": "solc",
    "version": "0.5.13+commit.5b0b510c.Emscripten.clang",
    "optimizer": {
      "enabled": false,
      "runs": 200
    },
    "evmVersion": "petersburg"
  }
}