{
  "fileName": "ERC20toUniPoolZapV2_General.sol",
  "contractName": "ERC20toUniPoolZapV2_General",
  "source": "// Copyright (C) 2019, 2020 dipeshsukhani, nodarjonashia, suhailg\n\n// This program is free software: you can redistribute it and/or modify\n// it under the terms of the GNU Affero General Public License as published by\n// the Free Software Foundation, either version 2 of the License, or\n// (at your option) any later version.\n//\n// This program is distributed in the hope that it will be useful,\n// but WITHOUT ANY WARRANTY; without even the implied warranty of\n// MERCHANTABILITY or FITNESS FOR A PARTICULAR PURPOSE.  See the\n// GNU Affero General Public License for more details.\n//\n// Visit <https://www.gnu.org/licenses/>for a copy of the GNU Affero General Public License\n\n// File: localhost/defizap/node_modules/@openzeppelin/contracts-ethereum-package/contracts/token/ERC20/IERC20.sol\n\n///@author DeFiZap\n///@notice this contract implements one click conversion from ERC20 to UniPoolZap\n\npragma solidity ^0.5.0;\n\n\n/**\n * @dev Interface of the ERC20 standard as defined in the EIP. Does not include\n * the optional functions; to access them see {ERC20Detailed}.\n */\ninterface IERC20 {\n    /**\n     * @dev Returns the amount of tokens in existence.\n     */\n    function totalSupply() external view returns (uint256);\n\n    /**\n     * @dev Returns the amount of tokens owned by `account`.\n     */\n    function balanceOf(address account) external view returns (uint256);\n\n    /**\n     * @dev Moves `amount` tokens from the caller's account to `recipient`.\n     *\n     * Returns a boolean value indicating whether the operation succeeded.\n     *\n     * Emits a {Transfer} event.\n     */\n    function transfer(address recipient, uint256 amount)\n        external\n        returns (bool);\n\n    /**\n     * @dev Returns the remaining number of tokens that `spender` will be\n     * allowed to spend on behalf of `owner` through {transferFrom}. This is\n     * zero by default.\n     *\n     * This value changes when {approve} or {transferFrom} are called.\n     */\n    function allowance(address owner, address spender)\n        external\n        view\n        returns (uint256);\n\n    /**\n     * @dev Sets `amount` as the allowance of `spender` over the caller's tokens.\n     *\n     * Returns a boolean value indicating whether the operation succeeded.\n     *\n     * IMPORTANT: Beware that changing an allowance with this method brings the risk\n     * that someone may use both the old and the new allowance by unfortunate\n     * transaction ordering. One possible solution to mitigate this race\n     * condition is to first reduce the spender's allowance to 0 and set the\n     * desired value afterwards:\n     * https://github.com/ethereum/EIPs/issues/20#issuecomment-263524729\n     *\n     * Emits an {Approval} event.\n     */\n    function approve(address spender, uint256 amount) external returns (bool);\n\n    /**\n     * @dev Moves `amount` tokens from `sender` to `recipient` using the\n     * allowance mechanism. `amount` is then deducted from the caller's\n     * allowance.\n     *\n     * Returns a boolean value indicating whether the operation succeeded.\n     *\n     * Emits a {Transfer} event.\n     */\n    function transferFrom(address sender, address recipient, uint256 amount)\n        external\n        returns (bool);\n\n    /**\n     * @dev Emitted when `value` tokens are moved from one account (`from`) to\n     * another (`to`).\n     *\n     * Note that `value` may be zero.\n     */\n    event Transfer(address indexed from, address indexed to, uint256 value);\n\n    /**\n     * @dev Emitted when the allowance of a `spender` for an `owner` is set by\n     * a call to {approve}. `value` is the new allowance.\n     */\n    event Approval(\n        address indexed owner,\n        address indexed spender,\n        uint256 value\n    );\n}\n\n// File: localhost/defizap/node_modules/@openzeppelin/contracts-ethereum-package/contracts/math/SafeMath.sol\n\npragma solidity ^0.5.0;\n\n\n/**\n * @dev Wrappers over Solidity's arithmetic operations with added overflow\n * checks.\n *\n * Arithmetic operations in Solidity wrap on overflow. This can easily result\n * in bugs, because programmers usually assume that an overflow raises an\n * error, which is the standard behavior in high level programming languages.\n * `SafeMath` restores this intuition by reverting the transaction when an\n * operation overflows.\n *\n * Using this library instead of the unchecked operations eliminates an entire\n * class of bugs, so it's recommended to use it always.\n */\nlibrary SafeMath {\n    /**\n     * @dev Returns the addition of two unsigned integers, reverting on\n     * overflow.\n     *\n     * Counterpart to Solidity's `+` operator.\n     *\n     * Requirements:\n     * - Addition cannot overflow.\n     */\n    function add(uint256 a, uint256 b) internal pure returns (uint256) {\n        uint256 c = a + b;\n        require(c >= a, \"SafeMath: addition overflow\");\n\n        return c;\n    }\n\n    /**\n     * @dev Returns the subtraction of two unsigned integers, reverting on\n     * overflow (when the result is negative).\n     *\n     * Counterpart to Solidity's `-` operator.\n     *\n     * Requirements:\n     * - Subtraction cannot overflow.\n     */\n    function sub(uint256 a, uint256 b) internal pure returns (uint256) {\n        return sub(a, b, \"SafeMath: subtraction overflow\");\n    }\n\n    /**\n     * @dev Returns the subtraction of two unsigned integers, reverting with custom message on\n     * overflow (when the result is negative).\n     *\n     * Counterpart to Solidity's `-` operator.\n     *\n     * Requirements:\n     * - Subtraction cannot overflow.\n     *\n     * _Available since v2.4.0._\n     */\n    function sub(uint256 a, uint256 b, string memory errorMessage)\n        internal\n        pure\n        returns (uint256)\n    {\n        require(b <= a, errorMessage);\n        uint256 c = a - b;\n\n        return c;\n    }\n\n    /**\n     * @dev Returns the multiplication of two unsigned integers, reverting on\n     * overflow.\n     *\n     * Counterpart to Solidity's `*` operator.\n     *\n     * Requirements:\n     * - Multiplication cannot overflow.\n     */\n    function mul(uint256 a, uint256 b) internal pure returns (uint256) {\n        // Gas optimization: this is cheaper than requiring 'a' not being zero, but the\n        // benefit is lost if 'b' is also tested.\n        // See: https://github.com/OpenZeppelin/openzeppelin-contracts/pull/522\n        if (a == 0) {\n            return 0;\n        }\n\n        uint256 c = a * b;\n        require(c / a == b, \"SafeMath: multiplication overflow\");\n\n        return c;\n    }\n\n    /**\n     * @dev Returns the integer division of two unsigned integers. Reverts on\n     * division by zero. The result is rounded towards zero.\n     *\n     * Counterpart to Solidity's `/` operator. Note: this function uses a\n     * `revert` opcode (which leaves remaining gas untouched) while Solidity\n     * uses an invalid opcode to revert (consuming all remaining gas).\n     *\n     * Requirements:\n     * - The divisor cannot be zero.\n     */\n    function div(uint256 a, uint256 b) internal pure returns (uint256) {\n        return div(a, b, \"SafeMath: division by zero\");\n    }\n\n    /**\n     * @dev Returns the integer division of two unsigned integers. Reverts with custom message on\n     * division by zero. The result is rounded towards zero.\n     *\n     * Counterpart to Solidity's `/` operator. Note: this function uses a\n     * `revert` opcode (which leaves remaining gas untouched) while Solidity\n     * uses an invalid opcode to revert (consuming all remaining gas).\n     *\n     * Requirements:\n     * - The divisor cannot be zero.\n     *\n     * _Available since v2.4.0._\n     */\n    function div(uint256 a, uint256 b, string memory errorMessage)\n        internal\n        pure\n        returns (uint256)\n    {\n        // Solidity only automatically asserts when dividing by 0\n        require(b > 0, errorMessage);\n        uint256 c = a / b;\n        // assert(a == b * c + a % b); // There is no case in which this doesn't hold\n\n        return c;\n    }\n\n    /**\n     * @dev Returns the remainder of dividing two unsigned integers. (unsigned integer modulo),\n     * Reverts when dividing by zero.\n     *\n     * Counterpart to Solidity's `%` operator. This function uses a `revert`\n     * opcode (which leaves remaining gas untouched) while Solidity uses an\n     * invalid opcode to revert (consuming all remaining gas).\n     *\n     * Requirements:\n     * - The divisor cannot be zero.\n     */\n    function mod(uint256 a, uint256 b) internal pure returns (uint256) {\n        return mod(a, b, \"SafeMath: modulo by zero\");\n    }\n\n    /**\n     * @dev Returns the remainder of dividing two unsigned integers. (unsigned integer modulo),\n     * Reverts with custom message when dividing by zero.\n     *\n     * Counterpart to Solidity's `%` operator. This function uses a `revert`\n     * opcode (which leaves remaining gas untouched) while Solidity uses an\n     * invalid opcode to revert (consuming all remaining gas).\n     *\n     * Requirements:\n     * - The divisor cannot be zero.\n     *\n     * _Available since v2.4.0._\n     */\n    function mod(uint256 a, uint256 b, string memory errorMessage)\n        internal\n        pure\n        returns (uint256)\n    {\n        require(b != 0, errorMessage);\n        return a % b;\n    }\n}\n\n// File: localhost/defizap/node_modules/@openzeppelin/upgrades/contracts/Initializable.sol\n\npragma solidity >=0.4.24 <0.7.0;\n\n\n/**\n * @title Initializable\n *\n * @dev Helper contract to support initializer functions. To use it, replace\n * the constructor with a function that has the `initializer` modifier.\n * WARNING: Unlike constructors, initializer functions must be manually\n * invoked. This applies both to deploying an Initializable contract, as well\n * as extending an Initializable contract via inheritance.\n * WARNING: When used with inheritance, manual care must be taken to not invoke\n * a parent initializer twice, or ensure that all initializers are idempotent,\n * because this is not dealt with automatically as with constructors.\n */\ncontract Initializable {\n    /**\n     * @dev Indicates that the contract has been initialized.\n     */\n    bool private initialized;\n\n    /**\n     * @dev Indicates that the contract is in the process of being initialized.\n     */\n    bool private initializing;\n\n    /**\n     * @dev Modifier to use in the initializer function of a contract.\n     */\n    modifier initializer() {\n        require(\n            initializing || isConstructor() || !initialized,\n            \"Contract instance has already been initialized\"\n        );\n\n        bool isTopLevelCall = !initializing;\n        if (isTopLevelCall) {\n            initializing = true;\n            initialized = true;\n        }\n\n        _;\n\n        if (isTopLevelCall) {\n            initializing = false;\n        }\n    }\n\n    /// @dev Returns true if and only if the function is running in the constructor\n    function isConstructor() private view returns (bool) {\n        // extcodesize checks the size of the code stored in an address, and\n        // address returns the current address. Since the code is still not\n        // deployed when running a constructor, any checks on its code size will\n        // yield zero, making it an effective way to detect if a contract is\n        // under construction or not.\n        address self = address(this);\n        uint256 cs;\n        assembly {\n            cs := extcodesize(self)\n        }\n        return cs == 0;\n    }\n\n    // Reserved storage space to allow for layout changes in the future.\n    uint256[50] private ______gap;\n}\n\npragma solidity ^0.5.0;\n\n\n// interface\ninterface IuniswapFactory_ERC20toUniPoolZapV1 {\n    function getExchange(address token)\n        external\n        view\n        returns (address exchange);\n}\n\n\ninterface IuniswapExchange_ERC20toUniPoolZapV1 {\n    function getEthToTokenInputPrice(uint256 eth_sold)\n        external\n        view\n        returns (uint256 tokens_bought);\n\n    function ethToTokenSwapInput(uint256 min_tokens, uint256 deadline)\n        external\n        payable\n        returns (uint256 tokens_bought);\n\n    function balanceOf(address _owner) external view returns (uint256);\n\n    function transfer(address _to, uint256 _value) external returns (bool);\n\n    function tokenToEthSwapInput(\n        uint256 tokens_sold,\n        uint256 min_eth,\n        uint256 deadline\n    ) external returns (uint256 eth_bought);\n\n    function tokenToEthTransferInput(\n        uint256 tokens_sold,\n        uint256 min_eth,\n        uint256 deadline,\n        address recipient\n    ) external returns (uint256 eth_bought);\n\n    function tokenToTokenSwapInput(\n        uint256 tokens_sold,\n        uint256 min_tokens_bought,\n        uint256 min_eth_bought,\n        uint256 deadline,\n        address token_addr\n    ) external returns (uint256 tokens_bought);\n\n    function addLiquidity(\n        uint256 min_liquidity,\n        uint256 max_tokens,\n        uint256 deadline\n    ) external payable returns (uint256);\n}\n\n\ncontract Ownable {\n    address payable public owner = 0x19627796b318E27C333530aD67c464Cfc37596ec;\n\n    modifier onlyOwner() {\n        require(isOwner(), \"you are not authorised to call this function\");\n        _;\n    }\n\n    /**\n     * @return true if `msg.sender` is the owner of the contract.\n     */\n    function isOwner() public view returns (bool) {\n        return msg.sender == owner;\n    }\n\n    /**\n     * @dev Transfers ownership of the contract to a new account (`newOwner`).\n     * Can only be called by the current owner.\n     */\n    function transferOwnership(address payable newOwner) public onlyOwner {\n        _transferOwnership(newOwner);\n    }\n\n    /**\n     * @dev Transfers ownership of the contract to a new account (`newOwner`).\n     */\n    function _transferOwnership(address payable newOwner) internal {\n        require(\n            newOwner != address(0),\n            \"Ownable: new owner is the zero address\"\n        );\n        owner = newOwner;\n    }\n}\n\n\ncontract ERC20toUniPoolZapV2_General is Initializable, Ownable {\n    using SafeMath for uint256;\n\n    // state variables\n\n    // - THESE MUST ALWAYS STAY IN THE SAME LAYOUT\n    bool private stopped = false;\n\n    IuniswapFactory_ERC20toUniPoolZapV1 public UniSwapFactoryAddress = IuniswapFactory_ERC20toUniPoolZapV1(\n        0xc0a47dFe034B400B47bDaD5FecDa2621de6c4d95\n    );\n\n    mapping(address => uint256) private userBalance;\n\n    // events\n    event details(\n        address indexed user,\n        address toWhomIssued,\n        address indexed IncomingTokenAddress,\n        address indexed UniPoolUnderlyingTokenAddressTokenAddress\n    );\n    event residualETH(uint256 residualETHtransferred);\n\n    // circuit breaker modifiers\n    modifier stopInEmergency {\n        if (stopped) {\n            revert(\"Temporarily Paused\");\n        } else {\n            _;\n        }\n    }\n\n    constructor() public {}\n\n    function LetsInvest(\n        address _toWhomToIssue,\n        address _IncomingTokenContractAddress,\n        uint256 _IncomingTokenQty,\n        address _UniPoolsUnderlyingTokenAddress\n    ) public stopInEmergency returns (bool) {\n        //TODO: to remove the use of the storage variable investmentQTY\n        uint256 investmentQTY = _IncomingTokenQty;\n        require(\n            IERC20(_IncomingTokenContractAddress).transferFrom(\n                msg.sender,\n                address(this),\n                investmentQTY\n            ),\n            \"Error in transferring token:1\"\n        );\n        require(\n            (\n                invest2UniPool(\n                    investmentQTY,\n                    _toWhomToIssue,\n                    _IncomingTokenContractAddress,\n                    _UniPoolsUnderlyingTokenAddress\n                )\n            ),\n            \"error in invest2UniPool\"\n        );\n        emit details(\n            msg.sender,\n            _toWhomToIssue,\n            _IncomingTokenContractAddress,\n            _UniPoolsUnderlyingTokenAddress\n        );\n        return (true);\n    }\n\n    function invest2UniPool(\n        uint256 _ERC20QTY,\n        address _toWhomToIssue,\n        address _IncomingTokenContractAddress,\n        address _UniPoolsUnderlyingTokenAddress\n    ) internal returns (bool) {\n        // setting some internal variables\n        uint256 EthOnConversion;\n        uint256 nonConvertiblePortion;\n        IuniswapExchange_ERC20toUniPoolZapV1 UniSwapExchangeContractAddress;\n        // computation\n        if (_IncomingTokenContractAddress == _UniPoolsUnderlyingTokenAddress) {\n            nonConvertiblePortion = SafeMath.div(\n                SafeMath.mul(_ERC20QTY, 503),\n                1000\n            );\n            uint256 convertiblePortion = SafeMath.sub(\n                _ERC20QTY,\n                nonConvertiblePortion\n            );\n            // finding the uniswap address\n            UniSwapExchangeContractAddress = IuniswapExchange_ERC20toUniPoolZapV1(\n                UniSwapFactoryAddress.getExchange(_IncomingTokenContractAddress)\n            );\n            // approving the address\n            IERC20(_IncomingTokenContractAddress).approve(\n                address(UniSwapExchangeContractAddress),\n                _ERC20QTY\n            );\n            // converting the required portion to ETH\n            EthOnConversion = UniSwapExchangeContractAddress\n                .tokenToEthSwapInput(\n                convertiblePortion,\n                1,\n                SafeMath.add(now, 1800)\n            );\n        } else {\n            // convert ERCs\n\n                IuniswapExchange_ERC20toUniPoolZapV1 UniSwapExchangeContractAddress_incomingToken\n             = IuniswapExchange_ERC20toUniPoolZapV1(\n                UniSwapFactoryAddress.getExchange(_IncomingTokenContractAddress)\n            );\n\n            require(\n                (\n                    IERC20(_IncomingTokenContractAddress).approve(\n                        address(UniSwapExchangeContractAddress_incomingToken),\n                        _ERC20QTY\n                    )\n                ),\n                \"error in approval:3\"\n            );\n            uint256 nonConvertiblePortion_beforeConversion = SafeMath.div(\n                SafeMath.mul(_ERC20QTY, 503),\n                1000\n            );\n            nonConvertiblePortion = UniSwapExchangeContractAddress_incomingToken\n                .tokenToTokenSwapInput(\n                nonConvertiblePortion_beforeConversion,\n                1,\n                1,\n                SafeMath.add(now, 1800),\n                _UniPoolsUnderlyingTokenAddress\n            );\n\n            uint256 convertiblePortion = SafeMath.sub(\n                _ERC20QTY,\n                nonConvertiblePortion_beforeConversion\n            );\n\n            EthOnConversion = UniSwapExchangeContractAddress_incomingToken\n                .tokenToEthSwapInput(\n                convertiblePortion,\n                1,\n                SafeMath.add(now, 1800)\n            );\n\n            require(\n                (\n                    IERC20(_IncomingTokenContractAddress).approve(\n                        address(UniSwapExchangeContractAddress_incomingToken),\n                        0\n                    )\n                ),\n                \"error in setting approval back to zero\"\n            );\n            UniSwapExchangeContractAddress = IuniswapExchange_ERC20toUniPoolZapV1(\n                UniSwapFactoryAddress.getExchange(\n                    _UniPoolsUnderlyingTokenAddress\n                )\n            );\n        }\n        require(\n            (\n                addLiquidity(\n                    _toWhomToIssue,\n                    _UniPoolsUnderlyingTokenAddress,\n                    nonConvertiblePortion,\n                    UniSwapExchangeContractAddress,\n                    EthOnConversion\n                )\n            ),\n            \"issue in adding Liquidity\"\n        );\n        return (true);\n    }\n\n    function addLiquidity(\n        address _toWhomToIssue,\n        address _UniPoolsUnderlyingTokenAddress,\n        uint256 _UsableERC20,\n        IuniswapExchange_ERC20toUniPoolZapV1 _UniSwapExchangeContractAddress,\n        uint256 _valueinETH\n    ) internal returns (bool) {\n        uint256 max_tokens_ans = getMaxTokens(\n            address(_UniSwapExchangeContractAddress),\n            IERC20(_UniPoolsUnderlyingTokenAddress),\n            _valueinETH\n        );\n\n        require(\n            (\n                IERC20(_UniPoolsUnderlyingTokenAddress).approve(\n                    address(_UniSwapExchangeContractAddress),\n                    _UsableERC20\n                )\n            ),\n            \"error in approving the unicontract, addLiquidity\"\n        );\n        uint256 LiquidityTokens = _UniSwapExchangeContractAddress\n            .addLiquidity\n            .value(_valueinETH)(1, max_tokens_ans, SafeMath.add(now, 1800));\n        require(\n            LiquidityTokens ==\n                _UniSwapExchangeContractAddress.balanceOf(address(this)),\n            \"error3:DeFiZap\"\n        );\n        require(\n            _UniSwapExchangeContractAddress.transfer(\n                _toWhomToIssue,\n                LiquidityTokens\n            ),\n            \"error6:DeFiZap\"\n        );\n\n        // computing the remainder of the tokens\n        uint256 residual = IERC20(_UniPoolsUnderlyingTokenAddress).balanceOf(\n            address(this)\n        );\n        uint256 ETHfromResidual = _UniSwapExchangeContractAddress\n            .tokenToEthTransferInput(\n            residual,\n            1,\n            SafeMath.add(now, 1800),\n            _toWhomToIssue\n        );\n        emit residualETH(ETHfromResidual);\n        require(\n            (\n                IERC20(_UniPoolsUnderlyingTokenAddress).approve(\n                    address(_UniSwapExchangeContractAddress),\n                    0\n                )\n            ),\n            \"error in resetting the approval to zero\"\n        );\n        return true;\n    }\n\n    function getMaxTokens(\n        address _UniSwapExchangeContractAddress,\n        IERC20 _ERC20TokenAddress,\n        uint256 _value\n    ) internal view returns (uint256) {\n        uint256 contractBalance = address(_UniSwapExchangeContractAddress)\n            .balance;\n        uint256 eth_reserve = SafeMath.sub(contractBalance, _value);\n        uint256 token_reserve = _ERC20TokenAddress.balanceOf(\n            _UniSwapExchangeContractAddress\n        );\n        uint256 token_amount = SafeMath.div(\n            SafeMath.mul(_value, token_reserve),\n            eth_reserve\n        ) + 1;\n        return token_amount;\n    }\n\n    function inCaseTokengetsStuck(IERC20 _TokenAddress) public onlyOwner {\n        uint256 qty = _TokenAddress.balanceOf(address(this));\n        _TokenAddress.transfer(owner, qty);\n    }\n\n    // - to Pause the contract\n    function toggleContractActive() public onlyOwner {\n        stopped = !stopped;\n    }\n\n    // - to withdraw any ETH balance sitting in the contract\n    function withdraw() public onlyOwner {\n        owner.transfer(address(this).balance);\n    }\n\n    // - fallback function let you / anyone send ETH to this wallet without the need to call any function\n    function() external payable {}\n}\n",
  "sourcePath": "contracts/Not_upgradable_done/ERC20toUniPoolZapV2_General.sol",
  "abi": [
    {
      "inputs": [],
      "payable": false,
      "stateMutability": "nonpayable",
      "type": "constructor"
    },
    {
      "anonymous": false,
      "inputs": [
        {
          "indexed": true,
          "internalType": "address",
          "name": "user",
          "type": "address"
        },
        {
          "indexed": false,
          "internalType": "address",
          "name": "toWhomIssued",
          "type": "address"
        },
        {
          "indexed": true,
          "internalType": "address",
          "name": "IncomingTokenAddress",
          "type": "address"
        },
        {
          "indexed": true,
          "internalType": "address",
          "name": "UniPoolUnderlyingTokenAddressTokenAddress",
          "type": "address"
        }
      ],
      "name": "details",
      "type": "event"
    },
    {
      "anonymous": false,
      "inputs": [
        {
          "indexed": false,
          "internalType": "uint256",
          "name": "residualETHtransferred",
          "type": "uint256"
        }
      ],
      "name": "residualETH",
      "type": "event"
    },
    {
      "payable": true,
      "stateMutability": "payable",
      "type": "fallback"
    },
    {
      "constant": false,
      "inputs": [
        {
          "internalType": "address",
          "name": "_toWhomToIssue",
          "type": "address"
        },
        {
          "internalType": "address",
          "name": "_IncomingTokenContractAddress",
          "type": "address"
        },
        {
          "internalType": "uint256",
          "name": "_IncomingTokenQty",
          "type": "uint256"
        },
        {
          "internalType": "address",
          "name": "_UniPoolsUnderlyingTokenAddress",
          "type": "address"
        }
      ],
      "name": "LetsInvest",
      "outputs": [
        {
          "internalType": "bool",
          "name": "",
          "type": "bool"
        }
      ],
      "payable": false,
      "stateMutability": "nonpayable",
      "type": "function"
    },
    {
      "constant": true,
      "inputs": [],
      "name": "UniSwapFactoryAddress",
      "outputs": [
        {
          "internalType": "contract IuniswapFactory_ERC20toUniPoolZapV1",
          "name": "",
          "type": "address"
        }
      ],
      "payable": false,
      "stateMutability": "view",
      "type": "function"
    },
    {
      "constant": false,
      "inputs": [
        {
          "internalType": "contract IERC20",
          "name": "_TokenAddress",
          "type": "address"
        }
      ],
      "name": "inCaseTokengetsStuck",
      "outputs": [],
      "payable": false,
      "stateMutability": "nonpayable",
      "type": "function"
    },
    {
      "constant": true,
      "inputs": [],
      "name": "isOwner",
      "outputs": [
        {
          "internalType": "bool",
          "name": "",
          "type": "bool"
        }
      ],
      "payable": false,
      "stateMutability": "view",
      "type": "function"
    },
    {
      "constant": true,
      "inputs": [],
      "name": "owner",
      "outputs": [
        {
          "internalType": "address payable",
          "name": "",
          "type": "address"
        }
      ],
      "payable": false,
      "stateMutability": "view",
      "type": "function"
    },
    {
      "constant": false,
      "inputs": [],
      "name": "toggleContractActive",
      "outputs": [],
      "payable": false,
      "stateMutability": "nonpayable",
      "type": "function"
    },
    {
      "constant": false,
      "inputs": [
        {
          "internalType": "address payable",
          "name": "newOwner",
          "type": "address"
        }
      ],
      "name": "transferOwnership",
      "outputs": [],
      "payable": false,
      "stateMutability": "nonpayable",
      "type": "function"
    },
    {
      "constant": false,
      "inputs": [],
      "name": "withdraw",
      "outputs": [],
      "payable": false,
      "stateMutability": "nonpayable",
      "type": "function"
    }
  ],
  "bytecode": "0x60806040526033805460ff60a01b196001600160a01b03199182167319627796b318e27c333530ad67c464cfc37596ec17169091556034805490911673c0a47dfe034b400b47bdad5fecda2621de6c4d9517905534801561005f57600080fd5b506116588061006f6000396000f3fe60806040526004361061007b5760003560e01c80636305111d1161004e5780636305111d1461010b5780638da5cb5b146101685780638f32d59b1461017d578063f2fde38b146101925761007b565b80631385d24c1461007d5780633ccfd60b14610092578063525d509e146100a7578063551196d5146100d8575b005b34801561008957600080fd5b5061007b6101c5565b34801561009e57600080fd5b5061007b610229565b3480156100b357600080fd5b506100bc6102a9565b604080516001600160a01b039092168252519081900360200190f35b3480156100e457600080fd5b5061007b600480360360208110156100fb57600080fd5b50356001600160a01b03166102b8565b34801561011757600080fd5b506101546004803603608081101561012e57600080fd5b506001600160a01b038135811691602081013582169160408201359160600135166103fa565b604080519115158252519081900360200190f35b34801561017457600080fd5b506100bc6105e0565b34801561018957600080fd5b506101546105ef565b34801561019e57600080fd5b5061007b600480360360208110156101b557600080fd5b50356001600160a01b0316610600565b6101cd6105ef565b6102085760405162461bcd60e51b815260040180806020018281038252602c815260200180611580602c913960400191505060405180910390fd5b6033805460ff60a01b198116600160a01b9182900460ff1615909102179055565b6102316105ef565b61026c5760405162461bcd60e51b815260040180806020018281038252602c815260200180611580602c913960400191505060405180910390fd5b6033546040516001600160a01b0390911690303180156108fc02916000818181858888f193505050501580156102a6573d6000803e3d6000fd5b50565b6034546001600160a01b031681565b6102c06105ef565b6102fb5760405162461bcd60e51b815260040180806020018281038252602c815260200180611580602c913960400191505060405180910390fd5b604080516370a0823160e01b815230600482015290516000916001600160a01b038416916370a0823191602480820192602092909190829003018186803b15801561034557600080fd5b505afa158015610359573d6000803e3d6000fd5b505050506040513d602081101561036f57600080fd5b50516033546040805163a9059cbb60e01b81526001600160a01b0392831660048201526024810184905290519293509084169163a9059cbb916044808201926020929091908290030181600087803b1580156103ca57600080fd5b505af11580156103de573d6000803e3d6000fd5b505050506040513d60208110156103f457600080fd5b50505050565b603354600090600160a01b900460ff161561045c576040805162461bcd60e51b815260206004820152601260248201527f54656d706f726172696c79205061757365640000000000000000000000000000604482015290519081900360640190fd5b604080516323b872dd60e01b815233600482015230602482015260448101859052905184916001600160a01b038716916323b872dd916064808201926020929091908290030181600087803b1580156104b457600080fd5b505af11580156104c8573d6000803e3d6000fd5b505050506040513d60208110156104de57600080fd5b5051610531576040805162461bcd60e51b815260206004820152601d60248201527f4572726f7220696e207472616e7366657272696e6720746f6b656e3a31000000604482015290519081900360640190fd5b61053d8187878661064c565b61058e576040805162461bcd60e51b815260206004820152601760248201527f6572726f7220696e20696e7665737432556e69506f6f6c000000000000000000604482015290519081900360640190fd5b604080516001600160a01b03888116825291518286169288169133917fdb69aa0d508ff3f049bd3c645e9dccab92d14af47b8c3e006d8b400fdd43b1a59181900360200190a450600195945050505050565b6033546001600160a01b031681565b6033546001600160a01b0316331490565b6106086105ef565b6106435760405162461bcd60e51b815260040180806020018281038252602c815260200180611580602c913960400191505060405180910390fd5b6102a681610c80565b600080600080846001600160a01b0316866001600160a01b031614156108255761068361067b896101f7610cf4565b6103e8610d56565b915060006106918984610d98565b603454604080516303795fb160e11b81526001600160a01b038b8116600483015291519394509116916306f2bf6291602480820192602092909190829003018186803b1580156106e057600080fd5b505afa1580156106f4573d6000803e3d6000fd5b505050506040513d602081101561070a57600080fd5b50516040805163095ea7b360e01b81526001600160a01b038084166004830152602482018d905291519294509089169163095ea7b3916044808201926020929091908290030181600087803b15801561076257600080fd5b505af1158015610776573d6000803e3d6000fd5b505050506040513d602081101561078c57600080fd5b50506001600160a01b0382166395e3c50b8260016107ac42610708610dda565b6040518463ffffffff1660e01b8152600401808481526020018381526020018281526020019350505050602060405180830381600087803b1580156107f057600080fd5b505af1158015610804573d6000803e3d6000fd5b505050506040513d602081101561081a57600080fd5b50519350610c149050565b603454604080516303795fb160e11b81526001600160a01b038981166004830152915160009392909216916306f2bf6291602480820192602092909190829003018186803b15801561087657600080fd5b505afa15801561088a573d6000803e3d6000fd5b505050506040513d60208110156108a057600080fd5b50516040805163095ea7b360e01b81526001600160a01b038084166004830152602482018d905291519293509089169163095ea7b3916044808201926020929091908290030181600087803b1580156108f857600080fd5b505af115801561090c573d6000803e3d6000fd5b505050506040513d602081101561092257600080fd5b5051610975576040805162461bcd60e51b815260206004820152601360248201527f6572726f7220696e20617070726f76616c3a3300000000000000000000000000604482015290519081900360640190fd5b600061098661067b8b6101f7610cf4565b9050816001600160a01b031663ddf7e1a7826001806109a742610708610dda565b8c6040518663ffffffff1660e01b815260040180868152602001858152602001848152602001838152602001826001600160a01b03166001600160a01b0316815260200195505050505050602060405180830381600087803b158015610a0c57600080fd5b505af1158015610a20573d6000803e3d6000fd5b505050506040513d6020811015610a3657600080fd5b505193506000610a468b83610d98565b9050826001600160a01b03166395e3c50b826001610a6642610708610dda565b6040518463ffffffff1660e01b8152600401808481526020018381526020018281526020019350505050602060405180830381600087803b158015610aaa57600080fd5b505af1158015610abe573d6000803e3d6000fd5b505050506040513d6020811015610ad457600080fd5b50516040805163095ea7b360e01b81526001600160a01b03868116600483015260006024830181905292519399508c169263095ea7b392604480840193602093929083900390910190829087803b158015610b2e57600080fd5b505af1158015610b42573d6000803e3d6000fd5b505050506040513d6020811015610b5857600080fd5b5051610b955760405162461bcd60e51b815260040180806020018281038252602681526020018061155a6026913960400191505060405180910390fd5b603454604080516303795fb160e11b81526001600160a01b038b81166004830152915191909216916306f2bf62916024808301926020929190829003018186803b158015610be257600080fd5b505afa158015610bf6573d6000803e3d6000fd5b505050506040513d6020811015610c0c57600080fd5b505193505050505b610c218786848487610e34565b610c72576040805162461bcd60e51b815260206004820152601960248201527f697373756520696e20616464696e67204c697175696469747900000000000000604482015290519081900360640190fd5b506001979650505050505050565b6001600160a01b038116610cc55760405162461bcd60e51b81526004018080602001828103825260268152602001806115346026913960400191505060405180910390fd5b6033805473ffffffffffffffffffffffffffffffffffffffff19166001600160a01b0392909216919091179055565b600082610d0357506000610d50565b82820282848281610d1057fe5b0414610d4d5760405162461bcd60e51b81526004018080602001828103825260218152602001806115ac6021913960400191505060405180910390fd5b90505b92915050565b6000610d4d83836040518060400160405280601a81526020017f536166654d6174683a206469766973696f6e206279207a65726f000000000000815250611373565b6000610d4d83836040518060400160405280601e81526020017f536166654d6174683a207375627472616374696f6e206f766572666c6f770000815250611415565b600082820183811015610d4d576040805162461bcd60e51b815260206004820152601b60248201527f536166654d6174683a206164646974696f6e206f766572666c6f770000000000604482015290519081900360640190fd5b600080610e4284878561146f565b9050856001600160a01b031663095ea7b385876040518363ffffffff1660e01b815260040180836001600160a01b03166001600160a01b0316815260200182815260200192505050602060405180830381600087803b158015610ea457600080fd5b505af1158015610eb8573d6000803e3d6000fd5b505050506040513d6020811015610ece57600080fd5b5051610f0b5760405162461bcd60e51b81526004018080602001828103825260308152602001806115cd6030913960400191505060405180910390fd5b6000846001600160a01b031663422f104385600185610f2c42610708610dda565b6040518563ffffffff1660e01b81526004018084815260200183815260200182815260200193505050506020604051808303818588803b158015610f6f57600080fd5b505af1158015610f83573d6000803e3d6000fd5b50505050506040513d6020811015610f9a57600080fd5b5051604080516370a0823160e01b815230600482015290519192506001600160a01b038716916370a0823191602480820192602092909190829003018186803b158015610fe657600080fd5b505afa158015610ffa573d6000803e3d6000fd5b505050506040513d602081101561101057600080fd5b50518114611065576040805162461bcd60e51b815260206004820152600e60248201527f6572726f72333a446546695a6170000000000000000000000000000000000000604482015290519081900360640190fd5b846001600160a01b031663a9059cbb89836040518363ffffffff1660e01b815260040180836001600160a01b03166001600160a01b0316815260200182815260200192505050602060405180830381600087803b1580156110c557600080fd5b505af11580156110d9573d6000803e3d6000fd5b505050506040513d60208110156110ef57600080fd5b5051611142576040805162461bcd60e51b815260206004820152600e60248201527f6572726f72363a446546695a6170000000000000000000000000000000000000604482015290519081900360640190fd5b604080516370a0823160e01b815230600482015290516000916001600160a01b038a16916370a0823191602480820192602092909190829003018186803b15801561118c57600080fd5b505afa1580156111a0573d6000803e3d6000fd5b505050506040513d60208110156111b657600080fd5b5051905060006001600160a01b038716637237e0318360016111da42610708610dda565b8e6040518563ffffffff1660e01b815260040180858152602001848152602001838152602001826001600160a01b03166001600160a01b03168152602001945050505050602060405180830381600087803b15801561123857600080fd5b505af115801561124c573d6000803e3d6000fd5b505050506040513d602081101561126257600080fd5b50516040805182815290519192507f3eb6c909f0283b34ee16ae074e834f1387cd577e190b46cfb8fa0a532ee35c88919081900360200190a1886001600160a01b031663095ea7b38860006040518363ffffffff1660e01b815260040180836001600160a01b03166001600160a01b0316815260200182815260200192505050602060405180830381600087803b1580156112fc57600080fd5b505af1158015611310573d6000803e3d6000fd5b505050506040513d602081101561132657600080fd5b50516113635760405162461bcd60e51b81526004018080602001828103825260278152602001806115fd6027913960400191505060405180910390fd5b5060019998505050505050505050565b600081836113ff5760405162461bcd60e51b81526004018080602001828103825283818151815260200191508051906020019080838360005b838110156113c45781810151838201526020016113ac565b50505050905090810190601f1680156113f15780820380516001836020036101000a031916815260200191505b509250505060405180910390fd5b50600083858161140b57fe5b0495945050505050565b600081848411156114675760405162461bcd60e51b81526020600482018181528351602484015283519092839260449091019190850190808383600083156113c45781810151838201526020016113ac565b505050900390565b60006001600160a01b03841631816114878285610d98565b90506000856001600160a01b03166370a08231886040518263ffffffff1660e01b815260040180826001600160a01b03166001600160a01b0316815260200191505060206040518083038186803b1580156114e157600080fd5b505afa1580156114f5573d6000803e3d6000fd5b505050506040513d602081101561150b57600080fd5b50519050600061152461151e8784610cf4565b84610d56565b6001019897505050505050505056fe4f776e61626c653a206e6577206f776e657220697320746865207a65726f20616464726573736572726f7220696e2073657474696e6720617070726f76616c206261636b20746f207a65726f796f7520617265206e6f7420617574686f726973656420746f2063616c6c20746869732066756e6374696f6e536166654d6174683a206d756c7469706c69636174696f6e206f766572666c6f776572726f7220696e20617070726f76696e672074686520756e69636f6e74726163742c206164644c69717569646974796572726f7220696e20726573657474696e672074686520617070726f76616c20746f207a65726fa265627a7a72315820b35e5b932e7e51df7a83ed2ca944917ee518abf1dcdeddc58a18884591b776b264736f6c634300050d0032",
  "compiler": {
    "name": "solc",
    "version": "0.5.13+commit.5b0b510c.Emscripten.clang",
    "optimizer": {
      "enabled": true,
      "runs": 500
    },
    "evmVersion": "petersburg"
  }
}