{
  "fileName": "ETH_ERC20_Curve_General_Zap_v1_1.sol",
  "contractName": "ETH_ERC20_Curve_General_Zap_V1",
  "source": "// Copyright (C) 2019, 2020 dipeshsukhani, nodarjanashia, suhailg, apoorvlathey, sebaudet, sumit\n\n// This program is free software: you can redistribute it and/or modify\n// it under the terms of the GNU Affero General Public License as published by\n// the Free Software Foundation, either version 2 of the License, or\n// (at your option) any later version.\n//\n// This program is distributed in the hope that it will be useful,\n// but WITHOUT ANY WARRANTY; without even the implied warranty of\n// MERCHANTABILITY or FITNESS FOR A PARTICULAR PURPOSE.  See the\n// GNU Affero General Public License for more details.\n//\n// Visit <https://www.gnu.org/licenses/>for a copy of the GNU Affero General Public License\n\n///@author DeFiZap\n///@notice this contract implements one click swapping among Uniswap Pools.\n\npragma solidity ^0.5.0;\n\n\n/**\n * @dev Interface of the ERC20 standard as defined in the EIP. Does not include\n * the optional functions; to access them see {ERC20Detailed}.\n */\ninterface IERC20 {\n    /**\n     * @dev Returns the amount of tokens in existence.\n     */\n    function totalSupply() external view returns (uint256);\n\n    /**\n     * @dev Returns the amount of tokens owned by `account`.\n     */\n    function balanceOf(address account) external view returns (uint256);\n\n    /**\n     * @dev Moves `amount` tokens from the caller's account to `recipient`.\n     *\n     * Returns a boolean value indicating whether the operation succeeded.\n     *\n     * Emits a {Transfer} event.\n     */\n    function transfer(address recipient, uint256 amount)\n        external\n        returns (bool);\n\n    /**\n     * @dev Returns the remaining number of tokens that `spender` will be\n     * allowed to spend on behalf of `owner` through {transferFrom}. This is\n     * zero by default.\n     *\n     * This value changes when {approve} or {transferFrom} are called.\n     */\n    function allowance(address owner, address spender)\n        external\n        view\n        returns (uint256);\n\n    /**\n     * @dev Sets `amount` as the allowance of `spender` over the caller's tokens.\n     *\n     * Returns a boolean value indicating whether the operation succeeded.\n     *\n     * IMPORTANT: Beware that changing an allowance with this method brings the risk\n     * that someone may use both the old and the new allowance by unfortunate\n     * transaction ordering. One possible solution to mitigate this race\n     * condition is to first reduce the spender's allowance to 0 and set the\n     * desired value afterwards:\n     * https://github.com/ethereum/EIPs/issues/20#issuecomment-263524729\n     *\n     * Emits an {Approval} event.\n     */\n    function approve(address spender, uint256 amount) external returns (bool);\n\n    /**\n     * @dev Moves `amount` tokens from `sender` to `recipient` using the\n     * allowance mechanism. `amount` is then deducted from the caller's\n     * allowance.\n     *\n     * Returns a boolean value indicating whether the operation succeeded.\n     *\n     * Emits a {Transfer} event.\n     */\n    function transferFrom(address sender, address recipient, uint256 amount)\n        external\n        returns (bool);\n\n    /**\n     * @dev Emitted when `value` tokens are moved from one account (`from`) to\n     * another (`to`).\n     *\n     * Note that `value` may be zero.\n     */\n    event Transfer(address indexed from, address indexed to, uint256 value);\n\n    /**\n     * @dev Emitted when the allowance of a `spender` for an `owner` is set by\n     * a call to {approve}. `value` is the new allowance.\n     */\n    event Approval(\n        address indexed owner,\n        address indexed spender,\n        uint256 value\n    );\n}\n// File: browser/Context.sol\n\npragma solidity ^0.5.0;\n\n\n/*\n * @dev Provides information about the current execution context, including the\n * sender of the transaction and its data. While these are generally available\n * via msg.sender and msg.data, they should not be accessed in such a direct\n * manner, since when dealing with GSN meta-transactions the account sending and\n * paying for execution may not be the actual sender (as far as an application\n * is concerned).\n *\n * This contract is only required for intermediate, library-like contracts.\n */\ncontract Context {\n    // Empty internal constructor, to prevent people from mistakenly deploying\n    // an instance of this contract, which should be used via inheritance.\n    constructor() internal {}\n\n    // solhint-disable-previous-line no-empty-blocks\n\n    function _msgSender() internal view returns (address payable) {\n        return msg.sender;\n    }\n\n    function _msgData() internal view returns (bytes memory) {\n        this; // silence state mutability warning without generating bytecode - see https://github.com/ethereum/solidity/issues/2691\n        return msg.data;\n    }\n}\n// File: browser/OpenZepplinOwnable.sol\n\npragma solidity ^0.5.0;\n\n\n/**\n * @dev Contract module which provides a basic access control mechanism, where\n * there is an account (an owner) that can be granted exclusive access to\n * specific functions.\n *\n * This module is used through inheritance. It will make available the modifier\n * `onlyOwner`, which can be applied to your functions to restrict their use to\n * the owner.\n */\ncontract Ownable is Context {\n    address payable public _owner;\n\n    event OwnershipTransferred(\n        address indexed previousOwner,\n        address indexed newOwner\n    );\n\n    /**\n     * @dev Initializes the contract setting the deployer as the initial owner.\n     */\n    constructor() internal {\n        address payable msgSender = _msgSender();\n        _owner = msgSender;\n        emit OwnershipTransferred(address(0), msgSender);\n    }\n\n    /**\n     * @dev Returns the address of the current owner.\n     */\n    function owner() public view returns (address) {\n        return _owner;\n    }\n\n    /**\n     * @dev Throws if called by any account other than the owner.\n     */\n    modifier onlyOwner() {\n        require(isOwner(), \"Ownable: caller is not the owner\");\n        _;\n    }\n\n    /**\n     * @dev Returns true if the caller is the current owner.\n     */\n    function isOwner() public view returns (bool) {\n        return _msgSender() == _owner;\n    }\n\n    /**\n     * @dev Leaves the contract without owner. It will not be possible to call\n     * `onlyOwner` functions anymore. Can only be called by the current owner.\n     *\n     * NOTE: Renouncing ownership will leave the contract without an owner,\n     * thereby removing any functionality that is only available to the owner.\n     */\n    function renounceOwnership() public onlyOwner {\n        emit OwnershipTransferred(_owner, address(0));\n        _owner = address(0);\n    }\n\n    /**\n     * @dev Transfers ownership of the contract to a new account (`newOwner`).\n     * Can only be called by the current owner.\n     */\n    function transferOwnership(address payable newOwner) public onlyOwner {\n        _transferOwnership(newOwner);\n    }\n\n    /**\n     * @dev Transfers ownership of the contract to a new account (`newOwner`).\n     */\n    function _transferOwnership(address payable newOwner) internal {\n        require(\n            newOwner != address(0),\n            \"Ownable: new owner is the zero address\"\n        );\n        emit OwnershipTransferred(_owner, newOwner);\n        _owner = newOwner;\n    }\n}\n// File: browser/OpenZepplinSafeMath.sol\n\npragma solidity ^0.5.0;\n\n\n/**\n * @dev Wrappers over Solidity's arithmetic operations with added overflow\n * checks.\n *\n * Arithmetic operations in Solidity wrap on overflow. This can easily result\n * in bugs, because programmers usually assume that an overflow raises an\n * error, which is the standard behavior in high level programming languages.\n * `SafeMath` restores this intuition by reverting the transaction when an\n * operation overflows.\n *\n * Using this library instead of the unchecked operations eliminates an entire\n * class of bugs, so it's recommended to use it always.\n */\nlibrary SafeMath {\n    /**\n     * @dev Returns the addition of two unsigned integers, reverting on\n     * overflow.\n     *\n     * Counterpart to Solidity's `+` operator.\n     *\n     * Requirements:\n     * - Addition cannot overflow.\n     */\n    function add(uint256 a, uint256 b) internal pure returns (uint256) {\n        uint256 c = a + b;\n        require(c >= a, \"SafeMath: addition overflow\");\n\n        return c;\n    }\n\n    /**\n     * @dev Returns the subtraction of two unsigned integers, reverting on\n     * overflow (when the result is negative).\n     *\n     * Counterpart to Solidity's `-` operator.\n     *\n     * Requirements:\n     * - Subtraction cannot overflow.\n     */\n    function sub(uint256 a, uint256 b) internal pure returns (uint256) {\n        return sub(a, b, \"SafeMath: subtraction overflow\");\n    }\n\n    /**\n     * @dev Returns the subtraction of two unsigned integers, reverting with custom message on\n     * overflow (when the result is negative).\n     *\n     * Counterpart to Solidity's `-` operator.\n     *\n     * Requirements:\n     * - Subtraction cannot overflow.\n     *\n     * _Available since v2.4.0._\n     */\n    function sub(uint256 a, uint256 b, string memory errorMessage)\n        internal\n        pure\n        returns (uint256)\n    {\n        require(b <= a, errorMessage);\n        uint256 c = a - b;\n\n        return c;\n    }\n\n    /**\n     * @dev Returns the multiplication of two unsigned integers, reverting on\n     * overflow.\n     *\n     * Counterpart to Solidity's `*` operator.\n     *\n     * Requirements:\n     * - Multiplication cannot overflow.\n     */\n    function mul(uint256 a, uint256 b) internal pure returns (uint256) {\n        // Gas optimization: this is cheaper than requiring 'a' not being zero, but the\n        // benefit is lost if 'b' is also tested.\n        // See: https://github.com/OpenZeppelin/openzeppelin-contracts/pull/522\n        if (a == 0) {\n            return 0;\n        }\n\n        uint256 c = a * b;\n        require(c / a == b, \"SafeMath: multiplication overflow\");\n\n        return c;\n    }\n\n    /**\n     * @dev Returns the integer division of two unsigned integers. Reverts on\n     * division by zero. The result is rounded towards zero.\n     *\n     * Counterpart to Solidity's `/` operator. Note: this function uses a\n     * `revert` opcode (which leaves remaining gas untouched) while Solidity\n     * uses an invalid opcode to revert (consuming all remaining gas).\n     *\n     * Requirements:\n     * - The divisor cannot be zero.\n     */\n    function div(uint256 a, uint256 b) internal pure returns (uint256) {\n        return div(a, b, \"SafeMath: division by zero\");\n    }\n\n    /**\n     * @dev Returns the integer division of two unsigned integers. Reverts with custom message on\n     * division by zero. The result is rounded towards zero.\n     *\n     * Counterpart to Solidity's `/` operator. Note: this function uses a\n     * `revert` opcode (which leaves remaining gas untouched) while Solidity\n     * uses an invalid opcode to revert (consuming all remaining gas).\n     *\n     * Requirements:\n     * - The divisor cannot be zero.\n     *\n     * _Available since v2.4.0._\n     */\n    function div(uint256 a, uint256 b, string memory errorMessage)\n        internal\n        pure\n        returns (uint256)\n    {\n        // Solidity only automatically asserts when dividing by 0\n        require(b > 0, errorMessage);\n        uint256 c = a / b;\n        // assert(a == b * c + a % b); // There is no case in which this doesn't hold\n\n        return c;\n    }\n\n    /**\n     * @dev Returns the remainder of dividing two unsigned integers. (unsigned integer modulo),\n     * Reverts when dividing by zero.\n     *\n     * Counterpart to Solidity's `%` operator. This function uses a `revert`\n     * opcode (which leaves remaining gas untouched) while Solidity uses an\n     * invalid opcode to revert (consuming all remaining gas).\n     *\n     * Requirements:\n     * - The divisor cannot be zero.\n     */\n    function mod(uint256 a, uint256 b) internal pure returns (uint256) {\n        return mod(a, b, \"SafeMath: modulo by zero\");\n    }\n\n    /**\n     * @dev Returns the remainder of dividing two unsigned integers. (unsigned integer modulo),\n     * Reverts with custom message when dividing by zero.\n     *\n     * Counterpart to Solidity's `%` operator. This function uses a `revert`\n     * opcode (which leaves remaining gas untouched) while Solidity uses an\n     * invalid opcode to revert (consuming all remaining gas).\n     *\n     * Requirements:\n     * - The divisor cannot be zero.\n     *\n     * _Available since v2.4.0._\n     */\n    function mod(uint256 a, uint256 b, string memory errorMessage)\n        internal\n        pure\n        returns (uint256)\n    {\n        require(b != 0, errorMessage);\n        return a % b;\n    }\n}\n// File: browser/OpenZepplinReentrancyGuard.sol\n\npragma solidity ^0.5.0;\n\n\n/**\n * @dev Contract module that helps prevent reentrant calls to a function.\n *\n * Inheriting from `ReentrancyGuard` will make the {nonReentrant} modifier\n * available, which can be applied to functions to make sure there are no nested\n * (reentrant) calls to them.\n *\n * Note that because there is a single `nonReentrant` guard, functions marked as\n * `nonReentrant` may not call one another. This can be worked around by making\n * those functions `private`, and then adding `external` `nonReentrant` entry\n * points to them.\n *\n * _Since v2.5.0:_ this module is now much more gas efficient, given net gas\n * metering changes introduced in the Istanbul hardfork.\n */\ncontract ReentrancyGuard {\n    bool private _notEntered;\n\n    constructor() internal {\n        // Storing an initial non-zero value makes deployment a bit more\n        // expensive, but in exchange the refund on every call to nonReentrant\n        // will be lower in amount. Since refunds are capped to a percetange of\n        // the total transaction's gas, it is best to keep them low in cases\n        // like this one, to increase the likelihood of the full refund coming\n        // into effect.\n        _notEntered = true;\n    }\n\n    /**\n     * @dev Prevents a contract from calling itself, directly or indirectly.\n     * Calling a `nonReentrant` function from another `nonReentrant`\n     * function is not supported. It is possible to prevent this from happening\n     * by making the `nonReentrant` function external, and make it call a\n     * `private` function that does the actual work.\n     */\n    modifier nonReentrant() {\n        // On the first call to nonReentrant, _notEntered will be true\n        require(_notEntered, \"ReentrancyGuard: reentrant call\");\n\n        // Any calls to nonReentrant after this point will fail\n        _notEntered = false;\n\n        _;\n\n        // By storing the original value once again, a refund is triggered (see\n        // https://eips.ethereum.org/EIPS/eip-2200)\n        _notEntered = true;\n    }\n}\n\n\n// interface\ninterface IuniswapFactory {\n    function getExchange(address token)\n        external\n        view\n        returns (address exchange);\n}\n\n\ninterface IuniswapExchange {\n    // for removing liquidity (returns ETH removed, ERC20 Removed)\n    function removeLiquidity(\n        uint256 amount,\n        uint256 min_eth,\n        uint256 min_tokens,\n        uint256 deadline\n    ) external returns (uint256, uint256);\n\n    // converting ERC20 to ERC20 and transfer\n    function tokenToTokenSwapInput(\n        uint256 tokens_sold,\n        uint256 min_tokens_bought,\n        uint256 min_eth_bought,\n        uint256 deadline,\n        address token_addr\n    ) external returns (uint256 tokens_bought);\n\n    // add liquidity to a pool (returns LP tokens rec)\n    function addLiquidity(\n        uint256 min_liquidity,\n        uint256 max_tokens,\n        uint256 deadline\n    ) external payable returns (uint256);\n\n    function getEthToTokenInputPrice(uint256 eth_sold)\n        external\n        view\n        returns (uint256 tokens_bought);\n\n    function getTokenToEthInputPrice(uint256 tokens_sold)\n        external\n        view\n        returns (uint256 eth_bought);\n\n    function ethToTokenSwapInput(uint256 min_tokens, uint256 deadline)\n        external\n        payable\n        returns (uint256 tokens_bought);\n\n    function balanceOf(address _owner) external view returns (uint256);\n\n    function transfer(address _to, uint256 _value) external returns (bool);\n\n    function transferFrom(address from, address to, uint256 tokens)\n        external\n        returns (bool success);\n}\n\n\ninterface ICurveExchange {\n    function add_liquidity(uint256[4] calldata amounts, uint256 min_mint_amount)\n        external;\n}\n\n\ninterface yERC20 {\n    function deposit(uint256 _amount) external;\n}\n\npragma solidity 0.5.13;\n\n\ncontract ETH_ERC20_Curve_General_Zap_V1 is ReentrancyGuard, Ownable {\n    using SafeMath for uint256;\n    bool private stopped = false;\n    uint16 public goodwill;\n    address public dzgoodwillAddress;\n\n\n    IuniswapFactory public UniSwapFactoryAddress = IuniswapFactory(\n        0xc0a47dFe034B400B47bDaD5FecDa2621de6c4d95\n    );\n    address public DaiTokenAddress = address(\n        0x6B175474E89094C44Da98b954EedeAC495271d0F\n    );\n    address public UsdcTokenAddress = address(\n        0xA0b86991c6218b36c1d19D4a2e9Eb0cE3606eB48\n    );\n    address public sUSDCurveExchangeAddress = address(\n        0xA5407eAE9Ba41422680e2e00537571bcC53efBfD\n    );\n    address public sUSDCurvePoolTokenAddress = address(\n        0xC25a3A3b969415c80451098fa907EC722572917F\n    );\n    address public yCurveExchangeAddress = address(\n        0xbBC81d23Ea2c3ec7e56D39296F0cbB648873a5d3\n    );\n    address public yCurvePoolTokenAddress = address(\n        0xdF5e0e81Dff6FAF3A7e52BA697820c5e32D806A8\n    );\n    address public bUSDCurveExchangeAddress = address(\n        0xb6c057591E073249F2D9D88Ba59a46CFC9B59EdB\n    );\n    address public bUSDCurvePoolTokenAddress = address(\n        0x3B3Ac5386837Dc563660FB6a0937DFAa5924333B\n    );\n    address public paxCurveExchangeAddress = address(\n        0xA50cCc70b6a011CffDdf45057E39679379187287\n    );\n    address public paxCurvePoolTokenAddress = address(\n        0xD905e2eaeBe188fc92179b6350807D8bd91Db0D8\n    );\n\n    mapping(address => address) internal exchange2Token;\n\n    constructor(uint16 _goodwill, address _dzgoodwillAddress) public {\n        goodwill = _goodwill;\n        dzgoodwillAddress = _dzgoodwillAddress;\n        exchange2Token[sUSDCurveExchangeAddress] = sUSDCurvePoolTokenAddress;\n        exchange2Token[yCurveExchangeAddress] = yCurvePoolTokenAddress;\n        exchange2Token[bUSDCurveExchangeAddress] = bUSDCurvePoolTokenAddress;\n        exchange2Token[paxCurveExchangeAddress] = paxCurvePoolTokenAddress;\n        approveToken();\n    }\n\n    // circuit breaker modifiers\n    modifier stopInEmergency {\n        if (stopped) {\n            revert(\"Temporarily Paused\");\n        } else {\n            _;\n        }\n    }\n\n    function approveToken() public {\n        IERC20(DaiTokenAddress).approve(sUSDCurveExchangeAddress, uint256(-1));\n        IERC20(DaiTokenAddress).approve(yCurveExchangeAddress, uint256(-1));\n        IERC20(DaiTokenAddress).approve(bUSDCurveExchangeAddress, uint256(-1));\n        IERC20(DaiTokenAddress).approve(paxCurveExchangeAddress, uint256(-1));\n\n        IERC20(UsdcTokenAddress).approve(sUSDCurveExchangeAddress, uint256(-1));\n        IERC20(UsdcTokenAddress).approve(yCurveExchangeAddress, uint256(-1));\n        IERC20(UsdcTokenAddress).approve(bUSDCurveExchangeAddress, uint256(-1));\n        IERC20(UsdcTokenAddress).approve(paxCurveExchangeAddress, uint256(-1));\n    }\n\n\n    function ZapIn(\n        address _toWhomToIssue,\n        address _IncomingTokenAddress,\n        address _curvePoolExchangeAddress,\n        uint256 _IncomingTokenQty\n    ) public payable stopInEmergency returns (uint256 crvTokensBought) {\n        require(\n            _curvePoolExchangeAddress == sUSDCurveExchangeAddress ||\n                _curvePoolExchangeAddress == yCurveExchangeAddress ||\n                _curvePoolExchangeAddress == bUSDCurveExchangeAddress ||\n                _curvePoolExchangeAddress == paxCurveExchangeAddress,\n            \"Invalid Curve Pool Address\"\n        );\n\n        if (_IncomingTokenAddress == address(0)) {\n            crvTokensBought = ZapInWithETH(\n                _toWhomToIssue,\n                _curvePoolExchangeAddress\n            );\n        } else {\n            crvTokensBought = ZapInWithERC20(\n                _toWhomToIssue,\n                _IncomingTokenAddress,\n                _curvePoolExchangeAddress,\n                _IncomingTokenQty\n            );\n        }\n    }\n\n    function ZapInWithETH(\n        address _toWhomToIssue,\n        address _curvePoolExchangeAddress\n    ) internal stopInEmergency returns (uint256 crvTokensBought) {\n        require(msg.value > 0, \"Err: No ETH sent\");\n        uint256 daiBought = _eth2Token(DaiTokenAddress, (msg.value).div(2));\n        uint256 usdcBought = _eth2Token(UsdcTokenAddress, (msg.value).div(2));\n        crvTokensBought = _enter2Curve(\n            _toWhomToIssue,\n            daiBought,\n            usdcBought,\n            _curvePoolExchangeAddress\n        );\n    }\n\n\n    function ZapInWithERC20(\n        address _toWhomToIssue,\n        address _IncomingTokenAddress,\n        address _curvePoolExchangeAddress,\n        uint256 _IncomingTokenQty\n    ) internal stopInEmergency returns (uint256 crvTokensBought) {\n        require(_IncomingTokenQty > 0, \"Err: No ERC20 sent\");\n\n        require(\n            IERC20(_IncomingTokenAddress).transferFrom(\n                msg.sender,\n                address(this),\n                _IncomingTokenQty\n            ),\n            \"Error in transferring ERC20\"\n        );\n\n        uint256 daiBought;\n        uint256 usdcBought;\n\n        if (_IncomingTokenAddress == DaiTokenAddress) {\n            daiBought = _IncomingTokenQty;\n            usdcBought = 0;\n        } else if (_IncomingTokenAddress == UsdcTokenAddress) {\n            daiBought = 0;\n            usdcBought = _IncomingTokenQty;\n        } else {\n            daiBought = _token2Token(\n                _IncomingTokenAddress,\n                DaiTokenAddress,\n                (_IncomingTokenQty).div(2)\n            );\n            usdcBought = _token2Token(\n                _IncomingTokenAddress,\n                UsdcTokenAddress,\n                (_IncomingTokenQty).div(2)\n            );\n        }\n\n        crvTokensBought = _enter2Curve(\n            _toWhomToIssue,\n            daiBought,\n            usdcBought,\n            _curvePoolExchangeAddress\n        );\n    }\n\n    function _enter2Curve(\n        address _toWhomToIssue,\n        uint256 daiBought,\n        uint256 usdcBought,\n        address _curvePoolExchangeAddress\n    ) internal returns (uint256 crvTokensBought) {\n        // 0 = DAI, 1 = USDC, 2 = USDT, 3 = TUSD/sUSD\n        ICurveExchange(_curvePoolExchangeAddress).add_liquidity(\n            [daiBought, usdcBought, 0, 0],\n            0\n        );\n        address poolTokenAddress = exchange2Token[_curvePoolExchangeAddress];\n        crvTokensBought = IERC20(poolTokenAddress).balanceOf(address(this));\n        require(crvTokensBought > 0, \"Error swapping to CRV\");\n\n        uint256 goodwillPortion = SafeMath.div(\n            SafeMath.mul(crvTokensBought, goodwill),\n            10000\n        );\n\n        require(\n            IERC20(poolTokenAddress).transfer(\n                dzgoodwillAddress,\n                goodwillPortion\n            ),\n            \"Error transferring goodwill\"\n        );\n\n        require(\n            IERC20(poolTokenAddress).transfer(\n                _toWhomToIssue,\n                SafeMath.sub(crvTokensBought, goodwillPortion)\n            ),\n            \"Error transferring CRV\"\n        );\n    }\n\n    function _eth2Token(address _ToTokenContractAddress, uint256 ethReceived)\n        internal\n        returns (uint256 tokensBought)\n    {\n        IuniswapExchange ToUniSwapExchangeContractAddress = IuniswapExchange(\n            UniSwapFactoryAddress.getExchange(_ToTokenContractAddress)\n        );\n\n        tokensBought = ToUniSwapExchangeContractAddress\n            .ethToTokenSwapInput\n            .value(ethReceived)(1, SafeMath.add(now, 300));\n        require(tokensBought > 0, \"Error in swapping ETH\");\n    }\n\n    function _token2Token(\n        address _FromTokenContractAddress,\n        address _ToTokenContractAddress,\n        uint256 tokens2Trade\n    ) internal returns (uint256 tokensBought) {\n        IuniswapExchange FromUniSwapExchangeContractAddress = IuniswapExchange(\n            UniSwapFactoryAddress.getExchange(_FromTokenContractAddress)\n        );\n\n        IERC20(_FromTokenContractAddress).approve(\n            address(FromUniSwapExchangeContractAddress),\n            tokens2Trade\n        );\n\n        tokensBought = FromUniSwapExchangeContractAddress.tokenToTokenSwapInput(\n            tokens2Trade,\n            1,\n            1,\n            SafeMath.add(now, 300),\n            _ToTokenContractAddress\n        );\n\n        require(tokensBought > 0, \"Error in swapping ERC\");\n    }\n\n    function inCaseTokengetsStuck(IERC20 _TokenAddress) public onlyOwner {\n        uint256 qty = _TokenAddress.balanceOf(address(this));\n        _TokenAddress.transfer(_owner, qty);\n    }\n\n    function set_new_goodwill(uint16 _new_goodwill) public onlyOwner {\n        require(\n            _new_goodwill >= 0 && _new_goodwill < 10000,\n            \"GoodWill Value not allowed\"\n        );\n        goodwill = _new_goodwill;\n    }\n\n    function set_new_dzgoodwillAddress(address _new_dzgoodwillAddress)\n        public\n        onlyOwner\n    {\n        dzgoodwillAddress = _new_dzgoodwillAddress;\n    }\n\n    // - to Pause the contract\n    function toggleContractActive() public onlyOwner {\n        stopped = !stopped;\n    }\n\n    // - to withdraw any ETH balance sitting in the contract\n    function withdraw() public onlyOwner {\n        _owner.transfer(address(this).balance);\n    }\n\n    // - to kill the contract\n    function destruct() public onlyOwner {\n        selfdestruct(_owner);\n    }\n}\n",
  "sourcePath": "contracts/Not_upgradable_done/ETH_ERC20_Curve_General_Zap_v1_1.sol",
  "abi": [
    {
      "inputs": [
        {
          "internalType": "uint16",
          "name": "_goodwill",
          "type": "uint16"
        },
        {
          "internalType": "address",
          "name": "_dzgoodwillAddress",
          "type": "address"
        }
      ],
      "payable": false,
      "stateMutability": "nonpayable",
      "type": "constructor"
    },
    {
      "anonymous": false,
      "inputs": [
        {
          "indexed": true,
          "internalType": "address",
          "name": "previousOwner",
          "type": "address"
        },
        {
          "indexed": true,
          "internalType": "address",
          "name": "newOwner",
          "type": "address"
        }
      ],
      "name": "OwnershipTransferred",
      "type": "event"
    },
    {
      "constant": true,
      "inputs": [],
      "name": "DaiTokenAddress",
      "outputs": [
        {
          "internalType": "address",
          "name": "",
          "type": "address"
        }
      ],
      "payable": false,
      "stateMutability": "view",
      "type": "function"
    },
    {
      "constant": true,
      "inputs": [],
      "name": "UniSwapFactoryAddress",
      "outputs": [
        {
          "internalType": "contract IuniswapFactory",
          "name": "",
          "type": "address"
        }
      ],
      "payable": false,
      "stateMutability": "view",
      "type": "function"
    },
    {
      "constant": true,
      "inputs": [],
      "name": "UsdcTokenAddress",
      "outputs": [
        {
          "internalType": "address",
          "name": "",
          "type": "address"
        }
      ],
      "payable": false,
      "stateMutability": "view",
      "type": "function"
    },
    {
      "constant": false,
      "inputs": [
        {
          "internalType": "address",
          "name": "_toWhomToIssue",
          "type": "address"
        },
        {
          "internalType": "address",
          "name": "_IncomingTokenAddress",
          "type": "address"
        },
        {
          "internalType": "address",
          "name": "_curvePoolExchangeAddress",
          "type": "address"
        },
        {
          "internalType": "uint256",
          "name": "_IncomingTokenQty",
          "type": "uint256"
        }
      ],
      "name": "ZapIn",
      "outputs": [
        {
          "internalType": "uint256",
          "name": "crvTokensBought",
          "type": "uint256"
        }
      ],
      "payable": true,
      "stateMutability": "payable",
      "type": "function"
    },
    {
      "constant": true,
      "inputs": [],
      "name": "_owner",
      "outputs": [
        {
          "internalType": "address payable",
          "name": "",
          "type": "address"
        }
      ],
      "payable": false,
      "stateMutability": "view",
      "type": "function"
    },
    {
      "constant": false,
      "inputs": [],
      "name": "approveToken",
      "outputs": [],
      "payable": false,
      "stateMutability": "nonpayable",
      "type": "function"
    },
    {
      "constant": true,
      "inputs": [],
      "name": "bUSDCurveExchangeAddress",
      "outputs": [
        {
          "internalType": "address",
          "name": "",
          "type": "address"
        }
      ],
      "payable": false,
      "stateMutability": "view",
      "type": "function"
    },
    {
      "constant": true,
      "inputs": [],
      "name": "bUSDCurvePoolTokenAddress",
      "outputs": [
        {
          "internalType": "address",
          "name": "",
          "type": "address"
        }
      ],
      "payable": false,
      "stateMutability": "view",
      "type": "function"
    },
    {
      "constant": false,
      "inputs": [],
      "name": "destruct",
      "outputs": [],
      "payable": false,
      "stateMutability": "nonpayable",
      "type": "function"
    },
    {
      "constant": true,
      "inputs": [],
      "name": "dzgoodwillAddress",
      "outputs": [
        {
          "internalType": "address",
          "name": "",
          "type": "address"
        }
      ],
      "payable": false,
      "stateMutability": "view",
      "type": "function"
    },
    {
      "constant": true,
      "inputs": [],
      "name": "goodwill",
      "outputs": [
        {
          "internalType": "uint16",
          "name": "",
          "type": "uint16"
        }
      ],
      "payable": false,
      "stateMutability": "view",
      "type": "function"
    },
    {
      "constant": false,
      "inputs": [
        {
          "internalType": "contract IERC20",
          "name": "_TokenAddress",
          "type": "address"
        }
      ],
      "name": "inCaseTokengetsStuck",
      "outputs": [],
      "payable": false,
      "stateMutability": "nonpayable",
      "type": "function"
    },
    {
      "constant": true,
      "inputs": [],
      "name": "isOwner",
      "outputs": [
        {
          "internalType": "bool",
          "name": "",
          "type": "bool"
        }
      ],
      "payable": false,
      "stateMutability": "view",
      "type": "function"
    },
    {
      "constant": true,
      "inputs": [],
      "name": "owner",
      "outputs": [
        {
          "internalType": "address",
          "name": "",
          "type": "address"
        }
      ],
      "payable": false,
      "stateMutability": "view",
      "type": "function"
    },
    {
      "constant": true,
      "inputs": [],
      "name": "paxCurveExchangeAddress",
      "outputs": [
        {
          "internalType": "address",
          "name": "",
          "type": "address"
        }
      ],
      "payable": false,
      "stateMutability": "view",
      "type": "function"
    },
    {
      "constant": true,
      "inputs": [],
      "name": "paxCurvePoolTokenAddress",
      "outputs": [
        {
          "internalType": "address",
          "name": "",
          "type": "address"
        }
      ],
      "payable": false,
      "stateMutability": "view",
      "type": "function"
    },
    {
      "constant": false,
      "inputs": [],
      "name": "renounceOwnership",
      "outputs": [],
      "payable": false,
      "stateMutability": "nonpayable",
      "type": "function"
    },
    {
      "constant": true,
      "inputs": [],
      "name": "sUSDCurveExchangeAddress",
      "outputs": [
        {
          "internalType": "address",
          "name": "",
          "type": "address"
        }
      ],
      "payable": false,
      "stateMutability": "view",
      "type": "function"
    },
    {
      "constant": true,
      "inputs": [],
      "name": "sUSDCurvePoolTokenAddress",
      "outputs": [
        {
          "internalType": "address",
          "name": "",
          "type": "address"
        }
      ],
      "payable": false,
      "stateMutability": "view",
      "type": "function"
    },
    {
      "constant": false,
      "inputs": [
        {
          "internalType": "address",
          "name": "_new_dzgoodwillAddress",
          "type": "address"
        }
      ],
      "name": "set_new_dzgoodwillAddress",
      "outputs": [],
      "payable": false,
      "stateMutability": "nonpayable",
      "type": "function"
    },
    {
      "constant": false,
      "inputs": [
        {
          "internalType": "uint16",
          "name": "_new_goodwill",
          "type": "uint16"
        }
      ],
      "name": "set_new_goodwill",
      "outputs": [],
      "payable": false,
      "stateMutability": "nonpayable",
      "type": "function"
    },
    {
      "constant": false,
      "inputs": [],
      "name": "toggleContractActive",
      "outputs": [],
      "payable": false,
      "stateMutability": "nonpayable",
      "type": "function"
    },
    {
      "constant": false,
      "inputs": [
        {
          "internalType": "address payable",
          "name": "newOwner",
          "type": "address"
        }
      ],
      "name": "transferOwnership",
      "outputs": [],
      "payable": false,
      "stateMutability": "nonpayable",
      "type": "function"
    },
    {
      "constant": false,
      "inputs": [],
      "name": "withdraw",
      "outputs": [],
      "payable": false,
      "stateMutability": "nonpayable",
      "type": "function"
    },
    {
      "constant": true,
      "inputs": [],
      "name": "yCurveExchangeAddress",
      "outputs": [
        {
          "internalType": "address",
          "name": "",
          "type": "address"
        }
      ],
      "payable": false,
      "stateMutability": "view",
      "type": "function"
    },
    {
      "constant": true,
      "inputs": [],
      "name": "yCurvePoolTokenAddress",
      "outputs": [
        {
          "internalType": "address",
          "name": "",
          "type": "address"
        }
      ],
      "payable": false,
      "stateMutability": "view",
      "type": "function"
    }
  ],
  "bytecode": "0x60806040526000805460ff60a81b19169055600280546001600160a01b031990811673c0a47dfe034b400b47bdad5fecda2621de6c4d9517909155600380548216736b175474e89094c44da98b954eedeac495271d0f17905560048054821673a0b86991c6218b36c1d19d4a2e9eb0ce3606eb4817905560058054821673a5407eae9ba41422680e2e00537571bcc53efbfd17905560068054821673c25a3a3b969415c80451098fa907ec722572917f17905560078054821673bbc81d23ea2c3ec7e56d39296f0cbb648873a5d317905560088054821673df5e0e81dff6faf3a7e52ba697820c5e32d806a817905560098054821673b6c057591e073249f2d9d88ba59a46cfc9b59edb179055600a80548216733b3ac5386837dc563660fb6a0937dfaa5924333b179055600b8054821673a50ccc70b6a011cffddf45057e39679379187287179055600c805490911673d905e2eaebe188fc92179b6350807d8bd91db0d81790553480156200017457600080fd5b50604051620025be380380620025be833981810160405260408110156200019a57600080fd5b5080516020909101516000805460ff19166001178155620001c36001600160e01b03620002ef16565b60008054610100600160a81b0319166101006001600160a01b038416908102919091178255604051929350917f8be0079c531659141344cd1fd0a4f28419497f9722a3daafe3b4186f6b6457e0908290a3506000805461ffff84167601000000000000000000000000000000000000000000000261ffff60b01b19909116178155600180546001600160a01b038085166001600160a01b03199283161790925560065460055483168452600d602052604080852080548416928516929092179091556008546007548416855281852080548416918516919091179055600a546009548416855281852080548416918516919091179055600c54600b54841685529320805490911692909116919091179055620002e76001600160e01b03620002f316565b505062000805565b3390565b600354600554604080517f095ea7b30000000000000000000000000000000000000000000000000000000081526001600160a01b03928316600482015260001960248201529051919092169163095ea7b39160448083019260209291908290030181600087803b1580156200036757600080fd5b505af11580156200037c573d6000803e3d6000fd5b505050506040513d60208110156200039357600080fd5b5050600354600754604080517f095ea7b30000000000000000000000000000000000000000000000000000000081526001600160a01b03928316600482015260001960248201529051919092169163095ea7b39160448083019260209291908290030181600087803b1580156200040957600080fd5b505af11580156200041e573d6000803e3d6000fd5b505050506040513d60208110156200043557600080fd5b5050600354600954604080517f095ea7b30000000000000000000000000000000000000000000000000000000081526001600160a01b03928316600482015260001960248201529051919092169163095ea7b39160448083019260209291908290030181600087803b158015620004ab57600080fd5b505af1158015620004c0573d6000803e3d6000fd5b505050506040513d6020811015620004d757600080fd5b5050600354600b54604080517f095ea7b30000000000000000000000000000000000000000000000000000000081526001600160a01b03928316600482015260001960248201529051919092169163095ea7b39160448083019260209291908290030181600087803b1580156200054d57600080fd5b505af115801562000562573d6000803e3d6000fd5b505050506040513d60208110156200057957600080fd5b505060048054600554604080517f095ea7b30000000000000000000000000000000000000000000000000000000081526001600160a01b039283169481019490945260001960248501525191169163095ea7b39160448083019260209291908290030181600087803b158015620005ef57600080fd5b505af115801562000604573d6000803e3d6000fd5b505050506040513d60208110156200061b57600080fd5b505060048054600754604080517f095ea7b30000000000000000000000000000000000000000000000000000000081526001600160a01b039283169481019490945260001960248501525191169163095ea7b39160448083019260209291908290030181600087803b1580156200069157600080fd5b505af1158015620006a6573d6000803e3d6000fd5b505050506040513d6020811015620006bd57600080fd5b505060048054600954604080517f095ea7b30000000000000000000000000000000000000000000000000000000081526001600160a01b039283169481019490945260001960248501525191169163095ea7b39160448083019260209291908290030181600087803b1580156200073357600080fd5b505af115801562000748573d6000803e3d6000fd5b505050506040513d60208110156200075f57600080fd5b505060048054600b54604080517f095ea7b30000000000000000000000000000000000000000000000000000000081526001600160a01b039283169481019490945260001960248501525191169163095ea7b39160448083019260209291908290030181600087803b158015620007d557600080fd5b505af1158015620007ea573d6000803e3d6000fd5b505050506040513d60208110156200080157600080fd5b5050565b611da980620008156000396000f3fe6080604052600436106101a15760003560e01c80638dd82f0a116100e1578063b10e1dbc1161008a578063c3a8fcb011610064578063c3a8fcb014610412578063e900f93014610427578063f2fde38b1461043c578063fb4595ef1461046f576101a1565b8063b10e1dbc146103ba578063b2bdfa7b146103e8578063bf7aff9d146103fd576101a1565b806399b71d5c116100bb57806399b71d5c1461037b5780639ca8431d146103905780639ddd6934146103a5576101a1565b80638dd82f0a146103285780638f32d59b1461033d5780638f4b0da114610366576101a1565b8063525d509e1161014e578063715018a611610128578063715018a6146102b6578063849e25f4146102cb578063877207f7146102fe5780638da5cb5b14610313576101a1565b8063525d509e14610242578063551196d5146102575780635de0398e1461028a576101a1565b80632b68b9c61161017f5780632b68b9c61461020357806331dad22d146102185780633ccfd60b1461022d576101a1565b80630ebca926146101a65780631385d24c146101d75780632a0d86d9146101ee575b600080fd5b3480156101b257600080fd5b506101bb6104bd565b604080516001600160a01b039092168252519081900360200190f35b3480156101e357600080fd5b506101ec6104cc565b005b3480156101fa57600080fd5b506101bb610534565b34801561020f57600080fd5b506101ec610543565b34801561022457600080fd5b506101bb61059d565b34801561023957600080fd5b506101ec6105ac565b34801561024e57600080fd5b506101bb610638565b34801561026357600080fd5b506101ec6004803603602081101561027a57600080fd5b50356001600160a01b0316610647565b34801561029657600080fd5b5061029f610794565b6040805161ffff9092168252519081900360200190f35b3480156102c257600080fd5b506101ec6107a5565b3480156102d757600080fd5b506101ec600480360360208110156102ee57600080fd5b50356001600160a01b0316610848565b34801561030a57600080fd5b506101bb6108be565b34801561031f57600080fd5b506101bb6108cd565b34801561033457600080fd5b506101bb6108e1565b34801561034957600080fd5b506103526108f0565b604080519115158252519081900360200190f35b34801561037257600080fd5b506101bb610919565b34801561038757600080fd5b506101ec610928565b34801561039c57600080fd5b506101bb610d5a565b3480156103b157600080fd5b506101bb610d69565b3480156103c657600080fd5b506101ec600480360360208110156103dd57600080fd5b503561ffff16610d78565b3480156103f457600080fd5b506101bb610e3b565b34801561040957600080fd5b506101bb610e4f565b34801561041e57600080fd5b506101bb610e5e565b34801561043357600080fd5b506101bb610e6d565b34801561044857600080fd5b506101ec6004803603602081101561045f57600080fd5b50356001600160a01b0316610e7c565b6104ab6004803603608081101561048557600080fd5b506001600160a01b03813581169160208101358216916040820135169060600135610ecc565b60408051918252519081900360200190f35b600b546001600160a01b031681565b6104d46108f0565b610513576040805162461bcd60e51b81526020600482018190526024820152600080516020611d55833981519152604482015290519081900360640190fd5b6000805460ff60a81b198116600160a81b9182900460ff1615909102179055565b6003546001600160a01b031681565b61054b6108f0565b61058a576040805162461bcd60e51b81526020600482018190526024820152600080516020611d55833981519152604482015290519081900360640190fd5b60005461010090046001600160a01b0316ff5b6004546001600160a01b031681565b6105b46108f0565b6105f3576040805162461bcd60e51b81526020600482018190526024820152600080516020611d55833981519152604482015290519081900360640190fd5b600080546040516001600160a01b036101009092049190911691303180156108fc02929091818181858888f19350505050158015610635573d6000803e3d6000fd5b50565b6002546001600160a01b031681565b61064f6108f0565b61068e576040805162461bcd60e51b81526020600482018190526024820152600080516020611d55833981519152604482015290519081900360640190fd5b604080516370a0823160e01b815230600482015290516000916001600160a01b038416916370a0823191602480820192602092909190829003018186803b1580156106d857600080fd5b505afa1580156106ec573d6000803e3d6000fd5b505050506040513d602081101561070257600080fd5b5051600080546040805163a9059cbb60e01b81526101009092046001600160a01b03908116600484015260248301859052905193945085169263a9059cbb92604480840193602093929083900390910190829087803b15801561076457600080fd5b505af1158015610778573d6000803e3d6000fd5b505050506040513d602081101561078e57600080fd5b50505050565b600054600160b01b900461ffff1681565b6107ad6108f0565b6107ec576040805162461bcd60e51b81526020600482018190526024820152600080516020611d55833981519152604482015290519081900360640190fd5b600080546040516101009091046001600160a01b0316907f8be0079c531659141344cd1fd0a4f28419497f9722a3daafe3b4186f6b6457e0908390a36000805474ffffffffffffffffffffffffffffffffffffffff0019169055565b6108506108f0565b61088f576040805162461bcd60e51b81526020600482018190526024820152600080516020611d55833981519152604482015290519081900360640190fd5b6001805473ffffffffffffffffffffffffffffffffffffffff19166001600160a01b0392909216919091179055565b6007546001600160a01b031681565b60005461010090046001600160a01b031690565b6008546001600160a01b031681565b6000805461010090046001600160a01b031661090a611001565b6001600160a01b031614905090565b6005546001600160a01b031681565b6003546005546040805163095ea7b360e01b81526001600160a01b03928316600482015260001960248201529051919092169163095ea7b39160448083019260209291908290030181600087803b15801561098257600080fd5b505af1158015610996573d6000803e3d6000fd5b505050506040513d60208110156109ac57600080fd5b50506003546007546040805163095ea7b360e01b81526001600160a01b03928316600482015260001960248201529051919092169163095ea7b39160448083019260209291908290030181600087803b158015610a0857600080fd5b505af1158015610a1c573d6000803e3d6000fd5b505050506040513d6020811015610a3257600080fd5b50506003546009546040805163095ea7b360e01b81526001600160a01b03928316600482015260001960248201529051919092169163095ea7b39160448083019260209291908290030181600087803b158015610a8e57600080fd5b505af1158015610aa2573d6000803e3d6000fd5b505050506040513d6020811015610ab857600080fd5b5050600354600b546040805163095ea7b360e01b81526001600160a01b03928316600482015260001960248201529051919092169163095ea7b39160448083019260209291908290030181600087803b158015610b1457600080fd5b505af1158015610b28573d6000803e3d6000fd5b505050506040513d6020811015610b3e57600080fd5b5050600480546005546040805163095ea7b360e01b81526001600160a01b039283169481019490945260001960248501525191169163095ea7b39160448083019260209291908290030181600087803b158015610b9a57600080fd5b505af1158015610bae573d6000803e3d6000fd5b505050506040513d6020811015610bc457600080fd5b5050600480546007546040805163095ea7b360e01b81526001600160a01b039283169481019490945260001960248501525191169163095ea7b39160448083019260209291908290030181600087803b158015610c2057600080fd5b505af1158015610c34573d6000803e3d6000fd5b505050506040513d6020811015610c4a57600080fd5b5050600480546009546040805163095ea7b360e01b81526001600160a01b039283169481019490945260001960248501525191169163095ea7b39160448083019260209291908290030181600087803b158015610ca657600080fd5b505af1158015610cba573d6000803e3d6000fd5b505050506040513d6020811015610cd057600080fd5b505060048054600b546040805163095ea7b360e01b81526001600160a01b039283169481019490945260001960248501525191169163095ea7b39160448083019260209291908290030181600087803b158015610d2c57600080fd5b505af1158015610d40573d6000803e3d6000fd5b505050506040513d6020811015610d5657600080fd5b5050565b6006546001600160a01b031681565b600a546001600160a01b031681565b610d806108f0565b610dbf576040805162461bcd60e51b81526020600482018190526024820152600080516020611d55833981519152604482015290519081900360640190fd5b6127108161ffff1610610e19576040805162461bcd60e51b815260206004820152601a60248201527f476f6f6457696c6c2056616c7565206e6f7420616c6c6f776564000000000000604482015290519081900360640190fd5b6000805461ffff909216600160b01b0261ffff60b01b19909216919091179055565b60005461010090046001600160a01b031681565b600c546001600160a01b031681565b6001546001600160a01b031681565b6009546001600160a01b031681565b610e846108f0565b610ec3576040805162461bcd60e51b81526020600482018190526024820152600080516020611d55833981519152604482015290519081900360640190fd5b61063581611005565b60008054600160a81b900460ff1615610f21576040805162461bcd60e51b815260206004820152601260248201527115195b5c1bdc985c9a5b1e4814185d5cd95960721b604482015290519081900360640190fd5b6005546001600160a01b0384811691161480610f4a57506007546001600160a01b038481169116145b80610f6257506009546001600160a01b038481169116145b80610f7a5750600b546001600160a01b038481169116145b610fcb576040805162461bcd60e51b815260206004820152601a60248201527f496e76616c696420437572766520506f6f6c2041646472657373000000000000604482015290519081900360640190fd5b6001600160a01b038416610fea57610fe385846110bd565b9050610ff9565b610ff6858585856111d0565b90505b949350505050565b3390565b6001600160a01b03811661104a5760405162461bcd60e51b8152600401808060200182810382526026815260200180611d0e6026913960400191505060405180910390fd5b600080546040516001600160a01b038085169361010090930416917f8be0079c531659141344cd1fd0a4f28419497f9722a3daafe3b4186f6b6457e091a3600080546001600160a01b039092166101000274ffffffffffffffffffffffffffffffffffffffff0019909216919091179055565b60008054600160a81b900460ff1615611112576040805162461bcd60e51b815260206004820152601260248201527115195b5c1bdc985c9a5b1e4814185d5cd95960721b604482015290519081900360640190fd5b60003411611167576040805162461bcd60e51b815260206004820152601060248201527f4572723a204e6f204554482073656e7400000000000000000000000000000000604482015290519081900360640190fd5b600354600090611190906001600160a01b031661118b34600263ffffffff6113fb16565b611444565b6004549091506000906111b7906001600160a01b031661118b34600263ffffffff6113fb16565b90506111c5858383876115a3565b925050505b92915050565b60008054600160a81b900460ff1615611225576040805162461bcd60e51b815260206004820152601260248201527115195b5c1bdc985c9a5b1e4814185d5cd95960721b604482015290519081900360640190fd5b6000821161127a576040805162461bcd60e51b815260206004820152601260248201527f4572723a204e6f2045524332302073656e740000000000000000000000000000604482015290519081900360640190fd5b604080516323b872dd60e01b81523360048201523060248201526044810184905290516001600160a01b038616916323b872dd9160648083019260209291908290030181600087803b1580156112cf57600080fd5b505af11580156112e3573d6000803e3d6000fd5b505050506040513d60208110156112f957600080fd5b505161134c576040805162461bcd60e51b815260206004820152601b60248201527f4572726f7220696e207472616e7366657272696e672045524332300000000000604482015290519081900360640190fd5b60035460009081906001600160a01b0387811691161415611372575082905060006113e4565b6004546001600160a01b0387811691161415611393575060009050826113e4565b6003546113bb9087906001600160a01b03166113b687600263ffffffff6113fb16565b611918565b6004549092506113e19087906001600160a01b03166113b687600263ffffffff6113fb16565b90505b6113f0878383886115a3565b979650505050505050565b600061143d83836040518060400160405280601a81526020017f536166654d6174683a206469766973696f6e206279207a65726f000000000000815250611b21565b9392505050565b600254604080516303795fb160e11b81526001600160a01b0385811660048301529151600093849316916306f2bf62916024808301926020929190829003018186803b15801561149357600080fd5b505afa1580156114a7573d6000803e3d6000fd5b505050506040513d60208110156114bd57600080fd5b505190506001600160a01b03811663f39b5b9b8460016114df4261012c611bc3565b6040518463ffffffff1660e01b815260040180838152602001828152602001925050506020604051808303818588803b15801561151b57600080fd5b505af115801561152f573d6000803e3d6000fd5b50505050506040513d602081101561154657600080fd5b505191508161159c576040805162461bcd60e51b815260206004820152601560248201527f4572726f7220696e207377617070696e67204554480000000000000000000000604482015290519081900360640190fd5b5092915050565b6000816001600160a01b031663029b2f34604051806080016040528087815260200186815260200160008152602001600081525060006040518363ffffffff1660e01b81526004018083600460200280838360005b838110156116105781810151838201526020016115f8565b5050505090500182815260200192505050600060405180830381600087803b15801561163b57600080fd5b505af115801561164f573d6000803e3d6000fd5b5050506001600160a01b038084166000908152600d60209081526040918290205482516370a0823160e01b815230600482015292519316935083926370a08231926024808201939291829003018186803b1580156116ac57600080fd5b505afa1580156116c0573d6000803e3d6000fd5b505050506040513d60208110156116d657600080fd5b505191508161172c576040805162461bcd60e51b815260206004820152601560248201527f4572726f72207377617070696e6720746f204352560000000000000000000000604482015290519081900360640190fd5b600080546117529061174a908590600160b01b900461ffff16611c1d565b6127106113fb565b6001546040805163a9059cbb60e01b81526001600160a01b0392831660048201526024810184905290519293509084169163a9059cbb916044808201926020929091908290030181600087803b1580156117ab57600080fd5b505af11580156117bf573d6000803e3d6000fd5b505050506040513d60208110156117d557600080fd5b5051611828576040805162461bcd60e51b815260206004820152601b60248201527f4572726f72207472616e7366657272696e6720676f6f6477696c6c0000000000604482015290519081900360640190fd5b816001600160a01b031663a9059cbb886118428685611c76565b6040518363ffffffff1660e01b815260040180836001600160a01b03166001600160a01b0316815260200182815260200192505050602060405180830381600087803b15801561189157600080fd5b505af11580156118a5573d6000803e3d6000fd5b505050506040513d60208110156118bb57600080fd5b505161190e576040805162461bcd60e51b815260206004820152601660248201527f4572726f72207472616e7366657272696e672043525600000000000000000000604482015290519081900360640190fd5b5050949350505050565b600254604080516303795fb160e11b81526001600160a01b0386811660048301529151600093849316916306f2bf62916024808301926020929190829003018186803b15801561196757600080fd5b505afa15801561197b573d6000803e3d6000fd5b505050506040513d602081101561199157600080fd5b50516040805163095ea7b360e01b81526001600160a01b0380841660048301526024820187905291519293509087169163095ea7b3916044808201926020929091908290030181600087803b1580156119e957600080fd5b505af11580156119fd573d6000803e3d6000fd5b505050506040513d6020811015611a1357600080fd5b50506001600160a01b03811663ddf7e1a784600180611a344261012c611bc3565b896040518663ffffffff1660e01b815260040180868152602001858152602001848152602001838152602001826001600160a01b03166001600160a01b0316815260200195505050505050602060405180830381600087803b158015611a9957600080fd5b505af1158015611aad573d6000803e3d6000fd5b505050506040513d6020811015611ac357600080fd5b5051915081611b19576040805162461bcd60e51b815260206004820152601560248201527f4572726f7220696e207377617070696e67204552430000000000000000000000604482015290519081900360640190fd5b509392505050565b60008183611bad5760405162461bcd60e51b81526004018080602001828103825283818151815260200191508051906020019080838360005b83811015611b72578181015183820152602001611b5a565b50505050905090810190601f168015611b9f5780820380516001836020036101000a031916815260200191505b509250505060405180910390fd5b506000838581611bb957fe5b0495945050505050565b60008282018381101561143d576040805162461bcd60e51b815260206004820152601b60248201527f536166654d6174683a206164646974696f6e206f766572666c6f770000000000604482015290519081900360640190fd5b600082611c2c575060006111ca565b82820282848281611c3957fe5b041461143d5760405162461bcd60e51b8152600401808060200182810382526021815260200180611d346021913960400191505060405180910390fd5b600061143d83836040518060400160405280601e81526020017f536166654d6174683a207375627472616374696f6e206f766572666c6f77000081525060008184841115611d055760405162461bcd60e51b8152602060048201818152835160248401528351909283926044909101919085019080838360008315611b72578181015183820152602001611b5a565b50505090039056fe4f776e61626c653a206e6577206f776e657220697320746865207a65726f2061646472657373536166654d6174683a206d756c7469706c69636174696f6e206f766572666c6f774f776e61626c653a2063616c6c6572206973206e6f7420746865206f776e6572a265627a7a72315820e0d5e53bc1bf100248692b75267462c0b2d33bc4710d8b5ed9018883e6571e0664736f6c634300050d0032",
  "compiler": {
    "name": "solc",
    "version": "0.5.13+commit.5b0b510c.Emscripten.clang",
    "optimizer": {
      "enabled": true,
      "runs": 500
    },
    "evmVersion": "petersburg"
  }
}