{
  "fileName": "ETH_ERC20_sUSDCurve_Zap.sol",
  "contractName": "ETH_ERC20_sUSDCurve_Zap_V1",
  "source": "pragma solidity ^0.5.0;\n\n/**\n * @dev Interface of the ERC20 standard as defined in the EIP. Does not include\n * the optional functions; to access them see {ERC20Detailed}.\n */\ninterface IERC20 {\n    /**\n     * @dev Returns the amount of tokens in existence.\n     */\n    function totalSupply() external view returns (uint256);\n\n    /**\n     * @dev Returns the amount of tokens owned by `account`.\n     */\n    function balanceOf(address account) external view returns (uint256);\n\n    /**\n     * @dev Moves `amount` tokens from the caller's account to `recipient`.\n     *\n     * Returns a boolean value indicating whether the operation succeeded.\n     *\n     * Emits a {Transfer} event.\n     */\n    function transfer(address recipient, uint256 amount) external returns (bool);\n\n    /**\n     * @dev Returns the remaining number of tokens that `spender` will be\n     * allowed to spend on behalf of `owner` through {transferFrom}. This is\n     * zero by default.\n     *\n     * This value changes when {approve} or {transferFrom} are called.\n     */\n    function allowance(address owner, address spender) external view returns (uint256);\n\n    /**\n     * @dev Sets `amount` as the allowance of `spender` over the caller's tokens.\n     *\n     * Returns a boolean value indicating whether the operation succeeded.\n     *\n     * IMPORTANT: Beware that changing an allowance with this method brings the risk\n     * that someone may use both the old and the new allowance by unfortunate\n     * transaction ordering. One possible solution to mitigate this race\n     * condition is to first reduce the spender's allowance to 0 and set the\n     * desired value afterwards:\n     * https://github.com/ethereum/EIPs/issues/20#issuecomment-263524729\n     *\n     * Emits an {Approval} event.\n     */\n    function approve(address spender, uint256 amount) external returns (bool);\n\n    /**\n     * @dev Moves `amount` tokens from `sender` to `recipient` using the\n     * allowance mechanism. `amount` is then deducted from the caller's\n     * allowance.\n     *\n     * Returns a boolean value indicating whether the operation succeeded.\n     *\n     * Emits a {Transfer} event.\n     */\n    function transferFrom(address sender, address recipient, uint256 amount) external returns (bool);\n\n    /**\n     * @dev Emitted when `value` tokens are moved from one account (`from`) to\n     * another (`to`).\n     *\n     * Note that `value` may be zero.\n     */\n    event Transfer(address indexed from, address indexed to, uint256 value);\n\n    /**\n     * @dev Emitted when the allowance of a `spender` for an `owner` is set by\n     * a call to {approve}. `value` is the new allowance.\n     */\n    event Approval(address indexed owner, address indexed spender, uint256 value);\n}\n// File: browser/Context.sol\n\npragma solidity ^0.5.0;\n\n/*\n * @dev Provides information about the current execution context, including the\n * sender of the transaction and its data. While these are generally available\n * via msg.sender and msg.data, they should not be accessed in such a direct\n * manner, since when dealing with GSN meta-transactions the account sending and\n * paying for execution may not be the actual sender (as far as an application\n * is concerned).\n *\n * This contract is only required for intermediate, library-like contracts.\n */\ncontract Context {\n    // Empty internal constructor, to prevent people from mistakenly deploying\n    // an instance of this contract, which should be used via inheritance.\n    constructor () internal { }\n    // solhint-disable-previous-line no-empty-blocks\n\n    function _msgSender() internal view returns (address payable) {\n        return msg.sender;\n    }\n\n    function _msgData() internal view returns (bytes memory) {\n        this; // silence state mutability warning without generating bytecode - see https://github.com/ethereum/solidity/issues/2691\n        return msg.data;\n    }\n}\n// File: browser/OpenZepplinOwnable.sol\n\npragma solidity ^0.5.0;\n\n/**\n * @dev Contract module which provides a basic access control mechanism, where\n * there is an account (an owner) that can be granted exclusive access to\n * specific functions.\n *\n * This module is used through inheritance. It will make available the modifier\n * `onlyOwner`, which can be applied to your functions to restrict their use to\n * the owner.\n */\ncontract Ownable is Context {\n    address payable public _owner;\n\n    event OwnershipTransferred(address indexed previousOwner, address indexed newOwner);\n\n    /**\n     * @dev Initializes the contract setting the deployer as the initial owner.\n     */\n    constructor () internal {\n        address payable msgSender = _msgSender();\n        _owner = msgSender;\n        emit OwnershipTransferred(address(0), msgSender);\n    }\n\n    /**\n     * @dev Returns the address of the current owner.\n     */\n    function owner() public view returns (address) {\n        return _owner;\n    }\n\n    /**\n     * @dev Throws if called by any account other than the owner.\n     */\n    modifier onlyOwner() {\n        require(isOwner(), \"Ownable: caller is not the owner\");\n        _;\n    }\n\n    /**\n     * @dev Returns true if the caller is the current owner.\n     */\n    function isOwner() public view returns (bool) {\n        return _msgSender() == _owner;\n    }\n\n    /**\n     * @dev Leaves the contract without owner. It will not be possible to call\n     * `onlyOwner` functions anymore. Can only be called by the current owner.\n     *\n     * NOTE: Renouncing ownership will leave the contract without an owner,\n     * thereby removing any functionality that is only available to the owner.\n     */\n    function renounceOwnership() public onlyOwner {\n        emit OwnershipTransferred(_owner, address(0));\n        _owner = address(0);\n    }\n\n    /**\n     * @dev Transfers ownership of the contract to a new account (`newOwner`).\n     * Can only be called by the current owner.\n     */\n    function transferOwnership(address payable newOwner) public onlyOwner {\n        _transferOwnership(newOwner);\n    }\n\n    /**\n     * @dev Transfers ownership of the contract to a new account (`newOwner`).\n     */\n    function _transferOwnership(address payable newOwner) internal {\n        require(newOwner != address(0), \"Ownable: new owner is the zero address\");\n        emit OwnershipTransferred(_owner, newOwner);\n        _owner = newOwner;\n    }\n}\n// File: browser/OpenZepplinSafeMath.sol\n\npragma solidity ^0.5.0;\n\n/**\n * @dev Wrappers over Solidity's arithmetic operations with added overflow\n * checks.\n *\n * Arithmetic operations in Solidity wrap on overflow. This can easily result\n * in bugs, because programmers usually assume that an overflow raises an\n * error, which is the standard behavior in high level programming languages.\n * `SafeMath` restores this intuition by reverting the transaction when an\n * operation overflows.\n *\n * Using this library instead of the unchecked operations eliminates an entire\n * class of bugs, so it's recommended to use it always.\n */\nlibrary SafeMath {\n    /**\n     * @dev Returns the addition of two unsigned integers, reverting on\n     * overflow.\n     *\n     * Counterpart to Solidity's `+` operator.\n     *\n     * Requirements:\n     * - Addition cannot overflow.\n     */\n    function add(uint256 a, uint256 b) internal pure returns (uint256) {\n        uint256 c = a + b;\n        require(c >= a, \"SafeMath: addition overflow\");\n\n        return c;\n    }\n\n    /**\n     * @dev Returns the subtraction of two unsigned integers, reverting on\n     * overflow (when the result is negative).\n     *\n     * Counterpart to Solidity's `-` operator.\n     *\n     * Requirements:\n     * - Subtraction cannot overflow.\n     */\n    function sub(uint256 a, uint256 b) internal pure returns (uint256) {\n        return sub(a, b, \"SafeMath: subtraction overflow\");\n    }\n\n    /**\n     * @dev Returns the subtraction of two unsigned integers, reverting with custom message on\n     * overflow (when the result is negative).\n     *\n     * Counterpart to Solidity's `-` operator.\n     *\n     * Requirements:\n     * - Subtraction cannot overflow.\n     *\n     * _Available since v2.4.0._\n     */\n    function sub(uint256 a, uint256 b, string memory errorMessage) internal pure returns (uint256) {\n        require(b <= a, errorMessage);\n        uint256 c = a - b;\n\n        return c;\n    }\n\n    /**\n     * @dev Returns the multiplication of two unsigned integers, reverting on\n     * overflow.\n     *\n     * Counterpart to Solidity's `*` operator.\n     *\n     * Requirements:\n     * - Multiplication cannot overflow.\n     */\n    function mul(uint256 a, uint256 b) internal pure returns (uint256) {\n        // Gas optimization: this is cheaper than requiring 'a' not being zero, but the\n        // benefit is lost if 'b' is also tested.\n        // See: https://github.com/OpenZeppelin/openzeppelin-contracts/pull/522\n        if (a == 0) {\n            return 0;\n        }\n\n        uint256 c = a * b;\n        require(c / a == b, \"SafeMath: multiplication overflow\");\n\n        return c;\n    }\n\n    /**\n     * @dev Returns the integer division of two unsigned integers. Reverts on\n     * division by zero. The result is rounded towards zero.\n     *\n     * Counterpart to Solidity's `/` operator. Note: this function uses a\n     * `revert` opcode (which leaves remaining gas untouched) while Solidity\n     * uses an invalid opcode to revert (consuming all remaining gas).\n     *\n     * Requirements:\n     * - The divisor cannot be zero.\n     */\n    function div(uint256 a, uint256 b) internal pure returns (uint256) {\n        return div(a, b, \"SafeMath: division by zero\");\n    }\n\n    /**\n     * @dev Returns the integer division of two unsigned integers. Reverts with custom message on\n     * division by zero. The result is rounded towards zero.\n     *\n     * Counterpart to Solidity's `/` operator. Note: this function uses a\n     * `revert` opcode (which leaves remaining gas untouched) while Solidity\n     * uses an invalid opcode to revert (consuming all remaining gas).\n     *\n     * Requirements:\n     * - The divisor cannot be zero.\n     *\n     * _Available since v2.4.0._\n     */\n    function div(uint256 a, uint256 b, string memory errorMessage) internal pure returns (uint256) {\n        // Solidity only automatically asserts when dividing by 0\n        require(b > 0, errorMessage);\n        uint256 c = a / b;\n        // assert(a == b * c + a % b); // There is no case in which this doesn't hold\n\n        return c;\n    }\n\n    /**\n     * @dev Returns the remainder of dividing two unsigned integers. (unsigned integer modulo),\n     * Reverts when dividing by zero.\n     *\n     * Counterpart to Solidity's `%` operator. This function uses a `revert`\n     * opcode (which leaves remaining gas untouched) while Solidity uses an\n     * invalid opcode to revert (consuming all remaining gas).\n     *\n     * Requirements:\n     * - The divisor cannot be zero.\n     */\n    function mod(uint256 a, uint256 b) internal pure returns (uint256) {\n        return mod(a, b, \"SafeMath: modulo by zero\");\n    }\n\n    /**\n     * @dev Returns the remainder of dividing two unsigned integers. (unsigned integer modulo),\n     * Reverts with custom message when dividing by zero.\n     *\n     * Counterpart to Solidity's `%` operator. This function uses a `revert`\n     * opcode (which leaves remaining gas untouched) while Solidity uses an\n     * invalid opcode to revert (consuming all remaining gas).\n     *\n     * Requirements:\n     * - The divisor cannot be zero.\n     *\n     * _Available since v2.4.0._\n     */\n    function mod(uint256 a, uint256 b, string memory errorMessage) internal pure returns (uint256) {\n        require(b != 0, errorMessage);\n        return a % b;\n    }\n}\n// File: browser/OpenZepplinReentrancyGuard.sol\n\npragma solidity ^0.5.0;\n\n/**\n * @dev Contract module that helps prevent reentrant calls to a function.\n *\n * Inheriting from `ReentrancyGuard` will make the {nonReentrant} modifier\n * available, which can be applied to functions to make sure there are no nested\n * (reentrant) calls to them.\n *\n * Note that because there is a single `nonReentrant` guard, functions marked as\n * `nonReentrant` may not call one another. This can be worked around by making\n * those functions `private`, and then adding `external` `nonReentrant` entry\n * points to them.\n *\n * _Since v2.5.0:_ this module is now much more gas efficient, given net gas\n * metering changes introduced in the Istanbul hardfork.\n */\ncontract ReentrancyGuard {\n    bool private _notEntered;\n\n    constructor () internal {\n        // Storing an initial non-zero value makes deployment a bit more\n        // expensive, but in exchange the refund on every call to nonReentrant\n        // will be lower in amount. Since refunds are capped to a percetange of\n        // the total transaction's gas, it is best to keep them low in cases\n        // like this one, to increase the likelihood of the full refund coming\n        // into effect.\n        _notEntered = true;\n    }\n\n    /**\n     * @dev Prevents a contract from calling itself, directly or indirectly.\n     * Calling a `nonReentrant` function from another `nonReentrant`\n     * function is not supported. It is possible to prevent this from happening\n     * by making the `nonReentrant` function external, and make it call a\n     * `private` function that does the actual work.\n     */\n    modifier nonReentrant() {\n        // On the first call to nonReentrant, _notEntered will be true\n        require(_notEntered, \"ReentrancyGuard: reentrant call\");\n\n        // Any calls to nonReentrant after this point will fail\n        _notEntered = false;\n\n        _;\n\n        // By storing the original value once again, a refund is triggered (see\n        // https://eips.ethereum.org/EIPS/eip-2200)\n        _notEntered = true;\n    }\n}\n\n// Copyright (C) 2019, 2020 dipeshsukhani, nodarjanashia, suhailg, apoorvlathey\n\n// This program is free software: you can redistribute it and/or modify\n// it under the terms of the GNU Affero General Public License as published by\n// the Free Software Foundation, either version 2 of the License, or\n// (at your option) any later version.\n//\n// This program is distributed in the hope that it will be useful,\n// but WITHOUT ANY WARRANTY; without even the implied warranty of\n// MERCHANTABILITY or FITNESS FOR A PARTICULAR PURPOSE.  See the\n// GNU Affero General Public License for more details.\n//\n// Visit <https://www.gnu.org/licenses/>for a copy of the GNU Affero General Public License\n\n// File: localhost/defizap/node_modules/@openzeppelin/contracts-ethereum-package/contracts/token/ERC20/IERC20.sol\n\n///@author DeFiZap\n///@notice this contract implements one click swapping among Uniswap Pools\n\n// interface\ninterface IsUSDCurveExchange {\n    function add_liquidity(\n        uint256[4] calldata amounts,\n        uint256 min_mint_amount\n    ) external;\n\n}\n\n\ninterface IuniswapFactory {\n    function getExchange(address token)\n        external\n        view\n        returns (address exchange);\n}\n\n\ninterface IuniswapExchange {\n    // for removing liquidity (returns ETH removed, ERC20 Removed)\n    function removeLiquidity(\n        uint256 amount,\n        uint256 min_eth,\n        uint256 min_tokens,\n        uint256 deadline\n    ) external returns (uint256, uint256);\n\n    // converting ERC20 to ERC20 and transfer\n    function tokenToTokenSwapInput(\n        uint256 tokens_sold,\n        uint256 min_tokens_bought,\n        uint256 min_eth_bought,\n        uint256 deadline,\n        address token_addr\n    ) external returns (uint256 tokens_bought);\n\n    // add liquidity to a pool (returns LP tokens rec)\n    function addLiquidity(\n        uint256 min_liquidity,\n        uint256 max_tokens,\n        uint256 deadline\n    ) external payable returns (uint256);\n\n    function getEthToTokenInputPrice(uint256 eth_sold)\n        external\n        view\n        returns (uint256 tokens_bought);\n\n    function getTokenToEthInputPrice(uint256 tokens_sold)\n        external\n        view\n        returns (uint256 eth_bought);\n\n    function ethToTokenSwapInput(uint256 min_tokens, uint256 deadline)\n        external\n        payable\n        returns (uint256 tokens_bought);\n\n    function balanceOf(address _owner) external view returns (uint256);\n\n    function transfer(address _to, uint256 _value) external returns (bool);\n\n    function transferFrom(address from, address to, uint256 tokens)\n        external\n        returns (bool success);\n}\n\npragma solidity ^0.5.13;\n\ncontract ETH_ERC20_sUSDCurve_Zap_V1 is ReentrancyGuard, Ownable {\n    using SafeMath for uint256;\n    bool private stopped = false;\n    uint16 public goodwill;\n    address public dzgoodwillAddress;\n    \n    IuniswapFactory public UniSwapFactoryAddress = IuniswapFactory(\n        0xc0a47dFe034B400B47bDaD5FecDa2621de6c4d95\n    );\n    address public DaiTokenAddress = address(\n        0x6B175474E89094C44Da98b954EedeAC495271d0F\n    );\n    address public UsdcTokenAddress = address(\n        0xA0b86991c6218b36c1d19D4a2e9Eb0cE3606eB48\n    );\n    address public sUSDCurveExchangeAddress = address(\n        0xA5407eAE9Ba41422680e2e00537571bcC53efBfD\n    );\n    address public sUSDCurvePoolTokenAddress = address(\n        0xC25a3A3b969415c80451098fa907EC722572917F\n    );\n\n    constructor(uint16 _goodwill, address _dzgoodwillAddress) public {\n        goodwill = _goodwill;\n        dzgoodwillAddress = _dzgoodwillAddress;\n        approveToken();\n    }\n\n    // circuit breaker modifiers\n    modifier stopInEmergency {\n        if (stopped) {\n            revert(\"Temporarily Paused\");\n        } else {\n            _;\n        }\n    }\n\n    function approveToken() public {\n        IERC20(DaiTokenAddress).approve(sUSDCurveExchangeAddress, uint256(-1));\n        IERC20(UsdcTokenAddress).approve(sUSDCurveExchangeAddress, uint256(-1));\n    }\n    \n    function LetsInvest(\n        address _toWhomToIssue,\n        address _IncomingTokenAddress,\n        uint256 _IncomingTokenQty\n    ) public payable stopInEmergency returns(uint256 crvTokensBought){\n        \n        if(_IncomingTokenAddress == address(0)) {\n            crvTokensBought = LetsInvestWithETH(\n                _toWhomToIssue\n            );\n        } else {\n            crvTokensBought = LetsInvestWithERC20(\n                _toWhomToIssue,\n                _IncomingTokenAddress,\n                _IncomingTokenQty\n            );\n        }\n    }\n\n    function LetsInvestWithETH(\n        address _toWhomToIssue\n    ) public payable nonReentrant stopInEmergency returns(uint256){\n        require(msg.value > 0, \"Err: No ETH sent\");\n        \n        uint256 daiBought = _eth2Token(\n            DaiTokenAddress,\n            (msg.value).div(2)\n        );\n        uint256 usdcBought = _eth2Token(\n            UsdcTokenAddress,\n            (msg.value).div(2)\n        );\n        \n        uint256 crvTokensBought = _enter2Curve(daiBought, usdcBought);\n        \n        uint256 goodwillPortion = SafeMath.div(\n            SafeMath.mul(crvTokensBought, goodwill),\n            10000\n        );\n        require(\n            IERC20(sUSDCurvePoolTokenAddress).transfer(dzgoodwillAddress, goodwillPortion),\n            \"Error transferring goodwill\"\n        );\n        \n        require(\n            IERC20(sUSDCurvePoolTokenAddress).transfer(\n                _toWhomToIssue,\n                SafeMath.sub(crvTokensBought, goodwillPortion)\n            ),\n            \"Error transferring CRV\"\n        );\n        return SafeMath.sub(crvTokensBought, goodwillPortion);\n    }\n    \n    function LetsInvestWithERC20(\n        address _toWhomToIssue,\n        address _IncomingTokenAddress,\n        uint256 _IncomingTokenQty\n    ) public payable nonReentrant stopInEmergency returns(uint256){\n        require(_IncomingTokenQty > 0, \"Err: No ERC20 sent\");\n        \n        require(\n                IERC20(_IncomingTokenAddress).transferFrom(\n                    msg.sender,\n                    address(this),\n                    _IncomingTokenQty\n                ),\n                \"Error in transferring ERC20\"\n        );\n\n        uint256 daiBought;\n        uint256 usdcBought;\n        \n        if (_IncomingTokenAddress == DaiTokenAddress) {\n            daiBought = _IncomingTokenQty.div(2);\n            usdcBought = _token2Token(\n                _IncomingTokenAddress,\n                UsdcTokenAddress,\n                (_IncomingTokenQty).div(2)\n            );\n        } else if (_IncomingTokenAddress == UsdcTokenAddress) {\n            daiBought = _token2Token(\n                _IncomingTokenAddress,\n                DaiTokenAddress,\n                (_IncomingTokenQty).div(2)\n            );\n            usdcBought = _IncomingTokenQty.div(2);\n        } else {\n            daiBought = _token2Token(\n                _IncomingTokenAddress,\n                DaiTokenAddress,\n                (_IncomingTokenQty).div(2)\n            );\n            usdcBought = _token2Token(\n                _IncomingTokenAddress,\n                UsdcTokenAddress,\n                (_IncomingTokenQty).div(2)\n            );   \n        }\n        \n        uint256 crvTokensBought = _enter2Curve(daiBought, usdcBought);\n        \n        uint256 goodwillPortion = SafeMath.div(\n            SafeMath.mul(crvTokensBought, goodwill),\n            10000\n        );\n        require(\n            IERC20(sUSDCurvePoolTokenAddress).transfer(dzgoodwillAddress, goodwillPortion),\n            \"Error transferring goodwill\"\n        );\n        \n        require(\n            IERC20(sUSDCurvePoolTokenAddress).transfer(\n                _toWhomToIssue,\n                SafeMath.sub(crvTokensBought, goodwillPortion)\n            ),\n            \"Error transferring CRV\"\n        );\n        return SafeMath.sub(crvTokensBought, goodwillPortion);\n    }\n\n    function _enter2Curve(uint256 daiBought, uint256 usdcBought)\n        internal\n        returns (uint256 crvTokensBought)\n    {\n\n        IsUSDCurveExchange sUSDCurveExchange = IsUSDCurveExchange(sUSDCurveExchangeAddress);\n\n        // 0 = DAI, 1 = USDC, 2 = USDT, 3 = sUSD\n        sUSDCurveExchange.add_liquidity(\n            [daiBought, usdcBought, 0, 0],\n            0\n        );\n        crvTokensBought = IERC20(sUSDCurvePoolTokenAddress).balanceOf(address(this));\n        require(crvTokensBought > 0, \"Error swapping to CRV\");\n    }\n\n    function _eth2Token(address _ToTokenContractAddress, uint256 ethReceived)\n        internal\n        returns (uint256 tokensBought)\n    {\n\n            IuniswapExchange ToUniSwapExchangeContractAddress\n         = IuniswapExchange(\n            UniSwapFactoryAddress.getExchange(_ToTokenContractAddress)\n        );\n\n        tokensBought = ToUniSwapExchangeContractAddress\n            .ethToTokenSwapInput\n            .value(ethReceived)(1, SafeMath.add(now, 1800));\n        require(tokensBought > 0, \"Error in swapping ETH\");\n    }\n    \n    function _token2Token(\n        address _FromTokenContractAddress,\n        address _ToTokenContractAddress,\n        uint256 tokens2Trade\n    ) internal returns (uint256 tokensBought) {\n\n            IuniswapExchange FromUniSwapExchangeContractAddress\n         = IuniswapExchange(\n            UniSwapFactoryAddress.getExchange(_FromTokenContractAddress)\n        );\n\n        IERC20(_FromTokenContractAddress).approve(\n            address(FromUniSwapExchangeContractAddress),\n            tokens2Trade\n        );\n\n        tokensBought = FromUniSwapExchangeContractAddress.tokenToTokenSwapInput(\n            tokens2Trade,\n            1,\n            1,\n            SafeMath.add(now, 1800),\n            _ToTokenContractAddress\n        );\n\n        require(tokensBought > 0, \"Error in swapping ERC\");\n    }\n\n    function inCaseTokengetsStuck(IERC20 _TokenAddress) public onlyOwner {\n        uint256 qty = _TokenAddress.balanceOf(address(this));\n        _TokenAddress.transfer(_owner, qty);\n    }\n\n    function set_new_goodwill(uint16 _new_goodwill) public onlyOwner {\n        require(\n            _new_goodwill > 0 && _new_goodwill < 10000,\n            \"GoodWill Value not allowed\"\n        );\n        goodwill = _new_goodwill;\n    }\n\n    function set_new_dzgoodwillAddress(address _new_dzgoodwillAddress)\n        public\n        onlyOwner\n    {\n        dzgoodwillAddress = _new_dzgoodwillAddress;\n    }\n\n    // - to Pause the contract\n    function toggleContractActive() public onlyOwner {\n        stopped = !stopped;\n    }\n\n    // - to withdraw any ETH balance sitting in the contract\n    function withdraw() public onlyOwner {\n        _owner.transfer(address(this).balance);\n    }\n\n    // - to kill the contract\n    function destruct() public onlyOwner {\n        selfdestruct(_owner);\n    }\n\n    function() external payable {}\n}",
  "sourcePath": "contracts/Not_upgradable_done/ETH_ERC20_sUSDCurve_Zap.sol",
  "abi": [
    {
      "inputs": [
        {
          "internalType": "uint16",
          "name": "_goodwill",
          "type": "uint16"
        },
        {
          "internalType": "address",
          "name": "_dzgoodwillAddress",
          "type": "address"
        }
      ],
      "payable": false,
      "stateMutability": "nonpayable",
      "type": "constructor"
    },
    {
      "anonymous": false,
      "inputs": [
        {
          "indexed": true,
          "internalType": "address",
          "name": "previousOwner",
          "type": "address"
        },
        {
          "indexed": true,
          "internalType": "address",
          "name": "newOwner",
          "type": "address"
        }
      ],
      "name": "OwnershipTransferred",
      "type": "event"
    },
    {
      "payable": true,
      "stateMutability": "payable",
      "type": "fallback"
    },
    {
      "constant": true,
      "inputs": [],
      "name": "DaiTokenAddress",
      "outputs": [
        {
          "internalType": "address",
          "name": "",
          "type": "address"
        }
      ],
      "payable": false,
      "stateMutability": "view",
      "type": "function"
    },
    {
      "constant": false,
      "inputs": [
        {
          "internalType": "address",
          "name": "_toWhomToIssue",
          "type": "address"
        },
        {
          "internalType": "address",
          "name": "_IncomingTokenAddress",
          "type": "address"
        },
        {
          "internalType": "uint256",
          "name": "_IncomingTokenQty",
          "type": "uint256"
        }
      ],
      "name": "LetsInvest",
      "outputs": [
        {
          "internalType": "uint256",
          "name": "crvTokensBought",
          "type": "uint256"
        }
      ],
      "payable": true,
      "stateMutability": "payable",
      "type": "function"
    },
    {
      "constant": false,
      "inputs": [
        {
          "internalType": "address",
          "name": "_toWhomToIssue",
          "type": "address"
        },
        {
          "internalType": "address",
          "name": "_IncomingTokenAddress",
          "type": "address"
        },
        {
          "internalType": "uint256",
          "name": "_IncomingTokenQty",
          "type": "uint256"
        }
      ],
      "name": "LetsInvestWithERC20",
      "outputs": [
        {
          "internalType": "uint256",
          "name": "",
          "type": "uint256"
        }
      ],
      "payable": true,
      "stateMutability": "payable",
      "type": "function"
    },
    {
      "constant": false,
      "inputs": [
        {
          "internalType": "address",
          "name": "_toWhomToIssue",
          "type": "address"
        }
      ],
      "name": "LetsInvestWithETH",
      "outputs": [
        {
          "internalType": "uint256",
          "name": "",
          "type": "uint256"
        }
      ],
      "payable": true,
      "stateMutability": "payable",
      "type": "function"
    },
    {
      "constant": true,
      "inputs": [],
      "name": "UniSwapFactoryAddress",
      "outputs": [
        {
          "internalType": "contract IuniswapFactory",
          "name": "",
          "type": "address"
        }
      ],
      "payable": false,
      "stateMutability": "view",
      "type": "function"
    },
    {
      "constant": true,
      "inputs": [],
      "name": "UsdcTokenAddress",
      "outputs": [
        {
          "internalType": "address",
          "name": "",
          "type": "address"
        }
      ],
      "payable": false,
      "stateMutability": "view",
      "type": "function"
    },
    {
      "constant": true,
      "inputs": [],
      "name": "_owner",
      "outputs": [
        {
          "internalType": "address payable",
          "name": "",
          "type": "address"
        }
      ],
      "payable": false,
      "stateMutability": "view",
      "type": "function"
    },
    {
      "constant": false,
      "inputs": [],
      "name": "approveToken",
      "outputs": [],
      "payable": false,
      "stateMutability": "nonpayable",
      "type": "function"
    },
    {
      "constant": false,
      "inputs": [],
      "name": "destruct",
      "outputs": [],
      "payable": false,
      "stateMutability": "nonpayable",
      "type": "function"
    },
    {
      "constant": true,
      "inputs": [],
      "name": "dzgoodwillAddress",
      "outputs": [
        {
          "internalType": "address",
          "name": "",
          "type": "address"
        }
      ],
      "payable": false,
      "stateMutability": "view",
      "type": "function"
    },
    {
      "constant": true,
      "inputs": [],
      "name": "goodwill",
      "outputs": [
        {
          "internalType": "uint16",
          "name": "",
          "type": "uint16"
        }
      ],
      "payable": false,
      "stateMutability": "view",
      "type": "function"
    },
    {
      "constant": false,
      "inputs": [
        {
          "internalType": "contract IERC20",
          "name": "_TokenAddress",
          "type": "address"
        }
      ],
      "name": "inCaseTokengetsStuck",
      "outputs": [],
      "payable": false,
      "stateMutability": "nonpayable",
      "type": "function"
    },
    {
      "constant": true,
      "inputs": [],
      "name": "isOwner",
      "outputs": [
        {
          "internalType": "bool",
          "name": "",
          "type": "bool"
        }
      ],
      "payable": false,
      "stateMutability": "view",
      "type": "function"
    },
    {
      "constant": true,
      "inputs": [],
      "name": "owner",
      "outputs": [
        {
          "internalType": "address",
          "name": "",
          "type": "address"
        }
      ],
      "payable": false,
      "stateMutability": "view",
      "type": "function"
    },
    {
      "constant": false,
      "inputs": [],
      "name": "renounceOwnership",
      "outputs": [],
      "payable": false,
      "stateMutability": "nonpayable",
      "type": "function"
    },
    {
      "constant": true,
      "inputs": [],
      "name": "sUSDCurveExchangeAddress",
      "outputs": [
        {
          "internalType": "address",
          "name": "",
          "type": "address"
        }
      ],
      "payable": false,
      "stateMutability": "view",
      "type": "function"
    },
    {
      "constant": true,
      "inputs": [],
      "name": "sUSDCurvePoolTokenAddress",
      "outputs": [
        {
          "internalType": "address",
          "name": "",
          "type": "address"
        }
      ],
      "payable": false,
      "stateMutability": "view",
      "type": "function"
    },
    {
      "constant": false,
      "inputs": [
        {
          "internalType": "address",
          "name": "_new_dzgoodwillAddress",
          "type": "address"
        }
      ],
      "name": "set_new_dzgoodwillAddress",
      "outputs": [],
      "payable": false,
      "stateMutability": "nonpayable",
      "type": "function"
    },
    {
      "constant": false,
      "inputs": [
        {
          "internalType": "uint16",
          "name": "_new_goodwill",
          "type": "uint16"
        }
      ],
      "name": "set_new_goodwill",
      "outputs": [],
      "payable": false,
      "stateMutability": "nonpayable",
      "type": "function"
    },
    {
      "constant": false,
      "inputs": [],
      "name": "toggleContractActive",
      "outputs": [],
      "payable": false,
      "stateMutability": "nonpayable",
      "type": "function"
    },
    {
      "constant": false,
      "inputs": [
        {
          "internalType": "address payable",
          "name": "newOwner",
          "type": "address"
        }
      ],
      "name": "transferOwnership",
      "outputs": [],
      "payable": false,
      "stateMutability": "nonpayable",
      "type": "function"
    },
    {
      "constant": false,
      "inputs": [],
      "name": "withdraw",
      "outputs": [],
      "payable": false,
      "stateMutability": "nonpayable",
      "type": "function"
    }
  ],
  "bytecode": "0x60806040526000805460ff60a81b19169055600280546001600160a01b031990811673c0a47dfe034b400b47bdad5fecda2621de6c4d9517909155600380548216736b175474e89094c44da98b954eedeac495271d0f17905560048054821673a0b86991c6218b36c1d19d4a2e9eb0ce3606eb4817905560058054821673a5407eae9ba41422680e2e00537571bcc53efbfd1790556006805490911673c25a3a3b969415c80451098fa907ec722572917f179055348015620000c057600080fd5b5060405162001f5b38038062001f5b83398181016040526040811015620000e657600080fd5b5080516020909101516000805460ff191660011781556200010f6001600160e01b03620001bb16565b60008054610100600160a81b0319166101006001600160a01b038416908102919091178255604051929350917f8be0079c531659141344cd1fd0a4f28419497f9722a3daafe3b4186f6b6457e0908290a3506000805461ffff60b01b191676010000000000000000000000000000000000000000000061ffff851602179055600180546001600160a01b0319166001600160a01b038316179055620001b3620001bf565b505062000305565b3390565b600354600554604080517f095ea7b30000000000000000000000000000000000000000000000000000000081526001600160a01b03928316600482015260001960248201529051919092169163095ea7b39160448083019260209291908290030181600087803b1580156200023357600080fd5b505af115801562000248573d6000803e3d6000fd5b505050506040513d60208110156200025f57600080fd5b505060048054600554604080517f095ea7b30000000000000000000000000000000000000000000000000000000081526001600160a01b039283169481019490945260001960248501525191169163095ea7b39160448083019260209291908290030181600087803b158015620002d557600080fd5b505af1158015620002ea573d6000803e3d6000fd5b505050506040513d60208110156200030157600080fd5b5050565b611c4680620003156000396000f3fe6080604052600436106101555760003560e01c80638da5cb5b116100bb578063b10e1dbc1161007f578063c3a8fcb011610059578063c3a8fcb0146103c6578063efb5baf8146103db578063f2fde38b1461041157610155565b8063b10e1dbc1461035d578063b2bdfa7b1461038b578063bca50c79146103a057610155565b80638da5cb5b146102e05780638f32d59b146102f55780638f4b0da11461031e57806399b71d5c146103335780639ca8431d1461034857610155565b8063525d509e1161011d578063715018a6116100f7578063715018a6146102505780637f9322cc14610265578063849e25f4146102ad57610155565b8063525d509e146101dc578063551196d5146101f15780635de0398e1461022457610155565b80631385d24c146101575780632a0d86d91461016c5780632b68b9c61461019d57806331dad22d146101b25780633ccfd60b146101c7575b005b34801561016357600080fd5b50610155610444565b34801561017857600080fd5b506101816104ac565b604080516001600160a01b039092168252519081900360200190f35b3480156101a957600080fd5b506101556104bb565b3480156101be57600080fd5b50610181610515565b3480156101d357600080fd5b50610155610524565b3480156101e857600080fd5b506101816105b0565b3480156101fd57600080fd5b506101556004803603602081101561021457600080fd5b50356001600160a01b03166105bf565b34801561023057600080fd5b5061023961070c565b6040805161ffff9092168252519081900360200190f35b34801561025c57600080fd5b5061015561071d565b61029b6004803603606081101561027b57600080fd5b506001600160a01b038135811691602081013590911690604001356107c0565b60408051918252519081900360200190f35b3480156102b957600080fd5b50610155600480360360208110156102d057600080fd5b50356001600160a01b0316610848565b3480156102ec57600080fd5b506101816108be565b34801561030157600080fd5b5061030a6108d2565b604080519115158252519081900360200190f35b34801561032a57600080fd5b506101816108fb565b34801561033f57600080fd5b5061015561090a565b34801561035457600080fd5b50610181610a18565b34801561036957600080fd5b506101556004803603602081101561038057600080fd5b503561ffff16610a27565b34801561039757600080fd5b50610181610afa565b61029b600480360360208110156103b657600080fd5b50356001600160a01b0316610b0e565b3480156103d257600080fd5b50610181610e85565b61029b600480360360608110156103f157600080fd5b506001600160a01b03813581169160208101359091169060400135610e94565b34801561041d57600080fd5b506101556004803603602081101561043457600080fd5b50356001600160a01b031661137b565b61044c6108d2565b61048b576040805162461bcd60e51b81526020600482018190526024820152600080516020611bf2833981519152604482015290519081900360640190fd5b6000805460ff60a81b198116600160a81b9182900460ff1615909102179055565b6003546001600160a01b031681565b6104c36108d2565b610502576040805162461bcd60e51b81526020600482018190526024820152600080516020611bf2833981519152604482015290519081900360640190fd5b60005461010090046001600160a01b0316ff5b6004546001600160a01b031681565b61052c6108d2565b61056b576040805162461bcd60e51b81526020600482018190526024820152600080516020611bf2833981519152604482015290519081900360640190fd5b600080546040516001600160a01b036101009092049190911691303180156108fc02929091818181858888f193505050501580156105ad573d6000803e3d6000fd5b50565b6002546001600160a01b031681565b6105c76108d2565b610606576040805162461bcd60e51b81526020600482018190526024820152600080516020611bf2833981519152604482015290519081900360640190fd5b604080516370a0823160e01b815230600482015290516000916001600160a01b038416916370a0823191602480820192602092909190829003018186803b15801561065057600080fd5b505afa158015610664573d6000803e3d6000fd5b505050506040513d602081101561067a57600080fd5b5051600080546040805163a9059cbb60e01b81526101009092046001600160a01b03908116600484015260248301859052905193945085169263a9059cbb92604480840193602093929083900390910190829087803b1580156106dc57600080fd5b505af11580156106f0573d6000803e3d6000fd5b505050506040513d602081101561070657600080fd5b50505050565b600054600160b01b900461ffff1681565b6107256108d2565b610764576040805162461bcd60e51b81526020600482018190526024820152600080516020611bf2833981519152604482015290519081900360640190fd5b600080546040516101009091046001600160a01b0316907f8be0079c531659141344cd1fd0a4f28419497f9722a3daafe3b4186f6b6457e0908390a36000805474ffffffffffffffffffffffffffffffffffffffff0019169055565b60008054600160a81b900460ff1615610815576040805162461bcd60e51b815260206004820152601260248201527115195b5c1bdc985c9a5b1e4814185d5cd95960721b604482015290519081900360640190fd5b6001600160a01b0383166108335761082c84610b0e565b9050610841565b61083e848484610e94565b90505b9392505050565b6108506108d2565b61088f576040805162461bcd60e51b81526020600482018190526024820152600080516020611bf2833981519152604482015290519081900360640190fd5b6001805473ffffffffffffffffffffffffffffffffffffffff19166001600160a01b0392909216919091179055565b60005461010090046001600160a01b031690565b6000805461010090046001600160a01b03166108ec6113cb565b6001600160a01b031614905090565b6005546001600160a01b031681565b6003546005546040805163095ea7b360e01b81526001600160a01b03928316600482015260001960248201529051919092169163095ea7b39160448083019260209291908290030181600087803b15801561096457600080fd5b505af1158015610978573d6000803e3d6000fd5b505050506040513d602081101561098e57600080fd5b5050600480546005546040805163095ea7b360e01b81526001600160a01b039283169481019490945260001960248501525191169163095ea7b39160448083019260209291908290030181600087803b1580156109ea57600080fd5b505af11580156109fe573d6000803e3d6000fd5b505050506040513d6020811015610a1457600080fd5b5050565b6006546001600160a01b031681565b610a2f6108d2565b610a6e576040805162461bcd60e51b81526020600482018190526024820152600080516020611bf2833981519152604482015290519081900360640190fd5b60008161ffff16118015610a8757506127108161ffff16105b610ad8576040805162461bcd60e51b815260206004820152601a60248201527f476f6f6457696c6c2056616c7565206e6f7420616c6c6f776564000000000000604482015290519081900360640190fd5b6000805461ffff909216600160b01b0261ffff60b01b19909216919091179055565b60005461010090046001600160a01b031681565b6000805460ff16610b66576040805162461bcd60e51b815260206004820152601f60248201527f5265656e7472616e637947756172643a207265656e7472616e742063616c6c00604482015290519081900360640190fd5b6000805460ff191690819055600160a81b900460ff1615610bc3576040805162461bcd60e51b815260206004820152601260248201527115195b5c1bdc985c9a5b1e4814185d5cd95960721b604482015290519081900360640190fd5b60003411610c18576040805162461bcd60e51b815260206004820152601060248201527f4572723a204e6f204554482073656e7400000000000000000000000000000000604482015290519081900360640190fd5b600354600090610c41906001600160a01b0316610c3c34600263ffffffff6113cf16565b61141a565b600454909150600090610c68906001600160a01b0316610c3c34600263ffffffff6113cf16565b90506000610c768383611579565b90506000610ca3610c9b83600060169054906101000a900461ffff1661ffff166116f8565b6127106113cf565b6006546001546040805163a9059cbb60e01b81526001600160a01b03928316600482015260248101859052905193945091169163a9059cbb916044808201926020929091908290030181600087803b158015610cfe57600080fd5b505af1158015610d12573d6000803e3d6000fd5b505050506040513d6020811015610d2857600080fd5b5051610d7b576040805162461bcd60e51b815260206004820152601b60248201527f4572726f72207472616e7366657272696e6720676f6f6477696c6c0000000000604482015290519081900360640190fd5b6006546001600160a01b031663a9059cbb87610d978585611751565b6040518363ffffffff1660e01b815260040180836001600160a01b03166001600160a01b0316815260200182815260200192505050602060405180830381600087803b158015610de657600080fd5b505af1158015610dfa573d6000803e3d6000fd5b505050506040513d6020811015610e1057600080fd5b5051610e63576040805162461bcd60e51b815260206004820152601660248201527f4572726f72207472616e7366657272696e672043525600000000000000000000604482015290519081900360640190fd5b610e6d8282611751565b9450505050506000805460ff19166001179055919050565b6001546001600160a01b031681565b6000805460ff16610eec576040805162461bcd60e51b815260206004820152601f60248201527f5265656e7472616e637947756172643a207265656e7472616e742063616c6c00604482015290519081900360640190fd5b6000805460ff191690819055600160a81b900460ff1615610f49576040805162461bcd60e51b815260206004820152601260248201527115195b5c1bdc985c9a5b1e4814185d5cd95960721b604482015290519081900360640190fd5b60008211610f9e576040805162461bcd60e51b815260206004820152601260248201527f4572723a204e6f2045524332302073656e740000000000000000000000000000604482015290519081900360640190fd5b604080516323b872dd60e01b81523360048201523060248201526044810184905290516001600160a01b038516916323b872dd9160648083019260209291908290030181600087803b158015610ff357600080fd5b505af1158015611007573d6000803e3d6000fd5b505050506040513d602081101561101d57600080fd5b5051611070576040805162461bcd60e51b815260206004820152601b60248201527f4572726f7220696e207472616e7366657272696e672045524332300000000000604482015290519081900360640190fd5b60035460009081906001600160a01b03868116911614156110ce5761109c84600263ffffffff6113cf16565b6004549092506110c79086906001600160a01b03166110c287600263ffffffff6113cf16565b611793565b9050611166565b6004546001600160a01b038681169116141561111a576003546111079086906001600160a01b03166110c287600263ffffffff6113cf16565b91506110c784600263ffffffff6113cf16565b60035461113d9086906001600160a01b03166110c287600263ffffffff6113cf16565b6004549092506111639086906001600160a01b03166110c287600263ffffffff6113cf16565b90505b60006111728383611579565b90506000611197610c9b83600060169054906101000a900461ffff1661ffff166116f8565b6006546001546040805163a9059cbb60e01b81526001600160a01b03928316600482015260248101859052905193945091169163a9059cbb916044808201926020929091908290030181600087803b1580156111f257600080fd5b505af1158015611206573d6000803e3d6000fd5b505050506040513d602081101561121c57600080fd5b505161126f576040805162461bcd60e51b815260206004820152601b60248201527f4572726f72207472616e7366657272696e6720676f6f6477696c6c0000000000604482015290519081900360640190fd5b6006546001600160a01b031663a9059cbb8961128b8585611751565b6040518363ffffffff1660e01b815260040180836001600160a01b03166001600160a01b0316815260200182815260200192505050602060405180830381600087803b1580156112da57600080fd5b505af11580156112ee573d6000803e3d6000fd5b505050506040513d602081101561130457600080fd5b5051611357576040805162461bcd60e51b815260206004820152601660248201527f4572726f72207472616e7366657272696e672043525600000000000000000000604482015290519081900360640190fd5b6113618282611751565b9450505050506000805460ff191660011790559392505050565b6113836108d2565b6113c2576040805162461bcd60e51b81526020600482018190526024820152600080516020611bf2833981519152604482015290519081900360640190fd5b6105ad8161199c565b3390565b600061141183836040518060400160405280601a81526020017f536166654d6174683a206469766973696f6e206279207a65726f000000000000815250611a54565b90505b92915050565b600254604080516303795fb160e11b81526001600160a01b0385811660048301529151600093849316916306f2bf62916024808301926020929190829003018186803b15801561146957600080fd5b505afa15801561147d573d6000803e3d6000fd5b505050506040513d602081101561149357600080fd5b505190506001600160a01b03811663f39b5b9b8460016114b542610708611af6565b6040518463ffffffff1660e01b815260040180838152602001828152602001925050506020604051808303818588803b1580156114f157600080fd5b505af1158015611505573d6000803e3d6000fd5b50505050506040513d602081101561151c57600080fd5b5051915081611572576040805162461bcd60e51b815260206004820152601560248201527f4572726f7220696e207377617070696e67204554480000000000000000000000604482015290519081900360640190fd5b5092915050565b600554604080516080808201835285825260208201859052600082840181905260608301819052925162a6cbcd60e21b815292936001600160a01b031692839263029b2f34929091869160049091019081908490808383875b838110156115ea5781810151838201526020016115d2565b5050505090500182815260200192505050600060405180830381600087803b15801561161557600080fd5b505af1158015611629573d6000803e3d6000fd5b5050600654604080516370a0823160e01b815230600482015290516001600160a01b0390921693506370a082319250602480820192602092909190829003018186803b15801561167857600080fd5b505afa15801561168c573d6000803e3d6000fd5b505050506040513d60208110156116a257600080fd5b5051915081611572576040805162461bcd60e51b815260206004820152601560248201527f4572726f72207377617070696e6720746f204352560000000000000000000000604482015290519081900360640190fd5b60008261170757506000611414565b8282028284828161171457fe5b04146114115760405162461bcd60e51b8152600401808060200182810382526021815260200180611bd16021913960400191505060405180910390fd5b600061141183836040518060400160405280601e81526020017f536166654d6174683a207375627472616374696f6e206f766572666c6f770000815250611b50565b600254604080516303795fb160e11b81526001600160a01b0386811660048301529151600093849316916306f2bf62916024808301926020929190829003018186803b1580156117e257600080fd5b505afa1580156117f6573d6000803e3d6000fd5b505050506040513d602081101561180c57600080fd5b50516040805163095ea7b360e01b81526001600160a01b0380841660048301526024820187905291519293509087169163095ea7b3916044808201926020929091908290030181600087803b15801561186457600080fd5b505af1158015611878573d6000803e3d6000fd5b505050506040513d602081101561188e57600080fd5b50506001600160a01b03811663ddf7e1a7846001806118af42610708611af6565b896040518663ffffffff1660e01b815260040180868152602001858152602001848152602001838152602001826001600160a01b03166001600160a01b0316815260200195505050505050602060405180830381600087803b15801561191457600080fd5b505af1158015611928573d6000803e3d6000fd5b505050506040513d602081101561193e57600080fd5b5051915081611994576040805162461bcd60e51b815260206004820152601560248201527f4572726f7220696e207377617070696e67204552430000000000000000000000604482015290519081900360640190fd5b509392505050565b6001600160a01b0381166119e15760405162461bcd60e51b8152600401808060200182810382526026815260200180611bab6026913960400191505060405180910390fd5b600080546040516001600160a01b038085169361010090930416917f8be0079c531659141344cd1fd0a4f28419497f9722a3daafe3b4186f6b6457e091a3600080546001600160a01b039092166101000274ffffffffffffffffffffffffffffffffffffffff0019909216919091179055565b60008183611ae05760405162461bcd60e51b81526004018080602001828103825283818151815260200191508051906020019080838360005b83811015611aa5578181015183820152602001611a8d565b50505050905090810190601f168015611ad25780820380516001836020036101000a031916815260200191505b509250505060405180910390fd5b506000838581611aec57fe5b0495945050505050565b600082820183811015611411576040805162461bcd60e51b815260206004820152601b60248201527f536166654d6174683a206164646974696f6e206f766572666c6f770000000000604482015290519081900360640190fd5b60008184841115611ba25760405162461bcd60e51b8152602060048201818152835160248401528351909283926044909101919085019080838360008315611aa5578181015183820152602001611a8d565b50505090039056fe4f776e61626c653a206e6577206f776e657220697320746865207a65726f2061646472657373536166654d6174683a206d756c7469706c69636174696f6e206f766572666c6f774f776e61626c653a2063616c6c6572206973206e6f7420746865206f776e6572a265627a7a72315820b69fc9d2c812b79c0fa463c1691a88e2b84cc3084db13f386c466364256b18eb64736f6c634300050d0032",
  "compiler": {
    "name": "solc",
    "version": "0.5.13+commit.5b0b510c.Emscripten.clang",
    "optimizer": {
      "enabled": true,
      "runs": 500
    },
    "evmVersion": "petersburg"
  }
}