{
  "fileName": "EthMaximalist_GiftZap.sol",
  "contractName": "ETHMaximalist",
  "source": "\n// Copyright (C) 2019, 2020 dipeshsukhani, nodarjonashi, toshsharma, suhailg\n\n// This program is free software: you can redistribute it and/or modify\n// it under the terms of the GNU Affero General Public License as published by\n// the Free Software Foundation, either version 2 of the License, or\n// (at your option) any later version.\n//\n// This program is distributed in the hope that it will be useful,\n// but WITHOUT ANY WARRANTY; without even the implied warranty of\n// MERCHANTABILITY or FITNESS FOR A PARTICULAR PURPOSE.  See the\n// GNU Affero General Public License for more details.\n//\n// Visit <https://www.gnu.org/licenses/>for a copy of the GNU Affero General Public License\n\n/**\n * WARNING: This is an upgradable contract. Be careful not to disrupt\n * the existing storage layout when making upgrades to the contract. In particular,\n * existing fields should not be removed and should not have their types changed.\n * The order of field declarations must not be changed, and new fields must be added\n * below all existing declarations.\n *\n * The base contracts and the order in which they are declared must not be changed.\n * New fields must not be added to base contracts (unless the base contract has\n * reserved placeholder fields for this purpose).\n *\n * See https://docs.zeppelinos.org/docs/writing_contracts.html for more info.\n*/\n\npragma solidity ^0.5.0;\n\nimport \"../../../node_modules/@openzeppelin/upgrades/contracts/Initializable.sol\";\nimport \"../../../node_modules/@openzeppelin/contracts-ethereum-package/contracts/math/SafeMath.sol\";\nimport \"../../../node_modules/@openzeppelin/contracts-ethereum-package/contracts/token/ERC20/IERC20.sol\";\n\n\ninterface Invest2Fulcrum1xShortBTC {\n    function LetsInvest2Fulcrum1xShortBTC(address _towhomtoissue) external payable;\n}\n\ninterface Invest2Fulcrum {\n    function LetsInvest2Fulcrum(address _towhomtoissue) external payable;\n}\n\n\ncontract ETHMaximalist is Initializable {\n    using SafeMath for uint;\n    \n    // state variables\n    \n    // - THESE MUST ALWAYS STAY IN THE SAME LAYOUT\n    bool private stopped;\n    address payable public owner;\n    Invest2Fulcrum public Invest2FulcrumAddress;\n    Invest2Fulcrum1xShortBTC public Invest2Fulcrum1xShortBTCContract;\n\n    \n    // circuit breaker modifiers\n    modifier stopInEmergency {if (!stopped) _;}\n    modifier onlyInEmergency {if (stopped) _;}\n    modifier onlyOwner() {\n        require(isOwner(), \"you are not authorised to call this function\");\n        _;\n    }\n\n    function initialize() initializer public {\n        stopped = false;\n        owner = msg.sender;\n        Invest2FulcrumAddress = Invest2Fulcrum(0xAB58BBF6B6ca1B064aa59113AeA204F554E8fBAe);\n        Invest2Fulcrum1xShortBTCContract = Invest2Fulcrum1xShortBTC(0xa2C3e380E6c082A003819a2a69086748fe3D15Dd);\n    }\n\n    // this function should be called should we ever want to change the Invest2FulcrumAddress\n    function set_Invest2FulcrumAddress(Invest2Fulcrum _Invest2FulcrumAddress) onlyOwner public {\n        Invest2FulcrumAddress = _Invest2FulcrumAddress;\n    }\n    \n    // this function should be called should we ever want to change the Invest2Fulcrum1xShortBTCContract address\n    function set_Invest2Fulcrum1xShortBTCContract (Invest2Fulcrum1xShortBTC _Invest2Fulcrum1xShortBTCContract) onlyOwner public {\n        Invest2Fulcrum1xShortBTCContract = _Invest2Fulcrum1xShortBTCContract;\n    }\n    \n\n    \n    // this function lets you deposit ETH into this wallet \n    function LetsInvest(address _towhomtoIssueAddress, uint _ShortBTCAllocation, uint _slippage) stopInEmergency payable public returns (bool) {\n        require(_ShortBTCAllocation >= 0 || _ShortBTCAllocation <= 100, \"wrong allocation\");\n        uint investAmt2ShortBTC = SafeMath.div(SafeMath.mul(msg.value,_ShortBTCAllocation), 100);\n        uint investAmt2c2xLongETH = SafeMath.sub(msg.value, investAmt2ShortBTC);\n        require (SafeMath.sub(msg.value,SafeMath.add(investAmt2ShortBTC, investAmt2c2xLongETH))==0, \"Cannot split incoming ETH appropriately\");\n        Invest2Fulcrum1xShortBTCContract.LetsInvest2Fulcrum1xShortBTC.value(investAmt2ShortBTC)(_towhomtoIssueAddress);\n        Invest2FulcrumAddress.LetsInvest2Fulcrum.value(investAmt2c2xLongETH)(_towhomtoIssueAddress);\n        \n    }\n    function inCaseTokengetsStuck(IERC20 _TokenAddress) onlyOwner public {\n        uint qty = _TokenAddress.balanceOf(address(this));\n        _TokenAddress.transfer(owner, qty);\n    }\n\n    // - fallback function let you / anyone send ETH to this wallet without the need to call any function\n    function() external payable {\n        if (msg.sender != owner) {\n            LetsInvest(msg.sender, 50, 5);}\n    }\n    \n    // - to Pause the contract\n    function toggleContractActive() onlyOwner public {\n        stopped = !stopped;\n    }\n    // - to withdraw any ETH balance sitting in the contract\n    function withdraw() onlyOwner public{\n        owner.transfer(address(this).balance);\n    }\n    // - to kill the contract\n    function destruct() public onlyOwner {\n        selfdestruct(owner);\n    }\n    /**\n     * @return true if `msg.sender` is the owner of the contract.\n     */\n    function isOwner() public view returns (bool) {\n        return msg.sender == owner;\n    }\n\n    /**\n     * @dev Transfers ownership of the contract to a new account (`newOwner`).\n     * Can only be called by the current owner.\n     */\n    function transferOwnership(address payable newOwner) public onlyOwner {\n        _transferOwnership(newOwner);\n    }\n\n    /**\n     * @dev Transfers ownership of the contract to a new account (`newOwner`).\n     */\n    function _transferOwnership(address payable newOwner) internal {\n        require(newOwner != address(0), \"Ownable: new owner is the zero address\");\n        owner = newOwner;\n    } \n\n}\n",
  "sourcePath": "contracts/UpdatedZaps/Current WIP/EthMaximalist_GiftZap.sol",
  "abi": [
    {
      "payable": true,
      "stateMutability": "payable",
      "type": "fallback"
    },
    {
      "constant": true,
      "inputs": [],
      "name": "Invest2Fulcrum1xShortBTCContract",
      "outputs": [
        {
          "internalType": "contract Invest2Fulcrum1xShortBTC",
          "name": "",
          "type": "address"
        }
      ],
      "payable": false,
      "stateMutability": "view",
      "type": "function"
    },
    {
      "constant": true,
      "inputs": [],
      "name": "Invest2FulcrumAddress",
      "outputs": [
        {
          "internalType": "contract Invest2Fulcrum",
          "name": "",
          "type": "address"
        }
      ],
      "payable": false,
      "stateMutability": "view",
      "type": "function"
    },
    {
      "constant": false,
      "inputs": [
        {
          "internalType": "address",
          "name": "_towhomtoIssueAddress",
          "type": "address"
        },
        {
          "internalType": "uint256",
          "name": "_ShortBTCAllocation",
          "type": "uint256"
        },
        {
          "internalType": "uint256",
          "name": "_slippage",
          "type": "uint256"
        }
      ],
      "name": "LetsInvest",
      "outputs": [
        {
          "internalType": "bool",
          "name": "",
          "type": "bool"
        }
      ],
      "payable": true,
      "stateMutability": "payable",
      "type": "function"
    },
    {
      "constant": false,
      "inputs": [],
      "name": "destruct",
      "outputs": [],
      "payable": false,
      "stateMutability": "nonpayable",
      "type": "function"
    },
    {
      "constant": false,
      "inputs": [
        {
          "internalType": "contract IERC20",
          "name": "_TokenAddress",
          "type": "address"
        }
      ],
      "name": "inCaseTokengetsStuck",
      "outputs": [],
      "payable": false,
      "stateMutability": "nonpayable",
      "type": "function"
    },
    {
      "constant": false,
      "inputs": [],
      "name": "initialize",
      "outputs": [],
      "payable": false,
      "stateMutability": "nonpayable",
      "type": "function"
    },
    {
      "constant": true,
      "inputs": [],
      "name": "isOwner",
      "outputs": [
        {
          "internalType": "bool",
          "name": "",
          "type": "bool"
        }
      ],
      "payable": false,
      "stateMutability": "view",
      "type": "function"
    },
    {
      "constant": true,
      "inputs": [],
      "name": "owner",
      "outputs": [
        {
          "internalType": "address payable",
          "name": "",
          "type": "address"
        }
      ],
      "payable": false,
      "stateMutability": "view",
      "type": "function"
    },
    {
      "constant": false,
      "inputs": [
        {
          "internalType": "contract Invest2Fulcrum1xShortBTC",
          "name": "_Invest2Fulcrum1xShortBTCContract",
          "type": "address"
        }
      ],
      "name": "set_Invest2Fulcrum1xShortBTCContract",
      "outputs": [],
      "payable": false,
      "stateMutability": "nonpayable",
      "type": "function"
    },
    {
      "constant": false,
      "inputs": [
        {
          "internalType": "contract Invest2Fulcrum",
          "name": "_Invest2FulcrumAddress",
          "type": "address"
        }
      ],
      "name": "set_Invest2FulcrumAddress",
      "outputs": [],
      "payable": false,
      "stateMutability": "nonpayable",
      "type": "function"
    },
    {
      "constant": false,
      "inputs": [],
      "name": "toggleContractActive",
      "outputs": [],
      "payable": false,
      "stateMutability": "nonpayable",
      "type": "function"
    },
    {
      "constant": false,
      "inputs": [
        {
          "internalType": "address payable",
          "name": "newOwner",
          "type": "address"
        }
      ],
      "name": "transferOwnership",
      "outputs": [],
      "payable": false,
      "stateMutability": "nonpayable",
      "type": "function"
    },
    {
      "constant": false,
      "inputs": [],
      "name": "withdraw",
      "outputs": [],
      "payable": false,
      "stateMutability": "nonpayable",
      "type": "function"
    }
  ],
  "bytecode": "0x608060405234801561001057600080fd5b50611490806100206000396000f3fe6080604052600436106100c25760003560e01c80637b27a7181161007f5780638f32d59b116100595780638f32d59b146103445780639a22dafe14610373578063d67e94ed146103ca578063f2fde38b1461041b576100c2565b80637b27a7181461027f5780638129fc1c146102d65780638da5cb5b146102ed576100c2565b80631385d24c146101285780632b68b9c61461013f5780633ccfd60b14610156578063425a28fc1461016d57806352abee4a146101be578063551196d51461022e575b603360019054906101000a900473ffffffffffffffffffffffffffffffffffffffff1673ffffffffffffffffffffffffffffffffffffffff163373ffffffffffffffffffffffffffffffffffffffff161461012657610124336032600561046c565b505b005b34801561013457600080fd5b5061013d610714565b005b34801561014b57600080fd5b5061015461079d565b005b34801561016257600080fd5b5061016b610835565b005b34801561017957600080fd5b506101bc6004803603602081101561019057600080fd5b81019080803573ffffffffffffffffffffffffffffffffffffffff169060200190929190505050610914565b005b610214600480360360608110156101d457600080fd5b81019080803573ffffffffffffffffffffffffffffffffffffffff169060200190929190803590602001909291908035906020019092919050505061046c565b604051808215151515815260200191505060405180910390f35b34801561023a57600080fd5b5061027d6004803603602081101561025157600080fd5b81019080803573ffffffffffffffffffffffffffffffffffffffff1690602001909291905050506109b5565b005b34801561028b57600080fd5b50610294610bb7565b604051808273ffffffffffffffffffffffffffffffffffffffff1673ffffffffffffffffffffffffffffffffffffffff16815260200191505060405180910390f35b3480156102e257600080fd5b506102eb610bdd565b005b3480156102f957600080fd5b50610302610de2565b604051808273ffffffffffffffffffffffffffffffffffffffff1673ffffffffffffffffffffffffffffffffffffffff16815260200191505060405180910390f35b34801561035057600080fd5b50610359610e08565b604051808215151515815260200191505060405180910390f35b34801561037f57600080fd5b50610388610e60565b604051808273ffffffffffffffffffffffffffffffffffffffff1673ffffffffffffffffffffffffffffffffffffffff16815260200191505060405180910390f35b3480156103d657600080fd5b50610419600480360360208110156103ed57600080fd5b81019080803573ffffffffffffffffffffffffffffffffffffffff169060200190929190505050610e86565b005b34801561042757600080fd5b5061046a6004803603602081101561043e57600080fd5b81019080803573ffffffffffffffffffffffffffffffffffffffff169060200190929190505050610f27565b005b6000603360009054906101000a900460ff1661070d57600083101580610493575060648311155b610505576040517f08c379a00000000000000000000000000000000000000000000000000000000081526004018080602001828103825260108152602001807f77726f6e6720616c6c6f636174696f6e0000000000000000000000000000000081525060200191505060405180910390fd5b600061051b6105143486610f90565b6064611016565b905060006105293483611060565b905060006105403461053b85856110aa565b611060565b14610596576040517f08c379a00000000000000000000000000000000000000000000000000000000081526004018080602001828103825260278152602001806114356027913960400191505060405180910390fd5b603560009054906101000a900473ffffffffffffffffffffffffffffffffffffffff1673ffffffffffffffffffffffffffffffffffffffff1663d243d85b83886040518363ffffffff1660e01b8152600401808273ffffffffffffffffffffffffffffffffffffffff1673ffffffffffffffffffffffffffffffffffffffff1681526020019150506000604051808303818588803b15801561063757600080fd5b505af115801561064b573d6000803e3d6000fd5b5050505050603460009054906101000a900473ffffffffffffffffffffffffffffffffffffffff1673ffffffffffffffffffffffffffffffffffffffff1663c310331382886040518363ffffffff1660e01b8152600401808273ffffffffffffffffffffffffffffffffffffffff1673ffffffffffffffffffffffffffffffffffffffff1681526020019150506000604051808303818588803b1580156106f157600080fd5b505af1158015610705573d6000803e3d6000fd5b505050505050505b9392505050565b61071c610e08565b610771576040517f08c379a000000000000000000000000000000000000000000000000000000000815260040180806020018281038252602c8152602001806113ba602c913960400191505060405180910390fd5b603360009054906101000a900460ff1615603360006101000a81548160ff021916908315150217905550565b6107a5610e08565b6107fa576040517f08c379a000000000000000000000000000000000000000000000000000000000815260040180806020018281038252602c8152602001806113ba602c913960400191505060405180910390fd5b603360019054906101000a900473ffffffffffffffffffffffffffffffffffffffff1673ffffffffffffffffffffffffffffffffffffffff16ff5b61083d610e08565b610892576040517f08c379a000000000000000000000000000000000000000000000000000000000815260040180806020018281038252602c8152602001806113ba602c913960400191505060405180910390fd5b603360019054906101000a900473ffffffffffffffffffffffffffffffffffffffff1673ffffffffffffffffffffffffffffffffffffffff166108fc3073ffffffffffffffffffffffffffffffffffffffff16319081150290604051600060405180830381858888f19350505050158015610911573d6000803e3d6000fd5b50565b61091c610e08565b610971576040517f08c379a000000000000000000000000000000000000000000000000000000000815260040180806020018281038252602c8152602001806113ba602c913960400191505060405180910390fd5b80603560006101000a81548173ffffffffffffffffffffffffffffffffffffffff021916908373ffffffffffffffffffffffffffffffffffffffff16021790555050565b6109bd610e08565b610a12576040517f08c379a000000000000000000000000000000000000000000000000000000000815260040180806020018281038252602c8152602001806113ba602c913960400191505060405180910390fd5b60008173ffffffffffffffffffffffffffffffffffffffff166370a08231306040518263ffffffff1660e01b8152600401808273ffffffffffffffffffffffffffffffffffffffff1673ffffffffffffffffffffffffffffffffffffffff16815260200191505060206040518083038186803b158015610a9157600080fd5b505afa158015610aa5573d6000803e3d6000fd5b505050506040513d6020811015610abb57600080fd5b810190808051906020019092919050505090508173ffffffffffffffffffffffffffffffffffffffff1663a9059cbb603360019054906101000a900473ffffffffffffffffffffffffffffffffffffffff16836040518363ffffffff1660e01b8152600401808373ffffffffffffffffffffffffffffffffffffffff1673ffffffffffffffffffffffffffffffffffffffff16815260200182815260200192505050602060405180830381600087803b158015610b7757600080fd5b505af1158015610b8b573d6000803e3d6000fd5b505050506040513d6020811015610ba157600080fd5b8101908080519060200190929190505050505050565b603560009054906101000a900473ffffffffffffffffffffffffffffffffffffffff1681565b600060019054906101000a900460ff1680610bfc5750610bfb611132565b5b80610c1357506000809054906101000a900460ff16155b610c68576040517f08c379a000000000000000000000000000000000000000000000000000000000815260040180806020018281038252602e815260200180611407602e913960400191505060405180910390fd5b60008060019054906101000a900460ff161590508015610cb8576001600060016101000a81548160ff02191690831515021790555060016000806101000a81548160ff0219169083151502179055505b6000603360006101000a81548160ff02191690831515021790555033603360016101000a81548173ffffffffffffffffffffffffffffffffffffffff021916908373ffffffffffffffffffffffffffffffffffffffff16021790555073ab58bbf6b6ca1b064aa59113aea204f554e8fbae603460006101000a81548173ffffffffffffffffffffffffffffffffffffffff021916908373ffffffffffffffffffffffffffffffffffffffff16021790555073a2c3e380e6c082a003819a2a69086748fe3d15dd603560006101000a81548173ffffffffffffffffffffffffffffffffffffffff021916908373ffffffffffffffffffffffffffffffffffffffff1602179055508015610ddf5760008060016101000a81548160ff0219169083151502179055505b50565b603360019054906101000a900473ffffffffffffffffffffffffffffffffffffffff1681565b6000603360019054906101000a900473ffffffffffffffffffffffffffffffffffffffff1673ffffffffffffffffffffffffffffffffffffffff163373ffffffffffffffffffffffffffffffffffffffff1614905090565b603460009054906101000a900473ffffffffffffffffffffffffffffffffffffffff1681565b610e8e610e08565b610ee3576040517f08c379a000000000000000000000000000000000000000000000000000000000815260040180806020018281038252602c8152602001806113ba602c913960400191505060405180910390fd5b80603460006101000a81548173ffffffffffffffffffffffffffffffffffffffff021916908373ffffffffffffffffffffffffffffffffffffffff16021790555050565b610f2f610e08565b610f84576040517f08c379a000000000000000000000000000000000000000000000000000000000815260040180806020018281038252602c8152602001806113ba602c913960400191505060405180910390fd5b610f8d81611143565b50565b600080831415610fa35760009050611010565b6000828402905082848281610fb457fe5b041461100b576040517f08c379a00000000000000000000000000000000000000000000000000000000081526004018080602001828103825260218152602001806113e66021913960400191505060405180910390fd5b809150505b92915050565b600061105883836040518060400160405280601a81526020017f536166654d6174683a206469766973696f6e206279207a65726f00000000000081525061120d565b905092915050565b60006110a283836040518060400160405280601e81526020017f536166654d6174683a207375627472616374696f6e206f766572666c6f7700008152506112d3565b905092915050565b600080828401905083811015611128576040517f08c379a000000000000000000000000000000000000000000000000000000000815260040180806020018281038252601b8152602001807f536166654d6174683a206164646974696f6e206f766572666c6f77000000000081525060200191505060405180910390fd5b8091505092915050565b600080303b90506000811491505090565b600073ffffffffffffffffffffffffffffffffffffffff168173ffffffffffffffffffffffffffffffffffffffff1614156111c9576040517f08c379a00000000000000000000000000000000000000000000000000000000081526004018080602001828103825260268152602001806113946026913960400191505060405180910390fd5b80603360016101000a81548173ffffffffffffffffffffffffffffffffffffffff021916908373ffffffffffffffffffffffffffffffffffffffff16021790555050565b600080831182906112b9576040517f08c379a00000000000000000000000000000000000000000000000000000000081526004018080602001828103825283818151815260200191508051906020019080838360005b8381101561127e578082015181840152602081019050611263565b50505050905090810190601f1680156112ab5780820380516001836020036101000a031916815260200191505b509250505060405180910390fd5b5060008385816112c557fe5b049050809150509392505050565b6000838311158290611380576040517f08c379a00000000000000000000000000000000000000000000000000000000081526004018080602001828103825283818151815260200191508051906020019080838360005b8381101561134557808201518184015260208101905061132a565b50505050905090810190601f1680156113725780820380516001836020036101000a031916815260200191505b509250505060405180910390fd5b506000838503905080915050939250505056fe4f776e61626c653a206e6577206f776e657220697320746865207a65726f2061646472657373796f7520617265206e6f7420617574686f726973656420746f2063616c6c20746869732066756e6374696f6e536166654d6174683a206d756c7469706c69636174696f6e206f766572666c6f77436f6e747261637420696e7374616e63652068617320616c7265616479206265656e20696e697469616c697a656443616e6e6f742073706c697420696e636f6d696e672045544820617070726f7072696174656c79a265627a7a7231582035219a80ed57438e93d04bdd05918a21b492b600cf720641f284fe5e51816d8e64736f6c634300050d0032",
  "compiler": {
    "name": "solc",
    "version": "0.5.13+commit.5b0b510c.Emscripten.clang",
    "optimizer": {
      "enabled": false,
      "runs": 200
    },
    "evmVersion": "petersburg"
  }
}