{
  "fileName": "EthMaximalist_GiftZap.sol",
  "contractName": "ETHMaximalist",
  "source": "\n// Copyright (C) 2019, 2020 dipeshsukhani, nodarjonashi, toshsharma, suhailg\n\n// This program is free software: you can redistribute it and/or modify\n// it under the terms of the GNU Affero General Public License as published by\n// the Free Software Foundation, either version 2 of the License, or\n// (at your option) any later version.\n//\n// This program is distributed in the hope that it will be useful,\n// but WITHOUT ANY WARRANTY; without even the implied warranty of\n// MERCHANTABILITY or FITNESS FOR A PARTICULAR PURPOSE.  See the\n// GNU Affero General Public License for more details.\n//\n// Visit <https://www.gnu.org/licenses/>for a copy of the GNU Affero General Public License\n\n/**\n * WARNING: This is an upgradable contract. Be careful not to disrupt\n * the existing storage layout when making upgrades to the contract. In particular,\n * existing fields should not be removed and should not have their types changed.\n * The order of field declarations must not be changed, and new fields must be added\n * below all existing declarations.\n *\n * The base contracts and the order in which they are declared must not be changed.\n * New fields must not be added to base contracts (unless the base contract has\n * reserved placeholder fields for this purpose).\n *\n * See https://docs.zeppelinos.org/docs/writing_contracts.html for more info.\n*/\n\npragma solidity ^0.5.0;\n\nimport \"../../../node_modules/@openzeppelin/upgrades/contracts/Initializable.sol\";\nimport \"../../../node_modules/@openzeppelin/contracts-ethereum-package/contracts/math/SafeMath.sol\";\nimport \"../../../node_modules/@openzeppelin/contracts-ethereum-package/contracts/token/ERC20/IERC20.sol\";\n\n\ninterface Invest2Fulcrum1xShortBTC {\n    function LetsInvest2Fulcrum1xShortBTC(address _towhomtoissue) external payable;\n}\n\ninterface Invest2Fulcrum {\n    function LetsInvest2Fulcrum(address _towhomtoissue) external payable;\n}\n\n\ncontract ETHMaximalist is Initializable {\n    using SafeMath for uint;\n    \n    // state variables\n    \n    // - THESE MUST ALWAYS STAY IN THE SAME LAYOUT\n    bool private stopped;\n    address payable public owner;\n    Invest2Fulcrum public Invest2FulcrumAddress;\n    Invest2Fulcrum1xShortBTC public Invest2Fulcrum1xShortBTCContract;\n\n    \n    // circuit breaker modifiers\n    modifier stopInEmergency {if (!stopped) _;}\n    modifier onlyInEmergency {if (stopped) _;}\n    modifier onlyOwner() {\n        require(isOwner(), \"you are not authorised to call this function\");\n        _;\n    }\n\n    function initialize() initializer public {\n        stopped = false;\n        owner = msg.sender;\n        Invest2FulcrumAddress = Invest2Fulcrum(0xAB58BBF6B6ca1B064aa59113AeA204F554E8fBAe);\n        Invest2Fulcrum1xShortBTCContract = Invest2Fulcrum1xShortBTC(0xa2C3e380E6c082A003819a2a69086748fe3D15Dd);\n    }\n\n    // this function should be called should we ever want to change the Invest2FulcrumAddress\n    function set_Invest2FulcrumAddress(Invest2Fulcrum _Invest2FulcrumAddress) onlyOwner public {\n        Invest2FulcrumAddress = _Invest2FulcrumAddress;\n    }\n    \n    // this function should be called should we ever want to change the Invest2Fulcrum1xShortBTCContract address\n    function set_Invest2Fulcrum1xShortBTCContract (Invest2Fulcrum1xShortBTC _Invest2Fulcrum1xShortBTCContract) onlyOwner public {\n        Invest2Fulcrum1xShortBTCContract = _Invest2Fulcrum1xShortBTCContract;\n    }\n    \n\n    \n    // this function lets you deposit ETH into this wallet \n    function LetsInvest(address _towhomtoIssueAddress, uint _ShortBTCAllocation, uint _slippage) stopInEmergency payable public returns (bool) {\n        require(_ShortBTCAllocation >= 0 || _ShortBTCAllocation <= 100, \"wrong allocation\");\n        uint investAmt2ShortBTC = SafeMath.div(SafeMath.mul(msg.value,_ShortBTCAllocation), 100);\n        uint investAmt2c2xLongETH = SafeMath.sub(msg.value, investAmt2ShortBTC);\n        require (SafeMath.sub(msg.value,SafeMath.add(investAmt2ShortBTC, investAmt2c2xLongETH))==0, \"Cannot split incoming ETH appropriately\");\n        Invest2Fulcrum1xShortBTCContract.LetsInvest2Fulcrum1xShortBTC.value(investAmt2ShortBTC)(_towhomtoIssueAddress);\n        Invest2FulcrumAddress.LetsInvest2Fulcrum.value(investAmt2c2xLongETH)(_towhomtoIssueAddress);\n        \n    }\n    function inCaseTokengetsStuck(IERC20 _TokenAddress) onlyOwner public {\n        uint qty = _TokenAddress.balanceOf(address(this));\n        _TokenAddress.transfer(owner, qty);\n    }\n\n    // - fallback function let you / anyone send ETH to this wallet without the need to call any function\n    function() external payable {\n        if (msg.sender != owner) {\n            LetsInvest(msg.sender, 50, 5);}\n    }\n    \n    // - to Pause the contract\n    function toggleContractActive() onlyOwner public {\n        stopped = !stopped;\n    }\n    // - to withdraw any ETH balance sitting in the contract\n    function withdraw() onlyOwner public{\n        owner.transfer(address(this).balance);\n    }\n    // - to kill the contract\n    function destruct() public onlyOwner {\n        selfdestruct(owner);\n    }\n    /**\n     * @return true if `msg.sender` is the owner of the contract.\n     */\n    function isOwner() public view returns (bool) {\n        return msg.sender == owner;\n    }\n\n    /**\n     * @dev Transfers ownership of the contract to a new account (`newOwner`).\n     * Can only be called by the current owner.\n     */\n    function transferOwnership(address payable newOwner) public onlyOwner {\n        _transferOwnership(newOwner);\n    }\n\n    /**\n     * @dev Transfers ownership of the contract to a new account (`newOwner`).\n     */\n    function _transferOwnership(address payable newOwner) internal {\n        require(newOwner != address(0), \"Ownable: new owner is the zero address\");\n        owner = newOwner;\n    } \n\n}\n",
  "sourcePath": "contracts/UpdatedZaps/Done/EthMaximalist_GiftZap.sol",
  "abi": [
    {
      "payable": true,
      "stateMutability": "payable",
      "type": "fallback"
    },
    {
      "constant": true,
      "inputs": [],
      "name": "Invest2Fulcrum1xShortBTCContract",
      "outputs": [
        {
          "internalType": "contract Invest2Fulcrum1xShortBTC",
          "name": "",
          "type": "address"
        }
      ],
      "payable": false,
      "stateMutability": "view",
      "type": "function"
    },
    {
      "constant": true,
      "inputs": [],
      "name": "Invest2FulcrumAddress",
      "outputs": [
        {
          "internalType": "contract Invest2Fulcrum",
          "name": "",
          "type": "address"
        }
      ],
      "payable": false,
      "stateMutability": "view",
      "type": "function"
    },
    {
      "constant": false,
      "inputs": [
        {
          "internalType": "address",
          "name": "_towhomtoIssueAddress",
          "type": "address"
        },
        {
          "internalType": "uint256",
          "name": "_ShortBTCAllocation",
          "type": "uint256"
        },
        {
          "internalType": "uint256",
          "name": "_slippage",
          "type": "uint256"
        }
      ],
      "name": "LetsInvest",
      "outputs": [
        {
          "internalType": "bool",
          "name": "",
          "type": "bool"
        }
      ],
      "payable": true,
      "stateMutability": "payable",
      "type": "function"
    },
    {
      "constant": false,
      "inputs": [],
      "name": "destruct",
      "outputs": [],
      "payable": false,
      "stateMutability": "nonpayable",
      "type": "function"
    },
    {
      "constant": false,
      "inputs": [
        {
          "internalType": "contract IERC20",
          "name": "_TokenAddress",
          "type": "address"
        }
      ],
      "name": "inCaseTokengetsStuck",
      "outputs": [],
      "payable": false,
      "stateMutability": "nonpayable",
      "type": "function"
    },
    {
      "constant": false,
      "inputs": [],
      "name": "initialize",
      "outputs": [],
      "payable": false,
      "stateMutability": "nonpayable",
      "type": "function"
    },
    {
      "constant": true,
      "inputs": [],
      "name": "isOwner",
      "outputs": [
        {
          "internalType": "bool",
          "name": "",
          "type": "bool"
        }
      ],
      "payable": false,
      "stateMutability": "view",
      "type": "function"
    },
    {
      "constant": true,
      "inputs": [],
      "name": "owner",
      "outputs": [
        {
          "internalType": "address payable",
          "name": "",
          "type": "address"
        }
      ],
      "payable": false,
      "stateMutability": "view",
      "type": "function"
    },
    {
      "constant": false,
      "inputs": [
        {
          "internalType": "contract Invest2Fulcrum1xShortBTC",
          "name": "_Invest2Fulcrum1xShortBTCContract",
          "type": "address"
        }
      ],
      "name": "set_Invest2Fulcrum1xShortBTCContract",
      "outputs": [],
      "payable": false,
      "stateMutability": "nonpayable",
      "type": "function"
    },
    {
      "constant": false,
      "inputs": [
        {
          "internalType": "contract Invest2Fulcrum",
          "name": "_Invest2FulcrumAddress",
          "type": "address"
        }
      ],
      "name": "set_Invest2FulcrumAddress",
      "outputs": [],
      "payable": false,
      "stateMutability": "nonpayable",
      "type": "function"
    },
    {
      "constant": false,
      "inputs": [],
      "name": "toggleContractActive",
      "outputs": [],
      "payable": false,
      "stateMutability": "nonpayable",
      "type": "function"
    },
    {
      "constant": false,
      "inputs": [
        {
          "internalType": "address payable",
          "name": "newOwner",
          "type": "address"
        }
      ],
      "name": "transferOwnership",
      "outputs": [],
      "payable": false,
      "stateMutability": "nonpayable",
      "type": "function"
    },
    {
      "constant": false,
      "inputs": [],
      "name": "withdraw",
      "outputs": [],
      "payable": false,
      "stateMutability": "nonpayable",
      "type": "function"
    }
  ],
  "bytecode": "0x608060405234801561001057600080fd5b50610cd0806100206000396000f3fe6080604052600436106100d25760003560e01c80637b27a7181161007f5780638f32d59b116100595780638f32d59b146102405780639a22dafe14610255578063d67e94ed1461026a578063f2fde38b1461029d576100d2565b80637b27a718146101e55780638129fc1c146102165780638da5cb5b1461022b576100d2565b8063425a28fc116100b0578063425a28fc1461013957806352abee4a1461016c578063551196d5146101b2576100d2565b80631385d24c146100fa5780632b68b9c61461010f5780633ccfd60b14610124575b60335461010090046001600160a01b031633146100f8576100f633603260056102d0565b505b005b34801561010657600080fd5b506100f861042f565b34801561011b57600080fd5b506100f8610486565b34801561013057600080fd5b506100f86104dc565b34801561014557600080fd5b506100f86004803603602081101561015c57600080fd5b50356001600160a01b0316610563565b61019e6004803603606081101561018257600080fd5b506001600160a01b0381351690602081013590604001356102d0565b604080519115158252519081900360200190f35b3480156101be57600080fd5b506100f8600480360360208110156101d557600080fd5b50356001600160a01b03166105c8565b3480156101f157600080fd5b506101fa61070f565b604080516001600160a01b039092168252519081900360200190f35b34801561022257600080fd5b506100f861071e565b34801561023757600080fd5b506101fa61082d565b34801561024c57600080fd5b5061019e610841565b34801561026157600080fd5b506101fa610857565b34801561027657600080fd5b506100f86004803603602081101561028d57600080fd5b50356001600160a01b0316610866565b3480156102a957600080fd5b506100f8600480360360208110156102c057600080fd5b50356001600160a01b03166108cb565b60335460009060ff166104285760006102f36102ec3486610917565b6064610979565b9050600061030134836109bb565b90506103163461031184846109fd565b6109bb565b156103525760405162461bcd60e51b8152600401808060200182810382526027815260200180610c756027913960400191505060405180910390fd5b6035546040805163d243d85b60e01b81526001600160a01b0389811660048301529151919092169163d243d85b91859160248082019260009290919082900301818588803b1580156103a357600080fd5b505af11580156103b7573d6000803e3d6000fd5b50506034546040805163c310331360e01b81526001600160a01b038c81166004830152915191909216945063c31033139350859250602480830192600092919082900301818588803b15801561040c57600080fd5b505af1158015610420573d6000803e3d6000fd5b505050505050505b9392505050565b610437610841565b6104725760405162461bcd60e51b815260040180806020018281038252602c815260200180610bfa602c913960400191505060405180910390fd5b6033805460ff19811660ff90911615179055565b61048e610841565b6104c95760405162461bcd60e51b815260040180806020018281038252602c815260200180610bfa602c913960400191505060405180910390fd5b60335461010090046001600160a01b0316ff5b6104e4610841565b61051f5760405162461bcd60e51b815260040180806020018281038252602c815260200180610bfa602c913960400191505060405180910390fd5b6033546040516001600160a01b036101009092049190911690303180156108fc02916000818181858888f19350505050158015610560573d6000803e3d6000fd5b50565b61056b610841565b6105a65760405162461bcd60e51b815260040180806020018281038252602c815260200180610bfa602c913960400191505060405180910390fd5b603580546001600160a01b0319166001600160a01b0392909216919091179055565b6105d0610841565b61060b5760405162461bcd60e51b815260040180806020018281038252602c815260200180610bfa602c913960400191505060405180910390fd5b604080516370a0823160e01b815230600482015290516000916001600160a01b038416916370a0823191602480820192602092909190829003018186803b15801561065557600080fd5b505afa158015610669573d6000803e3d6000fd5b505050506040513d602081101561067f57600080fd5b50516033546040805163a9059cbb60e01b81526101009092046001600160a01b03908116600484015260248301849052905192935084169163a9059cbb916044808201926020929091908290030181600087803b1580156106df57600080fd5b505af11580156106f3573d6000803e3d6000fd5b505050506040513d602081101561070957600080fd5b50505050565b6035546001600160a01b031681565b600054610100900460ff16806107375750610737610a57565b80610745575060005460ff16155b6107805760405162461bcd60e51b815260040180806020018281038252602e815260200180610c47602e913960400191505060405180910390fd5b600054610100900460ff161580156107ab576000805460ff1961ff0019909116610100171660011790555b60338054336101000274ffffffffffffffffffffffffffffffffffffffffff19909116179055603480546001600160a01b031990811673ab58bbf6b6ca1b064aa59113aea204f554e8fbae179091556035805490911673a2c3e380e6c082a003819a2a69086748fe3d15dd1790558015610560576000805461ff001916905550565b60335461010090046001600160a01b031681565b60335461010090046001600160a01b0316331490565b6034546001600160a01b031681565b61086e610841565b6108a95760405162461bcd60e51b815260040180806020018281038252602c815260200180610bfa602c913960400191505060405180910390fd5b603480546001600160a01b0319166001600160a01b0392909216919091179055565b6108d3610841565b61090e5760405162461bcd60e51b815260040180806020018281038252602c815260200180610bfa602c913960400191505060405180910390fd5b61056081610a5d565b60008261092657506000610973565b8282028284828161093357fe5b04146109705760405162461bcd60e51b8152600401808060200182810382526021815260200180610c266021913960400191505060405180910390fd5b90505b92915050565b600061097083836040518060400160405280601a81526020017f536166654d6174683a206469766973696f6e206279207a65726f000000000000815250610ad7565b600061097083836040518060400160405280601e81526020017f536166654d6174683a207375627472616374696f6e206f766572666c6f770000815250610b79565b600082820183811015610970576040805162461bcd60e51b815260206004820152601b60248201527f536166654d6174683a206164646974696f6e206f766572666c6f770000000000604482015290519081900360640190fd5b303b1590565b6001600160a01b038116610aa25760405162461bcd60e51b8152600401808060200182810382526026815260200180610bd46026913960400191505060405180910390fd5b603380546001600160a01b039092166101000274ffffffffffffffffffffffffffffffffffffffff0019909216919091179055565b60008183610b635760405162461bcd60e51b81526004018080602001828103825283818151815260200191508051906020019080838360005b83811015610b28578181015183820152602001610b10565b50505050905090810190601f168015610b555780820380516001836020036101000a031916815260200191505b509250505060405180910390fd5b506000838581610b6f57fe5b0495945050505050565b60008184841115610bcb5760405162461bcd60e51b8152602060048201818152835160248401528351909283926044909101919085019080838360008315610b28578181015183820152602001610b10565b50505090039056fe4f776e61626c653a206e6577206f776e657220697320746865207a65726f2061646472657373796f7520617265206e6f7420617574686f726973656420746f2063616c6c20746869732066756e6374696f6e536166654d6174683a206d756c7469706c69636174696f6e206f766572666c6f77436f6e747261637420696e7374616e63652068617320616c7265616479206265656e20696e697469616c697a656443616e6e6f742073706c697420696e636f6d696e672045544820617070726f7072696174656c79a265627a7a72315820fbfc19d7f02fad6c49bc187ffb3bbc87b693f6851d19355c78c483c8fdfb422964736f6c634300050d0032",
  "compiler": {
    "name": "solc",
    "version": "0.5.13+commit.5b0b510c.Emscripten.clang",
    "optimizer": {
      "enabled": true,
      "runs": 500
    },
    "evmVersion": "petersburg"
  }
}