{
  "fileName": "Invest2FulcrumV3_upgradable.sol",
  "contractName": "Invest2FulcrumV3_upgrabable_ERC",
  "source": "// Copyright (C) 2019, 2020 dipeshsukhani, nodarjonashi, toshsharma, suhailg\n\n// This program is free software: you can redistribute it and/or modify\n// it under the terms of the GNU Affero General Public License as published by\n// the Free Software Foundation, either version 2 of the License, or\n// (at your option) any later version.\n//\n// This program is distributed in the hope that it will be useful,\n// but WITHOUT ANY WARRANTY; without even the implied warranty of\n// MERCHANTABILITY or FITNESS FOR A PARTICULAR PURPOSE.  See the\n// GNU Affero General Public License for more details.\n//\n// Visit <https://www.gnu.org/licenses/>for a copy of the GNU Affero General Public License\n\n/**\n * WARNING: This is an upgradable contract. Be careful not to disrupt\n * the existing storage layout when making upgrades to the contract. In particular,\n * existing fields should not be removed and should not have their types changed.\n * The order of field declarations must not be changed, and new fields must be added\n * below all existing declarations.\n *\n * The base contracts and the order in which they are declared must not be changed.\n * New fields must not be added to base contracts (unless the base contract has\n * reserved placeholder fields for this purpose).\n *\n * See https://docs.zeppelinos.org/docs/writing_contracts.html for more info.\n*/\n\npragma solidity ^0.5.0;\n\nimport \"../../../node_modules/@openzeppelin/upgrades/contracts/Initializable.sol\";\nimport \"../../../node_modules/@openzeppelin/contracts-ethereum-package/contracts/math/SafeMath.sol\";\nimport \"../../../node_modules/@openzeppelin/contracts-ethereum-package/contracts/token/ERC20/IERC20.sol\";\nimport \"../../../node_modules/@openzeppelin/contracts-ethereum-package/contracts/utils/ReentrancyGuard.sol\";\n\n///@author DeFiZap\n///@notice this contract implements one click execution of an leveraged trade on Fulcrum\n\n\ninterface IKyberInterface {\n    function swapTokentoToken(IERC20 _srcTokenAddressIERC20, IERC20 _dstTokenAddress, uint _slippageValue, address _toWhomToIssue) external payable returns (uint);\n}\n\ncontract IfulcrumInterface {\n   function mintWithToken(address receiver, address depositTokenAddress, uint256 depositAmount, uint256 maxPriceAllowed) external returns (uint256);\n}\n\n\ncontract Invest2FulcrumV3_upgrabable_ERC is Initializable, ReentrancyGuard {\n    using SafeMath for uint;\n\n    // state variables\n    \n    // - THESE MUST ALWAYS STAY IN THE SAME LAYOUT\n    bool private stopped;\n    address payable public owner;\n    uint16 public goodwillInBasisPoints;\n    address public dzGoodwillAddress;\n    IKyberInterface public KyberInterfaceAddress;\n    uint public maxPrice;\n\n    // events\n    event FulcrumTokensMinted(uint);\n    \n    // circuit breaker modifiers\n    modifier stopInEmergency {\n        if (stopped) \n            {revert(\"Temporarily Paused\");} \n        else {\n            _;}\n        }\n    modifier onlyOwner() {\n        require(isOwner(), \"you are not authorised to call this function\");\n        _;\n    }\n    \n    \n    function initialize(IKyberInterface _KyberInterfaceAddress, uint16 _goodwillInBasisPoints, address _dzGoodwillAddress) initializer public {\n        ReentrancyGuard.initialize();\n        stopped = false;\n        owner = msg.sender;\n        goodwillInBasisPoints = _goodwillInBasisPoints;\n        dzGoodwillAddress = _dzGoodwillAddress;\n        KyberInterfaceAddress = _KyberInterfaceAddress;\n        maxPrice = 0;\n    }\n    \n    // to change the goodwill basis points\n    function set_goodwillInBasisPoints(uint16 _new_goodwillInBasisPoints) public onlyOwner {\n        require(_new_goodwillInBasisPoints < 10000 && _new_goodwillInBasisPoints > 0, \"Not correct goodwill rate in basis Points\");\n        goodwillInBasisPoints = _new_goodwillInBasisPoints;\n    }\n\n    // to change the dzGoodwillAddress \n    function set_dzGoodwillAddress(address _new_dzGoodwillAddress) public onlyOwner {\n        dzGoodwillAddress = _new_dzGoodwillAddress;\n    }\n    \n    // to change the KyberInterfaceAddress\n    function set_KyberInterfaceAddress(address _new_KyberInterfaceAddress) public onlyOwner {\n        KyberInterfaceAddress = IKyberInterface(_new_KyberInterfaceAddress);\n    }\n\n    // - this is to control the slippage\n    function set_maxPrice(uint _insertValueinWEI) onlyOwner public {\n        maxPrice = _insertValueinWEI;\n    }\n    \n    //  - the investment fx\n    function LetsInvest(address _FuclrumOnwardAddress, address _destTokenAddress, uint _slippage, address _towhomtoissue) payable public returns (uint) {\n        _destTokenAddress = 0x6B175474E89094C44Da98b954EedeAC495271d0F;\n        uint _destTokens = KyberInterfaceAddress.swapTokentoToken.value(msg.value)(IERC20(0xEeeeeEeeeEeEeeEeEeEeeEEEeeeeEeeeeeeeEEeE),IERC20(_destTokenAddress),_slippage,address(this));\n        uint dzportion = SafeMath.div(SafeMath.mul(_destTokens,goodwillInBasisPoints),10000);\n        IERC20(_destTokenAddress).transfer(dzGoodwillAddress,dzportion);\n        uint remaining_tokens = SafeMath.sub(_destTokens,dzportion);\n        IERC20(_destTokenAddress).approve(_FuclrumOnwardAddress, remaining_tokens);\n        IfulcrumInterface FA = IfulcrumInterface(_FuclrumOnwardAddress);\n        uint FulcrumTokens = FA.mintWithToken(_towhomtoissue, _destTokenAddress, remaining_tokens, maxPrice);\n        emit FulcrumTokensMinted(FulcrumTokens);\n        return FulcrumTokens;\n    }\n    \n    // fx, in case something goes wrong\n    function inCaseTokengetsStuck(IERC20 _TokenAddress) onlyOwner public {\n        uint qty = _TokenAddress.balanceOf(address(this));\n        _TokenAddress.transfer(owner, qty);\n    }\n    \n    \n    // - fallback function\n    function() external payable {\n        revert(\"not allowed to send ETH to this address\");\n    }\n    \n\n    // - to Pause the contract\n    function toggleContractActive() onlyOwner public {\n        stopped = !stopped;\n    }\n    \n    // - to withdraw any ETH balance sitting in the contract\n    function withdraw() onlyOwner public{\n        owner.transfer(address(this).balance);\n    }\n    \n    function destruct() onlyOwner public{\n        selfdestruct(owner);\n    }\n\n    /**\n     * @return true if `msg.sender` is the owner of the contract.\n     */\n    function isOwner() public view returns (bool) {\n        return msg.sender == owner;\n    }\n\n    /**\n     * @dev Transfers ownership of the contract to a new account (`newOwner`).\n     * Can only be called by the current owner.\n     */\n    function transferOwnership(address payable newOwner) public onlyOwner {\n        _transferOwnership(newOwner);\n    }\n\n    /**\n     * @dev Transfers ownership of the contract to a new account (`newOwner`).\n     */\n    function _transferOwnership(address payable newOwner) internal {\n        require(newOwner != address(0), \"Ownable: new owner is the zero address\");\n        owner = newOwner;\n    }\n \n}",
  "sourcePath": "contracts/UpdatedZaps/Done/Invest2FulcrumV3_upgradable.sol",
  "abi": [
    {
      "anonymous": false,
      "inputs": [
        {
          "indexed": false,
          "internalType": "uint256",
          "name": "",
          "type": "uint256"
        }
      ],
      "name": "FulcrumTokensMinted",
      "type": "event"
    },
    {
      "payable": true,
      "stateMutability": "payable",
      "type": "fallback"
    },
    {
      "constant": true,
      "inputs": [],
      "name": "KyberInterfaceAddress",
      "outputs": [
        {
          "internalType": "contract IKyberInterface",
          "name": "",
          "type": "address"
        }
      ],
      "payable": false,
      "stateMutability": "view",
      "type": "function"
    },
    {
      "constant": false,
      "inputs": [
        {
          "internalType": "address",
          "name": "_FuclrumOnwardAddress",
          "type": "address"
        },
        {
          "internalType": "address",
          "name": "_destTokenAddress",
          "type": "address"
        },
        {
          "internalType": "uint256",
          "name": "_slippage",
          "type": "uint256"
        },
        {
          "internalType": "address",
          "name": "_towhomtoissue",
          "type": "address"
        }
      ],
      "name": "LetsInvest",
      "outputs": [
        {
          "internalType": "uint256",
          "name": "",
          "type": "uint256"
        }
      ],
      "payable": true,
      "stateMutability": "payable",
      "type": "function"
    },
    {
      "constant": false,
      "inputs": [],
      "name": "destruct",
      "outputs": [],
      "payable": false,
      "stateMutability": "nonpayable",
      "type": "function"
    },
    {
      "constant": true,
      "inputs": [],
      "name": "dzGoodwillAddress",
      "outputs": [
        {
          "internalType": "address",
          "name": "",
          "type": "address"
        }
      ],
      "payable": false,
      "stateMutability": "view",
      "type": "function"
    },
    {
      "constant": true,
      "inputs": [],
      "name": "goodwillInBasisPoints",
      "outputs": [
        {
          "internalType": "uint16",
          "name": "",
          "type": "uint16"
        }
      ],
      "payable": false,
      "stateMutability": "view",
      "type": "function"
    },
    {
      "constant": false,
      "inputs": [
        {
          "internalType": "contract IERC20",
          "name": "_TokenAddress",
          "type": "address"
        }
      ],
      "name": "inCaseTokengetsStuck",
      "outputs": [],
      "payable": false,
      "stateMutability": "nonpayable",
      "type": "function"
    },
    {
      "constant": false,
      "inputs": [
        {
          "internalType": "contract IKyberInterface",
          "name": "_KyberInterfaceAddress",
          "type": "address"
        },
        {
          "internalType": "uint16",
          "name": "_goodwillInBasisPoints",
          "type": "uint16"
        },
        {
          "internalType": "address",
          "name": "_dzGoodwillAddress",
          "type": "address"
        }
      ],
      "name": "initialize",
      "outputs": [],
      "payable": false,
      "stateMutability": "nonpayable",
      "type": "function"
    },
    {
      "constant": false,
      "inputs": [],
      "name": "initialize",
      "outputs": [],
      "payable": false,
      "stateMutability": "nonpayable",
      "type": "function"
    },
    {
      "constant": true,
      "inputs": [],
      "name": "isOwner",
      "outputs": [
        {
          "internalType": "bool",
          "name": "",
          "type": "bool"
        }
      ],
      "payable": false,
      "stateMutability": "view",
      "type": "function"
    },
    {
      "constant": true,
      "inputs": [],
      "name": "maxPrice",
      "outputs": [
        {
          "internalType": "uint256",
          "name": "",
          "type": "uint256"
        }
      ],
      "payable": false,
      "stateMutability": "view",
      "type": "function"
    },
    {
      "constant": true,
      "inputs": [],
      "name": "owner",
      "outputs": [
        {
          "internalType": "address payable",
          "name": "",
          "type": "address"
        }
      ],
      "payable": false,
      "stateMutability": "view",
      "type": "function"
    },
    {
      "constant": false,
      "inputs": [
        {
          "internalType": "address",
          "name": "_new_KyberInterfaceAddress",
          "type": "address"
        }
      ],
      "name": "set_KyberInterfaceAddress",
      "outputs": [],
      "payable": false,
      "stateMutability": "nonpayable",
      "type": "function"
    },
    {
      "constant": false,
      "inputs": [
        {
          "internalType": "address",
          "name": "_new_dzGoodwillAddress",
          "type": "address"
        }
      ],
      "name": "set_dzGoodwillAddress",
      "outputs": [],
      "payable": false,
      "stateMutability": "nonpayable",
      "type": "function"
    },
    {
      "constant": false,
      "inputs": [
        {
          "internalType": "uint16",
          "name": "_new_goodwillInBasisPoints",
          "type": "uint16"
        }
      ],
      "name": "set_goodwillInBasisPoints",
      "outputs": [],
      "payable": false,
      "stateMutability": "nonpayable",
      "type": "function"
    },
    {
      "constant": false,
      "inputs": [
        {
          "internalType": "uint256",
          "name": "_insertValueinWEI",
          "type": "uint256"
        }
      ],
      "name": "set_maxPrice",
      "outputs": [],
      "payable": false,
      "stateMutability": "nonpayable",
      "type": "function"
    },
    {
      "constant": false,
      "inputs": [],
      "name": "toggleContractActive",
      "outputs": [],
      "payable": false,
      "stateMutability": "nonpayable",
      "type": "function"
    },
    {
      "constant": false,
      "inputs": [
        {
          "internalType": "address payable",
          "name": "newOwner",
          "type": "address"
        }
      ],
      "name": "transferOwnership",
      "outputs": [],
      "payable": false,
      "stateMutability": "nonpayable",
      "type": "function"
    },
    {
      "constant": false,
      "inputs": [],
      "name": "withdraw",
      "outputs": [],
      "payable": false,
      "stateMutability": "nonpayable",
      "type": "function"
    }
  ],
  "bytecode": "0x608060405234801561001057600080fd5b50611133806100206000396000f3fe6080604052600436106101095760003560e01c80638129fc1c11610095578063affbae1e11610064578063affbae1e14610361578063df685d331461038d578063e38d6b5c146103a2578063f2fde38b146103b7578063f391c1ad146103ea57610109565b80638129fc1c146102db5780638da5cb5b146102f05780638eba8c0c146103055780638f32d59b1461033857610109565b80633ccfd60b116100dc5780633ccfd60b146101cd578063551196d5146101e25780636305111d14610215578063708c0db91461026357806370d73755146102aa57610109565b80631385d24c146101405780632b68b9c6146101575780632c634be11461016c578063375b03621461019f575b60405162461bcd60e51b81526004018080602001828103825260278152602001806110d86027913960400191505060405180910390fd5b34801561014c57600080fd5b50610155610414565b005b34801561016357600080fd5b5061015561046b565b34801561017857600080fd5b506101556004803603602081101561018f57600080fd5b50356001600160a01b03166104c1565b3480156101ab57600080fd5b50610155600480360360208110156101c257600080fd5b503561ffff16610526565b3480156101d957600080fd5b506101556105df565b3480156101ee57600080fd5b506101556004803603602081101561020557600080fd5b50356001600160a01b0316610666565b6102516004803603608081101561022b57600080fd5b506001600160a01b038135811691602081013582169160408201359160600135166107ad565b60408051918252519081900360200190f35b34801561026f57600080fd5b506101556004803603606081101561028657600080fd5b506001600160a01b03813581169161ffff6020820135169160409091013516610a92565b3480156102b657600080fd5b506102bf610bad565b604080516001600160a01b039092168252519081900360200190f35b3480156102e757600080fd5b50610155610bbc565b3480156102fc57600080fd5b506102bf610c62565b34801561031157600080fd5b506101556004803603602081101561032857600080fd5b50356001600160a01b0316610c76565b34801561034457600080fd5b5061034d610cdb565b604080519115158252519081900360200190f35b34801561036d57600080fd5b50610376610cf1565b6040805161ffff9092168252519081900360200190f35b34801561039957600080fd5b506102bf610d02565b3480156103ae57600080fd5b50610251610d11565b3480156103c357600080fd5b50610155600480360360208110156103da57600080fd5b50356001600160a01b0316610d17565b3480156103f657600080fd5b506101556004803603602081101561040d57600080fd5b5035610d63565b61041c610cdb565b6104575760405162461bcd60e51b815260040180806020018281038252602c81526020018061105d602c913960400191505060405180910390fd5b6066805460ff19811660ff90911615179055565b610473610cdb565b6104ae5760405162461bcd60e51b815260040180806020018281038252602c81526020018061105d602c913960400191505060405180910390fd5b60665461010090046001600160a01b0316ff5b6104c9610cdb565b6105045760405162461bcd60e51b815260040180806020018281038252602c81526020018061105d602c913960400191505060405180910390fd5b606880546001600160a01b0319166001600160a01b0392909216919091179055565b61052e610cdb565b6105695760405162461bcd60e51b815260040180806020018281038252602c81526020018061105d602c913960400191505060405180910390fd5b6127108161ffff16108015610582575060008161ffff16115b6105bd5760405162461bcd60e51b81526004018080602001828103825260298152602001806110346029913960400191505060405180910390fd5b6066805461ffff909216600160a81b0261ffff60a81b19909216919091179055565b6105e7610cdb565b6106225760405162461bcd60e51b815260040180806020018281038252602c81526020018061105d602c913960400191505060405180910390fd5b6066546040516001600160a01b036101009092049190911690303180156108fc02916000818181858888f19350505050158015610663573d6000803e3d6000fd5b50565b61066e610cdb565b6106a95760405162461bcd60e51b815260040180806020018281038252602c81526020018061105d602c913960400191505060405180910390fd5b604080516370a0823160e01b815230600482015290516000916001600160a01b038416916370a0823191602480820192602092909190829003018186803b1580156106f357600080fd5b505afa158015610707573d6000803e3d6000fd5b505050506040513d602081101561071d57600080fd5b50516066546040805163a9059cbb60e01b81526101009092046001600160a01b03908116600484015260248301849052905192935084169163a9059cbb916044808201926020929091908290030181600087803b15801561077d57600080fd5b505af1158015610791573d6000803e3d6000fd5b505050506040513d60208110156107a757600080fd5b50505050565b6068546040805163885a3a1560e01b815273eeeeeeeeeeeeeeeeeeeeeeeeeeeeeeeeeeeeeeee6004820152736b175474e89094c44da98b954eedeac495271d0f6024820181905260448201869052306064830152915191955060009283926001600160a01b039091169163885a3a1591349160848082019260209290919082900301818588803b15801561084057600080fd5b505af1158015610854573d6000803e3d6000fd5b50505050506040513d602081101561086b57600080fd5b505160665490915060009061089890610890908490600160a81b900461ffff16610dab565b612710610e0d565b6067546040805163a9059cbb60e01b81526001600160a01b0392831660048201526024810184905290519293509088169163a9059cbb916044808201926020929091908290030181600087803b1580156108f157600080fd5b505af1158015610905573d6000803e3d6000fd5b505050506040513d602081101561091b57600080fd5b506000905061092a8383610e4f565b9050866001600160a01b031663095ea7b389836040518363ffffffff1660e01b815260040180836001600160a01b03166001600160a01b0316815260200182815260200192505050602060405180830381600087803b15801561098c57600080fd5b505af11580156109a0573d6000803e3d6000fd5b505050506040513d60208110156109b657600080fd5b505060695460408051633903949760e01b81526001600160a01b0388811660048301528a8116602483015260448201859052606482019390935290518a926000929084169163390394979160848082019260209290919082900301818787803b158015610a2257600080fd5b505af1158015610a36573d6000803e3d6000fd5b505050506040513d6020811015610a4c57600080fd5b50516040805182815290519192507f491135cf6a4c83540c47a53d038eec446d4925822786e6895c5f96acd3dbb3db919081900360200190a19998505050505050505050565b600054610100900460ff1680610aab5750610aab610e91565b80610ab9575060005460ff16155b610af45760405162461bcd60e51b815260040180806020018281038252602e8152602001806110aa602e913960400191505060405180910390fd5b600054610100900460ff16158015610b1f576000805460ff1961ff0019909116610100171660011790555b610b27610bbc565b6066805474ffffffffffffffffffffffffffffffffffffffffff191661010033021761ffff60a81b1916600160a81b61ffff861602179055606780546001600160a01b03199081166001600160a01b038581169190911790925560688054909116918616919091179055600060695580156107a7576000805461ff001916905550505050565b6068546001600160a01b031681565b600054610100900460ff1680610bd55750610bd5610e91565b80610be3575060005460ff16155b610c1e5760405162461bcd60e51b815260040180806020018281038252602e8152602001806110aa602e913960400191505060405180910390fd5b600054610100900460ff16158015610c49576000805460ff1961ff0019909116610100171660011790555b60016033558015610663576000805461ff001916905550565b60665461010090046001600160a01b031681565b610c7e610cdb565b610cb95760405162461bcd60e51b815260040180806020018281038252602c81526020018061105d602c913960400191505060405180910390fd5b606780546001600160a01b0319166001600160a01b0392909216919091179055565b60665461010090046001600160a01b0316331490565b606654600160a81b900461ffff1681565b6067546001600160a01b031681565b60695481565b610d1f610cdb565b610d5a5760405162461bcd60e51b815260040180806020018281038252602c81526020018061105d602c913960400191505060405180910390fd5b61066381610e97565b610d6b610cdb565b610da65760405162461bcd60e51b815260040180806020018281038252602c81526020018061105d602c913960400191505060405180910390fd5b606955565b600082610dba57506000610e07565b82820282848281610dc757fe5b0414610e045760405162461bcd60e51b81526004018080602001828103825260218152602001806110896021913960400191505060405180910390fd5b90505b92915050565b6000610e0483836040518060400160405280601a81526020017f536166654d6174683a206469766973696f6e206279207a65726f000000000000815250610f11565b6000610e0483836040518060400160405280601e81526020017f536166654d6174683a207375627472616374696f6e206f766572666c6f770000815250610fb3565b303b1590565b6001600160a01b038116610edc5760405162461bcd60e51b815260040180806020018281038252602681526020018061100e6026913960400191505060405180910390fd5b606680546001600160a01b039092166101000274ffffffffffffffffffffffffffffffffffffffff0019909216919091179055565b60008183610f9d5760405162461bcd60e51b81526004018080602001828103825283818151815260200191508051906020019080838360005b83811015610f62578181015183820152602001610f4a565b50505050905090810190601f168015610f8f5780820380516001836020036101000a031916815260200191505b509250505060405180910390fd5b506000838581610fa957fe5b0495945050505050565b600081848411156110055760405162461bcd60e51b8152602060048201818152835160248401528351909283926044909101919085019080838360008315610f62578181015183820152602001610f4a565b50505090039056fe4f776e61626c653a206e6577206f776e657220697320746865207a65726f20616464726573734e6f7420636f727265637420676f6f6477696c6c207261746520696e20626173697320506f696e7473796f7520617265206e6f7420617574686f726973656420746f2063616c6c20746869732066756e6374696f6e536166654d6174683a206d756c7469706c69636174696f6e206f766572666c6f77436f6e747261637420696e7374616e63652068617320616c7265616479206265656e20696e697469616c697a65646e6f7420616c6c6f77656420746f2073656e642045544820746f20746869732061646472657373a265627a7a7231582051106085ac3056baf94a011f1bb4b298463add6dc52ea32b34a3d7c2add03d5e64736f6c634300050d0032",
  "compiler": {
    "name": "solc",
    "version": "0.5.13+commit.5b0b510c.Emscripten.clang",
    "optimizer": {
      "enabled": true,
      "runs": 500
    },
    "evmVersion": "petersburg"
  }
}