{
  "fileName": "Invest2FulcrumV2_upgradable.sol",
  "contractName": "Invest2FulcrumV2_upgrabable",
  "source": "// Copyright (C) 2019, 2020 dipeshsukhani, nodarjonashi, toshsharma, suhailg\n\n// This program is free software: you can redistribute it and/or modify\n// it under the terms of the GNU Affero General Public License as published by\n// the Free Software Foundation, either version 2 of the License, or\n// (at your option) any later version.\n//\n// This program is distributed in the hope that it will be useful,\n// but WITHOUT ANY WARRANTY; without even the implied warranty of\n// MERCHANTABILITY or FITNESS FOR A PARTICULAR PURPOSE.  See the\n// GNU Affero General Public License for more details.\n//\n// Visit <https://www.gnu.org/licenses/>for a copy of the GNU Affero General Public License\n\n/**\n * WARNING: This is an upgradable contract. Be careful not to disrupt\n * the existing storage layout when making upgrades to the contract. In particular,\n * existing fields should not be removed and should not have their types changed.\n * The order of field declarations must not be changed, and new fields must be added\n * below all existing declarations.\n *\n * The base contracts and the order in which they are declared must not be changed.\n * New fields must not be added to base contracts (unless the base contract has\n * reserved placeholder fields for this purpose).\n *\n * See https://docs.zeppelinos.org/docs/writing_contracts.html for more info.\n*/\n\npragma solidity ^0.5.0;\n\nimport \"../../../node_modules/@openzeppelin/upgrades/contracts/Initializable.sol\";\nimport \"../../../node_modules/@openzeppelin/contracts-ethereum-package/contracts/math/SafeMath.sol\";\nimport \"../../../node_modules/@openzeppelin/contracts-ethereum-package/contracts/token/ERC20/IERC20.sol\";\nimport \"../../../node_modules/@openzeppelin/contracts-ethereum-package/contracts/utils/ReentrancyGuard.sol\";\n\n///@author DeFiZap\n///@notice this contract implements one click execution of an leveraged trade on Fulcrum\n\n\ninterface IKyberInterface {\n    function swapTokentoToken(IERC20 _srcTokenAddressIERC20, IERC20 _dstTokenAddress, uint _slippageValue, address _toWhomToIssue) external payable returns (uint);\n}\n\ncontract IfulcrumInterface {\n   function mintWithToken(address receiver, address depositTokenAddress, uint256 depositAmount, uint256 maxPriceAllowed) external returns (uint256);\n}\n\n\ncontract Invest2FulcrumV2_upgrabable is Initializable, ReentrancyGuard {\n    using SafeMath for uint;\n\n    // state variables\n    \n    // - THESE MUST ALWAYS STAY IN THE SAME LAYOUT\n    bool private stopped;\n    address payable public owner;\n    IKyberInterface public KyberInterfaceAddress;\n    uint public maxPrice;\n\n    // events\n    event FulcrumTokensMinted(uint);\n    \n    // circuit breaker modifiers\n    modifier stopInEmergency {\n        if (stopped) \n            {revert(\"Temporarily Paused\");} \n        else {\n            _;}\n        }\n    modifier onlyOwner() {\n        require(isOwner(), \"you are not authorised to call this function\");\n        _;\n    }\n    \n    function initialize(IKyberInterface _KyberInterfaceAddress) initializer public {\n        ReentrancyGuard.initialize();\n        stopped = false;\n        owner = msg.sender;\n        KyberInterfaceAddress = _KyberInterfaceAddress;\n        maxPrice = 0;\n    }\n    \n    // - this is to control the slippage\n    function set_maxPrice(uint _insertValueinWEI) onlyOwner public {\n        maxPrice = _insertValueinWEI;\n    }\n    \n    //  - the investment fx\n    function LetsInvest(address _FuclrumOnwardAddress, address _destTokenAddress, uint _slippage, address _towhomtoissue) payable public returns (uint) {\n        uint _destTokens = KyberInterfaceAddress.swapTokentoToken.value(msg.value)(IERC20(0xEeeeeEeeeEeEeeEeEeEeeEEEeeeeEeeeeeeeEEeE),IERC20(_destTokenAddress),_slippage,address(this));\n        IERC20(_destTokenAddress).approve(_FuclrumOnwardAddress, _destTokens);\n        IfulcrumInterface FA = IfulcrumInterface(_FuclrumOnwardAddress);\n        uint FulcrumTokens = FA.mintWithToken(_towhomtoissue, _destTokenAddress, _destTokens, maxPrice);\n        emit FulcrumTokensMinted(FulcrumTokens);\n        return FulcrumTokens;\n    }\n    \n    // fx, in case something goes wrong\n    function inCaseTokengetsStuck(IERC20 _TokenAddress) onlyOwner public {\n        uint qty = _TokenAddress.balanceOf(address(this));\n        _TokenAddress.transfer(owner, qty);\n    }\n    \n    \n    // - fallback function\n    function() external payable {\n        revert(\"not allowed to send ETH to this address\");\n    }\n    \n\n    // - to Pause the contract\n    function toggleContractActive() onlyOwner public {\n        stopped = !stopped;\n    }\n    \n    // - to withdraw any ETH balance sitting in the contract\n    function withdraw() onlyOwner public{\n        owner.transfer(address(this).balance);\n    }\n    \n    function destruct() onlyOwner public{\n        selfdestruct(owner);\n    }\n\n    /**\n     * @return true if `msg.sender` is the owner of the contract.\n     */\n    function isOwner() public view returns (bool) {\n        return msg.sender == owner;\n    }\n\n    /**\n     * @dev Transfers ownership of the contract to a new account (`newOwner`).\n     * Can only be called by the current owner.\n     */\n    function transferOwnership(address payable newOwner) public onlyOwner {\n        _transferOwnership(newOwner);\n    }\n\n    /**\n     * @dev Transfers ownership of the contract to a new account (`newOwner`).\n     */\n    function _transferOwnership(address payable newOwner) internal {\n        require(newOwner != address(0), \"Ownable: new owner is the zero address\");\n        owner = newOwner;\n    }\n \n}",
  "sourcePath": "contracts/UpdatedZaps/Done/Invest2FulcrumV2_upgradable.sol",
  "abi": [
    {
      "anonymous": false,
      "inputs": [
        {
          "indexed": false,
          "internalType": "uint256",
          "name": "",
          "type": "uint256"
        }
      ],
      "name": "FulcrumTokensMinted",
      "type": "event"
    },
    {
      "payable": true,
      "stateMutability": "payable",
      "type": "fallback"
    },
    {
      "constant": true,
      "inputs": [],
      "name": "KyberInterfaceAddress",
      "outputs": [
        {
          "internalType": "contract IKyberInterface",
          "name": "",
          "type": "address"
        }
      ],
      "payable": false,
      "stateMutability": "view",
      "type": "function"
    },
    {
      "constant": false,
      "inputs": [
        {
          "internalType": "address",
          "name": "_FuclrumOnwardAddress",
          "type": "address"
        },
        {
          "internalType": "address",
          "name": "_destTokenAddress",
          "type": "address"
        },
        {
          "internalType": "uint256",
          "name": "_slippage",
          "type": "uint256"
        },
        {
          "internalType": "address",
          "name": "_towhomtoissue",
          "type": "address"
        }
      ],
      "name": "LetsInvest",
      "outputs": [
        {
          "internalType": "uint256",
          "name": "",
          "type": "uint256"
        }
      ],
      "payable": true,
      "stateMutability": "payable",
      "type": "function"
    },
    {
      "constant": false,
      "inputs": [],
      "name": "destruct",
      "outputs": [],
      "payable": false,
      "stateMutability": "nonpayable",
      "type": "function"
    },
    {
      "constant": false,
      "inputs": [
        {
          "internalType": "contract IERC20",
          "name": "_TokenAddress",
          "type": "address"
        }
      ],
      "name": "inCaseTokengetsStuck",
      "outputs": [],
      "payable": false,
      "stateMutability": "nonpayable",
      "type": "function"
    },
    {
      "constant": false,
      "inputs": [],
      "name": "initialize",
      "outputs": [],
      "payable": false,
      "stateMutability": "nonpayable",
      "type": "function"
    },
    {
      "constant": false,
      "inputs": [
        {
          "internalType": "contract IKyberInterface",
          "name": "_KyberInterfaceAddress",
          "type": "address"
        }
      ],
      "name": "initialize",
      "outputs": [],
      "payable": false,
      "stateMutability": "nonpayable",
      "type": "function"
    },
    {
      "constant": true,
      "inputs": [],
      "name": "isOwner",
      "outputs": [
        {
          "internalType": "bool",
          "name": "",
          "type": "bool"
        }
      ],
      "payable": false,
      "stateMutability": "view",
      "type": "function"
    },
    {
      "constant": true,
      "inputs": [],
      "name": "maxPrice",
      "outputs": [
        {
          "internalType": "uint256",
          "name": "",
          "type": "uint256"
        }
      ],
      "payable": false,
      "stateMutability": "view",
      "type": "function"
    },
    {
      "constant": true,
      "inputs": [],
      "name": "owner",
      "outputs": [
        {
          "internalType": "address payable",
          "name": "",
          "type": "address"
        }
      ],
      "payable": false,
      "stateMutability": "view",
      "type": "function"
    },
    {
      "constant": false,
      "inputs": [
        {
          "internalType": "uint256",
          "name": "_insertValueinWEI",
          "type": "uint256"
        }
      ],
      "name": "set_maxPrice",
      "outputs": [],
      "payable": false,
      "stateMutability": "nonpayable",
      "type": "function"
    },
    {
      "constant": false,
      "inputs": [],
      "name": "toggleContractActive",
      "outputs": [],
      "payable": false,
      "stateMutability": "nonpayable",
      "type": "function"
    },
    {
      "constant": false,
      "inputs": [
        {
          "internalType": "address payable",
          "name": "newOwner",
          "type": "address"
        }
      ],
      "name": "transferOwnership",
      "outputs": [],
      "payable": false,
      "stateMutability": "nonpayable",
      "type": "function"
    },
    {
      "constant": false,
      "inputs": [],
      "name": "withdraw",
      "outputs": [],
      "payable": false,
      "stateMutability": "nonpayable",
      "type": "function"
    }
  ],
  "bytecode": "0x608060405234801561001057600080fd5b50610b41806100206000396000f3fe6080604052600436106100d25760003560e01c80638129fc1c1161007f578063c4d66de811610059578063c4d66de81461024f578063e38d6b5c14610282578063f2fde38b14610297578063f391c1ad146102ca576100d2565b80638129fc1c146101fc5780638da5cb5b146102115780638f32d59b14610226576100d2565b8063551196d5116100b0578063551196d51461014a5780636305111d1461017d57806370d73755146101cb576100d2565b80631385d24c146101095780632b68b9c6146101205780633ccfd60b14610135575b60405162461bcd60e51b8152600401808060200182810382526027815260200180610ae66027913960400191505060405180910390fd5b34801561011557600080fd5b5061011e6102f4565b005b34801561012c57600080fd5b5061011e61034b565b34801561014157600080fd5b5061011e6103a1565b34801561015657600080fd5b5061011e6004803603602081101561016d57600080fd5b50356001600160a01b0316610428565b6101b96004803603608081101561019357600080fd5b506001600160a01b0381358116916020810135821691604082013591606001351661056f565b60408051918252519081900360200190f35b3480156101d757600080fd5b506101e0610770565b604080516001600160a01b039092168252519081900360200190f35b34801561020857600080fd5b5061011e61077f565b34801561021d57600080fd5b506101e0610825565b34801561023257600080fd5b5061023b610839565b604080519115158252519081900360200190f35b34801561025b57600080fd5b5061011e6004803603602081101561027257600080fd5b50356001600160a01b031661084f565b34801561028e57600080fd5b506101b961094b565b3480156102a357600080fd5b5061011e600480360360208110156102ba57600080fd5b50356001600160a01b0316610951565b3480156102d657600080fd5b5061011e600480360360208110156102ed57600080fd5b503561099d565b6102fc610839565b6103375760405162461bcd60e51b815260040180806020018281038252602c815260200180610a8c602c913960400191505060405180910390fd5b6066805460ff19811660ff90911615179055565b610353610839565b61038e5760405162461bcd60e51b815260040180806020018281038252602c815260200180610a8c602c913960400191505060405180910390fd5b60665461010090046001600160a01b0316ff5b6103a9610839565b6103e45760405162461bcd60e51b815260040180806020018281038252602c815260200180610a8c602c913960400191505060405180910390fd5b6066546040516001600160a01b036101009092049190911690303180156108fc02916000818181858888f19350505050158015610425573d6000803e3d6000fd5b50565b610430610839565b61046b5760405162461bcd60e51b815260040180806020018281038252602c815260200180610a8c602c913960400191505060405180910390fd5b604080516370a0823160e01b815230600482015290516000916001600160a01b038416916370a0823191602480820192602092909190829003018186803b1580156104b557600080fd5b505afa1580156104c9573d6000803e3d6000fd5b505050506040513d60208110156104df57600080fd5b50516066546040805163a9059cbb60e01b81526101009092046001600160a01b03908116600484015260248301849052905192935084169163a9059cbb916044808201926020929091908290030181600087803b15801561053f57600080fd5b505af1158015610553573d6000803e3d6000fd5b505050506040513d602081101561056957600080fd5b50505050565b6067546040805163885a3a1560e01b815273eeeeeeeeeeeeeeeeeeeeeeeeeeeeeeeeeeeeeeee60048201526001600160a01b0386811660248301526044820186905230606483015291516000938493169163885a3a1591349160848082019260209290919082900301818588803b1580156105e957600080fd5b505af11580156105fd573d6000803e3d6000fd5b50505050506040513d602081101561061457600080fd5b50516040805163095ea7b360e01b81526001600160a01b0389811660048301526024820184905291519293509087169163095ea7b3916044808201926020929091908290030181600087803b15801561066c57600080fd5b505af1158015610680573d6000803e3d6000fd5b505050506040513d602081101561069657600080fd5b505060685460408051633903949760e01b81526001600160a01b0386811660048301528881166024830152604482018590526064820193909352905188926000929084169163390394979160848082019260209290919082900301818787803b15801561070257600080fd5b505af1158015610716573d6000803e3d6000fd5b505050506040513d602081101561072c57600080fd5b50516040805182815290519192507f491135cf6a4c83540c47a53d038eec446d4925822786e6895c5f96acd3dbb3db919081900360200190a1979650505050505050565b6067546001600160a01b031681565b600054610100900460ff168061079857506107986109e5565b806107a6575060005460ff16155b6107e15760405162461bcd60e51b815260040180806020018281038252602e815260200180610ab8602e913960400191505060405180910390fd5b600054610100900460ff1615801561080c576000805460ff1961ff0019909116610100171660011790555b60016033558015610425576000805461ff001916905550565b60665461010090046001600160a01b031681565b60665461010090046001600160a01b0316331490565b600054610100900460ff168061086857506108686109e5565b80610876575060005460ff16155b6108b15760405162461bcd60e51b815260040180806020018281038252602e815260200180610ab8602e913960400191505060405180910390fd5b600054610100900460ff161580156108dc576000805460ff1961ff0019909116610100171660011790555b6108e461077f565b6066805474ffffffffffffffffffffffffffffffffffffffffff191661010033021790556067805473ffffffffffffffffffffffffffffffffffffffff19166001600160a01b03841617905560006068558015610947576000805461ff00191690555b5050565b60685481565b610959610839565b6109945760405162461bcd60e51b815260040180806020018281038252602c815260200180610a8c602c913960400191505060405180910390fd5b610425816109eb565b6109a5610839565b6109e05760405162461bcd60e51b815260040180806020018281038252602c815260200180610a8c602c913960400191505060405180910390fd5b606855565b303b1590565b6001600160a01b038116610a305760405162461bcd60e51b8152600401808060200182810382526026815260200180610a666026913960400191505060405180910390fd5b606680546001600160a01b039092166101000274ffffffffffffffffffffffffffffffffffffffff001990921691909117905556fe4f776e61626c653a206e6577206f776e657220697320746865207a65726f2061646472657373796f7520617265206e6f7420617574686f726973656420746f2063616c6c20746869732066756e6374696f6e436f6e747261637420696e7374616e63652068617320616c7265616479206265656e20696e697469616c697a65646e6f7420616c6c6f77656420746f2073656e642045544820746f20746869732061646472657373a265627a7a723158209d06f2099bfe421d87172373aa90e79057a24625486d5392cba329176bb24ff564736f6c634300050d0032",
  "compiler": {
    "name": "solc",
    "version": "0.5.13+commit.5b0b510c.Emscripten.clang",
    "optimizer": {
      "enabled": true,
      "runs": 500
    },
    "evmVersion": "petersburg"
  }
}