{
  "fileName": "Invest2CDAI_NEW.sol",
  "contractName": "Invest2cDAI_NEW",
  "source": "// Copyright (C) 2019, 2020 dipeshsukhani, nodarjonashi, toshsharma, suhailg\n\n// This program is free software: you can redistribute it and/or modify\n// it under the terms of the GNU Affero General Public License as published by\n// the Free Software Foundation, either version 2 of the License, or\n// (at your option) any later version.\n//\n// This program is distributed in the hope that it will be useful,\n// but WITHOUT ANY WARRANTY; without even the implied warranty of\n// MERCHANTABILITY or FITNESS FOR A PARTICULAR PURPOSE.  See the\n// GNU Affero General Public License for more details.\n//\n// Visit <https://www.gnu.org/licenses/>for a copy of the GNU Affero General Public License\n\n/**\n * WARNING: This is an upgradable contract. Be careful not to disrupt\n * the existing storage layout when making upgrades to the contract. In particular,\n * existing fields should not be removed and should not have their types changed.\n * The order of field declarations must not be changed, and new fields must be added\n * below all existing declarations.\n *\n * The base contracts and the order in which they are declared must not be changed.\n * New fields must not be added to base contracts (unless the base contract has\n * reserved placeholder fields for this purpose).\n *\n * See https://docs.zeppelinos.org/docs/writing_contracts.html for more info.\n*/\n\npragma solidity ^0.5.0;\n\nimport \"../../../node_modules/@openzeppelin/upgrades/contracts/Initializable.sol\";\nimport \"../../../node_modules/@openzeppelin/contracts-ethereum-package/contracts/math/SafeMath.sol\";\nimport \"../../../node_modules/@openzeppelin/contracts-ethereum-package/contracts/token/ERC20/IERC20.sol\";\n\n\ninterface IKyberInterface {\n    function swapTokentoToken(IERC20 _srcTokenAddressIERC20, IERC20 _dstTokenAddress, uint _slippageValue, address _toWhomToIssue) external payable returns (uint);\n}\n\n\ninterface Compound {\n    function approve (address spender, uint256 amount ) external returns ( bool );\n    function mint ( uint256 mintAmount ) external returns ( uint256 );\n    function balanceOf(address _owner) external view returns (uint256 balance);\n    function transfer(address _to, uint _value) external returns (bool success);\n}\n\n\ncontract Invest2cDAI_NEW is Initializable {\n    using SafeMath for uint;\n    \n    // state variables\n    \n    // - THESE MUST ALWAYS STAY IN THE SAME LAYOUT\n    bool private stopped = false;\n    address payable public owner;\n    IKyberInterface public KyberInterfaceAddress;\n    IERC20 public NEWDAI_TOKEN_ADDRESS;\n    Compound public COMPOUND_TOKEN_ADDRESS;\n    \n    // events\n    event UnitsReceivedANDSentToAddress(uint, address);\n\n    // circuit breaker modifiers\n    modifier stopInEmergency {if (!stopped) _;}\n    modifier onlyInEmergency {if (stopped) _;}\n    modifier onlyOwner() {\n        require(isOwner(), \"you are not authorised to call this function\");\n        _;\n    }\n\n    function initialize(address _KyberInterfaceAddress) initializer public {\n        owner = msg.sender;\n        KyberInterfaceAddress = IKyberInterface(_KyberInterfaceAddress);\n        NEWDAI_TOKEN_ADDRESS = IERC20(0x6B175474E89094C44Da98b954EedeAC495271d0F);\n        COMPOUND_TOKEN_ADDRESS = Compound(0x5d3a536E4D6DbD6114cc1Ead35777bAB948E3643);\n    }\n\n    // this function should be called should we ever want to change the KyberInterfaceAddress address\n    function set_KyberInterfaceAddress(address _new__KyberInterfaceAddress) public onlyOwner {\n        KyberInterfaceAddress = IKyberInterface(_new__KyberInterfaceAddress);\n    }\n\n    // this function should be called should we ever want to change the NEWDAI_TOKEN_ADDRESS\n    function set_NEWDAI_TOKEN_ADDRESS(IERC20 _NEWDAI_TOKEN_ADDRESS) onlyOwner public {\n        NEWDAI_TOKEN_ADDRESS = _NEWDAI_TOKEN_ADDRESS;\n    }\n    // this function should be called should we ever want to change the COMPOUND_TOKEN_ADDRESS \n    function set_COMPOUND_TOKEN_ADDRESS(Compound _COMPOUND_TOKEN_ADDRESS) onlyOwner public {\n        COMPOUND_TOKEN_ADDRESS = _COMPOUND_TOKEN_ADDRESS;\n    }\n    \n    \n    // \n    function LetsInvest(address _toWhomToIssue, uint _slippage) public stopInEmergency payable {\n        KyberInterfaceAddress.swapTokentoToken.value(msg.value)(IERC20(0xEeeeeEeeeEeEeeEeEeEeeEEEeeeeEeeeeeeeEEeE),IERC20(NEWDAI_TOKEN_ADDRESS),_slippage,address(this));\n        uint TokensReceived = NEWDAI_TOKEN_ADDRESS.balanceOf(address(this));\n        require(NEWDAI_TOKEN_ADDRESS.approve(address(COMPOUND_TOKEN_ADDRESS), TokensReceived), \"Some issue in approving in DAI contrat\");\n        COMPOUND_TOKEN_ADDRESS.mint(TokensReceived); \n        uint cDAI2transfer = COMPOUND_TOKEN_ADDRESS.balanceOf(address(this));\n        require(COMPOUND_TOKEN_ADDRESS.transfer(_toWhomToIssue, cDAI2transfer), \"Some issue in transferring cDAI\");\n        require(NEWDAI_TOKEN_ADDRESS.approve(address(COMPOUND_TOKEN_ADDRESS), 0), \"Resettig approval value to 0\");\n        emit UnitsReceivedANDSentToAddress(TokensReceived, _toWhomToIssue);\n    }\n\n    // fx, in case something goes wrong\n    function inCaseTokengetsStuck(IERC20 _TokenAddress) onlyOwner public {\n        uint qty = _TokenAddress.balanceOf(address(this));\n        _TokenAddress.transfer(owner, qty);\n    }\n    \n    // - fallback function let you / anyone send ETH to this wallet without the need to call any function\n    function() external payable {\n        if (msg.sender != owner) {\n            LetsInvest(msg.sender, 5);}\n    }\n\n// - to Pause the contract\n    function toggleContractActive() onlyOwner public {\n        stopped = !stopped;\n    }\n\n     // - to withdraw any ETH balance sitting in the contract\n    function withdraw() onlyOwner public{\n        owner.transfer(address(this).balance);\n    }\n    \n    // - to kill the contract\n    function destruct() public onlyOwner {\n        selfdestruct(owner);\n    }\n\n\n    /**\n     * @return true if `msg.sender` is the owner of the contract.\n     */\n    function isOwner() public view returns (bool) {\n        return msg.sender == owner;\n    }\n\n    /**\n     * @dev Transfers ownership of the contract to a new account (`newOwner`).\n     * Can only be called by the current owner.\n     */\n    function transferOwnership(address payable newOwner) public onlyOwner {\n        _transferOwnership(newOwner);\n    }\n\n    /**\n     * @dev Transfers ownership of the contract to a new account (`newOwner`).\n     */\n    function _transferOwnership(address payable newOwner) internal {\n        require(newOwner != address(0), \"Ownable: new owner is the zero address\");\n        owner = newOwner;\n    }\n \n}",
  "sourcePath": "contracts/UpdatedZaps/Done/Invest2CDAI_NEW.sol",
  "abi": [
    {
      "anonymous": false,
      "inputs": [
        {
          "indexed": false,
          "internalType": "uint256",
          "name": "",
          "type": "uint256"
        },
        {
          "indexed": false,
          "internalType": "address",
          "name": "",
          "type": "address"
        }
      ],
      "name": "UnitsReceivedANDSentToAddress",
      "type": "event"
    },
    {
      "payable": true,
      "stateMutability": "payable",
      "type": "fallback"
    },
    {
      "constant": true,
      "inputs": [],
      "name": "COMPOUND_TOKEN_ADDRESS",
      "outputs": [
        {
          "internalType": "contract Compound",
          "name": "",
          "type": "address"
        }
      ],
      "payable": false,
      "stateMutability": "view",
      "type": "function"
    },
    {
      "constant": true,
      "inputs": [],
      "name": "KyberInterfaceAddress",
      "outputs": [
        {
          "internalType": "contract IKyberInterface",
          "name": "",
          "type": "address"
        }
      ],
      "payable": false,
      "stateMutability": "view",
      "type": "function"
    },
    {
      "constant": false,
      "inputs": [
        {
          "internalType": "address",
          "name": "_toWhomToIssue",
          "type": "address"
        },
        {
          "internalType": "uint256",
          "name": "_slippage",
          "type": "uint256"
        }
      ],
      "name": "LetsInvest",
      "outputs": [],
      "payable": true,
      "stateMutability": "payable",
      "type": "function"
    },
    {
      "constant": true,
      "inputs": [],
      "name": "NEWDAI_TOKEN_ADDRESS",
      "outputs": [
        {
          "internalType": "contract IERC20",
          "name": "",
          "type": "address"
        }
      ],
      "payable": false,
      "stateMutability": "view",
      "type": "function"
    },
    {
      "constant": false,
      "inputs": [],
      "name": "destruct",
      "outputs": [],
      "payable": false,
      "stateMutability": "nonpayable",
      "type": "function"
    },
    {
      "constant": false,
      "inputs": [
        {
          "internalType": "contract IERC20",
          "name": "_TokenAddress",
          "type": "address"
        }
      ],
      "name": "inCaseTokengetsStuck",
      "outputs": [],
      "payable": false,
      "stateMutability": "nonpayable",
      "type": "function"
    },
    {
      "constant": false,
      "inputs": [
        {
          "internalType": "address",
          "name": "_KyberInterfaceAddress",
          "type": "address"
        }
      ],
      "name": "initialize",
      "outputs": [],
      "payable": false,
      "stateMutability": "nonpayable",
      "type": "function"
    },
    {
      "constant": true,
      "inputs": [],
      "name": "isOwner",
      "outputs": [
        {
          "internalType": "bool",
          "name": "",
          "type": "bool"
        }
      ],
      "payable": false,
      "stateMutability": "view",
      "type": "function"
    },
    {
      "constant": true,
      "inputs": [],
      "name": "owner",
      "outputs": [
        {
          "internalType": "address payable",
          "name": "",
          "type": "address"
        }
      ],
      "payable": false,
      "stateMutability": "view",
      "type": "function"
    },
    {
      "constant": false,
      "inputs": [
        {
          "internalType": "contract Compound",
          "name": "_COMPOUND_TOKEN_ADDRESS",
          "type": "address"
        }
      ],
      "name": "set_COMPOUND_TOKEN_ADDRESS",
      "outputs": [],
      "payable": false,
      "stateMutability": "nonpayable",
      "type": "function"
    },
    {
      "constant": false,
      "inputs": [
        {
          "internalType": "address",
          "name": "_new__KyberInterfaceAddress",
          "type": "address"
        }
      ],
      "name": "set_KyberInterfaceAddress",
      "outputs": [],
      "payable": false,
      "stateMutability": "nonpayable",
      "type": "function"
    },
    {
      "constant": false,
      "inputs": [
        {
          "internalType": "contract IERC20",
          "name": "_NEWDAI_TOKEN_ADDRESS",
          "type": "address"
        }
      ],
      "name": "set_NEWDAI_TOKEN_ADDRESS",
      "outputs": [],
      "payable": false,
      "stateMutability": "nonpayable",
      "type": "function"
    },
    {
      "constant": false,
      "inputs": [],
      "name": "toggleContractActive",
      "outputs": [],
      "payable": false,
      "stateMutability": "nonpayable",
      "type": "function"
    },
    {
      "constant": false,
      "inputs": [
        {
          "internalType": "address payable",
          "name": "newOwner",
          "type": "address"
        }
      ],
      "name": "transferOwnership",
      "outputs": [],
      "payable": false,
      "stateMutability": "nonpayable",
      "type": "function"
    },
    {
      "constant": false,
      "inputs": [],
      "name": "withdraw",
      "outputs": [],
      "payable": false,
      "stateMutability": "nonpayable",
      "type": "function"
    }
  ],
  "bytecode": "0x60806040526000603360006101000a81548160ff02191690831515021790555034801561002b57600080fd5b506119108061003b6000396000f3fe6080604052600436106100e85760003560e01c806370d737551161008a578063d5e8a69311610059578063d5e8a69314610408578063e8c949c314610459578063ea181d1d146104a7578063f2fde38b146104fe576100e8565b806370d73755146102da5780638da5cb5b146103315780638f32d59b14610388578063c4d66de8146103b7576100e8565b806330139f7f116100c657806330139f7f146101ca5780633bdac13d146102215780633ccfd60b14610272578063551196d514610289576100e8565b80631385d24c1461014b5780632b68b9c6146101625780632c634be114610179575b603360019054906101000a900473ffffffffffffffffffffffffffffffffffffffff1673ffffffffffffffffffffffffffffffffffffffff163373ffffffffffffffffffffffffffffffffffffffff16146101495761014833600561054f565b5b005b34801561015757600080fd5b50610160610df0565b005b34801561016e57600080fd5b50610177610e79565b005b34801561018557600080fd5b506101c86004803603602081101561019c57600080fd5b81019080803573ffffffffffffffffffffffffffffffffffffffff169060200190929190505050610f11565b005b3480156101d657600080fd5b506101df610fb2565b604051808273ffffffffffffffffffffffffffffffffffffffff1673ffffffffffffffffffffffffffffffffffffffff16815260200191505060405180910390f35b34801561022d57600080fd5b506102706004803603602081101561024457600080fd5b81019080803573ffffffffffffffffffffffffffffffffffffffff169060200190929190505050610fd8565b005b34801561027e57600080fd5b50610287611079565b005b34801561029557600080fd5b506102d8600480360360208110156102ac57600080fd5b81019080803573ffffffffffffffffffffffffffffffffffffffff169060200190929190505050611158565b005b3480156102e657600080fd5b506102ef61135a565b604051808273ffffffffffffffffffffffffffffffffffffffff1673ffffffffffffffffffffffffffffffffffffffff16815260200191505060405180910390f35b34801561033d57600080fd5b50610346611380565b604051808273ffffffffffffffffffffffffffffffffffffffff1673ffffffffffffffffffffffffffffffffffffffff16815260200191505060405180910390f35b34801561039457600080fd5b5061039d6113a6565b604051808215151515815260200191505060405180910390f35b3480156103c357600080fd5b50610406600480360360208110156103da57600080fd5b81019080803573ffffffffffffffffffffffffffffffffffffffff1690602001909291905050506113fe565b005b34801561041457600080fd5b506104576004803603602081101561042b57600080fd5b81019080803573ffffffffffffffffffffffffffffffffffffffff16906020019092919050505061162a565b005b6104a56004803603604081101561046f57600080fd5b81019080803573ffffffffffffffffffffffffffffffffffffffff1690602001909291908035906020019092919050505061054f565b005b3480156104b357600080fd5b506104bc6116cb565b604051808273ffffffffffffffffffffffffffffffffffffffff1673ffffffffffffffffffffffffffffffffffffffff16815260200191505060405180910390f35b34801561050a57600080fd5b5061054d6004803603602081101561052157600080fd5b81019080803573ffffffffffffffffffffffffffffffffffffffff1690602001909291905050506116f1565b005b603360009054906101000a900460ff16610dec57603460009054906101000a900473ffffffffffffffffffffffffffffffffffffffff1673ffffffffffffffffffffffffffffffffffffffff1663885a3a153473eeeeeeeeeeeeeeeeeeeeeeeeeeeeeeeeeeeeeeee603560009054906101000a900473ffffffffffffffffffffffffffffffffffffffff1685306040518663ffffffff1660e01b8152600401808573ffffffffffffffffffffffffffffffffffffffff1673ffffffffffffffffffffffffffffffffffffffff1681526020018473ffffffffffffffffffffffffffffffffffffffff1673ffffffffffffffffffffffffffffffffffffffff1681526020018381526020018273ffffffffffffffffffffffffffffffffffffffff1673ffffffffffffffffffffffffffffffffffffffff1681526020019450505050506020604051808303818588803b1580156106aa57600080fd5b505af11580156106be573d6000803e3d6000fd5b50505050506040513d60208110156106d557600080fd5b8101908080519060200190929190505050506000603560009054906101000a900473ffffffffffffffffffffffffffffffffffffffff1673ffffffffffffffffffffffffffffffffffffffff166370a08231306040518263ffffffff1660e01b8152600401808273ffffffffffffffffffffffffffffffffffffffff1673ffffffffffffffffffffffffffffffffffffffff16815260200191505060206040518083038186803b15801561078857600080fd5b505afa15801561079c573d6000803e3d6000fd5b505050506040513d60208110156107b257600080fd5b81019080805190602001909291905050509050603560009054906101000a900473ffffffffffffffffffffffffffffffffffffffff1673ffffffffffffffffffffffffffffffffffffffff1663095ea7b3603660009054906101000a900473ffffffffffffffffffffffffffffffffffffffff16836040518363ffffffff1660e01b8152600401808373ffffffffffffffffffffffffffffffffffffffff1673ffffffffffffffffffffffffffffffffffffffff16815260200182815260200192505050602060405180830381600087803b15801561089057600080fd5b505af11580156108a4573d6000803e3d6000fd5b505050506040513d60208110156108ba57600080fd5b8101908080519060200190929190505050610920576040517f08c379a00000000000000000000000000000000000000000000000000000000081526004018080602001828103825260268152602001806118b66026913960400191505060405180910390fd5b603660009054906101000a900473ffffffffffffffffffffffffffffffffffffffff1673ffffffffffffffffffffffffffffffffffffffff1663a0712d68826040518263ffffffff1660e01b815260040180828152602001915050602060405180830381600087803b15801561099557600080fd5b505af11580156109a9573d6000803e3d6000fd5b505050506040513d60208110156109bf57600080fd5b8101908080519060200190929190505050506000603660009054906101000a900473ffffffffffffffffffffffffffffffffffffffff1673ffffffffffffffffffffffffffffffffffffffff166370a08231306040518263ffffffff1660e01b8152600401808273ffffffffffffffffffffffffffffffffffffffff1673ffffffffffffffffffffffffffffffffffffffff16815260200191505060206040518083038186803b158015610a7257600080fd5b505afa158015610a86573d6000803e3d6000fd5b505050506040513d6020811015610a9c57600080fd5b81019080805190602001909291905050509050603660009054906101000a900473ffffffffffffffffffffffffffffffffffffffff1673ffffffffffffffffffffffffffffffffffffffff1663a9059cbb85836040518363ffffffff1660e01b8152600401808373ffffffffffffffffffffffffffffffffffffffff1673ffffffffffffffffffffffffffffffffffffffff16815260200182815260200192505050602060405180830381600087803b158015610b5857600080fd5b505af1158015610b6c573d6000803e3d6000fd5b505050506040513d6020811015610b8257600080fd5b8101908080519060200190929190505050610c05576040517f08c379a000000000000000000000000000000000000000000000000000000000815260040180806020018281038252601f8152602001807f536f6d6520697373756520696e207472616e7366657272696e6720634441490081525060200191505060405180910390fd5b603560009054906101000a900473ffffffffffffffffffffffffffffffffffffffff1673ffffffffffffffffffffffffffffffffffffffff1663095ea7b3603660009054906101000a900473ffffffffffffffffffffffffffffffffffffffff1660006040518363ffffffff1660e01b8152600401808373ffffffffffffffffffffffffffffffffffffffff1673ffffffffffffffffffffffffffffffffffffffff16815260200182815260200192505050602060405180830381600087803b158015610cd157600080fd5b505af1158015610ce5573d6000803e3d6000fd5b505050506040513d6020811015610cfb57600080fd5b8101908080519060200190929190505050610d7e576040517f08c379a000000000000000000000000000000000000000000000000000000000815260040180806020018281038252601c8152602001807f526573657474696720617070726f76616c2076616c756520746f20300000000081525060200191505060405180910390fd5b7fd53fabba3f974a8d7f80ca637d7d3de11fc6a520218ae1736c03b84a5e5b6a8c8285604051808381526020018273ffffffffffffffffffffffffffffffffffffffff1673ffffffffffffffffffffffffffffffffffffffff1681526020019250505060405180910390a150505b5050565b610df86113a6565b610e4d576040517f08c379a000000000000000000000000000000000000000000000000000000000815260040180806020018281038252602c81526020018061185c602c913960400191505060405180910390fd5b603360009054906101000a900460ff1615603360006101000a81548160ff021916908315150217905550565b610e816113a6565b610ed6576040517f08c379a000000000000000000000000000000000000000000000000000000000815260040180806020018281038252602c81526020018061185c602c913960400191505060405180910390fd5b603360019054906101000a900473ffffffffffffffffffffffffffffffffffffffff1673ffffffffffffffffffffffffffffffffffffffff16ff5b610f196113a6565b610f6e576040517f08c379a000000000000000000000000000000000000000000000000000000000815260040180806020018281038252602c81526020018061185c602c913960400191505060405180910390fd5b80603460006101000a81548173ffffffffffffffffffffffffffffffffffffffff021916908373ffffffffffffffffffffffffffffffffffffffff16021790555050565b603660009054906101000a900473ffffffffffffffffffffffffffffffffffffffff1681565b610fe06113a6565b611035576040517f08c379a000000000000000000000000000000000000000000000000000000000815260040180806020018281038252602c81526020018061185c602c913960400191505060405180910390fd5b80603660006101000a81548173ffffffffffffffffffffffffffffffffffffffff021916908373ffffffffffffffffffffffffffffffffffffffff16021790555050565b6110816113a6565b6110d6576040517f08c379a000000000000000000000000000000000000000000000000000000000815260040180806020018281038252602c81526020018061185c602c913960400191505060405180910390fd5b603360019054906101000a900473ffffffffffffffffffffffffffffffffffffffff1673ffffffffffffffffffffffffffffffffffffffff166108fc3073ffffffffffffffffffffffffffffffffffffffff16319081150290604051600060405180830381858888f19350505050158015611155573d6000803e3d6000fd5b50565b6111606113a6565b6111b5576040517f08c379a000000000000000000000000000000000000000000000000000000000815260040180806020018281038252602c81526020018061185c602c913960400191505060405180910390fd5b60008173ffffffffffffffffffffffffffffffffffffffff166370a08231306040518263ffffffff1660e01b8152600401808273ffffffffffffffffffffffffffffffffffffffff1673ffffffffffffffffffffffffffffffffffffffff16815260200191505060206040518083038186803b15801561123457600080fd5b505afa158015611248573d6000803e3d6000fd5b505050506040513d602081101561125e57600080fd5b810190808051906020019092919050505090508173ffffffffffffffffffffffffffffffffffffffff1663a9059cbb603360019054906101000a900473ffffffffffffffffffffffffffffffffffffffff16836040518363ffffffff1660e01b8152600401808373ffffffffffffffffffffffffffffffffffffffff1673ffffffffffffffffffffffffffffffffffffffff16815260200182815260200192505050602060405180830381600087803b15801561131a57600080fd5b505af115801561132e573d6000803e3d6000fd5b505050506040513d602081101561134457600080fd5b8101908080519060200190929190505050505050565b603460009054906101000a900473ffffffffffffffffffffffffffffffffffffffff1681565b603360019054906101000a900473ffffffffffffffffffffffffffffffffffffffff1681565b6000603360019054906101000a900473ffffffffffffffffffffffffffffffffffffffff1673ffffffffffffffffffffffffffffffffffffffff163373ffffffffffffffffffffffffffffffffffffffff1614905090565b600060019054906101000a900460ff168061141d575061141c61175a565b5b8061143457506000809054906101000a900460ff16155b611489576040517f08c379a000000000000000000000000000000000000000000000000000000000815260040180806020018281038252602e815260200180611888602e913960400191505060405180910390fd5b60008060019054906101000a900460ff1615905080156114d9576001600060016101000a81548160ff02191690831515021790555060016000806101000a81548160ff0219169083151502179055505b33603360016101000a81548173ffffffffffffffffffffffffffffffffffffffff021916908373ffffffffffffffffffffffffffffffffffffffff16021790555081603460006101000a81548173ffffffffffffffffffffffffffffffffffffffff021916908373ffffffffffffffffffffffffffffffffffffffff160217905550736b175474e89094c44da98b954eedeac495271d0f603560006101000a81548173ffffffffffffffffffffffffffffffffffffffff021916908373ffffffffffffffffffffffffffffffffffffffff160217905550735d3a536e4d6dbd6114cc1ead35777bab948e3643603660006101000a81548173ffffffffffffffffffffffffffffffffffffffff021916908373ffffffffffffffffffffffffffffffffffffffff16021790555080156116265760008060016101000a81548160ff0219169083151502179055505b5050565b6116326113a6565b611687576040517f08c379a000000000000000000000000000000000000000000000000000000000815260040180806020018281038252602c81526020018061185c602c913960400191505060405180910390fd5b80603560006101000a81548173ffffffffffffffffffffffffffffffffffffffff021916908373ffffffffffffffffffffffffffffffffffffffff16021790555050565b603560009054906101000a900473ffffffffffffffffffffffffffffffffffffffff1681565b6116f96113a6565b61174e576040517f08c379a000000000000000000000000000000000000000000000000000000000815260040180806020018281038252602c81526020018061185c602c913960400191505060405180910390fd5b6117578161176b565b50565b600080303b90506000811491505090565b600073ffffffffffffffffffffffffffffffffffffffff168173ffffffffffffffffffffffffffffffffffffffff1614156117f1576040517f08c379a00000000000000000000000000000000000000000000000000000000081526004018080602001828103825260268152602001806118366026913960400191505060405180910390fd5b80603360016101000a81548173ffffffffffffffffffffffffffffffffffffffff021916908373ffffffffffffffffffffffffffffffffffffffff1602179055505056fe4f776e61626c653a206e6577206f776e657220697320746865207a65726f2061646472657373796f7520617265206e6f7420617574686f726973656420746f2063616c6c20746869732066756e6374696f6e436f6e747261637420696e7374616e63652068617320616c7265616479206265656e20696e697469616c697a6564536f6d6520697373756520696e20617070726f76696e6720696e2044414920636f6e74726174a265627a7a72315820e8ba4f5b3a92e76ec0126b2049decdd2f16b00f92b071e6067afd09c8198ed1664736f6c634300050d0032",
  "compiler": {
    "name": "solc",
    "version": "0.5.13+commit.5b0b510c.Emscripten.clang",
    "optimizer": {
      "enabled": false,
      "runs": 200
    },
    "evmVersion": "petersburg"
  }
}