{
  "fileName": "Invest2CDAI_NEW.sol",
  "contractName": "Invest2cDAI_NEW",
  "source": "// Copyright (C) 2019, 2020 dipeshsukhani, nodarjonashi, toshsharma, suhailg\n\n// This program is free software: you can redistribute it and/or modify\n// it under the terms of the GNU Affero General Public License as published by\n// the Free Software Foundation, either version 2 of the License, or\n// (at your option) any later version.\n//\n// This program is distributed in the hope that it will be useful,\n// but WITHOUT ANY WARRANTY; without even the implied warranty of\n// MERCHANTABILITY or FITNESS FOR A PARTICULAR PURPOSE.  See the\n// GNU Affero General Public License for more details.\n//\n// Visit <https://www.gnu.org/licenses/>for a copy of the GNU Affero General Public License\n\n/**\n * WARNING: This is an upgradable contract. Be careful not to disrupt\n * the existing storage layout when making upgrades to the contract. In particular,\n * existing fields should not be removed and should not have their types changed.\n * The order of field declarations must not be changed, and new fields must be added\n * below all existing declarations.\n *\n * The base contracts and the order in which they are declared must not be changed.\n * New fields must not be added to base contracts (unless the base contract has\n * reserved placeholder fields for this purpose).\n *\n * See https://docs.zeppelinos.org/docs/writing_contracts.html for more info.\n*/\n\npragma solidity ^0.5.0;\n\nimport \"../../../node_modules/@openzeppelin/upgrades/contracts/Initializable.sol\";\nimport \"../../../node_modules/@openzeppelin/contracts-ethereum-package/contracts/math/SafeMath.sol\";\nimport \"../../../node_modules/@openzeppelin/contracts-ethereum-package/contracts/token/ERC20/IERC20.sol\";\n\n\ninterface IKyberInterface {\n    function swapTokentoToken(IERC20 _srcTokenAddressIERC20, IERC20 _dstTokenAddress, uint _slippageValue, address _toWhomToIssue) external payable returns (uint);\n}\n\n\ninterface Compound {\n    function approve (address spender, uint256 amount ) external returns ( bool );\n    function mint ( uint256 mintAmount ) external returns ( uint256 );\n    function balanceOf(address _owner) external view returns (uint256 balance);\n    function transfer(address _to, uint _value) external returns (bool success);\n}\n\n\ncontract Invest2cDAI_NEW is Initializable {\n    using SafeMath for uint;\n    \n    // state variables\n    \n    // - THESE MUST ALWAYS STAY IN THE SAME LAYOUT\n    bool private stopped = false;\n    address payable public owner;\n    IKyberInterface public KyberInterfaceAddress;\n    IERC20 public NEWDAI_TOKEN_ADDRESS;\n    Compound public COMPOUND_TOKEN_ADDRESS;\n    \n    // events\n    event UnitsReceivedANDSentToAddress(uint, address);\n\n    // circuit breaker modifiers\n    modifier stopInEmergency {if (!stopped) _;}\n    modifier onlyInEmergency {if (stopped) _;}\n    modifier onlyOwner() {\n        require(isOwner(), \"you are not authorised to call this function\");\n        _;\n    }\n\n    function initialize(address _KyberInterfaceAddress) initializer public {\n        owner = msg.sender;\n        KyberInterfaceAddress = IKyberInterface(_KyberInterfaceAddress);\n        NEWDAI_TOKEN_ADDRESS = IERC20(0x6B175474E89094C44Da98b954EedeAC495271d0F);\n        COMPOUND_TOKEN_ADDRESS = Compound(0x5d3a536E4D6DbD6114cc1Ead35777bAB948E3643);\n    }\n\n    // this function should be called should we ever want to change the KyberInterfaceAddress address\n    function set_KyberInterfaceAddress(address _new__KyberInterfaceAddress) public onlyOwner {\n        KyberInterfaceAddress = IKyberInterface(_new__KyberInterfaceAddress);\n    }\n\n    // this function should be called should we ever want to change the NEWDAI_TOKEN_ADDRESS\n    function set_NEWDAI_TOKEN_ADDRESS(IERC20 _NEWDAI_TOKEN_ADDRESS) onlyOwner public {\n        NEWDAI_TOKEN_ADDRESS = _NEWDAI_TOKEN_ADDRESS;\n    }\n    // this function should be called should we ever want to change the COMPOUND_TOKEN_ADDRESS \n    function set_COMPOUND_TOKEN_ADDRESS(Compound _COMPOUND_TOKEN_ADDRESS) onlyOwner public {\n        COMPOUND_TOKEN_ADDRESS = _COMPOUND_TOKEN_ADDRESS;\n    }\n    \n    \n    // \n    function LetsInvest(address _toWhomToIssue, uint _slippage) public stopInEmergency payable {\n        KyberInterfaceAddress.swapTokentoToken.value(msg.value)(IERC20(0xEeeeeEeeeEeEeeEeEeEeeEEEeeeeEeeeeeeeEEeE),IERC20(NEWDAI_TOKEN_ADDRESS),_slippage,address(this));\n        uint TokensReceived = NEWDAI_TOKEN_ADDRESS.balanceOf(address(this));\n        require(NEWDAI_TOKEN_ADDRESS.approve(address(COMPOUND_TOKEN_ADDRESS), TokensReceived), \"Some issue in approving in DAI contrat\");\n        COMPOUND_TOKEN_ADDRESS.mint(TokensReceived); \n        uint cDAI2transfer = COMPOUND_TOKEN_ADDRESS.balanceOf(address(this));\n        require(COMPOUND_TOKEN_ADDRESS.transfer(_toWhomToIssue, cDAI2transfer), \"Some issue in transferring cDAI\");\n        require(NEWDAI_TOKEN_ADDRESS.approve(address(COMPOUND_TOKEN_ADDRESS), 0), \"Resettig approval value to 0\");\n        emit UnitsReceivedANDSentToAddress(TokensReceived, _toWhomToIssue);\n    }\n\n    // fx, in case something goes wrong\n    function inCaseTokengetsStuck(IERC20 _TokenAddress) onlyOwner public {\n        uint qty = _TokenAddress.balanceOf(address(this));\n        _TokenAddress.transfer(owner, qty);\n    }\n    \n    // - fallback function let you / anyone send ETH to this wallet without the need to call any function\n    function() external payable {\n        if (msg.sender != owner) {\n            LetsInvest(msg.sender, 5);}\n    }\n\n// - to Pause the contract\n    function toggleContractActive() onlyOwner public {\n        stopped = !stopped;\n    }\n\n     // - to withdraw any ETH balance sitting in the contract\n    function withdraw() onlyOwner public{\n        owner.transfer(address(this).balance);\n    }\n    \n    // - to kill the contract\n    function destruct() public onlyOwner {\n        selfdestruct(owner);\n    }\n\n\n    /**\n     * @return true if `msg.sender` is the owner of the contract.\n     */\n    function isOwner() public view returns (bool) {\n        return msg.sender == owner;\n    }\n\n    /**\n     * @dev Transfers ownership of the contract to a new account (`newOwner`).\n     * Can only be called by the current owner.\n     */\n    function transferOwnership(address payable newOwner) public onlyOwner {\n        _transferOwnership(newOwner);\n    }\n\n    /**\n     * @dev Transfers ownership of the contract to a new account (`newOwner`).\n     */\n    function _transferOwnership(address payable newOwner) internal {\n        require(newOwner != address(0), \"Ownable: new owner is the zero address\");\n        owner = newOwner;\n    }\n \n}",
  "sourcePath": "contracts/UpdatedZaps/Done/Invest2CDAI_NEW.sol",
  "abi": [
    {
      "anonymous": false,
      "inputs": [
        {
          "indexed": false,
          "internalType": "uint256",
          "name": "",
          "type": "uint256"
        },
        {
          "indexed": false,
          "internalType": "address",
          "name": "",
          "type": "address"
        }
      ],
      "name": "UnitsReceivedANDSentToAddress",
      "type": "event"
    },
    {
      "payable": true,
      "stateMutability": "payable",
      "type": "fallback"
    },
    {
      "constant": true,
      "inputs": [],
      "name": "COMPOUND_TOKEN_ADDRESS",
      "outputs": [
        {
          "internalType": "contract Compound",
          "name": "",
          "type": "address"
        }
      ],
      "payable": false,
      "stateMutability": "view",
      "type": "function"
    },
    {
      "constant": true,
      "inputs": [],
      "name": "KyberInterfaceAddress",
      "outputs": [
        {
          "internalType": "contract IKyberInterface",
          "name": "",
          "type": "address"
        }
      ],
      "payable": false,
      "stateMutability": "view",
      "type": "function"
    },
    {
      "constant": false,
      "inputs": [
        {
          "internalType": "address",
          "name": "_toWhomToIssue",
          "type": "address"
        },
        {
          "internalType": "uint256",
          "name": "_slippage",
          "type": "uint256"
        }
      ],
      "name": "LetsInvest",
      "outputs": [],
      "payable": true,
      "stateMutability": "payable",
      "type": "function"
    },
    {
      "constant": true,
      "inputs": [],
      "name": "NEWDAI_TOKEN_ADDRESS",
      "outputs": [
        {
          "internalType": "contract IERC20",
          "name": "",
          "type": "address"
        }
      ],
      "payable": false,
      "stateMutability": "view",
      "type": "function"
    },
    {
      "constant": false,
      "inputs": [],
      "name": "destruct",
      "outputs": [],
      "payable": false,
      "stateMutability": "nonpayable",
      "type": "function"
    },
    {
      "constant": false,
      "inputs": [
        {
          "internalType": "contract IERC20",
          "name": "_TokenAddress",
          "type": "address"
        }
      ],
      "name": "inCaseTokengetsStuck",
      "outputs": [],
      "payable": false,
      "stateMutability": "nonpayable",
      "type": "function"
    },
    {
      "constant": false,
      "inputs": [
        {
          "internalType": "address",
          "name": "_KyberInterfaceAddress",
          "type": "address"
        }
      ],
      "name": "initialize",
      "outputs": [],
      "payable": false,
      "stateMutability": "nonpayable",
      "type": "function"
    },
    {
      "constant": true,
      "inputs": [],
      "name": "isOwner",
      "outputs": [
        {
          "internalType": "bool",
          "name": "",
          "type": "bool"
        }
      ],
      "payable": false,
      "stateMutability": "view",
      "type": "function"
    },
    {
      "constant": true,
      "inputs": [],
      "name": "owner",
      "outputs": [
        {
          "internalType": "address payable",
          "name": "",
          "type": "address"
        }
      ],
      "payable": false,
      "stateMutability": "view",
      "type": "function"
    },
    {
      "constant": false,
      "inputs": [
        {
          "internalType": "contract Compound",
          "name": "_COMPOUND_TOKEN_ADDRESS",
          "type": "address"
        }
      ],
      "name": "set_COMPOUND_TOKEN_ADDRESS",
      "outputs": [],
      "payable": false,
      "stateMutability": "nonpayable",
      "type": "function"
    },
    {
      "constant": false,
      "inputs": [
        {
          "internalType": "address",
          "name": "_new__KyberInterfaceAddress",
          "type": "address"
        }
      ],
      "name": "set_KyberInterfaceAddress",
      "outputs": [],
      "payable": false,
      "stateMutability": "nonpayable",
      "type": "function"
    },
    {
      "constant": false,
      "inputs": [
        {
          "internalType": "contract IERC20",
          "name": "_NEWDAI_TOKEN_ADDRESS",
          "type": "address"
        }
      ],
      "name": "set_NEWDAI_TOKEN_ADDRESS",
      "outputs": [],
      "payable": false,
      "stateMutability": "nonpayable",
      "type": "function"
    },
    {
      "constant": false,
      "inputs": [],
      "name": "toggleContractActive",
      "outputs": [],
      "payable": false,
      "stateMutability": "nonpayable",
      "type": "function"
    },
    {
      "constant": false,
      "inputs": [
        {
          "internalType": "address payable",
          "name": "newOwner",
          "type": "address"
        }
      ],
      "name": "transferOwnership",
      "outputs": [],
      "payable": false,
      "stateMutability": "nonpayable",
      "type": "function"
    },
    {
      "constant": false,
      "inputs": [],
      "name": "withdraw",
      "outputs": [],
      "payable": false,
      "stateMutability": "nonpayable",
      "type": "function"
    }
  ],
  "bytecode": "0x60806040526033805460ff1916905534801561001a57600080fd5b50610ee08061002a6000396000f3fe6080604052600436106100e85760003560e01c806370d737551161008a578063d5e8a69311610059578063d5e8a6931461029b578063e8c949c3146102ce578063ea181d1d146102fa578063f2fde38b1461030f576100e8565b806370d73755146102155780638da5cb5b1461022a5780638f32d59b1461023f578063c4d66de814610268576100e8565b806330139f7f116100c657806330139f7f146101695780633bdac13d1461019a5780633ccfd60b146101cd578063551196d5146101e2576100e8565b80631385d24c1461010c5780632b68b9c6146101215780632c634be114610136575b60335461010090046001600160a01b0316331461010a5761010a336005610342565b005b34801561011857600080fd5b5061010a610815565b34801561012d57600080fd5b5061010a61086c565b34801561014257600080fd5b5061010a6004803603602081101561015957600080fd5b50356001600160a01b03166108c2565b34801561017557600080fd5b5061017e610927565b604080516001600160a01b039092168252519081900360200190f35b3480156101a657600080fd5b5061010a600480360360208110156101bd57600080fd5b50356001600160a01b0316610936565b3480156101d957600080fd5b5061010a61099b565b3480156101ee57600080fd5b5061010a6004803603602081101561020557600080fd5b50356001600160a01b0316610a22565b34801561022157600080fd5b5061017e610b69565b34801561023657600080fd5b5061017e610b78565b34801561024b57600080fd5b50610254610b8c565b604080519115158252519081900360200190f35b34801561027457600080fd5b5061010a6004803603602081101561028b57600080fd5b50356001600160a01b0316610ba2565b3480156102a757600080fd5b5061010a600480360360208110156102be57600080fd5b50356001600160a01b0316610cc5565b61010a600480360360408110156102e457600080fd5b506001600160a01b038135169060200135610342565b34801561030657600080fd5b5061017e610d2a565b34801561031b57600080fd5b5061010a6004803603602081101561033257600080fd5b50356001600160a01b0316610d39565b60335460ff16610811576034546035546040805163885a3a1560e01b815273eeeeeeeeeeeeeeeeeeeeeeeeeeeeeeeeeeeeeeee60048201526001600160a01b039283166024820152604481018590523060648201529051919092169163885a3a1591349160848082019260209290919082900301818588803b1580156103c757600080fd5b505af11580156103db573d6000803e3d6000fd5b50505050506040513d60208110156103f257600080fd5b5050603554604080516370a0823160e01b815230600482015290516000926001600160a01b0316916370a08231916024808301926020929190829003018186803b15801561043f57600080fd5b505afa158015610453573d6000803e3d6000fd5b505050506040513d602081101561046957600080fd5b50516035546036546040805163095ea7b360e01b81526001600160a01b03928316600482015260248101859052905193945091169163095ea7b3916044808201926020929091908290030181600087803b1580156104c657600080fd5b505af11580156104da573d6000803e3d6000fd5b505050506040513d60208110156104f057600080fd5b505161052d5760405162461bcd60e51b8152600401808060200182810382526026815260200180610e866026913960400191505060405180910390fd5b6036546040805163140e25ad60e31b81526004810184905290516001600160a01b039092169163a0712d68916024808201926020929091908290030181600087803b15801561057b57600080fd5b505af115801561058f573d6000803e3d6000fd5b505050506040513d60208110156105a557600080fd5b5050603654604080516370a0823160e01b815230600482015290516000926001600160a01b0316916370a08231916024808301926020929190829003018186803b1580156105f257600080fd5b505afa158015610606573d6000803e3d6000fd5b505050506040513d602081101561061c57600080fd5b50516036546040805163a9059cbb60e01b81526001600160a01b03888116600483015260248201859052915193945091169163a9059cbb916044808201926020929091908290030181600087803b15801561067657600080fd5b505af115801561068a573d6000803e3d6000fd5b505050506040513d60208110156106a057600080fd5b50516106f3576040805162461bcd60e51b815260206004820152601f60248201527f536f6d6520697373756520696e207472616e7366657272696e67206344414900604482015290519081900360640190fd5b6035546036546040805163095ea7b360e01b81526001600160a01b0392831660048201526000602482018190529151929093169263095ea7b39260448083019360209383900390910190829087803b15801561074e57600080fd5b505af1158015610762573d6000803e3d6000fd5b505050506040513d602081101561077857600080fd5b50516107cb576040805162461bcd60e51b815260206004820152601c60248201527f526573657474696720617070726f76616c2076616c756520746f203000000000604482015290519081900360640190fd5b604080518381526001600160a01b038616602082015281517fd53fabba3f974a8d7f80ca637d7d3de11fc6a520218ae1736c03b84a5e5b6a8c929181900390910190a150505b5050565b61081d610b8c565b6108585760405162461bcd60e51b815260040180806020018281038252602c815260200180610e2c602c913960400191505060405180910390fd5b6033805460ff19811660ff90911615179055565b610874610b8c565b6108af5760405162461bcd60e51b815260040180806020018281038252602c815260200180610e2c602c913960400191505060405180910390fd5b60335461010090046001600160a01b0316ff5b6108ca610b8c565b6109055760405162461bcd60e51b815260040180806020018281038252602c815260200180610e2c602c913960400191505060405180910390fd5b603480546001600160a01b0319166001600160a01b0392909216919091179055565b6036546001600160a01b031681565b61093e610b8c565b6109795760405162461bcd60e51b815260040180806020018281038252602c815260200180610e2c602c913960400191505060405180910390fd5b603680546001600160a01b0319166001600160a01b0392909216919091179055565b6109a3610b8c565b6109de5760405162461bcd60e51b815260040180806020018281038252602c815260200180610e2c602c913960400191505060405180910390fd5b6033546040516001600160a01b036101009092049190911690303180156108fc02916000818181858888f19350505050158015610a1f573d6000803e3d6000fd5b50565b610a2a610b8c565b610a655760405162461bcd60e51b815260040180806020018281038252602c815260200180610e2c602c913960400191505060405180910390fd5b604080516370a0823160e01b815230600482015290516000916001600160a01b038416916370a0823191602480820192602092909190829003018186803b158015610aaf57600080fd5b505afa158015610ac3573d6000803e3d6000fd5b505050506040513d6020811015610ad957600080fd5b50516033546040805163a9059cbb60e01b81526101009092046001600160a01b03908116600484015260248301849052905192935084169163a9059cbb916044808201926020929091908290030181600087803b158015610b3957600080fd5b505af1158015610b4d573d6000803e3d6000fd5b505050506040513d6020811015610b6357600080fd5b50505050565b6034546001600160a01b031681565b60335461010090046001600160a01b031681565b60335461010090046001600160a01b0316331490565b600054610100900460ff1680610bbb5750610bbb610d85565b80610bc9575060005460ff16155b610c045760405162461bcd60e51b815260040180806020018281038252602e815260200180610e58602e913960400191505060405180910390fd5b600054610100900460ff16158015610c2f576000805460ff1961ff0019909116610100171660011790555b60338054610100330274ffffffffffffffffffffffffffffffffffffffff0019909116179055603480546001600160a01b0384166001600160a01b031991821617909155603580548216736b175474e89094c44da98b954eedeac495271d0f17905560368054909116735d3a536e4d6dbd6114cc1ead35777bab948e36431790558015610811576000805461ff00191690555050565b610ccd610b8c565b610d085760405162461bcd60e51b815260040180806020018281038252602c815260200180610e2c602c913960400191505060405180910390fd5b603580546001600160a01b0319166001600160a01b0392909216919091179055565b6035546001600160a01b031681565b610d41610b8c565b610d7c5760405162461bcd60e51b815260040180806020018281038252602c815260200180610e2c602c913960400191505060405180910390fd5b610a1f81610d8b565b303b1590565b6001600160a01b038116610dd05760405162461bcd60e51b8152600401808060200182810382526026815260200180610e066026913960400191505060405180910390fd5b603380546001600160a01b039092166101000274ffffffffffffffffffffffffffffffffffffffff001990921691909117905556fe4f776e61626c653a206e6577206f776e657220697320746865207a65726f2061646472657373796f7520617265206e6f7420617574686f726973656420746f2063616c6c20746869732066756e6374696f6e436f6e747261637420696e7374616e63652068617320616c7265616479206265656e20696e697469616c697a6564536f6d6520697373756520696e20617070726f76696e6720696e2044414920636f6e74726174a265627a7a723158207e688fbf3191107ad02ce65434036198c8fda2808ba81987cfe99085705d3ce864736f6c634300050d0032",
  "compiler": {
    "name": "solc",
    "version": "0.5.13+commit.5b0b510c.Emscripten.clang",
    "optimizer": {
      "enabled": true,
      "runs": 500
    },
    "evmVersion": "petersburg"
  }
}