{
  "fileName": "Invest2FulcrumV3_upgradable.sol",
  "contractName": "Invest2FulcrumV3_upgrabable_ERC",
  "source": "// Copyright (C) 2019, 2020 dipeshsukhani, nodarjonashi, toshsharma, suhailg\n\n// This program is free software: you can redistribute it and/or modify\n// it under the terms of the GNU Affero General Public License as published by\n// the Free Software Foundation, either version 2 of the License, or\n// (at your option) any later version.\n//\n// This program is distributed in the hope that it will be useful,\n// but WITHOUT ANY WARRANTY; without even the implied warranty of\n// MERCHANTABILITY or FITNESS FOR A PARTICULAR PURPOSE.  See the\n// GNU Affero General Public License for more details.\n//\n// Visit <https://www.gnu.org/licenses/>for a copy of the GNU Affero General Public License\n\n/**\n * WARNING: This is an upgradable contract. Be careful not to disrupt\n * the existing storage layout when making upgrades to the contract. In particular,\n * existing fields should not be removed and should not have their types changed.\n * The order of field declarations must not be changed, and new fields must be added\n * below all existing declarations.\n *\n * The base contracts and the order in which they are declared must not be changed.\n * New fields must not be added to base contracts (unless the base contract has\n * reserved placeholder fields for this purpose).\n *\n * See https://docs.zeppelinos.org/docs/writing_contracts.html for more info.\n*/\n\npragma solidity ^0.5.0;\n\nimport \"../../../node_modules/@openzeppelin/upgrades/contracts/Initializable.sol\";\nimport \"../../../node_modules/@openzeppelin/contracts-ethereum-package/contracts/math/SafeMath.sol\";\nimport \"../../../node_modules/@openzeppelin/contracts-ethereum-package/contracts/token/ERC20/IERC20.sol\";\nimport \"../../../node_modules/@openzeppelin/contracts-ethereum-package/contracts/utils/ReentrancyGuard.sol\";\n\n///@author DeFiZap\n///@notice this contract implements one click execution of an leveraged trade on Fulcrum\n\n\ninterface IKyberInterface {\n    function swapTokentoToken(IERC20 _srcTokenAddressIERC20, IERC20 _dstTokenAddress, uint _slippageValue, address _toWhomToIssue) external payable returns (uint);\n}\n\ncontract IfulcrumInterface {\n   function mintWithToken(address receiver, address depositTokenAddress, uint256 depositAmount, uint256 maxPriceAllowed) external returns (uint256);\n}\n\n\ncontract Invest2FulcrumV3_upgrabable_ERC is Initializable, ReentrancyGuard {\n    using SafeMath for uint;\n\n    // state variables\n    \n    // - THESE MUST ALWAYS STAY IN THE SAME LAYOUT\n    bool private stopped;\n    address payable public owner;\n    uint16 public goodwillInBasisPoints;\n    address public dzGoodwillAddress;\n    IKyberInterface public KyberInterfaceAddress;\n    uint public maxPrice;\n\n    // events\n    event FulcrumTokensMinted(uint);\n    \n    // circuit breaker modifiers\n    modifier stopInEmergency {\n        if (stopped) \n            {revert(\"Temporarily Paused\");} \n        else {\n            _;}\n        }\n    modifier onlyOwner() {\n        require(isOwner(), \"you are not authorised to call this function\");\n        _;\n    }\n    \n    \n    function initialize(IKyberInterface _KyberInterfaceAddress, uint16 _goodwillInBasisPoints, address _dzGoodwillAddress) initializer public {\n        ReentrancyGuard.initialize();\n        stopped = false;\n        owner = msg.sender;\n        goodwillInBasisPoints = _goodwillInBasisPoints;\n        dzGoodwillAddress = _dzGoodwillAddress;\n        KyberInterfaceAddress = _KyberInterfaceAddress;\n        maxPrice = 0;\n    }\n    \n    // to change the goodwill basis points\n    function set_goodwillInBasisPoints(uint16 _new_goodwillInBasisPoints) public onlyOwner {\n        require(_new_goodwillInBasisPoints < 10000 && _new_goodwillInBasisPoints > 0, \"Not correct goodwill rate in basis Points\");\n        goodwillInBasisPoints = _new_goodwillInBasisPoints;\n    }\n\n    // to change the dzGoodwillAddress \n    function set_dzGoodwillAddress(address _new_dzGoodwillAddress) public onlyOwner {\n        dzGoodwillAddress = _new_dzGoodwillAddress;\n    }\n    \n    // to change the KyberInterfaceAddress\n    function set_KyberInterfaceAddress(address _new_KyberInterfaceAddress) public onlyOwner {\n        KyberInterfaceAddress = IKyberInterface(_new_KyberInterfaceAddress);\n    }\n\n    // - this is to control the slippage\n    function set_maxPrice(uint _insertValueinWEI) onlyOwner public {\n        maxPrice = _insertValueinWEI;\n    }\n    \n    //  - the investment fx\n    function LetsInvest(address _FuclrumOnwardAddress, address _destTokenAddress, uint _slippage, address _towhomtoissue) payable public returns (uint) {\n        uint _destTokens = KyberInterfaceAddress.swapTokentoToken.value(msg.value)(IERC20(0xEeeeeEeeeEeEeeEeEeEeeEEEeeeeEeeeeeeeEEeE),IERC20(_destTokenAddress),_slippage,address(this));\n        uint dzportion = SafeMath.div(SafeMath.mul(_destTokens,goodwillInBasisPoints),10000);\n        IERC20(_destTokenAddress).transfer(dzGoodwillAddress,dzportion);\n        uint remaining_tokens = SafeMath.sub(_destTokens,dzportion);\n        IERC20(_destTokenAddress).approve(_FuclrumOnwardAddress, remaining_tokens);\n        IfulcrumInterface FA = IfulcrumInterface(_FuclrumOnwardAddress);\n        uint FulcrumTokens = FA.mintWithToken(_towhomtoissue, _destTokenAddress, remaining_tokens, maxPrice);\n        emit FulcrumTokensMinted(FulcrumTokens);\n        return FulcrumTokens;\n    }\n    \n    // fx, in case something goes wrong\n    function inCaseTokengetsStuck(IERC20 _TokenAddress) onlyOwner public {\n        uint qty = _TokenAddress.balanceOf(address(this));\n        _TokenAddress.transfer(owner, qty);\n    }\n    \n    \n    // - fallback function\n    function() external payable {\n        revert(\"not allowed to send ETH to this address\");\n    }\n    \n\n    // - to Pause the contract\n    function toggleContractActive() onlyOwner public {\n        stopped = !stopped;\n    }\n    \n    // - to withdraw any ETH balance sitting in the contract\n    function withdraw() onlyOwner public{\n        owner.transfer(address(this).balance);\n    }\n    \n    function destruct() onlyOwner public{\n        selfdestruct(owner);\n    }\n\n    /**\n     * @return true if `msg.sender` is the owner of the contract.\n     */\n    function isOwner() public view returns (bool) {\n        return msg.sender == owner;\n    }\n\n    /**\n     * @dev Transfers ownership of the contract to a new account (`newOwner`).\n     * Can only be called by the current owner.\n     */\n    function transferOwnership(address payable newOwner) public onlyOwner {\n        _transferOwnership(newOwner);\n    }\n\n    /**\n     * @dev Transfers ownership of the contract to a new account (`newOwner`).\n     */\n    function _transferOwnership(address payable newOwner) internal {\n        require(newOwner != address(0), \"Ownable: new owner is the zero address\");\n        owner = newOwner;\n    }\n \n}",
  "sourcePath": "contracts/UpdatedZaps/Current WIP/Invest2FulcrumV3_upgradable.sol",
  "abi": [
    {
      "anonymous": false,
      "inputs": [
        {
          "indexed": false,
          "internalType": "uint256",
          "name": "",
          "type": "uint256"
        }
      ],
      "name": "FulcrumTokensMinted",
      "type": "event"
    },
    {
      "payable": true,
      "stateMutability": "payable",
      "type": "fallback"
    },
    {
      "constant": true,
      "inputs": [],
      "name": "KyberInterfaceAddress",
      "outputs": [
        {
          "internalType": "contract IKyberInterface",
          "name": "",
          "type": "address"
        }
      ],
      "payable": false,
      "stateMutability": "view",
      "type": "function"
    },
    {
      "constant": false,
      "inputs": [
        {
          "internalType": "address",
          "name": "_FuclrumOnwardAddress",
          "type": "address"
        },
        {
          "internalType": "address",
          "name": "_destTokenAddress",
          "type": "address"
        },
        {
          "internalType": "uint256",
          "name": "_slippage",
          "type": "uint256"
        },
        {
          "internalType": "address",
          "name": "_towhomtoissue",
          "type": "address"
        }
      ],
      "name": "LetsInvest",
      "outputs": [
        {
          "internalType": "uint256",
          "name": "",
          "type": "uint256"
        }
      ],
      "payable": true,
      "stateMutability": "payable",
      "type": "function"
    },
    {
      "constant": false,
      "inputs": [],
      "name": "destruct",
      "outputs": [],
      "payable": false,
      "stateMutability": "nonpayable",
      "type": "function"
    },
    {
      "constant": true,
      "inputs": [],
      "name": "dzGoodwillAddress",
      "outputs": [
        {
          "internalType": "address",
          "name": "",
          "type": "address"
        }
      ],
      "payable": false,
      "stateMutability": "view",
      "type": "function"
    },
    {
      "constant": true,
      "inputs": [],
      "name": "goodwillInBasisPoints",
      "outputs": [
        {
          "internalType": "uint16",
          "name": "",
          "type": "uint16"
        }
      ],
      "payable": false,
      "stateMutability": "view",
      "type": "function"
    },
    {
      "constant": false,
      "inputs": [
        {
          "internalType": "contract IERC20",
          "name": "_TokenAddress",
          "type": "address"
        }
      ],
      "name": "inCaseTokengetsStuck",
      "outputs": [],
      "payable": false,
      "stateMutability": "nonpayable",
      "type": "function"
    },
    {
      "constant": false,
      "inputs": [
        {
          "internalType": "contract IKyberInterface",
          "name": "_KyberInterfaceAddress",
          "type": "address"
        },
        {
          "internalType": "uint16",
          "name": "_goodwillInBasisPoints",
          "type": "uint16"
        },
        {
          "internalType": "address",
          "name": "_dzGoodwillAddress",
          "type": "address"
        }
      ],
      "name": "initialize",
      "outputs": [],
      "payable": false,
      "stateMutability": "nonpayable",
      "type": "function"
    },
    {
      "constant": false,
      "inputs": [],
      "name": "initialize",
      "outputs": [],
      "payable": false,
      "stateMutability": "nonpayable",
      "type": "function"
    },
    {
      "constant": true,
      "inputs": [],
      "name": "isOwner",
      "outputs": [
        {
          "internalType": "bool",
          "name": "",
          "type": "bool"
        }
      ],
      "payable": false,
      "stateMutability": "view",
      "type": "function"
    },
    {
      "constant": true,
      "inputs": [],
      "name": "maxPrice",
      "outputs": [
        {
          "internalType": "uint256",
          "name": "",
          "type": "uint256"
        }
      ],
      "payable": false,
      "stateMutability": "view",
      "type": "function"
    },
    {
      "constant": true,
      "inputs": [],
      "name": "owner",
      "outputs": [
        {
          "internalType": "address payable",
          "name": "",
          "type": "address"
        }
      ],
      "payable": false,
      "stateMutability": "view",
      "type": "function"
    },
    {
      "constant": false,
      "inputs": [
        {
          "internalType": "address",
          "name": "_new_KyberInterfaceAddress",
          "type": "address"
        }
      ],
      "name": "set_KyberInterfaceAddress",
      "outputs": [],
      "payable": false,
      "stateMutability": "nonpayable",
      "type": "function"
    },
    {
      "constant": false,
      "inputs": [
        {
          "internalType": "address",
          "name": "_new_dzGoodwillAddress",
          "type": "address"
        }
      ],
      "name": "set_dzGoodwillAddress",
      "outputs": [],
      "payable": false,
      "stateMutability": "nonpayable",
      "type": "function"
    },
    {
      "constant": false,
      "inputs": [
        {
          "internalType": "uint16",
          "name": "_new_goodwillInBasisPoints",
          "type": "uint16"
        }
      ],
      "name": "set_goodwillInBasisPoints",
      "outputs": [],
      "payable": false,
      "stateMutability": "nonpayable",
      "type": "function"
    },
    {
      "constant": false,
      "inputs": [
        {
          "internalType": "uint256",
          "name": "_insertValueinWEI",
          "type": "uint256"
        }
      ],
      "name": "set_maxPrice",
      "outputs": [],
      "payable": false,
      "stateMutability": "nonpayable",
      "type": "function"
    },
    {
      "constant": false,
      "inputs": [],
      "name": "toggleContractActive",
      "outputs": [],
      "payable": false,
      "stateMutability": "nonpayable",
      "type": "function"
    },
    {
      "constant": false,
      "inputs": [
        {
          "internalType": "address payable",
          "name": "newOwner",
          "type": "address"
        }
      ],
      "name": "transferOwnership",
      "outputs": [],
      "payable": false,
      "stateMutability": "nonpayable",
      "type": "function"
    },
    {
      "constant": false,
      "inputs": [],
      "name": "withdraw",
      "outputs": [],
      "payable": false,
      "stateMutability": "nonpayable",
      "type": "function"
    }
  ],
  "bytecode": "0x608060405234801561001057600080fd5b50611a58806100206000396000f3fe6080604052600436106101095760003560e01c80638129fc1c11610095578063affbae1e11610064578063affbae1e146104e6578063df685d3314610519578063e38d6b5c14610570578063f2fde38b1461059b578063f391c1ad146105ec57610109565b80638129fc1c146103f85780638da5cb5b1461040f5780638eba8c0c146104665780638f32d59b146104b757610109565b80633ccfd60b116100dc5780633ccfd60b14610218578063551196d51461022f5780636305111d14610280578063708c0db91461032257806370d73755146103a157610109565b80631385d24c1461015a5780632b68b9c6146101715780632c634be114610188578063375b0362146101d9575b6040517f08c379a00000000000000000000000000000000000000000000000000000000081526004018080602001828103825260278152602001806119fd6027913960400191505060405180910390fd5b34801561016657600080fd5b5061016f610627565b005b34801561017d57600080fd5b506101866106b0565b005b34801561019457600080fd5b506101d7600480360360208110156101ab57600080fd5b81019080803573ffffffffffffffffffffffffffffffffffffffff169060200190929190505050610748565b005b3480156101e557600080fd5b50610216600480360360208110156101fc57600080fd5b81019080803561ffff1690602001909291905050506107e9565b005b34801561022457600080fd5b5061022d6108d4565b005b34801561023b57600080fd5b5061027e6004803603602081101561025257600080fd5b81019080803573ffffffffffffffffffffffffffffffffffffffff1690602001909291905050506109b3565b005b61030c6004803603608081101561029657600080fd5b81019080803573ffffffffffffffffffffffffffffffffffffffff169060200190929190803573ffffffffffffffffffffffffffffffffffffffff16906020019092919080359060200190929190803573ffffffffffffffffffffffffffffffffffffffff169060200190929190505050610bb5565b6040518082815260200191505060405180910390f35b34801561032e57600080fd5b5061039f6004803603606081101561034557600080fd5b81019080803573ffffffffffffffffffffffffffffffffffffffff169060200190929190803561ffff169060200190929190803573ffffffffffffffffffffffffffffffffffffffff16906020019092919050505061104e565b005b3480156103ad57600080fd5b506103b661125b565b604051808273ffffffffffffffffffffffffffffffffffffffff1673ffffffffffffffffffffffffffffffffffffffff16815260200191505060405180910390f35b34801561040457600080fd5b5061040d611281565b005b34801561041b57600080fd5b50610424611388565b604051808273ffffffffffffffffffffffffffffffffffffffff1673ffffffffffffffffffffffffffffffffffffffff16815260200191505060405180910390f35b34801561047257600080fd5b506104b56004803603602081101561048957600080fd5b81019080803573ffffffffffffffffffffffffffffffffffffffff1690602001909291905050506113ae565b005b3480156104c357600080fd5b506104cc61144f565b604051808215151515815260200191505060405180910390f35b3480156104f257600080fd5b506104fb6114a7565b604051808261ffff1661ffff16815260200191505060405180910390f35b34801561052557600080fd5b5061052e6114bb565b604051808273ffffffffffffffffffffffffffffffffffffffff1673ffffffffffffffffffffffffffffffffffffffff16815260200191505060405180910390f35b34801561057c57600080fd5b506105856114e1565b6040518082815260200191505060405180910390f35b3480156105a757600080fd5b506105ea600480360360208110156105be57600080fd5b81019080803573ffffffffffffffffffffffffffffffffffffffff1690602001909291905050506114e7565b005b3480156105f857600080fd5b506106256004803603602081101561060f57600080fd5b8101908080359060200190929190505050611550565b005b61062f61144f565b610684576040517f08c379a000000000000000000000000000000000000000000000000000000000815260040180806020018281038252602c815260200180611982602c913960400191505060405180910390fd5b606660009054906101000a900460ff1615606660006101000a81548160ff021916908315150217905550565b6106b861144f565b61070d576040517f08c379a000000000000000000000000000000000000000000000000000000000815260040180806020018281038252602c815260200180611982602c913960400191505060405180910390fd5b606660019054906101000a900473ffffffffffffffffffffffffffffffffffffffff1673ffffffffffffffffffffffffffffffffffffffff16ff5b61075061144f565b6107a5576040517f08c379a000000000000000000000000000000000000000000000000000000000815260040180806020018281038252602c815260200180611982602c913960400191505060405180910390fd5b80606860006101000a81548173ffffffffffffffffffffffffffffffffffffffff021916908373ffffffffffffffffffffffffffffffffffffffff16021790555050565b6107f161144f565b610846576040517f08c379a000000000000000000000000000000000000000000000000000000000815260040180806020018281038252602c815260200180611982602c913960400191505060405180910390fd5b6127108161ffff1610801561085f575060008161ffff16115b6108b4576040517f08c379a00000000000000000000000000000000000000000000000000000000081526004018080602001828103825260298152602001806119596029913960400191505060405180910390fd5b80606660156101000a81548161ffff021916908361ffff16021790555050565b6108dc61144f565b610931576040517f08c379a000000000000000000000000000000000000000000000000000000000815260040180806020018281038252602c815260200180611982602c913960400191505060405180910390fd5b606660019054906101000a900473ffffffffffffffffffffffffffffffffffffffff1673ffffffffffffffffffffffffffffffffffffffff166108fc3073ffffffffffffffffffffffffffffffffffffffff16319081150290604051600060405180830381858888f193505050501580156109b0573d6000803e3d6000fd5b50565b6109bb61144f565b610a10576040517f08c379a000000000000000000000000000000000000000000000000000000000815260040180806020018281038252602c815260200180611982602c913960400191505060405180910390fd5b60008173ffffffffffffffffffffffffffffffffffffffff166370a08231306040518263ffffffff1660e01b8152600401808273ffffffffffffffffffffffffffffffffffffffff1673ffffffffffffffffffffffffffffffffffffffff16815260200191505060206040518083038186803b158015610a8f57600080fd5b505afa158015610aa3573d6000803e3d6000fd5b505050506040513d6020811015610ab957600080fd5b810190808051906020019092919050505090508173ffffffffffffffffffffffffffffffffffffffff1663a9059cbb606660019054906101000a900473ffffffffffffffffffffffffffffffffffffffff16836040518363ffffffff1660e01b8152600401808373ffffffffffffffffffffffffffffffffffffffff1673ffffffffffffffffffffffffffffffffffffffff16815260200182815260200192505050602060405180830381600087803b158015610b7557600080fd5b505af1158015610b89573d6000803e3d6000fd5b505050506040513d6020811015610b9f57600080fd5b8101908080519060200190929190505050505050565b600080606860009054906101000a900473ffffffffffffffffffffffffffffffffffffffff1673ffffffffffffffffffffffffffffffffffffffff1663885a3a153473eeeeeeeeeeeeeeeeeeeeeeeeeeeeeeeeeeeeeeee8888306040518663ffffffff1660e01b8152600401808573ffffffffffffffffffffffffffffffffffffffff1673ffffffffffffffffffffffffffffffffffffffff1681526020018473ffffffffffffffffffffffffffffffffffffffff1673ffffffffffffffffffffffffffffffffffffffff1681526020018381526020018273ffffffffffffffffffffffffffffffffffffffff1673ffffffffffffffffffffffffffffffffffffffff1681526020019450505050506020604051808303818588803b158015610cdd57600080fd5b505af1158015610cf1573d6000803e3d6000fd5b50505050506040513d6020811015610d0857600080fd5b810190808051906020019092919050505090506000610d46610d3e83606660159054906101000a900461ffff1661ffff166115b7565b61271061163d565b90508573ffffffffffffffffffffffffffffffffffffffff1663a9059cbb606760009054906101000a900473ffffffffffffffffffffffffffffffffffffffff16836040518363ffffffff1660e01b8152600401808373ffffffffffffffffffffffffffffffffffffffff1673ffffffffffffffffffffffffffffffffffffffff16815260200182815260200192505050602060405180830381600087803b158015610df157600080fd5b505af1158015610e05573d6000803e3d6000fd5b505050506040513d6020811015610e1b57600080fd5b8101908080519060200190929190505050506000610e398383611687565b90508673ffffffffffffffffffffffffffffffffffffffff1663095ea7b389836040518363ffffffff1660e01b8152600401808373ffffffffffffffffffffffffffffffffffffffff1673ffffffffffffffffffffffffffffffffffffffff16815260200182815260200192505050602060405180830381600087803b158015610ec257600080fd5b505af1158015610ed6573d6000803e3d6000fd5b505050506040513d6020811015610eec57600080fd5b810190808051906020019092919050505050600088905060008173ffffffffffffffffffffffffffffffffffffffff166339039497888b866069546040518563ffffffff1660e01b8152600401808573ffffffffffffffffffffffffffffffffffffffff1673ffffffffffffffffffffffffffffffffffffffff1681526020018473ffffffffffffffffffffffffffffffffffffffff1673ffffffffffffffffffffffffffffffffffffffff168152602001838152602001828152602001945050505050602060405180830381600087803b158015610fca57600080fd5b505af1158015610fde573d6000803e3d6000fd5b505050506040513d6020811015610ff457600080fd5b810190808051906020019092919050505090507f491135cf6a4c83540c47a53d038eec446d4925822786e6895c5f96acd3dbb3db816040518082815260200191505060405180910390a18095505050505050949350505050565b600060019054906101000a900460ff168061106d575061106c6116d1565b5b8061108457506000809054906101000a900460ff16155b6110d9576040517f08c379a000000000000000000000000000000000000000000000000000000000815260040180806020018281038252602e8152602001806119cf602e913960400191505060405180910390fd5b60008060019054906101000a900460ff161590508015611129576001600060016101000a81548160ff02191690831515021790555060016000806101000a81548160ff0219169083151502179055505b611131611281565b6000606660006101000a81548160ff02191690831515021790555033606660016101000a81548173ffffffffffffffffffffffffffffffffffffffff021916908373ffffffffffffffffffffffffffffffffffffffff16021790555082606660156101000a81548161ffff021916908361ffff16021790555081606760006101000a81548173ffffffffffffffffffffffffffffffffffffffff021916908373ffffffffffffffffffffffffffffffffffffffff16021790555083606860006101000a81548173ffffffffffffffffffffffffffffffffffffffff021916908373ffffffffffffffffffffffffffffffffffffffff160217905550600060698190555080156112555760008060016101000a81548160ff0219169083151502179055505b50505050565b606860009054906101000a900473ffffffffffffffffffffffffffffffffffffffff1681565b600060019054906101000a900460ff16806112a0575061129f6116d1565b5b806112b757506000809054906101000a900460ff16155b61130c576040517f08c379a000000000000000000000000000000000000000000000000000000000815260040180806020018281038252602e8152602001806119cf602e913960400191505060405180910390fd5b60008060019054906101000a900460ff16159050801561135c576001600060016101000a81548160ff02191690831515021790555060016000806101000a81548160ff0219169083151502179055505b600160338190555080156113855760008060016101000a81548160ff0219169083151502179055505b50565b606660019054906101000a900473ffffffffffffffffffffffffffffffffffffffff1681565b6113b661144f565b61140b576040517f08c379a000000000000000000000000000000000000000000000000000000000815260040180806020018281038252602c815260200180611982602c913960400191505060405180910390fd5b80606760006101000a81548173ffffffffffffffffffffffffffffffffffffffff021916908373ffffffffffffffffffffffffffffffffffffffff16021790555050565b6000606660019054906101000a900473ffffffffffffffffffffffffffffffffffffffff1673ffffffffffffffffffffffffffffffffffffffff163373ffffffffffffffffffffffffffffffffffffffff1614905090565b606660159054906101000a900461ffff1681565b606760009054906101000a900473ffffffffffffffffffffffffffffffffffffffff1681565b60695481565b6114ef61144f565b611544576040517f08c379a000000000000000000000000000000000000000000000000000000000815260040180806020018281038252602c815260200180611982602c913960400191505060405180910390fd5b61154d816116e2565b50565b61155861144f565b6115ad576040517f08c379a000000000000000000000000000000000000000000000000000000000815260040180806020018281038252602c815260200180611982602c913960400191505060405180910390fd5b8060698190555050565b6000808314156115ca5760009050611637565b60008284029050828482816115db57fe5b0414611632576040517f08c379a00000000000000000000000000000000000000000000000000000000081526004018080602001828103825260218152602001806119ae6021913960400191505060405180910390fd5b809150505b92915050565b600061167f83836040518060400160405280601a81526020017f536166654d6174683a206469766973696f6e206279207a65726f0000000000008152506117ac565b905092915050565b60006116c983836040518060400160405280601e81526020017f536166654d6174683a207375627472616374696f6e206f766572666c6f770000815250611872565b905092915050565b600080303b90506000811491505090565b600073ffffffffffffffffffffffffffffffffffffffff168173ffffffffffffffffffffffffffffffffffffffff161415611768576040517f08c379a00000000000000000000000000000000000000000000000000000000081526004018080602001828103825260268152602001806119336026913960400191505060405180910390fd5b80606660016101000a81548173ffffffffffffffffffffffffffffffffffffffff021916908373ffffffffffffffffffffffffffffffffffffffff16021790555050565b60008083118290611858576040517f08c379a00000000000000000000000000000000000000000000000000000000081526004018080602001828103825283818151815260200191508051906020019080838360005b8381101561181d578082015181840152602081019050611802565b50505050905090810190601f16801561184a5780820380516001836020036101000a031916815260200191505b509250505060405180910390fd5b50600083858161186457fe5b049050809150509392505050565b600083831115829061191f576040517f08c379a00000000000000000000000000000000000000000000000000000000081526004018080602001828103825283818151815260200191508051906020019080838360005b838110156118e45780820151818401526020810190506118c9565b50505050905090810190601f1680156119115780820380516001836020036101000a031916815260200191505b509250505060405180910390fd5b506000838503905080915050939250505056fe4f776e61626c653a206e6577206f776e657220697320746865207a65726f20616464726573734e6f7420636f727265637420676f6f6477696c6c207261746520696e20626173697320506f696e7473796f7520617265206e6f7420617574686f726973656420746f2063616c6c20746869732066756e6374696f6e536166654d6174683a206d756c7469706c69636174696f6e206f766572666c6f77436f6e747261637420696e7374616e63652068617320616c7265616479206265656e20696e697469616c697a65646e6f7420616c6c6f77656420746f2073656e642045544820746f20746869732061646472657373a265627a7a723158207baa3cf39f6f26abecf4428490231c26f9e8e4e82d572200952d50f81688c83064736f6c634300050d0032",
  "compiler": {
    "name": "solc",
    "version": "0.5.13+commit.5b0b510c.Emscripten.clang",
    "optimizer": {
      "enabled": false,
      "runs": 200
    },
    "evmVersion": "petersburg"
  }
}