{
  "fileName": "KyberInterfaceV3_Upgradable.sol",
  "contractName": "KyberInterace",
  "source": "// Copyright (C) 2019, 2020 dipeshsukhani, nodarjonashi, toshsharma, suhailg\n\n// This program is free software: you can redistribute it and/or modify\n// it under the terms of the GNU Affero General Public License as published by\n// the Free Software Foundation, either version 2 of the License, or\n// (at your option) any later version.\n//\n// This program is distributed in the hope that it will be useful,\n// but WITHOUT ANY WARRANTY; without even the implied warranty of\n// MERCHANTABILITY or FITNESS FOR A PARTICULAR PURPOSE.  See the\n// GNU Affero General Public License for more details.\n//\n// Visit <https://www.gnu.org/licenses/>for a copy of the GNU Affero General Public License\n\n/**\n * WARNING: This is an upgradable contract. Be careful not to disrupt\n * the existing storage layout when making upgrades to the contract. In particular,\n * existing fields should not be removed and should not have their types changed.\n * The order of field declarations must not be changed, and new fields must be added\n * below all existing declarations.\n *\n * The base contracts and the order in which they are declared must not be changed.\n * New fields must not be added to base contracts (unless the base contract has\n * reserved placeholder fields for this purpose).\n *\n * See https://docs.zeppelinos.org/docs/writing_contracts.html for more info.\n*/\n\npragma solidity ^0.5.0;\n\n\nimport \"../../../node_modules/@openzeppelin/upgrades/contracts/Initializable.sol\";\nimport \"../../../node_modules/@openzeppelin/contracts-ethereum-package/contracts/math/SafeMath.sol\";\nimport \"../../../node_modules/@openzeppelin/contracts-ethereum-package/contracts/token/ERC20/IERC20.sol\";\n\n\ninterface IKyberNetworkProxy {\n    function getExpectedRate(IERC20 src, IERC20 dest, uint srcQty) external view returns (uint expectedRate, uint slippageRate);\n    function trade(IERC20 src, uint srcAmount, IERC20 dest, address destAddress, uint maxDestAmount, uint minConversionRate, address walletId) external payable returns (uint);\n}\n\ninterface IuniswapFactory {\n    function getExchange(address token) external view returns (address exchange);\n}\n\ninterface IuniswapExchange {\n    function getEthToTokenInputPrice(uint256 eth_sold) external view returns (uint256 tokens_bought);\n    function ethToTokenSwapInput(uint256 min_tokens, uint256 deadline) external payable returns (uint256  tokens_bought);\n    function balanceOf(address _owner) external view returns (uint256);\n    function transfer(address _to, uint256 _value) external returns (bool);\n    function addLiquidity(uint256 min_liquidity, uint256 max_tokens, uint256 deadline) external payable returns (uint256);\n}\n\n\ncontract KyberInterace is Initializable {\n    using SafeMath for uint;\n    \n    // state variables\n    // - THESE MUST ALWAYS STAY IN THE SAME LAYOUT\n    bool private stopped = false;\n    address payable public owner;\n    IKyberNetworkProxy public kyberNetworkProxyContract;\n    address private _wallet;\n    IuniswapFactory public UniSwapFactoryAddress;\n\n        \n    // events\n    event TokensReceived(uint, uint);\n    \n    // circuit breaker modifiers\n    modifier stopInEmergency {if (!stopped) _;}\n    modifier onlyInEmergency {if (stopped) _;}\n    modifier onlyOwner() {\n        require(isOwner(), \"you are not authorised to call this function\");\n        _;\n    }\n\n    function initialize(address _walletAddress) initializer public {\n        _wallet = _walletAddress;\n        owner = msg.sender;\n        kyberNetworkProxyContract = IKyberNetworkProxy(0x818E6FECD516Ecc3849DAf6845e3EC868087B755);\n    }\n\n    // for setting the wallet address which has been registered with Kyber\n    function set_wallet (address _new_wallet) public onlyOwner {\n        _wallet = _new_wallet;\n    }\n\n    // for getting the wallet address which has been registered with Kyber\n    function get_wallet() public view onlyOwner returns (address) {\n        return _wallet;\n    }\n    \n    // this function should be called should we ever want to change the kyberNetworkProxyContract address\n    function set_kyberNetworkProxyContract(IKyberNetworkProxy _kyberNetworkProxyContract) onlyOwner public {\n        kyberNetworkProxyContract = _kyberNetworkProxyContract;\n    }\n    \n     \n    function swapTokentoToken(IERC20 _srcTokenAddressIERC20, IERC20 _dstTokenAddress, uint _slippageValue, address _toWhomToIssue) public payable stopInEmergency returns (uint) {\n        require(_wallet != address(0), \"internal error, contact owner\");\n        require(_slippageValue < 100 && _slippageValue >= 0, \"slippage value absurd\");\n        // coversion of ETH to the ERC20 Token\n        // IuniswapExchange UniSwapExchangeContractAddress = IuniswapExchange(UniSwapFactoryAddress.getExchange(address(_dstTokenAddress)));\n        // uint min_Tokens = SafeMath.div(SafeMath.mul(UniSwapExchangeContractAddress.getEthToTokenInputPrice(msg.value),95),100);\n        // uint deadLineToConvert = SafeMath.add(now,1800);\n        // UniSwapExchangeContractAddress.ethToTokenSwapInput.value(msg.value)(min_Tokens,deadLineToConvert);\n        // uint ERC20TokenHoldings = _dstTokenAddress.balanceOf(address(this));\n        // _dstTokenAddress.transfer(_toWhomToIssue,ERC20TokenHoldings);\n        // require (ERC20TokenHoldings > 0, \"the conversion did not happen as planned\");\n        // return ERC20TokenHoldings;\n\n        uint minConversionRate;\n        uint slippageRate;\n        (minConversionRate,slippageRate) = kyberNetworkProxyContract.getExpectedRate(_srcTokenAddressIERC20, _dstTokenAddress, msg.value);\n        uint realisedValue = SafeMath.sub(100,_slippageValue);\n        uint destAmount = kyberNetworkProxyContract.trade.value(msg.value)(_srcTokenAddressIERC20, msg.value, _dstTokenAddress, _toWhomToIssue, 2**255, (SafeMath.div(SafeMath.mul(minConversionRate,realisedValue),100)), _wallet);\n        return destAmount;\n    }\n\n\n    \n    \n    // fx, in case something goes wrong {hint! learnt from experience}\n    function inCaseTokengetsStuck(IERC20 _TokenAddress) onlyOwner public {\n        uint qty = _TokenAddress.balanceOf(address(this));\n        _TokenAddress.transfer(owner, qty);\n    }\n    \n    \n    // - fallback function let you / anyone send ETH to this wallet without the need to call any function\n    function() external payable {\n        revert(\"not allowed to send ETH to this address\");\n    }\n    \n\n    // - to Pause the contract\n    function toggleContractActive() onlyOwner public {\n        stopped = !stopped;\n    }\n    \n    // - to withdraw any ETH balance sitting in the contract\n    function withdraw() onlyOwner public{\n        owner.transfer(address(this).balance);\n    }\n    \n    function destruct() onlyOwner public{\n        selfdestruct(owner);\n    }\n\n    /**\n     * @return true if `msg.sender` is the owner of the contract.\n     */\n    function isOwner() public view returns (bool) {\n        return msg.sender == owner;\n    }\n\n    /**\n     * @dev Transfers ownership of the contract to a new account (`newOwner`).\n     * Can only be called by the current owner.\n     */\n    function transferOwnership(address payable newOwner) public onlyOwner {\n        _transferOwnership(newOwner);\n    }\n\n    /**\n     * @dev Transfers ownership of the contract to a new account (`newOwner`).\n     */\n    function _transferOwnership(address payable newOwner) internal {\n        require(newOwner != address(0), \"Ownable: new owner is the zero address\");\n        owner = newOwner;\n    }\n\n    // after the upgrade\n    function set_UniswapFactorAddress() public onlyOwner {\n        UniSwapFactoryAddress = IuniswapFactory(0xc0a47dFe034B400B47bDaD5FecDa2621de6c4d95);\n    }\n     \n\n}\n",
  "sourcePath": "contracts/UpdatedZaps/Done/KyberInterfaceV3_Upgradable.sol",
  "abi": [
    {
      "anonymous": false,
      "inputs": [
        {
          "indexed": false,
          "internalType": "uint256",
          "name": "",
          "type": "uint256"
        },
        {
          "indexed": false,
          "internalType": "uint256",
          "name": "",
          "type": "uint256"
        }
      ],
      "name": "TokensReceived",
      "type": "event"
    },
    {
      "payable": true,
      "stateMutability": "payable",
      "type": "fallback"
    },
    {
      "constant": true,
      "inputs": [],
      "name": "UniSwapFactoryAddress",
      "outputs": [
        {
          "internalType": "contract IuniswapFactory",
          "name": "",
          "type": "address"
        }
      ],
      "payable": false,
      "stateMutability": "view",
      "type": "function"
    },
    {
      "constant": false,
      "inputs": [],
      "name": "destruct",
      "outputs": [],
      "payable": false,
      "stateMutability": "nonpayable",
      "type": "function"
    },
    {
      "constant": true,
      "inputs": [],
      "name": "get_wallet",
      "outputs": [
        {
          "internalType": "address",
          "name": "",
          "type": "address"
        }
      ],
      "payable": false,
      "stateMutability": "view",
      "type": "function"
    },
    {
      "constant": false,
      "inputs": [
        {
          "internalType": "contract IERC20",
          "name": "_TokenAddress",
          "type": "address"
        }
      ],
      "name": "inCaseTokengetsStuck",
      "outputs": [],
      "payable": false,
      "stateMutability": "nonpayable",
      "type": "function"
    },
    {
      "constant": false,
      "inputs": [
        {
          "internalType": "address",
          "name": "_walletAddress",
          "type": "address"
        }
      ],
      "name": "initialize",
      "outputs": [],
      "payable": false,
      "stateMutability": "nonpayable",
      "type": "function"
    },
    {
      "constant": true,
      "inputs": [],
      "name": "isOwner",
      "outputs": [
        {
          "internalType": "bool",
          "name": "",
          "type": "bool"
        }
      ],
      "payable": false,
      "stateMutability": "view",
      "type": "function"
    },
    {
      "constant": true,
      "inputs": [],
      "name": "kyberNetworkProxyContract",
      "outputs": [
        {
          "internalType": "contract IKyberNetworkProxy",
          "name": "",
          "type": "address"
        }
      ],
      "payable": false,
      "stateMutability": "view",
      "type": "function"
    },
    {
      "constant": true,
      "inputs": [],
      "name": "owner",
      "outputs": [
        {
          "internalType": "address payable",
          "name": "",
          "type": "address"
        }
      ],
      "payable": false,
      "stateMutability": "view",
      "type": "function"
    },
    {
      "constant": false,
      "inputs": [],
      "name": "set_UniswapFactorAddress",
      "outputs": [],
      "payable": false,
      "stateMutability": "nonpayable",
      "type": "function"
    },
    {
      "constant": false,
      "inputs": [
        {
          "internalType": "contract IKyberNetworkProxy",
          "name": "_kyberNetworkProxyContract",
          "type": "address"
        }
      ],
      "name": "set_kyberNetworkProxyContract",
      "outputs": [],
      "payable": false,
      "stateMutability": "nonpayable",
      "type": "function"
    },
    {
      "constant": false,
      "inputs": [
        {
          "internalType": "address",
          "name": "_new_wallet",
          "type": "address"
        }
      ],
      "name": "set_wallet",
      "outputs": [],
      "payable": false,
      "stateMutability": "nonpayable",
      "type": "function"
    },
    {
      "constant": false,
      "inputs": [
        {
          "internalType": "contract IERC20",
          "name": "_srcTokenAddressIERC20",
          "type": "address"
        },
        {
          "internalType": "contract IERC20",
          "name": "_dstTokenAddress",
          "type": "address"
        },
        {
          "internalType": "uint256",
          "name": "_slippageValue",
          "type": "uint256"
        },
        {
          "internalType": "address",
          "name": "_toWhomToIssue",
          "type": "address"
        }
      ],
      "name": "swapTokentoToken",
      "outputs": [
        {
          "internalType": "uint256",
          "name": "",
          "type": "uint256"
        }
      ],
      "payable": true,
      "stateMutability": "payable",
      "type": "function"
    },
    {
      "constant": false,
      "inputs": [],
      "name": "toggleContractActive",
      "outputs": [],
      "payable": false,
      "stateMutability": "nonpayable",
      "type": "function"
    },
    {
      "constant": false,
      "inputs": [
        {
          "internalType": "address payable",
          "name": "newOwner",
          "type": "address"
        }
      ],
      "name": "transferOwnership",
      "outputs": [],
      "payable": false,
      "stateMutability": "nonpayable",
      "type": "function"
    },
    {
      "constant": false,
      "inputs": [],
      "name": "withdraw",
      "outputs": [],
      "payable": false,
      "stateMutability": "nonpayable",
      "type": "function"
    }
  ],
  "bytecode": "0x60806040526033805460ff1916905534801561001a57600080fd5b50610ec38061002a6000396000f3fe6080604052600436106100e85760003560e01c8063551196d51161008a5780638da5cb5b116100595780638da5cb5b146102b75780638f32d59b146102cc578063c4d66de8146102f5578063f2fde38b14610328576100e8565b8063551196d5146101ee578063785250da14610221578063885a3a151461023657806389057d7814610284576100e8565b80632b68b9c6116100c65780632b68b9c61461017c5780633ccfd60b14610191578063484e4095146101a6578063525d509e146101d9576100e8565b80630316caf71461011f5780631385d24c14610136578063147488301461014b575b60405162461bcd60e51b8152600401808060200182810382526027815260200180610e686027913960400191505060405180910390fd5b34801561012b57600080fd5b5061013461035b565b005b34801561014257600080fd5b506101346103c6565b34801561015757600080fd5b5061016061041d565b604080516001600160a01b039092168252519081900360200190f35b34801561018857600080fd5b50610134610472565b34801561019d57600080fd5b506101346104c8565b3480156101b257600080fd5b50610134600480360360208110156101c957600080fd5b50356001600160a01b031661054f565b3480156101e557600080fd5b506101606105b4565b3480156101fa57600080fd5b506101346004803603602081101561021157600080fd5b50356001600160a01b03166105c3565b34801561022d57600080fd5b5061016061070a565b6102726004803603608081101561024c57600080fd5b506001600160a01b03813581169160208101358216916040820135916060013516610719565b60408051918252519081900360200190f35b34801561029057600080fd5b50610134600480360360208110156102a757600080fd5b50356001600160a01b0316610983565b3480156102c357600080fd5b506101606109e8565b3480156102d857600080fd5b506102e16109fc565b604080519115158252519081900360200190f35b34801561030157600080fd5b506101346004803603602081101561031857600080fd5b50356001600160a01b0316610a12565b34801561033457600080fd5b506101346004803603602081101561034b57600080fd5b50356001600160a01b0316610b18565b6103636109fc565b61039e5760405162461bcd60e51b815260040180806020018281038252602c815260200180610ded602c913960400191505060405180910390fd5b603680546001600160a01b03191673c0a47dfe034b400b47bdad5fecda2621de6c4d95179055565b6103ce6109fc565b6104095760405162461bcd60e51b815260040180806020018281038252602c815260200180610ded602c913960400191505060405180910390fd5b6033805460ff19811660ff90911615179055565b60006104276109fc565b6104625760405162461bcd60e51b815260040180806020018281038252602c815260200180610ded602c913960400191505060405180910390fd5b506035546001600160a01b031690565b61047a6109fc565b6104b55760405162461bcd60e51b815260040180806020018281038252602c815260200180610ded602c913960400191505060405180910390fd5b60335461010090046001600160a01b0316ff5b6104d06109fc565b61050b5760405162461bcd60e51b815260040180806020018281038252602c815260200180610ded602c913960400191505060405180910390fd5b6033546040516001600160a01b036101009092049190911690303180156108fc02916000818181858888f1935050505015801561054c573d6000803e3d6000fd5b50565b6105576109fc565b6105925760405162461bcd60e51b815260040180806020018281038252602c815260200180610ded602c913960400191505060405180910390fd5b603580546001600160a01b0319166001600160a01b0392909216919091179055565b6036546001600160a01b031681565b6105cb6109fc565b6106065760405162461bcd60e51b815260040180806020018281038252602c815260200180610ded602c913960400191505060405180910390fd5b604080516370a0823160e01b815230600482015290516000916001600160a01b038416916370a0823191602480820192602092909190829003018186803b15801561065057600080fd5b505afa158015610664573d6000803e3d6000fd5b505050506040513d602081101561067a57600080fd5b50516033546040805163a9059cbb60e01b81526101009092046001600160a01b03908116600484015260248301849052905192935084169163a9059cbb916044808201926020929091908290030181600087803b1580156106da57600080fd5b505af11580156106ee573d6000803e3d6000fd5b505050506040513d602081101561070457600080fd5b50505050565b6034546001600160a01b031681565b60335460009060ff1661097b576035546001600160a01b0316610783576040805162461bcd60e51b815260206004820152601d60248201527f696e7465726e616c206572726f722c20636f6e74616374206f776e6572000000604482015290519081900360640190fd5b606483108015610791575060015b6107e2576040805162461bcd60e51b815260206004820152601560248201527f736c6970706167652076616c7565206162737572640000000000000000000000604482015290519081900360640190fd5b6034546040805163809a9e5560e01b81526001600160a01b03888116600483015287811660248301523460448301528251600094859492169263809a9e55926064808301939192829003018186803b15801561083d57600080fd5b505afa158015610851573d6000803e3d6000fd5b505050506040513d604081101561086757600080fd5b50805160209091015190925090506000610882606487610b64565b6034549091506000906001600160a01b031663cb3c28c7348b818c8b600160ff1b6108b76108b08d8c610baf565b6064610c08565b603554604080517fffffffff0000000000000000000000000000000000000000000000000000000060e08c901b1681526001600160a01b039889166004820152602481019790975294871660448701529286166064860152608485019190915260a48401529290921660c4820152905160e480830192602092919082900301818588803b15801561094757600080fd5b505af115801561095b573d6000803e3d6000fd5b50505050506040513d602081101561097257600080fd5b50519450505050505b949350505050565b61098b6109fc565b6109c65760405162461bcd60e51b815260040180806020018281038252602c815260200180610ded602c913960400191505060405180910390fd5b603480546001600160a01b0319166001600160a01b0392909216919091179055565b60335461010090046001600160a01b031681565b60335461010090046001600160a01b0316331490565b600054610100900460ff1680610a2b5750610a2b610c4a565b80610a39575060005460ff16155b610a745760405162461bcd60e51b815260040180806020018281038252602e815260200180610e3a602e913960400191505060405180910390fd5b600054610100900460ff16158015610a9f576000805460ff1961ff0019909116610100171660011790555b603580546001600160a01b0384166001600160a01b03199182161790915560338054336101000274ffffffffffffffffffffffffffffffffffffffff00199091161790556034805490911673818e6fecd516ecc3849daf6845e3ec868087b7551790558015610b14576000805461ff00191690555b5050565b610b206109fc565b610b5b5760405162461bcd60e51b815260040180806020018281038252602c815260200180610ded602c913960400191505060405180910390fd5b61054c81610c50565b6000610ba683836040518060400160405280601e81526020017f536166654d6174683a207375627472616374696f6e206f766572666c6f770000815250610cca565b90505b92915050565b600082610bbe57506000610ba9565b82820282848281610bcb57fe5b0414610ba65760405162461bcd60e51b8152600401808060200182810382526021815260200180610e196021913960400191505060405180910390fd5b6000610ba683836040518060400160405280601a81526020017f536166654d6174683a206469766973696f6e206279207a65726f000000000000815250610d61565b303b1590565b6001600160a01b038116610c955760405162461bcd60e51b8152600401808060200182810382526026815260200180610dc76026913960400191505060405180910390fd5b603380546001600160a01b039092166101000274ffffffffffffffffffffffffffffffffffffffff0019909216919091179055565b60008184841115610d595760405162461bcd60e51b81526004018080602001828103825283818151815260200191508051906020019080838360005b83811015610d1e578181015183820152602001610d06565b50505050905090810190601f168015610d4b5780820380516001836020036101000a031916815260200191505b509250505060405180910390fd5b505050900390565b60008183610db05760405162461bcd60e51b8152602060048201818152835160248401528351909283926044909101919085019080838360008315610d1e578181015183820152602001610d06565b506000838581610dbc57fe5b049594505050505056fe4f776e61626c653a206e6577206f776e657220697320746865207a65726f2061646472657373796f7520617265206e6f7420617574686f726973656420746f2063616c6c20746869732066756e6374696f6e536166654d6174683a206d756c7469706c69636174696f6e206f766572666c6f77436f6e747261637420696e7374616e63652068617320616c7265616479206265656e20696e697469616c697a65646e6f7420616c6c6f77656420746f2073656e642045544820746f20746869732061646472657373a265627a7a723158206d06564d7715c0d9833f1139495405d9cda28f7c59fe374a9dc8cd008e86275b64736f6c634300050d0032",
  "compiler": {
    "name": "solc",
    "version": "0.5.13+commit.5b0b510c.Emscripten.clang",
    "optimizer": {
      "enabled": true,
      "runs": 500
    },
    "evmVersion": "petersburg"
  }
}