{
  "fileName": "KyberInterfaceV3_Upgradable.sol",
  "contractName": "KyberInterace",
  "source": "// Copyright (C) 2019, 2020 dipeshsukhani, nodarjonashi, toshsharma, suhailg\n\n// This program is free software: you can redistribute it and/or modify\n// it under the terms of the GNU Affero General Public License as published by\n// the Free Software Foundation, either version 2 of the License, or\n// (at your option) any later version.\n//\n// This program is distributed in the hope that it will be useful,\n// but WITHOUT ANY WARRANTY; without even the implied warranty of\n// MERCHANTABILITY or FITNESS FOR A PARTICULAR PURPOSE.  See the\n// GNU Affero General Public License for more details.\n//\n// Visit <https://www.gnu.org/licenses/>for a copy of the GNU Affero General Public License\n\n/**\n * WARNING: This is an upgradable contract. Be careful not to disrupt\n * the existing storage layout when making upgrades to the contract. In particular,\n * existing fields should not be removed and should not have their types changed.\n * The order of field declarations must not be changed, and new fields must be added\n * below all existing declarations.\n *\n * The base contracts and the order in which they are declared must not be changed.\n * New fields must not be added to base contracts (unless the base contract has\n * reserved placeholder fields for this purpose).\n *\n * See https://docs.zeppelinos.org/docs/writing_contracts.html for more info.\n*/\n\npragma solidity ^0.5.0;\n\n\nimport \"../../../node_modules/@openzeppelin/upgrades/contracts/Initializable.sol\";\nimport \"../../../node_modules/@openzeppelin/contracts-ethereum-package/contracts/math/SafeMath.sol\";\nimport \"../../../node_modules/@openzeppelin/contracts-ethereum-package/contracts/token/ERC20/IERC20.sol\";\n\n\ninterface IKyberNetworkProxy {\n    function getExpectedRate(IERC20 src, IERC20 dest, uint srcQty) external view returns (uint expectedRate, uint slippageRate);\n    function trade(IERC20 src, uint srcAmount, IERC20 dest, address destAddress, uint maxDestAmount, uint minConversionRate, address walletId) external payable returns (uint);\n}\n\ninterface IuniswapFactory {\n    function getExchange(address token) external view returns (address exchange);\n}\n\ninterface IuniswapExchange {\n    function getEthToTokenInputPrice(uint256 eth_sold) external view returns (uint256 tokens_bought);\n    function ethToTokenSwapInput(uint256 min_tokens, uint256 deadline) external payable returns (uint256  tokens_bought);\n    function balanceOf(address _owner) external view returns (uint256);\n    function transfer(address _to, uint256 _value) external returns (bool);\n    function addLiquidity(uint256 min_liquidity, uint256 max_tokens, uint256 deadline) external payable returns (uint256);\n}\n\n\ncontract KyberInterace is Initializable {\n    using SafeMath for uint;\n    \n    // state variables\n    // - THESE MUST ALWAYS STAY IN THE SAME LAYOUT\n    bool private stopped = false;\n    address payable public owner;\n    IKyberNetworkProxy public kyberNetworkProxyContract;\n    address private _wallet;\n    IuniswapFactory public UniSwapFactoryAddress;\n\n        \n    // events\n    event TokensReceived(uint, uint);\n    \n    // circuit breaker modifiers\n    modifier stopInEmergency {if (!stopped) _;}\n    modifier onlyInEmergency {if (stopped) _;}\n    modifier onlyOwner() {\n        require(isOwner(), \"you are not authorised to call this function\");\n        _;\n    }\n\n    function initialize(address _walletAddress) initializer public {\n        _wallet = _walletAddress;\n        owner = msg.sender;\n        kyberNetworkProxyContract = IKyberNetworkProxy(0x818E6FECD516Ecc3849DAf6845e3EC868087B755);\n    }\n\n    // for setting the wallet address which has been registered with Kyber\n    function set_wallet (address _new_wallet) public onlyOwner {\n        _wallet = _new_wallet;\n    }\n\n    // for getting the wallet address which has been registered with Kyber\n    function get_wallet() public view onlyOwner returns (address) {\n        return _wallet;\n    }\n    \n    // this function should be called should we ever want to change the kyberNetworkProxyContract address\n    function set_kyberNetworkProxyContract(IKyberNetworkProxy _kyberNetworkProxyContract) onlyOwner public {\n        kyberNetworkProxyContract = _kyberNetworkProxyContract;\n    }\n    \n     \n    function swapTokentoToken(IERC20 _srcTokenAddressIERC20, IERC20 _dstTokenAddress, uint _slippageValue, address _toWhomToIssue) public payable stopInEmergency returns (uint) {\n        require(_wallet != address(0), \"internal error, contact owner\");\n        require(_slippageValue < 100 && _slippageValue >= 0, \"slippage value absurd\");\n        // coversion of ETH to the ERC20 Token\n        IuniswapExchange UniSwapExchangeContractAddress = IuniswapExchange(UniSwapFactoryAddress.getExchange(address(_dstTokenAddress)));\n        uint min_Tokens = SafeMath.div(SafeMath.mul(UniSwapExchangeContractAddress.getEthToTokenInputPrice(msg.value),95),100);\n        uint deadLineToConvert = SafeMath.add(now,1800);\n        UniSwapExchangeContractAddress.ethToTokenSwapInput.value(msg.value)(min_Tokens,deadLineToConvert);\n        uint ERC20TokenHoldings = _dstTokenAddress.balanceOf(address(this));\n        _dstTokenAddress.transfer(_toWhomToIssue,ERC20TokenHoldings);\n        require (ERC20TokenHoldings > 0, \"the conversion did not happen as planned\");\n        return ERC20TokenHoldings;\n\n        // uint minConversionRate;\n        // uint slippageRate;\n        // (minConversionRate,slippageRate) = kyberNetworkProxyContract.getExpectedRate(_srcTokenAddressIERC20, _dstTokenAddress, msg.value);\n        // uint realisedValue = SafeMath.sub(100,_slippageValue);\n        // uint destAmount = kyberNetworkProxyContract.trade.value(msg.value)(_srcTokenAddressIERC20, msg.value, _dstTokenAddress, _toWhomToIssue, 2**255, (SafeMath.div(SafeMath.mul(minConversionRate,realisedValue),100)), _wallet);\n        // return destAmount;\n    }\n\n\n    \n    \n    // fx, in case something goes wrong {hint! learnt from experience}\n    function inCaseTokengetsStuck(IERC20 _TokenAddress) onlyOwner public {\n        uint qty = _TokenAddress.balanceOf(address(this));\n        _TokenAddress.transfer(owner, qty);\n    }\n    \n    \n    // - fallback function let you / anyone send ETH to this wallet without the need to call any function\n    function() external payable {\n        revert(\"not allowed to send ETH to this address\");\n    }\n    \n\n    // - to Pause the contract\n    function toggleContractActive() onlyOwner public {\n        stopped = !stopped;\n    }\n    \n    // - to withdraw any ETH balance sitting in the contract\n    function withdraw() onlyOwner public{\n        owner.transfer(address(this).balance);\n    }\n    \n    function destruct() onlyOwner public{\n        selfdestruct(owner);\n    }\n\n    /**\n     * @return true if `msg.sender` is the owner of the contract.\n     */\n    function isOwner() public view returns (bool) {\n        return msg.sender == owner;\n    }\n\n    /**\n     * @dev Transfers ownership of the contract to a new account (`newOwner`).\n     * Can only be called by the current owner.\n     */\n    function transferOwnership(address payable newOwner) public onlyOwner {\n        _transferOwnership(newOwner);\n    }\n\n    /**\n     * @dev Transfers ownership of the contract to a new account (`newOwner`).\n     */\n    function _transferOwnership(address payable newOwner) internal {\n        require(newOwner != address(0), \"Ownable: new owner is the zero address\");\n        owner = newOwner;\n    }\n\n    // after the upgrade\n    function set_UniswapFactorAddress() public onlyOwner {\n        UniSwapFactoryAddress = IuniswapFactory(0xc0a47dFe034B400B47bDaD5FecDa2621de6c4d95);\n    }\n     \n\n}\n",
  "sourcePath": "contracts/UpdatedZaps/Current WIP/KyberInterfaceV3_Upgradable.sol",
  "abi": [
    {
      "anonymous": false,
      "inputs": [
        {
          "indexed": false,
          "internalType": "uint256",
          "name": "",
          "type": "uint256"
        },
        {
          "indexed": false,
          "internalType": "uint256",
          "name": "",
          "type": "uint256"
        }
      ],
      "name": "TokensReceived",
      "type": "event"
    },
    {
      "payable": true,
      "stateMutability": "payable",
      "type": "fallback"
    },
    {
      "constant": true,
      "inputs": [],
      "name": "UniSwapFactoryAddress",
      "outputs": [
        {
          "internalType": "contract IuniswapFactory",
          "name": "",
          "type": "address"
        }
      ],
      "payable": false,
      "stateMutability": "view",
      "type": "function"
    },
    {
      "constant": false,
      "inputs": [],
      "name": "destruct",
      "outputs": [],
      "payable": false,
      "stateMutability": "nonpayable",
      "type": "function"
    },
    {
      "constant": true,
      "inputs": [],
      "name": "get_wallet",
      "outputs": [
        {
          "internalType": "address",
          "name": "",
          "type": "address"
        }
      ],
      "payable": false,
      "stateMutability": "view",
      "type": "function"
    },
    {
      "constant": false,
      "inputs": [
        {
          "internalType": "contract IERC20",
          "name": "_TokenAddress",
          "type": "address"
        }
      ],
      "name": "inCaseTokengetsStuck",
      "outputs": [],
      "payable": false,
      "stateMutability": "nonpayable",
      "type": "function"
    },
    {
      "constant": false,
      "inputs": [
        {
          "internalType": "address",
          "name": "_walletAddress",
          "type": "address"
        }
      ],
      "name": "initialize",
      "outputs": [],
      "payable": false,
      "stateMutability": "nonpayable",
      "type": "function"
    },
    {
      "constant": true,
      "inputs": [],
      "name": "isOwner",
      "outputs": [
        {
          "internalType": "bool",
          "name": "",
          "type": "bool"
        }
      ],
      "payable": false,
      "stateMutability": "view",
      "type": "function"
    },
    {
      "constant": true,
      "inputs": [],
      "name": "kyberNetworkProxyContract",
      "outputs": [
        {
          "internalType": "contract IKyberNetworkProxy",
          "name": "",
          "type": "address"
        }
      ],
      "payable": false,
      "stateMutability": "view",
      "type": "function"
    },
    {
      "constant": true,
      "inputs": [],
      "name": "owner",
      "outputs": [
        {
          "internalType": "address payable",
          "name": "",
          "type": "address"
        }
      ],
      "payable": false,
      "stateMutability": "view",
      "type": "function"
    },
    {
      "constant": false,
      "inputs": [],
      "name": "set_UniswapFactorAddress",
      "outputs": [],
      "payable": false,
      "stateMutability": "nonpayable",
      "type": "function"
    },
    {
      "constant": false,
      "inputs": [
        {
          "internalType": "contract IKyberNetworkProxy",
          "name": "_kyberNetworkProxyContract",
          "type": "address"
        }
      ],
      "name": "set_kyberNetworkProxyContract",
      "outputs": [],
      "payable": false,
      "stateMutability": "nonpayable",
      "type": "function"
    },
    {
      "constant": false,
      "inputs": [
        {
          "internalType": "address",
          "name": "_new_wallet",
          "type": "address"
        }
      ],
      "name": "set_wallet",
      "outputs": [],
      "payable": false,
      "stateMutability": "nonpayable",
      "type": "function"
    },
    {
      "constant": false,
      "inputs": [
        {
          "internalType": "contract IERC20",
          "name": "_srcTokenAddressIERC20",
          "type": "address"
        },
        {
          "internalType": "contract IERC20",
          "name": "_dstTokenAddress",
          "type": "address"
        },
        {
          "internalType": "uint256",
          "name": "_slippageValue",
          "type": "uint256"
        },
        {
          "internalType": "address",
          "name": "_toWhomToIssue",
          "type": "address"
        }
      ],
      "name": "swapTokentoToken",
      "outputs": [
        {
          "internalType": "uint256",
          "name": "",
          "type": "uint256"
        }
      ],
      "payable": true,
      "stateMutability": "payable",
      "type": "function"
    },
    {
      "constant": false,
      "inputs": [],
      "name": "toggleContractActive",
      "outputs": [],
      "payable": false,
      "stateMutability": "nonpayable",
      "type": "function"
    },
    {
      "constant": false,
      "inputs": [
        {
          "internalType": "address payable",
          "name": "newOwner",
          "type": "address"
        }
      ],
      "name": "transferOwnership",
      "outputs": [],
      "payable": false,
      "stateMutability": "nonpayable",
      "type": "function"
    },
    {
      "constant": false,
      "inputs": [],
      "name": "withdraw",
      "outputs": [],
      "payable": false,
      "stateMutability": "nonpayable",
      "type": "function"
    }
  ],
  "bytecode": "0x60806040526000603360006101000a81548160ff02191690831515021790555034801561002b57600080fd5b5061186e8061003b6000396000f3fe6080604052600436106100e85760003560e01c8063551196d51161008a5780638da5cb5b116100595780638da5cb5b1461042f5780638f32d59b14610486578063c4d66de8146104b5578063f2fde38b14610506576100e8565b8063551196d514610294578063785250da146102e5578063885a3a151461033c57806389057d78146103de576100e8565b80632b68b9c6116100c65780632b68b9c6146101be5780633ccfd60b146101d5578063484e4095146101ec578063525d509e1461023d576100e8565b80630316caf7146101395780631385d24c146101505780631474883014610167575b6040517f08c379a00000000000000000000000000000000000000000000000000000000081526004018080602001828103825260278152602001806118136027913960400191505060405180910390fd5b34801561014557600080fd5b5061014e610557565b005b34801561015c57600080fd5b5061016561060b565b005b34801561017357600080fd5b5061017c610694565b604051808273ffffffffffffffffffffffffffffffffffffffff1673ffffffffffffffffffffffffffffffffffffffff16815260200191505060405180910390f35b3480156101ca57600080fd5b506101d361071b565b005b3480156101e157600080fd5b506101ea6107b3565b005b3480156101f857600080fd5b5061023b6004803603602081101561020f57600080fd5b81019080803573ffffffffffffffffffffffffffffffffffffffff169060200190929190505050610892565b005b34801561024957600080fd5b50610252610933565b604051808273ffffffffffffffffffffffffffffffffffffffff1673ffffffffffffffffffffffffffffffffffffffff16815260200191505060405180910390f35b3480156102a057600080fd5b506102e3600480360360208110156102b757600080fd5b81019080803573ffffffffffffffffffffffffffffffffffffffff169060200190929190505050610959565b005b3480156102f157600080fd5b506102fa610b5b565b604051808273ffffffffffffffffffffffffffffffffffffffff1673ffffffffffffffffffffffffffffffffffffffff16815260200191505060405180910390f35b6103c86004803603608081101561035257600080fd5b81019080803573ffffffffffffffffffffffffffffffffffffffff169060200190929190803573ffffffffffffffffffffffffffffffffffffffff16906020019092919080359060200190929190803573ffffffffffffffffffffffffffffffffffffffff169060200190929190505050610b81565b6040518082815260200191505060405180910390f35b3480156103ea57600080fd5b5061042d6004803603602081101561040157600080fd5b81019080803573ffffffffffffffffffffffffffffffffffffffff1690602001909291905050506110f1565b005b34801561043b57600080fd5b50610444611192565b604051808273ffffffffffffffffffffffffffffffffffffffff1673ffffffffffffffffffffffffffffffffffffffff16815260200191505060405180910390f35b34801561049257600080fd5b5061049b6111b8565b604051808215151515815260200191505060405180910390f35b3480156104c157600080fd5b50610504600480360360208110156104d857600080fd5b81019080803573ffffffffffffffffffffffffffffffffffffffff169060200190929190505050611210565b005b34801561051257600080fd5b506105556004803603602081101561052957600080fd5b81019080803573ffffffffffffffffffffffffffffffffffffffff1690602001909291905050506113e7565b005b61055f6111b8565b6105b4576040517f08c379a000000000000000000000000000000000000000000000000000000000815260040180806020018281038252602c815260200180611770602c913960400191505060405180910390fd5b73c0a47dfe034b400b47bdad5fecda2621de6c4d95603660006101000a81548173ffffffffffffffffffffffffffffffffffffffff021916908373ffffffffffffffffffffffffffffffffffffffff160217905550565b6106136111b8565b610668576040517f08c379a000000000000000000000000000000000000000000000000000000000815260040180806020018281038252602c815260200180611770602c913960400191505060405180910390fd5b603360009054906101000a900460ff1615603360006101000a81548160ff021916908315150217905550565b600061069e6111b8565b6106f3576040517f08c379a000000000000000000000000000000000000000000000000000000000815260040180806020018281038252602c815260200180611770602c913960400191505060405180910390fd5b603560009054906101000a900473ffffffffffffffffffffffffffffffffffffffff16905090565b6107236111b8565b610778576040517f08c379a000000000000000000000000000000000000000000000000000000000815260040180806020018281038252602c815260200180611770602c913960400191505060405180910390fd5b603360019054906101000a900473ffffffffffffffffffffffffffffffffffffffff1673ffffffffffffffffffffffffffffffffffffffff16ff5b6107bb6111b8565b610810576040517f08c379a000000000000000000000000000000000000000000000000000000000815260040180806020018281038252602c815260200180611770602c913960400191505060405180910390fd5b603360019054906101000a900473ffffffffffffffffffffffffffffffffffffffff1673ffffffffffffffffffffffffffffffffffffffff166108fc3073ffffffffffffffffffffffffffffffffffffffff16319081150290604051600060405180830381858888f1935050505015801561088f573d6000803e3d6000fd5b50565b61089a6111b8565b6108ef576040517f08c379a000000000000000000000000000000000000000000000000000000000815260040180806020018281038252602c815260200180611770602c913960400191505060405180910390fd5b80603560006101000a81548173ffffffffffffffffffffffffffffffffffffffff021916908373ffffffffffffffffffffffffffffffffffffffff16021790555050565b603660009054906101000a900473ffffffffffffffffffffffffffffffffffffffff1681565b6109616111b8565b6109b6576040517f08c379a000000000000000000000000000000000000000000000000000000000815260040180806020018281038252602c815260200180611770602c913960400191505060405180910390fd5b60008173ffffffffffffffffffffffffffffffffffffffff166370a08231306040518263ffffffff1660e01b8152600401808273ffffffffffffffffffffffffffffffffffffffff1673ffffffffffffffffffffffffffffffffffffffff16815260200191505060206040518083038186803b158015610a3557600080fd5b505afa158015610a49573d6000803e3d6000fd5b505050506040513d6020811015610a5f57600080fd5b810190808051906020019092919050505090508173ffffffffffffffffffffffffffffffffffffffff1663a9059cbb603360019054906101000a900473ffffffffffffffffffffffffffffffffffffffff16836040518363ffffffff1660e01b8152600401808373ffffffffffffffffffffffffffffffffffffffff1673ffffffffffffffffffffffffffffffffffffffff16815260200182815260200192505050602060405180830381600087803b158015610b1b57600080fd5b505af1158015610b2f573d6000803e3d6000fd5b505050506040513d6020811015610b4557600080fd5b8101908080519060200190929190505050505050565b603460009054906101000a900473ffffffffffffffffffffffffffffffffffffffff1681565b6000603360009054906101000a900460ff166110e957600073ffffffffffffffffffffffffffffffffffffffff16603560009054906101000a900473ffffffffffffffffffffffffffffffffffffffff1673ffffffffffffffffffffffffffffffffffffffff161415610c5c576040517f08c379a000000000000000000000000000000000000000000000000000000000815260040180806020018281038252601d8152602001807f696e7465726e616c206572726f722c20636f6e74616374206f776e657200000081525060200191505060405180910390fd5b606483108015610c6d575060008310155b610cdf576040517f08c379a00000000000000000000000000000000000000000000000000000000081526004018080602001828103825260158152602001807f736c6970706167652076616c756520616273757264000000000000000000000081525060200191505060405180910390fd5b6000603660009054906101000a900473ffffffffffffffffffffffffffffffffffffffff1673ffffffffffffffffffffffffffffffffffffffff166306f2bf62866040518263ffffffff1660e01b8152600401808273ffffffffffffffffffffffffffffffffffffffff1673ffffffffffffffffffffffffffffffffffffffff16815260200191505060206040518083038186803b158015610d8057600080fd5b505afa158015610d94573d6000803e3d6000fd5b505050506040513d6020811015610daa57600080fd5b810190808051906020019092919050505090506000610e5f610e588373ffffffffffffffffffffffffffffffffffffffff1663cd7724c3346040518263ffffffff1660e01b81526004018082815260200191505060206040518083038186803b158015610e1657600080fd5b505afa158015610e2a573d6000803e3d6000fd5b505050506040513d6020811015610e4057600080fd5b8101908080519060200190929190505050605f611450565b60646114d6565b90506000610e6f42610708611520565b90508273ffffffffffffffffffffffffffffffffffffffff1663f39b5b9b3484846040518463ffffffff1660e01b815260040180838152602001828152602001925050506020604051808303818588803b158015610ecc57600080fd5b505af1158015610ee0573d6000803e3d6000fd5b50505050506040513d6020811015610ef757600080fd5b81019080805190602001909291905050505060008773ffffffffffffffffffffffffffffffffffffffff166370a08231306040518263ffffffff1660e01b8152600401808273ffffffffffffffffffffffffffffffffffffffff1673ffffffffffffffffffffffffffffffffffffffff16815260200191505060206040518083038186803b158015610f8857600080fd5b505afa158015610f9c573d6000803e3d6000fd5b505050506040513d6020811015610fb257600080fd5b810190808051906020019092919050505090508773ffffffffffffffffffffffffffffffffffffffff1663a9059cbb87836040518363ffffffff1660e01b8152600401808373ffffffffffffffffffffffffffffffffffffffff1673ffffffffffffffffffffffffffffffffffffffff16815260200182815260200192505050602060405180830381600087803b15801561104c57600080fd5b505af1158015611060573d6000803e3d6000fd5b505050506040513d602081101561107657600080fd5b810190808051906020019092919050505050600081116110e1576040517f08c379a00000000000000000000000000000000000000000000000000000000081526004018080602001828103825260288152602001806117bd6028913960400191505060405180910390fd5b809450505050505b949350505050565b6110f96111b8565b61114e576040517f08c379a000000000000000000000000000000000000000000000000000000000815260040180806020018281038252602c815260200180611770602c913960400191505060405180910390fd5b80603460006101000a81548173ffffffffffffffffffffffffffffffffffffffff021916908373ffffffffffffffffffffffffffffffffffffffff16021790555050565b603360019054906101000a900473ffffffffffffffffffffffffffffffffffffffff1681565b6000603360019054906101000a900473ffffffffffffffffffffffffffffffffffffffff1673ffffffffffffffffffffffffffffffffffffffff163373ffffffffffffffffffffffffffffffffffffffff1614905090565b600060019054906101000a900460ff168061122f575061122e6115a8565b5b8061124657506000809054906101000a900460ff16155b61129b576040517f08c379a000000000000000000000000000000000000000000000000000000000815260040180806020018281038252602e8152602001806117e5602e913960400191505060405180910390fd5b60008060019054906101000a900460ff1615905080156112eb576001600060016101000a81548160ff02191690831515021790555060016000806101000a81548160ff0219169083151502179055505b81603560006101000a81548173ffffffffffffffffffffffffffffffffffffffff021916908373ffffffffffffffffffffffffffffffffffffffff16021790555033603360016101000a81548173ffffffffffffffffffffffffffffffffffffffff021916908373ffffffffffffffffffffffffffffffffffffffff16021790555073818e6fecd516ecc3849daf6845e3ec868087b755603460006101000a81548173ffffffffffffffffffffffffffffffffffffffff021916908373ffffffffffffffffffffffffffffffffffffffff16021790555080156113e35760008060016101000a81548160ff0219169083151502179055505b5050565b6113ef6111b8565b611444576040517f08c379a000000000000000000000000000000000000000000000000000000000815260040180806020018281038252602c815260200180611770602c913960400191505060405180910390fd5b61144d816115b9565b50565b60008083141561146357600090506114d0565b600082840290508284828161147457fe5b04146114cb576040517f08c379a000000000000000000000000000000000000000000000000000000000815260040180806020018281038252602181526020018061179c6021913960400191505060405180910390fd5b809150505b92915050565b600061151883836040518060400160405280601a81526020017f536166654d6174683a206469766973696f6e206279207a65726f000000000000815250611683565b905092915050565b60008082840190508381101561159e576040517f08c379a000000000000000000000000000000000000000000000000000000000815260040180806020018281038252601b8152602001807f536166654d6174683a206164646974696f6e206f766572666c6f77000000000081525060200191505060405180910390fd5b8091505092915050565b600080303b90506000811491505090565b600073ffffffffffffffffffffffffffffffffffffffff168173ffffffffffffffffffffffffffffffffffffffff16141561163f576040517f08c379a000000000000000000000000000000000000000000000000000000000815260040180806020018281038252602681526020018061174a6026913960400191505060405180910390fd5b80603360016101000a81548173ffffffffffffffffffffffffffffffffffffffff021916908373ffffffffffffffffffffffffffffffffffffffff16021790555050565b6000808311829061172f576040517f08c379a00000000000000000000000000000000000000000000000000000000081526004018080602001828103825283818151815260200191508051906020019080838360005b838110156116f45780820151818401526020810190506116d9565b50505050905090810190601f1680156117215780820380516001836020036101000a031916815260200191505b509250505060405180910390fd5b50600083858161173b57fe5b04905080915050939250505056fe4f776e61626c653a206e6577206f776e657220697320746865207a65726f2061646472657373796f7520617265206e6f7420617574686f726973656420746f2063616c6c20746869732066756e6374696f6e536166654d6174683a206d756c7469706c69636174696f6e206f766572666c6f7774686520636f6e76657273696f6e20646964206e6f742068617070656e20617320706c616e6e6564436f6e747261637420696e7374616e63652068617320616c7265616479206265656e20696e697469616c697a65646e6f7420616c6c6f77656420746f2073656e642045544820746f20746869732061646472657373a265627a7a723158201ff3b9815e7dcf4731fb9e19fab3d1aa15d788a9452c36dcfb8daadc67c003bf64736f6c634300050d0032",
  "compiler": {
    "name": "solc",
    "version": "0.5.13+commit.5b0b510c.Emscripten.clang",
    "optimizer": {
      "enabled": false,
      "runs": 200
    },
    "evmVersion": "petersburg"
  }
}