{
  "fileName": "KyberInterfaceV3_Upgradable.sol",
  "contractName": "KyberInterace",
  "source": "// Copyright (C) 2019, 2020 dipeshsukhani, nodarjonashi, toshsharma, suhailg\n\n// This program is free software: you can redistribute it and/or modify\n// it under the terms of the GNU Affero General Public License as published by\n// the Free Software Foundation, either version 2 of the License, or\n// (at your option) any later version.\n//\n// This program is distributed in the hope that it will be useful,\n// but WITHOUT ANY WARRANTY; without even the implied warranty of\n// MERCHANTABILITY or FITNESS FOR A PARTICULAR PURPOSE.  See the\n// GNU Affero General Public License for more details.\n//\n// Visit <https://www.gnu.org/licenses/>for a copy of the GNU Affero General Public License\n\n/**\n * WARNING: This is an upgradable contract. Be careful not to disrupt\n * the existing storage layout when making upgrades to the contract. In particular,\n * existing fields should not be removed and should not have their types changed.\n * The order of field declarations must not be changed, and new fields must be added\n * below all existing declarations.\n *\n * The base contracts and the order in which they are declared must not be changed.\n * New fields must not be added to base contracts (unless the base contract has\n * reserved placeholder fields for this purpose).\n *\n * See https://docs.zeppelinos.org/docs/writing_contracts.html for more info.\n*/\n\npragma solidity ^0.5.0;\n\n\nimport \"../../../node_modules/@openzeppelin/upgrades/contracts/Initializable.sol\";\nimport \"../../../node_modules/@openzeppelin/contracts-ethereum-package/contracts/math/SafeMath.sol\";\nimport \"../../../node_modules/@openzeppelin/contracts-ethereum-package/contracts/token/ERC20/IERC20.sol\";\n\n\ninterface IKyberNetworkProxy {\n    function getExpectedRate(IERC20 src, IERC20 dest, uint srcQty) external view returns (uint expectedRate, uint slippageRate);\n    function trade(IERC20 src, uint srcAmount, IERC20 dest, address destAddress, uint maxDestAmount, uint minConversionRate, address walletId) external payable returns (uint);\n}\n\n\n\ncontract KyberInterace is Initializable {\n    using SafeMath for uint;\n    \n    // state variables\n    // - THESE MUST ALWAYS STAY IN THE SAME LAYOUT\n    bool private stopped = false;\n    address payable public owner;\n    IKyberNetworkProxy public kyberNetworkProxyContract;\n    address private _wallet;\n        \n    // events\n    event TokensReceived(uint, uint);\n    \n    // circuit breaker modifiers\n    modifier stopInEmergency {if (!stopped) _;}\n    modifier onlyInEmergency {if (stopped) _;}\n    modifier onlyOwner() {\n        require(isOwner(), \"you are not authorised to call this function\");\n        _;\n    }\n\n    function initialize(address _walletAddress) initializer public {\n        _wallet = _walletAddress;\n        owner = msg.sender;\n        kyberNetworkProxyContract = IKyberNetworkProxy(0x818E6FECD516Ecc3849DAf6845e3EC868087B755);\n    }\n\n    // for setting the wallet address which has been registered with Kyber\n    function set_wallet (address _new_wallet) public onlyOwner {\n        _wallet = _new_wallet;\n    }\n\n    // for getting the wallet address which has been registered with Kyber\n    function get_wallet() public view onlyOwner returns (address) {\n        return _wallet;\n    }\n    \n    // this function should be called should we ever want to change the kyberNetworkProxyContract address\n    function set_kyberNetworkProxyContract(IKyberNetworkProxy _kyberNetworkProxyContract) onlyOwner public {\n        kyberNetworkProxyContract = _kyberNetworkProxyContract;\n    }\n    \n     \n    function swapTokentoToken(IERC20 _srcTokenAddressIERC20, IERC20 _dstTokenAddress, uint _slippageValue, address _toWhomToIssue) public payable stopInEmergency returns (uint) {\n        require(_wallet != address(0), \"internal error, contact owner\");\n        require(_slippageValue < 100 && _slippageValue >= 0, \"slippage value absurd\");\n        uint minConversionRate;\n        uint slippageRate;\n        (minConversionRate,slippageRate) = kyberNetworkProxyContract.getExpectedRate(_srcTokenAddressIERC20, _dstTokenAddress, msg.value);\n        uint realisedValue = SafeMath.sub(100,_slippageValue);\n        uint destAmount = kyberNetworkProxyContract.trade.value(msg.value)(_srcTokenAddressIERC20, msg.value, _dstTokenAddress, _toWhomToIssue, 2**255, (SafeMath.div(SafeMath.mul(minConversionRate,realisedValue),100)), _wallet);\n        return destAmount;\n    }\n    \n    // fx, in case something goes wrong {hint! learnt from experience}\n    function inCaseTokengetsStuck(IERC20 _TokenAddress) onlyOwner public {\n        uint qty = _TokenAddress.balanceOf(address(this));\n        _TokenAddress.transfer(owner, qty);\n    }\n    \n    \n    // - fallback function let you / anyone send ETH to this wallet without the need to call any function\n    function() external payable {\n        revert(\"not allowed to send ETH to this address\");\n    }\n    \n\n    // - to Pause the contract\n    function toggleContractActive() onlyOwner public {\n        stopped = !stopped;\n    }\n    \n    // - to withdraw any ETH balance sitting in the contract\n    function withdraw() onlyOwner public{\n        owner.transfer(address(this).balance);\n    }\n    \n    function destruct() onlyOwner public{\n        selfdestruct(owner);\n    }\n\n    /**\n     * @return true if `msg.sender` is the owner of the contract.\n     */\n    function isOwner() public view returns (bool) {\n        return msg.sender == owner;\n    }\n\n    /**\n     * @dev Transfers ownership of the contract to a new account (`newOwner`).\n     * Can only be called by the current owner.\n     */\n    function transferOwnership(address payable newOwner) public onlyOwner {\n        _transferOwnership(newOwner);\n    }\n\n    /**\n     * @dev Transfers ownership of the contract to a new account (`newOwner`).\n     */\n    function _transferOwnership(address payable newOwner) internal {\n        require(newOwner != address(0), \"Ownable: new owner is the zero address\");\n        owner = newOwner;\n    }\n\n \n}\n",
  "sourcePath": "contracts/UpdatedZaps/Done/KyberInterfaceV3_Upgradable.sol",
  "abi": [
    {
      "anonymous": false,
      "inputs": [
        {
          "indexed": false,
          "internalType": "uint256",
          "name": "",
          "type": "uint256"
        },
        {
          "indexed": false,
          "internalType": "uint256",
          "name": "",
          "type": "uint256"
        }
      ],
      "name": "TokensReceived",
      "type": "event"
    },
    {
      "payable": true,
      "stateMutability": "payable",
      "type": "fallback"
    },
    {
      "constant": false,
      "inputs": [],
      "name": "destruct",
      "outputs": [],
      "payable": false,
      "stateMutability": "nonpayable",
      "type": "function"
    },
    {
      "constant": true,
      "inputs": [],
      "name": "get_wallet",
      "outputs": [
        {
          "internalType": "address",
          "name": "",
          "type": "address"
        }
      ],
      "payable": false,
      "stateMutability": "view",
      "type": "function"
    },
    {
      "constant": false,
      "inputs": [
        {
          "internalType": "contract IERC20",
          "name": "_TokenAddress",
          "type": "address"
        }
      ],
      "name": "inCaseTokengetsStuck",
      "outputs": [],
      "payable": false,
      "stateMutability": "nonpayable",
      "type": "function"
    },
    {
      "constant": false,
      "inputs": [
        {
          "internalType": "address",
          "name": "_walletAddress",
          "type": "address"
        }
      ],
      "name": "initialize",
      "outputs": [],
      "payable": false,
      "stateMutability": "nonpayable",
      "type": "function"
    },
    {
      "constant": true,
      "inputs": [],
      "name": "isOwner",
      "outputs": [
        {
          "internalType": "bool",
          "name": "",
          "type": "bool"
        }
      ],
      "payable": false,
      "stateMutability": "view",
      "type": "function"
    },
    {
      "constant": true,
      "inputs": [],
      "name": "kyberNetworkProxyContract",
      "outputs": [
        {
          "internalType": "contract IKyberNetworkProxy",
          "name": "",
          "type": "address"
        }
      ],
      "payable": false,
      "stateMutability": "view",
      "type": "function"
    },
    {
      "constant": true,
      "inputs": [],
      "name": "owner",
      "outputs": [
        {
          "internalType": "address payable",
          "name": "",
          "type": "address"
        }
      ],
      "payable": false,
      "stateMutability": "view",
      "type": "function"
    },
    {
      "constant": false,
      "inputs": [
        {
          "internalType": "contract IKyberNetworkProxy",
          "name": "_kyberNetworkProxyContract",
          "type": "address"
        }
      ],
      "name": "set_kyberNetworkProxyContract",
      "outputs": [],
      "payable": false,
      "stateMutability": "nonpayable",
      "type": "function"
    },
    {
      "constant": false,
      "inputs": [
        {
          "internalType": "address",
          "name": "_new_wallet",
          "type": "address"
        }
      ],
      "name": "set_wallet",
      "outputs": [],
      "payable": false,
      "stateMutability": "nonpayable",
      "type": "function"
    },
    {
      "constant": false,
      "inputs": [
        {
          "internalType": "contract IERC20",
          "name": "_srcTokenAddressIERC20",
          "type": "address"
        },
        {
          "internalType": "contract IERC20",
          "name": "_dstTokenAddress",
          "type": "address"
        },
        {
          "internalType": "uint256",
          "name": "_slippageValue",
          "type": "uint256"
        },
        {
          "internalType": "address",
          "name": "_toWhomToIssue",
          "type": "address"
        }
      ],
      "name": "swapTokentoToken",
      "outputs": [
        {
          "internalType": "uint256",
          "name": "",
          "type": "uint256"
        }
      ],
      "payable": true,
      "stateMutability": "payable",
      "type": "function"
    },
    {
      "constant": false,
      "inputs": [],
      "name": "toggleContractActive",
      "outputs": [],
      "payable": false,
      "stateMutability": "nonpayable",
      "type": "function"
    },
    {
      "constant": false,
      "inputs": [
        {
          "internalType": "address payable",
          "name": "newOwner",
          "type": "address"
        }
      ],
      "name": "transferOwnership",
      "outputs": [],
      "payable": false,
      "stateMutability": "nonpayable",
      "type": "function"
    },
    {
      "constant": false,
      "inputs": [],
      "name": "withdraw",
      "outputs": [],
      "payable": false,
      "stateMutability": "nonpayable",
      "type": "function"
    }
  ],
  "bytecode": "0x60806040526000603360006101000a81548160ff02191690831515021790555034801561002b57600080fd5b5061167b8061003b6000396000f3fe6080604052600436106100c25760003560e01c8063785250da1161007f5780638da5cb5b116100595780638da5cb5b1461039b5780638f32d59b146103f2578063c4d66de814610421578063f2fde38b14610472576100c2565b8063785250da14610251578063885a3a15146102a857806389057d781461034a576100c2565b80631385d24c14610113578063147488301461012a5780632b68b9c6146101815780633ccfd60b14610198578063484e4095146101af578063551196d514610200575b6040517f08c379a00000000000000000000000000000000000000000000000000000000081526004018080602001828103825260278152602001806116206027913960400191505060405180910390fd5b34801561011f57600080fd5b506101286104c3565b005b34801561013657600080fd5b5061013f61054c565b604051808273ffffffffffffffffffffffffffffffffffffffff1673ffffffffffffffffffffffffffffffffffffffff16815260200191505060405180910390f35b34801561018d57600080fd5b506101966105d3565b005b3480156101a457600080fd5b506101ad61066b565b005b3480156101bb57600080fd5b506101fe600480360360208110156101d257600080fd5b81019080803573ffffffffffffffffffffffffffffffffffffffff16906020019092919050505061074a565b005b34801561020c57600080fd5b5061024f6004803603602081101561022357600080fd5b81019080803573ffffffffffffffffffffffffffffffffffffffff1690602001909291905050506107eb565b005b34801561025d57600080fd5b506102666109ed565b604051808273ffffffffffffffffffffffffffffffffffffffff1673ffffffffffffffffffffffffffffffffffffffff16815260200191505060405180910390f35b610334600480360360808110156102be57600080fd5b81019080803573ffffffffffffffffffffffffffffffffffffffff169060200190929190803573ffffffffffffffffffffffffffffffffffffffff16906020019092919080359060200190929190803573ffffffffffffffffffffffffffffffffffffffff169060200190929190505050610a13565b6040518082815260200191505060405180910390f35b34801561035657600080fd5b506103996004803603602081101561036d57600080fd5b81019080803573ffffffffffffffffffffffffffffffffffffffff169060200190929190505050610ea4565b005b3480156103a757600080fd5b506103b0610f45565b604051808273ffffffffffffffffffffffffffffffffffffffff1673ffffffffffffffffffffffffffffffffffffffff16815260200191505060405180910390f35b3480156103fe57600080fd5b50610407610f6b565b604051808215151515815260200191505060405180910390f35b34801561042d57600080fd5b506104706004803603602081101561044457600080fd5b81019080803573ffffffffffffffffffffffffffffffffffffffff169060200190929190505050610fc3565b005b34801561047e57600080fd5b506104c16004803603602081101561049557600080fd5b81019080803573ffffffffffffffffffffffffffffffffffffffff16906020019092919050505061119a565b005b6104cb610f6b565b610520576040517f08c379a000000000000000000000000000000000000000000000000000000000815260040180806020018281038252602c8152602001806115a5602c913960400191505060405180910390fd5b603360009054906101000a900460ff1615603360006101000a81548160ff021916908315150217905550565b6000610556610f6b565b6105ab576040517f08c379a000000000000000000000000000000000000000000000000000000000815260040180806020018281038252602c8152602001806115a5602c913960400191505060405180910390fd5b603560009054906101000a900473ffffffffffffffffffffffffffffffffffffffff16905090565b6105db610f6b565b610630576040517f08c379a000000000000000000000000000000000000000000000000000000000815260040180806020018281038252602c8152602001806115a5602c913960400191505060405180910390fd5b603360019054906101000a900473ffffffffffffffffffffffffffffffffffffffff1673ffffffffffffffffffffffffffffffffffffffff16ff5b610673610f6b565b6106c8576040517f08c379a000000000000000000000000000000000000000000000000000000000815260040180806020018281038252602c8152602001806115a5602c913960400191505060405180910390fd5b603360019054906101000a900473ffffffffffffffffffffffffffffffffffffffff1673ffffffffffffffffffffffffffffffffffffffff166108fc3073ffffffffffffffffffffffffffffffffffffffff16319081150290604051600060405180830381858888f19350505050158015610747573d6000803e3d6000fd5b50565b610752610f6b565b6107a7576040517f08c379a000000000000000000000000000000000000000000000000000000000815260040180806020018281038252602c8152602001806115a5602c913960400191505060405180910390fd5b80603560006101000a81548173ffffffffffffffffffffffffffffffffffffffff021916908373ffffffffffffffffffffffffffffffffffffffff16021790555050565b6107f3610f6b565b610848576040517f08c379a000000000000000000000000000000000000000000000000000000000815260040180806020018281038252602c8152602001806115a5602c913960400191505060405180910390fd5b60008173ffffffffffffffffffffffffffffffffffffffff166370a08231306040518263ffffffff1660e01b8152600401808273ffffffffffffffffffffffffffffffffffffffff1673ffffffffffffffffffffffffffffffffffffffff16815260200191505060206040518083038186803b1580156108c757600080fd5b505afa1580156108db573d6000803e3d6000fd5b505050506040513d60208110156108f157600080fd5b810190808051906020019092919050505090508173ffffffffffffffffffffffffffffffffffffffff1663a9059cbb603360019054906101000a900473ffffffffffffffffffffffffffffffffffffffff16836040518363ffffffff1660e01b8152600401808373ffffffffffffffffffffffffffffffffffffffff1673ffffffffffffffffffffffffffffffffffffffff16815260200182815260200192505050602060405180830381600087803b1580156109ad57600080fd5b505af11580156109c1573d6000803e3d6000fd5b505050506040513d60208110156109d757600080fd5b8101908080519060200190929190505050505050565b603460009054906101000a900473ffffffffffffffffffffffffffffffffffffffff1681565b6000603360009054906101000a900460ff16610e9c57600073ffffffffffffffffffffffffffffffffffffffff16603560009054906101000a900473ffffffffffffffffffffffffffffffffffffffff1673ffffffffffffffffffffffffffffffffffffffff161415610aee576040517f08c379a000000000000000000000000000000000000000000000000000000000815260040180806020018281038252601d8152602001807f696e7465726e616c206572726f722c20636f6e74616374206f776e657200000081525060200191505060405180910390fd5b606483108015610aff575060008310155b610b71576040517f08c379a00000000000000000000000000000000000000000000000000000000081526004018080602001828103825260158152602001807f736c6970706167652076616c756520616273757264000000000000000000000081525060200191505060405180910390fd5b600080603460009054906101000a900473ffffffffffffffffffffffffffffffffffffffff1673ffffffffffffffffffffffffffffffffffffffff1663809a9e558888346040518463ffffffff1660e01b8152600401808473ffffffffffffffffffffffffffffffffffffffff1673ffffffffffffffffffffffffffffffffffffffff1681526020018373ffffffffffffffffffffffffffffffffffffffff1673ffffffffffffffffffffffffffffffffffffffff1681526020018281526020019350505050604080518083038186803b158015610c4e57600080fd5b505afa158015610c62573d6000803e3d6000fd5b505050506040513d6040811015610c7857600080fd5b81019080805190602001909291908051906020019092919050505080925081935050506000610ca8606487611203565b90506000603460009054906101000a900473ffffffffffffffffffffffffffffffffffffffff1673ffffffffffffffffffffffffffffffffffffffff1663cb3c28c7348b348c8b7f8000000000000000000000000000000000000000000000000000000000000000610d24610d1d8d8c61124d565b60646112d3565b603560009054906101000a900473ffffffffffffffffffffffffffffffffffffffff166040518963ffffffff1660e01b8152600401808873ffffffffffffffffffffffffffffffffffffffff1673ffffffffffffffffffffffffffffffffffffffff1681526020018781526020018673ffffffffffffffffffffffffffffffffffffffff1673ffffffffffffffffffffffffffffffffffffffff1681526020018573ffffffffffffffffffffffffffffffffffffffff1673ffffffffffffffffffffffffffffffffffffffff1681526020018481526020018381526020018273ffffffffffffffffffffffffffffffffffffffff1673ffffffffffffffffffffffffffffffffffffffff1681526020019750505050505050506020604051808303818588803b158015610e5657600080fd5b505af1158015610e6a573d6000803e3d6000fd5b50505050506040513d6020811015610e8157600080fd5b81019080805190602001909291905050509050809450505050505b949350505050565b610eac610f6b565b610f01576040517f08c379a000000000000000000000000000000000000000000000000000000000815260040180806020018281038252602c8152602001806115a5602c913960400191505060405180910390fd5b80603460006101000a81548173ffffffffffffffffffffffffffffffffffffffff021916908373ffffffffffffffffffffffffffffffffffffffff16021790555050565b603360019054906101000a900473ffffffffffffffffffffffffffffffffffffffff1681565b6000603360019054906101000a900473ffffffffffffffffffffffffffffffffffffffff1673ffffffffffffffffffffffffffffffffffffffff163373ffffffffffffffffffffffffffffffffffffffff1614905090565b600060019054906101000a900460ff1680610fe25750610fe161131d565b5b80610ff957506000809054906101000a900460ff16155b61104e576040517f08c379a000000000000000000000000000000000000000000000000000000000815260040180806020018281038252602e8152602001806115f2602e913960400191505060405180910390fd5b60008060019054906101000a900460ff16159050801561109e576001600060016101000a81548160ff02191690831515021790555060016000806101000a81548160ff0219169083151502179055505b81603560006101000a81548173ffffffffffffffffffffffffffffffffffffffff021916908373ffffffffffffffffffffffffffffffffffffffff16021790555033603360016101000a81548173ffffffffffffffffffffffffffffffffffffffff021916908373ffffffffffffffffffffffffffffffffffffffff16021790555073818e6fecd516ecc3849daf6845e3ec868087b755603460006101000a81548173ffffffffffffffffffffffffffffffffffffffff021916908373ffffffffffffffffffffffffffffffffffffffff16021790555080156111965760008060016101000a81548160ff0219169083151502179055505b5050565b6111a2610f6b565b6111f7576040517f08c379a000000000000000000000000000000000000000000000000000000000815260040180806020018281038252602c8152602001806115a5602c913960400191505060405180910390fd5b6112008161132e565b50565b600061124583836040518060400160405280601e81526020017f536166654d6174683a207375627472616374696f6e206f766572666c6f7700008152506113f8565b905092915050565b60008083141561126057600090506112cd565b600082840290508284828161127157fe5b04146112c8576040517f08c379a00000000000000000000000000000000000000000000000000000000081526004018080602001828103825260218152602001806115d16021913960400191505060405180910390fd5b809150505b92915050565b600061131583836040518060400160405280601a81526020017f536166654d6174683a206469766973696f6e206279207a65726f0000000000008152506114b8565b905092915050565b600080303b90506000811491505090565b600073ffffffffffffffffffffffffffffffffffffffff168173ffffffffffffffffffffffffffffffffffffffff1614156113b4576040517f08c379a000000000000000000000000000000000000000000000000000000000815260040180806020018281038252602681526020018061157f6026913960400191505060405180910390fd5b80603360016101000a81548173ffffffffffffffffffffffffffffffffffffffff021916908373ffffffffffffffffffffffffffffffffffffffff16021790555050565b60008383111582906114a5576040517f08c379a00000000000000000000000000000000000000000000000000000000081526004018080602001828103825283818151815260200191508051906020019080838360005b8381101561146a57808201518184015260208101905061144f565b50505050905090810190601f1680156114975780820380516001836020036101000a031916815260200191505b509250505060405180910390fd5b5060008385039050809150509392505050565b60008083118290611564576040517f08c379a00000000000000000000000000000000000000000000000000000000081526004018080602001828103825283818151815260200191508051906020019080838360005b8381101561152957808201518184015260208101905061150e565b50505050905090810190601f1680156115565780820380516001836020036101000a031916815260200191505b509250505060405180910390fd5b50600083858161157057fe5b04905080915050939250505056fe4f776e61626c653a206e6577206f776e657220697320746865207a65726f2061646472657373796f7520617265206e6f7420617574686f726973656420746f2063616c6c20746869732066756e6374696f6e536166654d6174683a206d756c7469706c69636174696f6e206f766572666c6f77436f6e747261637420696e7374616e63652068617320616c7265616479206265656e20696e697469616c697a65646e6f7420616c6c6f77656420746f2073656e642045544820746f20746869732061646472657373a265627a7a723158208c9ed6db57c3d3a2509eea8c5973e37a7a6f5fc1d37c9c7e544e064b85696f9964736f6c634300050d0032",
  "compiler": {
    "name": "solc",
    "version": "0.5.13+commit.5b0b510c.Emscripten.clang",
    "optimizer": {
      "enabled": false,
      "runs": 200
    },
    "evmVersion": "petersburg"
  }
}