{
  "fileName": "LenderZap_NEWDAI_withNewKyberInterface.sol",
  "contractName": "LenderZap_NEWDAI",
  "source": "// Copyright (C) 2019, 2020 dipeshsukhani, nodarjonashi, toshsharma, suhailg\n\n// This program is free software: you can redistribute it and/or modify\n// it under the terms of the GNU Affero General Public License as published by\n// the Free Software Foundation, either version 2 of the License, or\n// (at your option) any later version.\n//\n// This program is distributed in the hope that it will be useful,\n// but WITHOUT ANY WARRANTY; without even the implied warranty of\n// MERCHANTABILITY or FITNESS FOR A PARTICULAR PURPOSE.  See the\n// GNU Affero General Public License for more details.\n//\n// Visit <https://www.gnu.org/licenses/>for a copy of the GNU Affero General Public License\n\n/**\n * WARNING: This is an upgradable contract. Be careful not to disrupt\n * the existing storage layout when making upgrades to the contract. In particular,\n * existing fields should not be removed and should not have their types changed.\n * The order of field declarations must not be changed, and new fields must be added\n * below all existing declarations.\n *\n * The base contracts and the order in which they are declared must not be changed.\n * New fields must not be added to base contracts (unless the base contract has\n * reserved placeholder fields for this purpose).\n *\n * See https://docs.zeppelinos.org/docs/writing_contracts.html for more info.\n*/\n\npragma solidity ^0.5.0;\n\nimport \"../../../node_modules/@openzeppelin/upgrades/contracts/Initializable.sol\";\nimport \"../../../node_modules/@openzeppelin/contracts-ethereum-package/contracts/math/SafeMath.sol\";\nimport \"../../../node_modules/@openzeppelin/contracts-ethereum-package/contracts/token/ERC20/IERC20.sol\";\n\n// interfaces \ninterface Invest2cDAI {\n    function LetsInvest(address _toWhomToIssue, uint _slippage) external payable;\n}\n\ninterface Invest2Fulcrum {\n    function LetsInvest2Fulcrum(address _towhomtoissue) external payable;\n}\n\n\n// through this contract we are putting a user specified allocation to cDAI and the balance to 2xLongETH\ncontract LenderZap_NEWDAI is Initializable {\n    using SafeMath for uint;\n    \n    // state variables\n    \n    // - THESE MUST ALWAYS STAY IN THE SAME LAYOUT\n    bool private stopped = false;\n    address payable public owner;\n    Invest2cDAI public Invest2cDAIAddress;\n    Invest2Fulcrum public Invest2FulcrumAddress;\n    \n    // circuit breaker modifiers\n    modifier stopInEmergency {if (!stopped) _;}\n    modifier onlyInEmergency {if (stopped) _;}\n    modifier onlyOwner() {\n        require(isOwner(), \"you are not authorised to call this function\");\n        _;\n    }\n\n\n    \n    function initialize(address _Invest2cDAIAddress) initializer public {\n        owner = msg.sender;\n        Invest2cDAIAddress = Invest2cDAI(_Invest2cDAIAddress);\n        Invest2FulcrumAddress = Invest2Fulcrum(0xAB58BBF6B6ca1B064aa59113AeA204F554E8fBAe);\n    }\n\n    // this function should be called should we ever want to change the Invest2cDAIAddress\n    function set_Invest2cDAIAddress(Invest2cDAI _Invest2cDAIAddress) onlyOwner public {\n        Invest2cDAIAddress = _Invest2cDAIAddress;\n    }\n\n    // this function should be called should we ever want to change the Invest2FulcrumAddress\n    function set_Invest2FulcrumAddress(Invest2Fulcrum _Invest2FulcrumAddress) onlyOwner public {\n        Invest2FulcrumAddress = _Invest2FulcrumAddress;\n    }\n\n        \n    // this function lets you deposit ETH into this wallet \n    function LetsInvest(address _towhomtoIssueAddress, uint _cDAIAllocation, uint _slippage) stopInEmergency payable public returns (bool) {\n        require(_cDAIAllocation >= 0 || _cDAIAllocation <= 100, \"wrong allocation\");\n        uint investAmt2cDAI = SafeMath.div(SafeMath.mul(msg.value,_cDAIAllocation), 100);\n        uint investAmt2cFulcrum = SafeMath.sub(msg.value, investAmt2cDAI);\n        require (SafeMath.sub(msg.value,SafeMath.add(investAmt2cDAI, investAmt2cFulcrum)) == 0, \"Cannot split incoming ETH appropriately\");\n        Invest2cDAIAddress.LetsInvest.value(investAmt2cDAI)(_towhomtoIssueAddress, _slippage);\n        Invest2FulcrumAddress.LetsInvest2Fulcrum.value(investAmt2cFulcrum)(_towhomtoIssueAddress);\n        return true;\n    }\n\n    \n    function inCaseTokengetsStuck(IERC20 _TokenAddress) onlyOwner public {\n        uint qty = _TokenAddress.balanceOf(address(this));\n        _TokenAddress.transfer(owner, qty);\n    }\n    \n    // - fallback function let you / anyone send ETH to this wallet without the need to call any function\n    function() external payable {\n        if (msg.sender != owner) {\n            LetsInvest(msg.sender, 90, 5);}\n    }\n    \n    // - to Pause the contract\n    function toggleContractActive() onlyOwner public {\n        stopped = !stopped;\n    }\n\n    // - to withdraw any ETH balance sitting in the contract\n    function withdraw() onlyOwner public{\n        owner.transfer(address(this).balance);\n    }\n    \n    // - to kill the contract\n    function destruct() public onlyOwner {\n        selfdestruct(owner);\n    }\n\n\n    /**\n     * @return true if `msg.sender` is the owner of the contract.\n     */\n    function isOwner() public view returns (bool) {\n        return msg.sender == owner;\n    }\n\n    /**\n     * @dev Transfers ownership of the contract to a new account (`newOwner`).\n     * Can only be called by the current owner.\n     */\n    function transferOwnership(address payable newOwner) public onlyOwner {\n        _transferOwnership(newOwner);\n    }\n\n    /**\n     * @dev Transfers ownership of the contract to a new account (`newOwner`).\n     */\n    function _transferOwnership(address payable newOwner) internal {\n        require(newOwner != address(0), \"Ownable: new owner is the zero address\");\n        owner = newOwner;\n    }\n\n}\n",
  "sourcePath": "contracts/UpdatedZaps/Done/LenderZap_NEWDAI_withNewKyberInterface.sol",
  "abi": [
    {
      "payable": true,
      "stateMutability": "payable",
      "type": "fallback"
    },
    {
      "constant": true,
      "inputs": [],
      "name": "Invest2FulcrumAddress",
      "outputs": [
        {
          "internalType": "contract Invest2Fulcrum",
          "name": "",
          "type": "address"
        }
      ],
      "payable": false,
      "stateMutability": "view",
      "type": "function"
    },
    {
      "constant": true,
      "inputs": [],
      "name": "Invest2cDAIAddress",
      "outputs": [
        {
          "internalType": "contract Invest2cDAI",
          "name": "",
          "type": "address"
        }
      ],
      "payable": false,
      "stateMutability": "view",
      "type": "function"
    },
    {
      "constant": false,
      "inputs": [
        {
          "internalType": "address",
          "name": "_towhomtoIssueAddress",
          "type": "address"
        },
        {
          "internalType": "uint256",
          "name": "_cDAIAllocation",
          "type": "uint256"
        },
        {
          "internalType": "uint256",
          "name": "_slippage",
          "type": "uint256"
        }
      ],
      "name": "LetsInvest",
      "outputs": [
        {
          "internalType": "bool",
          "name": "",
          "type": "bool"
        }
      ],
      "payable": true,
      "stateMutability": "payable",
      "type": "function"
    },
    {
      "constant": false,
      "inputs": [],
      "name": "destruct",
      "outputs": [],
      "payable": false,
      "stateMutability": "nonpayable",
      "type": "function"
    },
    {
      "constant": false,
      "inputs": [
        {
          "internalType": "contract IERC20",
          "name": "_TokenAddress",
          "type": "address"
        }
      ],
      "name": "inCaseTokengetsStuck",
      "outputs": [],
      "payable": false,
      "stateMutability": "nonpayable",
      "type": "function"
    },
    {
      "constant": false,
      "inputs": [
        {
          "internalType": "address",
          "name": "_Invest2cDAIAddress",
          "type": "address"
        }
      ],
      "name": "initialize",
      "outputs": [],
      "payable": false,
      "stateMutability": "nonpayable",
      "type": "function"
    },
    {
      "constant": true,
      "inputs": [],
      "name": "isOwner",
      "outputs": [
        {
          "internalType": "bool",
          "name": "",
          "type": "bool"
        }
      ],
      "payable": false,
      "stateMutability": "view",
      "type": "function"
    },
    {
      "constant": true,
      "inputs": [],
      "name": "owner",
      "outputs": [
        {
          "internalType": "address payable",
          "name": "",
          "type": "address"
        }
      ],
      "payable": false,
      "stateMutability": "view",
      "type": "function"
    },
    {
      "constant": false,
      "inputs": [
        {
          "internalType": "contract Invest2Fulcrum",
          "name": "_Invest2FulcrumAddress",
          "type": "address"
        }
      ],
      "name": "set_Invest2FulcrumAddress",
      "outputs": [],
      "payable": false,
      "stateMutability": "nonpayable",
      "type": "function"
    },
    {
      "constant": false,
      "inputs": [
        {
          "internalType": "contract Invest2cDAI",
          "name": "_Invest2cDAIAddress",
          "type": "address"
        }
      ],
      "name": "set_Invest2cDAIAddress",
      "outputs": [],
      "payable": false,
      "stateMutability": "nonpayable",
      "type": "function"
    },
    {
      "constant": false,
      "inputs": [],
      "name": "toggleContractActive",
      "outputs": [],
      "payable": false,
      "stateMutability": "nonpayable",
      "type": "function"
    },
    {
      "constant": false,
      "inputs": [
        {
          "internalType": "address payable",
          "name": "newOwner",
          "type": "address"
        }
      ],
      "name": "transferOwnership",
      "outputs": [],
      "payable": false,
      "stateMutability": "nonpayable",
      "type": "function"
    },
    {
      "constant": false,
      "inputs": [],
      "name": "withdraw",
      "outputs": [],
      "payable": false,
      "stateMutability": "nonpayable",
      "type": "function"
    }
  ],
  "bytecode": "0x60806040526033805460ff1916905534801561001a57600080fd5b50610cf08061002a6000396000f3fe6080604052600436106100d25760003560e01c80638f32d59b1161007f578063d67e94ed11610059578063d67e94ed14610240578063db14551b14610273578063f0274d90146102a6578063f2fde38b146102bb576100d2565b80638f32d59b146101e35780639a22dafe146101f8578063c4d66de81461020d576100d2565b806352abee4a116100b057806352abee4a14610139578063551196d51461017f5780638da5cb5b146101b2576100d2565b80631385d24c146100fa5780632b68b9c61461010f5780633ccfd60b14610124575b60335461010090046001600160a01b031633146100f8576100f633605a60056102ee565b505b005b34801561010657600080fd5b506100f8610458565b34801561011b57600080fd5b506100f86104af565b34801561013057600080fd5b506100f8610505565b61016b6004803603606081101561014f57600080fd5b506001600160a01b0381351690602081013590604001356102ee565b604080519115158252519081900360200190f35b34801561018b57600080fd5b506100f8600480360360208110156101a257600080fd5b50356001600160a01b031661058c565b3480156101be57600080fd5b506101c76106d3565b604080516001600160a01b039092168252519081900360200190f35b3480156101ef57600080fd5b5061016b6106e7565b34801561020457600080fd5b506101c76106fd565b34801561021957600080fd5b506100f86004803603602081101561023057600080fd5b50356001600160a01b031661070c565b34801561024c57600080fd5b506100f86004803603602081101561026357600080fd5b50356001600160a01b0316610812565b34801561027f57600080fd5b506100f86004803603602081101561029657600080fd5b50356001600160a01b0316610877565b3480156102b257600080fd5b506101c76108dc565b3480156102c757600080fd5b506100f8600480360360208110156102de57600080fd5b50356001600160a01b03166108eb565b60335460009060ff1661045157600061031161030a3486610937565b6064610999565b9050600061031f34836109db565b90506103343461032f8484610a1d565b6109db565b156103705760405162461bcd60e51b8152600401808060200182810382526027815260200180610c956027913960400191505060405180910390fd5b6034546040805163e8c949c360e01b81526001600160a01b038981166004830152602482018890529151919092169163e8c949c391859160448082019260009290919082900301818588803b1580156103c857600080fd5b505af11580156103dc573d6000803e3d6000fd5b50506035546040805163c310331360e01b81526001600160a01b038c81166004830152915191909216945063c31033139350859250602480830192600092919082900301818588803b15801561043157600080fd5b505af1158015610445573d6000803e3d6000fd5b50505050506001925050505b9392505050565b6104606106e7565b61049b5760405162461bcd60e51b815260040180806020018281038252602c815260200180610c1a602c913960400191505060405180910390fd5b6033805460ff19811660ff90911615179055565b6104b76106e7565b6104f25760405162461bcd60e51b815260040180806020018281038252602c815260200180610c1a602c913960400191505060405180910390fd5b60335461010090046001600160a01b0316ff5b61050d6106e7565b6105485760405162461bcd60e51b815260040180806020018281038252602c815260200180610c1a602c913960400191505060405180910390fd5b6033546040516001600160a01b036101009092049190911690303180156108fc02916000818181858888f19350505050158015610589573d6000803e3d6000fd5b50565b6105946106e7565b6105cf5760405162461bcd60e51b815260040180806020018281038252602c815260200180610c1a602c913960400191505060405180910390fd5b604080516370a0823160e01b815230600482015290516000916001600160a01b038416916370a0823191602480820192602092909190829003018186803b15801561061957600080fd5b505afa15801561062d573d6000803e3d6000fd5b505050506040513d602081101561064357600080fd5b50516033546040805163a9059cbb60e01b81526101009092046001600160a01b03908116600484015260248301849052905192935084169163a9059cbb916044808201926020929091908290030181600087803b1580156106a357600080fd5b505af11580156106b7573d6000803e3d6000fd5b505050506040513d60208110156106cd57600080fd5b50505050565b60335461010090046001600160a01b031681565b60335461010090046001600160a01b0316331490565b6035546001600160a01b031681565b600054610100900460ff16806107255750610725610a77565b80610733575060005460ff16155b61076e5760405162461bcd60e51b815260040180806020018281038252602e815260200180610c67602e913960400191505060405180910390fd5b600054610100900460ff16158015610799576000805460ff1961ff0019909116610100171660011790555b60338054610100330274ffffffffffffffffffffffffffffffffffffffff0019909116179055603480546001600160a01b0384166001600160a01b0319918216179091556035805490911673ab58bbf6b6ca1b064aa59113aea204f554e8fbae179055801561080e576000805461ff00191690555b5050565b61081a6106e7565b6108555760405162461bcd60e51b815260040180806020018281038252602c815260200180610c1a602c913960400191505060405180910390fd5b603580546001600160a01b0319166001600160a01b0392909216919091179055565b61087f6106e7565b6108ba5760405162461bcd60e51b815260040180806020018281038252602c815260200180610c1a602c913960400191505060405180910390fd5b603480546001600160a01b0319166001600160a01b0392909216919091179055565b6034546001600160a01b031681565b6108f36106e7565b61092e5760405162461bcd60e51b815260040180806020018281038252602c815260200180610c1a602c913960400191505060405180910390fd5b61058981610a7d565b60008261094657506000610993565b8282028284828161095357fe5b04146109905760405162461bcd60e51b8152600401808060200182810382526021815260200180610c466021913960400191505060405180910390fd5b90505b92915050565b600061099083836040518060400160405280601a81526020017f536166654d6174683a206469766973696f6e206279207a65726f000000000000815250610af7565b600061099083836040518060400160405280601e81526020017f536166654d6174683a207375627472616374696f6e206f766572666c6f770000815250610b99565b600082820183811015610990576040805162461bcd60e51b815260206004820152601b60248201527f536166654d6174683a206164646974696f6e206f766572666c6f770000000000604482015290519081900360640190fd5b303b1590565b6001600160a01b038116610ac25760405162461bcd60e51b8152600401808060200182810382526026815260200180610bf46026913960400191505060405180910390fd5b603380546001600160a01b039092166101000274ffffffffffffffffffffffffffffffffffffffff0019909216919091179055565b60008183610b835760405162461bcd60e51b81526004018080602001828103825283818151815260200191508051906020019080838360005b83811015610b48578181015183820152602001610b30565b50505050905090810190601f168015610b755780820380516001836020036101000a031916815260200191505b509250505060405180910390fd5b506000838581610b8f57fe5b0495945050505050565b60008184841115610beb5760405162461bcd60e51b8152602060048201818152835160248401528351909283926044909101919085019080838360008315610b48578181015183820152602001610b30565b50505090039056fe4f776e61626c653a206e6577206f776e657220697320746865207a65726f2061646472657373796f7520617265206e6f7420617574686f726973656420746f2063616c6c20746869732066756e6374696f6e536166654d6174683a206d756c7469706c69636174696f6e206f766572666c6f77436f6e747261637420696e7374616e63652068617320616c7265616479206265656e20696e697469616c697a656443616e6e6f742073706c697420696e636f6d696e672045544820617070726f7072696174656c79a265627a7a72315820b60e145652556fb1ebe01a12cafa7d35f8dbaa3b62ea27b260fba3b9154f307a64736f6c634300050d0032",
  "compiler": {
    "name": "solc",
    "version": "0.5.13+commit.5b0b510c.Emscripten.clang",
    "optimizer": {
      "enabled": true,
      "runs": 500
    },
    "evmVersion": "petersburg"
  }
}