{
  "fileName": "LenderZap_NEWDAI.sol",
  "contractName": "LenderZap_NEWDAI",
  "source": "// Copyright (C) 2019, 2020 dipeshsukhani, nodarjonashi, toshsharma, suhailg\n\n// This program is free software: you can redistribute it and/or modify\n// it under the terms of the GNU Affero General Public License as published by\n// the Free Software Foundation, either version 2 of the License, or\n// (at your option) any later version.\n//\n// This program is distributed in the hope that it will be useful,\n// but WITHOUT ANY WARRANTY; without even the implied warranty of\n// MERCHANTABILITY or FITNESS FOR A PARTICULAR PURPOSE.  See the\n// GNU Affero General Public License for more details.\n//\n// Visit <https://www.gnu.org/licenses/>for a copy of the GNU Affero General Public License\n\n/**\n * WARNING: This is an upgradable contract. Be careful not to disrupt\n * the existing storage layout when making upgrades to the contract. In particular,\n * existing fields should not be removed and should not have their types changed.\n * The order of field declarations must not be changed, and new fields must be added\n * below all existing declarations.\n *\n * The base contracts and the order in which they are declared must not be changed.\n * New fields must not be added to base contracts (unless the base contract has\n * reserved placeholder fields for this purpose).\n *\n * See https://docs.zeppelinos.org/docs/writing_contracts.html for more info.\n*/\n\npragma solidity ^0.5.0;\n\n\nimport \"../../../node_modules/@openzeppelin/upgrades/contracts/Initializable.sol\";\nimport \"../../../node_modules/@openzeppelin/contracts-ethereum-package/contracts/math/SafeMath.sol\";\nimport \"../../../node_modules/@openzeppelin/contracts-ethereum-package/contracts/token/ERC20/IERC20.sol\";\n\n// interfaces \ninterface Invest2cDAI {\n    function letsGetSomeDAI(address _towhomtoissue) external payable;\n}\n\ninterface Invest2Fulcrum {\n    function LetsInvest2Fulcrum(address _towhomtoissue) external payable;\n}\n\n\n// through this contract we are putting a user specified allocation to cDAI and the balance to 2xLongETH\ncontract LenderZap_NEWDAI is Initializable {\n    using SafeMath for uint;\n    \n    // state variables\n    \n    // - THESE MUST ALWAYS STAY IN THE SAME LAYOUT\n    bool private stopped = false;\n    address payable public owner;\n    Invest2cDAI public Invest2cDAIAddress;\n    Invest2Fulcrum public Invest2FulcrumAddress;\n    \n    \n\n    \n    // circuit breaker modifiers\n    modifier stopInEmergency {if (!stopped) _;}\n    modifier onlyInEmergency {if (stopped) _;}\n    modifier onlyOwner() {\n        require(isOwner(), \"you are not authorised to call this function\");\n        _;\n    }\n\n\n    \n    function initialize() initializer public {\n        owner = msg.sender;\n        Invest2cDAIAddress = Invest2cDAI(0x1FE91B5D531620643cADcAcc9C3bA83097c1B698);Invest2FulcrumAddress = Invest2Fulcrum(0xAB58BBF6B6ca1B064aa59113AeA204F554E8fBAe);\n    }\n\n    // this function should be called should we ever want to change the Invest2cDAIAddress\n    function set_Invest2cDAIAddress(Invest2cDAI _Invest2cDAIAddress) onlyOwner public {\n        Invest2cDAIAddress = _Invest2cDAIAddress;\n    }\n\n    // this function should be called should we ever want to change the Invest2FulcrumAddress\n    function set_Invest2FulcrumAddress(Invest2Fulcrum _Invest2FulcrumAddress) onlyOwner public {\n        Invest2FulcrumAddress = _Invest2FulcrumAddress;\n    }\n\n        \n    // this function lets you deposit ETH into this wallet \n    function LetsInvest(address _towhomtoIssueAddress, uint _cDAIAllocation) stopInEmergency payable public returns (bool) {\n        require(_cDAIAllocation >= 0 || _cDAIAllocation <= 100, \"wrong allocation\");\n        uint investAmt2cDAI = SafeMath.div(SafeMath.mul(msg.value,_cDAIAllocation), 100);\n        uint investAmt2cFulcrum = SafeMath.sub(msg.value, investAmt2cDAI);\n        require (SafeMath.sub(msg.value,SafeMath.add(investAmt2cDAI, investAmt2cFulcrum)) == 0, \"Cannot split incoming ETH appropriately\");\n        Invest2cDAIAddress.letsGetSomeDAI.value(investAmt2cDAI)(_towhomtoIssueAddress);\n        Invest2FulcrumAddress.LetsInvest2Fulcrum.value(investAmt2cFulcrum)(_towhomtoIssueAddress);\n        return true;\n    }\n\n    \n    function inCaseTokengetsStuck(IERC20 _TokenAddress) onlyOwner public {\n        uint qty = _TokenAddress.balanceOf(address(this));\n        _TokenAddress.transfer(owner, qty);\n    }\n    \n    // - fallback function let you / anyone send ETH to this wallet without the need to call any function\n    function() external payable {\n        if (msg.sender != owner) {\n            LetsInvest(msg.sender, 90);}\n    }\n    \n    // - to Pause the contract\n    function toggleContractActive() onlyOwner public {\n        stopped = !stopped;\n    }\n\n     // - to withdraw any ETH balance sitting in the contract\n    function withdraw() onlyOwner public{\n        owner.transfer(address(this).balance);\n    }\n    \n    // - to kill the contract\n    function destruct() public onlyOwner {\n        selfdestruct(owner);\n    }\n\n\n    /**\n     * @return true if `msg.sender` is the owner of the contract.\n     */\n    function isOwner() public view returns (bool) {\n        return msg.sender == owner;\n    }\n\n    /**\n     * @dev Transfers ownership of the contract to a new account (`newOwner`).\n     * Can only be called by the current owner.\n     */\n    function transferOwnership(address payable newOwner) public onlyOwner {\n        _transferOwnership(newOwner);\n    }\n\n    /**\n     * @dev Transfers ownership of the contract to a new account (`newOwner`).\n     */\n    function _transferOwnership(address payable newOwner) internal {\n        require(newOwner != address(0), \"Ownable: new owner is the zero address\");\n        owner = newOwner;\n    }\n\n}\n",
  "sourcePath": "contracts/UpdatedZaps/Current WIP/LenderZap_NEWDAI.sol",
  "abi": [
    {
      "payable": true,
      "stateMutability": "payable",
      "type": "fallback"
    },
    {
      "constant": true,
      "inputs": [],
      "name": "Invest2FulcrumAddress",
      "outputs": [
        {
          "internalType": "contract Invest2Fulcrum",
          "name": "",
          "type": "address"
        }
      ],
      "payable": false,
      "stateMutability": "view",
      "type": "function"
    },
    {
      "constant": true,
      "inputs": [],
      "name": "Invest2cDAIAddress",
      "outputs": [
        {
          "internalType": "contract Invest2cDAI",
          "name": "",
          "type": "address"
        }
      ],
      "payable": false,
      "stateMutability": "view",
      "type": "function"
    },
    {
      "constant": false,
      "inputs": [
        {
          "internalType": "address",
          "name": "_towhomtoIssueAddress",
          "type": "address"
        },
        {
          "internalType": "uint256",
          "name": "_cDAIAllocation",
          "type": "uint256"
        }
      ],
      "name": "LetsInvest",
      "outputs": [
        {
          "internalType": "bool",
          "name": "",
          "type": "bool"
        }
      ],
      "payable": true,
      "stateMutability": "payable",
      "type": "function"
    },
    {
      "constant": false,
      "inputs": [],
      "name": "destruct",
      "outputs": [],
      "payable": false,
      "stateMutability": "nonpayable",
      "type": "function"
    },
    {
      "constant": false,
      "inputs": [
        {
          "internalType": "contract IERC20",
          "name": "_TokenAddress",
          "type": "address"
        }
      ],
      "name": "inCaseTokengetsStuck",
      "outputs": [],
      "payable": false,
      "stateMutability": "nonpayable",
      "type": "function"
    },
    {
      "constant": false,
      "inputs": [],
      "name": "initialize",
      "outputs": [],
      "payable": false,
      "stateMutability": "nonpayable",
      "type": "function"
    },
    {
      "constant": true,
      "inputs": [],
      "name": "isOwner",
      "outputs": [
        {
          "internalType": "bool",
          "name": "",
          "type": "bool"
        }
      ],
      "payable": false,
      "stateMutability": "view",
      "type": "function"
    },
    {
      "constant": true,
      "inputs": [],
      "name": "owner",
      "outputs": [
        {
          "internalType": "address payable",
          "name": "",
          "type": "address"
        }
      ],
      "payable": false,
      "stateMutability": "view",
      "type": "function"
    },
    {
      "constant": false,
      "inputs": [
        {
          "internalType": "contract Invest2Fulcrum",
          "name": "_Invest2FulcrumAddress",
          "type": "address"
        }
      ],
      "name": "set_Invest2FulcrumAddress",
      "outputs": [],
      "payable": false,
      "stateMutability": "nonpayable",
      "type": "function"
    },
    {
      "constant": false,
      "inputs": [
        {
          "internalType": "contract Invest2cDAI",
          "name": "_Invest2cDAIAddress",
          "type": "address"
        }
      ],
      "name": "set_Invest2cDAIAddress",
      "outputs": [],
      "payable": false,
      "stateMutability": "nonpayable",
      "type": "function"
    },
    {
      "constant": false,
      "inputs": [],
      "name": "toggleContractActive",
      "outputs": [],
      "payable": false,
      "stateMutability": "nonpayable",
      "type": "function"
    },
    {
      "constant": false,
      "inputs": [
        {
          "internalType": "address payable",
          "name": "newOwner",
          "type": "address"
        }
      ],
      "name": "transferOwnership",
      "outputs": [],
      "payable": false,
      "stateMutability": "nonpayable",
      "type": "function"
    },
    {
      "constant": false,
      "inputs": [],
      "name": "withdraw",
      "outputs": [],
      "payable": false,
      "stateMutability": "nonpayable",
      "type": "function"
    }
  ],
  "bytecode": "0x60806040526000603360006101000a81548160ff02191690831515021790555034801561002b57600080fd5b5061146c8061003b6000396000f3fe6080604052600436106100c25760003560e01c80638f32d59b1161007f578063db14551b11610059578063db14551b14610301578063e8c949c314610352578063f0274d90146103b8578063f2fde38b1461040f576100c2565b80638f32d59b1461022a5780639a22dafe14610259578063d67e94ed146102b0576100c2565b80631385d24c146101265780632b68b9c61461013d5780633ccfd60b14610154578063551196d51461016b5780638129fc1c146101bc5780638da5cb5b146101d3575b603360019054906101000a900473ffffffffffffffffffffffffffffffffffffffff1673ffffffffffffffffffffffffffffffffffffffff163373ffffffffffffffffffffffffffffffffffffffff16146101245761012233605a610460565b505b005b34801561013257600080fd5b5061013b61070b565b005b34801561014957600080fd5b50610152610794565b005b34801561016057600080fd5b5061016961082c565b005b34801561017757600080fd5b506101ba6004803603602081101561018e57600080fd5b81019080803573ffffffffffffffffffffffffffffffffffffffff16906020019092919050505061090b565b005b3480156101c857600080fd5b506101d1610b0d565b005b3480156101df57600080fd5b506101e8610cf7565b604051808273ffffffffffffffffffffffffffffffffffffffff1673ffffffffffffffffffffffffffffffffffffffff16815260200191505060405180910390f35b34801561023657600080fd5b5061023f610d1d565b604051808215151515815260200191505060405180910390f35b34801561026557600080fd5b5061026e610d75565b604051808273ffffffffffffffffffffffffffffffffffffffff1673ffffffffffffffffffffffffffffffffffffffff16815260200191505060405180910390f35b3480156102bc57600080fd5b506102ff600480360360208110156102d357600080fd5b81019080803573ffffffffffffffffffffffffffffffffffffffff169060200190929190505050610d9b565b005b34801561030d57600080fd5b506103506004803603602081101561032457600080fd5b81019080803573ffffffffffffffffffffffffffffffffffffffff169060200190929190505050610e3c565b005b61039e6004803603604081101561036857600080fd5b81019080803573ffffffffffffffffffffffffffffffffffffffff16906020019092919080359060200190929190505050610460565b604051808215151515815260200191505060405180910390f35b3480156103c457600080fd5b506103cd610edd565b604051808273ffffffffffffffffffffffffffffffffffffffff1673ffffffffffffffffffffffffffffffffffffffff16815260200191505060405180910390f35b34801561041b57600080fd5b5061045e6004803603602081101561043257600080fd5b81019080803573ffffffffffffffffffffffffffffffffffffffff169060200190929190505050610f03565b005b6000603360009054906101000a900460ff1661070557600082101580610487575060648211155b6104f9576040517f08c379a00000000000000000000000000000000000000000000000000000000081526004018080602001828103825260108152602001807f77726f6e6720616c6c6f636174696f6e0000000000000000000000000000000081525060200191505060405180910390fd5b600061050f6105083485610f6c565b6064610ff2565b9050600061051d348361103c565b905060006105343461052f8585611086565b61103c565b1461058a576040517f08c379a00000000000000000000000000000000000000000000000000000000081526004018080602001828103825260278152602001806114116027913960400191505060405180910390fd5b603460009054906101000a900473ffffffffffffffffffffffffffffffffffffffff1673ffffffffffffffffffffffffffffffffffffffff166318dfa21083876040518363ffffffff1660e01b8152600401808273ffffffffffffffffffffffffffffffffffffffff1673ffffffffffffffffffffffffffffffffffffffff1681526020019150506000604051808303818588803b15801561062b57600080fd5b505af115801561063f573d6000803e3d6000fd5b5050505050603560009054906101000a900473ffffffffffffffffffffffffffffffffffffffff1673ffffffffffffffffffffffffffffffffffffffff1663c310331382876040518363ffffffff1660e01b8152600401808273ffffffffffffffffffffffffffffffffffffffff1673ffffffffffffffffffffffffffffffffffffffff1681526020019150506000604051808303818588803b1580156106e557600080fd5b505af11580156106f9573d6000803e3d6000fd5b50505050506001925050505b92915050565b610713610d1d565b610768576040517f08c379a000000000000000000000000000000000000000000000000000000000815260040180806020018281038252602c815260200180611396602c913960400191505060405180910390fd5b603360009054906101000a900460ff1615603360006101000a81548160ff021916908315150217905550565b61079c610d1d565b6107f1576040517f08c379a000000000000000000000000000000000000000000000000000000000815260040180806020018281038252602c815260200180611396602c913960400191505060405180910390fd5b603360019054906101000a900473ffffffffffffffffffffffffffffffffffffffff1673ffffffffffffffffffffffffffffffffffffffff16ff5b610834610d1d565b610889576040517f08c379a000000000000000000000000000000000000000000000000000000000815260040180806020018281038252602c815260200180611396602c913960400191505060405180910390fd5b603360019054906101000a900473ffffffffffffffffffffffffffffffffffffffff1673ffffffffffffffffffffffffffffffffffffffff166108fc3073ffffffffffffffffffffffffffffffffffffffff16319081150290604051600060405180830381858888f19350505050158015610908573d6000803e3d6000fd5b50565b610913610d1d565b610968576040517f08c379a000000000000000000000000000000000000000000000000000000000815260040180806020018281038252602c815260200180611396602c913960400191505060405180910390fd5b60008173ffffffffffffffffffffffffffffffffffffffff166370a08231306040518263ffffffff1660e01b8152600401808273ffffffffffffffffffffffffffffffffffffffff1673ffffffffffffffffffffffffffffffffffffffff16815260200191505060206040518083038186803b1580156109e757600080fd5b505afa1580156109fb573d6000803e3d6000fd5b505050506040513d6020811015610a1157600080fd5b810190808051906020019092919050505090508173ffffffffffffffffffffffffffffffffffffffff1663a9059cbb603360019054906101000a900473ffffffffffffffffffffffffffffffffffffffff16836040518363ffffffff1660e01b8152600401808373ffffffffffffffffffffffffffffffffffffffff1673ffffffffffffffffffffffffffffffffffffffff16815260200182815260200192505050602060405180830381600087803b158015610acd57600080fd5b505af1158015610ae1573d6000803e3d6000fd5b505050506040513d6020811015610af757600080fd5b8101908080519060200190929190505050505050565b600060019054906101000a900460ff1680610b2c5750610b2b61110e565b5b80610b4357506000809054906101000a900460ff16155b610b98576040517f08c379a000000000000000000000000000000000000000000000000000000000815260040180806020018281038252602e8152602001806113e3602e913960400191505060405180910390fd5b60008060019054906101000a900460ff161590508015610be8576001600060016101000a81548160ff02191690831515021790555060016000806101000a81548160ff0219169083151502179055505b33603360016101000a81548173ffffffffffffffffffffffffffffffffffffffff021916908373ffffffffffffffffffffffffffffffffffffffff160217905550731fe91b5d531620643cadcacc9c3ba83097c1b698603460006101000a81548173ffffffffffffffffffffffffffffffffffffffff021916908373ffffffffffffffffffffffffffffffffffffffff16021790555073ab58bbf6b6ca1b064aa59113aea204f554e8fbae603560006101000a81548173ffffffffffffffffffffffffffffffffffffffff021916908373ffffffffffffffffffffffffffffffffffffffff1602179055508015610cf45760008060016101000a81548160ff0219169083151502179055505b50565b603360019054906101000a900473ffffffffffffffffffffffffffffffffffffffff1681565b6000603360019054906101000a900473ffffffffffffffffffffffffffffffffffffffff1673ffffffffffffffffffffffffffffffffffffffff163373ffffffffffffffffffffffffffffffffffffffff1614905090565b603560009054906101000a900473ffffffffffffffffffffffffffffffffffffffff1681565b610da3610d1d565b610df8576040517f08c379a000000000000000000000000000000000000000000000000000000000815260040180806020018281038252602c815260200180611396602c913960400191505060405180910390fd5b80603560006101000a81548173ffffffffffffffffffffffffffffffffffffffff021916908373ffffffffffffffffffffffffffffffffffffffff16021790555050565b610e44610d1d565b610e99576040517f08c379a000000000000000000000000000000000000000000000000000000000815260040180806020018281038252602c815260200180611396602c913960400191505060405180910390fd5b80603460006101000a81548173ffffffffffffffffffffffffffffffffffffffff021916908373ffffffffffffffffffffffffffffffffffffffff16021790555050565b603460009054906101000a900473ffffffffffffffffffffffffffffffffffffffff1681565b610f0b610d1d565b610f60576040517f08c379a000000000000000000000000000000000000000000000000000000000815260040180806020018281038252602c815260200180611396602c913960400191505060405180910390fd5b610f698161111f565b50565b600080831415610f7f5760009050610fec565b6000828402905082848281610f9057fe5b0414610fe7576040517f08c379a00000000000000000000000000000000000000000000000000000000081526004018080602001828103825260218152602001806113c26021913960400191505060405180910390fd5b809150505b92915050565b600061103483836040518060400160405280601a81526020017f536166654d6174683a206469766973696f6e206279207a65726f0000000000008152506111e9565b905092915050565b600061107e83836040518060400160405280601e81526020017f536166654d6174683a207375627472616374696f6e206f766572666c6f7700008152506112af565b905092915050565b600080828401905083811015611104576040517f08c379a000000000000000000000000000000000000000000000000000000000815260040180806020018281038252601b8152602001807f536166654d6174683a206164646974696f6e206f766572666c6f77000000000081525060200191505060405180910390fd5b8091505092915050565b600080303b90506000811491505090565b600073ffffffffffffffffffffffffffffffffffffffff168173ffffffffffffffffffffffffffffffffffffffff1614156111a5576040517f08c379a00000000000000000000000000000000000000000000000000000000081526004018080602001828103825260268152602001806113706026913960400191505060405180910390fd5b80603360016101000a81548173ffffffffffffffffffffffffffffffffffffffff021916908373ffffffffffffffffffffffffffffffffffffffff16021790555050565b60008083118290611295576040517f08c379a00000000000000000000000000000000000000000000000000000000081526004018080602001828103825283818151815260200191508051906020019080838360005b8381101561125a57808201518184015260208101905061123f565b50505050905090810190601f1680156112875780820380516001836020036101000a031916815260200191505b509250505060405180910390fd5b5060008385816112a157fe5b049050809150509392505050565b600083831115829061135c576040517f08c379a00000000000000000000000000000000000000000000000000000000081526004018080602001828103825283818151815260200191508051906020019080838360005b83811015611321578082015181840152602081019050611306565b50505050905090810190601f16801561134e5780820380516001836020036101000a031916815260200191505b509250505060405180910390fd5b506000838503905080915050939250505056fe4f776e61626c653a206e6577206f776e657220697320746865207a65726f2061646472657373796f7520617265206e6f7420617574686f726973656420746f2063616c6c20746869732066756e6374696f6e536166654d6174683a206d756c7469706c69636174696f6e206f766572666c6f77436f6e747261637420696e7374616e63652068617320616c7265616479206265656e20696e697469616c697a656443616e6e6f742073706c697420696e636f6d696e672045544820617070726f7072696174656c79a265627a7a723158200ad1608305d7e9c1ada947ffc91acbcbfaf1a26462abfbaa306352cace8c76a264736f6c634300050d0032",
  "compiler": {
    "name": "solc",
    "version": "0.5.13+commit.5b0b510c.Emscripten.clang",
    "optimizer": {
      "enabled": false,
      "runs": 200
    },
    "evmVersion": "petersburg"
  }
}