{
  "fileName": "LLP_ETH_LinkZap.sol",
  "contractName": "Link_LLP_2xETH",
  "source": "// Copyright (C) 2019, 2020 dipeshsukhani, nodarjonashi, toshsharma, suhailg\n\n// This program is free software: you can redistribute it and/or modify\n// it under the terms of the GNU Affero General Public License as published by\n// the Free Software Foundation, either version 2 of the License, or\n// (at your option) any later version.\n//\n// This program is distributed in the hope that it will be useful,\n// but WITHOUT ANY WARRANTY; without even the implied warranty of\n// MERCHANTABILITY or FITNESS FOR A PARTICULAR PURPOSE.  See the\n// GNU Affero General Public License for more details.\n//\n// Visit <https://www.gnu.org/licenses/>for a copy of the GNU Affero General Public License\n\n/**\n * WARNING: This is an upgradable contract. Be careful not to disrupt\n * the existing storage layout when making upgrades to the contract. In particular,\n * existing fields should not be removed and should not have their types changed.\n * The order of field declarations must not be changed, and new fields must be added\n * below all existing declarations.\n *\n * The base contracts and the order in which they are declared must not be changed.\n * New fields must not be added to base contracts (unless the base contract has\n * reserved placeholder fields for this purpose).\n *\n * See https://docs.zeppelinos.org/docs/writing_contracts.html for more info.\n*/\n\npragma solidity ^0.5.0;\n\nimport \"../../../node_modules/@openzeppelin/upgrades/contracts/Initializable.sol\";\nimport \"../../../node_modules/@openzeppelin/contracts-ethereum-package/contracts/math/SafeMath.sol\";\nimport \"../../../node_modules/@openzeppelin/contracts-ethereum-package/contracts/token/ERC20/IERC20.sol\";\n\ninterface LLP_General_Link {\n    function LetsInvest(\n        address payable _towhomtoIssueAddress,\n        uint256 _2XLongETHAllocation,\n        address _InvesteeTokenAddress,\n        uint256 _slippage,\n        bool _residualInToken\n    ) external payable returns (uint256);\n}\n\n// through this contract we are putting 34% allocation to 2xLongETH and 66% to Uniswap pool\ncontract Link_LLP_2xETH is Initializable {\n    using SafeMath for uint256;\n\n    // state variables\n\n    // - THESE MUST ALWAYS STAY IN THE SAME LAYOUT\n    bool private stopped;\n    address payable public owner;\n    LLP_General_Link public LLP_GeneralAddress;\n    address public ChainLinkAddress;\n\n    // circuit breaker modifiers\n    modifier stopInEmergency {\n        if (stopped) {\n            revert(\"Temporarily Paused\");\n        } else {\n            _;\n        }\n    }\n    modifier onlyOwner() {\n        require(isOwner(), \"you are not authorised to call this function\");\n        _;\n    }\n\n    function initialize(address _LLP_GeneralAddress, address _ChainLinkAddress)\n        public\n        initializer\n    {\n        stopped = false;\n        owner = msg.sender;\n        LLP_GeneralAddress = LLP_General_Link(_LLP_GeneralAddress);\n        ChainLinkAddress = _ChainLinkAddress;\n    }\n\n    // this function should be called should we ever want to change the underlying LLP_GeneralAddress Contract address\n    function set_LLP_GeneralAddress(address _new_LLP_GeneralAddress)\n        public\n        onlyOwner\n    {\n        LLP_GeneralAddress = LLP_General_Link(_new_LLP_GeneralAddress);\n    }\n\n    // this function should be called should we ever want to change the underlying ChainLink Contract address\n    function set_ChainLinkAddress(address _new_ChainLinkAddress)\n        public\n        onlyOwner\n    {\n        ChainLinkAddress = _new_ChainLinkAddress;\n    }\n\n    // main function which will make the investments\n    function LetsInvest(\n        address payable _towhomtoIssueAddress,\n        uint256 _2XLongETHAllocation,\n        uint256 _slippage,\n        bool _residualInToken\n    ) public payable returns (uint256) {\n        LLP_GeneralAddress.LetsInvest.value(msg.value)(\n            _towhomtoIssueAddress,\n            34,\n            ChainLinkAddress,\n            5,\n            false\n        );\n    }\n\n    function inCaseTokengetsStuck(IERC20 _TokenAddress) public onlyOwner {\n        uint256 qty = _TokenAddress.balanceOf(address(this));\n        _TokenAddress.transfer(owner, qty);\n    }\n\n    // - fallback function let you / anyone send ETH to this wallet without the need to call any function\n    function() external payable {\n        if (msg.sender != owner) {\n            LetsInvest(msg.sender, 34, 5, false);\n        }\n    }\n\n    // - to Pause the contract\n    function toggleContractActive() public onlyOwner {\n        stopped = !stopped;\n    }\n\n    // - to withdraw any ETH balance sitting in the contract\n    function withdraw() public onlyOwner {\n        owner.transfer(address(this).balance);\n    }\n\n    // - to kill the contract\n    function destruct() public onlyOwner {\n        selfdestruct(owner);\n    }\n\n    /**\n     * @return true if `msg.sender` is the owner of the contract.\n     */\n    function isOwner() public view returns (bool) {\n        return msg.sender == owner;\n    }\n\n    /**\n     * @dev Transfers ownership of the contract to a new account (`newOwner`).\n     * Can only be called by the current owner.\n     */\n    function transferOwnership(address payable newOwner) public onlyOwner {\n        _transferOwnership(newOwner);\n    }\n\n    /**\n     * @dev Transfers ownership of the contract to a new account (`newOwner`).\n     */\n    function _transferOwnership(address payable newOwner) internal {\n        require(\n            newOwner != address(0),\n            \"Ownable: new owner is the zero address\"\n        );\n        owner = newOwner;\n    }\n\n}\n",
  "sourcePath": "contracts/UpdatedZaps/Done/LLP_ETH_LinkZap.sol",
  "abi": [
    {
      "payable": true,
      "stateMutability": "payable",
      "type": "fallback"
    },
    {
      "constant": true,
      "inputs": [],
      "name": "ChainLinkAddress",
      "outputs": [
        {
          "internalType": "address",
          "name": "",
          "type": "address"
        }
      ],
      "payable": false,
      "stateMutability": "view",
      "type": "function"
    },
    {
      "constant": true,
      "inputs": [],
      "name": "LLP_GeneralAddress",
      "outputs": [
        {
          "internalType": "contract LLP_General_Link",
          "name": "",
          "type": "address"
        }
      ],
      "payable": false,
      "stateMutability": "view",
      "type": "function"
    },
    {
      "constant": false,
      "inputs": [
        {
          "internalType": "address payable",
          "name": "_towhomtoIssueAddress",
          "type": "address"
        },
        {
          "internalType": "uint256",
          "name": "_2XLongETHAllocation",
          "type": "uint256"
        },
        {
          "internalType": "uint256",
          "name": "_slippage",
          "type": "uint256"
        },
        {
          "internalType": "bool",
          "name": "_residualInToken",
          "type": "bool"
        }
      ],
      "name": "LetsInvest",
      "outputs": [
        {
          "internalType": "uint256",
          "name": "",
          "type": "uint256"
        }
      ],
      "payable": true,
      "stateMutability": "payable",
      "type": "function"
    },
    {
      "constant": false,
      "inputs": [],
      "name": "destruct",
      "outputs": [],
      "payable": false,
      "stateMutability": "nonpayable",
      "type": "function"
    },
    {
      "constant": false,
      "inputs": [
        {
          "internalType": "contract IERC20",
          "name": "_TokenAddress",
          "type": "address"
        }
      ],
      "name": "inCaseTokengetsStuck",
      "outputs": [],
      "payable": false,
      "stateMutability": "nonpayable",
      "type": "function"
    },
    {
      "constant": false,
      "inputs": [
        {
          "internalType": "address",
          "name": "_LLP_GeneralAddress",
          "type": "address"
        },
        {
          "internalType": "address",
          "name": "_ChainLinkAddress",
          "type": "address"
        }
      ],
      "name": "initialize",
      "outputs": [],
      "payable": false,
      "stateMutability": "nonpayable",
      "type": "function"
    },
    {
      "constant": true,
      "inputs": [],
      "name": "isOwner",
      "outputs": [
        {
          "internalType": "bool",
          "name": "",
          "type": "bool"
        }
      ],
      "payable": false,
      "stateMutability": "view",
      "type": "function"
    },
    {
      "constant": true,
      "inputs": [],
      "name": "owner",
      "outputs": [
        {
          "internalType": "address payable",
          "name": "",
          "type": "address"
        }
      ],
      "payable": false,
      "stateMutability": "view",
      "type": "function"
    },
    {
      "constant": false,
      "inputs": [
        {
          "internalType": "address",
          "name": "_new_ChainLinkAddress",
          "type": "address"
        }
      ],
      "name": "set_ChainLinkAddress",
      "outputs": [],
      "payable": false,
      "stateMutability": "nonpayable",
      "type": "function"
    },
    {
      "constant": false,
      "inputs": [
        {
          "internalType": "address",
          "name": "_new_LLP_GeneralAddress",
          "type": "address"
        }
      ],
      "name": "set_LLP_GeneralAddress",
      "outputs": [],
      "payable": false,
      "stateMutability": "nonpayable",
      "type": "function"
    },
    {
      "constant": false,
      "inputs": [],
      "name": "toggleContractActive",
      "outputs": [],
      "payable": false,
      "stateMutability": "nonpayable",
      "type": "function"
    },
    {
      "constant": false,
      "inputs": [
        {
          "internalType": "address payable",
          "name": "newOwner",
          "type": "address"
        }
      ],
      "name": "transferOwnership",
      "outputs": [],
      "payable": false,
      "stateMutability": "nonpayable",
      "type": "function"
    },
    {
      "constant": false,
      "inputs": [],
      "name": "withdraw",
      "outputs": [],
      "payable": false,
      "stateMutability": "nonpayable",
      "type": "function"
    }
  ],
  "bytecode": "0x608060405234801561001057600080fd5b506109c5806100206000396000f3fe6080604052600436106100d25760003560e01c8063551196d51161007f5780638f32d59b116100595780638f32d59b1461028c57806393605a03146102b5578063ae4184f8146102ca578063f2fde38b146102df576100d2565b8063551196d5146101f55780638c294c5d146102285780638da5cb5b1461025b576100d2565b8063381480dc116100b0578063381480dc146101595780633ccfd60b146101a5578063485cc955146101ba576100d2565b8063127fad04146100fc5780631385d24c1461012f5780632b68b9c614610144575b60335461010090046001600160a01b031633146100fa576100f833602260056000610312565b505b005b34801561010857600080fd5b506100fa6004803603602081101561011f57600080fd5b50356001600160a01b03166103bd565b34801561013b57600080fd5b506100fa610422565b34801561015057600080fd5b506100fa610479565b6101936004803603608081101561016f57600080fd5b506001600160a01b0381351690602081013590604081013590606001351515610312565b60408051918252519081900360200190f35b3480156101b157600080fd5b506100fa6104cf565b3480156101c657600080fd5b506100fa600480360360408110156101dd57600080fd5b506001600160a01b0381358116916020013516610556565b34801561020157600080fd5b506100fa6004803603602081101561021857600080fd5b50356001600160a01b0316610650565b34801561023457600080fd5b506100fa6004803603602081101561024b57600080fd5b50356001600160a01b0316610797565b34801561026757600080fd5b506102706107fc565b604080516001600160a01b039092168252519081900360200190f35b34801561029857600080fd5b506102a1610810565b604080519115158252519081900360200190f35b3480156102c157600080fd5b50610270610826565b3480156102d657600080fd5b50610270610835565b3480156102eb57600080fd5b506100fa6004803603602081101561030257600080fd5b50356001600160a01b0316610844565b603454603554604080516307acf65f60e21b81526001600160a01b03888116600483015260226024830152928316604482015260056064820152600060848201819052915191939290921691631eb3d97c91349160a48082019260209290919082900301818588803b15801561038757600080fd5b505af115801561039b573d6000803e3d6000fd5b50505050506040513d60208110156103b257600080fd5b509095945050505050565b6103c5610810565b6104005760405162461bcd60e51b815260040180806020018281038252602c815260200180610937602c913960400191505060405180910390fd5b603480546001600160a01b0319166001600160a01b0392909216919091179055565b61042a610810565b6104655760405162461bcd60e51b815260040180806020018281038252602c815260200180610937602c913960400191505060405180910390fd5b6033805460ff19811660ff90911615179055565b610481610810565b6104bc5760405162461bcd60e51b815260040180806020018281038252602c815260200180610937602c913960400191505060405180910390fd5b60335461010090046001600160a01b0316ff5b6104d7610810565b6105125760405162461bcd60e51b815260040180806020018281038252602c815260200180610937602c913960400191505060405180910390fd5b6033546040516001600160a01b036101009092049190911690303180156108fc02916000818181858888f19350505050158015610553573d6000803e3d6000fd5b50565b600054610100900460ff168061056f575061056f610890565b8061057d575060005460ff16155b6105b85760405162461bcd60e51b815260040180806020018281038252602e815260200180610963602e913960400191505060405180910390fd5b600054610100900460ff161580156105e3576000805460ff1961ff0019909116610100171660011790555b60338054336101000274ffffffffffffffffffffffffffffffffffffffffff19909116179055603480546001600160a01b038581166001600160a01b0319928316179092556035805492851692909116919091179055801561064b576000805461ff00191690555b505050565b610658610810565b6106935760405162461bcd60e51b815260040180806020018281038252602c815260200180610937602c913960400191505060405180910390fd5b604080516370a0823160e01b815230600482015290516000916001600160a01b038416916370a0823191602480820192602092909190829003018186803b1580156106dd57600080fd5b505afa1580156106f1573d6000803e3d6000fd5b505050506040513d602081101561070757600080fd5b50516033546040805163a9059cbb60e01b81526101009092046001600160a01b03908116600484015260248301849052905192935084169163a9059cbb916044808201926020929091908290030181600087803b15801561076757600080fd5b505af115801561077b573d6000803e3d6000fd5b505050506040513d602081101561079157600080fd5b50505050565b61079f610810565b6107da5760405162461bcd60e51b815260040180806020018281038252602c815260200180610937602c913960400191505060405180910390fd5b603580546001600160a01b0319166001600160a01b0392909216919091179055565b60335461010090046001600160a01b031681565b60335461010090046001600160a01b0316331490565b6034546001600160a01b031681565b6035546001600160a01b031681565b61084c610810565b6108875760405162461bcd60e51b815260040180806020018281038252602c815260200180610937602c913960400191505060405180910390fd5b61055381610896565b303b1590565b6001600160a01b0381166108db5760405162461bcd60e51b81526004018080602001828103825260268152602001806109116026913960400191505060405180910390fd5b603380546001600160a01b039092166101000274ffffffffffffffffffffffffffffffffffffffff001990921691909117905556fe4f776e61626c653a206e6577206f776e657220697320746865207a65726f2061646472657373796f7520617265206e6f7420617574686f726973656420746f2063616c6c20746869732066756e6374696f6e436f6e747261637420696e7374616e63652068617320616c7265616479206265656e20696e697469616c697a6564a265627a7a723158200dfba6dec0084a2d5be4e16c3e5c2e4855f6eb9d5bb4f972b80b2f85b7b999c064736f6c634300050d0032",
  "compiler": {
    "name": "solc",
    "version": "0.5.13+commit.5b0b510c.Emscripten.clang",
    "optimizer": {
      "enabled": true,
      "runs": 500
    },
    "evmVersion": "petersburg"
  }
}