{
  "fileName": "LLP_ERC20Token_General.sol",
  "contractName": "LLP_ERC20Token_General",
  "source": "// Copyright (C) 2019, 2020 dipeshsukhani, nodarjonashi, toshsharma, suhailg\n\n// This program is free software: you can redistribute it and/or modify\n// it under the terms of the GNU Affero General Public License as published by\n// the Free Software Foundation, either version 2 of the License, or\n// (at your option) any later version.\n//\n// This program is distributed in the hope that it will be useful,\n// but WITHOUT ANY WARRANTY; without even the implied warranty of\n// MERCHANTABILITY or FITNESS FOR A PARTICULAR PURPOSE.  See the\n// GNU Affero General Public License for more details.\n//\n// Visit <https://www.gnu.org/licenses/>for a copy of the GNU Affero General Public License\n\n/**\n * WARNING: This is an upgradable contract. Be careful not to disrupt\n * the existing storage layout when making upgrades to the contract. In particular,\n * existing fields should not be removed and should not have their types changed.\n * The order of field declarations must not be changed, and new fields must be added\n * below all existing declarations.\n *\n * The base contracts and the order in which they are declared must not be changed.\n * New fields must not be added to base contracts (unless the base contract has\n * reserved placeholder fields for this purpose).\n *\n * See https://docs.zeppelinos.org/docs/writing_contracts.html for more info.\n*/\n\npragma solidity ^0.5.0;\n\nimport \"../../../node_modules/@openzeppelin/upgrades/contracts/Initializable.sol\";\nimport \"../../../node_modules/@openzeppelin/contracts-ethereum-package/contracts/math/SafeMath.sol\";\nimport \"../../../node_modules/@openzeppelin/contracts-ethereum-package/contracts/token/ERC20/IERC20.sol\";\n\n\n\n// this is the underlying contract that invests in 2xLongETH on Fulcrum\ninterface Invest2FulcrumV3 {\n    function LetsInvest(address _FuclrumOnwardAddress, address _destTokenAddress, uint _slippage, address _towhomtoissue) payable external returns (uint);\n}\n\ninterface UniSwapAddLiquityV2_General {\n    function LetsInvest(address _TokenContractAddress, address _towhomtoissue) external payable returns (uint);\n}\n\n\ncontract LLP_ERC20Token_General is Initializable {\n    using SafeMath for uint;\n    \n    // state variables\n\n    // - THESE MUST ALWAYS STAY IN THE SAME LAYOUT\n    bool private stopped;\n    address payable public owner;\n    Invest2FulcrumV3 public Invest2FulcrumV3Address;\n    UniSwapAddLiquityV2_General public UniSwapAddLiquityV2_GeneralAddress;\n\n    // circuit breaker modifiers\n    modifier stopInEmergency {\n        if (stopped) \n            {revert(\"Temporarily Paused\");} \n        else {\n            _;}\n        }\n    modifier onlyOwner() {\n        require(isOwner(), \"you are not authorised to call this function\");\n        _;\n    }\n    \n    function initialize\n    (address _Invest2FulcrumV3Address, \n    address _UniSwapAddLiquityV2_GeneralAddress) \n    initializer public {\n        stopped = false;\n        owner = msg.sender;\n        Invest2FulcrumV3Address = Invest2FulcrumV3(_Invest2FulcrumV3Address);\n        UniSwapAddLiquityV2_GeneralAddress = UniSwapAddLiquityV2_General(_UniSwapAddLiquityV2_GeneralAddress);\n    }\n\n    // this function should be called should we ever want to change the Invest2FulcrumAddress\n    function set_Invest2FulcrumV3Address(Invest2FulcrumV3 _Invest2FulcrumV3Address) onlyOwner public {\n        Invest2FulcrumV3Address = _Invest2FulcrumV3Address;\n    }\n    \n    // this function should be called should we ever want to change the underlying Kyber Interface Contract address\n    function set_UniSwapAddLiquityV2_GeneralAddress(address _new_UniSwapAddLiquityV2_GeneralAddress) public onlyOwner {\n        UniSwapAddLiquityV2_GeneralAddress = UniSwapAddLiquityV2_General (_new_UniSwapAddLiquityV2_GeneralAddress);\n    }\n    \n    // main function which will make the investments\n    function LetsInvest(address payable _towhomtoIssueAddress, uint _fulcrumPortionAllocation, address _InvesteeTokenAddress, address _fulcrumAddress, address _ERC20forFulcrum) external payable returns(uint) {\n        require(_fulcrumPortionAllocation >= 0 && _fulcrumPortionAllocation <= 100, \"wrong allocation\");\n        //Determine ETH 2x Long and Uniswap portions\n        uint fulcrumPortion = SafeMath.div(SafeMath.mul(msg.value,_fulcrumPortionAllocation),100);\n        uint UniswapPortion = SafeMath.sub(msg.value, fulcrumPortion);\n        require (SafeMath.sub(msg.value, SafeMath.add(UniswapPortion, fulcrumPortion)) == 0, \"Cannot split incoming ETH appropriately\");\n        // Invest Uniswap portion\n        uint LiquidityTokens = UniSwapAddLiquityV2_GeneralAddress.LetsInvest.value(UniswapPortion)(_InvesteeTokenAddress, _towhomtoIssueAddress);\n        // Invest ETH 2x Long portion\n        Invest2FulcrumV3Address.LetsInvest.value(fulcrumPortion)(_fulcrumAddress, _ERC20forFulcrum, 5,  _towhomtoIssueAddress);\n        return (LiquidityTokens);\n    }\n\n    function inCaseTokengetsStuck(IERC20 _TokenAddress) onlyOwner public {\n        uint qty = _TokenAddress.balanceOf(address(this));\n        _TokenAddress.transfer(owner, qty);\n    }\n\n\n    // - fallback function let you / anyone send ETH to this wallet without the need to call any function\n    function() external payable {\n        if (msg.sender != owner) {\n            revert(\"Not Allowed\");}\n    }\n    \n    // - to Pause the contract\n    function toggleContractActive() onlyOwner public {\n        stopped = !stopped;\n    }\n\n    // - to withdraw any ETH balance sitting in the contract\n    function withdraw() onlyOwner public{\n        owner.transfer(address(this).balance);\n    }\n    \n    // - to kill the contract\n    function destruct() public onlyOwner {\n        selfdestruct(owner);\n    }\n\n\n    /**\n     * @return true if `msg.sender` is the owner of the contract.\n     */\n    function isOwner() public view returns (bool) {\n        return msg.sender == owner;\n    }\n\n    /**\n     * @dev Transfers ownership of the contract to a new account (`newOwner`).\n     * Can only be called by the current owner.\n     */\n    function transferOwnership(address payable newOwner) public onlyOwner {\n        _transferOwnership(newOwner);\n    }\n\n    /**\n     * @dev Transfers ownership of the contract to a new account (`newOwner`).\n     */\n    function _transferOwnership(address payable newOwner) internal {\n        require(newOwner != address(0), \"Ownable: new owner is the zero address\");\n        owner = newOwner;\n    }\n\n}\n",
  "sourcePath": "contracts/UpdatedZaps/Done/LLP_ERC20Token_General.sol",
  "abi": [
    {
      "payable": true,
      "stateMutability": "payable",
      "type": "fallback"
    },
    {
      "constant": true,
      "inputs": [],
      "name": "Invest2FulcrumV3Address",
      "outputs": [
        {
          "internalType": "contract Invest2FulcrumV3",
          "name": "",
          "type": "address"
        }
      ],
      "payable": false,
      "stateMutability": "view",
      "type": "function"
    },
    {
      "constant": false,
      "inputs": [
        {
          "internalType": "address payable",
          "name": "_towhomtoIssueAddress",
          "type": "address"
        },
        {
          "internalType": "uint256",
          "name": "_fulcrumPortionAllocation",
          "type": "uint256"
        },
        {
          "internalType": "address",
          "name": "_InvesteeTokenAddress",
          "type": "address"
        },
        {
          "internalType": "address",
          "name": "_fulcrumAddress",
          "type": "address"
        },
        {
          "internalType": "address",
          "name": "_ERC20forFulcrum",
          "type": "address"
        }
      ],
      "name": "LetsInvest",
      "outputs": [
        {
          "internalType": "uint256",
          "name": "",
          "type": "uint256"
        }
      ],
      "payable": true,
      "stateMutability": "payable",
      "type": "function"
    },
    {
      "constant": true,
      "inputs": [],
      "name": "UniSwapAddLiquityV2_GeneralAddress",
      "outputs": [
        {
          "internalType": "contract UniSwapAddLiquityV2_General",
          "name": "",
          "type": "address"
        }
      ],
      "payable": false,
      "stateMutability": "view",
      "type": "function"
    },
    {
      "constant": false,
      "inputs": [],
      "name": "destruct",
      "outputs": [],
      "payable": false,
      "stateMutability": "nonpayable",
      "type": "function"
    },
    {
      "constant": false,
      "inputs": [
        {
          "internalType": "contract IERC20",
          "name": "_TokenAddress",
          "type": "address"
        }
      ],
      "name": "inCaseTokengetsStuck",
      "outputs": [],
      "payable": false,
      "stateMutability": "nonpayable",
      "type": "function"
    },
    {
      "constant": false,
      "inputs": [
        {
          "internalType": "address",
          "name": "_Invest2FulcrumV3Address",
          "type": "address"
        },
        {
          "internalType": "address",
          "name": "_UniSwapAddLiquityV2_GeneralAddress",
          "type": "address"
        }
      ],
      "name": "initialize",
      "outputs": [],
      "payable": false,
      "stateMutability": "nonpayable",
      "type": "function"
    },
    {
      "constant": true,
      "inputs": [],
      "name": "isOwner",
      "outputs": [
        {
          "internalType": "bool",
          "name": "",
          "type": "bool"
        }
      ],
      "payable": false,
      "stateMutability": "view",
      "type": "function"
    },
    {
      "constant": true,
      "inputs": [],
      "name": "owner",
      "outputs": [
        {
          "internalType": "address payable",
          "name": "",
          "type": "address"
        }
      ],
      "payable": false,
      "stateMutability": "view",
      "type": "function"
    },
    {
      "constant": false,
      "inputs": [
        {
          "internalType": "contract Invest2FulcrumV3",
          "name": "_Invest2FulcrumV3Address",
          "type": "address"
        }
      ],
      "name": "set_Invest2FulcrumV3Address",
      "outputs": [],
      "payable": false,
      "stateMutability": "nonpayable",
      "type": "function"
    },
    {
      "constant": false,
      "inputs": [
        {
          "internalType": "address",
          "name": "_new_UniSwapAddLiquityV2_GeneralAddress",
          "type": "address"
        }
      ],
      "name": "set_UniSwapAddLiquityV2_GeneralAddress",
      "outputs": [],
      "payable": false,
      "stateMutability": "nonpayable",
      "type": "function"
    },
    {
      "constant": false,
      "inputs": [],
      "name": "toggleContractActive",
      "outputs": [],
      "payable": false,
      "stateMutability": "nonpayable",
      "type": "function"
    },
    {
      "constant": false,
      "inputs": [
        {
          "internalType": "address payable",
          "name": "newOwner",
          "type": "address"
        }
      ],
      "name": "transferOwnership",
      "outputs": [],
      "payable": false,
      "stateMutability": "nonpayable",
      "type": "function"
    },
    {
      "constant": false,
      "inputs": [],
      "name": "withdraw",
      "outputs": [],
      "payable": false,
      "stateMutability": "nonpayable",
      "type": "function"
    }
  ],
  "bytecode": "0x608060405234801561001057600080fd5b50610dcb806100206000396000f3fe6080604052600436106100d25760003560e01c806341a0622c1161007f5780638da5cb5b116100595780638da5cb5b146102a45780638f32d59b146102b95780639313b1f9146102e2578063f2fde38b14610315576100d2565b806341a0622c14610221578063485cc95514610236578063551196d514610271576100d2565b806330056203116100b0578063300562031461018157806335ca5e4e146101b45780633ccfd60b1461020c576100d2565b806301bbb6d4146101265780631385d24c146101575780632b68b9c61461016c575b60335461010090046001600160a01b03163314610124576040805162461bcd60e51b815260206004820152600b60248201526a139bdd08105b1b1bddd95960aa1b604482015290519081900360640190fd5b005b34801561013257600080fd5b5061013b610348565b604080516001600160a01b039092168252519081900360200190f35b34801561016357600080fd5b50610124610357565b34801561017857600080fd5b506101246103ae565b34801561018d57600080fd5b50610124600480360360208110156101a457600080fd5b50356001600160a01b0316610404565b6101fa600480360360a08110156101ca57600080fd5b506001600160a01b0381358116916020810135916040820135811691606081013582169160809091013516610469565b60408051918252519081900360200190f35b34801561021857600080fd5b50610124610660565b34801561022d57600080fd5b5061013b6106e7565b34801561024257600080fd5b506101246004803603604081101561025957600080fd5b506001600160a01b03813581169160200135166106f6565b34801561027d57600080fd5b506101246004803603602081101561029457600080fd5b50356001600160a01b03166107f0565b3480156102b057600080fd5b5061013b610937565b3480156102c557600080fd5b506102ce61094b565b604080519115158252519081900360200190f35b3480156102ee57600080fd5b506101246004803603602081101561030557600080fd5b50356001600160a01b0316610961565b34801561032157600080fd5b506101246004803603602081101561033857600080fd5b50356001600160a01b03166109c6565b6034546001600160a01b031681565b61035f61094b565b61039a5760405162461bcd60e51b815260040180806020018281038252602c815260200180610cf5602c913960400191505060405180910390fd5b6033805460ff19811660ff90911615179055565b6103b661094b565b6103f15760405162461bcd60e51b815260040180806020018281038252602c815260200180610cf5602c913960400191505060405180910390fd5b60335461010090046001600160a01b0316ff5b61040c61094b565b6104475760405162461bcd60e51b815260040180806020018281038252602c815260200180610cf5602c913960400191505060405180910390fd5b603480546001600160a01b0319166001600160a01b0392909216919091179055565b600060648511156104c1576040805162461bcd60e51b815260206004820152601060248201527f77726f6e6720616c6c6f636174696f6e00000000000000000000000000000000604482015290519081900360640190fd5b60006104d76104d03488610a12565b6064610a74565b905060006104e53483610ab6565b90506104fa346104f58385610af8565b610ab6565b156105365760405162461bcd60e51b8152600401808060200182810382526027815260200180610d706027913960400191505060405180910390fd5b60355460408051633a2a66cf60e01b81526001600160a01b0389811660048301528b8116602483015291516000939290921691633a2a66cf918591604480830192602092919082900301818588803b15801561059157600080fd5b505af11580156105a5573d6000803e3d6000fd5b50505050506040513d60208110156105bc57600080fd5b505160345460408051636305111d60e01b81526001600160a01b038a811660048301528981166024830152600560448301528d811660648301529151939450911691636305111d918691608480830192602092919082900301818588803b15801561062657600080fd5b505af115801561063a573d6000803e3d6000fd5b50505050506040513d602081101561065157600080fd5b50909998505050505050505050565b61066861094b565b6106a35760405162461bcd60e51b815260040180806020018281038252602c815260200180610cf5602c913960400191505060405180910390fd5b6033546040516001600160a01b036101009092049190911690303180156108fc02916000818181858888f193505050501580156106e4573d6000803e3d6000fd5b50565b6035546001600160a01b031681565b600054610100900460ff168061070f575061070f610b52565b8061071d575060005460ff16155b6107585760405162461bcd60e51b815260040180806020018281038252602e815260200180610d42602e913960400191505060405180910390fd5b600054610100900460ff16158015610783576000805460ff1961ff0019909116610100171660011790555b60338054336101000274ffffffffffffffffffffffffffffffffffffffffff19909116179055603480546001600160a01b038581166001600160a01b031992831617909255603580549285169290911691909117905580156107eb576000805461ff00191690555b505050565b6107f861094b565b6108335760405162461bcd60e51b815260040180806020018281038252602c815260200180610cf5602c913960400191505060405180910390fd5b604080516370a0823160e01b815230600482015290516000916001600160a01b038416916370a0823191602480820192602092909190829003018186803b15801561087d57600080fd5b505afa158015610891573d6000803e3d6000fd5b505050506040513d60208110156108a757600080fd5b50516033546040805163a9059cbb60e01b81526101009092046001600160a01b03908116600484015260248301849052905192935084169163a9059cbb916044808201926020929091908290030181600087803b15801561090757600080fd5b505af115801561091b573d6000803e3d6000fd5b505050506040513d602081101561093157600080fd5b50505050565b60335461010090046001600160a01b031681565b60335461010090046001600160a01b0316331490565b61096961094b565b6109a45760405162461bcd60e51b815260040180806020018281038252602c815260200180610cf5602c913960400191505060405180910390fd5b603580546001600160a01b0319166001600160a01b0392909216919091179055565b6109ce61094b565b610a095760405162461bcd60e51b815260040180806020018281038252602c815260200180610cf5602c913960400191505060405180910390fd5b6106e481610b58565b600082610a2157506000610a6e565b82820282848281610a2e57fe5b0414610a6b5760405162461bcd60e51b8152600401808060200182810382526021815260200180610d216021913960400191505060405180910390fd5b90505b92915050565b6000610a6b83836040518060400160405280601a81526020017f536166654d6174683a206469766973696f6e206279207a65726f000000000000815250610bd2565b6000610a6b83836040518060400160405280601e81526020017f536166654d6174683a207375627472616374696f6e206f766572666c6f770000815250610c74565b600082820183811015610a6b576040805162461bcd60e51b815260206004820152601b60248201527f536166654d6174683a206164646974696f6e206f766572666c6f770000000000604482015290519081900360640190fd5b303b1590565b6001600160a01b038116610b9d5760405162461bcd60e51b8152600401808060200182810382526026815260200180610ccf6026913960400191505060405180910390fd5b603380546001600160a01b039092166101000274ffffffffffffffffffffffffffffffffffffffff0019909216919091179055565b60008183610c5e5760405162461bcd60e51b81526004018080602001828103825283818151815260200191508051906020019080838360005b83811015610c23578181015183820152602001610c0b565b50505050905090810190601f168015610c505780820380516001836020036101000a031916815260200191505b509250505060405180910390fd5b506000838581610c6a57fe5b0495945050505050565b60008184841115610cc65760405162461bcd60e51b8152602060048201818152835160248401528351909283926044909101919085019080838360008315610c23578181015183820152602001610c0b565b50505090039056fe4f776e61626c653a206e6577206f776e657220697320746865207a65726f2061646472657373796f7520617265206e6f7420617574686f726973656420746f2063616c6c20746869732066756e6374696f6e536166654d6174683a206d756c7469706c69636174696f6e206f766572666c6f77436f6e747261637420696e7374616e63652068617320616c7265616479206265656e20696e697469616c697a656443616e6e6f742073706c697420696e636f6d696e672045544820617070726f7072696174656c79a265627a7a723158203e340dad91277af36c52cc230db7ca02d14e70d59d087e703515a7baaae5ea6a64736f6c634300050d0032",
  "compiler": {
    "name": "solc",
    "version": "0.5.13+commit.5b0b510c.Emscripten.clang",
    "optimizer": {
      "enabled": true,
      "runs": 500
    },
    "evmVersion": "petersburg"
  }
}