{
  "fileName": "LLP_ERC20Token_General.sol",
  "contractName": "LLP_ERC20Token_General",
  "source": "// Copyright (C) 2019, 2020 dipeshsukhani, nodarjonashi, toshsharma, suhailg\n\n// This program is free software: you can redistribute it and/or modify\n// it under the terms of the GNU Affero General Public License as published by\n// the Free Software Foundation, either version 2 of the License, or\n// (at your option) any later version.\n//\n// This program is distributed in the hope that it will be useful,\n// but WITHOUT ANY WARRANTY; without even the implied warranty of\n// MERCHANTABILITY or FITNESS FOR A PARTICULAR PURPOSE.  See the\n// GNU Affero General Public License for more details.\n//\n// Visit <https://www.gnu.org/licenses/>for a copy of the GNU Affero General Public License\n\n/**\n * WARNING: This is an upgradable contract. Be careful not to disrupt\n * the existing storage layout when making upgrades to the contract. In particular,\n * existing fields should not be removed and should not have their types changed.\n * The order of field declarations must not be changed, and new fields must be added\n * below all existing declarations.\n *\n * The base contracts and the order in which they are declared must not be changed.\n * New fields must not be added to base contracts (unless the base contract has\n * reserved placeholder fields for this purpose).\n *\n * See https://docs.zeppelinos.org/docs/writing_contracts.html for more info.\n*/\n\npragma solidity ^0.5.0;\n\nimport \"../../../node_modules/@openzeppelin/upgrades/contracts/Initializable.sol\";\nimport \"../../../node_modules/@openzeppelin/contracts-ethereum-package/contracts/math/SafeMath.sol\";\nimport \"../../../node_modules/@openzeppelin/contracts-ethereum-package/contracts/token/ERC20/IERC20.sol\";\n\n\n\n// this is the underlying contract that invests in 2xLongETH on Fulcrum\ninterface Invest2FulcrumV3 {\n    function LetsInvest(address _FuclrumOnwardAddress, address _destTokenAddress, uint _slippage, address _towhomtoissue) payable external returns (uint);\n}\n\ninterface UniSwapAddLiquityV2_General {\n    function LetsInvest(address _TokenContractAddress, address _towhomtoissue) external payable returns (uint);\n}\n\n\ncontract LLP_ERC20Token_General is Initializable {\n    using SafeMath for uint;\n    \n    // state variables\n\n    // - THESE MUST ALWAYS STAY IN THE SAME LAYOUT\n    bool private stopped;\n    address payable public owner;\n    Invest2FulcrumV3 public Invest2FulcrumV3Address;\n    UniSwapAddLiquityV2_General public UniSwapAddLiquityV2_GeneralAddress;\n\n    // circuit breaker modifiers\n    modifier stopInEmergency {\n        if (stopped) \n            {revert(\"Temporarily Paused\");} \n        else {\n            _;}\n        }\n    modifier onlyOwner() {\n        require(isOwner(), \"you are not authorised to call this function\");\n        _;\n    }\n    \n    function initialize\n    (address _Invest2FulcrumV3Address, \n    address _UniSwapAddLiquityV2_GeneralAddress) \n    initializer public {\n        stopped = false;\n        owner = msg.sender;\n        Invest2FulcrumV3Address = Invest2FulcrumV3(_Invest2FulcrumV3Address);\n        UniSwapAddLiquityV2_GeneralAddress = UniSwapAddLiquityV2_General(_UniSwapAddLiquityV2_GeneralAddress);\n    }\n\n    // this function should be called should we ever want to change the Invest2FulcrumAddress\n    function set_Invest2FulcrumV3Address(Invest2FulcrumV3 _Invest2FulcrumV3Address) onlyOwner public {\n        Invest2FulcrumV3Address = _Invest2FulcrumV3Address;\n    }\n    \n    // this function should be called should we ever want to change the underlying Kyber Interface Contract address\n    function set_UniSwapAddLiquityV2_GeneralAddress(address _new_UniSwapAddLiquityV2_GeneralAddress) public onlyOwner {\n        UniSwapAddLiquityV2_GeneralAddress = UniSwapAddLiquityV2_General (_new_UniSwapAddLiquityV2_GeneralAddress);\n    }\n    \n    // main function which will make the investments\n    function LetsInvest(address payable _towhomtoIssueAddress, uint _fulcrumPortionAllocation, address _InvesteeTokenAddress, address _fulcrumAddress, address _ERC20forFulcrum) external payable returns(uint) {\n        require(_fulcrumPortionAllocation >= 0 && _fulcrumPortionAllocation <= 100, \"wrong allocation\");\n        //Determine ETH 2x Long and Uniswap portions\n        uint fulcrumPortion = SafeMath.div(SafeMath.mul(msg.value,_fulcrumPortionAllocation),100);\n        uint UniswapPortion = SafeMath.sub(msg.value, fulcrumPortion);\n        require (SafeMath.sub(msg.value, SafeMath.add(UniswapPortion, fulcrumPortion)) == 0, \"Cannot split incoming ETH appropriately\");\n        // Invest Uniswap portion\n        uint LiquidityTokens = UniSwapAddLiquityV2_GeneralAddress.LetsInvest.value(UniswapPortion)(_InvesteeTokenAddress, _towhomtoIssueAddress);\n        // Invest ETH 2x Long portion\n        Invest2FulcrumV3Address.LetsInvest.value(fulcrumPortion)(_fulcrumAddress, _ERC20forFulcrum, 5,  _towhomtoIssueAddress);\n        return (LiquidityTokens);\n    }\n\n    function inCaseTokengetsStuck(IERC20 _TokenAddress) onlyOwner public {\n        uint qty = _TokenAddress.balanceOf(address(this));\n        _TokenAddress.transfer(owner, qty);\n    }\n\n\n    // - fallback function let you / anyone send ETH to this wallet without the need to call any function\n    function() external payable {\n        if (msg.sender != owner) {\n            revert(\"Not Allowed\");}\n    }\n    \n    // - to Pause the contract\n    function toggleContractActive() onlyOwner public {\n        stopped = !stopped;\n    }\n\n    // - to withdraw any ETH balance sitting in the contract\n    function withdraw() onlyOwner public{\n        owner.transfer(address(this).balance);\n    }\n    \n    // - to kill the contract\n    function destruct() public onlyOwner {\n        selfdestruct(owner);\n    }\n\n\n    /**\n     * @return true if `msg.sender` is the owner of the contract.\n     */\n    function isOwner() public view returns (bool) {\n        return msg.sender == owner;\n    }\n\n    /**\n     * @dev Transfers ownership of the contract to a new account (`newOwner`).\n     * Can only be called by the current owner.\n     */\n    function transferOwnership(address payable newOwner) public onlyOwner {\n        _transferOwnership(newOwner);\n    }\n\n    /**\n     * @dev Transfers ownership of the contract to a new account (`newOwner`).\n     */\n    function _transferOwnership(address payable newOwner) internal {\n        require(newOwner != address(0), \"Ownable: new owner is the zero address\");\n        owner = newOwner;\n    }\n\n}\n",
  "sourcePath": "contracts/UpdatedZaps/Current WIP/LLP_ERC20Token_General.sol",
  "abi": [
    {
      "payable": true,
      "stateMutability": "payable",
      "type": "fallback"
    },
    {
      "constant": true,
      "inputs": [],
      "name": "Invest2FulcrumV3Address",
      "outputs": [
        {
          "internalType": "contract Invest2FulcrumV3",
          "name": "",
          "type": "address"
        }
      ],
      "payable": false,
      "stateMutability": "view",
      "type": "function"
    },
    {
      "constant": false,
      "inputs": [
        {
          "internalType": "address payable",
          "name": "_towhomtoIssueAddress",
          "type": "address"
        },
        {
          "internalType": "uint256",
          "name": "_fulcrumPortionAllocation",
          "type": "uint256"
        },
        {
          "internalType": "address",
          "name": "_InvesteeTokenAddress",
          "type": "address"
        },
        {
          "internalType": "address",
          "name": "_fulcrumAddress",
          "type": "address"
        },
        {
          "internalType": "address",
          "name": "_ERC20forFulcrum",
          "type": "address"
        }
      ],
      "name": "LetsInvest",
      "outputs": [
        {
          "internalType": "uint256",
          "name": "",
          "type": "uint256"
        }
      ],
      "payable": true,
      "stateMutability": "payable",
      "type": "function"
    },
    {
      "constant": true,
      "inputs": [],
      "name": "UniSwapAddLiquityV2_GeneralAddress",
      "outputs": [
        {
          "internalType": "contract UniSwapAddLiquityV2_General",
          "name": "",
          "type": "address"
        }
      ],
      "payable": false,
      "stateMutability": "view",
      "type": "function"
    },
    {
      "constant": false,
      "inputs": [],
      "name": "destruct",
      "outputs": [],
      "payable": false,
      "stateMutability": "nonpayable",
      "type": "function"
    },
    {
      "constant": false,
      "inputs": [
        {
          "internalType": "contract IERC20",
          "name": "_TokenAddress",
          "type": "address"
        }
      ],
      "name": "inCaseTokengetsStuck",
      "outputs": [],
      "payable": false,
      "stateMutability": "nonpayable",
      "type": "function"
    },
    {
      "constant": false,
      "inputs": [
        {
          "internalType": "address",
          "name": "_Invest2FulcrumV3Address",
          "type": "address"
        },
        {
          "internalType": "address",
          "name": "_UniSwapAddLiquityV2_GeneralAddress",
          "type": "address"
        }
      ],
      "name": "initialize",
      "outputs": [],
      "payable": false,
      "stateMutability": "nonpayable",
      "type": "function"
    },
    {
      "constant": true,
      "inputs": [],
      "name": "isOwner",
      "outputs": [
        {
          "internalType": "bool",
          "name": "",
          "type": "bool"
        }
      ],
      "payable": false,
      "stateMutability": "view",
      "type": "function"
    },
    {
      "constant": true,
      "inputs": [],
      "name": "owner",
      "outputs": [
        {
          "internalType": "address payable",
          "name": "",
          "type": "address"
        }
      ],
      "payable": false,
      "stateMutability": "view",
      "type": "function"
    },
    {
      "constant": false,
      "inputs": [
        {
          "internalType": "contract Invest2FulcrumV3",
          "name": "_Invest2FulcrumV3Address",
          "type": "address"
        }
      ],
      "name": "set_Invest2FulcrumV3Address",
      "outputs": [],
      "payable": false,
      "stateMutability": "nonpayable",
      "type": "function"
    },
    {
      "constant": false,
      "inputs": [
        {
          "internalType": "address",
          "name": "_new_UniSwapAddLiquityV2_GeneralAddress",
          "type": "address"
        }
      ],
      "name": "set_UniSwapAddLiquityV2_GeneralAddress",
      "outputs": [],
      "payable": false,
      "stateMutability": "nonpayable",
      "type": "function"
    },
    {
      "constant": false,
      "inputs": [],
      "name": "toggleContractActive",
      "outputs": [],
      "payable": false,
      "stateMutability": "nonpayable",
      "type": "function"
    },
    {
      "constant": false,
      "inputs": [
        {
          "internalType": "address payable",
          "name": "newOwner",
          "type": "address"
        }
      ],
      "name": "transferOwnership",
      "outputs": [],
      "payable": false,
      "stateMutability": "nonpayable",
      "type": "function"
    },
    {
      "constant": false,
      "inputs": [],
      "name": "withdraw",
      "outputs": [],
      "payable": false,
      "stateMutability": "nonpayable",
      "type": "function"
    }
  ],
  "bytecode": "0x608060405234801561001057600080fd5b50611656806100206000396000f3fe6080604052600436106100c25760003560e01c806341a0622c1161007f5780638da5cb5b116100595780638da5cb5b1461044f5780638f32d59b146104a65780639313b1f9146104d5578063f2fde38b14610526576100c2565b806341a0622c14610336578063485cc9551461038d578063551196d5146103fe576100c2565b806301bbb6d4146101875780631385d24c146101de5780632b68b9c6146101f5578063300562031461020c57806335ca5e4e1461025d5780633ccfd60b1461031f575b603360019054906101000a900473ffffffffffffffffffffffffffffffffffffffff1673ffffffffffffffffffffffffffffffffffffffff163373ffffffffffffffffffffffffffffffffffffffff1614610185576040517f08c379a000000000000000000000000000000000000000000000000000000000815260040180806020018281038252600b8152602001807f4e6f7420416c6c6f77656400000000000000000000000000000000000000000081525060200191505060405180910390fd5b005b34801561019357600080fd5b5061019c610577565b604051808273ffffffffffffffffffffffffffffffffffffffff1673ffffffffffffffffffffffffffffffffffffffff16815260200191505060405180910390f35b3480156101ea57600080fd5b506101f361059d565b005b34801561020157600080fd5b5061020a610626565b005b34801561021857600080fd5b5061025b6004803603602081101561022f57600080fd5b81019080803573ffffffffffffffffffffffffffffffffffffffff1690602001909291905050506106be565b005b610309600480360360a081101561027357600080fd5b81019080803573ffffffffffffffffffffffffffffffffffffffff16906020019092919080359060200190929190803573ffffffffffffffffffffffffffffffffffffffff169060200190929190803573ffffffffffffffffffffffffffffffffffffffff169060200190929190803573ffffffffffffffffffffffffffffffffffffffff16906020019092919050505061075f565b6040518082815260200191505060405180910390f35b34801561032b57600080fd5b50610334610ae8565b005b34801561034257600080fd5b5061034b610bc7565b604051808273ffffffffffffffffffffffffffffffffffffffff1673ffffffffffffffffffffffffffffffffffffffff16815260200191505060405180910390f35b34801561039957600080fd5b506103fc600480360360408110156103b057600080fd5b81019080803573ffffffffffffffffffffffffffffffffffffffff169060200190929190803573ffffffffffffffffffffffffffffffffffffffff169060200190929190505050610bed565b005b34801561040a57600080fd5b5061044d6004803603602081101561042157600080fd5b81019080803573ffffffffffffffffffffffffffffffffffffffff169060200190929190505050610dcc565b005b34801561045b57600080fd5b50610464610fce565b604051808273ffffffffffffffffffffffffffffffffffffffff1673ffffffffffffffffffffffffffffffffffffffff16815260200191505060405180910390f35b3480156104b257600080fd5b506104bb610ff4565b604051808215151515815260200191505060405180910390f35b3480156104e157600080fd5b50610524600480360360208110156104f857600080fd5b81019080803573ffffffffffffffffffffffffffffffffffffffff16906020019092919050505061104c565b005b34801561053257600080fd5b506105756004803603602081101561054957600080fd5b81019080803573ffffffffffffffffffffffffffffffffffffffff1690602001909291905050506110ed565b005b603460009054906101000a900473ffffffffffffffffffffffffffffffffffffffff1681565b6105a5610ff4565b6105fa576040517f08c379a000000000000000000000000000000000000000000000000000000000815260040180806020018281038252602c815260200180611580602c913960400191505060405180910390fd5b603360009054906101000a900460ff1615603360006101000a81548160ff021916908315150217905550565b61062e610ff4565b610683576040517f08c379a000000000000000000000000000000000000000000000000000000000815260040180806020018281038252602c815260200180611580602c913960400191505060405180910390fd5b603360019054906101000a900473ffffffffffffffffffffffffffffffffffffffff1673ffffffffffffffffffffffffffffffffffffffff16ff5b6106c6610ff4565b61071b576040517f08c379a000000000000000000000000000000000000000000000000000000000815260040180806020018281038252602c815260200180611580602c913960400191505060405180910390fd5b80603460006101000a81548173ffffffffffffffffffffffffffffffffffffffff021916908373ffffffffffffffffffffffffffffffffffffffff16021790555050565b6000808510158015610772575060648511155b6107e4576040517f08c379a00000000000000000000000000000000000000000000000000000000081526004018080602001828103825260108152602001807f77726f6e6720616c6c6f636174696f6e0000000000000000000000000000000081525060200191505060405180910390fd5b60006107fa6107f33488611156565b60646111dc565b905060006108083483611226565b9050600061081f3461081a8486611270565b611226565b14610875576040517f08c379a00000000000000000000000000000000000000000000000000000000081526004018080602001828103825260278152602001806115fb6027913960400191505060405180910390fd5b6000603560009054906101000a900473ffffffffffffffffffffffffffffffffffffffff1673ffffffffffffffffffffffffffffffffffffffff16633a2a66cf83898c6040518463ffffffff1660e01b8152600401808373ffffffffffffffffffffffffffffffffffffffff1673ffffffffffffffffffffffffffffffffffffffff1681526020018273ffffffffffffffffffffffffffffffffffffffff1673ffffffffffffffffffffffffffffffffffffffff168152602001925050506020604051808303818588803b15801561094c57600080fd5b505af1158015610960573d6000803e3d6000fd5b50505050506040513d602081101561097757600080fd5b81019080805190602001909291905050509050603460009054906101000a900473ffffffffffffffffffffffffffffffffffffffff1673ffffffffffffffffffffffffffffffffffffffff16636305111d84888860058e6040518663ffffffff1660e01b8152600401808573ffffffffffffffffffffffffffffffffffffffff1673ffffffffffffffffffffffffffffffffffffffff1681526020018473ffffffffffffffffffffffffffffffffffffffff1673ffffffffffffffffffffffffffffffffffffffff1681526020018381526020018273ffffffffffffffffffffffffffffffffffffffff1673ffffffffffffffffffffffffffffffffffffffff1681526020019450505050506020604051808303818588803b158015610a9c57600080fd5b505af1158015610ab0573d6000803e3d6000fd5b50505050506040513d6020811015610ac757600080fd5b81019080805190602001909291905050505080935050505095945050505050565b610af0610ff4565b610b45576040517f08c379a000000000000000000000000000000000000000000000000000000000815260040180806020018281038252602c815260200180611580602c913960400191505060405180910390fd5b603360019054906101000a900473ffffffffffffffffffffffffffffffffffffffff1673ffffffffffffffffffffffffffffffffffffffff166108fc3073ffffffffffffffffffffffffffffffffffffffff16319081150290604051600060405180830381858888f19350505050158015610bc4573d6000803e3d6000fd5b50565b603560009054906101000a900473ffffffffffffffffffffffffffffffffffffffff1681565b600060019054906101000a900460ff1680610c0c5750610c0b6112f8565b5b80610c2357506000809054906101000a900460ff16155b610c78576040517f08c379a000000000000000000000000000000000000000000000000000000000815260040180806020018281038252602e8152602001806115cd602e913960400191505060405180910390fd5b60008060019054906101000a900460ff161590508015610cc8576001600060016101000a81548160ff02191690831515021790555060016000806101000a81548160ff0219169083151502179055505b6000603360006101000a81548160ff02191690831515021790555033603360016101000a81548173ffffffffffffffffffffffffffffffffffffffff021916908373ffffffffffffffffffffffffffffffffffffffff16021790555082603460006101000a81548173ffffffffffffffffffffffffffffffffffffffff021916908373ffffffffffffffffffffffffffffffffffffffff16021790555081603560006101000a81548173ffffffffffffffffffffffffffffffffffffffff021916908373ffffffffffffffffffffffffffffffffffffffff1602179055508015610dc75760008060016101000a81548160ff0219169083151502179055505b505050565b610dd4610ff4565b610e29576040517f08c379a000000000000000000000000000000000000000000000000000000000815260040180806020018281038252602c815260200180611580602c913960400191505060405180910390fd5b60008173ffffffffffffffffffffffffffffffffffffffff166370a08231306040518263ffffffff1660e01b8152600401808273ffffffffffffffffffffffffffffffffffffffff1673ffffffffffffffffffffffffffffffffffffffff16815260200191505060206040518083038186803b158015610ea857600080fd5b505afa158015610ebc573d6000803e3d6000fd5b505050506040513d6020811015610ed257600080fd5b810190808051906020019092919050505090508173ffffffffffffffffffffffffffffffffffffffff1663a9059cbb603360019054906101000a900473ffffffffffffffffffffffffffffffffffffffff16836040518363ffffffff1660e01b8152600401808373ffffffffffffffffffffffffffffffffffffffff1673ffffffffffffffffffffffffffffffffffffffff16815260200182815260200192505050602060405180830381600087803b158015610f8e57600080fd5b505af1158015610fa2573d6000803e3d6000fd5b505050506040513d6020811015610fb857600080fd5b8101908080519060200190929190505050505050565b603360019054906101000a900473ffffffffffffffffffffffffffffffffffffffff1681565b6000603360019054906101000a900473ffffffffffffffffffffffffffffffffffffffff1673ffffffffffffffffffffffffffffffffffffffff163373ffffffffffffffffffffffffffffffffffffffff1614905090565b611054610ff4565b6110a9576040517f08c379a000000000000000000000000000000000000000000000000000000000815260040180806020018281038252602c815260200180611580602c913960400191505060405180910390fd5b80603560006101000a81548173ffffffffffffffffffffffffffffffffffffffff021916908373ffffffffffffffffffffffffffffffffffffffff16021790555050565b6110f5610ff4565b61114a576040517f08c379a000000000000000000000000000000000000000000000000000000000815260040180806020018281038252602c815260200180611580602c913960400191505060405180910390fd5b61115381611309565b50565b60008083141561116957600090506111d6565b600082840290508284828161117a57fe5b04146111d1576040517f08c379a00000000000000000000000000000000000000000000000000000000081526004018080602001828103825260218152602001806115ac6021913960400191505060405180910390fd5b809150505b92915050565b600061121e83836040518060400160405280601a81526020017f536166654d6174683a206469766973696f6e206279207a65726f0000000000008152506113d3565b905092915050565b600061126883836040518060400160405280601e81526020017f536166654d6174683a207375627472616374696f6e206f766572666c6f770000815250611499565b905092915050565b6000808284019050838110156112ee576040517f08c379a000000000000000000000000000000000000000000000000000000000815260040180806020018281038252601b8152602001807f536166654d6174683a206164646974696f6e206f766572666c6f77000000000081525060200191505060405180910390fd5b8091505092915050565b600080303b90506000811491505090565b600073ffffffffffffffffffffffffffffffffffffffff168173ffffffffffffffffffffffffffffffffffffffff16141561138f576040517f08c379a000000000000000000000000000000000000000000000000000000000815260040180806020018281038252602681526020018061155a6026913960400191505060405180910390fd5b80603360016101000a81548173ffffffffffffffffffffffffffffffffffffffff021916908373ffffffffffffffffffffffffffffffffffffffff16021790555050565b6000808311829061147f576040517f08c379a00000000000000000000000000000000000000000000000000000000081526004018080602001828103825283818151815260200191508051906020019080838360005b83811015611444578082015181840152602081019050611429565b50505050905090810190601f1680156114715780820380516001836020036101000a031916815260200191505b509250505060405180910390fd5b50600083858161148b57fe5b049050809150509392505050565b6000838311158290611546576040517f08c379a00000000000000000000000000000000000000000000000000000000081526004018080602001828103825283818151815260200191508051906020019080838360005b8381101561150b5780820151818401526020810190506114f0565b50505050905090810190601f1680156115385780820380516001836020036101000a031916815260200191505b509250505060405180910390fd5b506000838503905080915050939250505056fe4f776e61626c653a206e6577206f776e657220697320746865207a65726f2061646472657373796f7520617265206e6f7420617574686f726973656420746f2063616c6c20746869732066756e6374696f6e536166654d6174683a206d756c7469706c69636174696f6e206f766572666c6f77436f6e747261637420696e7374616e63652068617320616c7265616479206265656e20696e697469616c697a656443616e6e6f742073706c697420696e636f6d696e672045544820617070726f7072696174656c79a265627a7a72315820499e21d82336328ea569f895e820b6b5f21588ce2c950aba7126e24593af3d3f64736f6c634300050d0032",
  "compiler": {
    "name": "solc",
    "version": "0.5.13+commit.5b0b510c.Emscripten.clang",
    "optimizer": {
      "enabled": false,
      "runs": 200
    },
    "evmVersion": "petersburg"
  }
}