{
  "fileName": "LLP_General.sol",
  "contractName": "LLP_General_2xETH",
  "source": "// Copyright (C) 2019, 2020 dipeshsukhani, nodarjonashi, toshsharma, suhailg\n\n// This program is free software: you can redistribute it and/or modify\n// it under the terms of the GNU Affero General Public License as published by\n// the Free Software Foundation, either version 2 of the License, or\n// (at your option) any later version.\n//\n// This program is distributed in the hope that it will be useful,\n// but WITHOUT ANY WARRANTY; without even the implied warranty of\n// MERCHANTABILITY or FITNESS FOR A PARTICULAR PURPOSE.  See the\n// GNU Affero General Public License for more details.\n//\n// Visit <https://www.gnu.org/licenses/>for a copy of the GNU Affero General Public License\n\n/**\n * WARNING: This is an upgradable contract. Be careful not to disrupt\n * the existing storage layout when making upgrades to the contract. In particular,\n * existing fields should not be removed and should not have their types changed.\n * The order of field declarations must not be changed, and new fields must be added\n * below all existing declarations.\n *\n * The base contracts and the order in which they are declared must not be changed.\n * New fields must not be added to base contracts (unless the base contract has\n * reserved placeholder fields for this purpose).\n *\n * See https://docs.zeppelinos.org/docs/writing_contracts.html for more info.\n*/\n\npragma solidity ^0.5.0;\n\nimport \"../../../node_modules/@openzeppelin/upgrades/contracts/Initializable.sol\";\nimport \"../../../node_modules/@openzeppelin/contracts-ethereum-package/contracts/math/SafeMath.sol\";\nimport \"../../../node_modules/@openzeppelin/contracts-ethereum-package/contracts/token/ERC20/IERC20.sol\";\n\n// this is the underlying contract that invests in 2xLongETH on Fulcrum\ninterface Invest2FulcrumV2 {\n    function LetsInvest(\n        address _FuclrumOnwardAddress,\n        address _destTokenAddress,\n        uint256 _slippage,\n        address _towhomtoissue\n    ) external payable returns (uint256);\n}\n\ninterface UniSwapAddLiquityV2_General {\n    function LetsInvest(address _TokenContractAddress, address _towhomtoissue)\n        external\n        payable\n        returns (uint256);\n}\n\n// through this contract we are putting 34% allocation to 2xLongETH and 66% to Uniswap pool\ncontract LLP_General_2xETH is Initializable {\n    using SafeMath for uint256;\n\n    // state variables\n\n    // - THESE MUST ALWAYS STAY IN THE SAME LAYOUT\n    bool private stopped;\n    address payable public owner;\n    Invest2FulcrumV2 public Invest2FulcrumV2Address;\n    UniSwapAddLiquityV2_General public UniSwapAddLiquityV2_GeneralAddress;\n\n    // event details ()  // DipeshTODO\n\n    // circuit breaker modifiers\n    modifier stopInEmergency {\n        if (stopped) {\n            revert(\"Temporarily Paused\");\n        } else {\n            _;\n        }\n    }\n    modifier onlyOwner() {\n        require(isOwner(), \"you are not authorised to call this function\");\n        _;\n    }\n\n    function initialize(\n        address _Invest2FulcrumV2Address,\n        address _UniSwapAddLiquityV2_GeneralAddress\n    ) public initializer {\n        stopped = false;\n        owner = msg.sender;\n        Invest2FulcrumV2Address = Invest2FulcrumV2(_Invest2FulcrumV2Address);\n        UniSwapAddLiquityV2_GeneralAddress = UniSwapAddLiquityV2_General(\n            _UniSwapAddLiquityV2_GeneralAddress\n        );\n    }\n\n    // this function should be called should we ever want to change the Invest2FulcrumAddress\n    function set_Invest2FulcrumV2Address(\n        Invest2FulcrumV2 _Invest2FulcrumV2Address\n    ) public onlyOwner {\n        Invest2FulcrumV2Address = _Invest2FulcrumV2Address;\n    }\n\n    // this function should be called should we ever want to change the underlying Kyber Interface Contract address\n    function set_UniSwapAddLiquityV2_GeneralAddress(\n        address _new_UniSwapAddLiquityV2_GeneralAddress\n    ) public onlyOwner {\n        UniSwapAddLiquityV2_GeneralAddress = UniSwapAddLiquityV2_General(\n            _new_UniSwapAddLiquityV2_GeneralAddress\n        );\n    }\n\n    // main function which will make the investments\n    function LetsInvest(\n        address payable _towhomtoIssueAddress,\n        uint256 _2XLongETHAllocation,\n        address _InvesteeTokenAddress,\n        uint256 _slippage,\n        bool _residualInToken\n    ) external payable returns (uint256) {\n        require(\n            _2XLongETHAllocation >= 0 || _2XLongETHAllocation <= 100,\n            \"wrong allocation\"\n        );\n        //Determine ETH 2x Long and Uniswap portions\n        uint256 ETH2xLongPortion = SafeMath.div(\n            SafeMath.mul(msg.value, _2XLongETHAllocation),\n            100\n        );\n        uint256 UniswapPortion = SafeMath.sub(msg.value, ETH2xLongPortion);\n        require(\n            SafeMath.sub(\n                msg.value,\n                SafeMath.add(UniswapPortion, ETH2xLongPortion)\n            ) ==\n                0,\n            \"Cannot split incoming ETH appropriately\"\n        );\n        // Invest Uniswap portion\n        uint256 LiquidityTokens = UniSwapAddLiquityV2_GeneralAddress\n            .LetsInvest\n            .value(UniswapPortion)(\n            _InvesteeTokenAddress,\n            _towhomtoIssueAddress\n        );\n        // Invest ETH 2x Long portion\n        Invest2FulcrumV2Address.LetsInvest.value(ETH2xLongPortion)(\n            0xd80e558027Ee753a0b95757dC3521d0326F13DA2,\n            0x6B175474E89094C44Da98b954EedeAC495271d0F,\n            5,\n            _towhomtoIssueAddress\n        );\n        return (LiquidityTokens);\n    }\n\n    function inCaseTokengetsStuck(IERC20 _TokenAddress) public onlyOwner {\n        uint256 qty = _TokenAddress.balanceOf(address(this));\n        _TokenAddress.transfer(owner, qty);\n    }\n\n    // - fallback function let you / anyone send ETH to this wallet without the need to call any function\n    function() external payable {\n        if (msg.sender != owner) {\n            revert(\"Not Allowed\");\n        }\n    }\n\n    // - to Pause the contract\n    function toggleContractActive() public onlyOwner {\n        stopped = !stopped;\n    }\n\n    // - to withdraw any ETH balance sitting in the contract\n    function withdraw() public onlyOwner {\n        owner.transfer(address(this).balance);\n    }\n\n    // - to kill the contract\n    function destruct() public onlyOwner {\n        selfdestruct(owner);\n    }\n\n    /**\n     * @return true if `msg.sender` is the owner of the contract.\n     */\n    function isOwner() public view returns (bool) {\n        return msg.sender == owner;\n    }\n\n    /**\n     * @dev Transfers ownership of the contract to a new account (`newOwner`).\n     * Can only be called by the current owner.\n     */\n    function transferOwnership(address payable newOwner) public onlyOwner {\n        _transferOwnership(newOwner);\n    }\n\n    /**\n     * @dev Transfers ownership of the contract to a new account (`newOwner`).\n     */\n    function _transferOwnership(address payable newOwner) internal {\n        require(\n            newOwner != address(0),\n            \"Ownable: new owner is the zero address\"\n        );\n        owner = newOwner;\n    }\n\n}\n",
  "sourcePath": "contracts/UpdatedZaps/Done/LLP_General.sol",
  "abi": [
    {
      "payable": true,
      "stateMutability": "payable",
      "type": "fallback"
    },
    {
      "constant": true,
      "inputs": [],
      "name": "Invest2FulcrumV2Address",
      "outputs": [
        {
          "internalType": "contract Invest2FulcrumV2",
          "name": "",
          "type": "address"
        }
      ],
      "payable": false,
      "stateMutability": "view",
      "type": "function"
    },
    {
      "constant": false,
      "inputs": [
        {
          "internalType": "address payable",
          "name": "_towhomtoIssueAddress",
          "type": "address"
        },
        {
          "internalType": "uint256",
          "name": "_2XLongETHAllocation",
          "type": "uint256"
        },
        {
          "internalType": "address",
          "name": "_InvesteeTokenAddress",
          "type": "address"
        },
        {
          "internalType": "uint256",
          "name": "_slippage",
          "type": "uint256"
        },
        {
          "internalType": "bool",
          "name": "_residualInToken",
          "type": "bool"
        }
      ],
      "name": "LetsInvest",
      "outputs": [
        {
          "internalType": "uint256",
          "name": "",
          "type": "uint256"
        }
      ],
      "payable": true,
      "stateMutability": "payable",
      "type": "function"
    },
    {
      "constant": true,
      "inputs": [],
      "name": "UniSwapAddLiquityV2_GeneralAddress",
      "outputs": [
        {
          "internalType": "contract UniSwapAddLiquityV2_General",
          "name": "",
          "type": "address"
        }
      ],
      "payable": false,
      "stateMutability": "view",
      "type": "function"
    },
    {
      "constant": false,
      "inputs": [],
      "name": "destruct",
      "outputs": [],
      "payable": false,
      "stateMutability": "nonpayable",
      "type": "function"
    },
    {
      "constant": false,
      "inputs": [
        {
          "internalType": "contract IERC20",
          "name": "_TokenAddress",
          "type": "address"
        }
      ],
      "name": "inCaseTokengetsStuck",
      "outputs": [],
      "payable": false,
      "stateMutability": "nonpayable",
      "type": "function"
    },
    {
      "constant": false,
      "inputs": [
        {
          "internalType": "address",
          "name": "_Invest2FulcrumV2Address",
          "type": "address"
        },
        {
          "internalType": "address",
          "name": "_UniSwapAddLiquityV2_GeneralAddress",
          "type": "address"
        }
      ],
      "name": "initialize",
      "outputs": [],
      "payable": false,
      "stateMutability": "nonpayable",
      "type": "function"
    },
    {
      "constant": true,
      "inputs": [],
      "name": "isOwner",
      "outputs": [
        {
          "internalType": "bool",
          "name": "",
          "type": "bool"
        }
      ],
      "payable": false,
      "stateMutability": "view",
      "type": "function"
    },
    {
      "constant": true,
      "inputs": [],
      "name": "owner",
      "outputs": [
        {
          "internalType": "address payable",
          "name": "",
          "type": "address"
        }
      ],
      "payable": false,
      "stateMutability": "view",
      "type": "function"
    },
    {
      "constant": false,
      "inputs": [
        {
          "internalType": "contract Invest2FulcrumV2",
          "name": "_Invest2FulcrumV2Address",
          "type": "address"
        }
      ],
      "name": "set_Invest2FulcrumV2Address",
      "outputs": [],
      "payable": false,
      "stateMutability": "nonpayable",
      "type": "function"
    },
    {
      "constant": false,
      "inputs": [
        {
          "internalType": "address",
          "name": "_new_UniSwapAddLiquityV2_GeneralAddress",
          "type": "address"
        }
      ],
      "name": "set_UniSwapAddLiquityV2_GeneralAddress",
      "outputs": [],
      "payable": false,
      "stateMutability": "nonpayable",
      "type": "function"
    },
    {
      "constant": false,
      "inputs": [],
      "name": "toggleContractActive",
      "outputs": [],
      "payable": false,
      "stateMutability": "nonpayable",
      "type": "function"
    },
    {
      "constant": false,
      "inputs": [
        {
          "internalType": "address payable",
          "name": "newOwner",
          "type": "address"
        }
      ],
      "name": "transferOwnership",
      "outputs": [],
      "payable": false,
      "stateMutability": "nonpayable",
      "type": "function"
    },
    {
      "constant": false,
      "inputs": [],
      "name": "withdraw",
      "outputs": [],
      "payable": false,
      "stateMutability": "nonpayable",
      "type": "function"
    }
  ],
  "bytecode": "0x608060405234801561001057600080fd5b50610d94806100206000396000f3fe6080604052600436106100d25760003560e01c8063485cc9551161007f5780638f32d59b116100595780638f32d59b146102825780639313b1f9146102ab578063d909b38c146102de578063f2fde38b14610311576100d2565b8063485cc955146101ff578063551196d51461023a5780638da5cb5b1461026d576100d2565b80633c947a02116100b05780633c947a02146101a45780633ccfd60b146101d557806341a0622c146101ea576100d2565b80631385d24c146101265780631eb3d97c1461013b5780632b68b9c61461018f575b60335461010090046001600160a01b03163314610124576040805162461bcd60e51b815260206004820152600b60248201526a139bdd08105b1b1bddd95960aa1b604482015290519081900360640190fd5b005b34801561013257600080fd5b50610124610344565b61017d600480360360a081101561015157600080fd5b506001600160a01b0381358116916020810135916040820135169060608101359060800135151561039b565b60408051918252519081900360200190f35b34801561019b57600080fd5b5061012461055f565b3480156101b057600080fd5b506101b96105b5565b604080516001600160a01b039092168252519081900360200190f35b3480156101e157600080fd5b506101246105c4565b3480156101f657600080fd5b506101b961064b565b34801561020b57600080fd5b506101246004803603604081101561022257600080fd5b506001600160a01b038135811691602001351661065a565b34801561024657600080fd5b506101246004803603602081101561025d57600080fd5b50356001600160a01b0316610754565b34801561027957600080fd5b506101b961089b565b34801561028e57600080fd5b506102976108af565b604080519115158252519081900360200190f35b3480156102b757600080fd5b50610124600480360360208110156102ce57600080fd5b50356001600160a01b03166108c5565b3480156102ea57600080fd5b506101246004803603602081101561030157600080fd5b50356001600160a01b031661092a565b34801561031d57600080fd5b506101246004803603602081101561033457600080fd5b50356001600160a01b031661098f565b61034c6108af565b6103875760405162461bcd60e51b815260040180806020018281038252602c815260200180610cbe602c913960400191505060405180910390fd5b6033805460ff19811660ff90911615179055565b6000806103b26103ab34886109db565b6064610a3d565b905060006103c03483610a7f565b90506103d5346103d08385610ac1565b610a7f565b156104115760405162461bcd60e51b8152600401808060200182810382526027815260200180610d396027913960400191505060405180910390fd5b60355460408051633a2a66cf60e01b81526001600160a01b0389811660048301528b8116602483015291516000939290921691633a2a66cf918591604480830192602092919082900301818588803b15801561046c57600080fd5b505af1158015610480573d6000803e3d6000fd5b50505050506040513d602081101561049757600080fd5b505160345460408051636305111d60e01b815273d80e558027ee753a0b95757dc3521d0326f13da26004820152736b175474e89094c44da98b954eedeac495271d0f6024820152600560448201526001600160a01b038d811660648301529151939450911691636305111d918691608480830192602092919082900301818588803b15801561052557600080fd5b505af1158015610539573d6000803e3d6000fd5b50505050506040513d602081101561055057600080fd5b50909998505050505050505050565b6105676108af565b6105a25760405162461bcd60e51b815260040180806020018281038252602c815260200180610cbe602c913960400191505060405180910390fd5b60335461010090046001600160a01b0316ff5b6034546001600160a01b031681565b6105cc6108af565b6106075760405162461bcd60e51b815260040180806020018281038252602c815260200180610cbe602c913960400191505060405180910390fd5b6033546040516001600160a01b036101009092049190911690303180156108fc02916000818181858888f19350505050158015610648573d6000803e3d6000fd5b50565b6035546001600160a01b031681565b600054610100900460ff16806106735750610673610b1b565b80610681575060005460ff16155b6106bc5760405162461bcd60e51b815260040180806020018281038252602e815260200180610d0b602e913960400191505060405180910390fd5b600054610100900460ff161580156106e7576000805460ff1961ff0019909116610100171660011790555b60338054336101000274ffffffffffffffffffffffffffffffffffffffffff19909116179055603480546001600160a01b038581166001600160a01b0319928316179092556035805492851692909116919091179055801561074f576000805461ff00191690555b505050565b61075c6108af565b6107975760405162461bcd60e51b815260040180806020018281038252602c815260200180610cbe602c913960400191505060405180910390fd5b604080516370a0823160e01b815230600482015290516000916001600160a01b038416916370a0823191602480820192602092909190829003018186803b1580156107e157600080fd5b505afa1580156107f5573d6000803e3d6000fd5b505050506040513d602081101561080b57600080fd5b50516033546040805163a9059cbb60e01b81526101009092046001600160a01b03908116600484015260248301849052905192935084169163a9059cbb916044808201926020929091908290030181600087803b15801561086b57600080fd5b505af115801561087f573d6000803e3d6000fd5b505050506040513d602081101561089557600080fd5b50505050565b60335461010090046001600160a01b031681565b60335461010090046001600160a01b0316331490565b6108cd6108af565b6109085760405162461bcd60e51b815260040180806020018281038252602c815260200180610cbe602c913960400191505060405180910390fd5b603580546001600160a01b0319166001600160a01b0392909216919091179055565b6109326108af565b61096d5760405162461bcd60e51b815260040180806020018281038252602c815260200180610cbe602c913960400191505060405180910390fd5b603480546001600160a01b0319166001600160a01b0392909216919091179055565b6109976108af565b6109d25760405162461bcd60e51b815260040180806020018281038252602c815260200180610cbe602c913960400191505060405180910390fd5b61064881610b21565b6000826109ea57506000610a37565b828202828482816109f757fe5b0414610a345760405162461bcd60e51b8152600401808060200182810382526021815260200180610cea6021913960400191505060405180910390fd5b90505b92915050565b6000610a3483836040518060400160405280601a81526020017f536166654d6174683a206469766973696f6e206279207a65726f000000000000815250610b9b565b6000610a3483836040518060400160405280601e81526020017f536166654d6174683a207375627472616374696f6e206f766572666c6f770000815250610c3d565b600082820183811015610a34576040805162461bcd60e51b815260206004820152601b60248201527f536166654d6174683a206164646974696f6e206f766572666c6f770000000000604482015290519081900360640190fd5b303b1590565b6001600160a01b038116610b665760405162461bcd60e51b8152600401808060200182810382526026815260200180610c986026913960400191505060405180910390fd5b603380546001600160a01b039092166101000274ffffffffffffffffffffffffffffffffffffffff0019909216919091179055565b60008183610c275760405162461bcd60e51b81526004018080602001828103825283818151815260200191508051906020019080838360005b83811015610bec578181015183820152602001610bd4565b50505050905090810190601f168015610c195780820380516001836020036101000a031916815260200191505b509250505060405180910390fd5b506000838581610c3357fe5b0495945050505050565b60008184841115610c8f5760405162461bcd60e51b8152602060048201818152835160248401528351909283926044909101919085019080838360008315610bec578181015183820152602001610bd4565b50505090039056fe4f776e61626c653a206e6577206f776e657220697320746865207a65726f2061646472657373796f7520617265206e6f7420617574686f726973656420746f2063616c6c20746869732066756e6374696f6e536166654d6174683a206d756c7469706c69636174696f6e206f766572666c6f77436f6e747261637420696e7374616e63652068617320616c7265616479206265656e20696e697469616c697a656443616e6e6f742073706c697420696e636f6d696e672045544820617070726f7072696174656c79a265627a7a72315820d1f3118f6a339899557a962b327cc2d60e61fdf91c794d02f44a88a20ed6089464736f6c634300050d0032",
  "compiler": {
    "name": "solc",
    "version": "0.5.13+commit.5b0b510c.Emscripten.clang",
    "optimizer": {
      "enabled": true,
      "runs": 500
    },
    "evmVersion": "petersburg"
  }
}