{
  "fileName": "ModerateBullZap_GiftZap.sol",
  "contractName": "ModerateBullZap",
  "source": "// Copyright (C) 2019, 2020 dipeshsukhani, nodarjonashi, toshsharma, suhailg\n\n// This program is free software: you can redistribute it and/or modify\n// it under the terms of the GNU Affero General Public License as published by\n// the Free Software Foundation, either version 2 of the License, or\n// (at your option) any later version.\n//\n// This program is distributed in the hope that it will be useful,\n// but WITHOUT ANY WARRANTY; without even the implied warranty of\n// MERCHANTABILITY or FITNESS FOR A PARTICULAR PURPOSE.  See the\n// GNU Affero General Public License for more details.\n//\n// Visit <https://www.gnu.org/licenses/>for a copy of the GNU Affero General Public License\n\n/**\n * WARNING: This is an upgradable contract. Be careful not to disrupt\n * the existing storage layout when making upgrades to the contract. In particular,\n * existing fields should not be removed and should not have their types changed.\n * The order of field declarations must not be changed, and new fields must be added\n * below all existing declarations.\n *\n * The base contracts and the order in which they are declared must not be changed.\n * New fields must not be added to base contracts (unless the base contract has\n * reserved placeholder fields for this purpose).\n *\n * See https://docs.zeppelinos.org/docs/writing_contracts.html for more info.\n*/\n\npragma solidity ^0.5.0;\n\nimport \"../../../node_modules/@openzeppelin/upgrades/contracts/Initializable.sol\";\nimport \"../../../node_modules/@openzeppelin/contracts-ethereum-package/contracts/math/SafeMath.sol\";\nimport \"../../../node_modules/@openzeppelin/contracts-ethereum-package/contracts/token/ERC20/IERC20.sol\";\n\n\ninterface Invest2_sBTC {\n    function LetsInvestin_sBTC(address payable _toWhomToIssue) external payable returns(uint);\n}\n\ninterface Invest2_sETH {\n    function LetsInvestin_sETH(address payable _toWhomToIssue) external payable returns(uint);\n}\n\n\n\ncontract ModerateBullZap is Initializable {\n    using SafeMath for uint;\n    \n    // state variables\n    \n    // - THESE MUST ALWAYS STAY IN THE SAME LAYOUT\n    bool private stopped;\n    address payable public owner;\n    Invest2_sBTC public Invest2_sBTCContract;\n    Invest2_sETH public Invest2_sETHContract;\n    \n\n    // circuit breaker modifiers\n    modifier stopInEmergency {if (!stopped) _;}\n    modifier onlyInEmergency {if (stopped) _;}\n    modifier onlyOwner() {\n        require(isOwner(), \"you are not authorised to call this function\");\n        _;\n    }\n    \n    function initialize(address _a1, address _a2) initializer public {\n        stopped = false;\n        owner = msg.sender;\n        Invest2_sBTCContract = Invest2_sBTC(_a1);\n        Invest2_sETHContract = Invest2_sETH(_a2);\n    }\n\n    // main function which will make the investments\n    function LetsInvest(address payable _toWhomToIssue, uint _sBTCPercentage, uint _slippage) stopInEmergency public payable returns(uint) {\n        require(_sBTCPercentage >= 0 || _sBTCPercentage <= 100, \"wrong allocation\");\n        uint sBTCPortion = SafeMath.div(SafeMath.mul(msg.value,_sBTCPercentage),100);\n        uint sETHPortion = SafeMath.sub(msg.value, sBTCPortion);\n        require (SafeMath.sub(msg.value, SafeMath.add(sBTCPortion, sETHPortion))==0,\"Cannot split incoming ETH appropriately\");\n        Invest2_sBTCContract.LetsInvestin_sBTC.value(sBTCPortion)(_toWhomToIssue);\n        Invest2_sETHContract.LetsInvestin_sETH.value(sETHPortion)(_toWhomToIssue);\n    }\n\n\n    // this function should be called should we ever want to change the underlying Invest2_sETHContract address\n    function set_Invest2_sETHContract (Invest2_sETH _Invest2_sETHContract) onlyOwner public {\n        Invest2_sETHContract = _Invest2_sETHContract;\n    }\n    \n    // this function should be called should we ever want to change the underlying Invest2_sBTCContract address\n    function set_Invest2_sBTCContract (Invest2_sBTC _Invest2_sBTCContract) onlyOwner public {\n        Invest2_sBTCContract = _Invest2_sBTCContract;\n    }\n    \n\n    function inCaseTokengetsStuck(IERC20 _TokenAddress) onlyOwner public {\n        uint qty = _TokenAddress.balanceOf(address(this));\n        _TokenAddress.transfer(owner, qty);\n    }\n    \n    // - fallback function let you / anyone send ETH to this wallet without the need to call any function\n    function() external payable {\n        if (msg.sender != owner) {\n            LetsInvest(msg.sender, 50, 5);}\n    }\n    \n    // - to Pause the contract\n    function toggleContractActive() onlyOwner public {\n        stopped = !stopped;\n    }\n\n    // - to withdraw any ETH balance sitting in the contract\n    function withdraw() onlyOwner public{\n        owner.transfer(address(this).balance);\n    }\n    \n    // - to kill the contract\n    function destruct() public onlyOwner {\n        selfdestruct(owner);\n    }\n\n\n    /**\n     * @return true if `msg.sender` is the owner of the contract.\n     */\n    function isOwner() public view returns (bool) {\n        return msg.sender == owner;\n    }\n\n    /**\n     * @dev Transfers ownership of the contract to a new account (`newOwner`).\n     * Can only be called by the current owner.\n     */\n    function transferOwnership(address payable newOwner) public onlyOwner {\n        _transferOwnership(newOwner);\n    }\n\n    /**\n     * @dev Transfers ownership of the contract to a new account (`newOwner`).\n     */\n    function _transferOwnership(address payable newOwner) internal {\n        require(newOwner != address(0), \"Ownable: new owner is the zero address\");\n        owner = newOwner;\n    }\n\n    \n}",
  "sourcePath": "contracts/UpdatedZaps/Done/ModerateBullZap_GiftZap.sol",
  "abi": [
    {
      "payable": true,
      "stateMutability": "payable",
      "type": "fallback"
    },
    {
      "constant": true,
      "inputs": [],
      "name": "Invest2_sBTCContract",
      "outputs": [
        {
          "internalType": "contract Invest2_sBTC",
          "name": "",
          "type": "address"
        }
      ],
      "payable": false,
      "stateMutability": "view",
      "type": "function"
    },
    {
      "constant": true,
      "inputs": [],
      "name": "Invest2_sETHContract",
      "outputs": [
        {
          "internalType": "contract Invest2_sETH",
          "name": "",
          "type": "address"
        }
      ],
      "payable": false,
      "stateMutability": "view",
      "type": "function"
    },
    {
      "constant": false,
      "inputs": [
        {
          "internalType": "address payable",
          "name": "_toWhomToIssue",
          "type": "address"
        },
        {
          "internalType": "uint256",
          "name": "_sBTCPercentage",
          "type": "uint256"
        },
        {
          "internalType": "uint256",
          "name": "_slippage",
          "type": "uint256"
        }
      ],
      "name": "LetsInvest",
      "outputs": [
        {
          "internalType": "uint256",
          "name": "",
          "type": "uint256"
        }
      ],
      "payable": true,
      "stateMutability": "payable",
      "type": "function"
    },
    {
      "constant": false,
      "inputs": [],
      "name": "destruct",
      "outputs": [],
      "payable": false,
      "stateMutability": "nonpayable",
      "type": "function"
    },
    {
      "constant": false,
      "inputs": [
        {
          "internalType": "contract IERC20",
          "name": "_TokenAddress",
          "type": "address"
        }
      ],
      "name": "inCaseTokengetsStuck",
      "outputs": [],
      "payable": false,
      "stateMutability": "nonpayable",
      "type": "function"
    },
    {
      "constant": false,
      "inputs": [
        {
          "internalType": "address",
          "name": "_a1",
          "type": "address"
        },
        {
          "internalType": "address",
          "name": "_a2",
          "type": "address"
        }
      ],
      "name": "initialize",
      "outputs": [],
      "payable": false,
      "stateMutability": "nonpayable",
      "type": "function"
    },
    {
      "constant": true,
      "inputs": [],
      "name": "isOwner",
      "outputs": [
        {
          "internalType": "bool",
          "name": "",
          "type": "bool"
        }
      ],
      "payable": false,
      "stateMutability": "view",
      "type": "function"
    },
    {
      "constant": true,
      "inputs": [],
      "name": "owner",
      "outputs": [
        {
          "internalType": "address payable",
          "name": "",
          "type": "address"
        }
      ],
      "payable": false,
      "stateMutability": "view",
      "type": "function"
    },
    {
      "constant": false,
      "inputs": [
        {
          "internalType": "contract Invest2_sBTC",
          "name": "_Invest2_sBTCContract",
          "type": "address"
        }
      ],
      "name": "set_Invest2_sBTCContract",
      "outputs": [],
      "payable": false,
      "stateMutability": "nonpayable",
      "type": "function"
    },
    {
      "constant": false,
      "inputs": [
        {
          "internalType": "contract Invest2_sETH",
          "name": "_Invest2_sETHContract",
          "type": "address"
        }
      ],
      "name": "set_Invest2_sETHContract",
      "outputs": [],
      "payable": false,
      "stateMutability": "nonpayable",
      "type": "function"
    },
    {
      "constant": false,
      "inputs": [],
      "name": "toggleContractActive",
      "outputs": [],
      "payable": false,
      "stateMutability": "nonpayable",
      "type": "function"
    },
    {
      "constant": false,
      "inputs": [
        {
          "internalType": "address payable",
          "name": "newOwner",
          "type": "address"
        }
      ],
      "name": "transferOwnership",
      "outputs": [],
      "payable": false,
      "stateMutability": "nonpayable",
      "type": "function"
    },
    {
      "constant": false,
      "inputs": [],
      "name": "withdraw",
      "outputs": [],
      "payable": false,
      "stateMutability": "nonpayable",
      "type": "function"
    }
  ],
  "bytecode": "0x608060405234801561001057600080fd5b50610d1c806100206000396000f3fe6080604052600436106100d25760003560e01c8063485cc9551161007f5780638da5cb5b116100595780638da5cb5b146102645780638f32d59b14610279578063a9d22adf146102a2578063f2fde38b146102d5576100d2565b8063485cc955146101b257806352abee4a146101ed578063551196d514610231576100d2565b806339cbf9ac116100b057806339cbf9ac146101575780633ccfd60b14610188578063405816c31461019d576100d2565b80630a406ada146100fa5780631385d24c1461012d5780632b68b9c614610142575b60335461010090046001600160a01b031633146100f8576100f63360326005610308565b505b005b34801561010657600080fd5b506100f86004803603602081101561011d57600080fd5b50356001600160a01b0316610490565b34801561013957600080fd5b506100f86104f5565b34801561014e57600080fd5b506100f861054c565b34801561016357600080fd5b5061016c6105a2565b604080516001600160a01b039092168252519081900360200190f35b34801561019457600080fd5b506100f86105b1565b3480156101a957600080fd5b5061016c610638565b3480156101be57600080fd5b506100f8600480360360408110156101d557600080fd5b506001600160a01b0381358116916020013516610647565b61021f6004803603606081101561020357600080fd5b506001600160a01b038135169060208101359060400135610308565b60408051918252519081900360200190f35b34801561023d57600080fd5b506100f86004803603602081101561025457600080fd5b50356001600160a01b0316610741565b34801561027057600080fd5b5061016c610888565b34801561028557600080fd5b5061028e61089c565b604080519115158252519081900360200190f35b3480156102ae57600080fd5b506100f8600480360360208110156102c557600080fd5b50356001600160a01b03166108b2565b3480156102e157600080fd5b506100f8600480360360208110156102f857600080fd5b50356001600160a01b0316610917565b60335460009060ff1661048957600061032b6103243486610963565b60646109c5565b905060006103393483610a07565b905061034e346103498484610a49565b610a07565b1561038a5760405162461bcd60e51b8152600401808060200182810382526027815260200180610cc16027913960400191505060405180910390fd5b6034546040805163cb08689160e01b81526001600160a01b0389811660048301529151919092169163cb08689191859160248082019260209290919082900301818588803b1580156103db57600080fd5b505af11580156103ef573d6000803e3d6000fd5b50505050506040513d602081101561040657600080fd5b505060355460408051630b1c6e4760e01b81526001600160a01b03898116600483015291519190921691630b1c6e4791849160248082019260209290919082900301818588803b15801561045957600080fd5b505af115801561046d573d6000803e3d6000fd5b50505050506040513d602081101561048457600080fd5b505050505b9392505050565b61049861089c565b6104d35760405162461bcd60e51b815260040180806020018281038252602c815260200180610c46602c913960400191505060405180910390fd5b603580546001600160a01b0319166001600160a01b0392909216919091179055565b6104fd61089c565b6105385760405162461bcd60e51b815260040180806020018281038252602c815260200180610c46602c913960400191505060405180910390fd5b6033805460ff19811660ff90911615179055565b61055461089c565b61058f5760405162461bcd60e51b815260040180806020018281038252602c815260200180610c46602c913960400191505060405180910390fd5b60335461010090046001600160a01b0316ff5b6034546001600160a01b031681565b6105b961089c565b6105f45760405162461bcd60e51b815260040180806020018281038252602c815260200180610c46602c913960400191505060405180910390fd5b6033546040516001600160a01b036101009092049190911690303180156108fc02916000818181858888f19350505050158015610635573d6000803e3d6000fd5b50565b6035546001600160a01b031681565b600054610100900460ff16806106605750610660610aa3565b8061066e575060005460ff16155b6106a95760405162461bcd60e51b815260040180806020018281038252602e815260200180610c93602e913960400191505060405180910390fd5b600054610100900460ff161580156106d4576000805460ff1961ff0019909116610100171660011790555b60338054336101000274ffffffffffffffffffffffffffffffffffffffffff19909116179055603480546001600160a01b038581166001600160a01b0319928316179092556035805492851692909116919091179055801561073c576000805461ff00191690555b505050565b61074961089c565b6107845760405162461bcd60e51b815260040180806020018281038252602c815260200180610c46602c913960400191505060405180910390fd5b604080516370a0823160e01b815230600482015290516000916001600160a01b038416916370a0823191602480820192602092909190829003018186803b1580156107ce57600080fd5b505afa1580156107e2573d6000803e3d6000fd5b505050506040513d60208110156107f857600080fd5b50516033546040805163a9059cbb60e01b81526101009092046001600160a01b03908116600484015260248301849052905192935084169163a9059cbb916044808201926020929091908290030181600087803b15801561085857600080fd5b505af115801561086c573d6000803e3d6000fd5b505050506040513d602081101561088257600080fd5b50505050565b60335461010090046001600160a01b031681565b60335461010090046001600160a01b0316331490565b6108ba61089c565b6108f55760405162461bcd60e51b815260040180806020018281038252602c815260200180610c46602c913960400191505060405180910390fd5b603480546001600160a01b0319166001600160a01b0392909216919091179055565b61091f61089c565b61095a5760405162461bcd60e51b815260040180806020018281038252602c815260200180610c46602c913960400191505060405180910390fd5b61063581610aa9565b600082610972575060006109bf565b8282028284828161097f57fe5b04146109bc5760405162461bcd60e51b8152600401808060200182810382526021815260200180610c726021913960400191505060405180910390fd5b90505b92915050565b60006109bc83836040518060400160405280601a81526020017f536166654d6174683a206469766973696f6e206279207a65726f000000000000815250610b23565b60006109bc83836040518060400160405280601e81526020017f536166654d6174683a207375627472616374696f6e206f766572666c6f770000815250610bc5565b6000828201838110156109bc576040805162461bcd60e51b815260206004820152601b60248201527f536166654d6174683a206164646974696f6e206f766572666c6f770000000000604482015290519081900360640190fd5b303b1590565b6001600160a01b038116610aee5760405162461bcd60e51b8152600401808060200182810382526026815260200180610c206026913960400191505060405180910390fd5b603380546001600160a01b039092166101000274ffffffffffffffffffffffffffffffffffffffff0019909216919091179055565b60008183610baf5760405162461bcd60e51b81526004018080602001828103825283818151815260200191508051906020019080838360005b83811015610b74578181015183820152602001610b5c565b50505050905090810190601f168015610ba15780820380516001836020036101000a031916815260200191505b509250505060405180910390fd5b506000838581610bbb57fe5b0495945050505050565b60008184841115610c175760405162461bcd60e51b8152602060048201818152835160248401528351909283926044909101919085019080838360008315610b74578181015183820152602001610b5c565b50505090039056fe4f776e61626c653a206e6577206f776e657220697320746865207a65726f2061646472657373796f7520617265206e6f7420617574686f726973656420746f2063616c6c20746869732066756e6374696f6e536166654d6174683a206d756c7469706c69636174696f6e206f766572666c6f77436f6e747261637420696e7374616e63652068617320616c7265616479206265656e20696e697469616c697a656443616e6e6f742073706c697420696e636f6d696e672045544820617070726f7072696174656c79a265627a7a7231582038003344ebe3350d396116787d9a42a2d0d17fb6fd31f7c83542f918920da42964736f6c634300050d0032",
  "compiler": {
    "name": "solc",
    "version": "0.5.13+commit.5b0b510c.Emscripten.clang",
    "optimizer": {
      "enabled": true,
      "runs": 500
    },
    "evmVersion": "petersburg"
  }
}