{
  "fileName": "MultiPoolZapV1_3.sol",
  "contractName": "MultiPoolZapV1_3",
  "source": "// Copyright (C) 2019, 2020 dipeshsukhani, nodar, suhailg, apoorvlathey\n\n// This program is free software: you can redistribute it and/or modify\n// it under the terms of the GNU Affero General Public License as published by\n// the Free Software Foundation, either version 2 of the License, or\n// (at your option) any later version.\n//\n// This program is distributed in the hope that it will be useful,\n// but WITHOUT ANY WARRANTY; without even the implied warranty of\n// MERCHANTABILITY or FITNESS FOR A PARTICULAR PURPOSE.  See the\n// GNU Affero General Public License for more details.\n//\n// Visit <https://www.gnu.org/licenses/>for a copy of the GNU Affero General Public License\n\nimport \"../../node_modules/@openzeppelin/contracts/ownership/Ownable.sol\";\nimport \"../../node_modules/@openzeppelin/contracts/math/SafeMath.sol\";\nimport \"../../node_modules/@openzeppelin/contracts-ethereum-package/contracts/token/ERC20/IERC20.sol\";\n\npragma solidity ^0.5.0;\n\ninterface UniswapFactoryInterface {\n    function getExchange(address token) external view returns (address exchange);\n}\n\ninterface uniswapPoolZap {\n    function LetsInvest(address _TokenContractAddress, address _towhomtoissue) external payable returns (uint256);\n}\n\ncontract MultiPoolZapV1_3 is Ownable {\n    using SafeMath for uint;\n    \n    uniswapPoolZap public uniswapPoolZapAddress;\n    UniswapFactoryInterface public UniswapFactory;\n    uint16 public goodwill;\n    address payable public dzgoodwillAddress;\n    mapping(address => uint256) private userBalance;\n    \n    constructor(uint16 _goodwill, address payable _dzgoodwillAddress) public {\n        goodwill = _goodwill;\n        dzgoodwillAddress = _dzgoodwillAddress;\n        uniswapPoolZapAddress = uniswapPoolZap(0x97402249515994Cc0D22092D3375033Ad0ea438A);\n        UniswapFactory = UniswapFactoryInterface(0xc0a47dFe034B400B47bDaD5FecDa2621de6c4d95);\n    }\n\n    function set_new_goodwill(uint16 _new_goodwill) public onlyOwner {\n        require(\n            _new_goodwill > 0 && _new_goodwill < 10000,\n            \"GoodWill Value not allowed\"\n        );\n        goodwill = _new_goodwill;\n    }\n\n    function set_new_dzgoodwillAddress(address payable _new_dzgoodwillAddress)\n        public\n        onlyOwner\n    {\n        dzgoodwillAddress = _new_dzgoodwillAddress;\n    }\n    \n    function set_uniswapPoolZapAddress(address _uniswapPoolZapAddress) onlyOwner public {\n        uniswapPoolZapAddress = uniswapPoolZap(_uniswapPoolZapAddress);\n    }\n\n    function set_UniswapFactory(address _UniswapFactory) onlyOwner public {\n        UniswapFactory = UniswapFactoryInterface(_UniswapFactory);\n    }\n    \n    function multipleZapIn(address[] memory underlyingTokenAddresses, uint256[] memory respectiveWeightedValues) public payable {\n        \n        uint totalWeights;\n        \n        require(underlyingTokenAddresses.length == respectiveWeightedValues.length);\n        \n        for(uint i=0;i<underlyingTokenAddresses.length;i++) {\n            totalWeights = (totalWeights).add(respectiveWeightedValues[i]);\n        }\n        \n        uint goodwillPortion = ((msg.value).mul(goodwill)).div(10000);\n        uint totalInvestable = (msg.value).sub(goodwillPortion);\n        uint totalLeftToBeInvested = totalInvestable;\n        \n        require(address(dzgoodwillAddress).send(goodwillPortion));\n\n        uint residualETH;\n        for (uint i=0;i<underlyingTokenAddresses.length;i++) {\n            uint LPT = uniswapPoolZapAddress.LetsInvest.value((((totalInvestable).mul(respectiveWeightedValues[i])).div(totalWeights)+residualETH))(underlyingTokenAddresses[i], address(this));\n            IERC20(UniswapFactory.getExchange(address(underlyingTokenAddresses[i]))).transfer(msg.sender, LPT);\n            totalLeftToBeInvested = (totalLeftToBeInvested).sub(((totalInvestable).mul(respectiveWeightedValues[i])).div(totalWeights));\n            residualETH = (address(this).balance).sub(totalLeftToBeInvested);\n        }\n        \n        if(address(this).balance >= 250000000000000000){\n            totalInvestable = address(this).balance;\n            totalLeftToBeInvested = totalInvestable;\n            residualETH = 0;\n            for (uint i=0;i<underlyingTokenAddresses.length;i++) {\n                uint LPT = uniswapPoolZapAddress.LetsInvest.value((((totalInvestable).mul(respectiveWeightedValues[i])).div(totalWeights)+residualETH))(underlyingTokenAddresses[i], address(this));\n                IERC20(UniswapFactory.getExchange(address(underlyingTokenAddresses[i]))).transfer(msg.sender, LPT);\n                totalLeftToBeInvested = (totalLeftToBeInvested).sub(((totalInvestable).mul(respectiveWeightedValues[i])).div(totalWeights));\n                residualETH = (address(this).balance).sub(totalLeftToBeInvested);\n            }\n        }\n\n        userBalance[msg.sender] = address(this).balance;\n        require (send_out_eth(msg.sender));\n    }\n\n    function send_out_eth(address _towhomtosendtheETH) internal returns (bool) {\n        require(userBalance[_towhomtosendtheETH] > 0);\n        uint256 amount = userBalance[_towhomtosendtheETH];\n        userBalance[_towhomtosendtheETH] = 0;\n        (bool success, ) = _towhomtosendtheETH.call.value(amount)(\"\");\n        return success;\n    }\n\n    // - fallback function let you / anyone send ETH to this wallet without the need to call any function\n    function() external payable {\n    }\n}",
  "sourcePath": "contracts/Not_upgradable_done/MultiPoolZapV1_3.sol",
  "abi": [
    {
      "inputs": [
        {
          "internalType": "uint16",
          "name": "_goodwill",
          "type": "uint16"
        },
        {
          "internalType": "address payable",
          "name": "_dzgoodwillAddress",
          "type": "address"
        }
      ],
      "payable": false,
      "stateMutability": "nonpayable",
      "type": "constructor"
    },
    {
      "anonymous": false,
      "inputs": [
        {
          "indexed": true,
          "internalType": "address",
          "name": "previousOwner",
          "type": "address"
        },
        {
          "indexed": true,
          "internalType": "address",
          "name": "newOwner",
          "type": "address"
        }
      ],
      "name": "OwnershipTransferred",
      "type": "event"
    },
    {
      "payable": true,
      "stateMutability": "payable",
      "type": "fallback"
    },
    {
      "constant": true,
      "inputs": [],
      "name": "UniswapFactory",
      "outputs": [
        {
          "internalType": "contract UniswapFactoryInterface",
          "name": "",
          "type": "address"
        }
      ],
      "payable": false,
      "stateMutability": "view",
      "type": "function"
    },
    {
      "constant": true,
      "inputs": [],
      "name": "dzgoodwillAddress",
      "outputs": [
        {
          "internalType": "address payable",
          "name": "",
          "type": "address"
        }
      ],
      "payable": false,
      "stateMutability": "view",
      "type": "function"
    },
    {
      "constant": true,
      "inputs": [],
      "name": "goodwill",
      "outputs": [
        {
          "internalType": "uint16",
          "name": "",
          "type": "uint16"
        }
      ],
      "payable": false,
      "stateMutability": "view",
      "type": "function"
    },
    {
      "constant": true,
      "inputs": [],
      "name": "isOwner",
      "outputs": [
        {
          "internalType": "bool",
          "name": "",
          "type": "bool"
        }
      ],
      "payable": false,
      "stateMutability": "view",
      "type": "function"
    },
    {
      "constant": false,
      "inputs": [
        {
          "internalType": "address[]",
          "name": "underlyingTokenAddresses",
          "type": "address[]"
        },
        {
          "internalType": "uint256[]",
          "name": "respectiveWeightedValues",
          "type": "uint256[]"
        }
      ],
      "name": "multipleZapIn",
      "outputs": [],
      "payable": true,
      "stateMutability": "payable",
      "type": "function"
    },
    {
      "constant": true,
      "inputs": [],
      "name": "owner",
      "outputs": [
        {
          "internalType": "address",
          "name": "",
          "type": "address"
        }
      ],
      "payable": false,
      "stateMutability": "view",
      "type": "function"
    },
    {
      "constant": false,
      "inputs": [],
      "name": "renounceOwnership",
      "outputs": [],
      "payable": false,
      "stateMutability": "nonpayable",
      "type": "function"
    },
    {
      "constant": false,
      "inputs": [
        {
          "internalType": "address",
          "name": "_UniswapFactory",
          "type": "address"
        }
      ],
      "name": "set_UniswapFactory",
      "outputs": [],
      "payable": false,
      "stateMutability": "nonpayable",
      "type": "function"
    },
    {
      "constant": false,
      "inputs": [
        {
          "internalType": "address payable",
          "name": "_new_dzgoodwillAddress",
          "type": "address"
        }
      ],
      "name": "set_new_dzgoodwillAddress",
      "outputs": [],
      "payable": false,
      "stateMutability": "nonpayable",
      "type": "function"
    },
    {
      "constant": false,
      "inputs": [
        {
          "internalType": "uint16",
          "name": "_new_goodwill",
          "type": "uint16"
        }
      ],
      "name": "set_new_goodwill",
      "outputs": [],
      "payable": false,
      "stateMutability": "nonpayable",
      "type": "function"
    },
    {
      "constant": false,
      "inputs": [
        {
          "internalType": "address",
          "name": "_uniswapPoolZapAddress",
          "type": "address"
        }
      ],
      "name": "set_uniswapPoolZapAddress",
      "outputs": [],
      "payable": false,
      "stateMutability": "nonpayable",
      "type": "function"
    },
    {
      "constant": false,
      "inputs": [
        {
          "internalType": "address",
          "name": "newOwner",
          "type": "address"
        }
      ],
      "name": "transferOwnership",
      "outputs": [],
      "payable": false,
      "stateMutability": "nonpayable",
      "type": "function"
    },
    {
      "constant": true,
      "inputs": [],
      "name": "uniswapPoolZapAddress",
      "outputs": [
        {
          "internalType": "contract uniswapPoolZap",
          "name": "",
          "type": "address"
        }
      ],
      "payable": false,
      "stateMutability": "view",
      "type": "function"
    }
  ],
  "bytecode": "0x608060405234801561001057600080fd5b5060405161125e38038061125e8339818101604052604081101561003357600080fd5b508051602090910151600061004f6001600160e01b0361012216565b600080546001600160a01b0319166001600160a01b0383169081178255604051929350917f8be0079c531659141344cd1fd0a4f28419497f9722a3daafe3b4186f6b6457e0908290a35060028054600380546001600160a01b039094166001600160a01b03199485161790556001805484167397402249515994cc0d22092d3375033ad0ea438a17905561ffff909316740100000000000000000000000000000000000000000261ffff60a01b19909316929092171673c0a47dfe034b400b47bdad5fecda2621de6c4d95179055610126565b3390565b611129806101356000396000f3fe6080604052600436106100d25760003560e01c80637e7217061161007f5780638f32d59b116100595780638f32d59b14610330578063b10e1dbc14610359578063c3a8fcb014610387578063f2fde38b1461039c576100d2565b80637e721706146102d3578063849e25f4146102e85780638da5cb5b1461031b576100d2565b8063704e4711116100b0578063704e471114610258578063715018a61461028b57806377943089146102a0576100d2565b80634f38d666146100d45780635de0398e1461010557806366edc41c14610131575b005b3480156100e057600080fd5b506100e96103cf565b604080516001600160a01b039092168252519081900360200190f35b34801561011157600080fd5b5061011a6103de565b6040805161ffff9092168252519081900360200190f35b6100d26004803603604081101561014757600080fd5b81019060208101813564010000000081111561016257600080fd5b82018360208201111561017457600080fd5b8035906020019184602083028401116401000000008311171561019657600080fd5b91908080602002602001604051908101604052809392919081815260200183836020028082843760009201919091525092959493602081019350359150506401000000008111156101e657600080fd5b8201836020820111156101f857600080fd5b8035906020019184602083028401116401000000008311171561021a57600080fd5b9190808060200260200160405190810160405280939291908181526020018383602002808284376000920191909152509295506103ef945050505050565b34801561026457600080fd5b506100d26004803603602081101561027b57600080fd5b50356001600160a01b031661098e565b34801561029757600080fd5b506100d2610a09565b3480156102ac57600080fd5b506100d2600480360360208110156102c357600080fd5b50356001600160a01b0316610aac565b3480156102df57600080fd5b506100e9610b27565b3480156102f457600080fd5b506100d26004803603602081101561030b57600080fd5b50356001600160a01b0316610b36565b34801561032757600080fd5b506100e9610bb1565b34801561033c57600080fd5b50610345610bc0565b604080519115158252519081900360200190f35b34801561036557600080fd5b506100d26004803603602081101561037c57600080fd5b503561ffff16610be4565b34801561039357600080fd5b506100e9610cc9565b3480156103a857600080fd5b506100d2600480360360208110156103bf57600080fd5b50356001600160a01b0316610cd8565b6002546001600160a01b031681565b600254600160a01b900461ffff1681565b600081518351146103ff57600080fd5b60005b835181101561043b5761043183828151811061041a57fe5b602002602001015183610d3d90919063ffffffff16565b9150600101610402565b5060025460009061046c9061271090610460903490600160a01b900461ffff16610da0565b9063ffffffff610df916565b90506000610480348363ffffffff610e3b16565b60035460405191925082916001600160a01b039091169084156108fc029085906000818181858888f193505050506104b757600080fd5b6000805b875181101561071c576000600160009054906101000a90046001600160a01b03166001600160a01b0316633a2a66cf846105158a6104608d88815181106104fe57fe5b60200260200101518b610da090919063ffffffff16565b018b858151811061052257fe5b602090810291909101810151604080516001600160e01b031960e087901b1681526001600160a01b039092166004830152306024830152516044808301939282900301818588803b15801561057657600080fd5b505af115801561058a573d6000803e3d6000fd5b50505050506040513d60208110156105a157600080fd5b50516002548a519192506001600160a01b0316906306f2bf62908b90859081106105c757fe5b60200260200101516040518263ffffffff1660e01b815260040180826001600160a01b03166001600160a01b0316815260200191505060206040518083038186803b15801561061557600080fd5b505afa158015610629573d6000803e3d6000fd5b505050506040513d602081101561063f57600080fd5b50516040805163a9059cbb60e01b81523360048201526024810184905290516001600160a01b039092169163a9059cbb916044808201926020929091908290030181600087803b15801561069257600080fd5b505af11580156106a6573d6000803e3d6000fd5b505050506040513d60208110156106bc57600080fd5b505087516106fe906106f1908990610460908c90879081106106da57fe5b602002602001015189610da090919063ffffffff16565b859063ffffffff610e3b16565b935061071130318563ffffffff610e3b16565b9250506001016104bb565b506703782dace9d9000030311061096057505030319050806000805b875181101561095e576000600160009054906101000a90046001600160a01b03166001600160a01b0316633a2a66cf8461077b8a6104608d88815181106104fe57fe5b018b858151811061078857fe5b602090810291909101810151604080516001600160e01b031960e087901b1681526001600160a01b039092166004830152306024830152516044808301939282900301818588803b1580156107dc57600080fd5b505af11580156107f0573d6000803e3d6000fd5b50505050506040513d602081101561080757600080fd5b50516002548a519192506001600160a01b0316906306f2bf62908b908590811061082d57fe5b60200260200101516040518263ffffffff1660e01b815260040180826001600160a01b03166001600160a01b0316815260200191505060206040518083038186803b15801561087b57600080fd5b505afa15801561088f573d6000803e3d6000fd5b505050506040513d60208110156108a557600080fd5b50516040805163a9059cbb60e01b81523360048201526024810184905290516001600160a01b039092169163a9059cbb916044808201926020929091908290030181600087803b1580156108f857600080fd5b505af115801561090c573d6000803e3d6000fd5b505050506040513d602081101561092257600080fd5b50508751610940906106f1908990610460908c90879081106106da57fe5b935061095330318563ffffffff610e3b16565b925050600101610738565b505b3360008181526004602052604090203031905561097c90610e7d565b61098557600080fd5b50505050505050565b610996610bc0565b6109e7576040805162461bcd60e51b815260206004820181905260248201527f4f776e61626c653a2063616c6c6572206973206e6f7420746865206f776e6572604482015290519081900360640190fd5b600180546001600160a01b0319166001600160a01b0392909216919091179055565b610a11610bc0565b610a62576040805162461bcd60e51b815260206004820181905260248201527f4f776e61626c653a2063616c6c6572206973206e6f7420746865206f776e6572604482015290519081900360640190fd5b600080546040516001600160a01b03909116907f8be0079c531659141344cd1fd0a4f28419497f9722a3daafe3b4186f6b6457e0908390a3600080546001600160a01b0319169055565b610ab4610bc0565b610b05576040805162461bcd60e51b815260206004820181905260248201527f4f776e61626c653a2063616c6c6572206973206e6f7420746865206f776e6572604482015290519081900360640190fd5b600280546001600160a01b0319166001600160a01b0392909216919091179055565b6001546001600160a01b031681565b610b3e610bc0565b610b8f576040805162461bcd60e51b815260206004820181905260248201527f4f776e61626c653a2063616c6c6572206973206e6f7420746865206f776e6572604482015290519081900360640190fd5b600380546001600160a01b0319166001600160a01b0392909216919091179055565b6000546001600160a01b031690565b600080546001600160a01b0316610bd5610f0d565b6001600160a01b031614905090565b610bec610bc0565b610c3d576040805162461bcd60e51b815260206004820181905260248201527f4f776e61626c653a2063616c6c6572206973206e6f7420746865206f776e6572604482015290519081900360640190fd5b60008161ffff16118015610c5657506127108161ffff16105b610ca7576040805162461bcd60e51b815260206004820152601a60248201527f476f6f6457696c6c2056616c7565206e6f7420616c6c6f776564000000000000604482015290519081900360640190fd5b6002805461ffff909216600160a01b0261ffff60a01b19909216919091179055565b6003546001600160a01b031681565b610ce0610bc0565b610d31576040805162461bcd60e51b815260206004820181905260248201527f4f776e61626c653a2063616c6c6572206973206e6f7420746865206f776e6572604482015290519081900360640190fd5b610d3a81610f11565b50565b600082820183811015610d97576040805162461bcd60e51b815260206004820152601b60248201527f536166654d6174683a206164646974696f6e206f766572666c6f770000000000604482015290519081900360640190fd5b90505b92915050565b600082610daf57506000610d9a565b82820282848281610dbc57fe5b0414610d975760405162461bcd60e51b81526004018080602001828103825260218152602001806110d46021913960400191505060405180910390fd5b6000610d9783836040518060400160405280601a81526020017f536166654d6174683a206469766973696f6e206279207a65726f000000000000815250610fb1565b6000610d9783836040518060400160405280601e81526020017f536166654d6174683a207375627472616374696f6e206f766572666c6f770000815250611053565b6001600160a01b038116600090815260046020526040812054610e9f57600080fd5b6001600160a01b038216600081815260046020526040808220805490839055905190929083908381818185875af1925050503d8060008114610efd576040519150601f19603f3d011682016040523d82523d6000602084013e610f02565b606091505b509095945050505050565b3390565b6001600160a01b038116610f565760405162461bcd60e51b81526004018080602001828103825260268152602001806110ae6026913960400191505060405180910390fd5b600080546040516001600160a01b03808516939216917f8be0079c531659141344cd1fd0a4f28419497f9722a3daafe3b4186f6b6457e091a3600080546001600160a01b0319166001600160a01b0392909216919091179055565b6000818361103d5760405162461bcd60e51b81526004018080602001828103825283818151815260200191508051906020019080838360005b83811015611002578181015183820152602001610fea565b50505050905090810190601f16801561102f5780820380516001836020036101000a031916815260200191505b509250505060405180910390fd5b50600083858161104957fe5b0495945050505050565b600081848411156110a55760405162461bcd60e51b8152602060048201818152835160248401528351909283926044909101919085019080838360008315611002578181015183820152602001610fea565b50505090039056fe4f776e61626c653a206e6577206f776e657220697320746865207a65726f2061646472657373536166654d6174683a206d756c7469706c69636174696f6e206f766572666c6f77a265627a7a72315820608bae93d02a38baa311238c64623d553ee1a0b95cd5498c1fc4d81fb5f218a764736f6c634300050d0032",
  "compiler": {
    "name": "solc",
    "version": "0.5.13+commit.5b0b510c.Emscripten.clang",
    "optimizer": {
      "enabled": true,
      "runs": 500
    },
    "evmVersion": "petersburg"
  }
}