{
  "fileName": "MultiPoolZapV1_4.sol",
  "contractName": "MultiPoolZapV1_4",
  "source": "// Copyright (C) 2019, 2020 dipeshsukhani, nodar, suhailg, apoorvlathey\n\n// This program is free software: you can redistribute it and/or modify\n// it under the terms of the GNU Affero General Public License as published by\n// the Free Software Foundation, either version 2 of the License, or\n// (at your option) any later version.\n//\n// This program is distributed in the hope that it will be useful,\n// but WITHOUT ANY WARRANTY; without even the implied warranty of\n// MERCHANTABILITY or FITNESS FOR A PARTICULAR PURPOSE.  See the\n// GNU Affero General Public License for more details.\n//\n// Visit <https://www.gnu.org/licenses/>for a copy of the GNU Affero General Public License\n\nimport \"../../node_modules/@openzeppelin/contracts/ownership/Ownable.sol\";\nimport \"../../node_modules/@openzeppelin/contracts/math/SafeMath.sol\";\nimport \"../../node_modules/@openzeppelin/contracts-ethereum-package/contracts/token/ERC20/IERC20.sol\";\n\npragma solidity ^0.5.0;\n\ninterface UniswapFactoryInterface {\n    function getExchange(address token) external view returns (address exchange);\n}\n\ninterface UniswapExchangeInterface {\n    function tokenToEthTransferInput(uint256 tokens_sold, uint256 min_eth, uint256 deadline, address recipient) external returns (uint256  eth_bought);\n    function getTokenToEthInputPrice(uint256 tokens_sold) external view returns (uint256 eth_bought);\n}\n\ninterface uniswapPoolZap {\n    function LetsInvest(address _TokenContractAddress, address _towhomtoissue) external payable returns (uint256);\n}\n\n/**\n    @title Multiple Pool Zap\n    @author Zapper\n    @notice Use this contract to Add liquidity to Multiple Uniswap Pools at once using ETH or ERC20\n*/\ncontract MultiPoolZapV1_4 is Ownable {\n    using SafeMath for uint;\n\n    uniswapPoolZap public uniswapPoolZapAddress;\n    UniswapFactoryInterface public UniswapFactory;\n    uint16 public goodwill;\n    address payable public dzgoodwillAddress;\n    mapping(address => uint256) private userBalance;\n\n    constructor(uint16 _goodwill, address payable _dzgoodwillAddress) public {\n        goodwill = _goodwill;\n        dzgoodwillAddress = _dzgoodwillAddress;\n        uniswapPoolZapAddress = uniswapPoolZap(0x97402249515994Cc0D22092D3375033Ad0ea438A);\n        UniswapFactory = UniswapFactoryInterface(0xc0a47dFe034B400B47bDaD5FecDa2621de6c4d95);\n    }\n\n    function set_new_goodwill(uint16 _new_goodwill) public onlyOwner {\n        require(\n            _new_goodwill > 0 && _new_goodwill < 10000,\n            \"GoodWill Value not allowed\"\n        );\n        goodwill = _new_goodwill;\n    }\n\n    function set_new_dzgoodwillAddress(address payable _new_dzgoodwillAddress)\n        public\n        onlyOwner\n    {\n        dzgoodwillAddress = _new_dzgoodwillAddress;\n    }\n\n    function set_uniswapPoolZapAddress(address _uniswapPoolZapAddress) onlyOwner public {\n        uniswapPoolZapAddress = uniswapPoolZap(_uniswapPoolZapAddress);\n    }\n\n    function set_UniswapFactory(address _UniswapFactory) onlyOwner public {\n        UniswapFactory = UniswapFactoryInterface(_UniswapFactory);\n    }\n\n    /**\n        @notice Add liquidity to Multiple Uniswap Pools at once using ETH or ERC20\n        @param _IncomingTokenContractAddress The token address for ERC20 being deposited. Input address(0) in case of ETH deposit.\n        @param _IncomingTokenQty Quantity of ERC20 being deposited. 0 in case of ETH deposit.\n        @param underlyingTokenAddresses Array of Token Addresses to which's Uniswap Pool to add liquidity to.\n        @param respectiveWeightedValues Array of Relative Ratios (corresponding to underlyingTokenAddresses) to proportionally distribute received ETH or ERC20 into various pools.\n    */\n    function multipleZapIn(address _IncomingTokenContractAddress, uint256 _IncomingTokenQty, address[] memory underlyingTokenAddresses, uint256[] memory respectiveWeightedValues) public payable {\n\n        uint totalWeights;\n        require(underlyingTokenAddresses.length == respectiveWeightedValues.length);\n        for(uint i=0;i<underlyingTokenAddresses.length;i++) {\n            totalWeights = (totalWeights).add(respectiveWeightedValues[i]);\n        }\n\n        uint256 eth2Trade;\n\n        if (msg.value > 0) {\n            require (_IncomingTokenContractAddress == address(0), \"Incoming token address should be address(0)\");\n            eth2Trade = msg.value;\n        } else if(_IncomingTokenContractAddress == address(0) && msg.value == 0) {\n            revert(\"Please send ETH along with function call\");\n        } else if(_IncomingTokenContractAddress != address(0)) {\n            require(msg.value == 0, \"Cannot send Tokens and ETH at the same time\");\n            require(\n                IERC20(_IncomingTokenContractAddress).transferFrom(\n                    msg.sender,\n                    address(this),\n                    _IncomingTokenQty\n                ),\n                \"Error in transferring ERC20\"\n            );\n            eth2Trade = _token2Eth(\n              _IncomingTokenContractAddress,\n              _IncomingTokenQty,\n              address(this)\n            );\n        }\n\n        uint goodwillPortion = ((eth2Trade).mul(goodwill)).div(10000);\n        uint totalInvestable = (eth2Trade).sub(goodwillPortion);\n        uint totalLeftToBeInvested = totalInvestable;\n\n        require(address(dzgoodwillAddress).send(goodwillPortion));\n\n        uint residualETH;\n        for (uint i=0;i<underlyingTokenAddresses.length;i++) {\n            uint LPT = uniswapPoolZapAddress.LetsInvest.value((((totalInvestable).mul(respectiveWeightedValues[i])).div(totalWeights)+residualETH))(underlyingTokenAddresses[i], address(this));\n            IERC20(UniswapFactory.getExchange(address(underlyingTokenAddresses[i]))).transfer(msg.sender, LPT);\n            totalLeftToBeInvested = (totalLeftToBeInvested).sub(((totalInvestable).mul(respectiveWeightedValues[i])).div(totalWeights));\n            residualETH = (address(this).balance).sub(totalLeftToBeInvested);\n        }\n\n        if(address(this).balance >= 250000000000000000){\n            totalInvestable = address(this).balance;\n            totalLeftToBeInvested = totalInvestable;\n            residualETH = 0;\n            for (uint i=0;i<underlyingTokenAddresses.length;i++) {\n                uint LPT = uniswapPoolZapAddress.LetsInvest.value((((totalInvestable).mul(respectiveWeightedValues[i])).div(totalWeights)+residualETH))(underlyingTokenAddresses[i], address(this));\n                IERC20(UniswapFactory.getExchange(address(underlyingTokenAddresses[i]))).transfer(msg.sender, LPT);\n                totalLeftToBeInvested = (totalLeftToBeInvested).sub(((totalInvestable).mul(respectiveWeightedValues[i])).div(totalWeights));\n                residualETH = (address(this).balance).sub(totalLeftToBeInvested);\n            }\n        }\n\n        userBalance[msg.sender] = address(this).balance;\n        require (send_out_eth(msg.sender));\n    }\n\n    /**\n        @notice This function swaps ERC20 to ERC20 via Uniswap\n        @param _FromTokenContractAddress Address of Token to swap\n        @param tokens2Trade The quantity of tokens to swap\n        @param _toWhomToIssue Address of user to send the swapped ETH to\n        @return The amount of ETH Received.\n    */\n    function _token2Eth(\n        address _FromTokenContractAddress,\n        uint256 tokens2Trade,\n        address _toWhomToIssue\n    ) internal returns (uint256 ethBought) {\n\n            UniswapExchangeInterface FromUniSwapExchangeContractAddress\n         = UniswapExchangeInterface(\n            UniswapFactory.getExchange(_FromTokenContractAddress)\n        );\n\n        IERC20(_FromTokenContractAddress).approve(\n            address(FromUniSwapExchangeContractAddress),\n            tokens2Trade\n        );\n\n        ethBought = FromUniSwapExchangeContractAddress.tokenToEthTransferInput(\n            tokens2Trade,\n            ((FromUniSwapExchangeContractAddress.getTokenToEthInputPrice(tokens2Trade)).mul(99).div(100)),\n            SafeMath.add(block.timestamp, 300),\n            _toWhomToIssue\n        );\n        require(ethBought > 0, \"Error in swapping Eth: 1\");\n    }\n\n    /**\n        @notice This function sends the user's remaining ETH back to them.\n        @param _towhomtosendtheETH The Address of the user\n        @return Boolean corresponding to successful execution.\n    */\n    function send_out_eth(address _towhomtosendtheETH) internal returns (bool) {\n        require(userBalance[_towhomtosendtheETH] > 0);\n        uint256 amount = userBalance[_towhomtosendtheETH];\n        userBalance[_towhomtosendtheETH] = 0;\n        (bool success, ) = _towhomtosendtheETH.call.value(amount)(\"\");\n        return success;\n    }\n\n    // - fallback function let you / anyone send ETH to this wallet without the need to call any function\n    function() external payable {\n    }\n}",
  "sourcePath": "contracts/Not_upgradable_done/MultiPoolZapV1_4.sol",
  "abi": [
    {
      "inputs": [
        {
          "internalType": "uint16",
          "name": "_goodwill",
          "type": "uint16"
        },
        {
          "internalType": "address payable",
          "name": "_dzgoodwillAddress",
          "type": "address"
        }
      ],
      "payable": false,
      "stateMutability": "nonpayable",
      "type": "constructor"
    },
    {
      "anonymous": false,
      "inputs": [
        {
          "indexed": true,
          "internalType": "address",
          "name": "previousOwner",
          "type": "address"
        },
        {
          "indexed": true,
          "internalType": "address",
          "name": "newOwner",
          "type": "address"
        }
      ],
      "name": "OwnershipTransferred",
      "type": "event"
    },
    {
      "payable": true,
      "stateMutability": "payable",
      "type": "fallback"
    },
    {
      "constant": true,
      "inputs": [],
      "name": "UniswapFactory",
      "outputs": [
        {
          "internalType": "contract UniswapFactoryInterface",
          "name": "",
          "type": "address"
        }
      ],
      "payable": false,
      "stateMutability": "view",
      "type": "function"
    },
    {
      "constant": true,
      "inputs": [],
      "name": "dzgoodwillAddress",
      "outputs": [
        {
          "internalType": "address payable",
          "name": "",
          "type": "address"
        }
      ],
      "payable": false,
      "stateMutability": "view",
      "type": "function"
    },
    {
      "constant": true,
      "inputs": [],
      "name": "goodwill",
      "outputs": [
        {
          "internalType": "uint16",
          "name": "",
          "type": "uint16"
        }
      ],
      "payable": false,
      "stateMutability": "view",
      "type": "function"
    },
    {
      "constant": true,
      "inputs": [],
      "name": "isOwner",
      "outputs": [
        {
          "internalType": "bool",
          "name": "",
          "type": "bool"
        }
      ],
      "payable": false,
      "stateMutability": "view",
      "type": "function"
    },
    {
      "constant": false,
      "inputs": [
        {
          "internalType": "address",
          "name": "_IncomingTokenContractAddress",
          "type": "address"
        },
        {
          "internalType": "uint256",
          "name": "_IncomingTokenQty",
          "type": "uint256"
        },
        {
          "internalType": "address[]",
          "name": "underlyingTokenAddresses",
          "type": "address[]"
        },
        {
          "internalType": "uint256[]",
          "name": "respectiveWeightedValues",
          "type": "uint256[]"
        }
      ],
      "name": "multipleZapIn",
      "outputs": [],
      "payable": true,
      "stateMutability": "payable",
      "type": "function"
    },
    {
      "constant": true,
      "inputs": [],
      "name": "owner",
      "outputs": [
        {
          "internalType": "address",
          "name": "",
          "type": "address"
        }
      ],
      "payable": false,
      "stateMutability": "view",
      "type": "function"
    },
    {
      "constant": false,
      "inputs": [],
      "name": "renounceOwnership",
      "outputs": [],
      "payable": false,
      "stateMutability": "nonpayable",
      "type": "function"
    },
    {
      "constant": false,
      "inputs": [
        {
          "internalType": "address",
          "name": "_UniswapFactory",
          "type": "address"
        }
      ],
      "name": "set_UniswapFactory",
      "outputs": [],
      "payable": false,
      "stateMutability": "nonpayable",
      "type": "function"
    },
    {
      "constant": false,
      "inputs": [
        {
          "internalType": "address payable",
          "name": "_new_dzgoodwillAddress",
          "type": "address"
        }
      ],
      "name": "set_new_dzgoodwillAddress",
      "outputs": [],
      "payable": false,
      "stateMutability": "nonpayable",
      "type": "function"
    },
    {
      "constant": false,
      "inputs": [
        {
          "internalType": "uint16",
          "name": "_new_goodwill",
          "type": "uint16"
        }
      ],
      "name": "set_new_goodwill",
      "outputs": [],
      "payable": false,
      "stateMutability": "nonpayable",
      "type": "function"
    },
    {
      "constant": false,
      "inputs": [
        {
          "internalType": "address",
          "name": "_uniswapPoolZapAddress",
          "type": "address"
        }
      ],
      "name": "set_uniswapPoolZapAddress",
      "outputs": [],
      "payable": false,
      "stateMutability": "nonpayable",
      "type": "function"
    },
    {
      "constant": false,
      "inputs": [
        {
          "internalType": "address",
          "name": "newOwner",
          "type": "address"
        }
      ],
      "name": "transferOwnership",
      "outputs": [],
      "payable": false,
      "stateMutability": "nonpayable",
      "type": "function"
    },
    {
      "constant": true,
      "inputs": [],
      "name": "uniswapPoolZapAddress",
      "outputs": [
        {
          "internalType": "contract uniswapPoolZap",
          "name": "",
          "type": "address"
        }
      ],
      "payable": false,
      "stateMutability": "view",
      "type": "function"
    }
  ],
  "bytecode": "0x608060405234801561001057600080fd5b5060405161174d38038061174d8339818101604052604081101561003357600080fd5b508051602090910151600061004f6001600160e01b0361012216565b600080546001600160a01b0319166001600160a01b0383169081178255604051929350917f8be0079c531659141344cd1fd0a4f28419497f9722a3daafe3b4186f6b6457e0908290a35060028054600380546001600160a01b039094166001600160a01b03199485161790556001805484167397402249515994cc0d22092d3375033ad0ea438a17905561ffff909316740100000000000000000000000000000000000000000261ffff60a01b19909316929092171673c0a47dfe034b400b47bdad5fecda2621de6c4d95179055610126565b3390565b611618806101356000396000f3fe6080604052600436106100d25760003560e01c8063849e25f41161007f578063b10e1dbc11610059578063b10e1dbc14610232578063c3a8fcb014610260578063d293abe414610275578063f2fde38b146103b1576100d2565b8063849e25f4146101c15780638da5cb5b146101f45780638f32d59b14610209576100d2565b8063715018a6116100b0578063715018a61461016457806377943089146101795780637e721706146101ac576100d2565b80634f38d666146100d45780635de0398e14610105578063704e471114610131575b005b3480156100e057600080fd5b506100e96103e4565b604080516001600160a01b039092168252519081900360200190f35b34801561011157600080fd5b5061011a6103f3565b6040805161ffff9092168252519081900360200190f35b34801561013d57600080fd5b506100d26004803603602081101561015457600080fd5b50356001600160a01b0316610404565b34801561017057600080fd5b506100d261047f565b34801561018557600080fd5b506100d26004803603602081101561019c57600080fd5b50356001600160a01b0316610522565b3480156101b857600080fd5b506100e961059d565b3480156101cd57600080fd5b506100d2600480360360208110156101e457600080fd5b50356001600160a01b03166105ac565b34801561020057600080fd5b506100e9610627565b34801561021557600080fd5b5061021e610636565b604080519115158252519081900360200190f35b34801561023e57600080fd5b506100d26004803603602081101561025557600080fd5b503561ffff1661065a565b34801561026c57600080fd5b506100e961073f565b6100d26004803603608081101561028b57600080fd5b6001600160a01b03823516916020810135918101906060810160408201356401000000008111156102bb57600080fd5b8201836020820111156102cd57600080fd5b803590602001918460208302840111640100000000831117156102ef57600080fd5b919080806020026020016040519081016040528093929190818152602001838360200280828437600092019190915250929594936020810193503591505064010000000081111561033f57600080fd5b82018360208201111561035157600080fd5b8035906020019184602083028401116401000000008311171561037357600080fd5b91908080602002602001604051908101604052809392919081815260200183836020028082843760009201919091525092955061074e945050505050565b3480156103bd57600080fd5b506100d2600480360360208110156103d457600080fd5b50356001600160a01b0316610ec2565b6002546001600160a01b031681565b600254600160a01b900461ffff1681565b61040c610636565b61045d576040805162461bcd60e51b815260206004820181905260248201527f4f776e61626c653a2063616c6c6572206973206e6f7420746865206f776e6572604482015290519081900360640190fd5b600180546001600160a01b0319166001600160a01b0392909216919091179055565b610487610636565b6104d8576040805162461bcd60e51b815260206004820181905260248201527f4f776e61626c653a2063616c6c6572206973206e6f7420746865206f776e6572604482015290519081900360640190fd5b600080546040516001600160a01b03909116907f8be0079c531659141344cd1fd0a4f28419497f9722a3daafe3b4186f6b6457e0908390a3600080546001600160a01b0319169055565b61052a610636565b61057b576040805162461bcd60e51b815260206004820181905260248201527f4f776e61626c653a2063616c6c6572206973206e6f7420746865206f776e6572604482015290519081900360640190fd5b600280546001600160a01b0319166001600160a01b0392909216919091179055565b6001546001600160a01b031681565b6105b4610636565b610605576040805162461bcd60e51b815260206004820181905260248201527f4f776e61626c653a2063616c6c6572206973206e6f7420746865206f776e6572604482015290519081900360640190fd5b600380546001600160a01b0319166001600160a01b0392909216919091179055565b6000546001600160a01b031690565b600080546001600160a01b031661064b610f27565b6001600160a01b031614905090565b610662610636565b6106b3576040805162461bcd60e51b815260206004820181905260248201527f4f776e61626c653a2063616c6c6572206973206e6f7420746865206f776e6572604482015290519081900360640190fd5b60008161ffff161180156106cc57506127108161ffff16105b61071d576040805162461bcd60e51b815260206004820152601a60248201527f476f6f6457696c6c2056616c7565206e6f7420616c6c6f776564000000000000604482015290519081900360640190fd5b6002805461ffff909216600160a01b0261ffff60a01b19909216919091179055565b6003546001600160a01b031681565b6000815183511461075e57600080fd5b60005b835181101561079a5761079083828151811061077957fe5b602002602001015183610f2b90919063ffffffff16565b9150600101610761565b50600034156107f0576001600160a01b038616156107e95760405162461bcd60e51b815260040180806020018281038252602b81526020018061156d602b913960400191505060405180910390fd5b503461096d565b6001600160a01b038616158015610805575034155b156108415760405162461bcd60e51b81526004018080602001828103825260288152602001806115456028913960400191505060405180910390fd5b6001600160a01b0386161561096d57341561088d5760405162461bcd60e51b815260040180806020018281038252602b8152602001806115b9602b913960400191505060405180910390fd5b604080516323b872dd60e01b81523360048201523060248201526044810187905290516001600160a01b038816916323b872dd9160648083019260209291908290030181600087803b1580156108e257600080fd5b505af11580156108f6573d6000803e3d6000fd5b505050506040513d602081101561090c57600080fd5b505161095f576040805162461bcd60e51b815260206004820152601b60248201527f4572726f7220696e207472616e7366657272696e672045524332300000000000604482015290519081900360640190fd5b61096a868630610f8e565b90505b60025460009061099d9061271090610991908590600160a01b900461ffff16611215565b9063ffffffff61126e16565b905060006109b1838363ffffffff6112b016565b60035460405191925082916001600160a01b039091169084156108fc029085906000818181858888f193505050506109e857600080fd5b6000805b8851811015610c4d576000600160009054906101000a90046001600160a01b03166001600160a01b0316633a2a66cf84610a468b6109918e8881518110610a2f57fe5b60200260200101518b61121590919063ffffffff16565b018c8581518110610a5357fe5b602090810291909101810151604080516001600160e01b031960e087901b1681526001600160a01b039092166004830152306024830152516044808301939282900301818588803b158015610aa757600080fd5b505af1158015610abb573d6000803e3d6000fd5b50505050506040513d6020811015610ad257600080fd5b50516002548b519192506001600160a01b0316906306f2bf62908c9085908110610af857fe5b60200260200101516040518263ffffffff1660e01b815260040180826001600160a01b03166001600160a01b0316815260200191505060206040518083038186803b158015610b4657600080fd5b505afa158015610b5a573d6000803e3d6000fd5b505050506040513d6020811015610b7057600080fd5b50516040805163a9059cbb60e01b81523360048201526024810184905290516001600160a01b039092169163a9059cbb916044808201926020929091908290030181600087803b158015610bc357600080fd5b505af1158015610bd7573d6000803e3d6000fd5b505050506040513d6020811015610bed57600080fd5b50508851610c2f90610c22908a90610991908d9087908110610c0b57fe5b60200260200101518961121590919063ffffffff16565b859063ffffffff6112b016565b9350610c4230318563ffffffff6112b016565b9250506001016109ec565b506703782dace9d90000303110610e9157505030319050806000805b8851811015610e8f576000600160009054906101000a90046001600160a01b03166001600160a01b0316633a2a66cf84610cac8b6109918e8881518110610a2f57fe5b018c8581518110610cb957fe5b602090810291909101810151604080516001600160e01b031960e087901b1681526001600160a01b039092166004830152306024830152516044808301939282900301818588803b158015610d0d57600080fd5b505af1158015610d21573d6000803e3d6000fd5b50505050506040513d6020811015610d3857600080fd5b50516002548b519192506001600160a01b0316906306f2bf62908c9085908110610d5e57fe5b60200260200101516040518263ffffffff1660e01b815260040180826001600160a01b03166001600160a01b0316815260200191505060206040518083038186803b158015610dac57600080fd5b505afa158015610dc0573d6000803e3d6000fd5b505050506040513d6020811015610dd657600080fd5b50516040805163a9059cbb60e01b81523360048201526024810184905290516001600160a01b039092169163a9059cbb916044808201926020929091908290030181600087803b158015610e2957600080fd5b505af1158015610e3d573d6000803e3d6000fd5b505050506040513d6020811015610e5357600080fd5b50508851610e7190610c22908a90610991908d9087908110610c0b57fe5b9350610e8430318563ffffffff6112b016565b925050600101610c69565b505b33600081815260046020526040902030319055610ead906112f2565b610eb657600080fd5b50505050505050505050565b610eca610636565b610f1b576040805162461bcd60e51b815260206004820181905260248201527f4f776e61626c653a2063616c6c6572206973206e6f7420746865206f776e6572604482015290519081900360640190fd5b610f2481611382565b50565b3390565b600082820183811015610f85576040805162461bcd60e51b815260206004820152601b60248201527f536166654d6174683a206164646974696f6e206f766572666c6f770000000000604482015290519081900360640190fd5b90505b92915050565b600254604080516303795fb160e11b81526001600160a01b0386811660048301529151600093849316916306f2bf62916024808301926020929190829003018186803b158015610fdd57600080fd5b505afa158015610ff1573d6000803e3d6000fd5b505050506040513d602081101561100757600080fd5b50516040805163095ea7b360e01b81526001600160a01b0380841660048301526024820188905291519293509087169163095ea7b3916044808201926020929091908290030181600087803b15801561105f57600080fd5b505af1158015611073573d6000803e3d6000fd5b505050506040513d602081101561108957600080fd5b5050604080516395b68fe760e01b81526004810186905290516001600160a01b03831691637237e031918791611123916064916109919160639188916395b68fe791602480820192602092909190829003018186803b1580156110eb57600080fd5b505afa1580156110ff573d6000803e3d6000fd5b505050506040513d602081101561111557600080fd5b50519063ffffffff61121516565b61112f4261012c610f2b565b876040518563ffffffff1660e01b815260040180858152602001848152602001838152602001826001600160a01b03166001600160a01b03168152602001945050505050602060405180830381600087803b15801561118d57600080fd5b505af11580156111a1573d6000803e3d6000fd5b505050506040513d60208110156111b757600080fd5b505191508161120d576040805162461bcd60e51b815260206004820152601860248201527f4572726f7220696e207377617070696e67204574683a20310000000000000000604482015290519081900360640190fd5b509392505050565b60008261122457506000610f88565b8282028284828161123157fe5b0414610f855760405162461bcd60e51b81526004018080602001828103825260218152602001806115986021913960400191505060405180910390fd5b6000610f8583836040518060400160405280601a81526020017f536166654d6174683a206469766973696f6e206279207a65726f000000000000815250611422565b6000610f8583836040518060400160405280601e81526020017f536166654d6174683a207375627472616374696f6e206f766572666c6f7700008152506114c4565b6001600160a01b03811660009081526004602052604081205461131457600080fd5b6001600160a01b038216600081815260046020526040808220805490839055905190929083908381818185875af1925050503d8060008114611372576040519150601f19603f3d011682016040523d82523d6000602084013e611377565b606091505b509095945050505050565b6001600160a01b0381166113c75760405162461bcd60e51b815260040180806020018281038252602681526020018061151f6026913960400191505060405180910390fd5b600080546040516001600160a01b03808516939216917f8be0079c531659141344cd1fd0a4f28419497f9722a3daafe3b4186f6b6457e091a3600080546001600160a01b0319166001600160a01b0392909216919091179055565b600081836114ae5760405162461bcd60e51b81526004018080602001828103825283818151815260200191508051906020019080838360005b8381101561147357818101518382015260200161145b565b50505050905090810190601f1680156114a05780820380516001836020036101000a031916815260200191505b509250505060405180910390fd5b5060008385816114ba57fe5b0495945050505050565b600081848411156115165760405162461bcd60e51b815260206004820181815283516024840152835190928392604490910191908501908083836000831561147357818101518382015260200161145b565b50505090039056fe4f776e61626c653a206e6577206f776e657220697320746865207a65726f2061646472657373506c656173652073656e642045544820616c6f6e6720776974682066756e6374696f6e2063616c6c496e636f6d696e6720746f6b656e20616464726573732073686f756c642062652061646472657373283029536166654d6174683a206d756c7469706c69636174696f6e206f766572666c6f7743616e6e6f742073656e6420546f6b656e7320616e6420455448206174207468652073616d652074696d65a265627a7a723158206e3b6c1c9caf6516f313ca20332681509d02b5e1c6383efa571c07e401de481a64736f6c634300050d0032",
  "compiler": {
    "name": "solc",
    "version": "0.5.13+commit.5b0b510c.Emscripten.clang",
    "optimizer": {
      "enabled": true,
      "runs": 500
    },
    "evmVersion": "petersburg"
  }
}