{
  "fileName": "MultiPoolZap.sol",
  "contractName": "MultiPoolZap",
  "source": "// Copyright (C) 2019, 2020 dipeshsukhani, nodar, suhailg\n\n// This program is free software: you can redistribute it and/or modify\n// it under the terms of the GNU Affero General Public License as published by\n// the Free Software Foundation, either version 2 of the License, or\n// (at your option) any later version.\n//\n// This program is distributed in the hope that it will be useful,\n// but WITHOUT ANY WARRANTY; without even the implied warranty of\n// MERCHANTABILITY or FITNESS FOR A PARTICULAR PURPOSE.  See the\n// GNU Affero General Public License for more details.\n//\n// Visit <https://www.gnu.org/licenses/>for a copy of the GNU Affero General Public License\n\nimport \"../../node_modules/@openzeppelin/contracts/ownership/Ownable.sol\";\nimport \"../../node_modules/@openzeppelin/contracts-ethereum-package/contracts/token/ERC20/IERC20.sol\";\n\npragma solidity ^0.5.0;\n\ninterface UniswapFactoryInterface {\n    function getExchange(address token) external view returns (address exchange);\n}\n\ninterface uniswapZap {\n    function getExchangeAddress(address _TokenContractAddress) external view returns (address uniExchangeAddress);\n    function EasyZapIn(IERC20 tokenAddress) external payable  returns (uint LiquidityTokens, uint residualTokens);\n}\n\ncontract MultiPoolZap is Ownable {\n    uniswapZap public uniswapZapAddress;\n    UniswapFactoryInterface public UniswapFactory;\n    \n    constructor(address _uniswapZapAddress, address _UniswapFactory) public {\n        uniswapZapAddress = uniswapZap(_uniswapZapAddress);\n        UniswapFactory = UniswapFactoryInterface(_UniswapFactory);\n    }\n    \n    function set_uniswapZapAddress(address _uniswapZapAddress) onlyOwner public {\n        uniswapZapAddress = uniswapZap (_uniswapZapAddress);\n    }\n    \n    function set_UniswapFactory(address _UniswapFactory) onlyOwner public {\n        UniswapFactory = UniswapFactoryInterface(_UniswapFactory);\n    }\n    \n    function multipleZapIn(IERC20[] memory tokenAddresses, uint256[] memory values) public payable {\n        uint residualETH=0;\n        for (uint i=0;i<tokenAddresses.length;i++) {\n            (uint LPT, uint resiETH)= uniswapZapAddress.EasyZapIn.value((values[i]+residualETH))(tokenAddresses[i]);\n            IERC20(UniswapFactory.getExchange(address(tokenAddresses[i]))).transfer(msg.sender, LPT);\n            residualETH = resiETH;\n        }\n        address(msg.sender).transfer(residualETH);  // reentrancy issue\n    }\n\n    // - fallback function let you / anyone send ETH to this wallet without the need to call any function\n    function() external payable {\n    }\n}",
  "sourcePath": "contracts/Not_upgradable_done/MultiPoolZap.sol",
  "abi": [
    {
      "inputs": [
        {
          "internalType": "address",
          "name": "_uniswapZapAddress",
          "type": "address"
        },
        {
          "internalType": "address",
          "name": "_UniswapFactory",
          "type": "address"
        }
      ],
      "payable": false,
      "stateMutability": "nonpayable",
      "type": "constructor"
    },
    {
      "anonymous": false,
      "inputs": [
        {
          "indexed": true,
          "internalType": "address",
          "name": "previousOwner",
          "type": "address"
        },
        {
          "indexed": true,
          "internalType": "address",
          "name": "newOwner",
          "type": "address"
        }
      ],
      "name": "OwnershipTransferred",
      "type": "event"
    },
    {
      "payable": true,
      "stateMutability": "payable",
      "type": "fallback"
    },
    {
      "constant": true,
      "inputs": [],
      "name": "UniswapFactory",
      "outputs": [
        {
          "internalType": "contract UniswapFactoryInterface",
          "name": "",
          "type": "address"
        }
      ],
      "payable": false,
      "stateMutability": "view",
      "type": "function"
    },
    {
      "constant": true,
      "inputs": [],
      "name": "isOwner",
      "outputs": [
        {
          "internalType": "bool",
          "name": "",
          "type": "bool"
        }
      ],
      "payable": false,
      "stateMutability": "view",
      "type": "function"
    },
    {
      "constant": false,
      "inputs": [
        {
          "internalType": "contract IERC20[]",
          "name": "tokenAddresses",
          "type": "address[]"
        },
        {
          "internalType": "uint256[]",
          "name": "values",
          "type": "uint256[]"
        }
      ],
      "name": "multipleZapIn",
      "outputs": [],
      "payable": true,
      "stateMutability": "payable",
      "type": "function"
    },
    {
      "constant": true,
      "inputs": [],
      "name": "owner",
      "outputs": [
        {
          "internalType": "address",
          "name": "",
          "type": "address"
        }
      ],
      "payable": false,
      "stateMutability": "view",
      "type": "function"
    },
    {
      "constant": false,
      "inputs": [],
      "name": "renounceOwnership",
      "outputs": [],
      "payable": false,
      "stateMutability": "nonpayable",
      "type": "function"
    },
    {
      "constant": false,
      "inputs": [
        {
          "internalType": "address",
          "name": "_UniswapFactory",
          "type": "address"
        }
      ],
      "name": "set_UniswapFactory",
      "outputs": [],
      "payable": false,
      "stateMutability": "nonpayable",
      "type": "function"
    },
    {
      "constant": false,
      "inputs": [
        {
          "internalType": "address",
          "name": "_uniswapZapAddress",
          "type": "address"
        }
      ],
      "name": "set_uniswapZapAddress",
      "outputs": [],
      "payable": false,
      "stateMutability": "nonpayable",
      "type": "function"
    },
    {
      "constant": false,
      "inputs": [
        {
          "internalType": "address",
          "name": "newOwner",
          "type": "address"
        }
      ],
      "name": "transferOwnership",
      "outputs": [],
      "payable": false,
      "stateMutability": "nonpayable",
      "type": "function"
    },
    {
      "constant": true,
      "inputs": [],
      "name": "uniswapZapAddress",
      "outputs": [
        {
          "internalType": "contract uniswapZap",
          "name": "",
          "type": "address"
        }
      ],
      "payable": false,
      "stateMutability": "view",
      "type": "function"
    }
  ],
  "bytecode": "0x608060405234801561001057600080fd5b506040516109423803806109428339818101604052604081101561003357600080fd5b508051602090910151600061004f6001600160e01b036100ca16565b600080546001600160a01b0319166001600160a01b0383169081178255604051929350917f8be0079c531659141344cd1fd0a4f28419497f9722a3daafe3b4186f6b6457e0908290a350600180546001600160a01b039384166001600160a01b031991821617909155600280549290931691161790556100ce565b3390565b610865806100dd6000396000f3fe6080604052600436106100865760003560e01c80638da5cb5b116100595780638da5cb5b146102285780638f2907de1461023d5780638f32d59b14610270578063f2fde38b14610299578063ff8cfac1146102cc57610086565b80634f38d6661461008857806366edc41c146100b9578063715018a6146101e057806377943089146101f5575b005b34801561009457600080fd5b5061009d6102e1565b604080516001600160a01b039092168252519081900360200190f35b610086600480360360408110156100cf57600080fd5b8101906020810181356401000000008111156100ea57600080fd5b8201836020820111156100fc57600080fd5b8035906020019184602083028401116401000000008311171561011e57600080fd5b919080806020026020016040519081016040528093929190818152602001838360200280828437600092019190915250929594936020810193503591505064010000000081111561016e57600080fd5b82018360208201111561018057600080fd5b803590602001918460208302840111640100000000831117156101a257600080fd5b9190808060200260200160405190810160405280939291908181526020018383602002808284376000920191909152509295506102f0945050505050565b3480156101ec57600080fd5b50610086610526565b34801561020157600080fd5b506100866004803603602081101561021857600080fd5b50356001600160a01b03166105c9565b34801561023457600080fd5b5061009d610644565b34801561024957600080fd5b506100866004803603602081101561026057600080fd5b50356001600160a01b0316610653565b34801561027c57600080fd5b506102856106ce565b604080519115158252519081900360200190f35b3480156102a557600080fd5b50610086600480360360208110156102bc57600080fd5b50356001600160a01b03166106f2565b3480156102d857600080fd5b5061009d610757565b6002546001600160a01b031681565b6000805b83518110156104f257600080600160009054906101000a90046001600160a01b03166001600160a01b031663c084e69d8587868151811061033157fe5b60200260200101510188868151811061034657fe5b60200260200101516040518363ffffffff1660e01b815260040180826001600160a01b03166001600160a01b0316815260200191505060408051808303818588803b15801561039457600080fd5b505af11580156103a8573d6000803e3d6000fd5b50505050506040513d60408110156103bf57600080fd5b50805160209091015160025488519294509092506001600160a01b0316906306f2bf62908890869081106103ef57fe5b60200260200101516040518263ffffffff1660e01b815260040180826001600160a01b03166001600160a01b0316815260200191505060206040518083038186803b15801561043d57600080fd5b505afa158015610451573d6000803e3d6000fd5b505050506040513d602081101561046757600080fd5b50516040805163a9059cbb60e01b81523360048201526024810185905290516001600160a01b039092169163a9059cbb916044808201926020929091908290030181600087803b1580156104ba57600080fd5b505af11580156104ce573d6000803e3d6000fd5b505050506040513d60208110156104e457600080fd5b5090935050506001016102f4565b50604051339082156108fc029083906000818181858888f19350505050158015610520573d6000803e3d6000fd5b50505050565b61052e6106ce565b61057f576040805162461bcd60e51b815260206004820181905260248201527f4f776e61626c653a2063616c6c6572206973206e6f7420746865206f776e6572604482015290519081900360640190fd5b600080546040516001600160a01b03909116907f8be0079c531659141344cd1fd0a4f28419497f9722a3daafe3b4186f6b6457e0908390a3600080546001600160a01b0319169055565b6105d16106ce565b610622576040805162461bcd60e51b815260206004820181905260248201527f4f776e61626c653a2063616c6c6572206973206e6f7420746865206f776e6572604482015290519081900360640190fd5b600280546001600160a01b0319166001600160a01b0392909216919091179055565b6000546001600160a01b031690565b61065b6106ce565b6106ac576040805162461bcd60e51b815260206004820181905260248201527f4f776e61626c653a2063616c6c6572206973206e6f7420746865206f776e6572604482015290519081900360640190fd5b600180546001600160a01b0319166001600160a01b0392909216919091179055565b600080546001600160a01b03166106e3610766565b6001600160a01b031614905090565b6106fa6106ce565b61074b576040805162461bcd60e51b815260206004820181905260248201527f4f776e61626c653a2063616c6c6572206973206e6f7420746865206f776e6572604482015290519081900360640190fd5b6107548161076a565b50565b6001546001600160a01b031681565b3390565b6001600160a01b0381166107af5760405162461bcd60e51b815260040180806020018281038252602681526020018061080b6026913960400191505060405180910390fd5b600080546040516001600160a01b03808516939216917f8be0079c531659141344cd1fd0a4f28419497f9722a3daafe3b4186f6b6457e091a3600080546001600160a01b0319166001600160a01b039290921691909117905556fe4f776e61626c653a206e6577206f776e657220697320746865207a65726f2061646472657373a265627a7a7231582006c5fe9521483c0323808d75ed792be268463db4f718b606a37b61006c70625864736f6c634300050d0032",
  "compiler": {
    "name": "solc",
    "version": "0.5.13+commit.5b0b510c.Emscripten.clang",
    "optimizer": {
      "enabled": true,
      "runs": 500
    },
    "evmVersion": "petersburg"
  }
}