{
  "fileName": "MultiPoolZapV1.sol",
  "contractName": "MultiPoolZap",
  "source": "// Copyright (C) 2019, 2020 dipeshsukhani, nodar, suhailg\n\n// This program is free software: you can redistribute it and/or modify\n// it under the terms of the GNU Affero General Public License as published by\n// the Free Software Foundation, either version 2 of the License, or\n// (at your option) any later version.\n//\n// This program is distributed in the hope that it will be useful,\n// but WITHOUT ANY WARRANTY; without even the implied warranty of\n// MERCHANTABILITY or FITNESS FOR A PARTICULAR PURPOSE.  See the\n// GNU Affero General Public License for more details.\n//\n// Visit <https://www.gnu.org/licenses/>for a copy of the GNU Affero General Public License\n\nimport \"../../node_modules/@openzeppelin/contracts/ownership/Ownable.sol\";\nimport \"../../node_modules/@openzeppelin/contracts/math/SafeMath.sol\";\nimport \"../../node_modules/@openzeppelin/contracts-ethereum-package/contracts/token/ERC20/IERC20.sol\";\n\npragma solidity ^0.5.0;\n\ninterface UniswapFactoryInterface {\n    function getExchange(address token) external view returns (address exchange);\n}\n\ninterface uniswapPoolZap {\n    function LetsInvest(address _TokenContractAddress, address _towhomtoissue) external payable returns (uint256);\n}\n\ncontract MultiPoolZap is Ownable {\n    using SafeMath for uint;\n    \n    uniswapPoolZap public uniswapPoolZapAddress;\n    UniswapFactoryInterface public UniswapFactory;\n    mapping(address => uint256) private userBalance;\n    \n    constructor() public {\n        uniswapPoolZapAddress = uniswapPoolZap(0x97402249515994Cc0D22092D3375033Ad0ea438A);\n        UniswapFactory = UniswapFactoryInterface(0xc0a47dFe034B400B47bDaD5FecDa2621de6c4d95);\n    }\n    \n    function set_uniswapPoolZapAddress(address _uniswapPoolZapAddress) onlyOwner public {\n        uniswapPoolZapAddress = uniswapPoolZap(_uniswapPoolZapAddress);\n    }\n\n    function set_UniswapFactory(address _UniswapFactory) onlyOwner public {\n        UniswapFactory = UniswapFactoryInterface(_UniswapFactory);\n    }\n    \n    function multipleZapIn(address[] memory underlyingTokenAddresses, uint256[] memory respectiveValuesinWei) public payable {\n        uint totalLeftToBeInvested;\n        for(uint i=0;i<underlyingTokenAddresses.length;i++) {\n            totalLeftToBeInvested = (totalLeftToBeInvested).add(respectiveValuesinWei[i]);\n        }\n        require(msg.value == totalLeftToBeInvested && underlyingTokenAddresses.length == respectiveValuesinWei.length);\n        uint residualETH;\n        for (uint i=0;i<underlyingTokenAddresses.length;i++) {\n            uint LPT = uniswapPoolZapAddress.LetsInvest.value((respectiveValuesinWei[i]+residualETH))(underlyingTokenAddresses[i], address(this));\n            IERC20(UniswapFactory.getExchange(address(underlyingTokenAddresses[i]))).transfer(msg.sender, LPT);\n            totalLeftToBeInvested = (totalLeftToBeInvested).sub(respectiveValuesinWei[i]);\n            residualETH = (address(this).balance).sub(totalLeftToBeInvested);\n        }\n\n        userBalance[msg.sender] = address(this).balance;\n        require (send_out_eth(msg.sender));\n    }\n\n    function send_out_eth(address _towhomtosendtheETH) internal returns (bool) {\n        require(userBalance[_towhomtosendtheETH] > 0);\n        uint256 amount = userBalance[_towhomtosendtheETH];\n        userBalance[_towhomtosendtheETH] = 0;\n        (bool success, ) = _towhomtosendtheETH.call.value(amount)(\"\");\n        return success;\n    }\n\n    // - fallback function let you / anyone send ETH to this wallet without the need to call any function\n    function() external payable {\n    }\n}",
  "sourcePath": "contracts/Not_upgradable_done/MultiPoolZapV1.sol",
  "abi": [
    {
      "inputs": [],
      "payable": false,
      "stateMutability": "nonpayable",
      "type": "constructor"
    },
    {
      "anonymous": false,
      "inputs": [
        {
          "indexed": true,
          "internalType": "address",
          "name": "previousOwner",
          "type": "address"
        },
        {
          "indexed": true,
          "internalType": "address",
          "name": "newOwner",
          "type": "address"
        }
      ],
      "name": "OwnershipTransferred",
      "type": "event"
    },
    {
      "payable": true,
      "stateMutability": "payable",
      "type": "fallback"
    },
    {
      "constant": true,
      "inputs": [],
      "name": "UniswapFactory",
      "outputs": [
        {
          "internalType": "contract UniswapFactoryInterface",
          "name": "",
          "type": "address"
        }
      ],
      "payable": false,
      "stateMutability": "view",
      "type": "function"
    },
    {
      "constant": true,
      "inputs": [],
      "name": "isOwner",
      "outputs": [
        {
          "internalType": "bool",
          "name": "",
          "type": "bool"
        }
      ],
      "payable": false,
      "stateMutability": "view",
      "type": "function"
    },
    {
      "constant": false,
      "inputs": [
        {
          "internalType": "address[]",
          "name": "underlyingTokenAddresses",
          "type": "address[]"
        },
        {
          "internalType": "uint256[]",
          "name": "respectiveValuesinWei",
          "type": "uint256[]"
        }
      ],
      "name": "multipleZapIn",
      "outputs": [],
      "payable": true,
      "stateMutability": "payable",
      "type": "function"
    },
    {
      "constant": true,
      "inputs": [],
      "name": "owner",
      "outputs": [
        {
          "internalType": "address",
          "name": "",
          "type": "address"
        }
      ],
      "payable": false,
      "stateMutability": "view",
      "type": "function"
    },
    {
      "constant": false,
      "inputs": [],
      "name": "renounceOwnership",
      "outputs": [],
      "payable": false,
      "stateMutability": "nonpayable",
      "type": "function"
    },
    {
      "constant": false,
      "inputs": [
        {
          "internalType": "address",
          "name": "_UniswapFactory",
          "type": "address"
        }
      ],
      "name": "set_UniswapFactory",
      "outputs": [],
      "payable": false,
      "stateMutability": "nonpayable",
      "type": "function"
    },
    {
      "constant": false,
      "inputs": [
        {
          "internalType": "address",
          "name": "_uniswapPoolZapAddress",
          "type": "address"
        }
      ],
      "name": "set_uniswapPoolZapAddress",
      "outputs": [],
      "payable": false,
      "stateMutability": "nonpayable",
      "type": "function"
    },
    {
      "constant": false,
      "inputs": [
        {
          "internalType": "address",
          "name": "newOwner",
          "type": "address"
        }
      ],
      "name": "transferOwnership",
      "outputs": [],
      "payable": false,
      "stateMutability": "nonpayable",
      "type": "function"
    },
    {
      "constant": true,
      "inputs": [],
      "name": "uniswapPoolZapAddress",
      "outputs": [
        {
          "internalType": "contract uniswapPoolZap",
          "name": "",
          "type": "address"
        }
      ],
      "payable": false,
      "stateMutability": "view",
      "type": "function"
    }
  ],
  "bytecode": "0x608060405234801561001057600080fd5b5060006100246001600160e01b036100bb16565b600080546001600160a01b0319166001600160a01b0383169081178255604051929350917f8be0079c531659141344cd1fd0a4f28419497f9722a3daafe3b4186f6b6457e0908290a350600180546001600160a01b03199081167397402249515994cc0d22092d3375033ad0ea438a179091556002805490911673c0a47dfe034b400b47bdad5fecda2621de6c4d951790556100bf565b3390565b610abf806100ce6000396000f3fe6080604052600436106100865760003560e01c8063779430891161005957806377943089146102285780637e7217061461025b5780638da5cb5b146102705780638f32d59b14610285578063f2fde38b146102ae57610086565b80634f38d6661461008857806366edc41c146100b9578063704e4711146101e0578063715018a614610213575b005b34801561009457600080fd5b5061009d6102e1565b604080516001600160a01b039092168252519081900360200190f35b610086600480360360408110156100cf57600080fd5b8101906020810181356401000000008111156100ea57600080fd5b8201836020820111156100fc57600080fd5b8035906020019184602083028401116401000000008311171561011e57600080fd5b919080806020026020016040519081016040528093929190818152602001838360200280828437600092019190915250929594936020810193503591505064010000000081111561016e57600080fd5b82018360208201111561018057600080fd5b803590602001918460208302840111640100000000831117156101a257600080fd5b9190808060200260200160405190810160405280939291908181526020018383602002808284376000920191909152509295506102f0945050505050565b3480156101ec57600080fd5b506100866004803603602081101561020357600080fd5b50356001600160a01b03166105b6565b34801561021f57600080fd5b50610086610631565b34801561023457600080fd5b506100866004803603602081101561024b57600080fd5b50356001600160a01b03166106d4565b34801561026757600080fd5b5061009d61074f565b34801561027c57600080fd5b5061009d61075e565b34801561029157600080fd5b5061029a61076d565b604080519115158252519081900360200190f35b3480156102ba57600080fd5b50610086600480360360208110156102d157600080fd5b50356001600160a01b0316610791565b6002546001600160a01b031681565b6000805b835181101561032d5761032383828151811061030c57fe5b6020026020010151836107f690919063ffffffff16565b91506001016102f4565b50803414801561033e575081518351145b61034757600080fd5b6000805b845181101561058a5760015484516000916001600160a01b031690633a2a66cf90859088908690811061037a57fe5b60200260200101510188858151811061038f57fe5b602090810291909101810151604080517fffffffff0000000000000000000000000000000000000000000000000000000060e087901b1681526001600160a01b039092166004830152306024830152516044808301939282900301818588803b1580156103fb57600080fd5b505af115801561040f573d6000803e3d6000fd5b50505050506040513d602081101561042657600080fd5b505160025487519192506001600160a01b0316906306f2bf629088908590811061044c57fe5b60200260200101516040518263ffffffff1660e01b815260040180826001600160a01b03166001600160a01b0316815260200191505060206040518083038186803b15801561049a57600080fd5b505afa1580156104ae573d6000803e3d6000fd5b505050506040513d60208110156104c457600080fd5b50516040805163a9059cbb60e01b81523360048201526024810184905290516001600160a01b039092169163a9059cbb916044808201926020929091908290030181600087803b15801561051757600080fd5b505af115801561052b573d6000803e3d6000fd5b505050506040513d602081101561054157600080fd5b5050845161056c9086908490811061055557fe5b60200260200101518561085790919063ffffffff16565b935061057f30318563ffffffff61085716565b92505060010161034b565b50336000818152600360205260409020303190556105a790610899565b6105b057600080fd5b50505050565b6105be61076d565b61060f576040805162461bcd60e51b815260206004820181905260248201527f4f776e61626c653a2063616c6c6572206973206e6f7420746865206f776e6572604482015290519081900360640190fd5b600180546001600160a01b0319166001600160a01b0392909216919091179055565b61063961076d565b61068a576040805162461bcd60e51b815260206004820181905260248201527f4f776e61626c653a2063616c6c6572206973206e6f7420746865206f776e6572604482015290519081900360640190fd5b600080546040516001600160a01b03909116907f8be0079c531659141344cd1fd0a4f28419497f9722a3daafe3b4186f6b6457e0908390a3600080546001600160a01b0319169055565b6106dc61076d565b61072d576040805162461bcd60e51b815260206004820181905260248201527f4f776e61626c653a2063616c6c6572206973206e6f7420746865206f776e6572604482015290519081900360640190fd5b600280546001600160a01b0319166001600160a01b0392909216919091179055565b6001546001600160a01b031681565b6000546001600160a01b031690565b600080546001600160a01b0316610782610929565b6001600160a01b031614905090565b61079961076d565b6107ea576040805162461bcd60e51b815260206004820181905260248201527f4f776e61626c653a2063616c6c6572206973206e6f7420746865206f776e6572604482015290519081900360640190fd5b6107f38161092d565b50565b600082820183811015610850576040805162461bcd60e51b815260206004820152601b60248201527f536166654d6174683a206164646974696f6e206f766572666c6f770000000000604482015290519081900360640190fd5b9392505050565b600061085083836040518060400160405280601e81526020017f536166654d6174683a207375627472616374696f6e206f766572666c6f7700008152506109cd565b6001600160a01b0381166000908152600360205260408120546108bb57600080fd5b6001600160a01b038216600081815260036020526040808220805490839055905190929083908381818185875af1925050503d8060008114610919576040519150601f19603f3d011682016040523d82523d6000602084013e61091e565b606091505b509095945050505050565b3390565b6001600160a01b0381166109725760405162461bcd60e51b8152600401808060200182810382526026815260200180610a656026913960400191505060405180910390fd5b600080546040516001600160a01b03808516939216917f8be0079c531659141344cd1fd0a4f28419497f9722a3daafe3b4186f6b6457e091a3600080546001600160a01b0319166001600160a01b0392909216919091179055565b60008184841115610a5c5760405162461bcd60e51b81526004018080602001828103825283818151815260200191508051906020019080838360005b83811015610a21578181015183820152602001610a09565b50505050905090810190601f168015610a4e5780820380516001836020036101000a031916815260200191505b509250505060405180910390fd5b50505090039056fe4f776e61626c653a206e6577206f776e657220697320746865207a65726f2061646472657373a265627a7a723158209b446f54eb6084f0b02cd232a434c2c1be8983f7b596a53b73f39e33a3c7270b64736f6c634300050d0032",
  "compiler": {
    "name": "solc",
    "version": "0.5.13+commit.5b0b510c.Emscripten.clang",
    "optimizer": {
      "enabled": true,
      "runs": 500
    },
    "evmVersion": "petersburg"
  }
}