{
  "fileName": "MultiPoolZapV1_5_withCurve.sol",
  "contractName": "MultiPoolZapV1_5",
  "source": "// Copyright (C) 2019, 2020 dipeshsukhani, nodar, suhailg, apoorvlathey, seb, sumit\n\n// This program is free software: you can redistribute it and/or modify\n// it under the terms of the GNU Affero General Public License as published by\n// the Free Software Foundation, either version 2 of the License, or\n// (at your option) any later version.\n//\n// This program is distributed in the hope that it will be useful,\n// but WITHOUT ANY WARRANTY; without even the implied warranty of\n// MERCHANTABILITY or FITNESS FOR A PARTICULAR PURPOSE.  See the\n// GNU Affero General Public License for more details.\n//\n// Visit <https://www.gnu.org/licenses/>for a copy of the GNU Affero General Public License\n\nimport \"../../node_modules/@openzeppelin/contracts/ownership/Ownable.sol\";\nimport \"../../node_modules/@openzeppelin/contracts/math/SafeMath.sol\";\nimport \"../../node_modules/@openzeppelin/contracts-ethereum-package/contracts/token/ERC20/IERC20.sol\";\n\npragma solidity ^0.5.0;\n\n\ninterface UniswapFactoryInterface {\n    function getExchange(address token)\n        external\n        view\n        returns (address exchange);\n}\n\n\ninterface UniswapExchangeInterface {\n    function tokenToEthTransferInput(\n        uint256 tokens_sold,\n        uint256 min_eth,\n        uint256 deadline,\n        address recipient\n    ) external returns (uint256 eth_bought);\n\n    function getTokenToEthInputPrice(uint256 tokens_sold)\n        external\n        view\n        returns (uint256 eth_bought);\n}\n\n\ninterface uniswapPoolZap {\n    function LetsInvest(address _TokenContractAddress, address _towhomtoissue)\n        external\n        payable\n        returns (uint256);\n}\n\n\ninterface ICurvePoolZapIn {\n    function ZapIn(\n        address _toWhomToIssue,\n        address _IncomingTokenAddress,\n        address _curvePoolExchangeAddress,\n        uint256 _IncomingTokenQty\n    ) external payable returns (uint256 crvTokensBought);\n}\n\n\n/**\n    @title Multiple Pool Zap\n    @author Zapper\n    @notice Use this contract to Add liquidity to Multiple Pools at once using ETH or ERC20\n*/\ncontract MultiPoolZapV1_5 is Ownable {\n    using SafeMath for uint256;\n\n    uniswapPoolZap public uniswapPoolZapAddress;\n    UniswapFactoryInterface public UniswapFactory;\n    ICurvePoolZapIn public CurvePoolZapIn;\n\n    uint16 public goodwill;\n    address payable public dzgoodwillAddress;\n    mapping(address => uint256) private userBalance;\n\n    constructor(\n        uint16 _goodwill,\n        address payable _dzgoodwillAddress,\n        address _curvePoolZapInAddress\n    ) public {\n        goodwill = _goodwill;\n        dzgoodwillAddress = _dzgoodwillAddress;\n        uniswapPoolZapAddress = uniswapPoolZap(\n            0x97402249515994Cc0D22092D3375033Ad0ea438A\n        );\n        UniswapFactory = UniswapFactoryInterface(\n            0xc0a47dFe034B400B47bDaD5FecDa2621de6c4d95\n        );\n        CurvePoolZapIn = ICurvePoolZapIn(_curvePoolZapInAddress);\n    }\n\n    function set_new_goodwill(uint16 _new_goodwill) public onlyOwner {\n        require(\n            _new_goodwill >= 0 && _new_goodwill < 10000,\n            \"GoodWill Value not allowed\"\n        );\n        goodwill = _new_goodwill;\n    }\n\n    function set_new_dzgoodwillAddress(address payable _new_dzgoodwillAddress)\n        public\n        onlyOwner\n    {\n        dzgoodwillAddress = _new_dzgoodwillAddress;\n    }\n\n    function set_uniswapPoolZapAddress(address _uniswapPoolZapAddress)\n        public\n        onlyOwner\n    {\n        uniswapPoolZapAddress = uniswapPoolZap(_uniswapPoolZapAddress);\n    }\n\n    function set_UniswapFactory(address _UniswapFactory) public onlyOwner {\n        UniswapFactory = UniswapFactoryInterface(_UniswapFactory);\n    }\n\n    function set_curvePoolZapInAddress(address _curvePoolZapIn)\n        public\n        onlyOwner\n    {\n        CurvePoolZapIn = ICurvePoolZapIn(_curvePoolZapIn);\n    }\n\n    /**\n        @notice Add liquidity to Multiple Uniswap Pools at once using ETH or ERC20\n        @param _IncomingTokenContractAddress The token address for ERC20 being deposited. Input address(0) in case of ETH deposit.\n        @param _IncomingTokenQty Quantity of ERC20 being deposited. 0 in case of ETH deposit.\n        @param underlyingTokenAddresses Array of Token Addresses to which's Uniswap Pool to add liquidity to.\n        @param _curvePoolAddresses Array of CurvePool Exchange Addresses to Zap\n        @param respectiveWeightedValues Array of Relative Ratios (corresponding to underlyingTokenAddresses) to proportionally distribute received ETH or ERC20 into various pools.\n    */\n    function multipleZapIn(\n        address _IncomingTokenContractAddress,\n        uint256 _IncomingTokenQty,\n        address[] memory underlyingTokenAddresses,\n        address[] memory _curvePoolAddresses,\n        uint16[] memory respectiveWeightedValues\n    ) public payable {\n        uint256 totalWeights;\n        require(\n            underlyingTokenAddresses.length + _curvePoolAddresses.length ==\n                respectiveWeightedValues.length,\n            \"Input array lengths incorrect\"\n        );\n        for (uint256 i = 0; i < respectiveWeightedValues.length; i++) {\n            totalWeights = (totalWeights).add(respectiveWeightedValues[i]);\n        }\n\n        uint256 eth2Trade;\n\n        if (msg.value > 0) {\n            require(\n                _IncomingTokenContractAddress == address(0),\n                \"Incoming token address should be address(0)\"\n            );\n            eth2Trade = msg.value;\n        } else if (\n            _IncomingTokenContractAddress == address(0) && msg.value == 0\n        ) {\n            revert(\"Please send ETH along with function call\");\n        } else if (_IncomingTokenContractAddress != address(0)) {\n            require(\n                msg.value == 0,\n                \"Cannot send Tokens and ETH at the same time\"\n            );\n            require(\n                IERC20(_IncomingTokenContractAddress).transferFrom(\n                    msg.sender,\n                    address(this),\n                    _IncomingTokenQty\n                ),\n                \"Error in transferring ERC20\"\n            );\n            eth2Trade = _token2Eth(\n                _IncomingTokenContractAddress,\n                _IncomingTokenQty\n            );\n        }\n\n        uint256 goodwillPortion = ((eth2Trade).mul(goodwill)).div(10000);\n        uint256 totalInvestable = (eth2Trade).sub(goodwillPortion);\n        uint256 totalLeftToBeInvested = totalInvestable;\n\n        require(address(dzgoodwillAddress).send(goodwillPortion));\n\n        uint256 residualETH;\n        // ZapIn Uniswap Pools\n        for (uint256 i = 0; i < underlyingTokenAddresses.length; i++) {\n            uint256 LPT = uniswapPoolZapAddress.LetsInvest.value(\n                (((totalInvestable).mul(respectiveWeightedValues[i])).div(\n                    totalWeights\n                ) + residualETH)\n            )(underlyingTokenAddresses[i], address(this));\n            IERC20(\n                UniswapFactory.getExchange(address(underlyingTokenAddresses[i]))\n            )\n                .transfer(msg.sender, LPT);\n            totalLeftToBeInvested = (totalLeftToBeInvested).sub(\n                ((totalInvestable).mul(respectiveWeightedValues[i])).div(\n                    totalWeights\n                )\n            );\n            residualETH = (address(this).balance).sub(totalLeftToBeInvested);\n        }\n\n        //ZapIn to Curve Pools\n        uint256 uniswapPoolsCount = underlyingTokenAddresses.length;\n        for (uint256 i = 0; i < _curvePoolAddresses.length; i++) {\n            CurvePoolZapIn.ZapIn.value(\n                ((\n                    (totalInvestable).mul(\n                        respectiveWeightedValues[i + uniswapPoolsCount]\n                    )\n                )\n                    .div(totalWeights) + residualETH)\n            )(msg.sender, address(0), _curvePoolAddresses[i], 0);\n            residualETH = 0;\n        }\n        \n        if(address(this).balance > 0) {\n            userBalance[msg.sender] = address(this).balance;\n            require (send_out_eth(msg.sender));\n        }\n    }\n\n    /**\n        @notice This function swaps ERC20 to ETH via Uniswap\n        @param _FromTokenContractAddress Address of Token to swap\n        @param tokens2Trade The quantity of tokens to swaps\n        @return The amount of ETH Received.\n    */\n    function _token2Eth(address _FromTokenContractAddress, uint256 tokens2Trade)\n        internal\n        returns (uint256 ethBought)\n    {\n\n        UniswapExchangeInterface FromUniSwapExchangeContractAddress\n        = UniswapExchangeInterface(\n        UniswapFactory.getExchange(_FromTokenContractAddress)\n        );\n\n        IERC20(_FromTokenContractAddress).approve(\n            address(FromUniSwapExchangeContractAddress),\n            tokens2Trade\n        );\n\n        ethBought = FromUniSwapExchangeContractAddress.tokenToEthTransferInput(\n            tokens2Trade,\n            (\n                (\n                    FromUniSwapExchangeContractAddress.getTokenToEthInputPrice(\n                        tokens2Trade\n                    )\n                )\n                    .mul(99)\n                    .div(100)\n            ),\n            SafeMath.add(block.timestamp, 300),\n            address(this)\n        );\n        require(ethBought > 0, \"Error in swapping Eth: 1\");\n    }\n    \n    /**\n        @notice This function sends the user's remaining ETH back to them.\n        @param _towhomtosendtheETH The Address of the user\n        @return Boolean corresponding to successful execution.\n    */\n    function send_out_eth(address _towhomtosendtheETH) internal returns (bool) {\n        require(userBalance[_towhomtosendtheETH] > 0);\n        uint256 amount = userBalance[_towhomtosendtheETH];\n        userBalance[_towhomtosendtheETH] = 0;\n        (bool success, ) = _towhomtosendtheETH.call.value(amount)(\"\");\n        return success;\n    }\n\n    // - fallback function let you / anyone send ETH to this wallet without the need to call any function\n    function() external payable {}\n}\n",
  "sourcePath": "contracts/Not_upgradable_done/MultiPoolZapV1_5_withCurve.sol",
  "abi": [
    {
      "inputs": [
        {
          "internalType": "uint16",
          "name": "_goodwill",
          "type": "uint16"
        },
        {
          "internalType": "address payable",
          "name": "_dzgoodwillAddress",
          "type": "address"
        },
        {
          "internalType": "address",
          "name": "_curvePoolZapInAddress",
          "type": "address"
        }
      ],
      "payable": false,
      "stateMutability": "nonpayable",
      "type": "constructor"
    },
    {
      "anonymous": false,
      "inputs": [
        {
          "indexed": true,
          "internalType": "address",
          "name": "previousOwner",
          "type": "address"
        },
        {
          "indexed": true,
          "internalType": "address",
          "name": "newOwner",
          "type": "address"
        }
      ],
      "name": "OwnershipTransferred",
      "type": "event"
    },
    {
      "payable": true,
      "stateMutability": "payable",
      "type": "fallback"
    },
    {
      "constant": true,
      "inputs": [],
      "name": "CurvePoolZapIn",
      "outputs": [
        {
          "internalType": "contract ICurvePoolZapIn",
          "name": "",
          "type": "address"
        }
      ],
      "payable": false,
      "stateMutability": "view",
      "type": "function"
    },
    {
      "constant": true,
      "inputs": [],
      "name": "UniswapFactory",
      "outputs": [
        {
          "internalType": "contract UniswapFactoryInterface",
          "name": "",
          "type": "address"
        }
      ],
      "payable": false,
      "stateMutability": "view",
      "type": "function"
    },
    {
      "constant": true,
      "inputs": [],
      "name": "dzgoodwillAddress",
      "outputs": [
        {
          "internalType": "address payable",
          "name": "",
          "type": "address"
        }
      ],
      "payable": false,
      "stateMutability": "view",
      "type": "function"
    },
    {
      "constant": true,
      "inputs": [],
      "name": "goodwill",
      "outputs": [
        {
          "internalType": "uint16",
          "name": "",
          "type": "uint16"
        }
      ],
      "payable": false,
      "stateMutability": "view",
      "type": "function"
    },
    {
      "constant": true,
      "inputs": [],
      "name": "isOwner",
      "outputs": [
        {
          "internalType": "bool",
          "name": "",
          "type": "bool"
        }
      ],
      "payable": false,
      "stateMutability": "view",
      "type": "function"
    },
    {
      "constant": false,
      "inputs": [
        {
          "internalType": "address",
          "name": "_IncomingTokenContractAddress",
          "type": "address"
        },
        {
          "internalType": "uint256",
          "name": "_IncomingTokenQty",
          "type": "uint256"
        },
        {
          "internalType": "address[]",
          "name": "underlyingTokenAddresses",
          "type": "address[]"
        },
        {
          "internalType": "address[]",
          "name": "_curvePoolAddresses",
          "type": "address[]"
        },
        {
          "internalType": "uint16[]",
          "name": "respectiveWeightedValues",
          "type": "uint16[]"
        }
      ],
      "name": "multipleZapIn",
      "outputs": [],
      "payable": true,
      "stateMutability": "payable",
      "type": "function"
    },
    {
      "constant": true,
      "inputs": [],
      "name": "owner",
      "outputs": [
        {
          "internalType": "address",
          "name": "",
          "type": "address"
        }
      ],
      "payable": false,
      "stateMutability": "view",
      "type": "function"
    },
    {
      "constant": false,
      "inputs": [],
      "name": "renounceOwnership",
      "outputs": [],
      "payable": false,
      "stateMutability": "nonpayable",
      "type": "function"
    },
    {
      "constant": false,
      "inputs": [
        {
          "internalType": "address",
          "name": "_UniswapFactory",
          "type": "address"
        }
      ],
      "name": "set_UniswapFactory",
      "outputs": [],
      "payable": false,
      "stateMutability": "nonpayable",
      "type": "function"
    },
    {
      "constant": false,
      "inputs": [
        {
          "internalType": "address",
          "name": "_curvePoolZapIn",
          "type": "address"
        }
      ],
      "name": "set_curvePoolZapInAddress",
      "outputs": [],
      "payable": false,
      "stateMutability": "nonpayable",
      "type": "function"
    },
    {
      "constant": false,
      "inputs": [
        {
          "internalType": "address payable",
          "name": "_new_dzgoodwillAddress",
          "type": "address"
        }
      ],
      "name": "set_new_dzgoodwillAddress",
      "outputs": [],
      "payable": false,
      "stateMutability": "nonpayable",
      "type": "function"
    },
    {
      "constant": false,
      "inputs": [
        {
          "internalType": "uint16",
          "name": "_new_goodwill",
          "type": "uint16"
        }
      ],
      "name": "set_new_goodwill",
      "outputs": [],
      "payable": false,
      "stateMutability": "nonpayable",
      "type": "function"
    },
    {
      "constant": false,
      "inputs": [
        {
          "internalType": "address",
          "name": "_uniswapPoolZapAddress",
          "type": "address"
        }
      ],
      "name": "set_uniswapPoolZapAddress",
      "outputs": [],
      "payable": false,
      "stateMutability": "nonpayable",
      "type": "function"
    },
    {
      "constant": false,
      "inputs": [
        {
          "internalType": "address",
          "name": "newOwner",
          "type": "address"
        }
      ],
      "name": "transferOwnership",
      "outputs": [],
      "payable": false,
      "stateMutability": "nonpayable",
      "type": "function"
    },
    {
      "constant": true,
      "inputs": [],
      "name": "uniswapPoolZapAddress",
      "outputs": [
        {
          "internalType": "contract uniswapPoolZap",
          "name": "",
          "type": "address"
        }
      ],
      "payable": false,
      "stateMutability": "view",
      "type": "function"
    }
  ],
  "bytecode": "0x608060405234801561001057600080fd5b5060405161176a38038061176a8339818101604052606081101561003357600080fd5b508051602082015160409092015190919060006100576001600160e01b0361013b16565b600080546001600160a01b0319166001600160a01b0383169081178255604051929350917f8be0079c531659141344cd1fd0a4f28419497f9722a3daafe3b4186f6b6457e0908290a35060038054600480546001600160a01b039586166001600160a01b0319918216179091556001805482167397402249515994cc0d22092d3375033ad0ea438a17905560028054821673c0a47dfe034b400b47bdad5fecda2621de6c4d951790559290931661ffff909416740100000000000000000000000000000000000000000261ffff60a01b19909316929092171691909117905561013f565b3390565b61161c8061014e6000396000f3fe6080604052600436106100e85760003560e01c80637e7217061161008a578063b10e1dbc11610059578063b10e1dbc1461043b578063c3a8fcb014610469578063c3d377de1461047e578063f2fde38b14610493576100e8565b80637e721706146103b5578063849e25f4146103ca5780638da5cb5b146103fd5780638f32d59b14610412576100e8565b8063704e4711116100c6578063704e471114610307578063715018a61461033a578063779430891461034f5780637975282814610382576100e8565b80630c49baef146100ea5780634f38d666146102aa5780635de0398e146102db575b005b6100e8600480360360a081101561010057600080fd5b6001600160a01b038235169160208101359181019060608101604082013564010000000081111561013057600080fd5b82018360208201111561014257600080fd5b8035906020019184602083028401116401000000008311171561016457600080fd5b91908080602002602001604051908101604052809392919081815260200183836020028082843760009201919091525092959493602081019350359150506401000000008111156101b457600080fd5b8201836020820111156101c657600080fd5b803590602001918460208302840111640100000000831117156101e857600080fd5b919080806020026020016040519081016040528093929190818152602001838360200280828437600092019190915250929594936020810193503591505064010000000081111561023857600080fd5b82018360208201111561024a57600080fd5b8035906020019184602083028401116401000000008311171561026c57600080fd5b9190808060200260200160405190810160405280939291908181526020018383602002808284376000920191909152509295506104c6945050505050565b3480156102b657600080fd5b506102bf610b4d565b604080516001600160a01b039092168252519081900360200190f35b3480156102e757600080fd5b506102f0610b5c565b6040805161ffff9092168252519081900360200190f35b34801561031357600080fd5b506100e86004803603602081101561032a57600080fd5b50356001600160a01b0316610b6d565b34801561034657600080fd5b506100e8610bd6565b34801561035b57600080fd5b506100e86004803603602081101561037257600080fd5b50356001600160a01b0316610c67565b34801561038e57600080fd5b506100e8600480360360208110156103a557600080fd5b50356001600160a01b0316610cd0565b3480156103c157600080fd5b506102bf610d39565b3480156103d657600080fd5b506100e8600480360360208110156103ed57600080fd5b50356001600160a01b0316610d48565b34801561040957600080fd5b506102bf610db1565b34801561041e57600080fd5b50610427610dc0565b604080519115158252519081900360200190f35b34801561044757600080fd5b506100e86004803603602081101561045e57600080fd5b503561ffff16610de4565b34801561047557600080fd5b506102bf610ea7565b34801561048a57600080fd5b506102bf610eb6565b34801561049f57600080fd5b506100e8600480360360208110156104b657600080fd5b50356001600160a01b0316610ec5565b60008151835185510114610521576040805162461bcd60e51b815260206004820152601d60248201527f496e707574206172726179206c656e6774687320696e636f7272656374000000604482015290519081900360640190fd5b60005b82518110156105615761055783828151811061053c57fe5b602002602001015161ffff1683610f1890919063ffffffff16565b9150600101610524565b50600034156105b7576001600160a01b038716156105b05760405162461bcd60e51b815260040180806020018281038252602b815260200180611551602b913960400191505060405180910390fd5b5034610733565b6001600160a01b0387161580156105cc575034155b156106085760405162461bcd60e51b81526004018080602001828103825260288152602001806115296028913960400191505060405180910390fd5b6001600160a01b038716156107335734156106545760405162461bcd60e51b815260040180806020018281038252602b8152602001806115bd602b913960400191505060405180910390fd5b604080516323b872dd60e01b81523360048201523060248201526044810188905290516001600160a01b038916916323b872dd9160648083019260209291908290030181600087803b1580156106a957600080fd5b505af11580156106bd573d6000803e3d6000fd5b505050506040513d60208110156106d357600080fd5b5051610726576040805162461bcd60e51b815260206004820152601b60248201527f4572726f7220696e207472616e7366657272696e672045524332300000000000604482015290519081900360640190fd5b6107308787610f7b565b90505b6003546000906107639061271090610757908590600160a01b900461ffff166111f5565b9063ffffffff61124e16565b90506000610777838363ffffffff61129016565b60045460405191925082916001600160a01b039091169084156108fc029085906000818181858888f193505050506107ae57600080fd5b6000805b8951811015610a1b576000600160009054906101000a90046001600160a01b03166001600160a01b0316633a2a66cf846108108b6107578e88815181106107f557fe5b602002602001015161ffff168b6111f590919063ffffffff16565b018d858151811061081d57fe5b602090810291909101810151604080516001600160e01b031960e087901b1681526001600160a01b039092166004830152306024830152516044808301939282900301818588803b15801561087157600080fd5b505af1158015610885573d6000803e3d6000fd5b50505050506040513d602081101561089c57600080fd5b50516002548c519192506001600160a01b0316906306f2bf62908d90859081106108c257fe5b60200260200101516040518263ffffffff1660e01b815260040180826001600160a01b03166001600160a01b0316815260200191505060206040518083038186803b15801561091057600080fd5b505afa158015610924573d6000803e3d6000fd5b505050506040513d602081101561093a57600080fd5b50516040805163a9059cbb60e01b81523360048201526024810184905290516001600160a01b039092169163a9059cbb916044808201926020929091908290030181600087803b15801561098d57600080fd5b505af11580156109a1573d6000803e3d6000fd5b505050506040513d60208110156109b757600080fd5b505088516109fd906109f0908a90610757908d90879081106109d557fe5b602002602001015161ffff16896111f590919063ffffffff16565b859063ffffffff61129016565b9350610a1030318563ffffffff61129016565b9250506001016107b2565b50885160005b8951811015610b1257600360009054906101000a90046001600160a01b03166001600160a01b031663fb4595ef84610a648b6107578e888801815181106107f557fe5b013360008e8681518110610a7457fe5b602090810291909101810151604080516001600160e01b031960e089901b1681526001600160a01b0395861660048201529385166024850152931660448301526000606483015291516084808301939282900301818588803b158015610ad957600080fd5b505af1158015610aed573d6000803e3d6000fd5b50505050506040513d6020811015610b0457600080fd5b506000935050600101610a21565b50303115610b3f5733600081815260056020526040902030319055610b36906112d2565b610b3f57600080fd5b505050505050505050505050565b6002546001600160a01b031681565b600354600160a01b900461ffff1681565b610b75610dc0565b610bb4576040805162461bcd60e51b8152602060048201819052602482015260008051602061159d833981519152604482015290519081900360640190fd5b600180546001600160a01b0319166001600160a01b0392909216919091179055565b610bde610dc0565b610c1d576040805162461bcd60e51b8152602060048201819052602482015260008051602061159d833981519152604482015290519081900360640190fd5b600080546040516001600160a01b03909116907f8be0079c531659141344cd1fd0a4f28419497f9722a3daafe3b4186f6b6457e0908390a3600080546001600160a01b0319169055565b610c6f610dc0565b610cae576040805162461bcd60e51b8152602060048201819052602482015260008051602061159d833981519152604482015290519081900360640190fd5b600280546001600160a01b0319166001600160a01b0392909216919091179055565b610cd8610dc0565b610d17576040805162461bcd60e51b8152602060048201819052602482015260008051602061159d833981519152604482015290519081900360640190fd5b600380546001600160a01b0319166001600160a01b0392909216919091179055565b6001546001600160a01b031681565b610d50610dc0565b610d8f576040805162461bcd60e51b8152602060048201819052602482015260008051602061159d833981519152604482015290519081900360640190fd5b600480546001600160a01b0319166001600160a01b0392909216919091179055565b6000546001600160a01b031690565b600080546001600160a01b0316610dd5611362565b6001600160a01b031614905090565b610dec610dc0565b610e2b576040805162461bcd60e51b8152602060048201819052602482015260008051602061159d833981519152604482015290519081900360640190fd5b6127108161ffff1610610e85576040805162461bcd60e51b815260206004820152601a60248201527f476f6f6457696c6c2056616c7565206e6f7420616c6c6f776564000000000000604482015290519081900360640190fd5b6003805461ffff909216600160a01b0261ffff60a01b19909216919091179055565b6004546001600160a01b031681565b6003546001600160a01b031681565b610ecd610dc0565b610f0c576040805162461bcd60e51b8152602060048201819052602482015260008051602061159d833981519152604482015290519081900360640190fd5b610f1581611366565b50565b600082820183811015610f72576040805162461bcd60e51b815260206004820152601b60248201527f536166654d6174683a206164646974696f6e206f766572666c6f770000000000604482015290519081900360640190fd5b90505b92915050565b600254604080516303795fb160e11b81526001600160a01b0385811660048301529151600093849316916306f2bf62916024808301926020929190829003018186803b158015610fca57600080fd5b505afa158015610fde573d6000803e3d6000fd5b505050506040513d6020811015610ff457600080fd5b50516040805163095ea7b360e01b81526001600160a01b0380841660048301526024820187905291519293509086169163095ea7b3916044808201926020929091908290030181600087803b15801561104c57600080fd5b505af1158015611060573d6000803e3d6000fd5b505050506040513d602081101561107657600080fd5b5050604080516395b68fe760e01b81526004810185905290516001600160a01b03831691637237e031918691611110916064916107579160639188916395b68fe791602480820192602092909190829003018186803b1580156110d857600080fd5b505afa1580156110ec573d6000803e3d6000fd5b505050506040513d602081101561110257600080fd5b50519063ffffffff6111f516565b61111c4261012c610f18565b604080516001600160e01b031960e087901b1681526004810194909452602484019290925260448301523060648301525160848083019260209291908290030181600087803b15801561116e57600080fd5b505af1158015611182573d6000803e3d6000fd5b505050506040513d602081101561119857600080fd5b50519150816111ee576040805162461bcd60e51b815260206004820152601860248201527f4572726f7220696e207377617070696e67204574683a20310000000000000000604482015290519081900360640190fd5b5092915050565b60008261120457506000610f75565b8282028284828161121157fe5b0414610f725760405162461bcd60e51b815260040180806020018281038252602181526020018061157c6021913960400191505060405180910390fd5b6000610f7283836040518060400160405280601a81526020017f536166654d6174683a206469766973696f6e206279207a65726f000000000000815250611406565b6000610f7283836040518060400160405280601e81526020017f536166654d6174683a207375627472616374696f6e206f766572666c6f7700008152506114a8565b6001600160a01b0381166000908152600560205260408120546112f457600080fd5b6001600160a01b038216600081815260056020526040808220805490839055905190929083908381818185875af1925050503d8060008114611352576040519150601f19603f3d011682016040523d82523d6000602084013e611357565b606091505b509095945050505050565b3390565b6001600160a01b0381166113ab5760405162461bcd60e51b81526004018080602001828103825260268152602001806115036026913960400191505060405180910390fd5b600080546040516001600160a01b03808516939216917f8be0079c531659141344cd1fd0a4f28419497f9722a3daafe3b4186f6b6457e091a3600080546001600160a01b0319166001600160a01b0392909216919091179055565b600081836114925760405162461bcd60e51b81526004018080602001828103825283818151815260200191508051906020019080838360005b8381101561145757818101518382015260200161143f565b50505050905090810190601f1680156114845780820380516001836020036101000a031916815260200191505b509250505060405180910390fd5b50600083858161149e57fe5b0495945050505050565b600081848411156114fa5760405162461bcd60e51b815260206004820181815283516024840152835190928392604490910191908501908083836000831561145757818101518382015260200161143f565b50505090039056fe4f776e61626c653a206e6577206f776e657220697320746865207a65726f2061646472657373506c656173652073656e642045544820616c6f6e6720776974682066756e6374696f6e2063616c6c496e636f6d696e6720746f6b656e20616464726573732073686f756c642062652061646472657373283029536166654d6174683a206d756c7469706c69636174696f6e206f766572666c6f774f776e61626c653a2063616c6c6572206973206e6f7420746865206f776e657243616e6e6f742073656e6420546f6b656e7320616e6420455448206174207468652073616d652074696d65a265627a7a723158203cec5411bb940c1a03cc3064ae44abe7cdbc18df104611c90b04c5314348e8b364736f6c634300050d0032",
  "compiler": {
    "name": "solc",
    "version": "0.5.13+commit.5b0b510c.Emscripten.clang",
    "optimizer": {
      "enabled": true,
      "runs": 500
    },
    "evmVersion": "petersburg"
  }
}