{
  "fileName": "PoolBull.sol",
  "contractName": "PoolBullZap",
  "source": "// Copyright (C) 2019, 2020 dipeshsukhani, nodarjonashi, toshsharma, suhailg\n\n// This program is free software: you can redistribute it and/or modify\n// it under the terms of the GNU Affero General Public License as published by\n// the Free Software Foundation, either version 2 of the License, or\n// (at your option) any later version.\n//\n// This program is distributed in the hope that it will be useful,\n// but WITHOUT ANY WARRANTY; without even the implied warranty of\n// MERCHANTABILITY or FITNESS FOR A PARTICULAR PURPOSE.  See the\n// GNU Affero General Public License for more details.\n//\n// Visit <https://www.gnu.org/licenses/>for a copy of the GNU Affero General Public License\n\n/**\n * WARNING: This is an upgradable contract. Be careful not to disrupt\n * the existing storage layout when making upgrades to the contract. In particular,\n * existing fields should not be removed and should not have their types changed.\n * The order of field declarations must not be changed, and new fields must be added\n * below all existing declarations.\n *\n * The base contracts and the order in which they are declared must not be changed.\n * New fields must not be added to base contracts (unless the base contract has\n * reserved placeholder fields for this purpose).\n *\n * See https://docs.zeppelinos.org/docs/writing_contracts.html for more info.\n*/\n\npragma solidity ^0.5.0;\n\nimport \"../../../node_modules/@openzeppelin/upgrades/contracts/Initializable.sol\";\nimport \"../../../node_modules/@openzeppelin/contracts-ethereum-package/contracts/math/SafeMath.sol\";\nimport \"../../../node_modules/@openzeppelin/contracts-ethereum-package/contracts/token/ERC20/IERC20.sol\";\n\n\n\n// this is the underlying contract that invests in 2xLongETH on Fulcrum\ninterface Invest2Fulcrum {\n    function LetsInvest(address _FuclrumOnwardAddress, address _destTokenAddress, uint _slippage, address _towhomtoissue) payable external returns (uint);\n}\n\ninterface UniSwapAddLiquityV2_General {\n    function LetsInvest(address _TokenContractAddress, address _towhomtoissue) external payable returns (uint);\n}\n\n\n// through this contract we are putting 34% allocation to 2xLongETH and 66% to Uniswap pool\ncontract PoolBullZap is Initializable {\n    using SafeMath for uint;\n    \n    // state variables\n\n    // - THESE MUST ALWAYS STAY IN THE SAME LAYOUT\n    bool private stopped;\n    address payable public owner;\n    Invest2Fulcrum public Invest2FulcrumAddress;\n    UniSwapAddLiquityV2_General public UniSwapAddLiquityV2_GeneralAddress;\n\n    // circuit breaker modifiers\n    modifier stopInEmergency {\n        if (stopped) \n            {revert(\"Temporarily Paused\");} \n        else {\n            _;}\n        }\n    modifier onlyOwner() {\n        require(isOwner(), \"you are not authorised to call this function\");\n        _;\n    }\n    \n    function initialize\n    (address _Invest2FulcrumAddress, \n    address _UniSwapAddLiquityV2_GeneralAddress) \n    initializer public {\n        stopped = false;\n        owner = msg.sender;\n        Invest2FulcrumAddress = Invest2Fulcrum(_Invest2FulcrumAddress);\n        UniSwapAddLiquityV2_GeneralAddress = UniSwapAddLiquityV2_General(_UniSwapAddLiquityV2_GeneralAddress);\n    }\n\n    // this function should be called should we ever want to change the Invest2FulcrumAddress\n    function set_Invest2FulcrumAddress(Invest2Fulcrum _Invest2FulcrumAddress) onlyOwner public {\n        Invest2FulcrumAddress = _Invest2FulcrumAddress;\n    }\n    \n    // this function should be called should we ever want to change the underlying Kyber Interface Contract address\n    function set_UniSwapAddLiquityV2_GeneralAddress(address _new_UniSwapAddLiquityV2_GeneralAddress) public onlyOwner {\n        UniSwapAddLiquityV2_GeneralAddress = UniSwapAddLiquityV2_General (_new_UniSwapAddLiquityV2_GeneralAddress);\n    }\n    \n    // main function which will make the investments\n    function LetsInvest(address payable _towhomtoIssueAddress, uint _2XLongETHAllocation, address _InvesteeTokenAddress, uint _slippage, bool _residualInToken) public payable returns(uint) {\n        require(_2XLongETHAllocation >= 0 || _2XLongETHAllocation <= 100, \"wrong allocation\");\n        //Determine ETH 2x Long and Uniswap portions\n        uint ETH2xLongPortion = SafeMath.div(SafeMath.mul(msg.value,_2XLongETHAllocation),100);\n        uint UniswapPortion = SafeMath.sub(msg.value, ETH2xLongPortion);\n        require (SafeMath.sub(msg.value, SafeMath.add(UniswapPortion, ETH2xLongPortion)) == 0, \"Cannot split incoming ETH appropriately\");\n        // Invest Uniswap portion\n        uint LiquidityTokens = UniSwapAddLiquityV2_GeneralAddress.LetsInvest.value(UniswapPortion)(_InvesteeTokenAddress, _towhomtoIssueAddress);\n        // Invest ETH 2x Long portion\n        Invest2FulcrumAddress.LetsInvest.value(ETH2xLongPortion)(0xd80e558027Ee753a0b95757dC3521d0326F13DA2, 0x6B175474E89094C44Da98b954EedeAC495271d0F, 5,  _towhomtoIssueAddress);\n        return (LiquidityTokens);\n    }\n\n    function inCaseTokengetsStuck(IERC20 _TokenAddress) onlyOwner public {\n        uint qty = _TokenAddress.balanceOf(address(this));\n        _TokenAddress.transfer(owner, qty);\n    }\n\n\n    // - fallback function let you / anyone send ETH to this wallet without the need to call any function\n    function() external payable {\n        if (msg.sender != owner) {\n            LetsInvest(msg.sender, 34, 0x6B175474E89094C44Da98b954EedeAC495271d0F, 5, false);}\n    }\n    \n    // - to Pause the contract\n    function toggleContractActive() onlyOwner public {\n        stopped = !stopped;\n    }\n\n    // - to withdraw any ETH balance sitting in the contract\n    function withdraw() onlyOwner public{\n        owner.transfer(address(this).balance);\n    }\n    \n    // - to kill the contract\n    function destruct() public onlyOwner {\n        selfdestruct(owner);\n    }\n\n\n    /**\n     * @return true if `msg.sender` is the owner of the contract.\n     */\n    function isOwner() public view returns (bool) {\n        return msg.sender == owner;\n    }\n\n    /**\n     * @dev Transfers ownership of the contract to a new account (`newOwner`).\n     * Can only be called by the current owner.\n     */\n    function transferOwnership(address payable newOwner) public onlyOwner {\n        _transferOwnership(newOwner);\n    }\n\n    /**\n     * @dev Transfers ownership of the contract to a new account (`newOwner`).\n     */\n    function _transferOwnership(address payable newOwner) internal {\n        require(newOwner != address(0), \"Ownable: new owner is the zero address\");\n        owner = newOwner;\n    }\n\n}\n",
  "sourcePath": "contracts/UpdatedZaps/Done/PoolBull.sol",
  "abi": [
    {
      "payable": true,
      "stateMutability": "payable",
      "type": "fallback"
    },
    {
      "constant": true,
      "inputs": [],
      "name": "Invest2FulcrumAddress",
      "outputs": [
        {
          "internalType": "contract Invest2Fulcrum",
          "name": "",
          "type": "address"
        }
      ],
      "payable": false,
      "stateMutability": "view",
      "type": "function"
    },
    {
      "constant": false,
      "inputs": [
        {
          "internalType": "address payable",
          "name": "_towhomtoIssueAddress",
          "type": "address"
        },
        {
          "internalType": "uint256",
          "name": "_2XLongETHAllocation",
          "type": "uint256"
        },
        {
          "internalType": "address",
          "name": "_InvesteeTokenAddress",
          "type": "address"
        },
        {
          "internalType": "uint256",
          "name": "_slippage",
          "type": "uint256"
        },
        {
          "internalType": "bool",
          "name": "_residualInToken",
          "type": "bool"
        }
      ],
      "name": "LetsInvest",
      "outputs": [
        {
          "internalType": "uint256",
          "name": "",
          "type": "uint256"
        }
      ],
      "payable": true,
      "stateMutability": "payable",
      "type": "function"
    },
    {
      "constant": true,
      "inputs": [],
      "name": "UniSwapAddLiquityV2_GeneralAddress",
      "outputs": [
        {
          "internalType": "contract UniSwapAddLiquityV2_General",
          "name": "",
          "type": "address"
        }
      ],
      "payable": false,
      "stateMutability": "view",
      "type": "function"
    },
    {
      "constant": false,
      "inputs": [],
      "name": "destruct",
      "outputs": [],
      "payable": false,
      "stateMutability": "nonpayable",
      "type": "function"
    },
    {
      "constant": false,
      "inputs": [
        {
          "internalType": "contract IERC20",
          "name": "_TokenAddress",
          "type": "address"
        }
      ],
      "name": "inCaseTokengetsStuck",
      "outputs": [],
      "payable": false,
      "stateMutability": "nonpayable",
      "type": "function"
    },
    {
      "constant": false,
      "inputs": [
        {
          "internalType": "address",
          "name": "_Invest2FulcrumAddress",
          "type": "address"
        },
        {
          "internalType": "address",
          "name": "_UniSwapAddLiquityV2_GeneralAddress",
          "type": "address"
        }
      ],
      "name": "initialize",
      "outputs": [],
      "payable": false,
      "stateMutability": "nonpayable",
      "type": "function"
    },
    {
      "constant": true,
      "inputs": [],
      "name": "isOwner",
      "outputs": [
        {
          "internalType": "bool",
          "name": "",
          "type": "bool"
        }
      ],
      "payable": false,
      "stateMutability": "view",
      "type": "function"
    },
    {
      "constant": true,
      "inputs": [],
      "name": "owner",
      "outputs": [
        {
          "internalType": "address payable",
          "name": "",
          "type": "address"
        }
      ],
      "payable": false,
      "stateMutability": "view",
      "type": "function"
    },
    {
      "constant": false,
      "inputs": [
        {
          "internalType": "contract Invest2Fulcrum",
          "name": "_Invest2FulcrumAddress",
          "type": "address"
        }
      ],
      "name": "set_Invest2FulcrumAddress",
      "outputs": [],
      "payable": false,
      "stateMutability": "nonpayable",
      "type": "function"
    },
    {
      "constant": false,
      "inputs": [
        {
          "internalType": "address",
          "name": "_new_UniSwapAddLiquityV2_GeneralAddress",
          "type": "address"
        }
      ],
      "name": "set_UniSwapAddLiquityV2_GeneralAddress",
      "outputs": [],
      "payable": false,
      "stateMutability": "nonpayable",
      "type": "function"
    },
    {
      "constant": false,
      "inputs": [],
      "name": "toggleContractActive",
      "outputs": [],
      "payable": false,
      "stateMutability": "nonpayable",
      "type": "function"
    },
    {
      "constant": false,
      "inputs": [
        {
          "internalType": "address payable",
          "name": "newOwner",
          "type": "address"
        }
      ],
      "name": "transferOwnership",
      "outputs": [],
      "payable": false,
      "stateMutability": "nonpayable",
      "type": "function"
    },
    {
      "constant": false,
      "inputs": [],
      "name": "withdraw",
      "outputs": [],
      "payable": false,
      "stateMutability": "nonpayable",
      "type": "function"
    }
  ],
  "bytecode": "0x608060405234801561001057600080fd5b50610d7f806100206000396000f3fe6080604052600436106100d25760003560e01c8063551196d51161007f5780639313b1f9116100595780639313b1f9146102815780639a22dafe146102b4578063d67e94ed146102c9578063f2fde38b146102fc576100d2565b8063551196d5146102105780638da5cb5b146102435780638f32d59b14610258576100d2565b80633ccfd60b116100b05780633ccfd60b1461018f57806341a0622c146101a4578063485cc955146101d5576100d2565b80631385d24c146101115780631eb3d97c146101265780632b68b9c61461017a575b60335461010090046001600160a01b0316331461010f5761010d336022736b175474e89094c44da98b954eedeac495271d0f6005600061032f565b505b005b34801561011d57600080fd5b5061010f6104f3565b610168600480360360a081101561013c57600080fd5b506001600160a01b0381358116916020810135916040820135169060608101359060800135151561032f565b60408051918252519081900360200190f35b34801561018657600080fd5b5061010f61054a565b34801561019b57600080fd5b5061010f6105a0565b3480156101b057600080fd5b506101b9610627565b604080516001600160a01b039092168252519081900360200190f35b3480156101e157600080fd5b5061010f600480360360408110156101f857600080fd5b506001600160a01b0381358116916020013516610636565b34801561021c57600080fd5b5061010f6004803603602081101561023357600080fd5b50356001600160a01b0316610730565b34801561024f57600080fd5b506101b9610877565b34801561026457600080fd5b5061026d61088b565b604080519115158252519081900360200190f35b34801561028d57600080fd5b5061010f600480360360208110156102a457600080fd5b50356001600160a01b03166108a1565b3480156102c057600080fd5b506101b9610906565b3480156102d557600080fd5b5061010f600480360360208110156102ec57600080fd5b50356001600160a01b0316610915565b34801561030857600080fd5b5061010f6004803603602081101561031f57600080fd5b50356001600160a01b031661097a565b60008061034661033f34886109c6565b6064610a28565b905060006103543483610a6a565b9050610369346103648385610aac565b610a6a565b156103a55760405162461bcd60e51b8152600401808060200182810382526027815260200180610d246027913960400191505060405180910390fd5b60355460408051633a2a66cf60e01b81526001600160a01b0389811660048301528b8116602483015291516000939290921691633a2a66cf918591604480830192602092919082900301818588803b15801561040057600080fd5b505af1158015610414573d6000803e3d6000fd5b50505050506040513d602081101561042b57600080fd5b505160345460408051636305111d60e01b815273d80e558027ee753a0b95757dc3521d0326f13da26004820152736b175474e89094c44da98b954eedeac495271d0f6024820152600560448201526001600160a01b038d811660648301529151939450911691636305111d918691608480830192602092919082900301818588803b1580156104b957600080fd5b505af11580156104cd573d6000803e3d6000fd5b50505050506040513d60208110156104e457600080fd5b50909998505050505050505050565b6104fb61088b565b6105365760405162461bcd60e51b815260040180806020018281038252602c815260200180610ca9602c913960400191505060405180910390fd5b6033805460ff19811660ff90911615179055565b61055261088b565b61058d5760405162461bcd60e51b815260040180806020018281038252602c815260200180610ca9602c913960400191505060405180910390fd5b60335461010090046001600160a01b0316ff5b6105a861088b565b6105e35760405162461bcd60e51b815260040180806020018281038252602c815260200180610ca9602c913960400191505060405180910390fd5b6033546040516001600160a01b036101009092049190911690303180156108fc02916000818181858888f19350505050158015610624573d6000803e3d6000fd5b50565b6035546001600160a01b031681565b600054610100900460ff168061064f575061064f610b06565b8061065d575060005460ff16155b6106985760405162461bcd60e51b815260040180806020018281038252602e815260200180610cf6602e913960400191505060405180910390fd5b600054610100900460ff161580156106c3576000805460ff1961ff0019909116610100171660011790555b60338054336101000274ffffffffffffffffffffffffffffffffffffffffff19909116179055603480546001600160a01b038581166001600160a01b0319928316179092556035805492851692909116919091179055801561072b576000805461ff00191690555b505050565b61073861088b565b6107735760405162461bcd60e51b815260040180806020018281038252602c815260200180610ca9602c913960400191505060405180910390fd5b604080516370a0823160e01b815230600482015290516000916001600160a01b038416916370a0823191602480820192602092909190829003018186803b1580156107bd57600080fd5b505afa1580156107d1573d6000803e3d6000fd5b505050506040513d60208110156107e757600080fd5b50516033546040805163a9059cbb60e01b81526101009092046001600160a01b03908116600484015260248301849052905192935084169163a9059cbb916044808201926020929091908290030181600087803b15801561084757600080fd5b505af115801561085b573d6000803e3d6000fd5b505050506040513d602081101561087157600080fd5b50505050565b60335461010090046001600160a01b031681565b60335461010090046001600160a01b0316331490565b6108a961088b565b6108e45760405162461bcd60e51b815260040180806020018281038252602c815260200180610ca9602c913960400191505060405180910390fd5b603580546001600160a01b0319166001600160a01b0392909216919091179055565b6034546001600160a01b031681565b61091d61088b565b6109585760405162461bcd60e51b815260040180806020018281038252602c815260200180610ca9602c913960400191505060405180910390fd5b603480546001600160a01b0319166001600160a01b0392909216919091179055565b61098261088b565b6109bd5760405162461bcd60e51b815260040180806020018281038252602c815260200180610ca9602c913960400191505060405180910390fd5b61062481610b0c565b6000826109d557506000610a22565b828202828482816109e257fe5b0414610a1f5760405162461bcd60e51b8152600401808060200182810382526021815260200180610cd56021913960400191505060405180910390fd5b90505b92915050565b6000610a1f83836040518060400160405280601a81526020017f536166654d6174683a206469766973696f6e206279207a65726f000000000000815250610b86565b6000610a1f83836040518060400160405280601e81526020017f536166654d6174683a207375627472616374696f6e206f766572666c6f770000815250610c28565b600082820183811015610a1f576040805162461bcd60e51b815260206004820152601b60248201527f536166654d6174683a206164646974696f6e206f766572666c6f770000000000604482015290519081900360640190fd5b303b1590565b6001600160a01b038116610b515760405162461bcd60e51b8152600401808060200182810382526026815260200180610c836026913960400191505060405180910390fd5b603380546001600160a01b039092166101000274ffffffffffffffffffffffffffffffffffffffff0019909216919091179055565b60008183610c125760405162461bcd60e51b81526004018080602001828103825283818151815260200191508051906020019080838360005b83811015610bd7578181015183820152602001610bbf565b50505050905090810190601f168015610c045780820380516001836020036101000a031916815260200191505b509250505060405180910390fd5b506000838581610c1e57fe5b0495945050505050565b60008184841115610c7a5760405162461bcd60e51b8152602060048201818152835160248401528351909283926044909101919085019080838360008315610bd7578181015183820152602001610bbf565b50505090039056fe4f776e61626c653a206e6577206f776e657220697320746865207a65726f2061646472657373796f7520617265206e6f7420617574686f726973656420746f2063616c6c20746869732066756e6374696f6e536166654d6174683a206d756c7469706c69636174696f6e206f766572666c6f77436f6e747261637420696e7374616e63652068617320616c7265616479206265656e20696e697469616c697a656443616e6e6f742073706c697420696e636f6d696e672045544820617070726f7072696174656c79a265627a7a7231582087484ab7f5650befa122db5063caa7f35ea3f00859b0370d7c74fce680d8e15a64736f6c634300050d0032",
  "compiler": {
    "name": "solc",
    "version": "0.5.13+commit.5b0b510c.Emscripten.clang",
    "optimizer": {
      "enabled": true,
      "runs": 500
    },
    "evmVersion": "petersburg"
  }
}