{
  "fileName": "LLP_ETH_sETH.sol",
  "contractName": "sETH_LLP_2xETH",
  "source": "// Copyright (C) 2019, 2020 dipeshsukhani, nodarjonashi, toshsharma, suhailg\n\n// This program is free software: you can redistribute it and/or modify\n// it under the terms of the GNU Affero General Public License as published by\n// the Free Software Foundation, either version 2 of the License, or\n// (at your option) any later version.\n//\n// This program is distributed in the hope that it will be useful,\n// but WITHOUT ANY WARRANTY; without even the implied warranty of\n// MERCHANTABILITY or FITNESS FOR A PARTICULAR PURPOSE.  See the\n// GNU Affero General Public License for more details.\n//\n// Visit <https://www.gnu.org/licenses/>for a copy of the GNU Affero General Public License\n\n/**\n * WARNING: This is an upgradable contract. Be careful not to disrupt\n * the existing storage layout when making upgrades to the contract. In particular,\n * existing fields should not be removed and should not have their types changed.\n * The order of field declarations must not be changed, and new fields must be added\n * below all existing declarations.\n *\n * The base contracts and the order in which they are declared must not be changed.\n * New fields must not be added to base contracts (unless the base contract has\n * reserved placeholder fields for this purpose).\n *\n * See https://docs.zeppelinos.org/docs/writing_contracts.html for more info.\n*/\n\npragma solidity ^0.5.0;\n\nimport \"../../../node_modules/@openzeppelin/upgrades/contracts/Initializable.sol\";\nimport \"../../../node_modules/@openzeppelin/contracts-ethereum-package/contracts/math/SafeMath.sol\";\nimport \"../../../node_modules/@openzeppelin/contracts-ethereum-package/contracts/token/ERC20/IERC20.sol\";\n\ninterface LLP_General {\n    function LetsInvest(address payable _towhomtoIssueAddress, uint _2XLongETHAllocation, address _InvesteeTokenAddress, uint _slippage, bool _residualInToken) external payable returns(uint); \n}\n\n// through this contract we are putting 34% allocation to 2xLongETH and 66% to Uniswap pool\ncontract sETH_LLP_2xETH is Initializable {\n    using SafeMath for uint;\n    \n    // state variables\n\n    // - THESE MUST ALWAYS STAY IN THE SAME LAYOUT\n    bool private stopped;\n    address payable public owner;\n    LLP_General public LLP_GeneralAddress;\n    address public sETHAddress;\n\n    // circuit breaker modifiers\n    modifier stopInEmergency {\n        if (stopped) \n            {revert(\"Temporarily Paused\");} \n        else {\n            _;}\n        }\n    modifier onlyOwner() {\n        require(isOwner(), \"you are not authorised to call this function\");\n        _;\n    }\n    \n    function initialize\n    (address _LLP_GeneralAddress, address _sETHAddress)\n    initializer public {\n        stopped = false;\n        owner = msg.sender;\n        LLP_GeneralAddress = LLP_General(_LLP_GeneralAddress);\n        sETHAddress = _sETHAddress;\n    }\n\n    // this function should be called should we ever want to change the underlying LLP_GeneralAddress Contract address\n    function set_LLP_GeneralAddress(address _new_LLP_GeneralAddress) public onlyOwner {\n        LLP_GeneralAddress = LLP_General (_new_LLP_GeneralAddress);\n    }\n\n    // this function should be called should we ever want to change the underlying sETH Contract address\n    function set_sETHAddress(address _new_sETHAddress) public onlyOwner {\n        sETHAddress = _new_sETHAddress;\n    }\n    \n    // main function which will make the investments\n    function LetsInvest(address payable _towhomtoIssueAddress, uint _2XLongETHAllocation, uint _slippage, bool _residualInToken) public payable returns(uint) {\n       LLP_GeneralAddress.LetsInvest.value(msg.value)(_towhomtoIssueAddress, 34, sETHAddress, 5, false);\n    }\n\n    function inCaseTokengetsStuck(IERC20 _TokenAddress) onlyOwner public {\n        uint qty = _TokenAddress.balanceOf(address(this));\n        _TokenAddress.transfer(owner, qty);\n    }\n\n\n    // - fallback function let you / anyone send ETH to this wallet without the need to call any function\n    function() external payable {\n        if (msg.sender != owner) {\n            LetsInvest(msg.sender, 34, 5, false);}\n    }\n    \n    // - to Pause the contract\n    function toggleContractActive() onlyOwner public {\n        stopped = !stopped;\n    }\n\n    // - to withdraw any ETH balance sitting in the contract\n    function withdraw() onlyOwner public{\n        owner.transfer(address(this).balance);\n    }\n    \n    // - to kill the contract\n    function destruct() public onlyOwner {\n        selfdestruct(owner);\n    }\n\n\n    /**\n     * @return true if `msg.sender` is the owner of the contract.\n     */\n    function isOwner() public view returns (bool) {\n        return msg.sender == owner;\n    }\n\n    /**\n     * @dev Transfers ownership of the contract to a new account (`newOwner`).\n     * Can only be called by the current owner.\n     */\n    function transferOwnership(address payable newOwner) public onlyOwner {\n        _transferOwnership(newOwner);\n    }\n\n    /**\n     * @dev Transfers ownership of the contract to a new account (`newOwner`).\n     */\n    function _transferOwnership(address payable newOwner) internal {\n        require(newOwner != address(0), \"Ownable: new owner is the zero address\");\n        owner = newOwner;\n    }\n\n}\n",
  "sourcePath": "contracts/UpdatedZaps/WIP/LLP_ETH_sETH.sol",
  "abi": [
    {
      "payable": true,
      "stateMutability": "payable",
      "type": "fallback"
    },
    {
      "constant": true,
      "inputs": [],
      "name": "LLP_GeneralAddress",
      "outputs": [
        {
          "internalType": "contract LLP_General",
          "name": "",
          "type": "address"
        }
      ],
      "payable": false,
      "stateMutability": "view",
      "type": "function"
    },
    {
      "constant": false,
      "inputs": [
        {
          "internalType": "address payable",
          "name": "_towhomtoIssueAddress",
          "type": "address"
        },
        {
          "internalType": "uint256",
          "name": "_2XLongETHAllocation",
          "type": "uint256"
        },
        {
          "internalType": "uint256",
          "name": "_slippage",
          "type": "uint256"
        },
        {
          "internalType": "bool",
          "name": "_residualInToken",
          "type": "bool"
        }
      ],
      "name": "LetsInvest",
      "outputs": [
        {
          "internalType": "uint256",
          "name": "",
          "type": "uint256"
        }
      ],
      "payable": true,
      "stateMutability": "payable",
      "type": "function"
    },
    {
      "constant": false,
      "inputs": [],
      "name": "destruct",
      "outputs": [],
      "payable": false,
      "stateMutability": "nonpayable",
      "type": "function"
    },
    {
      "constant": false,
      "inputs": [
        {
          "internalType": "contract IERC20",
          "name": "_TokenAddress",
          "type": "address"
        }
      ],
      "name": "inCaseTokengetsStuck",
      "outputs": [],
      "payable": false,
      "stateMutability": "nonpayable",
      "type": "function"
    },
    {
      "constant": false,
      "inputs": [
        {
          "internalType": "address",
          "name": "_LLP_GeneralAddress",
          "type": "address"
        },
        {
          "internalType": "address",
          "name": "_sETHAddress",
          "type": "address"
        }
      ],
      "name": "initialize",
      "outputs": [],
      "payable": false,
      "stateMutability": "nonpayable",
      "type": "function"
    },
    {
      "constant": true,
      "inputs": [],
      "name": "isOwner",
      "outputs": [
        {
          "internalType": "bool",
          "name": "",
          "type": "bool"
        }
      ],
      "payable": false,
      "stateMutability": "view",
      "type": "function"
    },
    {
      "constant": true,
      "inputs": [],
      "name": "owner",
      "outputs": [
        {
          "internalType": "address payable",
          "name": "",
          "type": "address"
        }
      ],
      "payable": false,
      "stateMutability": "view",
      "type": "function"
    },
    {
      "constant": true,
      "inputs": [],
      "name": "sETHAddress",
      "outputs": [
        {
          "internalType": "address",
          "name": "",
          "type": "address"
        }
      ],
      "payable": false,
      "stateMutability": "view",
      "type": "function"
    },
    {
      "constant": false,
      "inputs": [
        {
          "internalType": "address",
          "name": "_new_LLP_GeneralAddress",
          "type": "address"
        }
      ],
      "name": "set_LLP_GeneralAddress",
      "outputs": [],
      "payable": false,
      "stateMutability": "nonpayable",
      "type": "function"
    },
    {
      "constant": false,
      "inputs": [
        {
          "internalType": "address",
          "name": "_new_sETHAddress",
          "type": "address"
        }
      ],
      "name": "set_sETHAddress",
      "outputs": [],
      "payable": false,
      "stateMutability": "nonpayable",
      "type": "function"
    },
    {
      "constant": false,
      "inputs": [],
      "name": "toggleContractActive",
      "outputs": [],
      "payable": false,
      "stateMutability": "nonpayable",
      "type": "function"
    },
    {
      "constant": false,
      "inputs": [
        {
          "internalType": "address payable",
          "name": "newOwner",
          "type": "address"
        }
      ],
      "name": "transferOwnership",
      "outputs": [],
      "payable": false,
      "stateMutability": "nonpayable",
      "type": "function"
    },
    {
      "constant": false,
      "inputs": [],
      "name": "withdraw",
      "outputs": [],
      "payable": false,
      "stateMutability": "nonpayable",
      "type": "function"
    }
  ],
  "bytecode": "0x608060405234801561001057600080fd5b50611013806100206000396000f3fe6080604052600436106100c25760003560e01c8063551196d51161007f57806393605a031161005957806393605a03146103805780639c63b60b146103d7578063b5f4ca3e1461042e578063f2fde38b1461047f576100c2565b8063551196d5146102a95780638da5cb5b146102fa5780638f32d59b14610351576100c2565b8063127fad041461012a5780631385d24c1461017b5780632b68b9c614610192578063381480dc146101a95780633ccfd60b14610221578063485cc95514610238575b603360019054906101000a900473ffffffffffffffffffffffffffffffffffffffff1673ffffffffffffffffffffffffffffffffffffffff163373ffffffffffffffffffffffffffffffffffffffff161461012857610126336022600560006104d0565b505b005b34801561013657600080fd5b506101796004803603602081101561014d57600080fd5b81019080803573ffffffffffffffffffffffffffffffffffffffff16906020019092919050505061062d565b005b34801561018757600080fd5b506101906106ce565b005b34801561019e57600080fd5b506101a7610757565b005b61020b600480360360808110156101bf57600080fd5b81019080803573ffffffffffffffffffffffffffffffffffffffff16906020019092919080359060200190929190803590602001909291908035151590602001909291905050506104d0565b6040518082815260200191505060405180910390f35b34801561022d57600080fd5b506102366107ef565b005b34801561024457600080fd5b506102a76004803603604081101561025b57600080fd5b81019080803573ffffffffffffffffffffffffffffffffffffffff169060200190929190803573ffffffffffffffffffffffffffffffffffffffff1690602001909291905050506108ce565b005b3480156102b557600080fd5b506102f8600480360360208110156102cc57600080fd5b81019080803573ffffffffffffffffffffffffffffffffffffffff169060200190929190505050610aad565b005b34801561030657600080fd5b5061030f610caf565b604051808273ffffffffffffffffffffffffffffffffffffffff1673ffffffffffffffffffffffffffffffffffffffff16815260200191505060405180910390f35b34801561035d57600080fd5b50610366610cd5565b604051808215151515815260200191505060405180910390f35b34801561038c57600080fd5b50610395610d2d565b604051808273ffffffffffffffffffffffffffffffffffffffff1673ffffffffffffffffffffffffffffffffffffffff16815260200191505060405180910390f35b3480156103e357600080fd5b506103ec610d53565b604051808273ffffffffffffffffffffffffffffffffffffffff1673ffffffffffffffffffffffffffffffffffffffff16815260200191505060405180910390f35b34801561043a57600080fd5b5061047d6004803603602081101561045157600080fd5b81019080803573ffffffffffffffffffffffffffffffffffffffff169060200190929190505050610d79565b005b34801561048b57600080fd5b506104ce600480360360208110156104a257600080fd5b81019080803573ffffffffffffffffffffffffffffffffffffffff169060200190929190505050610e1a565b005b6000603460009054906101000a900473ffffffffffffffffffffffffffffffffffffffff1673ffffffffffffffffffffffffffffffffffffffff16631eb3d97c34876022603560009054906101000a900473ffffffffffffffffffffffffffffffffffffffff16600560006040518763ffffffff1660e01b8152600401808673ffffffffffffffffffffffffffffffffffffffff1673ffffffffffffffffffffffffffffffffffffffff1681526020018581526020018473ffffffffffffffffffffffffffffffffffffffff1673ffffffffffffffffffffffffffffffffffffffff16815260200183815260200182151515158152602001955050505050506020604051808303818588803b1580156105e857600080fd5b505af11580156105fc573d6000803e3d6000fd5b50505050506040513d602081101561061357600080fd5b810190808051906020019092919050505050949350505050565b610635610cd5565b61068a576040517f08c379a000000000000000000000000000000000000000000000000000000000815260040180806020018281038252602c815260200180610f85602c913960400191505060405180910390fd5b80603460006101000a81548173ffffffffffffffffffffffffffffffffffffffff021916908373ffffffffffffffffffffffffffffffffffffffff16021790555050565b6106d6610cd5565b61072b576040517f08c379a000000000000000000000000000000000000000000000000000000000815260040180806020018281038252602c815260200180610f85602c913960400191505060405180910390fd5b603360009054906101000a900460ff1615603360006101000a81548160ff021916908315150217905550565b61075f610cd5565b6107b4576040517f08c379a000000000000000000000000000000000000000000000000000000000815260040180806020018281038252602c815260200180610f85602c913960400191505060405180910390fd5b603360019054906101000a900473ffffffffffffffffffffffffffffffffffffffff1673ffffffffffffffffffffffffffffffffffffffff16ff5b6107f7610cd5565b61084c576040517f08c379a000000000000000000000000000000000000000000000000000000000815260040180806020018281038252602c815260200180610f85602c913960400191505060405180910390fd5b603360019054906101000a900473ffffffffffffffffffffffffffffffffffffffff1673ffffffffffffffffffffffffffffffffffffffff166108fc3073ffffffffffffffffffffffffffffffffffffffff16319081150290604051600060405180830381858888f193505050501580156108cb573d6000803e3d6000fd5b50565b600060019054906101000a900460ff16806108ed57506108ec610e83565b5b8061090457506000809054906101000a900460ff16155b610959576040517f08c379a000000000000000000000000000000000000000000000000000000000815260040180806020018281038252602e815260200180610fb1602e913960400191505060405180910390fd5b60008060019054906101000a900460ff1615905080156109a9576001600060016101000a81548160ff02191690831515021790555060016000806101000a81548160ff0219169083151502179055505b6000603360006101000a81548160ff02191690831515021790555033603360016101000a81548173ffffffffffffffffffffffffffffffffffffffff021916908373ffffffffffffffffffffffffffffffffffffffff16021790555082603460006101000a81548173ffffffffffffffffffffffffffffffffffffffff021916908373ffffffffffffffffffffffffffffffffffffffff16021790555081603560006101000a81548173ffffffffffffffffffffffffffffffffffffffff021916908373ffffffffffffffffffffffffffffffffffffffff1602179055508015610aa85760008060016101000a81548160ff0219169083151502179055505b505050565b610ab5610cd5565b610b0a576040517f08c379a000000000000000000000000000000000000000000000000000000000815260040180806020018281038252602c815260200180610f85602c913960400191505060405180910390fd5b60008173ffffffffffffffffffffffffffffffffffffffff166370a08231306040518263ffffffff1660e01b8152600401808273ffffffffffffffffffffffffffffffffffffffff1673ffffffffffffffffffffffffffffffffffffffff16815260200191505060206040518083038186803b158015610b8957600080fd5b505afa158015610b9d573d6000803e3d6000fd5b505050506040513d6020811015610bb357600080fd5b810190808051906020019092919050505090508173ffffffffffffffffffffffffffffffffffffffff1663a9059cbb603360019054906101000a900473ffffffffffffffffffffffffffffffffffffffff16836040518363ffffffff1660e01b8152600401808373ffffffffffffffffffffffffffffffffffffffff1673ffffffffffffffffffffffffffffffffffffffff16815260200182815260200192505050602060405180830381600087803b158015610c6f57600080fd5b505af1158015610c83573d6000803e3d6000fd5b505050506040513d6020811015610c9957600080fd5b8101908080519060200190929190505050505050565b603360019054906101000a900473ffffffffffffffffffffffffffffffffffffffff1681565b6000603360019054906101000a900473ffffffffffffffffffffffffffffffffffffffff1673ffffffffffffffffffffffffffffffffffffffff163373ffffffffffffffffffffffffffffffffffffffff1614905090565b603460009054906101000a900473ffffffffffffffffffffffffffffffffffffffff1681565b603560009054906101000a900473ffffffffffffffffffffffffffffffffffffffff1681565b610d81610cd5565b610dd6576040517f08c379a000000000000000000000000000000000000000000000000000000000815260040180806020018281038252602c815260200180610f85602c913960400191505060405180910390fd5b80603560006101000a81548173ffffffffffffffffffffffffffffffffffffffff021916908373ffffffffffffffffffffffffffffffffffffffff16021790555050565b610e22610cd5565b610e77576040517f08c379a000000000000000000000000000000000000000000000000000000000815260040180806020018281038252602c815260200180610f85602c913960400191505060405180910390fd5b610e8081610e94565b50565b600080303b90506000811491505090565b600073ffffffffffffffffffffffffffffffffffffffff168173ffffffffffffffffffffffffffffffffffffffff161415610f1a576040517f08c379a0000000000000000000000000000000000000000000000000000000008152600401808060200182810382526026815260200180610f5f6026913960400191505060405180910390fd5b80603360016101000a81548173ffffffffffffffffffffffffffffffffffffffff021916908373ffffffffffffffffffffffffffffffffffffffff1602179055505056fe4f776e61626c653a206e6577206f776e657220697320746865207a65726f2061646472657373796f7520617265206e6f7420617574686f726973656420746f2063616c6c20746869732066756e6374696f6e436f6e747261637420696e7374616e63652068617320616c7265616479206265656e20696e697469616c697a6564a265627a7a7231582061797b6d4b929de848860cfb72288cf6c13c6ed10996c2b3a57ba3958b1387b464736f6c634300050d0032",
  "compiler": {
    "name": "solc",
    "version": "0.5.13+commit.5b0b510c.Emscripten.clang",
    "optimizer": {
      "enabled": false,
      "runs": 200
    },
    "evmVersion": "petersburg"
  }
}