{
  "fileName": "sUSDCurve_ZapOut.sol",
  "contractName": "sUSDCurve_ZapOut",
  "source": "pragma solidity ^0.5.0;\n\n/**\n * @dev Interface of the ERC20 standard as defined in the EIP. Does not include\n * the optional functions; to access them see {ERC20Detailed}.\n */\ninterface IERC20 {\n    /**\n     * @dev Returns the amount of tokens in existence.\n     */\n    function totalSupply() external view returns (uint256);\n\n    /**\n     * @dev Returns the amount of tokens owned by `account`.\n     */\n    function balanceOf(address account) external view returns (uint256);\n\n    /**\n     * @dev Moves `amount` tokens from the caller's account to `recipient`.\n     *\n     * Returns a boolean value indicating whether the operation succeeded.\n     *\n     * Emits a {Transfer} event.\n     */\n    function transfer(address recipient, uint256 amount) external returns (bool);\n\n    /**\n     * @dev Returns the remaining number of tokens that `spender` will be\n     * allowed to spend on behalf of `owner` through {transferFrom}. This is\n     * zero by default.\n     *\n     * This value changes when {approve} or {transferFrom} are called.\n     */\n    function allowance(address owner, address spender) external view returns (uint256);\n\n    /**\n     * @dev Sets `amount` as the allowance of `spender` over the caller's tokens.\n     *\n     * Returns a boolean value indicating whether the operation succeeded.\n     *\n     * IMPORTANT: Beware that changing an allowance with this method brings the risk\n     * that someone may use both the old and the new allowance by unfortunate\n     * transaction ordering. One possible solution to mitigate this race\n     * condition is to first reduce the spender's allowance to 0 and set the\n     * desired value afterwards:\n     * https://github.com/ethereum/EIPs/issues/20#issuecomment-263524729\n     *\n     * Emits an {Approval} event.\n     */\n    function approve(address spender, uint256 amount) external returns (bool);\n\n    /**\n     * @dev Moves `amount` tokens from `sender` to `recipient` using the\n     * allowance mechanism. `amount` is then deducted from the caller's\n     * allowance.\n     *\n     * Returns a boolean value indicating whether the operation succeeded.\n     *\n     * Emits a {Transfer} event.\n     */\n    function transferFrom(address sender, address recipient, uint256 amount) external returns (bool);\n\n    /**\n     * @dev Emitted when `value` tokens are moved from one account (`from`) to\n     * another (`to`).\n     *\n     * Note that `value` may be zero.\n     */\n    event Transfer(address indexed from, address indexed to, uint256 value);\n\n    /**\n     * @dev Emitted when the allowance of a `spender` for an `owner` is set by\n     * a call to {approve}. `value` is the new allowance.\n     */\n    event Approval(address indexed owner, address indexed spender, uint256 value);\n}\n// File: browser/Context.sol\n\npragma solidity ^0.5.0;\n\n/*\n * @dev Provides information about the current execution context, including the\n * sender of the transaction and its data. While these are generally available\n * via msg.sender and msg.data, they should not be accessed in such a direct\n * manner, since when dealing with GSN meta-transactions the account sending and\n * paying for execution may not be the actual sender (as far as an application\n * is concerned).\n *\n * This contract is only required for intermediate, library-like contracts.\n */\ncontract Context {\n    // Empty internal constructor, to prevent people from mistakenly deploying\n    // an instance of this contract, which should be used via inheritance.\n    constructor () internal { }\n    // solhint-disable-previous-line no-empty-blocks\n\n    function _msgSender() internal view returns (address payable) {\n        return msg.sender;\n    }\n\n    function _msgData() internal view returns (bytes memory) {\n        this; // silence state mutability warning without generating bytecode - see https://github.com/ethereum/solidity/issues/2691\n        return msg.data;\n    }\n}\n// File: browser/OpenZepplinOwnable.sol\n\npragma solidity ^0.5.0;\n\n/**\n * @dev Contract module which provides a basic access control mechanism, where\n * there is an account (an owner) that can be granted exclusive access to\n * specific functions.\n *\n * This module is used through inheritance. It will make available the modifier\n * `onlyOwner`, which can be applied to your functions to restrict their use to\n * the owner.\n */\ncontract Ownable is Context {\n    address payable public _owner;\n\n    event OwnershipTransferred(address indexed previousOwner, address indexed newOwner);\n\n    /**\n     * @dev Initializes the contract setting the deployer as the initial owner.\n     */\n    constructor () internal {\n        address payable msgSender = _msgSender();\n        _owner = msgSender;\n        emit OwnershipTransferred(address(0), msgSender);\n    }\n\n    /**\n     * @dev Returns the address of the current owner.\n     */\n    function owner() public view returns (address) {\n        return _owner;\n    }\n\n    /**\n     * @dev Throws if called by any account other than the owner.\n     */\n    modifier onlyOwner() {\n        require(isOwner(), \"Ownable: caller is not the owner\");\n        _;\n    }\n\n    /**\n     * @dev Returns true if the caller is the current owner.\n     */\n    function isOwner() public view returns (bool) {\n        return _msgSender() == _owner;\n    }\n\n    /**\n     * @dev Leaves the contract without owner. It will not be possible to call\n     * `onlyOwner` functions anymore. Can only be called by the current owner.\n     *\n     * NOTE: Renouncing ownership will leave the contract without an owner,\n     * thereby removing any functionality that is only available to the owner.\n     */\n    function renounceOwnership() public onlyOwner {\n        emit OwnershipTransferred(_owner, address(0));\n        _owner = address(0);\n    }\n\n    /**\n     * @dev Transfers ownership of the contract to a new account (`newOwner`).\n     * Can only be called by the current owner.\n     */\n    function transferOwnership(address payable newOwner) public onlyOwner {\n        _transferOwnership(newOwner);\n    }\n\n    /**\n     * @dev Transfers ownership of the contract to a new account (`newOwner`).\n     */\n    function _transferOwnership(address payable newOwner) internal {\n        require(newOwner != address(0), \"Ownable: new owner is the zero address\");\n        emit OwnershipTransferred(_owner, newOwner);\n        _owner = newOwner;\n    }\n}\n// File: browser/OpenZepplinSafeMath.sol\n\npragma solidity ^0.5.0;\n\n/**\n * @dev Wrappers over Solidity's arithmetic operations with added overflow\n * checks.\n *\n * Arithmetic operations in Solidity wrap on overflow. This can easily result\n * in bugs, because programmers usually assume that an overflow raises an\n * error, which is the standard behavior in high level programming languages.\n * `SafeMath` restores this intuition by reverting the transaction when an\n * operation overflows.\n *\n * Using this library instead of the unchecked operations eliminates an entire\n * class of bugs, so it's recommended to use it always.\n */\nlibrary SafeMath {\n    /**\n     * @dev Returns the addition of two unsigned integers, reverting on\n     * overflow.\n     *\n     * Counterpart to Solidity's `+` operator.\n     *\n     * Requirements:\n     * - Addition cannot overflow.\n     */\n    function add(uint256 a, uint256 b) internal pure returns (uint256) {\n        uint256 c = a + b;\n        require(c >= a, \"SafeMath: addition overflow\");\n\n        return c;\n    }\n\n    /**\n     * @dev Returns the subtraction of two unsigned integers, reverting on\n     * overflow (when the result is negative).\n     *\n     * Counterpart to Solidity's `-` operator.\n     *\n     * Requirements:\n     * - Subtraction cannot overflow.\n     */\n    function sub(uint256 a, uint256 b) internal pure returns (uint256) {\n        return sub(a, b, \"SafeMath: subtraction overflow\");\n    }\n\n    /**\n     * @dev Returns the subtraction of two unsigned integers, reverting with custom message on\n     * overflow (when the result is negative).\n     *\n     * Counterpart to Solidity's `-` operator.\n     *\n     * Requirements:\n     * - Subtraction cannot overflow.\n     *\n     * _Available since v2.4.0._\n     */\n    function sub(uint256 a, uint256 b, string memory errorMessage) internal pure returns (uint256) {\n        require(b <= a, errorMessage);\n        uint256 c = a - b;\n\n        return c;\n    }\n\n    /**\n     * @dev Returns the multiplication of two unsigned integers, reverting on\n     * overflow.\n     *\n     * Counterpart to Solidity's `*` operator.\n     *\n     * Requirements:\n     * - Multiplication cannot overflow.\n     */\n    function mul(uint256 a, uint256 b) internal pure returns (uint256) {\n        // Gas optimization: this is cheaper than requiring 'a' not being zero, but the\n        // benefit is lost if 'b' is also tested.\n        // See: https://github.com/OpenZeppelin/openzeppelin-contracts/pull/522\n        if (a == 0) {\n            return 0;\n        }\n\n        uint256 c = a * b;\n        require(c / a == b, \"SafeMath: multiplication overflow\");\n\n        return c;\n    }\n\n    /**\n     * @dev Returns the integer division of two unsigned integers. Reverts on\n     * division by zero. The result is rounded towards zero.\n     *\n     * Counterpart to Solidity's `/` operator. Note: this function uses a\n     * `revert` opcode (which leaves remaining gas untouched) while Solidity\n     * uses an invalid opcode to revert (consuming all remaining gas).\n     *\n     * Requirements:\n     * - The divisor cannot be zero.\n     */\n    function div(uint256 a, uint256 b) internal pure returns (uint256) {\n        return div(a, b, \"SafeMath: division by zero\");\n    }\n\n    /**\n     * @dev Returns the integer division of two unsigned integers. Reverts with custom message on\n     * division by zero. The result is rounded towards zero.\n     *\n     * Counterpart to Solidity's `/` operator. Note: this function uses a\n     * `revert` opcode (which leaves remaining gas untouched) while Solidity\n     * uses an invalid opcode to revert (consuming all remaining gas).\n     *\n     * Requirements:\n     * - The divisor cannot be zero.\n     *\n     * _Available since v2.4.0._\n     */\n    function div(uint256 a, uint256 b, string memory errorMessage) internal pure returns (uint256) {\n        // Solidity only automatically asserts when dividing by 0\n        require(b > 0, errorMessage);\n        uint256 c = a / b;\n        // assert(a == b * c + a % b); // There is no case in which this doesn't hold\n\n        return c;\n    }\n\n    /**\n     * @dev Returns the remainder of dividing two unsigned integers. (unsigned integer modulo),\n     * Reverts when dividing by zero.\n     *\n     * Counterpart to Solidity's `%` operator. This function uses a `revert`\n     * opcode (which leaves remaining gas untouched) while Solidity uses an\n     * invalid opcode to revert (consuming all remaining gas).\n     *\n     * Requirements:\n     * - The divisor cannot be zero.\n     */\n    function mod(uint256 a, uint256 b) internal pure returns (uint256) {\n        return mod(a, b, \"SafeMath: modulo by zero\");\n    }\n\n    /**\n     * @dev Returns the remainder of dividing two unsigned integers. (unsigned integer modulo),\n     * Reverts with custom message when dividing by zero.\n     *\n     * Counterpart to Solidity's `%` operator. This function uses a `revert`\n     * opcode (which leaves remaining gas untouched) while Solidity uses an\n     * invalid opcode to revert (consuming all remaining gas).\n     *\n     * Requirements:\n     * - The divisor cannot be zero.\n     *\n     * _Available since v2.4.0._\n     */\n    function mod(uint256 a, uint256 b, string memory errorMessage) internal pure returns (uint256) {\n        require(b != 0, errorMessage);\n        return a % b;\n    }\n}\n// File: browser/OpenZepplinReentrancyGuard.sol\n\npragma solidity ^0.5.0;\n\n/**\n * @dev Contract module that helps prevent reentrant calls to a function.\n *\n * Inheriting from `ReentrancyGuard` will make the {nonReentrant} modifier\n * available, which can be applied to functions to make sure there are no nested\n * (reentrant) calls to them.\n *\n * Note that because there is a single `nonReentrant` guard, functions marked as\n * `nonReentrant` may not call one another. This can be worked around by making\n * those functions `private`, and then adding `external` `nonReentrant` entry\n * points to them.\n *\n * _Since v2.5.0:_ this module is now much more gas efficient, given net gas\n * metering changes introduced in the Istanbul hardfork.\n */\ncontract ReentrancyGuard {\n    bool private _notEntered;\n\n    constructor () internal {\n        // Storing an initial non-zero value makes deployment a bit more\n        // expensive, but in exchange the refund on every call to nonReentrant\n        // will be lower in amount. Since refunds are capped to a percetange of\n        // the total transaction's gas, it is best to keep them low in cases\n        // like this one, to increase the likelihood of the full refund coming\n        // into effect.\n        _notEntered = true;\n    }\n\n    /**\n     * @dev Prevents a contract from calling itself, directly or indirectly.\n     * Calling a `nonReentrant` function from another `nonReentrant`\n     * function is not supported. It is possible to prevent this from happening\n     * by making the `nonReentrant` function external, and make it call a\n     * `private` function that does the actual work.\n     */\n    modifier nonReentrant() {\n        // On the first call to nonReentrant, _notEntered will be true\n        require(_notEntered, \"ReentrancyGuard: reentrant call\");\n\n        // Any calls to nonReentrant after this point will fail\n        _notEntered = false;\n\n        _;\n\n        // By storing the original value once again, a refund is triggered (see\n        // https://eips.ethereum.org/EIPS/eip-2200)\n        _notEntered = true;\n    }\n}\n\n/**\n * @dev Collection of functions related to the address type\n */\nlibrary Address {\n    /**\n     * @dev Returns true if `account` is a contract.\n     *\n     * [IMPORTANT]\n     * ====\n     * It is unsafe to assume that an address for which this function returns\n     * false is an externally-owned account (EOA) and not a contract.\n     *\n     * Among others, `isContract` will return false for the following \n     * types of addresses:\n     *\n     *  - an externally-owned account\n     *  - a contract in construction\n     *  - an address where a contract will be created\n     *  - an address where a contract lived, but was destroyed\n     * ====\n     */\n    function isContract(address account) internal view returns (bool) {\n        // According to EIP-1052, 0x0 is the value returned for not-yet created accounts\n        // and 0xc5d2460186f7233c927e7db2dcc703c0e500b653ca82273b7bfad8045d85a470 is returned\n        // for accounts without code, i.e. `keccak256('')`\n        bytes32 codehash;\n        bytes32 accountHash = 0xc5d2460186f7233c927e7db2dcc703c0e500b653ca82273b7bfad8045d85a470;\n        // solhint-disable-next-line no-inline-assembly\n        assembly { codehash := extcodehash(account) }\n        return (codehash != accountHash && codehash != 0x0);\n    }\n\n    /**\n     * @dev Converts an `address` into `address payable`. Note that this is\n     * simply a type cast: the actual underlying value is not changed.\n     *\n     * _Available since v2.4.0._\n     */\n    function toPayable(address account) internal pure returns (address payable) {\n        return address(uint160(account));\n    }\n\n    /**\n     * @dev Replacement for Solidity's `transfer`: sends `amount` wei to\n     * `recipient`, forwarding all available gas and reverting on errors.\n     *\n     * https://eips.ethereum.org/EIPS/eip-1884[EIP1884] increases the gas cost\n     * of certain opcodes, possibly making contracts go over the 2300 gas limit\n     * imposed by `transfer`, making them unable to receive funds via\n     * `transfer`. {sendValue} removes this limitation.\n     *\n     * https://diligence.consensys.net/posts/2019/09/stop-using-soliditys-transfer-now/[Learn more].\n     *\n     * IMPORTANT: because control is transferred to `recipient`, care must be\n     * taken to not create reentrancy vulnerabilities. Consider using\n     * {ReentrancyGuard} or the\n     * https://solidity.readthedocs.io/en/v0.5.11/security-considerations.html#use-the-checks-effects-interactions-pattern[checks-effects-interactions pattern].\n     *\n     * _Available since v2.4.0._\n     */\n    function sendValue(address payable recipient, uint256 amount) internal {\n        require(address(this).balance >= amount, \"Address: insufficient balance\");\n\n        // solhint-disable-next-line avoid-call-value\n        (bool success, ) = recipient.call.value(amount)(\"\");\n        require(success, \"Address: unable to send value, recipient may have reverted\");\n    }\n}\n\n/**\n * @title SafeERC20\n * @dev Wrappers around ERC20 operations that throw on failure (when the token\n * contract returns false). Tokens that return no value (and instead revert or\n * throw on failure) are also supported, non-reverting calls are assumed to be\n * successful.\n * To use this library you can add a `using SafeERC20 for ERC20;` statement to your contract,\n * which allows you to call the safe operations as `token.safeTransfer(...)`, etc.\n */\nlibrary SafeERC20 {\n    using SafeMath for uint256;\n    using Address for address;\n\n    function safeTransfer(IERC20 token, address to, uint256 value) internal {\n        callOptionalReturn(token, abi.encodeWithSelector(token.transfer.selector, to, value));\n    }\n\n    function safeTransferFrom(IERC20 token, address from, address to, uint256 value) internal {\n        callOptionalReturn(token, abi.encodeWithSelector(token.transferFrom.selector, from, to, value));\n    }\n\n    function safeApprove(IERC20 token, address spender, uint256 value) internal {\n        // safeApprove should only be called when setting an initial allowance,\n        // or when resetting it to zero. To increase and decrease it, use\n        // 'safeIncreaseAllowance' and 'safeDecreaseAllowance'\n        // solhint-disable-next-line max-line-length\n        require((value == 0) || (token.allowance(address(this), spender) == 0),\n            \"SafeERC20: approve from non-zero to non-zero allowance\"\n        );\n        callOptionalReturn(token, abi.encodeWithSelector(token.approve.selector, spender, value));\n    }\n\n    function safeIncreaseAllowance(IERC20 token, address spender, uint256 value) internal {\n        uint256 newAllowance = token.allowance(address(this), spender).add(value);\n        callOptionalReturn(token, abi.encodeWithSelector(token.approve.selector, spender, newAllowance));\n    }\n\n    function safeDecreaseAllowance(IERC20 token, address spender, uint256 value) internal {\n        uint256 newAllowance = token.allowance(address(this), spender).sub(value, \"SafeERC20: decreased allowance below zero\");\n        callOptionalReturn(token, abi.encodeWithSelector(token.approve.selector, spender, newAllowance));\n    }\n\n    /**\n     * @dev Imitates a Solidity high-level call (i.e. a regular function call to a contract), relaxing the requirement\n     * on the return value: the return value is optional (but if data is returned, it must not be false).\n     * @param token The token targeted by the call.\n     * @param data The call data (encoded using abi.encode or one of its variants).\n     */\n    function callOptionalReturn(IERC20 token, bytes memory data) private {\n        // We need to perform a low level call here, to bypass Solidity's return data size checking mechanism, since\n        // we're implementing it ourselves.\n\n        // A Solidity high level call has three parts:\n        //  1. The target address is checked to verify it contains contract code\n        //  2. The call itself is made, and success asserted\n        //  3. The return value is decoded, which in turn checks the size of the returned data.\n        // solhint-disable-next-line max-line-length\n        require(address(token).isContract(), \"SafeERC20: call to non-contract\");\n\n        // solhint-disable-next-line avoid-low-level-calls\n        (bool success, bytes memory returndata) = address(token).call(data);\n        require(success, \"SafeERC20: low-level call failed\");\n\n        if (returndata.length > 0) { // Return data is optional\n            // solhint-disable-next-line max-line-length\n            require(abi.decode(returndata, (bool)), \"SafeERC20: ERC20 operation did not succeed\");\n        }\n    }\n}\n\n// Copyright (C) 2019, 2020 dipeshsukhani, nodarjanashia, suhailg, apoorvlathey\n\n// This program is free software: you can redistribute it and/or modify\n// it under the terms of the GNU Affero General Public License as published by\n// the Free Software Foundation, either version 2 of the License, or\n// (at your option) any later version.\n//\n// This program is distributed in the hope that it will be useful,\n// but WITHOUT ANY WARRANTY; without even the implied warranty of\n// MERCHANTABILITY or FITNESS FOR A PARTICULAR PURPOSE.  See the\n// GNU Affero General Public License for more details.\n//\n// Visit <https://www.gnu.org/licenses/>for a copy of the GNU Affero General Public License\n\n// File: localhost/defizap/node_modules/@openzeppelin/contracts-ethereum-package/contracts/token/ERC20/IERC20.sol\n\n///@author DeFiZap\n///@notice this contract implements one click swapping among Uniswap Pools\n\n// interface\ninterface IsUSDCurveExchange {\n    function remove_liquidity(\n        uint256 _amount,\n        uint256[4] calldata min_amounts\n    ) external;\n    function exchange(\n        int128 from, int128 to, uint256 _from_amount, uint256 _min_to_amount\n    ) external;\n}\n\n\ninterface IuniswapFactory {\n    function getExchange(address token)\n        external\n        view\n        returns (address exchange);\n}\n\n\ninterface IuniswapExchange {\n    // for removing liquidity (returns ETH removed, ERC20 Removed)\n    function removeLiquidity(\n        uint256 amount,\n        uint256 min_eth,\n        uint256 min_tokens,\n        uint256 deadline\n    ) external returns (uint256, uint256);\n\n    // converting ERC20 to ERC20 and transfer\n    function tokenToTokenSwapInput(\n        uint256 tokens_sold,\n        uint256 min_tokens_bought,\n        uint256 min_eth_bought,\n        uint256 deadline,\n        address token_addr\n    ) external returns (uint256 tokens_bought);\n    // converting ERC20 to ERC20 and transfer\n    function tokenToTokenTransferInput(\n        uint256 tokens_sold,\n        uint256 min_tokens_bought,\n        uint256 min_eth_bought,\n        uint256 deadline,\n        address recipient,\n        address token_addr\n    ) external returns (uint256 tokens_bought);\n\n    // add liquidity to a pool (returns LP tokens rec)\n    function addLiquidity(\n        uint256 min_liquidity,\n        uint256 max_tokens,\n        uint256 deadline\n    ) external payable returns (uint256);\n\n    function getEthToTokenInputPrice(uint256 eth_sold)\n        external\n        view\n        returns (uint256 tokens_bought);\n\n    function tokenToEthTransferInput(uint256 tokens_sold, uint256 min_eth, uint256 deadline, address recipient) external returns (uint256  eth_bought);\n    function getTokenToEthInputPrice(uint256 tokens_sold) external view returns (uint256 eth_bought);\n\n    function ethToTokenSwapInput(uint256 min_tokens, uint256 deadline)\n        external\n        payable\n        returns (uint256 tokens_bought);\n\n    function balanceOf(address _owner) external view returns (uint256);\n\n    function transfer(address _to, uint256 _value) external returns (bool);\n\n    function transferFrom(address from, address to, uint256 tokens)\n        external\n        returns (bool success);\n}\n\npragma solidity ^0.5.13;\n\ncontract sUSDCurve_ZapOut is ReentrancyGuard, Ownable {\n    using SafeMath for uint256;\n    using SafeERC20 for IERC20;\n    bool private stopped = false;\n    uint16 public goodwill;\n    address public dzgoodwillAddress;\n    \n    IuniswapFactory public UniSwapFactoryAddress = IuniswapFactory(\n        0xc0a47dFe034B400B47bDaD5FecDa2621de6c4d95\n    );\n    address public DaiTokenAddress = address(\n        0x6B175474E89094C44Da98b954EedeAC495271d0F\n    );\n    address public UsdcTokenAddress = address(\n        0xA0b86991c6218b36c1d19D4a2e9Eb0cE3606eB48\n    );\n    address public UsdtTokenAddress = address(\n        0xdAC17F958D2ee523a2206206994597C13D831ec7\n    );\n    address public sUsdTokenAddress = address(\n        0x57Ab1ec28D129707052df4dF418D58a2D46d5f51\n    );\n    address public sUSDCurveExchangeAddress = address(\n        0xA5407eAE9Ba41422680e2e00537571bcC53efBfD\n    );\n    address public sUSDCurvePoolTokenAddress = address(\n        0xC25a3A3b969415c80451098fa907EC722572917F\n    );\n\n    constructor(uint16 _goodwill, address _dzgoodwillAddress) public {\n        goodwill = _goodwill;\n        dzgoodwillAddress = _dzgoodwillAddress;\n        approveToken();\n    }\n    \n    function approveToken() public {\n        IERC20(DaiTokenAddress).approve(sUSDCurveExchangeAddress, uint256(-1));\n        IERC20(UsdcTokenAddress).approve(sUSDCurveExchangeAddress, uint256(-1));\n        IERC20(sUsdTokenAddress).approve(sUSDCurveExchangeAddress, uint256(-1));\n        IERC20(UsdtTokenAddress).safeApprove(sUSDCurveExchangeAddress, uint256(-1));\n        IERC20(sUSDCurvePoolTokenAddress).approve(sUSDCurveExchangeAddress, uint256(-1));\n    }\n\n    // circuit breaker modifiers\n    modifier stopInEmergency {\n        if (stopped) {\n            revert(\"Temporarily Paused\");\n        } else {\n            _;\n        }\n    }\n\n    function ZapOut(\n      address payable _toWhomToIssue,\n      uint256 _IncomingCRV,\n      address _ToTokenAddress\n    ) public payable stopInEmergency returns(bool) {\n\n      uint256 goodwillPortion = SafeMath.div(\n            SafeMath.mul(_IncomingCRV, goodwill),\n            10000\n      );\n\n      require(\n        IERC20(sUSDCurvePoolTokenAddress).transferFrom(\n          msg.sender,\n          dzgoodwillAddress,\n          goodwillPortion\n        ),\n        \"Error transferring goodwill\"\n      );\n\n      require(\n            IERC20(sUSDCurvePoolTokenAddress).transferFrom(\n                msg.sender,\n                address(this),\n                SafeMath.sub(_IncomingCRV, goodwillPortion)\n            ),\n            \"Error transferring CRV\"\n        );\n        \n        // Remove liquidity and get DAI\n        uint256 daiBought = _withdrawDAI(\n            SafeMath.sub(_IncomingCRV, goodwillPortion)\n        );\n        \n        // withdraw as ETH\n        if(_ToTokenAddress == address(0)) {\n            // Dai to ETH\n            uint256 ethBought = _token2Eth(\n                DaiTokenAddress,\n                daiBought,\n                address(this)\n            );\n            \n            // Payout ETH\n            _toWhomToIssue.transfer(ethBought);\n            \n        } else if(_ToTokenAddress == DaiTokenAddress) {\n            IERC20(DaiTokenAddress).transfer(\n                _toWhomToIssue,\n                daiBought\n            );\n        } else {\n            // Dai to ToToken AND Payout\n            uint256 ToTokensBought = _token2Token(\n                DaiTokenAddress,\n                _toWhomToIssue,\n                _ToTokenAddress,\n                daiBought\n            );\n        }\n        \n        return true;\n    }\n    \n    function _withdrawDAI(uint256 _amount)\n      internal\n      nonReentrant\n      returns(uint256 _daiReturned)\n    {   \n        // convert crv to pool's stable coins\n        _withdrawCurve(_amount);\n        \n        // get stable coins balance\n        uint256 _dai = IERC20(DaiTokenAddress).balanceOf(address(this));\n        uint256 _usdc = IERC20(UsdcTokenAddress).balanceOf(address(this));\n        uint256 _usdt = IERC20(UsdtTokenAddress).balanceOf(address(this));\n        uint256 _susd = IERC20(sUsdTokenAddress).balanceOf(address(this));\n        \n        require(_dai > 0 || _usdc > 0 || _usdt > 0 || _susd > 0, \"no stable coins found\");\n        \n        //convert to DAI\n        if (_usdc > 0) {\n            IsUSDCurveExchange(sUSDCurveExchangeAddress).exchange(1, 0, _usdc, 0);\n            require(IERC20(UsdcTokenAddress).balanceOf(address(this)) == 0, \"USDC remainder\");\n        }\n        if (_usdt > 0) {\n            IsUSDCurveExchange(sUSDCurveExchangeAddress).exchange(2, 0, _usdt, 0);\n            require(IERC20(UsdtTokenAddress).balanceOf(address(this)) == 0, \"USDT remainder\");\n        }\n        if (_susd > 0) {\n            IsUSDCurveExchange(sUSDCurveExchangeAddress).exchange(3, 0, _susd, 0);\n            require(IERC20(sUsdTokenAddress).balanceOf(address(this)) == 0, \"SUSD remainder\");\n        }\n        \n        _daiReturned = IERC20(DaiTokenAddress).balanceOf(address(this));\n    }\n\n    function _withdrawCurve(uint256 _amount) internal {\n      require(_amount > 0, \"deposit must be greater than 0\");\n      IsUSDCurveExchange(sUSDCurveExchangeAddress)\n        .remove_liquidity(\n            _amount,\n            [uint256(0),0,0,0]\n        );\n      require(IERC20(sUSDCurvePoolTokenAddress).balanceOf(address(this)) == 0, \"CURVE remainder\");\n    }\n    \n    function _token2Eth(\n        address _FromTokenContractAddress,\n        uint256 tokens2Trade,\n        address _toWhomToIssue\n    ) internal returns (uint256 ethBought) {\n\n            IuniswapExchange FromUniSwapExchangeContractAddress\n         = IuniswapExchange(\n            UniSwapFactoryAddress.getExchange(_FromTokenContractAddress)\n        );\n\n        IERC20(_FromTokenContractAddress).approve(\n            address(FromUniSwapExchangeContractAddress),\n            tokens2Trade\n        );\n\n        ethBought = FromUniSwapExchangeContractAddress.tokenToEthTransferInput(\n            tokens2Trade,\n            ((FromUniSwapExchangeContractAddress.getTokenToEthInputPrice(tokens2Trade)).mul(99).div(100)),\n            SafeMath.add(block.timestamp, 300),\n            _toWhomToIssue\n        );\n        require(ethBought > 0, \"Error in swapping Eth: 1\");\n    }\n    \n    /**\n    @notice This function is used to swap tokens\n    @param _FromTokenContractAddress The token address to swap from\n    @param _ToWhomToIssue The address to transfer after swap\n    @param _ToTokenContractAddress The token address to swap to\n    @param tokens2Trade The quantity of tokens to swap\n    @return The amount of tokens returned after swap\n     */\n    function _token2Token(\n        address _FromTokenContractAddress,\n        address _ToWhomToIssue,\n        address _ToTokenContractAddress,\n        uint256 tokens2Trade\n    ) internal returns (uint256 tokenBought) {\n\n        IuniswapExchange FromUniSwapExchangeContractAddress\n        = IuniswapExchange(\n            UniSwapFactoryAddress.getExchange(_FromTokenContractAddress)\n        );\n\n        IERC20(_FromTokenContractAddress).approve(\n            address(FromUniSwapExchangeContractAddress),\n            tokens2Trade\n        );\n\n        tokenBought = FromUniSwapExchangeContractAddress\n            .tokenToTokenTransferInput(\n            tokens2Trade,\n            1,\n            1,\n            SafeMath.add(now, 1800),\n            _ToWhomToIssue,\n            _ToTokenContractAddress\n        );\n        require(tokenBought > 0, \"Error in swapping ERC: 1\");\n    }\n\n    function inCaseTokengetsStuck(IERC20 _TokenAddress) public onlyOwner {\n        uint256 qty = _TokenAddress.balanceOf(address(this));\n        _TokenAddress.transfer(_owner, qty);\n    }\n\n    function set_new_goodwill(uint16 _new_goodwill) public onlyOwner {\n        require(\n            _new_goodwill > 0 && _new_goodwill < 10000,\n            \"GoodWill Value not allowed\"\n        );\n        goodwill = _new_goodwill;\n    }\n\n    function set_new_dzgoodwillAddress(address _new_dzgoodwillAddress)\n        public\n        onlyOwner\n    {\n        dzgoodwillAddress = _new_dzgoodwillAddress;\n    }\n\n    // - to Pause the contract\n    function toggleContractActive() public onlyOwner {\n        stopped = !stopped;\n    }\n\n    // - to withdraw any ETH balance sitting in the contract\n    function withdraw() public onlyOwner {\n        _owner.transfer(address(this).balance);\n    }\n\n    // - to kill the contract\n    function destruct() public onlyOwner {\n        selfdestruct(_owner);\n    }\n\n    function() external payable {}\n}",
  "sourcePath": "contracts/Not_upgradable_done/sUSDCurve_ZapOut.sol",
  "abi": [
    {
      "inputs": [
        {
          "internalType": "uint16",
          "name": "_goodwill",
          "type": "uint16"
        },
        {
          "internalType": "address",
          "name": "_dzgoodwillAddress",
          "type": "address"
        }
      ],
      "payable": false,
      "stateMutability": "nonpayable",
      "type": "constructor"
    },
    {
      "anonymous": false,
      "inputs": [
        {
          "indexed": true,
          "internalType": "address",
          "name": "previousOwner",
          "type": "address"
        },
        {
          "indexed": true,
          "internalType": "address",
          "name": "newOwner",
          "type": "address"
        }
      ],
      "name": "OwnershipTransferred",
      "type": "event"
    },
    {
      "payable": true,
      "stateMutability": "payable",
      "type": "fallback"
    },
    {
      "constant": true,
      "inputs": [],
      "name": "DaiTokenAddress",
      "outputs": [
        {
          "internalType": "address",
          "name": "",
          "type": "address"
        }
      ],
      "payable": false,
      "stateMutability": "view",
      "type": "function"
    },
    {
      "constant": true,
      "inputs": [],
      "name": "UniSwapFactoryAddress",
      "outputs": [
        {
          "internalType": "contract IuniswapFactory",
          "name": "",
          "type": "address"
        }
      ],
      "payable": false,
      "stateMutability": "view",
      "type": "function"
    },
    {
      "constant": true,
      "inputs": [],
      "name": "UsdcTokenAddress",
      "outputs": [
        {
          "internalType": "address",
          "name": "",
          "type": "address"
        }
      ],
      "payable": false,
      "stateMutability": "view",
      "type": "function"
    },
    {
      "constant": true,
      "inputs": [],
      "name": "UsdtTokenAddress",
      "outputs": [
        {
          "internalType": "address",
          "name": "",
          "type": "address"
        }
      ],
      "payable": false,
      "stateMutability": "view",
      "type": "function"
    },
    {
      "constant": false,
      "inputs": [
        {
          "internalType": "address payable",
          "name": "_toWhomToIssue",
          "type": "address"
        },
        {
          "internalType": "uint256",
          "name": "_IncomingCRV",
          "type": "uint256"
        },
        {
          "internalType": "address",
          "name": "_ToTokenAddress",
          "type": "address"
        }
      ],
      "name": "ZapOut",
      "outputs": [
        {
          "internalType": "bool",
          "name": "",
          "type": "bool"
        }
      ],
      "payable": true,
      "stateMutability": "payable",
      "type": "function"
    },
    {
      "constant": true,
      "inputs": [],
      "name": "_owner",
      "outputs": [
        {
          "internalType": "address payable",
          "name": "",
          "type": "address"
        }
      ],
      "payable": false,
      "stateMutability": "view",
      "type": "function"
    },
    {
      "constant": false,
      "inputs": [],
      "name": "approveToken",
      "outputs": [],
      "payable": false,
      "stateMutability": "nonpayable",
      "type": "function"
    },
    {
      "constant": false,
      "inputs": [],
      "name": "destruct",
      "outputs": [],
      "payable": false,
      "stateMutability": "nonpayable",
      "type": "function"
    },
    {
      "constant": true,
      "inputs": [],
      "name": "dzgoodwillAddress",
      "outputs": [
        {
          "internalType": "address",
          "name": "",
          "type": "address"
        }
      ],
      "payable": false,
      "stateMutability": "view",
      "type": "function"
    },
    {
      "constant": true,
      "inputs": [],
      "name": "goodwill",
      "outputs": [
        {
          "internalType": "uint16",
          "name": "",
          "type": "uint16"
        }
      ],
      "payable": false,
      "stateMutability": "view",
      "type": "function"
    },
    {
      "constant": false,
      "inputs": [
        {
          "internalType": "contract IERC20",
          "name": "_TokenAddress",
          "type": "address"
        }
      ],
      "name": "inCaseTokengetsStuck",
      "outputs": [],
      "payable": false,
      "stateMutability": "nonpayable",
      "type": "function"
    },
    {
      "constant": true,
      "inputs": [],
      "name": "isOwner",
      "outputs": [
        {
          "internalType": "bool",
          "name": "",
          "type": "bool"
        }
      ],
      "payable": false,
      "stateMutability": "view",
      "type": "function"
    },
    {
      "constant": true,
      "inputs": [],
      "name": "owner",
      "outputs": [
        {
          "internalType": "address",
          "name": "",
          "type": "address"
        }
      ],
      "payable": false,
      "stateMutability": "view",
      "type": "function"
    },
    {
      "constant": false,
      "inputs": [],
      "name": "renounceOwnership",
      "outputs": [],
      "payable": false,
      "stateMutability": "nonpayable",
      "type": "function"
    },
    {
      "constant": true,
      "inputs": [],
      "name": "sUSDCurveExchangeAddress",
      "outputs": [
        {
          "internalType": "address",
          "name": "",
          "type": "address"
        }
      ],
      "payable": false,
      "stateMutability": "view",
      "type": "function"
    },
    {
      "constant": true,
      "inputs": [],
      "name": "sUSDCurvePoolTokenAddress",
      "outputs": [
        {
          "internalType": "address",
          "name": "",
          "type": "address"
        }
      ],
      "payable": false,
      "stateMutability": "view",
      "type": "function"
    },
    {
      "constant": true,
      "inputs": [],
      "name": "sUsdTokenAddress",
      "outputs": [
        {
          "internalType": "address",
          "name": "",
          "type": "address"
        }
      ],
      "payable": false,
      "stateMutability": "view",
      "type": "function"
    },
    {
      "constant": false,
      "inputs": [
        {
          "internalType": "address",
          "name": "_new_dzgoodwillAddress",
          "type": "address"
        }
      ],
      "name": "set_new_dzgoodwillAddress",
      "outputs": [],
      "payable": false,
      "stateMutability": "nonpayable",
      "type": "function"
    },
    {
      "constant": false,
      "inputs": [
        {
          "internalType": "uint16",
          "name": "_new_goodwill",
          "type": "uint16"
        }
      ],
      "name": "set_new_goodwill",
      "outputs": [],
      "payable": false,
      "stateMutability": "nonpayable",
      "type": "function"
    },
    {
      "constant": false,
      "inputs": [],
      "name": "toggleContractActive",
      "outputs": [],
      "payable": false,
      "stateMutability": "nonpayable",
      "type": "function"
    },
    {
      "constant": false,
      "inputs": [
        {
          "internalType": "address payable",
          "name": "newOwner",
          "type": "address"
        }
      ],
      "name": "transferOwnership",
      "outputs": [],
      "payable": false,
      "stateMutability": "nonpayable",
      "type": "function"
    },
    {
      "constant": false,
      "inputs": [],
      "name": "withdraw",
      "outputs": [],
      "payable": false,
      "stateMutability": "nonpayable",
      "type": "function"
    }
  ],
  "bytecode": "0x60806040526000805460ff60a81b19169055600280546001600160a01b031990811673c0a47dfe034b400b47bdad5fecda2621de6c4d9517909155600380548216736b175474e89094c44da98b954eedeac495271d0f17905560048054821673a0b86991c6218b36c1d19d4a2e9eb0ce3606eb4817905560058054821673dac17f958d2ee523a2206206994597c13d831ec71790556006805482167357ab1ec28d129707052df4df418d58a2d46d5f5117905560078054821673a5407eae9ba41422680e2e00537571bcc53efbfd1790556008805490911673c25a3a3b969415c80451098fa907ec722572917f179055348015620000fc57600080fd5b5060405162002d7838038062002d78833981810160405260408110156200012257600080fd5b5080516020909101516000805460ff191660011781556200014b6001600160e01b03620001f716565b60008054610100600160a81b0319166101006001600160a01b038416908102919091178255604051929350917f8be0079c531659141344cd1fd0a4f28419497f9722a3daafe3b4186f6b6457e0908290a3506000805461ffff60b01b191676010000000000000000000000000000000000000000000061ffff851602179055600180546001600160a01b0319166001600160a01b038316179055620001ef620001fb565b505062000882565b3390565b600354600754604080517f095ea7b30000000000000000000000000000000000000000000000000000000081526001600160a01b03928316600482015260001960248201529051919092169163095ea7b39160448083019260209291908290030181600087803b1580156200026f57600080fd5b505af115801562000284573d6000803e3d6000fd5b505050506040513d60208110156200029b57600080fd5b505060048054600754604080517f095ea7b30000000000000000000000000000000000000000000000000000000081526001600160a01b039283169481019490945260001960248501525191169163095ea7b39160448083019260209291908290030181600087803b1580156200031157600080fd5b505af115801562000326573d6000803e3d6000fd5b505050506040513d60208110156200033d57600080fd5b5050600654600754604080517f095ea7b30000000000000000000000000000000000000000000000000000000081526001600160a01b03928316600482015260001960248201529051919092169163095ea7b39160448083019260209291908290030181600087803b158015620003b357600080fd5b505af1158015620003c8573d6000803e3d6000fd5b505050506040513d6020811015620003df57600080fd5b50506007546005546200040e916001600160a01b039182169116600019620004b2602090811b62001c7917901c565b600854600754604080517f095ea7b30000000000000000000000000000000000000000000000000000000081526001600160a01b03928316600482015260001960248201529051919092169163095ea7b39160448083019260209291908290030181600087803b1580156200048257600080fd5b505af115801562000497573d6000803e3d6000fd5b505050506040513d6020811015620004ae57600080fd5b5050565b801580620005555750604080517fdd62ed3e0000000000000000000000000000000000000000000000000000000081523060048201526001600160a01b03848116602483015291519185169163dd62ed3e91604480820192602092909190829003018186803b1580156200052557600080fd5b505afa1580156200053a573d6000803e3d6000fd5b505050506040513d60208110156200055157600080fd5b5051155b620005ac576040517f08c379a000000000000000000000000000000000000000000000000000000000815260040180806020018281038252603681526020018062002d426036913960400191505060405180910390fd5b604080516001600160a01b038416602482015260448082018490528251808303909101815260649091019091526020810180516001600160e01b039081167f095ea7b300000000000000000000000000000000000000000000000000000000179091526200061d9185916200062216565b505050565b62000641826001600160a01b03166200084560201b6200234e1760201c565b620006ad57604080517f08c379a000000000000000000000000000000000000000000000000000000000815260206004820152601f60248201527f5361666545524332303a2063616c6c20746f206e6f6e2d636f6e747261637400604482015290519081900360640190fd5b60006060836001600160a01b0316836040518082805190602001908083835b60208310620006ed5780518252601f199092019160209182019101620006cc565b6001836020036101000a0380198251168184511680821785525050505050509050019150506000604051808303816000865af19150503d806000811462000751576040519150601f19603f3d011682016040523d82523d6000602084013e62000756565b606091505b509150915081620007c857604080517f08c379a000000000000000000000000000000000000000000000000000000000815260206004820181905260248201527f5361666545524332303a206c6f772d6c6576656c2063616c6c206661696c6564604482015290519081900360640190fd5b8051156200083f57808060200190516020811015620007e657600080fd5b50516200083f576040517f08c379a000000000000000000000000000000000000000000000000000000000815260040180806020018281038252602a81526020018062002d18602a913960400191505060405180910390fd5b50505050565b6000813f7fc5d2460186f7233c927e7db2dcc703c0e500b653ca82273b7bfad8045d85a4708181148015906200087a57508115155b949350505050565b61248680620008926000396000f3fe6080604052600436106101555760003560e01c8063849e25f4116100bb5780639ca8431d1161007f578063b2bdfa7b11610059578063b2bdfa7b146103a3578063c3a8fcb0146103b8578063f2fde38b146103cd57610155565b80639ca8431d1461034b5780639d42ab5514610360578063b10e1dbc1461037557610155565b8063849e25f4146102c45780638da5cb5b146102f75780638f32d59b1461030c5780638f4b0da11461032157806399b71d5c1461033657610155565b80633d51d8881161011d5780635de0398e116100f75780635de0398e1461026e578063715018a61461029a5780637efeb4ad146102af57610155565b80633d51d888146101dc578063525d509e14610226578063551196d51461023b57610155565b80631385d24c146101575780632a0d86d91461016c5780632b68b9c61461019d57806331dad22d146101b25780633ccfd60b146101c7575b005b34801561016357600080fd5b50610155610400565b34801561017857600080fd5b50610181610468565b604080516001600160a01b039092168252519081900360200190f35b3480156101a957600080fd5b50610155610477565b3480156101be57600080fd5b506101816104d1565b3480156101d357600080fd5b506101556104e0565b610212600480360360608110156101f257600080fd5b506001600160a01b0381358116916020810135916040909101351661056c565b604080519115158252519081900360200190f35b34801561023257600080fd5b50610181610918565b34801561024757600080fd5b506101556004803603602081101561025e57600080fd5b50356001600160a01b0316610927565b34801561027a57600080fd5b50610283610a74565b6040805161ffff9092168252519081900360200190f35b3480156102a657600080fd5b50610155610a85565b3480156102bb57600080fd5b50610181610b28565b3480156102d057600080fd5b50610155600480360360208110156102e757600080fd5b50356001600160a01b0316610b37565b34801561030357600080fd5b50610181610bad565b34801561031857600080fd5b50610212610bc1565b34801561032d57600080fd5b50610181610bea565b34801561034257600080fd5b50610155610bf9565b34801561035757600080fd5b50610181610e38565b34801561036c57600080fd5b50610181610e47565b34801561038157600080fd5b506101556004803603602081101561039857600080fd5b503561ffff16610e56565b3480156103af57600080fd5b50610181610f29565b3480156103c457600080fd5b50610181610f3d565b3480156103d957600080fd5b50610155600480360360208110156103f057600080fd5b50356001600160a01b0316610f4c565b610408610bc1565b610447576040805162461bcd60e51b815260206004820181905260248201526000805160206123d2833981519152604482015290519081900360640190fd5b6000805460ff60a81b198116600160a81b9182900460ff1615909102179055565b6003546001600160a01b031681565b61047f610bc1565b6104be576040805162461bcd60e51b815260206004820181905260248201526000805160206123d2833981519152604482015290519081900360640190fd5b60005461010090046001600160a01b0316ff5b6004546001600160a01b031681565b6104e8610bc1565b610527576040805162461bcd60e51b815260206004820181905260248201526000805160206123d2833981519152604482015290519081900360640190fd5b600080546040516001600160a01b036101009092049190911691303180156108fc02929091818181858888f19350505050158015610569573d6000803e3d6000fd5b50565b60008054600160a81b900460ff16156105cc576040805162461bcd60e51b815260206004820152601260248201527f54656d706f726172696c79205061757365640000000000000000000000000000604482015290519081900360640190fd5b600080546105f2906105ea908690600160b01b900461ffff16610f9c565b612710610ffe565b600854600154604080516323b872dd60e01b81523360048201526001600160a01b0392831660248201526044810185905290519394509116916323b872dd916064808201926020929091908290030181600087803b15801561065357600080fd5b505af1158015610667573d6000803e3d6000fd5b505050506040513d602081101561067d57600080fd5b50516106d0576040805162461bcd60e51b815260206004820152601b60248201527f4572726f72207472616e7366657272696e6720676f6f6477696c6c0000000000604482015290519081900360640190fd5b6008546001600160a01b03166323b872dd33306106ed8886611040565b6040518463ffffffff1660e01b815260040180846001600160a01b03166001600160a01b03168152602001836001600160a01b03166001600160a01b031681526020018281526020019350505050602060405180830381600087803b15801561075557600080fd5b505af1158015610769573d6000803e3d6000fd5b505050506040513d602081101561077f57600080fd5b50516107d2576040805162461bcd60e51b815260206004820152601660248201527f4572726f72207472616e7366657272696e672043525600000000000000000000604482015290519081900360640190fd5b60006107e66107e18684611040565b611082565b90506001600160a01b03841661085057600354600090610810906001600160a01b031683306117ba565b6040519091506001600160a01b0388169082156108fc029083906000818181858888f19350505050158015610849573d6000803e3d6000fd5b505061090c565b6003546001600160a01b03858116911614156108ee576003546040805163a9059cbb60e01b81526001600160a01b038981166004830152602482018590529151919092169163a9059cbb9160448083019260209291908290030181600087803b1580156108bc57600080fd5b505af11580156108d0573d6000803e3d6000fd5b505050506040513d60208110156108e657600080fd5b5061090c9050565b600354600090610909906001600160a01b0316888785611a4d565b50505b50600195945050505050565b6002546001600160a01b031681565b61092f610bc1565b61096e576040805162461bcd60e51b815260206004820181905260248201526000805160206123d2833981519152604482015290519081900360640190fd5b604080516370a0823160e01b815230600482015290516000916001600160a01b038416916370a0823191602480820192602092909190829003018186803b1580156109b857600080fd5b505afa1580156109cc573d6000803e3d6000fd5b505050506040513d60208110156109e257600080fd5b5051600080546040805163a9059cbb60e01b81526101009092046001600160a01b03908116600484015260248301859052905193945085169263a9059cbb92604480840193602093929083900390910190829087803b158015610a4457600080fd5b505af1158015610a58573d6000803e3d6000fd5b505050506040513d6020811015610a6e57600080fd5b50505050565b600054600160b01b900461ffff1681565b610a8d610bc1565b610acc576040805162461bcd60e51b815260206004820181905260248201526000805160206123d2833981519152604482015290519081900360640190fd5b600080546040516101009091046001600160a01b0316907f8be0079c531659141344cd1fd0a4f28419497f9722a3daafe3b4186f6b6457e0908390a36000805474ffffffffffffffffffffffffffffffffffffffff0019169055565b6006546001600160a01b031681565b610b3f610bc1565b610b7e576040805162461bcd60e51b815260206004820181905260248201526000805160206123d2833981519152604482015290519081900360640190fd5b6001805473ffffffffffffffffffffffffffffffffffffffff19166001600160a01b0392909216919091179055565b60005461010090046001600160a01b031690565b6000805461010090046001600160a01b0316610bdb611c75565b6001600160a01b031614905090565b6007546001600160a01b031681565b6003546007546040805163095ea7b360e01b81526001600160a01b03928316600482015260001960248201529051919092169163095ea7b39160448083019260209291908290030181600087803b158015610c5357600080fd5b505af1158015610c67573d6000803e3d6000fd5b505050506040513d6020811015610c7d57600080fd5b5050600480546007546040805163095ea7b360e01b81526001600160a01b039283169481019490945260001960248501525191169163095ea7b39160448083019260209291908290030181600087803b158015610cd957600080fd5b505af1158015610ced573d6000803e3d6000fd5b505050506040513d6020811015610d0357600080fd5b50506006546007546040805163095ea7b360e01b81526001600160a01b03928316600482015260001960248201529051919092169163095ea7b39160448083019260209291908290030181600087803b158015610d5f57600080fd5b505af1158015610d73573d6000803e3d6000fd5b505050506040513d6020811015610d8957600080fd5b5050600754600554610db0916001600160a01b03918216911660001963ffffffff611c7916565b6008546007546040805163095ea7b360e01b81526001600160a01b03928316600482015260001960248201529051919092169163095ea7b39160448083019260209291908290030181600087803b158015610e0a57600080fd5b505af1158015610e1e573d6000803e3d6000fd5b505050506040513d6020811015610e3457600080fd5b5050565b6008546001600160a01b031681565b6005546001600160a01b031681565b610e5e610bc1565b610e9d576040805162461bcd60e51b815260206004820181905260248201526000805160206123d2833981519152604482015290519081900360640190fd5b60008161ffff16118015610eb657506127108161ffff16105b610f07576040805162461bcd60e51b815260206004820152601a60248201527f476f6f6457696c6c2056616c7565206e6f7420616c6c6f776564000000000000604482015290519081900360640190fd5b6000805461ffff909216600160b01b0261ffff60b01b19909216919091179055565b60005461010090046001600160a01b031681565b6001546001600160a01b031681565b610f54610bc1565b610f93576040805162461bcd60e51b815260206004820181905260248201526000805160206123d2833981519152604482015290519081900360640190fd5b61056981611da6565b600082610fab57506000610ff8565b82820282848281610fb857fe5b0414610ff55760405162461bcd60e51b81526004018080602001828103825260218152602001806123b16021913960400191505060405180910390fd5b90505b92915050565b6000610ff583836040518060400160405280601a81526020017f536166654d6174683a206469766973696f6e206279207a65726f000000000000815250611e5e565b6000610ff583836040518060400160405280601e81526020017f536166654d6174683a207375627472616374696f6e206f766572666c6f770000815250611f00565b6000805460ff166110da576040805162461bcd60e51b815260206004820152601f60248201527f5265656e7472616e637947756172643a207265656e7472616e742063616c6c00604482015290519081900360640190fd5b6000805460ff191690556110ed82611f5a565b600354604080516370a0823160e01b815230600482015290516000926001600160a01b0316916370a08231916024808301926020929190829003018186803b15801561113857600080fd5b505afa15801561114c573d6000803e3d6000fd5b505050506040513d602081101561116257600080fd5b505160048054604080516370a0823160e01b81523093810193909352519293506000926001600160a01b03909116916370a08231916024808301926020929190829003018186803b1580156111b657600080fd5b505afa1580156111ca573d6000803e3d6000fd5b505050506040513d60208110156111e057600080fd5b5051600554604080516370a0823160e01b815230600482015290519293506000926001600160a01b03909216916370a0823191602480820192602092909190829003018186803b15801561123357600080fd5b505afa158015611247573d6000803e3d6000fd5b505050506040513d602081101561125d57600080fd5b5051600654604080516370a0823160e01b815230600482015290519293506000926001600160a01b03909216916370a0823191602480820192602092909190829003018186803b1580156112b057600080fd5b505afa1580156112c4573d6000803e3d6000fd5b505050506040513d60208110156112da57600080fd5b50519050831515806112ec5750600083115b806112f75750600082115b806113025750600081115b611353576040805162461bcd60e51b815260206004820152601560248201527f6e6f20737461626c6520636f696e7320666f756e640000000000000000000000604482015290519081900360640190fd5b821561149c5760075460408051630f7c084960e21b815260016004820152600060248201819052604482018790526064820181905291516001600160a01b0390931692633df021249260848084019391929182900301818387803b1580156113ba57600080fd5b505af11580156113ce573d6000803e3d6000fd5b505060048054604080516370a0823160e01b81523093810193909352516001600160a01b0390911693506370a0823192506024808301926020929190829003018186803b15801561141e57600080fd5b505afa158015611432573d6000803e3d6000fd5b505050506040513d602081101561144857600080fd5b50511561149c576040805162461bcd60e51b815260206004820152600e60248201527f555344432072656d61696e646572000000000000000000000000000000000000604482015290519081900360640190fd5b81156115e45760075460408051630f7c084960e21b815260026004820152600060248201819052604482018690526064820181905291516001600160a01b0390931692633df021249260848084019391929182900301818387803b15801561150357600080fd5b505af1158015611517573d6000803e3d6000fd5b5050600554604080516370a0823160e01b815230600482015290516001600160a01b0390921693506370a082319250602480820192602092909190829003018186803b15801561156657600080fd5b505afa15801561157a573d6000803e3d6000fd5b505050506040513d602081101561159057600080fd5b5051156115e4576040805162461bcd60e51b815260206004820152600e60248201527f555344542072656d61696e646572000000000000000000000000000000000000604482015290519081900360640190fd5b801561172c5760075460408051630f7c084960e21b815260036004820152600060248201819052604482018590526064820181905291516001600160a01b0390931692633df021249260848084019391929182900301818387803b15801561164b57600080fd5b505af115801561165f573d6000803e3d6000fd5b5050600654604080516370a0823160e01b815230600482015290516001600160a01b0390921693506370a082319250602480820192602092909190829003018186803b1580156116ae57600080fd5b505afa1580156116c2573d6000803e3d6000fd5b505050506040513d60208110156116d857600080fd5b50511561172c576040805162461bcd60e51b815260206004820152600e60248201527f535553442072656d61696e646572000000000000000000000000000000000000604482015290519081900360640190fd5b600354604080516370a0823160e01b815230600482015290516001600160a01b03909216916370a0823191602480820192602092909190829003018186803b15801561177757600080fd5b505afa15801561178b573d6000803e3d6000fd5b505050506040513d60208110156117a157600080fd5b50516000805460ff191660011790559695505050505050565b600254604080516303795fb160e11b81526001600160a01b0386811660048301529151600093849316916306f2bf62916024808301926020929190829003018186803b15801561180957600080fd5b505afa15801561181d573d6000803e3d6000fd5b505050506040513d602081101561183357600080fd5b50516040805163095ea7b360e01b81526001600160a01b0380841660048301526024820188905291519293509087169163095ea7b3916044808201926020929091908290030181600087803b15801561188b57600080fd5b505af115801561189f573d6000803e3d6000fd5b505050506040513d60208110156118b557600080fd5b5050604080516395b68fe760e01b81526004810186905290516001600160a01b03831691637237e03191879161195b9160649161194f9160639188916395b68fe791602480820192602092909190829003018186803b15801561191757600080fd5b505afa15801561192b573d6000803e3d6000fd5b505050506040513d602081101561194157600080fd5b50519063ffffffff610f9c16565b9063ffffffff610ffe16565b6119674261012c61213c565b876040518563ffffffff1660e01b815260040180858152602001848152602001838152602001826001600160a01b03166001600160a01b03168152602001945050505050602060405180830381600087803b1580156119c557600080fd5b505af11580156119d9573d6000803e3d6000fd5b505050506040513d60208110156119ef57600080fd5b5051915081611a45576040805162461bcd60e51b815260206004820152601860248201527f4572726f7220696e207377617070696e67204574683a20310000000000000000604482015290519081900360640190fd5b509392505050565b600254604080516303795fb160e11b81526001600160a01b0387811660048301529151600093849316916306f2bf62916024808301926020929190829003018186803b158015611a9c57600080fd5b505afa158015611ab0573d6000803e3d6000fd5b505050506040513d6020811015611ac657600080fd5b50516040805163095ea7b360e01b81526001600160a01b0380841660048301526024820187905291519293509088169163095ea7b3916044808201926020929091908290030181600087803b158015611b1e57600080fd5b505af1158015611b32573d6000803e3d6000fd5b505050506040513d6020811015611b4857600080fd5b50506001600160a01b03811663f552d91b84600180611b694261070861213c565b604080517fffffffff0000000000000000000000000000000000000000000000000000000060e088901b16815260048101959095526024850193909352604484019190915260648301526001600160a01b03808a166084840152881660a48301525160c48083019260209291908290030181600087803b158015611bec57600080fd5b505af1158015611c00573d6000803e3d6000fd5b505050506040513d6020811015611c1657600080fd5b5051915081611c6c576040805162461bcd60e51b815260206004820152601860248201527f4572726f7220696e207377617070696e67204552433a20310000000000000000604482015290519081900360640190fd5b50949350505050565b3390565b801580611cff575060408051636eb1769f60e11b81523060048201526001600160a01b03848116602483015291519185169163dd62ed3e91604480820192602092909190829003018186803b158015611cd157600080fd5b505afa158015611ce5573d6000803e3d6000fd5b505050506040513d6020811015611cfb57600080fd5b5051155b611d3a5760405162461bcd60e51b815260040180806020018281038252603681526020018061241c6036913960400191505060405180910390fd5b604080516001600160a01b038416602482015260448082018490528251808303909101815260649091019091526020810180517bffffffffffffffffffffffffffffffffffffffffffffffffffffffff1663095ea7b360e01b179052611da1908490612196565b505050565b6001600160a01b038116611deb5760405162461bcd60e51b815260040180806020018281038252602681526020018061238b6026913960400191505060405180910390fd5b600080546040516001600160a01b038085169361010090930416917f8be0079c531659141344cd1fd0a4f28419497f9722a3daafe3b4186f6b6457e091a3600080546001600160a01b039092166101000274ffffffffffffffffffffffffffffffffffffffff0019909216919091179055565b60008183611eea5760405162461bcd60e51b81526004018080602001828103825283818151815260200191508051906020019080838360005b83811015611eaf578181015183820152602001611e97565b50505050905090810190601f168015611edc5780820380516001836020036101000a031916815260200191505b509250505060405180910390fd5b506000838581611ef657fe5b0495945050505050565b60008184841115611f525760405162461bcd60e51b8152602060048201818152835160248401528351909283926044909101919085019080838360008315611eaf578181015183820152602001611e97565b505050900390565b60008111611faf576040805162461bcd60e51b815260206004820152601e60248201527f6465706f736974206d7573742062652067726561746572207468616e20300000604482015290519081900360640190fd5b600760009054906101000a90046001600160a01b03166001600160a01b0316637d49d87582604051806080016040528060008152602001600081526020016000815260200160008152506040518363ffffffff1660e01b81526004018083815260200182600460200280838360005b8381101561203657818101518382015260200161201e565b5050505090500192505050600060405180830381600087803b15801561205b57600080fd5b505af115801561206f573d6000803e3d6000fd5b5050600854604080516370a0823160e01b815230600482015290516001600160a01b0390921693506370a082319250602480820192602092909190829003018186803b1580156120be57600080fd5b505afa1580156120d2573d6000803e3d6000fd5b505050506040513d60208110156120e857600080fd5b505115610569576040805162461bcd60e51b815260206004820152600f60248201527f43555256452072656d61696e6465720000000000000000000000000000000000604482015290519081900360640190fd5b600082820183811015610ff5576040805162461bcd60e51b815260206004820152601b60248201527f536166654d6174683a206164646974696f6e206f766572666c6f770000000000604482015290519081900360640190fd5b6121a8826001600160a01b031661234e565b6121f9576040805162461bcd60e51b815260206004820152601f60248201527f5361666545524332303a2063616c6c20746f206e6f6e2d636f6e747261637400604482015290519081900360640190fd5b60006060836001600160a01b0316836040518082805190602001908083835b602083106122375780518252601f199092019160209182019101612218565b6001836020036101000a0380198251168184511680821785525050505050509050019150506000604051808303816000865af19150503d8060008114612299576040519150601f19603f3d011682016040523d82523d6000602084013e61229e565b606091505b5091509150816122f5576040805162461bcd60e51b815260206004820181905260248201527f5361666545524332303a206c6f772d6c6576656c2063616c6c206661696c6564604482015290519081900360640190fd5b805115610a6e5780806020019051602081101561231157600080fd5b5051610a6e5760405162461bcd60e51b815260040180806020018281038252602a8152602001806123f2602a913960400191505060405180910390fd5b6000813f7fc5d2460186f7233c927e7db2dcc703c0e500b653ca82273b7bfad8045d85a47081811480159061238257508115155b94935050505056fe4f776e61626c653a206e6577206f776e657220697320746865207a65726f2061646472657373536166654d6174683a206d756c7469706c69636174696f6e206f766572666c6f774f776e61626c653a2063616c6c6572206973206e6f7420746865206f776e65725361666545524332303a204552433230206f7065726174696f6e20646964206e6f7420737563636565645361666545524332303a20617070726f76652066726f6d206e6f6e2d7a65726f20746f206e6f6e2d7a65726f20616c6c6f77616e6365a265627a7a723158204cadb5da12626bfd50eaac021f062a43315b208b7ce958936370f4a2ef2189bb64736f6c634300050d00325361666545524332303a204552433230206f7065726174696f6e20646964206e6f7420737563636565645361666545524332303a20617070726f76652066726f6d206e6f6e2d7a65726f20746f206e6f6e2d7a65726f20616c6c6f77616e6365",
  "compiler": {
    "name": "solc",
    "version": "0.5.13+commit.5b0b510c.Emscripten.clang",
    "optimizer": {
      "enabled": true,
      "runs": 500
    },
    "evmVersion": "petersburg"
  }
}