{
  "fileName": "Unipool_Bridge_Zap_v1_2_flat.sol",
  "contractName": "Unipool_Bridge_Zap_V1",
  "source": "\n// File: browser/OpenZepplinIERC20.sol\n\npragma solidity ^0.5.0;\n\n/**\n * @dev Interface of the ERC20 standard as defined in the EIP. Does not include\n * the optional functions; to access them see {ERC20Detailed}.\n */\ninterface IERC20 {\n    /**\n     * @dev Returns the amount of tokens in existence.\n     */\n    function totalSupply() external view returns (uint256);\n\n    /**\n     * @dev Returns the amount of tokens owned by `account`.\n     */\n    function balanceOf(address account) external view returns (uint256);\n\n    /**\n     * @dev Moves `amount` tokens from the caller's account to `recipient`.\n     *\n     * Returns a boolean value indicating whether the operation succeeded.\n     *\n     * Emits a {Transfer} event.\n     */\n    function transfer(address recipient, uint256 amount) external returns (bool);\n\n    /**\n     * @dev Returns the remaining number of tokens that `spender` will be\n     * allowed to spend on behalf of `owner` through {transferFrom}. This is\n     * zero by default.\n     *\n     * This value changes when {approve} or {transferFrom} are called.\n     */\n    function allowance(address owner, address spender) external view returns (uint256);\n\n    /**\n     * @dev Sets `amount` as the allowance of `spender` over the caller's tokens.\n     *\n     * Returns a boolean value indicating whether the operation succeeded.\n     *\n     * IMPORTANT: Beware that changing an allowance with this method brings the risk\n     * that someone may use both the old and the new allowance by unfortunate\n     * transaction ordering. One possible solution to mitigate this race\n     * condition is to first reduce the spender's allowance to 0 and set the\n     * desired value afterwards:\n     * https://github.com/ethereum/EIPs/issues/20#issuecomment-263524729\n     *\n     * Emits an {Approval} event.\n     */\n    function approve(address spender, uint256 amount) external returns (bool);\n\n    /**\n     * @dev Moves `amount` tokens from `sender` to `recipient` using the\n     * allowance mechanism. `amount` is then deducted from the caller's\n     * allowance.\n     *\n     * Returns a boolean value indicating whether the operation succeeded.\n     *\n     * Emits a {Transfer} event.\n     */\n    function transferFrom(address sender, address recipient, uint256 amount) external returns (bool);\n\n    /**\n     * @dev Emitted when `value` tokens are moved from one account (`from`) to\n     * another (`to`).\n     *\n     * Note that `value` may be zero.\n     */\n    event Transfer(address indexed from, address indexed to, uint256 value);\n\n    /**\n     * @dev Emitted when the allowance of a `spender` for an `owner` is set by\n     * a call to {approve}. `value` is the new allowance.\n     */\n    event Approval(address indexed owner, address indexed spender, uint256 value);\n}\n// File: browser/Context.sol\n\npragma solidity ^0.5.0;\n\n/*\n * @dev Provides information about the current execution context, including the\n * sender of the transaction and its data. While these are generally available\n * via msg.sender and msg.data, they should not be accessed in such a direct\n * manner, since when dealing with GSN meta-transactions the account sending and\n * paying for execution may not be the actual sender (as far as an application\n * is concerned).\n *\n * This contract is only required for intermediate, library-like contracts.\n */\ncontract Context {\n    // Empty internal constructor, to prevent people from mistakenly deploying\n    // an instance of this contract, which should be used via inheritance.\n    constructor () internal { }\n    // solhint-disable-previous-line no-empty-blocks\n\n    function _msgSender() internal view returns (address payable) {\n        return msg.sender;\n    }\n\n    function _msgData() internal view returns (bytes memory) {\n        this; // silence state mutability warning without generating bytecode - see https://github.com/ethereum/solidity/issues/2691\n        return msg.data;\n    }\n}\n// File: browser/OpenZepplinOwnable.sol\n\npragma solidity ^0.5.0;\n\n/**\n * @dev Contract module which provides a basic access control mechanism, where\n * there is an account (an owner) that can be granted exclusive access to\n * specific functions.\n *\n * This module is used through inheritance. It will make available the modifier\n * `onlyOwner`, which can be applied to your functions to restrict their use to\n * the owner.\n */\ncontract Ownable is Context {\n    address payable public _owner;\n\n    event OwnershipTransferred(address indexed previousOwner, address indexed newOwner);\n\n    /**\n     * @dev Initializes the contract setting the deployer as the initial owner.\n     */\n    constructor () internal {\n        address payable msgSender = _msgSender();\n        _owner = msgSender;\n        emit OwnershipTransferred(address(0), msgSender);\n    }\n\n    /**\n     * @dev Returns the address of the current owner.\n     */\n    function owner() public view returns (address) {\n        return _owner;\n    }\n\n    /**\n     * @dev Throws if called by any account other than the owner.\n     */\n    modifier onlyOwner() {\n        require(isOwner(), \"Ownable: caller is not the owner\");\n        _;\n    }\n\n    /**\n     * @dev Returns true if the caller is the current owner.\n     */\n    function isOwner() public view returns (bool) {\n        return _msgSender() == _owner;\n    }\n\n    /**\n     * @dev Leaves the contract without owner. It will not be possible to call\n     * `onlyOwner` functions anymore. Can only be called by the current owner.\n     *\n     * NOTE: Renouncing ownership will leave the contract without an owner,\n     * thereby removing any functionality that is only available to the owner.\n     */\n    function renounceOwnership() public onlyOwner {\n        emit OwnershipTransferred(_owner, address(0));\n        _owner = address(0);\n    }\n\n    /**\n     * @dev Transfers ownership of the contract to a new account (`newOwner`).\n     * Can only be called by the current owner.\n     */\n    function transferOwnership(address payable newOwner) public onlyOwner {\n        _transferOwnership(newOwner);\n    }\n\n    /**\n     * @dev Transfers ownership of the contract to a new account (`newOwner`).\n     */\n    function _transferOwnership(address payable newOwner) internal {\n        require(newOwner != address(0), \"Ownable: new owner is the zero address\");\n        emit OwnershipTransferred(_owner, newOwner);\n        _owner = newOwner;\n    }\n}\n// File: browser/OpenZepplinSafeMath.sol\n\npragma solidity ^0.5.0;\n\n/**\n * @dev Wrappers over Solidity's arithmetic operations with added overflow\n * checks.\n *\n * Arithmetic operations in Solidity wrap on overflow. This can easily result\n * in bugs, because programmers usually assume that an overflow raises an\n * error, which is the standard behavior in high level programming languages.\n * `SafeMath` restores this intuition by reverting the transaction when an\n * operation overflows.\n *\n * Using this library instead of the unchecked operations eliminates an entire\n * class of bugs, so it's recommended to use it always.\n */\nlibrary SafeMath {\n    /**\n     * @dev Returns the addition of two unsigned integers, reverting on\n     * overflow.\n     *\n     * Counterpart to Solidity's `+` operator.\n     *\n     * Requirements:\n     * - Addition cannot overflow.\n     */\n    function add(uint256 a, uint256 b) internal pure returns (uint256) {\n        uint256 c = a + b;\n        require(c >= a, \"SafeMath: addition overflow\");\n\n        return c;\n    }\n\n    /**\n     * @dev Returns the subtraction of two unsigned integers, reverting on\n     * overflow (when the result is negative).\n     *\n     * Counterpart to Solidity's `-` operator.\n     *\n     * Requirements:\n     * - Subtraction cannot overflow.\n     */\n    function sub(uint256 a, uint256 b) internal pure returns (uint256) {\n        return sub(a, b, \"SafeMath: subtraction overflow\");\n    }\n\n    /**\n     * @dev Returns the subtraction of two unsigned integers, reverting with custom message on\n     * overflow (when the result is negative).\n     *\n     * Counterpart to Solidity's `-` operator.\n     *\n     * Requirements:\n     * - Subtraction cannot overflow.\n     *\n     * _Available since v2.4.0._\n     */\n    function sub(uint256 a, uint256 b, string memory errorMessage) internal pure returns (uint256) {\n        require(b <= a, errorMessage);\n        uint256 c = a - b;\n\n        return c;\n    }\n\n    /**\n     * @dev Returns the multiplication of two unsigned integers, reverting on\n     * overflow.\n     *\n     * Counterpart to Solidity's `*` operator.\n     *\n     * Requirements:\n     * - Multiplication cannot overflow.\n     */\n    function mul(uint256 a, uint256 b) internal pure returns (uint256) {\n        // Gas optimization: this is cheaper than requiring 'a' not being zero, but the\n        // benefit is lost if 'b' is also tested.\n        // See: https://github.com/OpenZeppelin/openzeppelin-contracts/pull/522\n        if (a == 0) {\n            return 0;\n        }\n\n        uint256 c = a * b;\n        require(c / a == b, \"SafeMath: multiplication overflow\");\n\n        return c;\n    }\n\n    /**\n     * @dev Returns the integer division of two unsigned integers. Reverts on\n     * division by zero. The result is rounded towards zero.\n     *\n     * Counterpart to Solidity's `/` operator. Note: this function uses a\n     * `revert` opcode (which leaves remaining gas untouched) while Solidity\n     * uses an invalid opcode to revert (consuming all remaining gas).\n     *\n     * Requirements:\n     * - The divisor cannot be zero.\n     */\n    function div(uint256 a, uint256 b) internal pure returns (uint256) {\n        return div(a, b, \"SafeMath: division by zero\");\n    }\n\n    /**\n     * @dev Returns the integer division of two unsigned integers. Reverts with custom message on\n     * division by zero. The result is rounded towards zero.\n     *\n     * Counterpart to Solidity's `/` operator. Note: this function uses a\n     * `revert` opcode (which leaves remaining gas untouched) while Solidity\n     * uses an invalid opcode to revert (consuming all remaining gas).\n     *\n     * Requirements:\n     * - The divisor cannot be zero.\n     *\n     * _Available since v2.4.0._\n     */\n    function div(uint256 a, uint256 b, string memory errorMessage) internal pure returns (uint256) {\n        // Solidity only automatically asserts when dividing by 0\n        require(b > 0, errorMessage);\n        uint256 c = a / b;\n        // assert(a == b * c + a % b); // There is no case in which this doesn't hold\n\n        return c;\n    }\n\n    /**\n     * @dev Returns the remainder of dividing two unsigned integers. (unsigned integer modulo),\n     * Reverts when dividing by zero.\n     *\n     * Counterpart to Solidity's `%` operator. This function uses a `revert`\n     * opcode (which leaves remaining gas untouched) while Solidity uses an\n     * invalid opcode to revert (consuming all remaining gas).\n     *\n     * Requirements:\n     * - The divisor cannot be zero.\n     */\n    function mod(uint256 a, uint256 b) internal pure returns (uint256) {\n        return mod(a, b, \"SafeMath: modulo by zero\");\n    }\n\n    /**\n     * @dev Returns the remainder of dividing two unsigned integers. (unsigned integer modulo),\n     * Reverts with custom message when dividing by zero.\n     *\n     * Counterpart to Solidity's `%` operator. This function uses a `revert`\n     * opcode (which leaves remaining gas untouched) while Solidity uses an\n     * invalid opcode to revert (consuming all remaining gas).\n     *\n     * Requirements:\n     * - The divisor cannot be zero.\n     *\n     * _Available since v2.4.0._\n     */\n    function mod(uint256 a, uint256 b, string memory errorMessage) internal pure returns (uint256) {\n        require(b != 0, errorMessage);\n        return a % b;\n    }\n}\n// File: browser/OpenZepplinReentrancyGuard.sol\n\npragma solidity ^0.5.0;\n\n/**\n * @dev Contract module that helps prevent reentrant calls to a function.\n *\n * Inheriting from `ReentrancyGuard` will make the {nonReentrant} modifier\n * available, which can be applied to functions to make sure there are no nested\n * (reentrant) calls to them.\n *\n * Note that because there is a single `nonReentrant` guard, functions marked as\n * `nonReentrant` may not call one another. This can be worked around by making\n * those functions `private`, and then adding `external` `nonReentrant` entry\n * points to them.\n *\n * _Since v2.5.0:_ this module is now much more gas efficient, given net gas\n * metering changes introduced in the Istanbul hardfork.\n */\ncontract ReentrancyGuard {\n    bool private _notEntered;\n\n    constructor () internal {\n        // Storing an initial non-zero value makes deployment a bit more\n        // expensive, but in exchange the refund on every call to nonReentrant\n        // will be lower in amount. Since refunds are capped to a percetange of\n        // the total transaction's gas, it is best to keep them low in cases\n        // like this one, to increase the likelihood of the full refund coming\n        // into effect.\n        _notEntered = true;\n    }\n\n    /**\n     * @dev Prevents a contract from calling itself, directly or indirectly.\n     * Calling a `nonReentrant` function from another `nonReentrant`\n     * function is not supported. It is possible to prevent this from happening\n     * by making the `nonReentrant` function external, and make it call a\n     * `private` function that does the actual work.\n     */\n    modifier nonReentrant() {\n        // On the first call to nonReentrant, _notEntered will be true\n        require(_notEntered, \"ReentrancyGuard: reentrant call\");\n\n        // Any calls to nonReentrant after this point will fail\n        _notEntered = false;\n\n        _;\n\n        // By storing the original value once again, a refund is triggered (see\n        // https://eips.ethereum.org/EIPS/eip-2200)\n        _notEntered = true;\n    }\n}\n// File: browser/Unipool_Bridge_Zap_v1_2.sol\n\n// Copyright (C) 2019, 2020 dipeshsukhani, nodar, suhailg\n\n// This program is free software: you can redistribute it and/or modify\n// it under the terms of the GNU Affero General Public License as published by\n// the Free Software Foundation, either version 2 of the License, or\n// (at your option) any later version.\n//\n// This program is distributed in the hope that it will be useful,\n// but WITHOUT ANY WARRANTY; without even the implied warranty of\n// MERCHANTABILITY or FITNESS FOR A PARTICULAR PURPOSE.  See the\n// GNU Affero General Public License for more details.\n//\n// Visit <https://www.gnu.org/licenses/>for a copy of the GNU Affero General Public License\n\n// File: localhost/defizap/node_modules/@openzeppelin/contracts-ethereum-package/contracts/token/ERC20/IERC20.sol\n\n///@author DeFiZap\n///@notice this contract implements one click swapping among Uniswap Pools\n\n// interface\ninterface IuniswapFactory_Unipool_Bridge_Zap_V1 {\n    function getExchange(address token)\n        external\n        view\n        returns (address exchange);\n}\n\n\ninterface Iuniswap_Unipool_Bridge_Zap_V1 {\n    function getTokenToEthInputPrice(uint256 tokens_sold)\n        external\n        view\n        returns (uint256 eth_bought);\n\n    // for removing liquidity (returns ETH removed, ERC20 Removed)\n    function removeLiquidity(\n        uint256 amount,\n        uint256 min_eth,\n        uint256 min_tokens,\n        uint256 deadline\n    ) external returns (uint256, uint256);\n\n    // converting ERC20 to ERC20 and transfer\n    function tokenToTokenSwapInput(\n        uint256 tokens_sold,\n        uint256 min_tokens_bought,\n        uint256 min_eth_bought,\n        uint256 deadline,\n        address token_addr\n    ) external returns (uint256 tokens_bought);\n\n    // add liquidity to a pool (returns LP tokens rec)\n    function addLiquidity(\n        uint256 min_liquidity,\n        uint256 max_tokens,\n        uint256 deadline\n    ) external payable returns (uint256);\n\n    function balanceOf(address _owner) external view returns (uint256);\n\n    function transfer(address _to, uint256 _value) external returns (bool);\n\n    function transferFrom(address from, address to, uint256 tokens)\n        external\n        returns (bool success);\n}\n\npragma solidity ^0.5.13;\n\n\ncontract Unipool_Bridge_Zap_V1 is ReentrancyGuard, Ownable {\n    using SafeMath for uint256;\n    bool private stopped = false;\n    uint16 public goodwill;\n    address public dzgoodwillAddress;\n    IuniswapFactory_Unipool_Bridge_Zap_V1 public UniSwapFactoryAddress = IuniswapFactory_Unipool_Bridge_Zap_V1(\n        0xc0a47dFe034B400B47bDaD5FecDa2621de6c4d95\n    );\n\n    constructor(uint16 _goodwill, address payable _dzgoodwillAddress) public {\n        goodwill = _goodwill;\n        dzgoodwillAddress = _dzgoodwillAddress;\n    }\n\n    // circuit breaker modifiers\n    modifier stopInEmergency {\n        if (stopped) {\n            revert(\"Temporarily Paused\");\n        } else {\n            _;\n        }\n    }\n\n    function set_new_UniSwapFactoryAddress(address _new_UniSwapFactoryAddress)\n        public\n        onlyOwner\n    {\n        UniSwapFactoryAddress = IuniswapFactory_Unipool_Bridge_Zap_V1(\n            _new_UniSwapFactoryAddress\n        );\n    }\n\n    function set_new_goodwill(uint16 _new_goodwill) public onlyOwner {\n        require(\n            _new_goodwill > 0 && _new_goodwill < 10000,\n            \"GoodWill Value not allowed\"\n        );\n        goodwill = _new_goodwill;\n    }\n\n    function set_new_dzgoodwillAddress(address _new_dzgoodwillAddress)\n        public\n        onlyOwner\n    {\n        dzgoodwillAddress = _new_dzgoodwillAddress;\n    }\n\n    function ZapBridge(\n        address _toWhomToIssue,\n        address _FromTokenContractAddress,\n        address _ToTokenContractAddress,\n        uint256 _IncomingLP\n    ) public payable nonReentrant stopInEmergency returns (bool) {\n        require(\n            _FromTokenContractAddress != _ToTokenContractAddress,\n            \"Cannot bridge to same pool\"\n        );\n\n        uint256 goodwillPortion = SafeMath.div(\n            SafeMath.mul(_IncomingLP, goodwill),\n            10000\n        );\n\n        (uint256 ethReceived, uint256 erc20received) = _exitFromPool(\n            _IncomingLP,\n            goodwillPortion,\n            _FromTokenContractAddress\n        );\n\n        (uint256 LiquidityTokens, uint256 eth4Token) = _enterToPool(\n            erc20received,\n            _FromTokenContractAddress,\n            _ToTokenContractAddress\n        );\n\n        _transfer(\n            LiquidityTokens,\n            ethReceived.sub(eth4Token),\n            _toWhomToIssue,\n            _ToTokenContractAddress\n        );\n        return true;\n    }\n\n    function _enterToPool(\n        uint256 erc20received,\n        address _FromTokenContractAddress,\n        address _ToTokenContractAddress\n    ) internal returns (uint256 LiquidityTokens, uint256 eth4Token) {\n\n            Iuniswap_Unipool_Bridge_Zap_V1 FromUniSwapExchangeContractAddress\n         = Iuniswap_Unipool_Bridge_Zap_V1(\n            UniSwapFactoryAddress.getExchange(_FromTokenContractAddress)\n        );\n\n\n            Iuniswap_Unipool_Bridge_Zap_V1 ToUniSwapExchangeContractAddress\n         = Iuniswap_Unipool_Bridge_Zap_V1(\n            UniSwapFactoryAddress.getExchange(_ToTokenContractAddress)\n        );\n\n        IERC20(_FromTokenContractAddress).approve(\n            address(FromUniSwapExchangeContractAddress),\n            erc20received\n        );\n\n        uint256 erc20bought = FromUniSwapExchangeContractAddress\n            .tokenToTokenSwapInput(\n            erc20received,\n            1,\n            1,\n            SafeMath.add(now, 1800),\n            _ToTokenContractAddress\n        );\n\n        require(erc20bought > 0, \"Error in swapping ERC\");\n\n        IERC20(_ToTokenContractAddress).approve(\n            address(ToUniSwapExchangeContractAddress),\n            erc20bought.mul(2)\n        );\n\n        eth4Token = ToUniSwapExchangeContractAddress.getTokenToEthInputPrice(\n            erc20bought\n        );\n        LiquidityTokens = ToUniSwapExchangeContractAddress.addLiquidity.value(\n            eth4Token\n        )(1, erc20bought, SafeMath.add(now, 1800));\n        require(LiquidityTokens > 0, \"Error in acquiring LP\");\n    }\n\n    function _exitFromPool(\n        uint256 _IncomingLP,\n        uint256 goodwillPortion,\n        address _FromTokenContractAddress\n    ) internal returns (uint256 ethReceived, uint256 erc20received) {\n\n            Iuniswap_Unipool_Bridge_Zap_V1 FromUniSwapExchangeContractAddress\n         = Iuniswap_Unipool_Bridge_Zap_V1(\n            UniSwapFactoryAddress.getExchange(_FromTokenContractAddress)\n        );\n        require(\n            FromUniSwapExchangeContractAddress.transferFrom(\n                msg.sender,\n                address(this),\n                SafeMath.sub(_IncomingLP, goodwillPortion)\n            ),\n            \"Error in transferring LP:1\"\n        );\n        require(\n            FromUniSwapExchangeContractAddress.transferFrom(\n                msg.sender,\n                dzgoodwillAddress,\n                goodwillPortion\n            ),\n            \"Error in transferring LP:2\"\n        );\n\n        (ethReceived, erc20received) = FromUniSwapExchangeContractAddress\n            .removeLiquidity(\n            SafeMath.sub(_IncomingLP, goodwillPortion),\n            1,\n            1,\n            SafeMath.add(now, 1800)\n        );\n    }\n\n    function _transfer(\n        uint256 _LiquidityTokens,\n        uint256 _residualEth,\n        address _toWhomToIssue,\n        address _ToTokenContractAddress\n    ) internal {\n\n            Iuniswap_Unipool_Bridge_Zap_V1 ToUniSwapExchangeContractAddress\n         = Iuniswap_Unipool_Bridge_Zap_V1(\n            UniSwapFactoryAddress.getExchange(_ToTokenContractAddress)\n        );\n        IERC20 ToTokenContractAddress = IERC20(_ToTokenContractAddress);\n        require(\n            ToUniSwapExchangeContractAddress.transfer(\n                _toWhomToIssue,\n                _LiquidityTokens\n            ),\n            \"Error in transferring LP:3\"\n        );\n        uint256 residualTokens = ToTokenContractAddress.balanceOf(\n            address(this)\n        );\n        require(\n            ToTokenContractAddress.transfer(_toWhomToIssue, residualTokens),\n            \"Error in returning residual tokens\"\n        );\n        (bool success, ) = _toWhomToIssue.call.value(_residualEth)(\"\");\n        require(success, \"Error in returning residual tokens\");\n    }\n\n    function inCaseTokengetsStuck(IERC20 _TokenAddress) public onlyOwner {\n        uint256 qty = _TokenAddress.balanceOf(address(this));\n        _TokenAddress.transfer(_owner, qty);\n    }\n\n    // - to Pause the contract\n    function toggleContractActive() public onlyOwner {\n        stopped = !stopped;\n    }\n\n    // - to withdraw any ETH balance sitting in the contract\n    function withdraw() public onlyOwner {\n        _owner.transfer(address(this).balance);\n    }\n\n    // - to kill the contract\n    function destruct() public onlyOwner {\n        selfdestruct(_owner);\n    }\n\n    function() external payable {}\n}\n",
  "sourcePath": "contracts/Not_upgradable_done/Unipool_Bridge_Zap_v1_2_flat.sol",
  "abi": [
    {
      "inputs": [
        {
          "internalType": "uint16",
          "name": "_goodwill",
          "type": "uint16"
        },
        {
          "internalType": "address payable",
          "name": "_dzgoodwillAddress",
          "type": "address"
        }
      ],
      "payable": false,
      "stateMutability": "nonpayable",
      "type": "constructor"
    },
    {
      "anonymous": false,
      "inputs": [
        {
          "indexed": true,
          "internalType": "address",
          "name": "previousOwner",
          "type": "address"
        },
        {
          "indexed": true,
          "internalType": "address",
          "name": "newOwner",
          "type": "address"
        }
      ],
      "name": "OwnershipTransferred",
      "type": "event"
    },
    {
      "payable": true,
      "stateMutability": "payable",
      "type": "fallback"
    },
    {
      "constant": true,
      "inputs": [],
      "name": "UniSwapFactoryAddress",
      "outputs": [
        {
          "internalType": "contract IuniswapFactory_Unipool_Bridge_Zap_V1",
          "name": "",
          "type": "address"
        }
      ],
      "payable": false,
      "stateMutability": "view",
      "type": "function"
    },
    {
      "constant": false,
      "inputs": [
        {
          "internalType": "address",
          "name": "_toWhomToIssue",
          "type": "address"
        },
        {
          "internalType": "address",
          "name": "_FromTokenContractAddress",
          "type": "address"
        },
        {
          "internalType": "address",
          "name": "_ToTokenContractAddress",
          "type": "address"
        },
        {
          "internalType": "uint256",
          "name": "_IncomingLP",
          "type": "uint256"
        }
      ],
      "name": "ZapBridge",
      "outputs": [
        {
          "internalType": "bool",
          "name": "",
          "type": "bool"
        }
      ],
      "payable": true,
      "stateMutability": "payable",
      "type": "function"
    },
    {
      "constant": true,
      "inputs": [],
      "name": "_owner",
      "outputs": [
        {
          "internalType": "address payable",
          "name": "",
          "type": "address"
        }
      ],
      "payable": false,
      "stateMutability": "view",
      "type": "function"
    },
    {
      "constant": false,
      "inputs": [],
      "name": "destruct",
      "outputs": [],
      "payable": false,
      "stateMutability": "nonpayable",
      "type": "function"
    },
    {
      "constant": true,
      "inputs": [],
      "name": "dzgoodwillAddress",
      "outputs": [
        {
          "internalType": "address",
          "name": "",
          "type": "address"
        }
      ],
      "payable": false,
      "stateMutability": "view",
      "type": "function"
    },
    {
      "constant": true,
      "inputs": [],
      "name": "goodwill",
      "outputs": [
        {
          "internalType": "uint16",
          "name": "",
          "type": "uint16"
        }
      ],
      "payable": false,
      "stateMutability": "view",
      "type": "function"
    },
    {
      "constant": false,
      "inputs": [
        {
          "internalType": "contract IERC20",
          "name": "_TokenAddress",
          "type": "address"
        }
      ],
      "name": "inCaseTokengetsStuck",
      "outputs": [],
      "payable": false,
      "stateMutability": "nonpayable",
      "type": "function"
    },
    {
      "constant": true,
      "inputs": [],
      "name": "isOwner",
      "outputs": [
        {
          "internalType": "bool",
          "name": "",
          "type": "bool"
        }
      ],
      "payable": false,
      "stateMutability": "view",
      "type": "function"
    },
    {
      "constant": true,
      "inputs": [],
      "name": "owner",
      "outputs": [
        {
          "internalType": "address",
          "name": "",
          "type": "address"
        }
      ],
      "payable": false,
      "stateMutability": "view",
      "type": "function"
    },
    {
      "constant": false,
      "inputs": [],
      "name": "renounceOwnership",
      "outputs": [],
      "payable": false,
      "stateMutability": "nonpayable",
      "type": "function"
    },
    {
      "constant": false,
      "inputs": [
        {
          "internalType": "address",
          "name": "_new_UniSwapFactoryAddress",
          "type": "address"
        }
      ],
      "name": "set_new_UniSwapFactoryAddress",
      "outputs": [],
      "payable": false,
      "stateMutability": "nonpayable",
      "type": "function"
    },
    {
      "constant": false,
      "inputs": [
        {
          "internalType": "address",
          "name": "_new_dzgoodwillAddress",
          "type": "address"
        }
      ],
      "name": "set_new_dzgoodwillAddress",
      "outputs": [],
      "payable": false,
      "stateMutability": "nonpayable",
      "type": "function"
    },
    {
      "constant": false,
      "inputs": [
        {
          "internalType": "uint16",
          "name": "_new_goodwill",
          "type": "uint16"
        }
      ],
      "name": "set_new_goodwill",
      "outputs": [],
      "payable": false,
      "stateMutability": "nonpayable",
      "type": "function"
    },
    {
      "constant": false,
      "inputs": [],
      "name": "toggleContractActive",
      "outputs": [],
      "payable": false,
      "stateMutability": "nonpayable",
      "type": "function"
    },
    {
      "constant": false,
      "inputs": [
        {
          "internalType": "address payable",
          "name": "newOwner",
          "type": "address"
        }
      ],
      "name": "transferOwnership",
      "outputs": [],
      "payable": false,
      "stateMutability": "nonpayable",
      "type": "function"
    },
    {
      "constant": false,
      "inputs": [],
      "name": "withdraw",
      "outputs": [],
      "payable": false,
      "stateMutability": "nonpayable",
      "type": "function"
    }
  ],
  "bytecode": "0x60806040526000805460ff60a81b19169055600280546001600160a01b03191673c0a47dfe034b400b47bdad5fecda2621de6c4d9517905534801561004357600080fd5b50604051611a71380380611a718339818101604052604081101561006657600080fd5b5080516020909101516000805460ff1916600117815561008d6001600160e01b0361013916565b60008054610100600160a81b0319166101006001600160a01b038416908102919091178255604051929350917f8be0079c531659141344cd1fd0a4f28419497f9722a3daafe3b4186f6b6457e0908290a3506000805461ffff9093167601000000000000000000000000000000000000000000000261ffff60b01b1990931692909217909155600180546001600160a01b039092166001600160a01b031990921691909117905561013d565b3390565b6119258061014c6000396000f3fe6080604052600436106100f35760003560e01c8063849e25f41161008a578063b10e1dbc11610059578063b10e1dbc146102b9578063b2bdfa7b146102e7578063c3a8fcb0146102fc578063f2fde38b14610311576100f3565b8063849e25f4146102295780638da5cb5b1461025c5780638f32d59b14610271578063ae4de7fa14610286576100f3565b8063525d509e116100c6578063525d509e14610184578063551196d5146101b55780635de0398e146101e8578063715018a614610214576100f3565b80631385d24c146100f55780632b68b9c61461010a578063358365431461011f5780633ccfd60b1461016f575b005b34801561010157600080fd5b506100f3610344565b34801561011657600080fd5b506100f36103ac565b61015b6004803603608081101561013557600080fd5b506001600160a01b03813581169160208101358216916040820135169060600135610406565b604080519115158252519081900360200190f35b34801561017b57600080fd5b506100f36105b3565b34801561019057600080fd5b5061019961063f565b604080516001600160a01b039092168252519081900360200190f35b3480156101c157600080fd5b506100f3600480360360208110156101d857600080fd5b50356001600160a01b031661064e565b3480156101f457600080fd5b506101fd61079b565b6040805161ffff9092168252519081900360200190f35b34801561022057600080fd5b506100f36107ac565b34801561023557600080fd5b506100f36004803603602081101561024c57600080fd5b50356001600160a01b031661084f565b34801561026857600080fd5b506101996108c5565b34801561027d57600080fd5b5061015b6108d9565b34801561029257600080fd5b506100f3600480360360208110156102a957600080fd5b50356001600160a01b0316610902565b3480156102c557600080fd5b506100f3600480360360208110156102dc57600080fd5b503561ffff16610978565b3480156102f357600080fd5b50610199610a4b565b34801561030857600080fd5b50610199610a5f565b34801561031d57600080fd5b506100f36004803603602081101561033457600080fd5b50356001600160a01b0316610a6e565b61034c6108d9565b61038b576040805162461bcd60e51b815260206004820181905260248201526000805160206118d1833981519152604482015290519081900360640190fd5b6000805460ff60a81b198116600160a81b9182900460ff1615909102179055565b6103b46108d9565b6103f3576040805162461bcd60e51b815260206004820181905260248201526000805160206118d1833981519152604482015290519081900360640190fd5b60005461010090046001600160a01b0316ff5b6000805460ff1661045e576040805162461bcd60e51b815260206004820152601f60248201527f5265656e7472616e637947756172643a207265656e7472616e742063616c6c00604482015290519081900360640190fd5b6000805460ff191690819055600160a81b900460ff16156104c6576040805162461bcd60e51b815260206004820152601260248201527f54656d706f726172696c79205061757365640000000000000000000000000000604482015290519081900360640190fd5b826001600160a01b0316846001600160a01b0316141561052d576040805162461bcd60e51b815260206004820152601a60248201527f43616e6e6f742062726964676520746f2073616d6520706f6f6c000000000000604482015290519081900360640190fd5b600080546105539061054b908590600160b01b900461ffff16610abe565b612710610b20565b9050600080610563858489610b62565b91509150600080610575838a8a610e6e565b90925090506105958261058e868463ffffffff6112f416565b8c8b611336565b6001955050505050506000805460ff19166001179055949350505050565b6105bb6108d9565b6105fa576040805162461bcd60e51b815260206004820181905260248201526000805160206118d1833981519152604482015290519081900360640190fd5b600080546040516001600160a01b036101009092049190911691303180156108fc02929091818181858888f1935050505015801561063c573d6000803e3d6000fd5b50565b6002546001600160a01b031681565b6106566108d9565b610695576040805162461bcd60e51b815260206004820181905260248201526000805160206118d1833981519152604482015290519081900360640190fd5b604080516370a0823160e01b815230600482015290516000916001600160a01b038416916370a0823191602480820192602092909190829003018186803b1580156106df57600080fd5b505afa1580156106f3573d6000803e3d6000fd5b505050506040513d602081101561070957600080fd5b5051600080546040805163a9059cbb60e01b81526101009092046001600160a01b03908116600484015260248301859052905193945085169263a9059cbb92604480840193602093929083900390910190829087803b15801561076b57600080fd5b505af115801561077f573d6000803e3d6000fd5b505050506040513d602081101561079557600080fd5b50505050565b600054600160b01b900461ffff1681565b6107b46108d9565b6107f3576040805162461bcd60e51b815260206004820181905260248201526000805160206118d1833981519152604482015290519081900360640190fd5b600080546040516101009091046001600160a01b0316907f8be0079c531659141344cd1fd0a4f28419497f9722a3daafe3b4186f6b6457e0908390a36000805474ffffffffffffffffffffffffffffffffffffffff0019169055565b6108576108d9565b610896576040805162461bcd60e51b815260206004820181905260248201526000805160206118d1833981519152604482015290519081900360640190fd5b6001805473ffffffffffffffffffffffffffffffffffffffff19166001600160a01b0392909216919091179055565b60005461010090046001600160a01b031690565b6000805461010090046001600160a01b03166108f3611655565b6001600160a01b031614905090565b61090a6108d9565b610949576040805162461bcd60e51b815260206004820181905260248201526000805160206118d1833981519152604482015290519081900360640190fd5b6002805473ffffffffffffffffffffffffffffffffffffffff19166001600160a01b0392909216919091179055565b6109806108d9565b6109bf576040805162461bcd60e51b815260206004820181905260248201526000805160206118d1833981519152604482015290519081900360640190fd5b60008161ffff161180156109d857506127108161ffff16105b610a29576040805162461bcd60e51b815260206004820152601a60248201527f476f6f6457696c6c2056616c7565206e6f7420616c6c6f776564000000000000604482015290519081900360640190fd5b6000805461ffff909216600160b01b0261ffff60b01b19909216919091179055565b60005461010090046001600160a01b031681565b6001546001600160a01b031681565b610a766108d9565b610ab5576040805162461bcd60e51b815260206004820181905260248201526000805160206118d1833981519152604482015290519081900360640190fd5b61063c81611659565b600082610acd57506000610b1a565b82820282848281610ada57fe5b0414610b175760405162461bcd60e51b81526004018080602001828103825260218152602001806118b06021913960400191505060405180910390fd5b90505b92915050565b6000610b1783836040518060400160405280601a81526020017f536166654d6174683a206469766973696f6e206279207a65726f000000000000815250611711565b600254604080516303795fb160e11b81526001600160a01b0384811660048301529151600093849384939116916306f2bf6291602480820192602092909190829003018186803b158015610bb557600080fd5b505afa158015610bc9573d6000803e3d6000fd5b505050506040513d6020811015610bdf57600080fd5b505190506001600160a01b0381166323b872dd3330610bfe8a8a6112f4565b6040518463ffffffff1660e01b815260040180846001600160a01b03166001600160a01b03168152602001836001600160a01b03166001600160a01b031681526020018281526020019350505050602060405180830381600087803b158015610c6657600080fd5b505af1158015610c7a573d6000803e3d6000fd5b505050506040513d6020811015610c9057600080fd5b5051610ce3576040805162461bcd60e51b815260206004820152601a60248201527f4572726f7220696e207472616e7366657272696e67204c503a31000000000000604482015290519081900360640190fd5b600154604080516323b872dd60e01b81523360048201526001600160a01b039283166024820152604481018890529051918316916323b872dd916064808201926020929091908290030181600087803b158015610d3f57600080fd5b505af1158015610d53573d6000803e3d6000fd5b505050506040513d6020811015610d6957600080fd5b5051610dbc576040805162461bcd60e51b815260206004820152601a60248201527f4572726f7220696e207472616e7366657272696e67204c503a32000000000000604482015290519081900360640190fd5b806001600160a01b031663f88bf15a610dd588886112f4565b600180610de4426107086117b3565b6040518563ffffffff1660e01b8152600401808581526020018481526020018381526020018281526020019450505050506040805180830381600087803b158015610e2e57600080fd5b505af1158015610e42573d6000803e3d6000fd5b505050506040513d6040811015610e5857600080fd5b5080516020909101519097909650945050505050565b600254604080516303795fb160e11b81526001600160a01b0385811660048301529151600093849384939116916306f2bf6291602480820192602092909190829003018186803b158015610ec157600080fd5b505afa158015610ed5573d6000803e3d6000fd5b505050506040513d6020811015610eeb57600080fd5b5051600254604080516303795fb160e11b81526001600160a01b038881166004830152915193945060009391909216916306f2bf62916024808301926020929190829003018186803b158015610f4057600080fd5b505afa158015610f54573d6000803e3d6000fd5b505050506040513d6020811015610f6a57600080fd5b50516040805163095ea7b360e01b81526001600160a01b038581166004830152602482018b905291519293509088169163095ea7b3916044808201926020929091908290030181600087803b158015610fc257600080fd5b505af1158015610fd6573d6000803e3d6000fd5b505050506040513d6020811015610fec57600080fd5b50600090506001600160a01b03831663ddf7e1a789600180611010426107086117b3565b8b6040518663ffffffff1660e01b815260040180868152602001858152602001848152602001838152602001826001600160a01b03166001600160a01b0316815260200195505050505050602060405180830381600087803b15801561107557600080fd5b505af1158015611089573d6000803e3d6000fd5b505050506040513d602081101561109f57600080fd5b50519050806110f5576040805162461bcd60e51b815260206004820152601560248201527f4572726f7220696e207377617070696e67204552430000000000000000000000604482015290519081900360640190fd5b6001600160a01b03861663095ea7b38361111684600263ffffffff610abe16565b6040518363ffffffff1660e01b815260040180836001600160a01b03166001600160a01b0316815260200182815260200192505050602060405180830381600087803b15801561116557600080fd5b505af1158015611179573d6000803e3d6000fd5b505050506040513d602081101561118f57600080fd5b5050604080516395b68fe760e01b81526004810183905290516001600160a01b038416916395b68fe7916024808301926020929190829003018186803b1580156111d857600080fd5b505afa1580156111ec573d6000803e3d6000fd5b505050506040513d602081101561120257600080fd5b505193506001600160a01b03821663422f104385600184611225426107086117b3565b6040518563ffffffff1660e01b81526004018084815260200183815260200182815260200193505050506020604051808303818588803b15801561126857600080fd5b505af115801561127c573d6000803e3d6000fd5b50505050506040513d602081101561129357600080fd5b50519450846112e9576040805162461bcd60e51b815260206004820152601560248201527f4572726f7220696e20616371756972696e67204c500000000000000000000000604482015290519081900360640190fd5b505050935093915050565b6000610b1783836040518060400160405280601e81526020017f536166654d6174683a207375627472616374696f6e206f766572666c6f77000081525061180d565b600254604080516303795fb160e11b81526001600160a01b038481166004830152915160009392909216916306f2bf6291602480820192602092909190829003018186803b15801561138757600080fd5b505afa15801561139b573d6000803e3d6000fd5b505050506040513d60208110156113b157600080fd5b50516040805163a9059cbb60e01b81526001600160a01b03868116600483015260248201899052915192935084929184169163a9059cbb916044808201926020929091908290030181600087803b15801561140b57600080fd5b505af115801561141f573d6000803e3d6000fd5b505050506040513d602081101561143557600080fd5b5051611488576040805162461bcd60e51b815260206004820152601a60248201527f4572726f7220696e207472616e7366657272696e67204c503a33000000000000604482015290519081900360640190fd5b604080516370a0823160e01b815230600482015290516000916001600160a01b038416916370a0823191602480820192602092909190829003018186803b1580156114d257600080fd5b505afa1580156114e6573d6000803e3d6000fd5b505050506040513d60208110156114fc57600080fd5b50516040805163a9059cbb60e01b81526001600160a01b0388811660048301526024820184905291519293509084169163a9059cbb916044808201926020929091908290030181600087803b15801561155457600080fd5b505af1158015611568573d6000803e3d6000fd5b505050506040513d602081101561157e57600080fd5b50516115bb5760405162461bcd60e51b815260040180806020018281038252602281526020018061188e6022913960400191505060405180910390fd5b6040516000906001600160a01b0387169088908381818185875af1925050503d8060008114611606576040519150601f19603f3d011682016040523d82523d6000602084013e61160b565b606091505b505090508061164b5760405162461bcd60e51b815260040180806020018281038252602281526020018061188e6022913960400191505060405180910390fd5b5050505050505050565b3390565b6001600160a01b03811661169e5760405162461bcd60e51b81526004018080602001828103825260268152602001806118686026913960400191505060405180910390fd5b600080546040516001600160a01b038085169361010090930416917f8be0079c531659141344cd1fd0a4f28419497f9722a3daafe3b4186f6b6457e091a3600080546001600160a01b039092166101000274ffffffffffffffffffffffffffffffffffffffff0019909216919091179055565b6000818361179d5760405162461bcd60e51b81526004018080602001828103825283818151815260200191508051906020019080838360005b8381101561176257818101518382015260200161174a565b50505050905090810190601f16801561178f5780820380516001836020036101000a031916815260200191505b509250505060405180910390fd5b5060008385816117a957fe5b0495945050505050565b600082820183811015610b17576040805162461bcd60e51b815260206004820152601b60248201527f536166654d6174683a206164646974696f6e206f766572666c6f770000000000604482015290519081900360640190fd5b6000818484111561185f5760405162461bcd60e51b815260206004820181815283516024840152835190928392604490910191908501908083836000831561176257818101518382015260200161174a565b50505090039056fe4f776e61626c653a206e6577206f776e657220697320746865207a65726f20616464726573734572726f7220696e2072657475726e696e6720726573696475616c20746f6b656e73536166654d6174683a206d756c7469706c69636174696f6e206f766572666c6f774f776e61626c653a2063616c6c6572206973206e6f7420746865206f776e6572a265627a7a723158205554e5f3d056398e3e83e0cc791f778836e3df31bf3171f3d3968ed6f3eb9f1764736f6c634300050d0032",
  "compiler": {
    "name": "solc",
    "version": "0.5.13+commit.5b0b510c.Emscripten.clang",
    "optimizer": {
      "enabled": true,
      "runs": 500
    },
    "evmVersion": "petersburg"
  }
}