{
  "fileName": "UniPool_sUSDCurve_Bridge_Zap_V1.sol",
  "contractName": "UniPool_sUSDCurve_Bridge_Zap_V1",
  "source": "pragma solidity ^0.5.0;\n\n/**\n * @dev Interface of the ERC20 standard as defined in the EIP. Does not include\n * the optional functions; to access them see {ERC20Detailed}.\n */\ninterface IERC20 {\n    /**\n     * @dev Returns the amount of tokens in existence.\n     */\n    function totalSupply() external view returns (uint256);\n\n    /**\n     * @dev Returns the amount of tokens owned by `account`.\n     */\n    function balanceOf(address account) external view returns (uint256);\n\n    /**\n     * @dev Moves `amount` tokens from the caller's account to `recipient`.\n     *\n     * Returns a boolean value indicating whether the operation succeeded.\n     *\n     * Emits a {Transfer} event.\n     */\n    function transfer(address recipient, uint256 amount) external returns (bool);\n\n    /**\n     * @dev Returns the remaining number of tokens that `spender` will be\n     * allowed to spend on behalf of `owner` through {transferFrom}. This is\n     * zero by default.\n     *\n     * This value changes when {approve} or {transferFrom} are called.\n     */\n    function allowance(address owner, address spender) external view returns (uint256);\n\n    /**\n     * @dev Sets `amount` as the allowance of `spender` over the caller's tokens.\n     *\n     * Returns a boolean value indicating whether the operation succeeded.\n     *\n     * IMPORTANT: Beware that changing an allowance with this method brings the risk\n     * that someone may use both the old and the new allowance by unfortunate\n     * transaction ordering. One possible solution to mitigate this race\n     * condition is to first reduce the spender's allowance to 0 and set the\n     * desired value afterwards:\n     * https://github.com/ethereum/EIPs/issues/20#issuecomment-263524729\n     *\n     * Emits an {Approval} event.\n     */\n    function approve(address spender, uint256 amount) external returns (bool);\n\n    /**\n     * @dev Moves `amount` tokens from `sender` to `recipient` using the\n     * allowance mechanism. `amount` is then deducted from the caller's\n     * allowance.\n     *\n     * Returns a boolean value indicating whether the operation succeeded.\n     *\n     * Emits a {Transfer} event.\n     */\n    function transferFrom(address sender, address recipient, uint256 amount) external returns (bool);\n\n    /**\n     * @dev Emitted when `value` tokens are moved from one account (`from`) to\n     * another (`to`).\n     *\n     * Note that `value` may be zero.\n     */\n    event Transfer(address indexed from, address indexed to, uint256 value);\n\n    /**\n     * @dev Emitted when the allowance of a `spender` for an `owner` is set by\n     * a call to {approve}. `value` is the new allowance.\n     */\n    event Approval(address indexed owner, address indexed spender, uint256 value);\n}\n// File: browser/Context.sol\n\npragma solidity ^0.5.0;\n\n/*\n * @dev Provides information about the current execution context, including the\n * sender of the transaction and its data. While these are generally available\n * via msg.sender and msg.data, they should not be accessed in such a direct\n * manner, since when dealing with GSN meta-transactions the account sending and\n * paying for execution may not be the actual sender (as far as an application\n * is concerned).\n *\n * This contract is only required for intermediate, library-like contracts.\n */\ncontract Context {\n    // Empty internal constructor, to prevent people from mistakenly deploying\n    // an instance of this contract, which should be used via inheritance.\n    constructor () internal { }\n    // solhint-disable-previous-line no-empty-blocks\n\n    function _msgSender() internal view returns (address payable) {\n        return msg.sender;\n    }\n\n    function _msgData() internal view returns (bytes memory) {\n        this; // silence state mutability warning without generating bytecode - see https://github.com/ethereum/solidity/issues/2691\n        return msg.data;\n    }\n}\n// File: browser/OpenZepplinOwnable.sol\n\npragma solidity ^0.5.0;\n\n/**\n * @dev Contract module which provides a basic access control mechanism, where\n * there is an account (an owner) that can be granted exclusive access to\n * specific functions.\n *\n * This module is used through inheritance. It will make available the modifier\n * `onlyOwner`, which can be applied to your functions to restrict their use to\n * the owner.\n */\ncontract Ownable is Context {\n    address payable public _owner;\n\n    event OwnershipTransferred(address indexed previousOwner, address indexed newOwner);\n\n    /**\n     * @dev Initializes the contract setting the deployer as the initial owner.\n     */\n    constructor () internal {\n        address payable msgSender = _msgSender();\n        _owner = msgSender;\n        emit OwnershipTransferred(address(0), msgSender);\n    }\n\n    /**\n     * @dev Returns the address of the current owner.\n     */\n    function owner() public view returns (address) {\n        return _owner;\n    }\n\n    /**\n     * @dev Throws if called by any account other than the owner.\n     */\n    modifier onlyOwner() {\n        require(isOwner(), \"Ownable: caller is not the owner\");\n        _;\n    }\n\n    /**\n     * @dev Returns true if the caller is the current owner.\n     */\n    function isOwner() public view returns (bool) {\n        return _msgSender() == _owner;\n    }\n\n    /**\n     * @dev Leaves the contract without owner. It will not be possible to call\n     * `onlyOwner` functions anymore. Can only be called by the current owner.\n     *\n     * NOTE: Renouncing ownership will leave the contract without an owner,\n     * thereby removing any functionality that is only available to the owner.\n     */\n    function renounceOwnership() public onlyOwner {\n        emit OwnershipTransferred(_owner, address(0));\n        _owner = address(0);\n    }\n\n    /**\n     * @dev Transfers ownership of the contract to a new account (`newOwner`).\n     * Can only be called by the current owner.\n     */\n    function transferOwnership(address payable newOwner) public onlyOwner {\n        _transferOwnership(newOwner);\n    }\n\n    /**\n     * @dev Transfers ownership of the contract to a new account (`newOwner`).\n     */\n    function _transferOwnership(address payable newOwner) internal {\n        require(newOwner != address(0), \"Ownable: new owner is the zero address\");\n        emit OwnershipTransferred(_owner, newOwner);\n        _owner = newOwner;\n    }\n}\n// File: browser/OpenZepplinSafeMath.sol\n\npragma solidity ^0.5.0;\n\n/**\n * @dev Wrappers over Solidity's arithmetic operations with added overflow\n * checks.\n *\n * Arithmetic operations in Solidity wrap on overflow. This can easily result\n * in bugs, because programmers usually assume that an overflow raises an\n * error, which is the standard behavior in high level programming languages.\n * `SafeMath` restores this intuition by reverting the transaction when an\n * operation overflows.\n *\n * Using this library instead of the unchecked operations eliminates an entire\n * class of bugs, so it's recommended to use it always.\n */\nlibrary SafeMath {\n    /**\n     * @dev Returns the addition of two unsigned integers, reverting on\n     * overflow.\n     *\n     * Counterpart to Solidity's `+` operator.\n     *\n     * Requirements:\n     * - Addition cannot overflow.\n     */\n    function add(uint256 a, uint256 b) internal pure returns (uint256) {\n        uint256 c = a + b;\n        require(c >= a, \"SafeMath: addition overflow\");\n\n        return c;\n    }\n\n    /**\n     * @dev Returns the subtraction of two unsigned integers, reverting on\n     * overflow (when the result is negative).\n     *\n     * Counterpart to Solidity's `-` operator.\n     *\n     * Requirements:\n     * - Subtraction cannot overflow.\n     */\n    function sub(uint256 a, uint256 b) internal pure returns (uint256) {\n        return sub(a, b, \"SafeMath: subtraction overflow\");\n    }\n\n    /**\n     * @dev Returns the subtraction of two unsigned integers, reverting with custom message on\n     * overflow (when the result is negative).\n     *\n     * Counterpart to Solidity's `-` operator.\n     *\n     * Requirements:\n     * - Subtraction cannot overflow.\n     *\n     * _Available since v2.4.0._\n     */\n    function sub(uint256 a, uint256 b, string memory errorMessage) internal pure returns (uint256) {\n        require(b <= a, errorMessage);\n        uint256 c = a - b;\n\n        return c;\n    }\n\n    /**\n     * @dev Returns the multiplication of two unsigned integers, reverting on\n     * overflow.\n     *\n     * Counterpart to Solidity's `*` operator.\n     *\n     * Requirements:\n     * - Multiplication cannot overflow.\n     */\n    function mul(uint256 a, uint256 b) internal pure returns (uint256) {\n        // Gas optimization: this is cheaper than requiring 'a' not being zero, but the\n        // benefit is lost if 'b' is also tested.\n        // See: https://github.com/OpenZeppelin/openzeppelin-contracts/pull/522\n        if (a == 0) {\n            return 0;\n        }\n\n        uint256 c = a * b;\n        require(c / a == b, \"SafeMath: multiplication overflow\");\n\n        return c;\n    }\n\n    /**\n     * @dev Returns the integer division of two unsigned integers. Reverts on\n     * division by zero. The result is rounded towards zero.\n     *\n     * Counterpart to Solidity's `/` operator. Note: this function uses a\n     * `revert` opcode (which leaves remaining gas untouched) while Solidity\n     * uses an invalid opcode to revert (consuming all remaining gas).\n     *\n     * Requirements:\n     * - The divisor cannot be zero.\n     */\n    function div(uint256 a, uint256 b) internal pure returns (uint256) {\n        return div(a, b, \"SafeMath: division by zero\");\n    }\n\n    /**\n     * @dev Returns the integer division of two unsigned integers. Reverts with custom message on\n     * division by zero. The result is rounded towards zero.\n     *\n     * Counterpart to Solidity's `/` operator. Note: this function uses a\n     * `revert` opcode (which leaves remaining gas untouched) while Solidity\n     * uses an invalid opcode to revert (consuming all remaining gas).\n     *\n     * Requirements:\n     * - The divisor cannot be zero.\n     *\n     * _Available since v2.4.0._\n     */\n    function div(uint256 a, uint256 b, string memory errorMessage) internal pure returns (uint256) {\n        // Solidity only automatically asserts when dividing by 0\n        require(b > 0, errorMessage);\n        uint256 c = a / b;\n        // assert(a == b * c + a % b); // There is no case in which this doesn't hold\n\n        return c;\n    }\n\n    /**\n     * @dev Returns the remainder of dividing two unsigned integers. (unsigned integer modulo),\n     * Reverts when dividing by zero.\n     *\n     * Counterpart to Solidity's `%` operator. This function uses a `revert`\n     * opcode (which leaves remaining gas untouched) while Solidity uses an\n     * invalid opcode to revert (consuming all remaining gas).\n     *\n     * Requirements:\n     * - The divisor cannot be zero.\n     */\n    function mod(uint256 a, uint256 b) internal pure returns (uint256) {\n        return mod(a, b, \"SafeMath: modulo by zero\");\n    }\n\n    /**\n     * @dev Returns the remainder of dividing two unsigned integers. (unsigned integer modulo),\n     * Reverts with custom message when dividing by zero.\n     *\n     * Counterpart to Solidity's `%` operator. This function uses a `revert`\n     * opcode (which leaves remaining gas untouched) while Solidity uses an\n     * invalid opcode to revert (consuming all remaining gas).\n     *\n     * Requirements:\n     * - The divisor cannot be zero.\n     *\n     * _Available since v2.4.0._\n     */\n    function mod(uint256 a, uint256 b, string memory errorMessage) internal pure returns (uint256) {\n        require(b != 0, errorMessage);\n        return a % b;\n    }\n}\n// File: browser/OpenZepplinReentrancyGuard.sol\n\npragma solidity ^0.5.0;\n\n/**\n * @dev Contract module that helps prevent reentrant calls to a function.\n *\n * Inheriting from `ReentrancyGuard` will make the {nonReentrant} modifier\n * available, which can be applied to functions to make sure there are no nested\n * (reentrant) calls to them.\n *\n * Note that because there is a single `nonReentrant` guard, functions marked as\n * `nonReentrant` may not call one another. This can be worked around by making\n * those functions `private`, and then adding `external` `nonReentrant` entry\n * points to them.\n *\n * _Since v2.5.0:_ this module is now much more gas efficient, given net gas\n * metering changes introduced in the Istanbul hardfork.\n */\ncontract ReentrancyGuard {\n    bool private _notEntered;\n\n    constructor () internal {\n        // Storing an initial non-zero value makes deployment a bit more\n        // expensive, but in exchange the refund on every call to nonReentrant\n        // will be lower in amount. Since refunds are capped to a percetange of\n        // the total transaction's gas, it is best to keep them low in cases\n        // like this one, to increase the likelihood of the full refund coming\n        // into effect.\n        _notEntered = true;\n    }\n\n    /**\n     * @dev Prevents a contract from calling itself, directly or indirectly.\n     * Calling a `nonReentrant` function from another `nonReentrant`\n     * function is not supported. It is possible to prevent this from happening\n     * by making the `nonReentrant` function external, and make it call a\n     * `private` function that does the actual work.\n     */\n    modifier nonReentrant() {\n        // On the first call to nonReentrant, _notEntered will be true\n        require(_notEntered, \"ReentrancyGuard: reentrant call\");\n\n        // Any calls to nonReentrant after this point will fail\n        _notEntered = false;\n\n        _;\n\n        // By storing the original value once again, a refund is triggered (see\n        // https://eips.ethereum.org/EIPS/eip-2200)\n        _notEntered = true;\n    }\n}\n\n// Copyright (C) 2019, 2020 dipeshsukhani, nodarjanashia, suhailg, apoorvlathey\n\n// This program is free software: you can redistribute it and/or modify\n// it under the terms of the GNU Affero General Public License as published by\n// the Free Software Foundation, either version 2 of the License, or\n// (at your option) any later version.\n//\n// This program is distributed in the hope that it will be useful,\n// but WITHOUT ANY WARRANTY; without even the implied warranty of\n// MERCHANTABILITY or FITNESS FOR A PARTICULAR PURPOSE.  See the\n// GNU Affero General Public License for more details.\n//\n// Visit <https://www.gnu.org/licenses/>for a copy of the GNU Affero General Public License\n\n// File: localhost/defizap/node_modules/@openzeppelin/contracts-ethereum-package/contracts/token/ERC20/IERC20.sol\n\n///@author DeFiZap\n///@notice this contract implements one click swapping among Uniswap Pools\n\n// interface\ninterface IsUSDCurveExchange {\n    function add_liquidity(\n        uint256[4] calldata amounts,\n        uint256 min_mint_amount\n    ) external;\n\n}\n\n\ninterface IuniswapFactory {\n    function getExchange(address token)\n        external\n        view\n        returns (address exchange);\n}\n\n\ninterface IuniswapExchange {\n    // for removing liquidity (returns ETH removed, ERC20 Removed)\n    function removeLiquidity(\n        uint256 amount,\n        uint256 min_eth,\n        uint256 min_tokens,\n        uint256 deadline\n    ) external returns (uint256, uint256);\n\n    // converting ERC20 to ERC20 and transfer\n    function tokenToTokenSwapInput(\n        uint256 tokens_sold,\n        uint256 min_tokens_bought,\n        uint256 min_eth_bought,\n        uint256 deadline,\n        address token_addr\n    ) external returns (uint256 tokens_bought);\n\n    // add liquidity to a pool (returns LP tokens rec)\n    function addLiquidity(\n        uint256 min_liquidity,\n        uint256 max_tokens,\n        uint256 deadline\n    ) external payable returns (uint256);\n\n    function getEthToTokenInputPrice(uint256 eth_sold)\n        external\n        view\n        returns (uint256 tokens_bought);\n\n    function getTokenToEthInputPrice(uint256 tokens_sold)\n        external\n        view\n        returns (uint256 eth_bought);\n\n    function ethToTokenSwapInput(uint256 min_tokens, uint256 deadline)\n        external\n        payable\n        returns (uint256 tokens_bought);\n\n    function balanceOf(address _owner) external view returns (uint256);\n\n    function transfer(address _to, uint256 _value) external returns (bool);\n\n    function transferFrom(address from, address to, uint256 tokens)\n        external\n        returns (bool success);\n}\n\npragma solidity ^0.5.13;\n\ncontract UniPool_sUSDCurve_Bridge_Zap_V1 is ReentrancyGuard, Ownable {\n    using SafeMath for uint256;\n    bool private stopped = false;\n    uint16 public goodwill;\n    address public dzgoodwillAddress;\n    \n    IuniswapFactory public UniSwapFactoryAddress = IuniswapFactory(\n        0xc0a47dFe034B400B47bDaD5FecDa2621de6c4d95\n    );\n    address public DaiTokenAddress = address(\n        0x6B175474E89094C44Da98b954EedeAC495271d0F\n    );\n    address public UsdcTokenAddress = address(\n        0xA0b86991c6218b36c1d19D4a2e9Eb0cE3606eB48\n    );\n    address public sUSDCurveExchangeAddress = address(\n        0xA5407eAE9Ba41422680e2e00537571bcC53efBfD\n    );\n    address public sUSDCurvePoolTokenAddress = address(\n        0xC25a3A3b969415c80451098fa907EC722572917F\n    );\n\n    constructor(uint16 _goodwill, address _dzgoodwillAddress) public {\n        goodwill = _goodwill;\n        dzgoodwillAddress = _dzgoodwillAddress;\n        approveToken();\n    }\n\n    // circuit breaker modifiers\n    modifier stopInEmergency {\n        if (stopped) {\n            revert(\"Temporarily Paused\");\n        } else {\n            _;\n        }\n    }\n\n    function approveToken() public {\n        IERC20(DaiTokenAddress).approve(sUSDCurveExchangeAddress, uint256(-1));\n        IERC20(UsdcTokenAddress).approve(sUSDCurveExchangeAddress, uint256(-1));\n    }\n    \n    function LetsBridge(\n        address _toWhomToIssue,\n        address _FromTokenContractAddress,\n        uint256 _IncomingLP\n    ) public payable nonReentrant stopInEmergency returns(bool){\n      uint256 goodwillPortion = SafeMath.div(\n            SafeMath.mul(_IncomingLP, goodwill),\n            10000\n      );\n\n      (uint256 ethReceived, uint256 erc20received) = _exitFromPool(\n          _IncomingLP,\n          goodwillPortion,\n          _FromTokenContractAddress\n      );\n\n      uint256 daiBought;\n      uint256 usdcBought;\n      if (_FromTokenContractAddress == DaiTokenAddress) {\n          usdcBought = _eth2Token(UsdcTokenAddress, ethReceived);\n          daiBought = erc20received;\n      } else if (_FromTokenContractAddress == UsdcTokenAddress) {\n          daiBought = _eth2Token(DaiTokenAddress, ethReceived);\n          usdcBought = erc20received;\n      } else {\n          daiBought = _eth2Token(DaiTokenAddress, ethReceived);\n          usdcBought = _token2Token(\n              _FromTokenContractAddress,\n              UsdcTokenAddress,\n              erc20received\n          );\n      }\n      uint256 crvTokensBought = _enter2Curve(daiBought, usdcBought);\n      require(\n          IERC20(sUSDCurvePoolTokenAddress).transfer(_toWhomToIssue, crvTokensBought),\n          \"Error transferring CRV\"\n      );\n      return true;\n    }\n\n    function _enter2Curve(uint256 daiBought, uint256 usdcBought)\n        internal\n        returns (uint256 crvTokensBought)\n    {\n\n        IsUSDCurveExchange sUSDCurveExchange = IsUSDCurveExchange(sUSDCurveExchangeAddress);\n\n        // 0 = DAI, 1 = USDC, 2 = USDT, 3 = sUSD\n        sUSDCurveExchange.add_liquidity(\n            [daiBought, usdcBought, 0, 0],\n            0\n        );\n        crvTokensBought = IERC20(sUSDCurvePoolTokenAddress).balanceOf(address(this));\n        require(crvTokensBought > 0, \"Error swapping to CRV\");\n    }\n\n    function _eth2Token(address _ToTokenContractAddress, uint256 ethReceived)\n        internal\n        returns (uint256 tokensBought)\n    {\n\n            IuniswapExchange ToUniSwapExchangeContractAddress\n         = IuniswapExchange(\n            UniSwapFactoryAddress.getExchange(_ToTokenContractAddress)\n        );\n\n        tokensBought = ToUniSwapExchangeContractAddress\n            .ethToTokenSwapInput\n            .value(ethReceived)(1, SafeMath.add(now, 1800));\n        require(tokensBought > 0, \"Error in swapping ETH\");\n    }\n    \n    function _token2Token(\n        address _FromTokenContractAddress,\n        address _ToTokenContractAddress,\n        uint256 tokens2Trade\n    ) internal returns (uint256 tokensBought) {\n\n            IuniswapExchange FromUniSwapExchangeContractAddress\n         = IuniswapExchange(\n            UniSwapFactoryAddress.getExchange(_FromTokenContractAddress)\n        );\n\n        IERC20(_FromTokenContractAddress).approve(\n            address(FromUniSwapExchangeContractAddress),\n            tokens2Trade\n        );\n\n        tokensBought = FromUniSwapExchangeContractAddress.tokenToTokenSwapInput(\n            tokens2Trade,\n            1,\n            1,\n            SafeMath.add(now, 1800),\n            _ToTokenContractAddress\n        );\n\n        require(tokensBought > 0, \"Error in swapping ERC\");\n    }\n\n    function _exitFromPool(\n        uint256 _IncomingLP,\n        uint256 goodwillPortion,\n        address _FromTokenContractAddress\n    ) internal returns (uint256 ethReceived, uint256 erc20received) {\n\n            IuniswapExchange FromUniSwapExchangeContractAddress\n         = IuniswapExchange(\n            UniSwapFactoryAddress.getExchange(_FromTokenContractAddress)\n        );\n        require(\n            FromUniSwapExchangeContractAddress.transferFrom(\n                msg.sender,\n                address(this),\n                SafeMath.sub(_IncomingLP, goodwillPortion)\n            ),\n            \"Error in transferring LP:1\"\n        );\n        require(\n            FromUniSwapExchangeContractAddress.transferFrom(\n                msg.sender,\n                dzgoodwillAddress,\n                goodwillPortion\n            ),\n            \"Error in transferring LP:2\"\n        );\n\n        (ethReceived, erc20received) = FromUniSwapExchangeContractAddress\n            .removeLiquidity(\n            SafeMath.sub(_IncomingLP, goodwillPortion),\n            1,\n            1,\n            SafeMath.add(now, 1800)\n        );\n    }\n\n    function inCaseTokengetsStuck(IERC20 _TokenAddress) public onlyOwner {\n        uint256 qty = _TokenAddress.balanceOf(address(this));\n        _TokenAddress.transfer(_owner, qty);\n    }\n\n    function set_new_goodwill(uint16 _new_goodwill) public onlyOwner {\n        require(\n            _new_goodwill > 0 && _new_goodwill < 10000,\n            \"GoodWill Value not allowed\"\n        );\n        goodwill = _new_goodwill;\n    }\n\n    function set_new_dzgoodwillAddress(address _new_dzgoodwillAddress)\n        public\n        onlyOwner\n    {\n        dzgoodwillAddress = _new_dzgoodwillAddress;\n    }\n\n    // - to Pause the contract\n    function toggleContractActive() public onlyOwner {\n        stopped = !stopped;\n    }\n\n    // - to withdraw any ETH balance sitting in the contract\n    function withdraw() public onlyOwner {\n        _owner.transfer(address(this).balance);\n    }\n\n    // - to kill the contract\n    function destruct() public onlyOwner {\n        selfdestruct(_owner);\n    }\n\n    function() external payable {}\n}",
  "sourcePath": "contracts/Not_upgradable_done/UniPool_sUSDCurve_Bridge_Zap_V1.sol",
  "abi": [
    {
      "inputs": [
        {
          "internalType": "uint16",
          "name": "_goodwill",
          "type": "uint16"
        },
        {
          "internalType": "address",
          "name": "_dzgoodwillAddress",
          "type": "address"
        }
      ],
      "payable": false,
      "stateMutability": "nonpayable",
      "type": "constructor"
    },
    {
      "anonymous": false,
      "inputs": [
        {
          "indexed": true,
          "internalType": "address",
          "name": "previousOwner",
          "type": "address"
        },
        {
          "indexed": true,
          "internalType": "address",
          "name": "newOwner",
          "type": "address"
        }
      ],
      "name": "OwnershipTransferred",
      "type": "event"
    },
    {
      "payable": true,
      "stateMutability": "payable",
      "type": "fallback"
    },
    {
      "constant": true,
      "inputs": [],
      "name": "DaiTokenAddress",
      "outputs": [
        {
          "internalType": "address",
          "name": "",
          "type": "address"
        }
      ],
      "payable": false,
      "stateMutability": "view",
      "type": "function"
    },
    {
      "constant": false,
      "inputs": [
        {
          "internalType": "address",
          "name": "_toWhomToIssue",
          "type": "address"
        },
        {
          "internalType": "address",
          "name": "_FromTokenContractAddress",
          "type": "address"
        },
        {
          "internalType": "uint256",
          "name": "_IncomingLP",
          "type": "uint256"
        }
      ],
      "name": "LetsBridge",
      "outputs": [
        {
          "internalType": "bool",
          "name": "",
          "type": "bool"
        }
      ],
      "payable": true,
      "stateMutability": "payable",
      "type": "function"
    },
    {
      "constant": true,
      "inputs": [],
      "name": "UniSwapFactoryAddress",
      "outputs": [
        {
          "internalType": "contract IuniswapFactory",
          "name": "",
          "type": "address"
        }
      ],
      "payable": false,
      "stateMutability": "view",
      "type": "function"
    },
    {
      "constant": true,
      "inputs": [],
      "name": "UsdcTokenAddress",
      "outputs": [
        {
          "internalType": "address",
          "name": "",
          "type": "address"
        }
      ],
      "payable": false,
      "stateMutability": "view",
      "type": "function"
    },
    {
      "constant": true,
      "inputs": [],
      "name": "_owner",
      "outputs": [
        {
          "internalType": "address payable",
          "name": "",
          "type": "address"
        }
      ],
      "payable": false,
      "stateMutability": "view",
      "type": "function"
    },
    {
      "constant": false,
      "inputs": [],
      "name": "approveToken",
      "outputs": [],
      "payable": false,
      "stateMutability": "nonpayable",
      "type": "function"
    },
    {
      "constant": false,
      "inputs": [],
      "name": "destruct",
      "outputs": [],
      "payable": false,
      "stateMutability": "nonpayable",
      "type": "function"
    },
    {
      "constant": true,
      "inputs": [],
      "name": "dzgoodwillAddress",
      "outputs": [
        {
          "internalType": "address",
          "name": "",
          "type": "address"
        }
      ],
      "payable": false,
      "stateMutability": "view",
      "type": "function"
    },
    {
      "constant": true,
      "inputs": [],
      "name": "goodwill",
      "outputs": [
        {
          "internalType": "uint16",
          "name": "",
          "type": "uint16"
        }
      ],
      "payable": false,
      "stateMutability": "view",
      "type": "function"
    },
    {
      "constant": false,
      "inputs": [
        {
          "internalType": "contract IERC20",
          "name": "_TokenAddress",
          "type": "address"
        }
      ],
      "name": "inCaseTokengetsStuck",
      "outputs": [],
      "payable": false,
      "stateMutability": "nonpayable",
      "type": "function"
    },
    {
      "constant": true,
      "inputs": [],
      "name": "isOwner",
      "outputs": [
        {
          "internalType": "bool",
          "name": "",
          "type": "bool"
        }
      ],
      "payable": false,
      "stateMutability": "view",
      "type": "function"
    },
    {
      "constant": true,
      "inputs": [],
      "name": "owner",
      "outputs": [
        {
          "internalType": "address",
          "name": "",
          "type": "address"
        }
      ],
      "payable": false,
      "stateMutability": "view",
      "type": "function"
    },
    {
      "constant": false,
      "inputs": [],
      "name": "renounceOwnership",
      "outputs": [],
      "payable": false,
      "stateMutability": "nonpayable",
      "type": "function"
    },
    {
      "constant": true,
      "inputs": [],
      "name": "sUSDCurveExchangeAddress",
      "outputs": [
        {
          "internalType": "address",
          "name": "",
          "type": "address"
        }
      ],
      "payable": false,
      "stateMutability": "view",
      "type": "function"
    },
    {
      "constant": true,
      "inputs": [],
      "name": "sUSDCurvePoolTokenAddress",
      "outputs": [
        {
          "internalType": "address",
          "name": "",
          "type": "address"
        }
      ],
      "payable": false,
      "stateMutability": "view",
      "type": "function"
    },
    {
      "constant": false,
      "inputs": [
        {
          "internalType": "address",
          "name": "_new_dzgoodwillAddress",
          "type": "address"
        }
      ],
      "name": "set_new_dzgoodwillAddress",
      "outputs": [],
      "payable": false,
      "stateMutability": "nonpayable",
      "type": "function"
    },
    {
      "constant": false,
      "inputs": [
        {
          "internalType": "uint16",
          "name": "_new_goodwill",
          "type": "uint16"
        }
      ],
      "name": "set_new_goodwill",
      "outputs": [],
      "payable": false,
      "stateMutability": "nonpayable",
      "type": "function"
    },
    {
      "constant": false,
      "inputs": [],
      "name": "toggleContractActive",
      "outputs": [],
      "payable": false,
      "stateMutability": "nonpayable",
      "type": "function"
    },
    {
      "constant": false,
      "inputs": [
        {
          "internalType": "address payable",
          "name": "newOwner",
          "type": "address"
        }
      ],
      "name": "transferOwnership",
      "outputs": [],
      "payable": false,
      "stateMutability": "nonpayable",
      "type": "function"
    },
    {
      "constant": false,
      "inputs": [],
      "name": "withdraw",
      "outputs": [],
      "payable": false,
      "stateMutability": "nonpayable",
      "type": "function"
    }
  ],
  "bytecode": "0x60806040526000805460ff60a81b19169055600280546001600160a01b031990811673c0a47dfe034b400b47bdad5fecda2621de6c4d9517909155600380548216736b175474e89094c44da98b954eedeac495271d0f17905560048054821673a0b86991c6218b36c1d19d4a2e9eb0ce3606eb4817905560058054821673a5407eae9ba41422680e2e00537571bcc53efbfd1790556006805490911673c25a3a3b969415c80451098fa907ec722572917f179055348015620000c057600080fd5b5060405162001b7c38038062001b7c83398181016040526040811015620000e657600080fd5b5080516020909101516000805460ff191660011781556200010f6001600160e01b03620001bb16565b60008054610100600160a81b0319166101006001600160a01b038416908102919091178255604051929350917f8be0079c531659141344cd1fd0a4f28419497f9722a3daafe3b4186f6b6457e0908290a3506000805461ffff60b01b191676010000000000000000000000000000000000000000000061ffff851602179055600180546001600160a01b0319166001600160a01b038316179055620001b3620001bf565b505062000305565b3390565b600354600554604080517f095ea7b30000000000000000000000000000000000000000000000000000000081526001600160a01b03928316600482015260001960248201529051919092169163095ea7b39160448083019260209291908290030181600087803b1580156200023357600080fd5b505af115801562000248573d6000803e3d6000fd5b505050506040513d60208110156200025f57600080fd5b505060048054600554604080517f095ea7b30000000000000000000000000000000000000000000000000000000081526001600160a01b039283169481019490945260001960248501525191169163095ea7b39160448083019260209291908290030181600087803b158015620002d557600080fd5b505af1158015620002ea573d6000803e3d6000fd5b505050506040513d60208110156200030157600080fd5b5050565b61186780620003156000396000f3fe60806040526004361061011f5760003560e01c8063849e25f4116100a05780639ca8431d116100645780639ca8431d14610300578063b10e1dbc14610315578063b2bdfa7b14610343578063c3a8fcb014610358578063f2fde38b1461036d5761011f565b8063849e25f4146102795780638da5cb5b146102ac5780638f32d59b146102c15780638f4b0da1146102d657806399b71d5c146102eb5761011f565b806348a27cdd116100e757806348a27cdd146101a6578063525d509e146101f0578063551196d5146102055780635de0398e14610238578063715018a6146102645761011f565b80631385d24c146101215780632a0d86d9146101365780632b68b9c61461016757806331dad22d1461017c5780633ccfd60b14610191575b005b34801561012d57600080fd5b5061011f6103a0565b34801561014257600080fd5b5061014b610408565b604080516001600160a01b039092168252519081900360200190f35b34801561017357600080fd5b5061011f610417565b34801561018857600080fd5b5061014b610471565b34801561019d57600080fd5b5061011f610480565b6101dc600480360360608110156101bc57600080fd5b506001600160a01b0381358116916020810135909116906040013561050c565b604080519115158252519081900360200190f35b3480156101fc57600080fd5b5061014b6107ab565b34801561021157600080fd5b5061011f6004803603602081101561022857600080fd5b50356001600160a01b03166107ba565b34801561024457600080fd5b5061024d610907565b6040805161ffff9092168252519081900360200190f35b34801561027057600080fd5b5061011f610918565b34801561028557600080fd5b5061011f6004803603602081101561029c57600080fd5b50356001600160a01b03166109bb565b3480156102b857600080fd5b5061014b610a31565b3480156102cd57600080fd5b506101dc610a45565b3480156102e257600080fd5b5061014b610a6e565b3480156102f757600080fd5b5061011f610a7d565b34801561030c57600080fd5b5061014b610b8b565b34801561032157600080fd5b5061011f6004803603602081101561033857600080fd5b503561ffff16610b9a565b34801561034f57600080fd5b5061014b610c6d565b34801561036457600080fd5b5061014b610c81565b34801561037957600080fd5b5061011f6004803603602081101561039057600080fd5b50356001600160a01b0316610c90565b6103a8610a45565b6103e7576040805162461bcd60e51b81526020600482018190526024820152600080516020611813833981519152604482015290519081900360640190fd5b6000805460ff60a81b198116600160a81b9182900460ff1615909102179055565b6003546001600160a01b031681565b61041f610a45565b61045e576040805162461bcd60e51b81526020600482018190526024820152600080516020611813833981519152604482015290519081900360640190fd5b60005461010090046001600160a01b0316ff5b6004546001600160a01b031681565b610488610a45565b6104c7576040805162461bcd60e51b81526020600482018190526024820152600080516020611813833981519152604482015290519081900360640190fd5b600080546040516001600160a01b036101009092049190911691303180156108fc02929091818181858888f19350505050158015610509573d6000803e3d6000fd5b50565b6000805460ff16610564576040805162461bcd60e51b815260206004820152601f60248201527f5265656e7472616e637947756172643a207265656e7472616e742063616c6c00604482015290519081900360640190fd5b6000805460ff191690819055600160a81b900460ff16156105cc576040805162461bcd60e51b815260206004820152601260248201527f54656d706f726172696c79205061757365640000000000000000000000000000604482015290519081900360640190fd5b600080546105f2906105ea908590600160b01b900461ffff16610ce0565b612710610d42565b9050600080610602858488610d84565b600354919350915060009081906001600160a01b038981169116141561064257600454610638906001600160a01b031685611090565b90508291506106ac565b6004546001600160a01b03898116911614156106785760035461066e906001600160a01b031685611090565b91508290506106ac565b60035461068e906001600160a01b031685611090565b6004549092506106a99089906001600160a01b0316856111ef565b90505b60006106b883836113f8565b6006546040805163a9059cbb60e01b81526001600160a01b038e8116600483015260248201859052915193945091169163a9059cbb916044808201926020929091908290030181600087803b15801561071057600080fd5b505af1158015610724573d6000803e3d6000fd5b505050506040513d602081101561073a57600080fd5b505161078d576040805162461bcd60e51b815260206004820152601660248201527f4572726f72207472616e7366657272696e672043525600000000000000000000604482015290519081900360640190fd5b600196505050505050506000805460ff191660011790559392505050565b6002546001600160a01b031681565b6107c2610a45565b610801576040805162461bcd60e51b81526020600482018190526024820152600080516020611813833981519152604482015290519081900360640190fd5b604080516370a0823160e01b815230600482015290516000916001600160a01b038416916370a0823191602480820192602092909190829003018186803b15801561084b57600080fd5b505afa15801561085f573d6000803e3d6000fd5b505050506040513d602081101561087557600080fd5b5051600080546040805163a9059cbb60e01b81526101009092046001600160a01b03908116600484015260248301859052905193945085169263a9059cbb92604480840193602093929083900390910190829087803b1580156108d757600080fd5b505af11580156108eb573d6000803e3d6000fd5b505050506040513d602081101561090157600080fd5b50505050565b600054600160b01b900461ffff1681565b610920610a45565b61095f576040805162461bcd60e51b81526020600482018190526024820152600080516020611813833981519152604482015290519081900360640190fd5b600080546040516101009091046001600160a01b0316907f8be0079c531659141344cd1fd0a4f28419497f9722a3daafe3b4186f6b6457e0908390a36000805474ffffffffffffffffffffffffffffffffffffffff0019169055565b6109c3610a45565b610a02576040805162461bcd60e51b81526020600482018190526024820152600080516020611813833981519152604482015290519081900360640190fd5b6001805473ffffffffffffffffffffffffffffffffffffffff19166001600160a01b0392909216919091179055565b60005461010090046001600160a01b031690565b6000805461010090046001600160a01b0316610a5f611577565b6001600160a01b031614905090565b6005546001600160a01b031681565b6003546005546040805163095ea7b360e01b81526001600160a01b03928316600482015260001960248201529051919092169163095ea7b39160448083019260209291908290030181600087803b158015610ad757600080fd5b505af1158015610aeb573d6000803e3d6000fd5b505050506040513d6020811015610b0157600080fd5b5050600480546005546040805163095ea7b360e01b81526001600160a01b039283169481019490945260001960248501525191169163095ea7b39160448083019260209291908290030181600087803b158015610b5d57600080fd5b505af1158015610b71573d6000803e3d6000fd5b505050506040513d6020811015610b8757600080fd5b5050565b6006546001600160a01b031681565b610ba2610a45565b610be1576040805162461bcd60e51b81526020600482018190526024820152600080516020611813833981519152604482015290519081900360640190fd5b60008161ffff16118015610bfa57506127108161ffff16105b610c4b576040805162461bcd60e51b815260206004820152601a60248201527f476f6f6457696c6c2056616c7565206e6f7420616c6c6f776564000000000000604482015290519081900360640190fd5b6000805461ffff909216600160b01b0261ffff60b01b19909216919091179055565b60005461010090046001600160a01b031681565b6001546001600160a01b031681565b610c98610a45565b610cd7576040805162461bcd60e51b81526020600482018190526024820152600080516020611813833981519152604482015290519081900360640190fd5b6105098161157b565b600082610cef57506000610d3c565b82820282848281610cfc57fe5b0414610d395760405162461bcd60e51b81526004018080602001828103825260218152602001806117f26021913960400191505060405180910390fd5b90505b92915050565b6000610d3983836040518060400160405280601a81526020017f536166654d6174683a206469766973696f6e206279207a65726f000000000000815250611633565b600254604080516303795fb160e11b81526001600160a01b0384811660048301529151600093849384939116916306f2bf6291602480820192602092909190829003018186803b158015610dd757600080fd5b505afa158015610deb573d6000803e3d6000fd5b505050506040513d6020811015610e0157600080fd5b505190506001600160a01b0381166323b872dd3330610e208a8a6116d5565b6040518463ffffffff1660e01b815260040180846001600160a01b03166001600160a01b03168152602001836001600160a01b03166001600160a01b031681526020018281526020019350505050602060405180830381600087803b158015610e8857600080fd5b505af1158015610e9c573d6000803e3d6000fd5b505050506040513d6020811015610eb257600080fd5b5051610f05576040805162461bcd60e51b815260206004820152601a60248201527f4572726f7220696e207472616e7366657272696e67204c503a31000000000000604482015290519081900360640190fd5b600154604080516323b872dd60e01b81523360048201526001600160a01b039283166024820152604481018890529051918316916323b872dd916064808201926020929091908290030181600087803b158015610f6157600080fd5b505af1158015610f75573d6000803e3d6000fd5b505050506040513d6020811015610f8b57600080fd5b5051610fde576040805162461bcd60e51b815260206004820152601a60248201527f4572726f7220696e207472616e7366657272696e67204c503a32000000000000604482015290519081900360640190fd5b806001600160a01b031663f88bf15a610ff788886116d5565b60018061100642610708611717565b6040518563ffffffff1660e01b8152600401808581526020018481526020018381526020018281526020019450505050506040805180830381600087803b15801561105057600080fd5b505af1158015611064573d6000803e3d6000fd5b505050506040513d604081101561107a57600080fd5b5080516020909101519097909650945050505050565b600254604080516303795fb160e11b81526001600160a01b0385811660048301529151600093849316916306f2bf62916024808301926020929190829003018186803b1580156110df57600080fd5b505afa1580156110f3573d6000803e3d6000fd5b505050506040513d602081101561110957600080fd5b505190506001600160a01b03811663f39b5b9b84600161112b42610708611717565b6040518463ffffffff1660e01b815260040180838152602001828152602001925050506020604051808303818588803b15801561116757600080fd5b505af115801561117b573d6000803e3d6000fd5b50505050506040513d602081101561119257600080fd5b50519150816111e8576040805162461bcd60e51b815260206004820152601560248201527f4572726f7220696e207377617070696e67204554480000000000000000000000604482015290519081900360640190fd5b5092915050565b600254604080516303795fb160e11b81526001600160a01b0386811660048301529151600093849316916306f2bf62916024808301926020929190829003018186803b15801561123e57600080fd5b505afa158015611252573d6000803e3d6000fd5b505050506040513d602081101561126857600080fd5b50516040805163095ea7b360e01b81526001600160a01b0380841660048301526024820187905291519293509087169163095ea7b3916044808201926020929091908290030181600087803b1580156112c057600080fd5b505af11580156112d4573d6000803e3d6000fd5b505050506040513d60208110156112ea57600080fd5b50506001600160a01b03811663ddf7e1a78460018061130b42610708611717565b896040518663ffffffff1660e01b815260040180868152602001858152602001848152602001838152602001826001600160a01b03166001600160a01b0316815260200195505050505050602060405180830381600087803b15801561137057600080fd5b505af1158015611384573d6000803e3d6000fd5b505050506040513d602081101561139a57600080fd5b50519150816113f0576040805162461bcd60e51b815260206004820152601560248201527f4572726f7220696e207377617070696e67204552430000000000000000000000604482015290519081900360640190fd5b509392505050565b600554604080516080808201835285825260208201859052600082840181905260608301819052925162a6cbcd60e21b815292936001600160a01b031692839263029b2f34929091869160049091019081908490808383875b83811015611469578181015183820152602001611451565b5050505090500182815260200192505050600060405180830381600087803b15801561149457600080fd5b505af11580156114a8573d6000803e3d6000fd5b5050600654604080516370a0823160e01b815230600482015290516001600160a01b0390921693506370a082319250602480820192602092909190829003018186803b1580156114f757600080fd5b505afa15801561150b573d6000803e3d6000fd5b505050506040513d602081101561152157600080fd5b50519150816111e8576040805162461bcd60e51b815260206004820152601560248201527f4572726f72207377617070696e6720746f204352560000000000000000000000604482015290519081900360640190fd5b3390565b6001600160a01b0381166115c05760405162461bcd60e51b81526004018080602001828103825260268152602001806117cc6026913960400191505060405180910390fd5b600080546040516001600160a01b038085169361010090930416917f8be0079c531659141344cd1fd0a4f28419497f9722a3daafe3b4186f6b6457e091a3600080546001600160a01b039092166101000274ffffffffffffffffffffffffffffffffffffffff0019909216919091179055565b600081836116bf5760405162461bcd60e51b81526004018080602001828103825283818151815260200191508051906020019080838360005b8381101561168457818101518382015260200161166c565b50505050905090810190601f1680156116b15780820380516001836020036101000a031916815260200191505b509250505060405180910390fd5b5060008385816116cb57fe5b0495945050505050565b6000610d3983836040518060400160405280601e81526020017f536166654d6174683a207375627472616374696f6e206f766572666c6f770000815250611771565b600082820183811015610d39576040805162461bcd60e51b815260206004820152601b60248201527f536166654d6174683a206164646974696f6e206f766572666c6f770000000000604482015290519081900360640190fd5b600081848411156117c35760405162461bcd60e51b815260206004820181815283516024840152835190928392604490910191908501908083836000831561168457818101518382015260200161166c565b50505090039056fe4f776e61626c653a206e6577206f776e657220697320746865207a65726f2061646472657373536166654d6174683a206d756c7469706c69636174696f6e206f766572666c6f774f776e61626c653a2063616c6c6572206973206e6f7420746865206f776e6572a265627a7a723158204c2143887997a159ef98dcddd46456db5830bc386218f310ca3429d8966bf2c364736f6c634300050d0032",
  "compiler": {
    "name": "solc",
    "version": "0.5.13+commit.5b0b510c.Emscripten.clang",
    "optimizer": {
      "enabled": true,
      "runs": 500
    },
    "evmVersion": "petersburg"
  }
}