{
  "fileName": "UniSwap_ETH_cDAI_upgradable.sol",
  "contractName": "UniSwap_ETH_CDAIZap",
  "source": "// Copyright (C) 2019, 2020 dipeshsukhani, nodarjonashi, toshsharma, suhailg\n\n// This program is free software: you can redistribute it and/or modify\n// it under the terms of the GNU Affero General Public License as published by\n// the Free Software Foundation, either version 2 of the License, or\n// (at your option) any later version.\n//\n// This program is distributed in the hope that it will be useful,\n// but WITHOUT ANY WARRANTY; without even the implied warranty of\n// MERCHANTABILITY or FITNESS FOR A PARTICULAR PURPOSE.  See the\n// GNU Affero General Public License for more details.\n//\n// Visit <https://www.gnu.org/licenses/>for a copy of the GNU Affero General Public License\n\n/**\n * WARNING: This is an upgradable contract. Be careful not to disrupt\n * the existing storage layout when making upgrades to the contract. In particular,\n * existing fields should not be removed and should not have their types changed.\n * The order of field declarations must not be changed, and new fields must be added\n * below all existing declarations.\n *\n * The base contracts and the order in which they are declared must not be changed.\n * New fields must not be added to base contracts (unless the base contract has\n * reserved placeholder fields for this purpose).\n *\n * See https://docs.zeppelinos.org/docs/writing_contracts.html for more info.\n*/\n\npragma solidity ^0.5.0;\n\nimport \"../../../node_modules/@openzeppelin/upgrades/contracts/Initializable.sol\";\nimport \"../../../node_modules/@openzeppelin/contracts-ethereum-package/contracts/math/SafeMath.sol\";\nimport \"../../../node_modules/@openzeppelin/contracts-ethereum-package/contracts/token/ERC20/IERC20.sol\";\n\n///@author DeFiZap\n///@notice this contract implements one click conversion from ETH to unipool liquidity tokens (cDAI)\n\ninterface IuniswapFactory {\n    function getExchange(address token) external view returns (address exchange);\n}\n\n\ninterface IuniswapExchange {\n    function getEthToTokenInputPrice(uint256 eth_sold) external view returns (uint256 tokens_bought);\n    function ethToTokenSwapInput(uint256 min_tokens, uint256 deadline) external payable returns (uint256  tokens_bought);\n    function balanceOf(address _owner) external view returns (uint256);\n    function transfer(address _to, uint256 _value) external returns (bool);\n    function addLiquidity(uint256 min_liquidity, uint256 max_tokens, uint256 deadline) external payable returns (uint256);\n}\n\ninterface IKyberInterface {\n    function swapTokentoToken(IERC20 _srcTokenAddressIERC20, IERC20 _dstTokenAddress, uint _slippageValue, address _toWhomToIssue) external payable returns (uint);\n}\n\ninterface Compound {\n    function approve ( address spender, uint256 amount ) external returns ( bool );\n    function mint ( uint256 mintAmount ) external returns ( uint256 );\n    function balanceOf(address _owner) external view returns (uint256 balance);\n    function transfer(address _to, uint _value) external returns (bool success);\n}\n\n\ncontract UniSwap_ETH_CDAIZap is Initializable {\n    using SafeMath for uint;\n    // state variables\n    \n    // - THESE MUST ALWAYS STAY IN THE SAME LAYOUT\n    bool private stopped;\n    address payable public owner;\n    IuniswapFactory public UniSwapFactoryAddress;\n    IKyberInterface public KyberInterfaceAddresss;\n    IERC20 public NEWDAI_TOKEN_ADDRESS;\n    Compound public COMPOUND_TOKEN_ADDRESS;\n    \n\n    // events\n    event ERC20TokenHoldingsOnConversionDaiChai(uint);\n    event ERC20TokenHoldingsOnConversionEthDai(uint);\n    event LiquidityTokens(uint);\n     \n    // circuit breaker modifiers\n    modifier stopInEmergency {if (!stopped) _;}\n    modifier onlyInEmergency {if (stopped) _;}\n    modifier onlyOwner() {\n        require(isOwner(), \"you are not authorised to call this function\");\n        _;\n    }\n    \n    \n    function initialize() initializer public {\n        stopped = false;\n        owner = msg.sender;\n        UniSwapFactoryAddress = IuniswapFactory(0xc0a47dFe034B400B47bDaD5FecDa2621de6c4d95);\n        NEWDAI_TOKEN_ADDRESS = IERC20(0x6B175474E89094C44Da98b954EedeAC495271d0F);\n        COMPOUND_TOKEN_ADDRESS = Compound(0x5d3a536E4D6DbD6114cc1Ead35777bAB948E3643);\n        KyberInterfaceAddresss = IKyberInterface(0x16183BE9f0c145fc6c24E1780211F51767382135);\n    }\n\n    \n    function set_new_UniSwapFactoryAddress(address _new_UniSwapFactoryAddress) public onlyOwner {\n        UniSwapFactoryAddress = IuniswapFactory(_new_UniSwapFactoryAddress);\n        \n    }\n\n    function set_new_DAI_TOKEN_ADDRESS(address _new_DAI_TOKEN_ADDRESS) public onlyOwner {\n        NEWDAI_TOKEN_ADDRESS = IERC20(_new_DAI_TOKEN_ADDRESS);\n        \n    }\n\n    function set_new_cDAI_TokenContractAddress(address _new_cDAI_TokenContractAddress) public onlyOwner {\n        COMPOUND_TOKEN_ADDRESS = Compound(address(_new_cDAI_TokenContractAddress));\n        \n    }\n\n    function set_KyberInterfaceAddresss(IKyberInterface _new_KyberInterfaceAddresss) public onlyOwner {\n        KyberInterfaceAddresss = _new_KyberInterfaceAddresss;\n    }\n\n    \n    \n    function LetsInvest(address _src, address _towhomtoissue, uint _MaxslippageValue) public payable stopInEmergency returns (uint) {\n        IERC20 ERC20TokenAddress = IERC20(address(COMPOUND_TOKEN_ADDRESS));\n        IuniswapExchange UniSwapExchangeContractAddress = IuniswapExchange(UniSwapFactoryAddress.getExchange(address(COMPOUND_TOKEN_ADDRESS)));\n\n        // determining the portion of the incoming ETH to be converted to the ERC20 Token\n        uint conversionPortion = SafeMath.div(SafeMath.mul(msg.value, 505), 1000);\n        uint non_conversionPortion = SafeMath.sub(msg.value,conversionPortion);\n\n        KyberInterfaceAddresss.swapTokentoToken.value(conversionPortion)(IERC20(_src), NEWDAI_TOKEN_ADDRESS, _MaxslippageValue, address(this));\n        uint tokenBalance = NEWDAI_TOKEN_ADDRESS.balanceOf(address(this));\n        // conversion of DAI to cDAI\n        uint qty2approve = SafeMath.mul(tokenBalance, 3);\n        require(NEWDAI_TOKEN_ADDRESS.approve(address(ERC20TokenAddress), qty2approve));\n        COMPOUND_TOKEN_ADDRESS.mint(tokenBalance);\n        uint ERC20TokenHoldings = ERC20TokenAddress.balanceOf(address(this));\n        require (ERC20TokenHoldings > 0, \"the conversion did not happen as planned\");\n        emit ERC20TokenHoldingsOnConversionDaiChai(ERC20TokenHoldings);\n        NEWDAI_TOKEN_ADDRESS.approve(address(ERC20TokenAddress), 0);\n        ERC20TokenAddress.approve(address(UniSwapExchangeContractAddress),ERC20TokenHoldings);\n\n        // adding Liquidity\n        uint max_tokens_ans = getMaxTokens(address(UniSwapExchangeContractAddress), ERC20TokenAddress, non_conversionPortion);\n        UniSwapExchangeContractAddress.addLiquidity.value(non_conversionPortion)(1,max_tokens_ans,SafeMath.add(now,1800));\n        ERC20TokenAddress.approve(address(UniSwapExchangeContractAddress),0);\n\n        // transferring Liquidity\n        uint LiquityTokenHoldings = UniSwapExchangeContractAddress.balanceOf(address(this));\n        emit LiquidityTokens(LiquityTokenHoldings);\n        UniSwapExchangeContractAddress.transfer(_towhomtoissue, LiquityTokenHoldings);\n        ERC20TokenHoldings = ERC20TokenAddress.balanceOf(address(this));\n        ERC20TokenAddress.transfer(_towhomtoissue, ERC20TokenHoldings);\n        return LiquityTokenHoldings;\n    }\n\n    function getMaxTokens(address _UniSwapExchangeContractAddress, IERC20 _ERC20TokenAddress, uint _value) internal view returns (uint) {\n        uint contractBalance = address(_UniSwapExchangeContractAddress).balance;\n        uint eth_reserve = SafeMath.sub(contractBalance, _value);\n        uint token_reserve = _ERC20TokenAddress.balanceOf(_UniSwapExchangeContractAddress);\n        uint token_amount = SafeMath.div(SafeMath.mul(_value,token_reserve),eth_reserve) + 1;\n        return token_amount;\n    }\n    \n\n    // incase of half-way error\n    function inCaseTokengetsStuck(IERC20 _TokenAddress) onlyOwner public {\n        uint qty = _TokenAddress.balanceOf(address(this));\n        _TokenAddress.transfer(owner, qty);\n    }\n    \n    // - fallback function let you / anyone send ETH to this wallet without the need to call any function\n    function() external payable {\n        if (msg.sender != owner) {\n            LetsInvest(address(0xEeeeeEeeeEeEeeEeEeEeeEEEeeeeEeeeeeeeEEeE), msg.sender, 5);}\n    }\n    \n// - to Pause the contract\n    function toggleContractActive() onlyOwner public {\n        stopped = !stopped;\n    }\n    // - to withdraw any ETH balance sitting in the contract\n    function withdraw() onlyOwner public{\n        owner.transfer(address(this).balance);\n    }\n    // - to kill the contract\n    function destruct() public onlyOwner {\n        selfdestruct(owner);\n    }\n    /**\n     * @return true if `msg.sender` is the owner of the contract.\n     */\n    function isOwner() public view returns (bool) {\n        return msg.sender == owner;\n    }\n\n    /**\n     * @dev Transfers ownership of the contract to a new account (`newOwner`).\n     * Can only be called by the current owner.\n     */\n    function transferOwnership(address payable newOwner) public onlyOwner {\n        _transferOwnership(newOwner);\n    }\n\n    /**\n     * @dev Transfers ownership of the contract to a new account (`newOwner`).\n     */\n    function _transferOwnership(address payable newOwner) internal {\n        require(newOwner != address(0), \"Ownable: new owner is the zero address\");\n        owner = newOwner;\n    }\n    \n}\n",
  "sourcePath": "contracts/UpdatedZaps/Done/UniSwap_ETH_cDAI_upgradable.sol",
  "abi": [
    {
      "anonymous": false,
      "inputs": [
        {
          "indexed": false,
          "internalType": "uint256",
          "name": "",
          "type": "uint256"
        }
      ],
      "name": "ERC20TokenHoldingsOnConversionDaiChai",
      "type": "event"
    },
    {
      "anonymous": false,
      "inputs": [
        {
          "indexed": false,
          "internalType": "uint256",
          "name": "",
          "type": "uint256"
        }
      ],
      "name": "ERC20TokenHoldingsOnConversionEthDai",
      "type": "event"
    },
    {
      "anonymous": false,
      "inputs": [
        {
          "indexed": false,
          "internalType": "uint256",
          "name": "",
          "type": "uint256"
        }
      ],
      "name": "LiquidityTokens",
      "type": "event"
    },
    {
      "payable": true,
      "stateMutability": "payable",
      "type": "fallback"
    },
    {
      "constant": true,
      "inputs": [],
      "name": "COMPOUND_TOKEN_ADDRESS",
      "outputs": [
        {
          "internalType": "contract Compound",
          "name": "",
          "type": "address"
        }
      ],
      "payable": false,
      "stateMutability": "view",
      "type": "function"
    },
    {
      "constant": true,
      "inputs": [],
      "name": "KyberInterfaceAddresss",
      "outputs": [
        {
          "internalType": "contract IKyberInterface",
          "name": "",
          "type": "address"
        }
      ],
      "payable": false,
      "stateMutability": "view",
      "type": "function"
    },
    {
      "constant": false,
      "inputs": [
        {
          "internalType": "address",
          "name": "_src",
          "type": "address"
        },
        {
          "internalType": "address",
          "name": "_towhomtoissue",
          "type": "address"
        },
        {
          "internalType": "uint256",
          "name": "_MaxslippageValue",
          "type": "uint256"
        }
      ],
      "name": "LetsInvest",
      "outputs": [
        {
          "internalType": "uint256",
          "name": "",
          "type": "uint256"
        }
      ],
      "payable": true,
      "stateMutability": "payable",
      "type": "function"
    },
    {
      "constant": true,
      "inputs": [],
      "name": "NEWDAI_TOKEN_ADDRESS",
      "outputs": [
        {
          "internalType": "contract IERC20",
          "name": "",
          "type": "address"
        }
      ],
      "payable": false,
      "stateMutability": "view",
      "type": "function"
    },
    {
      "constant": true,
      "inputs": [],
      "name": "UniSwapFactoryAddress",
      "outputs": [
        {
          "internalType": "contract IuniswapFactory",
          "name": "",
          "type": "address"
        }
      ],
      "payable": false,
      "stateMutability": "view",
      "type": "function"
    },
    {
      "constant": false,
      "inputs": [],
      "name": "destruct",
      "outputs": [],
      "payable": false,
      "stateMutability": "nonpayable",
      "type": "function"
    },
    {
      "constant": false,
      "inputs": [
        {
          "internalType": "contract IERC20",
          "name": "_TokenAddress",
          "type": "address"
        }
      ],
      "name": "inCaseTokengetsStuck",
      "outputs": [],
      "payable": false,
      "stateMutability": "nonpayable",
      "type": "function"
    },
    {
      "constant": false,
      "inputs": [],
      "name": "initialize",
      "outputs": [],
      "payable": false,
      "stateMutability": "nonpayable",
      "type": "function"
    },
    {
      "constant": true,
      "inputs": [],
      "name": "isOwner",
      "outputs": [
        {
          "internalType": "bool",
          "name": "",
          "type": "bool"
        }
      ],
      "payable": false,
      "stateMutability": "view",
      "type": "function"
    },
    {
      "constant": true,
      "inputs": [],
      "name": "owner",
      "outputs": [
        {
          "internalType": "address payable",
          "name": "",
          "type": "address"
        }
      ],
      "payable": false,
      "stateMutability": "view",
      "type": "function"
    },
    {
      "constant": false,
      "inputs": [
        {
          "internalType": "contract IKyberInterface",
          "name": "_new_KyberInterfaceAddresss",
          "type": "address"
        }
      ],
      "name": "set_KyberInterfaceAddresss",
      "outputs": [],
      "payable": false,
      "stateMutability": "nonpayable",
      "type": "function"
    },
    {
      "constant": false,
      "inputs": [
        {
          "internalType": "address",
          "name": "_new_DAI_TOKEN_ADDRESS",
          "type": "address"
        }
      ],
      "name": "set_new_DAI_TOKEN_ADDRESS",
      "outputs": [],
      "payable": false,
      "stateMutability": "nonpayable",
      "type": "function"
    },
    {
      "constant": false,
      "inputs": [
        {
          "internalType": "address",
          "name": "_new_UniSwapFactoryAddress",
          "type": "address"
        }
      ],
      "name": "set_new_UniSwapFactoryAddress",
      "outputs": [],
      "payable": false,
      "stateMutability": "nonpayable",
      "type": "function"
    },
    {
      "constant": false,
      "inputs": [
        {
          "internalType": "address",
          "name": "_new_cDAI_TokenContractAddress",
          "type": "address"
        }
      ],
      "name": "set_new_cDAI_TokenContractAddress",
      "outputs": [],
      "payable": false,
      "stateMutability": "nonpayable",
      "type": "function"
    },
    {
      "constant": false,
      "inputs": [],
      "name": "toggleContractActive",
      "outputs": [],
      "payable": false,
      "stateMutability": "nonpayable",
      "type": "function"
    },
    {
      "constant": false,
      "inputs": [
        {
          "internalType": "address payable",
          "name": "newOwner",
          "type": "address"
        }
      ],
      "name": "transferOwnership",
      "outputs": [],
      "payable": false,
      "stateMutability": "nonpayable",
      "type": "function"
    },
    {
      "constant": false,
      "inputs": [],
      "name": "withdraw",
      "outputs": [],
      "payable": false,
      "stateMutability": "nonpayable",
      "type": "function"
    }
  ],
  "bytecode": "0x608060405234801561001057600080fd5b50611664806100206000396000f3fe6080604052600436106100fe5760003560e01c80637f9322cc116100955780638f32d59b116100645780638f32d59b146102fc578063ae4de7fa14610325578063ea181d1d14610358578063f2fde38b1461036d578063f548f2f2146103a0576100fe565b80637f9322cc146102575780638129fc1c1461029f5780638354008d146102b45780638da5cb5b146102e7576100fe565b80633ccfd60b116100d15780633ccfd60b146101c7578063525d509e146101dc578063551196d5146101f1578063588f08c414610224576100fe565b80630d30e929146101395780631385d24c1461016c5780632b68b9c61461018157806330139f7f14610196575b60335461010090046001600160a01b031633146101375761013573eeeeeeeeeeeeeeeeeeeeeeeeeeeeeeeeeeeeeeee3360056103b5565b505b005b34801561014557600080fd5b506101376004803603602081101561015c57600080fd5b50356001600160a01b0316610bda565b34801561017857600080fd5b50610137610c3f565b34801561018d57600080fd5b50610137610c96565b3480156101a257600080fd5b506101ab610cec565b604080516001600160a01b039092168252519081900360200190f35b3480156101d357600080fd5b50610137610cfb565b3480156101e857600080fd5b506101ab610d82565b3480156101fd57600080fd5b506101376004803603602081101561021457600080fd5b50356001600160a01b0316610d91565b34801561023057600080fd5b506101376004803603602081101561024757600080fd5b50356001600160a01b0316610ed8565b61028d6004803603606081101561026d57600080fd5b506001600160a01b038135811691602081013590911690604001356103b5565b60408051918252519081900360200190f35b3480156102ab57600080fd5b50610137610f3d565b3480156102c057600080fd5b50610137600480360360208110156102d757600080fd5b50356001600160a01b0316611088565b3480156102f357600080fd5b506101ab6110ed565b34801561030857600080fd5b50610311611101565b604080519115158252519081900360200190f35b34801561033157600080fd5b506101376004803603602081101561034857600080fd5b50356001600160a01b0316611117565b34801561036457600080fd5b506101ab61117c565b34801561037957600080fd5b506101376004803603602081101561039057600080fd5b50356001600160a01b031661118b565b3480156103ac57600080fd5b506101ab6111d7565b60335460009060ff16610bd357603754603454604080516303795fb160e11b81526001600160a01b03938416600482018190529151919360009316916306f2bf6291602480820192602092909190829003018186803b15801561041757600080fd5b505afa15801561042b573d6000803e3d6000fd5b505050506040513d602081101561044157600080fd5b50519050600061045e610456346101f96111e6565b6103e8611248565b9050600061046c348361128a565b6035546036546040805163885a3a1560e01b81526001600160a01b038d811660048301529283166024820152604481018b9052306064820152905193945091169163885a3a15918591608480830192602092919082900301818588803b1580156104d557600080fd5b505af11580156104e9573d6000803e3d6000fd5b50505050506040513d602081101561050057600080fd5b5050603654604080516370a0823160e01b815230600482015290516000926001600160a01b0316916370a08231916024808301926020929190829003018186803b15801561054d57600080fd5b505afa158015610561573d6000803e3d6000fd5b505050506040513d602081101561057757600080fd5b5051905060006105888260036111e6565b6036546040805163095ea7b360e01b81526001600160a01b038a8116600483015260248201859052915193945091169163095ea7b3916044808201926020929091908290030181600087803b1580156105e057600080fd5b505af11580156105f4573d6000803e3d6000fd5b505050506040513d602081101561060a57600080fd5b505161061557600080fd5b6037546040805163140e25ad60e31b81526004810185905290516001600160a01b039092169163a0712d68916024808201926020929091908290030181600087803b15801561066357600080fd5b505af1158015610677573d6000803e3d6000fd5b505050506040513d602081101561068d57600080fd5b5050604080516370a0823160e01b815230600482015290516000916001600160a01b038916916370a0823191602480820192602092909190829003018186803b1580156106d957600080fd5b505afa1580156106ed573d6000803e3d6000fd5b505050506040513d602081101561070357600080fd5b50519050806107435760405162461bcd60e51b81526004018080602001828103825260288152602001806115da6028913960400191505060405180910390fd5b6040805182815290517f609cec8b329c246fab8023c5080416eac37627fd87b831e229ad54919bb42edb9181900360200190a16036546040805163095ea7b360e01b81526001600160a01b038a81166004830152600060248301819052925193169263095ea7b392604480840193602093929083900390910190829087803b1580156107ce57600080fd5b505af11580156107e2573d6000803e3d6000fd5b505050506040513d60208110156107f857600080fd5b50506040805163095ea7b360e01b81526001600160a01b0388811660048301526024820184905291519189169163095ea7b3916044808201926020929091908290030181600087803b15801561084d57600080fd5b505af1158015610861573d6000803e3d6000fd5b505050506040513d602081101561087757600080fd5b50600090506108878789876112cc565b9050866001600160a01b031663422f1043866001846108a842610708611390565b6040518563ffffffff1660e01b81526004018084815260200183815260200182815260200193505050506020604051808303818588803b1580156108eb57600080fd5b505af11580156108ff573d6000803e3d6000fd5b50505050506040513d602081101561091657600080fd5b50506040805163095ea7b360e01b81526001600160a01b0389811660048301526000602483018190529251908b169263095ea7b392604480820193602093909283900390910190829087803b15801561096e57600080fd5b505af1158015610982573d6000803e3d6000fd5b505050506040513d602081101561099857600080fd5b5050604080516370a0823160e01b815230600482015290516000916001600160a01b038a16916370a0823191602480820192602092909190829003018186803b1580156109e457600080fd5b505afa1580156109f8573d6000803e3d6000fd5b505050506040513d6020811015610a0e57600080fd5b50516040805182815290519192507ff5c05964d6de51616cafa30b23fd7dde709b1dead4389f0e4dc6ae103ef97dff919081900360200190a1876001600160a01b031663a9059cbb8d836040518363ffffffff1660e01b815260040180836001600160a01b03166001600160a01b0316815260200182815260200192505050602060405180830381600087803b158015610aa757600080fd5b505af1158015610abb573d6000803e3d6000fd5b505050506040513d6020811015610ad157600080fd5b5050604080516370a0823160e01b815230600482015290516001600160a01b038b16916370a08231916024808301926020929190829003018186803b158015610b1957600080fd5b505afa158015610b2d573d6000803e3d6000fd5b505050506040513d6020811015610b4357600080fd5b50516040805163a9059cbb60e01b81526001600160a01b038f81166004830152602482018490529151929550908b169163a9059cbb916044808201926020929091908290030181600087803b158015610b9b57600080fd5b505af1158015610baf573d6000803e3d6000fd5b505050506040513d6020811015610bc557600080fd5b509099505050505050505050505b9392505050565b610be2611101565b610c1d5760405162461bcd60e51b815260040180806020018281038252602c81526020018061158d602c913960400191505060405180910390fd5b603680546001600160a01b0319166001600160a01b0392909216919091179055565b610c47611101565b610c825760405162461bcd60e51b815260040180806020018281038252602c81526020018061158d602c913960400191505060405180910390fd5b6033805460ff19811660ff90911615179055565b610c9e611101565b610cd95760405162461bcd60e51b815260040180806020018281038252602c81526020018061158d602c913960400191505060405180910390fd5b60335461010090046001600160a01b0316ff5b6037546001600160a01b031681565b610d03611101565b610d3e5760405162461bcd60e51b815260040180806020018281038252602c81526020018061158d602c913960400191505060405180910390fd5b6033546040516001600160a01b036101009092049190911690303180156108fc02916000818181858888f19350505050158015610d7f573d6000803e3d6000fd5b50565b6034546001600160a01b031681565b610d99611101565b610dd45760405162461bcd60e51b815260040180806020018281038252602c81526020018061158d602c913960400191505060405180910390fd5b604080516370a0823160e01b815230600482015290516000916001600160a01b038416916370a0823191602480820192602092909190829003018186803b158015610e1e57600080fd5b505afa158015610e32573d6000803e3d6000fd5b505050506040513d6020811015610e4857600080fd5b50516033546040805163a9059cbb60e01b81526101009092046001600160a01b03908116600484015260248301849052905192935084169163a9059cbb916044808201926020929091908290030181600087803b158015610ea857600080fd5b505af1158015610ebc573d6000803e3d6000fd5b505050506040513d6020811015610ed257600080fd5b50505050565b610ee0611101565b610f1b5760405162461bcd60e51b815260040180806020018281038252602c81526020018061158d602c913960400191505060405180910390fd5b603780546001600160a01b0319166001600160a01b0392909216919091179055565b600054610100900460ff1680610f565750610f566113ea565b80610f64575060005460ff16155b610f9f5760405162461bcd60e51b815260040180806020018281038252602e815260200180611602602e913960400191505060405180910390fd5b600054610100900460ff16158015610fca576000805460ff1961ff0019909116610100171660011790555b60338054336101000274ffffffffffffffffffffffffffffffffffffffffff19909116179055603480546001600160a01b031990811673c0a47dfe034b400b47bdad5fecda2621de6c4d9517909155603680548216736b175474e89094c44da98b954eedeac495271d0f179055603780548216735d3a536e4d6dbd6114cc1ead35777bab948e3643179055603580549091167316183be9f0c145fc6c24e1780211f517673821351790558015610d7f576000805461ff001916905550565b611090611101565b6110cb5760405162461bcd60e51b815260040180806020018281038252602c81526020018061158d602c913960400191505060405180910390fd5b603580546001600160a01b0319166001600160a01b0392909216919091179055565b60335461010090046001600160a01b031681565b60335461010090046001600160a01b0316331490565b61111f611101565b61115a5760405162461bcd60e51b815260040180806020018281038252602c81526020018061158d602c913960400191505060405180910390fd5b603480546001600160a01b0319166001600160a01b0392909216919091179055565b6036546001600160a01b031681565b611193611101565b6111ce5760405162461bcd60e51b815260040180806020018281038252602c81526020018061158d602c913960400191505060405180910390fd5b610d7f816113f0565b6035546001600160a01b031681565b6000826111f557506000611242565b8282028284828161120257fe5b041461123f5760405162461bcd60e51b81526004018080602001828103825260218152602001806115b96021913960400191505060405180910390fd5b90505b92915050565b600061123f83836040518060400160405280601a81526020017f536166654d6174683a206469766973696f6e206279207a65726f00000000000081525061146a565b600061123f83836040518060400160405280601e81526020017f536166654d6174683a207375627472616374696f6e206f766572666c6f77000081525061150c565b60006001600160a01b03841631816112e4828561128a565b90506000856001600160a01b03166370a08231886040518263ffffffff1660e01b815260040180826001600160a01b03166001600160a01b0316815260200191505060206040518083038186803b15801561133e57600080fd5b505afa158015611352573d6000803e3d6000fd5b505050506040513d602081101561136857600080fd5b50519050600061138161137b87846111e6565b84611248565b60010198975050505050505050565b60008282018381101561123f576040805162461bcd60e51b815260206004820152601b60248201527f536166654d6174683a206164646974696f6e206f766572666c6f770000000000604482015290519081900360640190fd5b303b1590565b6001600160a01b0381166114355760405162461bcd60e51b81526004018080602001828103825260268152602001806115676026913960400191505060405180910390fd5b603380546001600160a01b039092166101000274ffffffffffffffffffffffffffffffffffffffff0019909216919091179055565b600081836114f65760405162461bcd60e51b81526004018080602001828103825283818151815260200191508051906020019080838360005b838110156114bb5781810151838201526020016114a3565b50505050905090810190601f1680156114e85780820380516001836020036101000a031916815260200191505b509250505060405180910390fd5b50600083858161150257fe5b0495945050505050565b6000818484111561155e5760405162461bcd60e51b81526020600482018181528351602484015283519092839260449091019190850190808383600083156114bb5781810151838201526020016114a3565b50505090039056fe4f776e61626c653a206e6577206f776e657220697320746865207a65726f2061646472657373796f7520617265206e6f7420617574686f726973656420746f2063616c6c20746869732066756e6374696f6e536166654d6174683a206d756c7469706c69636174696f6e206f766572666c6f7774686520636f6e76657273696f6e20646964206e6f742068617070656e20617320706c616e6e6564436f6e747261637420696e7374616e63652068617320616c7265616479206265656e20696e697469616c697a6564a265627a7a72315820689c07e5ab1ede6c9af6674b13fdcaa1c13bbd22532866340c57f87ddd41e57164736f6c634300050d0032",
  "compiler": {
    "name": "solc",
    "version": "0.5.13+commit.5b0b510c.Emscripten.clang",
    "optimizer": {
      "enabled": true,
      "runs": 500
    },
    "evmVersion": "petersburg"
  }
}