{
  "fileName": "Uniswap_ETH_LinkZap.sol",
  "contractName": "UniSwap_ETH_LinkZap",
  "source": "// Copyright (C) 2019, 2020 dipeshsukhani, nodarjonashi, toshsharma, suhailg\n\n// This program is free software: you can redistribute it and/or modify\n// it under the terms of the GNU Affero General Public License as published by\n// the Free Software Foundation, either version 2 of the License, or\n// (at your option) any later version.\n//\n// This program is distributed in the hope that it will be useful,\n// but WITHOUT ANY WARRANTY; without even the implied warranty of\n// MERCHANTABILITY or FITNESS FOR A PARTICULAR PURPOSE.  See the\n// GNU Affero General Public License for more details.\n//\n// Visit <https://www.gnu.org/licenses/>for a copy of the GNU Affero General Public License\n\n/**\n * WARNING: This is an upgradable contract. Be careful not to disrupt\n * the existing storage layout when making upgrades to the contract. In particular,\n * existing fields should not be removed and should not have their types changed.\n * The order of field declarations must not be changed, and new fields must be added\n * below all existing declarations.\n *\n * The base contracts and the order in which they are declared must not be changed.\n * New fields must not be added to base contracts (unless the base contract has\n * reserved placeholder fields for this purpose).\n *\n * See https://docs.zeppelinos.org/docs/writing_contracts.html for more info.\n*/\n\npragma solidity ^0.5.0;\n\nimport \"../../../node_modules/@openzeppelin/upgrades/contracts/Initializable.sol\";\nimport \"../../../node_modules/@openzeppelin/contracts-ethereum-package/contracts/math/SafeMath.sol\";\nimport \"../../../node_modules/@openzeppelin/contracts-ethereum-package/contracts/token/ERC20/IERC20.sol\";\n\n\ninterface UniSwapAddLiquityV2_General {\n    function LetsInvest(address _TokenContractAddress, address _towhomtoissue) external payable returns (uint);\n}\n\n\n// through this contract we are putting 34% allocation to 2xLongETH and 66% to Uniswap pool\ncontract UniSwap_ETH_LinkZap is Initializable {\n    using SafeMath for uint;\n    \n    // state variables\n\n    // - THESE MUST ALWAYS STAY IN THE SAME LAYOUT\n    bool private stopped;\n    address payable public owner;\n    UniSwapAddLiquityV2_General public UniSwapAddLiquityV2_GeneralAddress;\n    address public LINK_TOKEN_ADDRESS;\n\n    // circuit breaker modifiers\n    modifier stopInEmergency {\n        if (stopped) \n            {revert(\"Temporarily Paused\");} \n        else {\n            _;}\n        }\n    modifier onlyOwner() {\n        require(isOwner(), \"you are not authorised to call this function\");\n        _;\n    }\n    \n    function initialize (address _UniSwapAddLiquityV2_GeneralAddress, address _LINK_TOKEN_ADDRESS) initializer public {\n        stopped = false;\n        owner = msg.sender;\n        UniSwapAddLiquityV2_GeneralAddress = UniSwapAddLiquityV2_General(_UniSwapAddLiquityV2_GeneralAddress);\n        LINK_TOKEN_ADDRESS = _LINK_TOKEN_ADDRESS;\n    }\n\n    // this function should be called should we ever want to change the underlying Kyber Interface Contract address\n    function set_UniSwapAddLiquityV2_GeneralAddress(address _new_UniSwapAddLiquityV2_GeneralAddress) public onlyOwner {\n        UniSwapAddLiquityV2_GeneralAddress = UniSwapAddLiquityV2_General (_new_UniSwapAddLiquityV2_GeneralAddress);\n    }\n    \n    // this function should be called should we ever want to change the LINK token address\n    function set_new_LINK_TOKEN_ADDRESS(address _new_LINK_TOKEN_ADDRESS) public onlyOwner {\n        LINK_TOKEN_ADDRESS = _new_LINK_TOKEN_ADDRESS;\n    }\n    \n    // main function which will make the investments\n    function LetsInvest(address payable _towhomtoIssueAddress, uint _slippage, bool _residualInToken) public payable returns(uint) {\n        uint LiquidityTokens = UniSwapAddLiquityV2_GeneralAddress.LetsInvest.value(msg.value)(LINK_TOKEN_ADDRESS, _towhomtoIssueAddress);\n        return (LiquidityTokens);\n    }\n\n    function inCaseTokengetsStuck(IERC20 _TokenAddress) onlyOwner public {\n        uint qty = _TokenAddress.balanceOf(address(this));\n        _TokenAddress.transfer(owner, qty);\n    }\n\n\n    // - fallback function let you / anyone send ETH to this wallet without the need to call any function\n    function() external payable {\n        if (msg.sender != owner) {\n            LetsInvest(msg.sender, 5, false);}\n    }\n    \n    // - to Pause the contract\n    function toggleContractActive() onlyOwner public {\n        stopped = !stopped;\n    }\n\n    // - to withdraw any ETH balance sitting in the contract\n    function withdraw() onlyOwner public{\n        owner.transfer(address(this).balance);\n    }\n    \n    // - to kill the contract\n    function destruct() public onlyOwner {\n        selfdestruct(owner);\n    }\n\n\n    /**\n     * @return true if `msg.sender` is the owner of the contract.\n     */\n    function isOwner() public view returns (bool) {\n        return msg.sender == owner;\n    }\n\n    /**\n     * @dev Transfers ownership of the contract to a new account (`newOwner`).\n     * Can only be called by the current owner.\n     */\n    function transferOwnership(address payable newOwner) public onlyOwner {\n        _transferOwnership(newOwner);\n    }\n\n    /**\n     * @dev Transfers ownership of the contract to a new account (`newOwner`).\n     */\n    function _transferOwnership(address payable newOwner) internal {\n        require(newOwner != address(0), \"Ownable: new owner is the zero address\");\n        owner = newOwner;\n    }\n\n}\n",
  "sourcePath": "contracts/UpdatedZaps/Current WIP/Uniswap_ETH_LinkZap.sol",
  "abi": [
    {
      "payable": true,
      "stateMutability": "payable",
      "type": "fallback"
    },
    {
      "constant": true,
      "inputs": [],
      "name": "LINK_TOKEN_ADDRESS",
      "outputs": [
        {
          "internalType": "address",
          "name": "",
          "type": "address"
        }
      ],
      "payable": false,
      "stateMutability": "view",
      "type": "function"
    },
    {
      "constant": false,
      "inputs": [
        {
          "internalType": "address payable",
          "name": "_towhomtoIssueAddress",
          "type": "address"
        },
        {
          "internalType": "uint256",
          "name": "_slippage",
          "type": "uint256"
        },
        {
          "internalType": "bool",
          "name": "_residualInToken",
          "type": "bool"
        }
      ],
      "name": "LetsInvest",
      "outputs": [
        {
          "internalType": "uint256",
          "name": "",
          "type": "uint256"
        }
      ],
      "payable": true,
      "stateMutability": "payable",
      "type": "function"
    },
    {
      "constant": true,
      "inputs": [],
      "name": "UniSwapAddLiquityV2_GeneralAddress",
      "outputs": [
        {
          "internalType": "contract UniSwapAddLiquityV2_General",
          "name": "",
          "type": "address"
        }
      ],
      "payable": false,
      "stateMutability": "view",
      "type": "function"
    },
    {
      "constant": false,
      "inputs": [],
      "name": "destruct",
      "outputs": [],
      "payable": false,
      "stateMutability": "nonpayable",
      "type": "function"
    },
    {
      "constant": false,
      "inputs": [
        {
          "internalType": "contract IERC20",
          "name": "_TokenAddress",
          "type": "address"
        }
      ],
      "name": "inCaseTokengetsStuck",
      "outputs": [],
      "payable": false,
      "stateMutability": "nonpayable",
      "type": "function"
    },
    {
      "constant": false,
      "inputs": [
        {
          "internalType": "address",
          "name": "_UniSwapAddLiquityV2_GeneralAddress",
          "type": "address"
        },
        {
          "internalType": "address",
          "name": "_LINK_TOKEN_ADDRESS",
          "type": "address"
        }
      ],
      "name": "initialize",
      "outputs": [],
      "payable": false,
      "stateMutability": "nonpayable",
      "type": "function"
    },
    {
      "constant": true,
      "inputs": [],
      "name": "isOwner",
      "outputs": [
        {
          "internalType": "bool",
          "name": "",
          "type": "bool"
        }
      ],
      "payable": false,
      "stateMutability": "view",
      "type": "function"
    },
    {
      "constant": true,
      "inputs": [],
      "name": "owner",
      "outputs": [
        {
          "internalType": "address payable",
          "name": "",
          "type": "address"
        }
      ],
      "payable": false,
      "stateMutability": "view",
      "type": "function"
    },
    {
      "constant": false,
      "inputs": [
        {
          "internalType": "address",
          "name": "_new_UniSwapAddLiquityV2_GeneralAddress",
          "type": "address"
        }
      ],
      "name": "set_UniSwapAddLiquityV2_GeneralAddress",
      "outputs": [],
      "payable": false,
      "stateMutability": "nonpayable",
      "type": "function"
    },
    {
      "constant": false,
      "inputs": [
        {
          "internalType": "address",
          "name": "_new_LINK_TOKEN_ADDRESS",
          "type": "address"
        }
      ],
      "name": "set_new_LINK_TOKEN_ADDRESS",
      "outputs": [],
      "payable": false,
      "stateMutability": "nonpayable",
      "type": "function"
    },
    {
      "constant": false,
      "inputs": [],
      "name": "toggleContractActive",
      "outputs": [],
      "payable": false,
      "stateMutability": "nonpayable",
      "type": "function"
    },
    {
      "constant": false,
      "inputs": [
        {
          "internalType": "address payable",
          "name": "newOwner",
          "type": "address"
        }
      ],
      "name": "transferOwnership",
      "outputs": [],
      "payable": false,
      "stateMutability": "nonpayable",
      "type": "function"
    },
    {
      "constant": false,
      "inputs": [],
      "name": "withdraw",
      "outputs": [],
      "payable": false,
      "stateMutability": "nonpayable",
      "type": "function"
    }
  ],
  "bytecode": "0x608060405234801561001057600080fd5b50610fed806100206000396000f3fe6080604052600436106100c25760003560e01c8063551196d51161007f5780639313b1f9116100595780639313b1f914610363578063c8273380146103b4578063dc29cda114610422578063f2fde38b14610473576100c2565b8063551196d51461028c5780638da5cb5b146102dd5780638f32d59b14610334576100c2565b806302598e0a146101285780631385d24c1461017f5780632b68b9c6146101965780633ccfd60b146101ad57806341a0622c146101c4578063485cc9551461021b575b603360019054906101000a900473ffffffffffffffffffffffffffffffffffffffff1673ffffffffffffffffffffffffffffffffffffffff163373ffffffffffffffffffffffffffffffffffffffff16146101265761012433600560006104c4565b505b005b34801561013457600080fd5b5061013d610607565b604051808273ffffffffffffffffffffffffffffffffffffffff1673ffffffffffffffffffffffffffffffffffffffff16815260200191505060405180910390f35b34801561018b57600080fd5b5061019461062d565b005b3480156101a257600080fd5b506101ab6106b6565b005b3480156101b957600080fd5b506101c261074e565b005b3480156101d057600080fd5b506101d961082d565b604051808273ffffffffffffffffffffffffffffffffffffffff1673ffffffffffffffffffffffffffffffffffffffff16815260200191505060405180910390f35b34801561022757600080fd5b5061028a6004803603604081101561023e57600080fd5b81019080803573ffffffffffffffffffffffffffffffffffffffff169060200190929190803573ffffffffffffffffffffffffffffffffffffffff169060200190929190505050610853565b005b34801561029857600080fd5b506102db600480360360208110156102af57600080fd5b81019080803573ffffffffffffffffffffffffffffffffffffffff169060200190929190505050610a32565b005b3480156102e957600080fd5b506102f2610c34565b604051808273ffffffffffffffffffffffffffffffffffffffff1673ffffffffffffffffffffffffffffffffffffffff16815260200191505060405180910390f35b34801561034057600080fd5b50610349610c5a565b604051808215151515815260200191505060405180910390f35b34801561036f57600080fd5b506103b26004803603602081101561038657600080fd5b81019080803573ffffffffffffffffffffffffffffffffffffffff169060200190929190505050610cb2565b005b61040c600480360360608110156103ca57600080fd5b81019080803573ffffffffffffffffffffffffffffffffffffffff169060200190929190803590602001909291908035151590602001909291905050506104c4565b6040518082815260200191505060405180910390f35b34801561042e57600080fd5b506104716004803603602081101561044557600080fd5b81019080803573ffffffffffffffffffffffffffffffffffffffff169060200190929190505050610d53565b005b34801561047f57600080fd5b506104c26004803603602081101561049657600080fd5b81019080803573ffffffffffffffffffffffffffffffffffffffff169060200190929190505050610df4565b005b600080603460009054906101000a900473ffffffffffffffffffffffffffffffffffffffff1673ffffffffffffffffffffffffffffffffffffffff16633a2a66cf34603560009054906101000a900473ffffffffffffffffffffffffffffffffffffffff16886040518463ffffffff1660e01b8152600401808373ffffffffffffffffffffffffffffffffffffffff1673ffffffffffffffffffffffffffffffffffffffff1681526020018273ffffffffffffffffffffffffffffffffffffffff1673ffffffffffffffffffffffffffffffffffffffff168152602001925050506020604051808303818588803b1580156105be57600080fd5b505af11580156105d2573d6000803e3d6000fd5b50505050506040513d60208110156105e957600080fd5b81019080805190602001909291905050509050809150509392505050565b603560009054906101000a900473ffffffffffffffffffffffffffffffffffffffff1681565b610635610c5a565b61068a576040517f08c379a000000000000000000000000000000000000000000000000000000000815260040180806020018281038252602c815260200180610f5f602c913960400191505060405180910390fd5b603360009054906101000a900460ff1615603360006101000a81548160ff021916908315150217905550565b6106be610c5a565b610713576040517f08c379a000000000000000000000000000000000000000000000000000000000815260040180806020018281038252602c815260200180610f5f602c913960400191505060405180910390fd5b603360019054906101000a900473ffffffffffffffffffffffffffffffffffffffff1673ffffffffffffffffffffffffffffffffffffffff16ff5b610756610c5a565b6107ab576040517f08c379a000000000000000000000000000000000000000000000000000000000815260040180806020018281038252602c815260200180610f5f602c913960400191505060405180910390fd5b603360019054906101000a900473ffffffffffffffffffffffffffffffffffffffff1673ffffffffffffffffffffffffffffffffffffffff166108fc3073ffffffffffffffffffffffffffffffffffffffff16319081150290604051600060405180830381858888f1935050505015801561082a573d6000803e3d6000fd5b50565b603460009054906101000a900473ffffffffffffffffffffffffffffffffffffffff1681565b600060019054906101000a900460ff16806108725750610871610e5d565b5b8061088957506000809054906101000a900460ff16155b6108de576040517f08c379a000000000000000000000000000000000000000000000000000000000815260040180806020018281038252602e815260200180610f8b602e913960400191505060405180910390fd5b60008060019054906101000a900460ff16159050801561092e576001600060016101000a81548160ff02191690831515021790555060016000806101000a81548160ff0219169083151502179055505b6000603360006101000a81548160ff02191690831515021790555033603360016101000a81548173ffffffffffffffffffffffffffffffffffffffff021916908373ffffffffffffffffffffffffffffffffffffffff16021790555082603460006101000a81548173ffffffffffffffffffffffffffffffffffffffff021916908373ffffffffffffffffffffffffffffffffffffffff16021790555081603560006101000a81548173ffffffffffffffffffffffffffffffffffffffff021916908373ffffffffffffffffffffffffffffffffffffffff1602179055508015610a2d5760008060016101000a81548160ff0219169083151502179055505b505050565b610a3a610c5a565b610a8f576040517f08c379a000000000000000000000000000000000000000000000000000000000815260040180806020018281038252602c815260200180610f5f602c913960400191505060405180910390fd5b60008173ffffffffffffffffffffffffffffffffffffffff166370a08231306040518263ffffffff1660e01b8152600401808273ffffffffffffffffffffffffffffffffffffffff1673ffffffffffffffffffffffffffffffffffffffff16815260200191505060206040518083038186803b158015610b0e57600080fd5b505afa158015610b22573d6000803e3d6000fd5b505050506040513d6020811015610b3857600080fd5b810190808051906020019092919050505090508173ffffffffffffffffffffffffffffffffffffffff1663a9059cbb603360019054906101000a900473ffffffffffffffffffffffffffffffffffffffff16836040518363ffffffff1660e01b8152600401808373ffffffffffffffffffffffffffffffffffffffff1673ffffffffffffffffffffffffffffffffffffffff16815260200182815260200192505050602060405180830381600087803b158015610bf457600080fd5b505af1158015610c08573d6000803e3d6000fd5b505050506040513d6020811015610c1e57600080fd5b8101908080519060200190929190505050505050565b603360019054906101000a900473ffffffffffffffffffffffffffffffffffffffff1681565b6000603360019054906101000a900473ffffffffffffffffffffffffffffffffffffffff1673ffffffffffffffffffffffffffffffffffffffff163373ffffffffffffffffffffffffffffffffffffffff1614905090565b610cba610c5a565b610d0f576040517f08c379a000000000000000000000000000000000000000000000000000000000815260040180806020018281038252602c815260200180610f5f602c913960400191505060405180910390fd5b80603460006101000a81548173ffffffffffffffffffffffffffffffffffffffff021916908373ffffffffffffffffffffffffffffffffffffffff16021790555050565b610d5b610c5a565b610db0576040517f08c379a000000000000000000000000000000000000000000000000000000000815260040180806020018281038252602c815260200180610f5f602c913960400191505060405180910390fd5b80603560006101000a81548173ffffffffffffffffffffffffffffffffffffffff021916908373ffffffffffffffffffffffffffffffffffffffff16021790555050565b610dfc610c5a565b610e51576040517f08c379a000000000000000000000000000000000000000000000000000000000815260040180806020018281038252602c815260200180610f5f602c913960400191505060405180910390fd5b610e5a81610e6e565b50565b600080303b90506000811491505090565b600073ffffffffffffffffffffffffffffffffffffffff168173ffffffffffffffffffffffffffffffffffffffff161415610ef4576040517f08c379a0000000000000000000000000000000000000000000000000000000008152600401808060200182810382526026815260200180610f396026913960400191505060405180910390fd5b80603360016101000a81548173ffffffffffffffffffffffffffffffffffffffff021916908373ffffffffffffffffffffffffffffffffffffffff1602179055505056fe4f776e61626c653a206e6577206f776e657220697320746865207a65726f2061646472657373796f7520617265206e6f7420617574686f726973656420746f2063616c6c20746869732066756e6374696f6e436f6e747261637420696e7374616e63652068617320616c7265616479206265656e20696e697469616c697a6564a265627a7a723158207a9d77906779dec0127a9e229cb3f26d62dfa31871384907dde4f81eb822ae7464736f6c634300050d0032",
  "compiler": {
    "name": "solc",
    "version": "0.5.13+commit.5b0b510c.Emscripten.clang",
    "optimizer": {
      "enabled": false,
      "runs": 200
    },
    "evmVersion": "petersburg"
  }
}