{
  "fileName": "UniSwap_ETH_cDAI_upgradable.sol",
  "contractName": "UniSwap_ETH_CDAIZap",
  "source": "// Copyright (C) 2019, 2020 dipeshsukhani, nodarjonashi, toshsharma, suhailg\n\n// This program is free software: you can redistribute it and/or modify\n// it under the terms of the GNU Affero General Public License as published by\n// the Free Software Foundation, either version 2 of the License, or\n// (at your option) any later version.\n//\n// This program is distributed in the hope that it will be useful,\n// but WITHOUT ANY WARRANTY; without even the implied warranty of\n// MERCHANTABILITY or FITNESS FOR A PARTICULAR PURPOSE.  See the\n// GNU Affero General Public License for more details.\n//\n// Visit <https://www.gnu.org/licenses/>for a copy of the GNU Affero General Public License\n\n/**\n * WARNING: This is an upgradable contract. Be careful not to disrupt\n * the existing storage layout when making upgrades to the contract. In particular,\n * existing fields should not be removed and should not have their types changed.\n * The order of field declarations must not be changed, and new fields must be added\n * below all existing declarations.\n *\n * The base contracts and the order in which they are declared must not be changed.\n * New fields must not be added to base contracts (unless the base contract has\n * reserved placeholder fields for this purpose).\n *\n * See https://docs.zeppelinos.org/docs/writing_contracts.html for more info.\n*/\n\npragma solidity ^0.5.0;\n\nimport \"../../../node_modules/@openzeppelin/upgrades/contracts/Initializable.sol\";\nimport \"../../../node_modules/@openzeppelin/contracts-ethereum-package/contracts/math/SafeMath.sol\";\nimport \"../../../node_modules/@openzeppelin/contracts-ethereum-package/contracts/token/ERC20/IERC20.sol\";\n\n///@author DeFiZap\n///@notice this contract implements one click conversion from ETH to unipool liquidity tokens (cDAI)\n\ninterface IuniswapFactory {\n    function getExchange(address token) external view returns (address exchange);\n}\n\n\ninterface IuniswapExchange {\n    function getEthToTokenInputPrice(uint256 eth_sold) external view returns (uint256 tokens_bought);\n    function ethToTokenSwapInput(uint256 min_tokens, uint256 deadline) external payable returns (uint256  tokens_bought);\n    function balanceOf(address _owner) external view returns (uint256);\n    function transfer(address _to, uint256 _value) external returns (bool);\n    function addLiquidity(uint256 min_liquidity, uint256 max_tokens, uint256 deadline) external payable returns (uint256);\n}\n\ninterface IKyberInterface {\n    function swapTokentoToken(IERC20 _srcTokenAddressIERC20, IERC20 _dstTokenAddress, uint _slippageValue, address _toWhomToIssue) external payable returns (uint);\n}\n\ninterface Compound {\n    function approve ( address spender, uint256 amount ) external returns ( bool );\n    function mint ( uint256 mintAmount ) external returns ( uint256 );\n    function balanceOf(address _owner) external view returns (uint256 balance);\n    function transfer(address _to, uint _value) external returns (bool success);\n}\n\n\ncontract UniSwap_ETH_CDAIZap is Initializable {\n    using SafeMath for uint;\n    // state variables\n    \n    // - THESE MUST ALWAYS STAY IN THE SAME LAYOUT\n    bool private stopped;\n    address payable public owner;\n    IuniswapFactory public UniSwapFactoryAddress;\n    IKyberInterface public KyberInterfaceAddresss;\n    IERC20 public NEWDAI_TOKEN_ADDRESS;\n    Compound public COMPOUND_TOKEN_ADDRESS;\n    \n\n    // events\n    event ERC20TokenHoldingsOnConversionDaiChai(uint);\n    event ERC20TokenHoldingsOnConversionEthDai(uint);\n    event LiquidityTokens(uint);\n     \n    // circuit breaker modifiers\n    modifier stopInEmergency {if (!stopped) _;}\n    modifier onlyInEmergency {if (stopped) _;}\n    modifier onlyOwner() {\n        require(isOwner(), \"you are not authorised to call this function\");\n        _;\n    }\n    \n    \n    function initialize() initializer public {\n        stopped = false;\n        owner = msg.sender;\n        UniSwapFactoryAddress = IuniswapFactory(0xc0a47dFe034B400B47bDaD5FecDa2621de6c4d95);\n        NEWDAI_TOKEN_ADDRESS = IERC20(0x6B175474E89094C44Da98b954EedeAC495271d0F);\n        COMPOUND_TOKEN_ADDRESS = Compound(0x5d3a536E4D6DbD6114cc1Ead35777bAB948E3643);\n        KyberInterfaceAddresss = IKyberInterface(0x16183BE9f0c145fc6c24E1780211F51767382135);\n    }\n\n    \n    function set_new_UniSwapFactoryAddress(address _new_UniSwapFactoryAddress) public onlyOwner {\n        UniSwapFactoryAddress = IuniswapFactory(_new_UniSwapFactoryAddress);\n        \n    }\n\n    function set_new_DAI_TOKEN_ADDRESS(address _new_DAI_TOKEN_ADDRESS) public onlyOwner {\n        NEWDAI_TOKEN_ADDRESS = IERC20(_new_DAI_TOKEN_ADDRESS);\n        \n    }\n\n    function set_new_cDAI_TokenContractAddress(address _new_cDAI_TokenContractAddress) public onlyOwner {\n        COMPOUND_TOKEN_ADDRESS = Compound(address(_new_cDAI_TokenContractAddress));\n        \n    }\n\n    function set_KyberInterfaceAddresss(IKyberInterface _new_KyberInterfaceAddresss) public onlyOwner {\n        KyberInterfaceAddresss = _new_KyberInterfaceAddresss;\n    }\n\n    \n    \n    function LetsInvest(address _src, address _towhomtoissue, uint _MaxslippageValue) public payable stopInEmergency returns (uint) {\n        IERC20 ERC20TokenAddress = IERC20(address(COMPOUND_TOKEN_ADDRESS));\n        IuniswapExchange UniSwapExchangeContractAddress = IuniswapExchange(UniSwapFactoryAddress.getExchange(address(COMPOUND_TOKEN_ADDRESS)));\n\n        // determining the portion of the incoming ETH to be converted to the ERC20 Token\n        uint conversionPortion = SafeMath.div(SafeMath.mul(msg.value, 505), 1000);\n        uint non_conversionPortion = SafeMath.sub(msg.value,conversionPortion);\n\n        KyberInterfaceAddresss.swapTokentoToken.value(conversionPortion)(IERC20(_src), NEWDAI_TOKEN_ADDRESS, _MaxslippageValue, address(this));\n        uint tokenBalance = NEWDAI_TOKEN_ADDRESS.balanceOf(address(this));\n        // conversion of DAI to cDAI\n        uint qty2approve = SafeMath.mul(tokenBalance, 3);\n        require(NEWDAI_TOKEN_ADDRESS.approve(address(ERC20TokenAddress), qty2approve));\n        COMPOUND_TOKEN_ADDRESS.mint(tokenBalance);\n        uint ERC20TokenHoldings = ERC20TokenAddress.balanceOf(address(this));\n        require (ERC20TokenHoldings > 0, \"the conversion did not happen as planned\");\n        emit ERC20TokenHoldingsOnConversionDaiChai(ERC20TokenHoldings);\n        NEWDAI_TOKEN_ADDRESS.approve(address(ERC20TokenAddress), 0);\n        ERC20TokenAddress.approve(address(UniSwapExchangeContractAddress),ERC20TokenHoldings);\n\n        // adding Liquidity\n        uint max_tokens_ans = getMaxTokens(address(UniSwapExchangeContractAddress), ERC20TokenAddress, non_conversionPortion);\n        UniSwapExchangeContractAddress.addLiquidity.value(non_conversionPortion)(1,max_tokens_ans,SafeMath.add(now,1800));\n        ERC20TokenAddress.approve(address(UniSwapExchangeContractAddress),0);\n\n        // transferring Liquidity\n        uint LiquityTokenHoldings = UniSwapExchangeContractAddress.balanceOf(address(this));\n        emit LiquidityTokens(LiquityTokenHoldings);\n        UniSwapExchangeContractAddress.transfer(_towhomtoissue, LiquityTokenHoldings);\n        ERC20TokenHoldings = ERC20TokenAddress.balanceOf(address(this));\n        ERC20TokenAddress.transfer(_towhomtoissue, ERC20TokenHoldings);\n        return LiquityTokenHoldings;\n    }\n\n    function getMaxTokens(address _UniSwapExchangeContractAddress, IERC20 _ERC20TokenAddress, uint _value) internal view returns (uint) {\n        uint contractBalance = address(_UniSwapExchangeContractAddress).balance;\n        uint eth_reserve = SafeMath.sub(contractBalance, _value);\n        uint token_reserve = _ERC20TokenAddress.balanceOf(_UniSwapExchangeContractAddress);\n        uint token_amount = SafeMath.div(SafeMath.mul(_value,token_reserve),eth_reserve) + 1;\n        return token_amount;\n    }\n    \n\n    // incase of half-way error\n    function inCaseTokengetsStuck(IERC20 _TokenAddress) onlyOwner public {\n        uint qty = _TokenAddress.balanceOf(address(this));\n        _TokenAddress.transfer(owner, qty);\n    }\n    \n    // - fallback function let you / anyone send ETH to this wallet without the need to call any function\n    function() external payable {\n        if (msg.sender != owner) {\n            LetsInvest(address(0xEeeeeEeeeEeEeeEeEeEeeEEEeeeeEeeeeeeeEEeE), msg.sender, 5);}\n    }\n    \n// - to Pause the contract\n    function toggleContractActive() onlyOwner public {\n        stopped = !stopped;\n    }\n    // - to withdraw any ETH balance sitting in the contract\n    function withdraw() onlyOwner public{\n        owner.transfer(address(this).balance);\n    }\n    // - to kill the contract\n    function destruct() public onlyOwner {\n        selfdestruct(owner);\n    }\n    /**\n     * @return true if `msg.sender` is the owner of the contract.\n     */\n    function isOwner() public view returns (bool) {\n        return msg.sender == owner;\n    }\n\n    /**\n     * @dev Transfers ownership of the contract to a new account (`newOwner`).\n     * Can only be called by the current owner.\n     */\n    function transferOwnership(address payable newOwner) public onlyOwner {\n        _transferOwnership(newOwner);\n    }\n\n    /**\n     * @dev Transfers ownership of the contract to a new account (`newOwner`).\n     */\n    function _transferOwnership(address payable newOwner) internal {\n        require(newOwner != address(0), \"Ownable: new owner is the zero address\");\n        owner = newOwner;\n    }\n    \n}\n",
  "sourcePath": "contracts/UpdatedZaps/Current WIP/UniSwap_ETH_cDAI_upgradable.sol",
  "abi": [
    {
      "anonymous": false,
      "inputs": [
        {
          "indexed": false,
          "internalType": "uint256",
          "name": "",
          "type": "uint256"
        }
      ],
      "name": "ERC20TokenHoldingsOnConversionDaiChai",
      "type": "event"
    },
    {
      "anonymous": false,
      "inputs": [
        {
          "indexed": false,
          "internalType": "uint256",
          "name": "",
          "type": "uint256"
        }
      ],
      "name": "ERC20TokenHoldingsOnConversionEthDai",
      "type": "event"
    },
    {
      "anonymous": false,
      "inputs": [
        {
          "indexed": false,
          "internalType": "uint256",
          "name": "",
          "type": "uint256"
        }
      ],
      "name": "LiquidityTokens",
      "type": "event"
    },
    {
      "payable": true,
      "stateMutability": "payable",
      "type": "fallback"
    },
    {
      "constant": true,
      "inputs": [],
      "name": "COMPOUND_TOKEN_ADDRESS",
      "outputs": [
        {
          "internalType": "contract Compound",
          "name": "",
          "type": "address"
        }
      ],
      "payable": false,
      "stateMutability": "view",
      "type": "function"
    },
    {
      "constant": true,
      "inputs": [],
      "name": "KyberInterfaceAddresss",
      "outputs": [
        {
          "internalType": "contract IKyberInterface",
          "name": "",
          "type": "address"
        }
      ],
      "payable": false,
      "stateMutability": "view",
      "type": "function"
    },
    {
      "constant": false,
      "inputs": [
        {
          "internalType": "address",
          "name": "_src",
          "type": "address"
        },
        {
          "internalType": "address",
          "name": "_towhomtoissue",
          "type": "address"
        },
        {
          "internalType": "uint256",
          "name": "_MaxslippageValue",
          "type": "uint256"
        }
      ],
      "name": "LetsInvest",
      "outputs": [
        {
          "internalType": "uint256",
          "name": "",
          "type": "uint256"
        }
      ],
      "payable": true,
      "stateMutability": "payable",
      "type": "function"
    },
    {
      "constant": true,
      "inputs": [],
      "name": "NEWDAI_TOKEN_ADDRESS",
      "outputs": [
        {
          "internalType": "contract IERC20",
          "name": "",
          "type": "address"
        }
      ],
      "payable": false,
      "stateMutability": "view",
      "type": "function"
    },
    {
      "constant": true,
      "inputs": [],
      "name": "UniSwapFactoryAddress",
      "outputs": [
        {
          "internalType": "contract IuniswapFactory",
          "name": "",
          "type": "address"
        }
      ],
      "payable": false,
      "stateMutability": "view",
      "type": "function"
    },
    {
      "constant": false,
      "inputs": [],
      "name": "destruct",
      "outputs": [],
      "payable": false,
      "stateMutability": "nonpayable",
      "type": "function"
    },
    {
      "constant": false,
      "inputs": [
        {
          "internalType": "contract IERC20",
          "name": "_TokenAddress",
          "type": "address"
        }
      ],
      "name": "inCaseTokengetsStuck",
      "outputs": [],
      "payable": false,
      "stateMutability": "nonpayable",
      "type": "function"
    },
    {
      "constant": false,
      "inputs": [],
      "name": "initialize",
      "outputs": [],
      "payable": false,
      "stateMutability": "nonpayable",
      "type": "function"
    },
    {
      "constant": true,
      "inputs": [],
      "name": "isOwner",
      "outputs": [
        {
          "internalType": "bool",
          "name": "",
          "type": "bool"
        }
      ],
      "payable": false,
      "stateMutability": "view",
      "type": "function"
    },
    {
      "constant": true,
      "inputs": [],
      "name": "owner",
      "outputs": [
        {
          "internalType": "address payable",
          "name": "",
          "type": "address"
        }
      ],
      "payable": false,
      "stateMutability": "view",
      "type": "function"
    },
    {
      "constant": false,
      "inputs": [
        {
          "internalType": "contract IKyberInterface",
          "name": "_new_KyberInterfaceAddresss",
          "type": "address"
        }
      ],
      "name": "set_KyberInterfaceAddresss",
      "outputs": [],
      "payable": false,
      "stateMutability": "nonpayable",
      "type": "function"
    },
    {
      "constant": false,
      "inputs": [
        {
          "internalType": "address",
          "name": "_new_DAI_TOKEN_ADDRESS",
          "type": "address"
        }
      ],
      "name": "set_new_DAI_TOKEN_ADDRESS",
      "outputs": [],
      "payable": false,
      "stateMutability": "nonpayable",
      "type": "function"
    },
    {
      "constant": false,
      "inputs": [
        {
          "internalType": "address",
          "name": "_new_UniSwapFactoryAddress",
          "type": "address"
        }
      ],
      "name": "set_new_UniSwapFactoryAddress",
      "outputs": [],
      "payable": false,
      "stateMutability": "nonpayable",
      "type": "function"
    },
    {
      "constant": false,
      "inputs": [
        {
          "internalType": "address",
          "name": "_new_cDAI_TokenContractAddress",
          "type": "address"
        }
      ],
      "name": "set_new_cDAI_TokenContractAddress",
      "outputs": [],
      "payable": false,
      "stateMutability": "nonpayable",
      "type": "function"
    },
    {
      "constant": false,
      "inputs": [],
      "name": "toggleContractActive",
      "outputs": [],
      "payable": false,
      "stateMutability": "nonpayable",
      "type": "function"
    },
    {
      "constant": false,
      "inputs": [
        {
          "internalType": "address payable",
          "name": "newOwner",
          "type": "address"
        }
      ],
      "name": "transferOwnership",
      "outputs": [],
      "payable": false,
      "stateMutability": "nonpayable",
      "type": "function"
    },
    {
      "constant": false,
      "inputs": [],
      "name": "withdraw",
      "outputs": [],
      "payable": false,
      "stateMutability": "nonpayable",
      "type": "function"
    }
  ],
  "bytecode": "0x608060405234801561001057600080fd5b506123fd806100206000396000f3fe6080604052600436106100fe5760003560e01c80637f9322cc116100955780638f32d59b116100645780638f32d59b1461049e578063ae4de7fa146104cd578063ea181d1d1461051e578063f2fde38b14610575578063f548f2f2146105c6576100fe565b80637f9322cc1461035d5780638129fc1c146103df5780638354008d146103f65780638da5cb5b14610447576100fe565b80633ccfd60b116100d15780633ccfd60b1461024d578063525d509e14610264578063551196d5146102bb578063588f08c41461030c576100fe565b80630d30e929146101775780631385d24c146101c85780632b68b9c6146101df57806330139f7f146101f6575b603360019054906101000a900473ffffffffffffffffffffffffffffffffffffffff1673ffffffffffffffffffffffffffffffffffffffff163373ffffffffffffffffffffffffffffffffffffffff16146101755761017373eeeeeeeeeeeeeeeeeeeeeeeeeeeeeeeeeeeeeeee33600561061d565b505b005b34801561018357600080fd5b506101c66004803603602081101561019a57600080fd5b81019080803573ffffffffffffffffffffffffffffffffffffffff169060200190929190505050611339565b005b3480156101d457600080fd5b506101dd6113da565b005b3480156101eb57600080fd5b506101f4611463565b005b34801561020257600080fd5b5061020b6114fb565b604051808273ffffffffffffffffffffffffffffffffffffffff1673ffffffffffffffffffffffffffffffffffffffff16815260200191505060405180910390f35b34801561025957600080fd5b50610262611521565b005b34801561027057600080fd5b50610279611600565b604051808273ffffffffffffffffffffffffffffffffffffffff1673ffffffffffffffffffffffffffffffffffffffff16815260200191505060405180910390f35b3480156102c757600080fd5b5061030a600480360360208110156102de57600080fd5b81019080803573ffffffffffffffffffffffffffffffffffffffff169060200190929190505050611626565b005b34801561031857600080fd5b5061035b6004803603602081101561032f57600080fd5b81019080803573ffffffffffffffffffffffffffffffffffffffff169060200190929190505050611828565b005b6103c96004803603606081101561037357600080fd5b81019080803573ffffffffffffffffffffffffffffffffffffffff169060200190929190803573ffffffffffffffffffffffffffffffffffffffff1690602001909291908035906020019092919050505061061d565b6040518082815260200191505060405180910390f35b3480156103eb57600080fd5b506103f46118c9565b005b34801561040257600080fd5b506104456004803603602081101561041957600080fd5b81019080803573ffffffffffffffffffffffffffffffffffffffff169060200190929190505050611b78565b005b34801561045357600080fd5b5061045c611c19565b604051808273ffffffffffffffffffffffffffffffffffffffff1673ffffffffffffffffffffffffffffffffffffffff16815260200191505060405180910390f35b3480156104aa57600080fd5b506104b3611c3f565b604051808215151515815260200191505060405180910390f35b3480156104d957600080fd5b5061051c600480360360208110156104f057600080fd5b81019080803573ffffffffffffffffffffffffffffffffffffffff169060200190929190505050611c97565b005b34801561052a57600080fd5b50610533611d38565b604051808273ffffffffffffffffffffffffffffffffffffffff1673ffffffffffffffffffffffffffffffffffffffff16815260200191505060405180910390f35b34801561058157600080fd5b506105c46004803603602081101561059857600080fd5b81019080803573ffffffffffffffffffffffffffffffffffffffff169060200190929190505050611d5e565b005b3480156105d257600080fd5b506105db611dc7565b604051808273ffffffffffffffffffffffffffffffffffffffff1673ffffffffffffffffffffffffffffffffffffffff16815260200191505060405180910390f35b6000603360009054906101000a900460ff16611332576000603760009054906101000a900473ffffffffffffffffffffffffffffffffffffffff1690506000603460009054906101000a900473ffffffffffffffffffffffffffffffffffffffff1673ffffffffffffffffffffffffffffffffffffffff166306f2bf62603760009054906101000a900473ffffffffffffffffffffffffffffffffffffffff166040518263ffffffff1660e01b8152600401808273ffffffffffffffffffffffffffffffffffffffff1673ffffffffffffffffffffffffffffffffffffffff16815260200191505060206040518083038186803b15801561071d57600080fd5b505afa158015610731573d6000803e3d6000fd5b505050506040513d602081101561074757600080fd5b81019080805190602001909291905050509050600061077361076b346101f9611ded565b6103e8611e73565b905060006107813483611ebd565b9050603560009054906101000a900473ffffffffffffffffffffffffffffffffffffffff1673ffffffffffffffffffffffffffffffffffffffff1663885a3a15838a603660009054906101000a900473ffffffffffffffffffffffffffffffffffffffff168a306040518663ffffffff1660e01b8152600401808573ffffffffffffffffffffffffffffffffffffffff1673ffffffffffffffffffffffffffffffffffffffff1681526020018473ffffffffffffffffffffffffffffffffffffffff1673ffffffffffffffffffffffffffffffffffffffff1681526020018381526020018273ffffffffffffffffffffffffffffffffffffffff1673ffffffffffffffffffffffffffffffffffffffff1681526020019450505050506020604051808303818588803b1580156108b657600080fd5b505af11580156108ca573d6000803e3d6000fd5b50505050506040513d60208110156108e157600080fd5b8101908080519060200190929190505050506000603660009054906101000a900473ffffffffffffffffffffffffffffffffffffffff1673ffffffffffffffffffffffffffffffffffffffff166370a08231306040518263ffffffff1660e01b8152600401808273ffffffffffffffffffffffffffffffffffffffff1673ffffffffffffffffffffffffffffffffffffffff16815260200191505060206040518083038186803b15801561099457600080fd5b505afa1580156109a8573d6000803e3d6000fd5b505050506040513d60208110156109be57600080fd5b8101908080519060200190929190505050905060006109de826003611ded565b9050603660009054906101000a900473ffffffffffffffffffffffffffffffffffffffff1673ffffffffffffffffffffffffffffffffffffffff1663095ea7b387836040518363ffffffff1660e01b8152600401808373ffffffffffffffffffffffffffffffffffffffff1673ffffffffffffffffffffffffffffffffffffffff16815260200182815260200192505050602060405180830381600087803b158015610a8957600080fd5b505af1158015610a9d573d6000803e3d6000fd5b505050506040513d6020811015610ab357600080fd5b8101908080519060200190929190505050610acd57600080fd5b603760009054906101000a900473ffffffffffffffffffffffffffffffffffffffff1673ffffffffffffffffffffffffffffffffffffffff1663a0712d68836040518263ffffffff1660e01b815260040180828152602001915050602060405180830381600087803b158015610b4257600080fd5b505af1158015610b56573d6000803e3d6000fd5b505050506040513d6020811015610b6c57600080fd5b81019080805190602001909291905050505060008673ffffffffffffffffffffffffffffffffffffffff166370a08231306040518263ffffffff1660e01b8152600401808273ffffffffffffffffffffffffffffffffffffffff1673ffffffffffffffffffffffffffffffffffffffff16815260200191505060206040518083038186803b158015610bfd57600080fd5b505afa158015610c11573d6000803e3d6000fd5b505050506040513d6020811015610c2757600080fd5b8101908080519060200190929190505050905060008111610c93576040517f08c379a00000000000000000000000000000000000000000000000000000000081526004018080602001828103825260288152602001806123736028913960400191505060405180910390fd5b7f609cec8b329c246fab8023c5080416eac37627fd87b831e229ad54919bb42edb816040518082815260200191505060405180910390a1603660009054906101000a900473ffffffffffffffffffffffffffffffffffffffff1673ffffffffffffffffffffffffffffffffffffffff1663095ea7b38860006040518363ffffffff1660e01b8152600401808373ffffffffffffffffffffffffffffffffffffffff1673ffffffffffffffffffffffffffffffffffffffff16815260200182815260200192505050602060405180830381600087803b158015610d7457600080fd5b505af1158015610d88573d6000803e3d6000fd5b505050506040513d6020811015610d9e57600080fd5b8101908080519060200190929190505050508673ffffffffffffffffffffffffffffffffffffffff1663095ea7b387836040518363ffffffff1660e01b8152600401808373ffffffffffffffffffffffffffffffffffffffff1673ffffffffffffffffffffffffffffffffffffffff16815260200182815260200192505050602060405180830381600087803b158015610e3757600080fd5b505af1158015610e4b573d6000803e3d6000fd5b505050506040513d6020811015610e6157600080fd5b8101908080519060200190929190505050506000610e80878987611f07565b90508673ffffffffffffffffffffffffffffffffffffffff1663422f104386600184610eae42610708612016565b6040518563ffffffff1660e01b81526004018084815260200183815260200182815260200193505050506020604051808303818588803b158015610ef157600080fd5b505af1158015610f05573d6000803e3d6000fd5b50505050506040513d6020811015610f1c57600080fd5b8101908080519060200190929190505050508773ffffffffffffffffffffffffffffffffffffffff1663095ea7b38860006040518363ffffffff1660e01b8152600401808373ffffffffffffffffffffffffffffffffffffffff1673ffffffffffffffffffffffffffffffffffffffff16815260200182815260200192505050602060405180830381600087803b158015610fb657600080fd5b505af1158015610fca573d6000803e3d6000fd5b505050506040513d6020811015610fe057600080fd5b81019080805190602001909291905050505060008773ffffffffffffffffffffffffffffffffffffffff166370a08231306040518263ffffffff1660e01b8152600401808273ffffffffffffffffffffffffffffffffffffffff1673ffffffffffffffffffffffffffffffffffffffff16815260200191505060206040518083038186803b15801561107157600080fd5b505afa158015611085573d6000803e3d6000fd5b505050506040513d602081101561109b57600080fd5b810190808051906020019092919050505090507ff5c05964d6de51616cafa30b23fd7dde709b1dead4389f0e4dc6ae103ef97dff816040518082815260200191505060405180910390a18773ffffffffffffffffffffffffffffffffffffffff1663a9059cbb8d836040518363ffffffff1660e01b8152600401808373ffffffffffffffffffffffffffffffffffffffff1673ffffffffffffffffffffffffffffffffffffffff16815260200182815260200192505050602060405180830381600087803b15801561116c57600080fd5b505af1158015611180573d6000803e3d6000fd5b505050506040513d602081101561119657600080fd5b8101908080519060200190929190505050508873ffffffffffffffffffffffffffffffffffffffff166370a08231306040518263ffffffff1660e01b8152600401808273ffffffffffffffffffffffffffffffffffffffff1673ffffffffffffffffffffffffffffffffffffffff16815260200191505060206040518083038186803b15801561122557600080fd5b505afa158015611239573d6000803e3d6000fd5b505050506040513d602081101561124f57600080fd5b810190808051906020019092919050505092508873ffffffffffffffffffffffffffffffffffffffff1663a9059cbb8d856040518363ffffffff1660e01b8152600401808373ffffffffffffffffffffffffffffffffffffffff1673ffffffffffffffffffffffffffffffffffffffff16815260200182815260200192505050602060405180830381600087803b1580156112e957600080fd5b505af11580156112fd573d6000803e3d6000fd5b505050506040513d602081101561131357600080fd5b8101908080519060200190929190505050508099505050505050505050505b9392505050565b611341611c3f565b611396576040517f08c379a000000000000000000000000000000000000000000000000000000000815260040180806020018281038252602c815260200180612326602c913960400191505060405180910390fd5b80603660006101000a81548173ffffffffffffffffffffffffffffffffffffffff021916908373ffffffffffffffffffffffffffffffffffffffff16021790555050565b6113e2611c3f565b611437576040517f08c379a000000000000000000000000000000000000000000000000000000000815260040180806020018281038252602c815260200180612326602c913960400191505060405180910390fd5b603360009054906101000a900460ff1615603360006101000a81548160ff021916908315150217905550565b61146b611c3f565b6114c0576040517f08c379a000000000000000000000000000000000000000000000000000000000815260040180806020018281038252602c815260200180612326602c913960400191505060405180910390fd5b603360019054906101000a900473ffffffffffffffffffffffffffffffffffffffff1673ffffffffffffffffffffffffffffffffffffffff16ff5b603760009054906101000a900473ffffffffffffffffffffffffffffffffffffffff1681565b611529611c3f565b61157e576040517f08c379a000000000000000000000000000000000000000000000000000000000815260040180806020018281038252602c815260200180612326602c913960400191505060405180910390fd5b603360019054906101000a900473ffffffffffffffffffffffffffffffffffffffff1673ffffffffffffffffffffffffffffffffffffffff166108fc3073ffffffffffffffffffffffffffffffffffffffff16319081150290604051600060405180830381858888f193505050501580156115fd573d6000803e3d6000fd5b50565b603460009054906101000a900473ffffffffffffffffffffffffffffffffffffffff1681565b61162e611c3f565b611683576040517f08c379a000000000000000000000000000000000000000000000000000000000815260040180806020018281038252602c815260200180612326602c913960400191505060405180910390fd5b60008173ffffffffffffffffffffffffffffffffffffffff166370a08231306040518263ffffffff1660e01b8152600401808273ffffffffffffffffffffffffffffffffffffffff1673ffffffffffffffffffffffffffffffffffffffff16815260200191505060206040518083038186803b15801561170257600080fd5b505afa158015611716573d6000803e3d6000fd5b505050506040513d602081101561172c57600080fd5b810190808051906020019092919050505090508173ffffffffffffffffffffffffffffffffffffffff1663a9059cbb603360019054906101000a900473ffffffffffffffffffffffffffffffffffffffff16836040518363ffffffff1660e01b8152600401808373ffffffffffffffffffffffffffffffffffffffff1673ffffffffffffffffffffffffffffffffffffffff16815260200182815260200192505050602060405180830381600087803b1580156117e857600080fd5b505af11580156117fc573d6000803e3d6000fd5b505050506040513d602081101561181257600080fd5b8101908080519060200190929190505050505050565b611830611c3f565b611885576040517f08c379a000000000000000000000000000000000000000000000000000000000815260040180806020018281038252602c815260200180612326602c913960400191505060405180910390fd5b80603760006101000a81548173ffffffffffffffffffffffffffffffffffffffff021916908373ffffffffffffffffffffffffffffffffffffffff16021790555050565b600060019054906101000a900460ff16806118e857506118e761209e565b5b806118ff57506000809054906101000a900460ff16155b611954576040517f08c379a000000000000000000000000000000000000000000000000000000000815260040180806020018281038252602e81526020018061239b602e913960400191505060405180910390fd5b60008060019054906101000a900460ff1615905080156119a4576001600060016101000a81548160ff02191690831515021790555060016000806101000a81548160ff0219169083151502179055505b6000603360006101000a81548160ff02191690831515021790555033603360016101000a81548173ffffffffffffffffffffffffffffffffffffffff021916908373ffffffffffffffffffffffffffffffffffffffff16021790555073c0a47dfe034b400b47bdad5fecda2621de6c4d95603460006101000a81548173ffffffffffffffffffffffffffffffffffffffff021916908373ffffffffffffffffffffffffffffffffffffffff160217905550736b175474e89094c44da98b954eedeac495271d0f603660006101000a81548173ffffffffffffffffffffffffffffffffffffffff021916908373ffffffffffffffffffffffffffffffffffffffff160217905550735d3a536e4d6dbd6114cc1ead35777bab948e3643603760006101000a81548173ffffffffffffffffffffffffffffffffffffffff021916908373ffffffffffffffffffffffffffffffffffffffff1602179055507316183be9f0c145fc6c24e1780211f51767382135603560006101000a81548173ffffffffffffffffffffffffffffffffffffffff021916908373ffffffffffffffffffffffffffffffffffffffff1602179055508015611b755760008060016101000a81548160ff0219169083151502179055505b50565b611b80611c3f565b611bd5576040517f08c379a000000000000000000000000000000000000000000000000000000000815260040180806020018281038252602c815260200180612326602c913960400191505060405180910390fd5b80603560006101000a81548173ffffffffffffffffffffffffffffffffffffffff021916908373ffffffffffffffffffffffffffffffffffffffff16021790555050565b603360019054906101000a900473ffffffffffffffffffffffffffffffffffffffff1681565b6000603360019054906101000a900473ffffffffffffffffffffffffffffffffffffffff1673ffffffffffffffffffffffffffffffffffffffff163373ffffffffffffffffffffffffffffffffffffffff1614905090565b611c9f611c3f565b611cf4576040517f08c379a000000000000000000000000000000000000000000000000000000000815260040180806020018281038252602c815260200180612326602c913960400191505060405180910390fd5b80603460006101000a81548173ffffffffffffffffffffffffffffffffffffffff021916908373ffffffffffffffffffffffffffffffffffffffff16021790555050565b603660009054906101000a900473ffffffffffffffffffffffffffffffffffffffff1681565b611d66611c3f565b611dbb576040517f08c379a000000000000000000000000000000000000000000000000000000000815260040180806020018281038252602c815260200180612326602c913960400191505060405180910390fd5b611dc4816120af565b50565b603560009054906101000a900473ffffffffffffffffffffffffffffffffffffffff1681565b600080831415611e005760009050611e6d565b6000828402905082848281611e1157fe5b0414611e68576040517f08c379a00000000000000000000000000000000000000000000000000000000081526004018080602001828103825260218152602001806123526021913960400191505060405180910390fd5b809150505b92915050565b6000611eb583836040518060400160405280601a81526020017f536166654d6174683a206469766973696f6e206279207a65726f000000000000815250612179565b905092915050565b6000611eff83836040518060400160405280601e81526020017f536166654d6174683a207375627472616374696f6e206f766572666c6f77000081525061223f565b905092915050565b6000808473ffffffffffffffffffffffffffffffffffffffff163190506000611f308285611ebd565b905060008573ffffffffffffffffffffffffffffffffffffffff166370a08231886040518263ffffffff1660e01b8152600401808273ffffffffffffffffffffffffffffffffffffffff1673ffffffffffffffffffffffffffffffffffffffff16815260200191505060206040518083038186803b158015611fb157600080fd5b505afa158015611fc5573d6000803e3d6000fd5b505050506040513d6020811015611fdb57600080fd5b8101908080519060200190929190505050905060006001612005611fff8885611ded565b85611e73565b019050809450505050509392505050565b600080828401905083811015612094576040517f08c379a000000000000000000000000000000000000000000000000000000000815260040180806020018281038252601b8152602001807f536166654d6174683a206164646974696f6e206f766572666c6f77000000000081525060200191505060405180910390fd5b8091505092915050565b600080303b90506000811491505090565b600073ffffffffffffffffffffffffffffffffffffffff168173ffffffffffffffffffffffffffffffffffffffff161415612135576040517f08c379a00000000000000000000000000000000000000000000000000000000081526004018080602001828103825260268152602001806123006026913960400191505060405180910390fd5b80603360016101000a81548173ffffffffffffffffffffffffffffffffffffffff021916908373ffffffffffffffffffffffffffffffffffffffff16021790555050565b60008083118290612225576040517f08c379a00000000000000000000000000000000000000000000000000000000081526004018080602001828103825283818151815260200191508051906020019080838360005b838110156121ea5780820151818401526020810190506121cf565b50505050905090810190601f1680156122175780820380516001836020036101000a031916815260200191505b509250505060405180910390fd5b50600083858161223157fe5b049050809150509392505050565b60008383111582906122ec576040517f08c379a00000000000000000000000000000000000000000000000000000000081526004018080602001828103825283818151815260200191508051906020019080838360005b838110156122b1578082015181840152602081019050612296565b50505050905090810190601f1680156122de5780820380516001836020036101000a031916815260200191505b509250505060405180910390fd5b506000838503905080915050939250505056fe4f776e61626c653a206e6577206f776e657220697320746865207a65726f2061646472657373796f7520617265206e6f7420617574686f726973656420746f2063616c6c20746869732066756e6374696f6e536166654d6174683a206d756c7469706c69636174696f6e206f766572666c6f7774686520636f6e76657273696f6e20646964206e6f742068617070656e20617320706c616e6e6564436f6e747261637420696e7374616e63652068617320616c7265616479206265656e20696e697469616c697a6564a265627a7a723158204f2bf4421ecc496ab282c2c2370df9dceb51e521c719a1ee4bbc7c240693f41d64736f6c634300050d0032",
  "compiler": {
    "name": "solc",
    "version": "0.5.13+commit.5b0b510c.Emscripten.clang",
    "optimizer": {
      "enabled": false,
      "runs": 200
    },
    "evmVersion": "petersburg"
  }
}