{
  "fileName": "UniSwapAddLiquidityV3_UpgradableGeneral.sol",
  "contractName": "UniSwapAddLiquityV3_General",
  "source": "// Copyright (C) 2019, 2020 dipeshsukhani, nodarjonashi, toshsharma, suhailg\n\n// This program is free software: you can redistribute it and/or modify\n// it under the terms of the GNU Affero General Public License as published by\n// the Free Software Foundation, either version 2 of the License, or\n// (at your option) any later version.\n//\n// This program is distributed in the hope that it will be useful,\n// but WITHOUT ANY WARRANTY; without even the implied warranty of\n// MERCHANTABILITY or FITNESS FOR A PARTICULAR PURPOSE.  See the\n// GNU Affero General Public License for more details.\n//\n// Visit <https://www.gnu.org/licenses/>for a copy of the GNU Affero General Public License\n\n/**\n * WARNING: This is an upgradable contract. Be careful not to disrupt\n * the existing storage layout when making upgrades to the contract. In particular,\n * existing fields should not be removed and should not have their types changed.\n * The order of field declarations must not be changed, and new fields must be added\n * below all existing declarations.\n *\n * The base contracts and the order in which they are declared must not be changed.\n * New fields must not be added to base contracts (unless the base contract has\n * reserved placeholder fields for this purpose).\n *\n * See https://docs.zeppelinos.org/docs/writing_contracts.html for more info.\n*/\n\npragma solidity ^0.5.0;\n\nimport \"../../../node_modules/@openzeppelin/upgrades/contracts/Initializable.sol\";\nimport \"../../../node_modules/@openzeppelin/contracts-ethereum-package/contracts/math/SafeMath.sol\";\nimport \"../../../node_modules/@openzeppelin/contracts-ethereum-package/contracts/token/ERC20/IERC20.sol\";\nimport \"../../../node_modules/@openzeppelin/contracts-ethereum-package/contracts/utils/ReentrancyGuard.sol\";\n\n///@author DeFiZap\n///@notice this contract implements one click conversion from ETH to unipool liquidity tokens\n\ninterface IuniswapFactory_UniPoolGeneralv3 {\n    function getExchange(address token)\n        external\n        view\n        returns (address exchange);\n}\n\ninterface IuniswapExchange_UniPoolGeneralv3 {\n    function getEthToTokenInputPrice(uint256 eth_sold)\n        external\n        view\n        returns (uint256 tokens_bought);\n    function ethToTokenSwapInput(uint256 min_tokens, uint256 deadline)\n        external\n        payable\n        returns (uint256 tokens_bought);\n    function balanceOf(address _owner) external view returns (uint256);\n    function transfer(address _to, uint256 _value) external returns (bool);\n    function addLiquidity(\n        uint256 min_liquidity,\n        uint256 max_tokens,\n        uint256 deadline\n    ) external payable returns (uint256);\n    function tokenToEthSwapInput(\n        uint256 tokens_sold,\n        uint256 min_eth,\n        uint256 deadline\n    ) external returns (uint256 eth_bought);\n    function tokenToEthTransferInput(\n        uint256 tokens_sold,\n        uint256 min_eth,\n        uint256 deadline,\n        address recipient\n    ) external returns (uint256 eth_bought);\n}\n\ncontract UniSwapAddLiquityV3_General is Initializable, ReentrancyGuard {\n    using SafeMath for uint256;\n\n    // state variables\n\n    // - THESE MUST ALWAYS STAY IN THE SAME LAYOUT\n    bool private stopped;\n    address payable public owner;\n    IuniswapFactory_UniPoolGeneralv3 public UniSwapFactoryAddress;\n    uint16 public goodwill;\n\n    // events\n    event ERC20TokenHoldingsOnConversion(uint256);\n    event uniswapGeneralv3_details(\n        address indexed _user,\n        address indexed _tokenContractAddress,\n        address indexed _uniswapExchangeAddress,\n        uint256 _ethDeployed,\n        uint256 _liquidityTokens\n    );\n\n    // circuit breaker modifiers\n    modifier stopInEmergency {\n        if (stopped) {\n            revert(\"Temporarily Paused\");\n        } else {\n            _;\n        }\n    }\n    modifier onlyOwner() {\n        require(isOwner(), \"you are not authorised to call this function\");\n        _;\n    }\n\n    function initialize(address _UniSwapFactoryAddress) public initializer {\n        ReentrancyGuard.initialize();\n        stopped = false;\n        owner = msg.sender;\n        UniSwapFactoryAddress = IuniswapFactory_UniPoolGeneralv3(\n            _UniSwapFactoryAddress\n        );\n    }\n\n    function set_new_UniSwapFactoryAddress(address _new_UniSwapFactoryAddress)\n        public\n        onlyOwner\n    {\n        UniSwapFactoryAddress = IuniswapFactory_UniPoolGeneralv3(\n            _new_UniSwapFactoryAddress\n        );\n\n    }\n\n    function LetsInvest(address _TokenContractAddress, address _towhomtoissue)\n        public\n        payable\n        stopInEmergency\n        returns (uint256)\n    {\n        IERC20 ERC20TokenAddress = IERC20(_TokenContractAddress);\n        IuniswapExchange_UniPoolGeneralv3 UniSwapExchangeContractAddress = IuniswapExchange_UniPoolGeneralv3(\n            UniSwapFactoryAddress.getExchange(_TokenContractAddress)\n        );\n\n        // determining the portion of the incoming ETH to be converted to the ERC20 Token\n        uint256 conversionPortion = SafeMath.div(\n            SafeMath.mul(msg.value, 503),\n            1000\n        );\n        uint256 non_conversionPortion = SafeMath.sub(\n            msg.value,\n            conversionPortion\n        );\n\n        // coversion of ETH to the ERC20 Token\n        uint256 min_Tokens = SafeMath.div(\n            SafeMath.mul(\n                UniSwapExchangeContractAddress.getEthToTokenInputPrice(\n                    conversionPortion\n                ),\n                98\n            ),\n            100\n        );\n        UniSwapExchangeContractAddress.ethToTokenSwapInput.value(\n            conversionPortion\n        )(min_Tokens, SafeMath.add(now, 1800));\n        ERC20TokenAddress.approve(\n            address(UniSwapExchangeContractAddress),\n            ERC20TokenAddress.balanceOf(address(this))\n        );\n        require(\n            ERC20TokenAddress.balanceOf(address(this)) > 0,\n            \"the conversion did not happen as planned\"\n        );\n        emit ERC20TokenHoldingsOnConversion(\n            ERC20TokenAddress.balanceOf(address(this))\n        );\n\n        // adding Liquidity\n        uint256 max_tokens_ans = getMaxTokens(\n            address(UniSwapExchangeContractAddress),\n            ERC20TokenAddress,\n            non_conversionPortion\n        );\n        uint256 LiquidityTokens = UniSwapExchangeContractAddress\n            .addLiquidity\n            .value(non_conversionPortion)(\n            1,\n            max_tokens_ans,\n            SafeMath.add(now, 1800)\n        );\n\n        // transferring Liquidity\n        UniSwapExchangeContractAddress.transfer(\n            _towhomtoissue,\n            UniSwapExchangeContractAddress.balanceOf(address(this))\n        );\n\n        // converting the residual\n        UniSwapExchangeContractAddress.tokenToEthTransferInput(\n            ERC20TokenAddress.balanceOf(address(this)),\n            1,\n            SafeMath.add(now, 1800),\n            _towhomtoissue\n        );\n        ERC20TokenAddress.approve(address(UniSwapExchangeContractAddress), 0);\n        emit uniswapGeneralv3_details(\n            _towhomtoissue,\n            address(ERC20TokenAddress),\n            address(UniSwapExchangeContractAddress),\n            msg.value,\n            LiquidityTokens\n        );\n        return LiquidityTokens;\n    }\n\n    function getMaxTokens(\n        address _UniSwapExchangeContractAddress,\n        IERC20 _ERC20TokenAddress,\n        uint256 _value\n    ) internal view returns (uint256) {\n        uint256 contractBalance = address(_UniSwapExchangeContractAddress)\n            .balance;\n        uint256 eth_reserve = SafeMath.sub(contractBalance, _value);\n        uint256 token_reserve = _ERC20TokenAddress.balanceOf(\n            _UniSwapExchangeContractAddress\n        );\n        uint256 token_amount = SafeMath.div(\n            SafeMath.mul(_value, token_reserve),\n            eth_reserve\n        ) +\n            1;\n        return token_amount;\n    }\n\n    function inCaseTokengetsStuck(IERC20 _TokenAddress) public onlyOwner {\n        uint256 qty = _TokenAddress.balanceOf(address(this));\n        _TokenAddress.transfer(owner, qty);\n    }\n\n    // - fallback function let you / anyone send ETH to this wallet without the need to call any function\n    function() external payable {\n        if (msg.sender != owner) {\n            LetsInvest(0x6B175474E89094C44Da98b954EedeAC495271d0F, msg.sender);\n        }\n    }\n\n    // - to Pause the contract\n    function toggleContractActive() public onlyOwner {\n        stopped = !stopped;\n    }\n\n    // - to withdraw any ETH balance sitting in the contract\n    function withdraw() public onlyOwner {\n        owner.transfer(address(this).balance);\n    }\n\n    // - to kill the contract\n    function destruct() public onlyOwner {\n        selfdestruct(owner);\n    }\n\n    /**\n     * @return true if `msg.sender` is the owner of the contract.\n     */\n    function isOwner() public view returns (bool) {\n        return msg.sender == owner;\n    }\n\n    /**\n     * @dev Transfers ownership of the contract to a new account (`newOwner`).\n     * Can only be called by the current owner.\n     */\n    function transferOwnership(address payable newOwner) public onlyOwner {\n        _transferOwnership(newOwner);\n    }\n\n    /**\n     * @dev Transfers ownership of the contract to a new account (`newOwner`).\n     */\n    function _transferOwnership(address payable newOwner) internal {\n        require(\n            newOwner != address(0),\n            \"Ownable: new owner is the zero address\"\n        );\n        owner = newOwner;\n    }\n\n}\n",
  "sourcePath": "contracts/UpdatedZaps/Done/UniSwapAddLiquidityV3_UpgradableGeneral.sol",
  "abi": [
    {
      "anonymous": false,
      "inputs": [
        {
          "indexed": false,
          "internalType": "uint256",
          "name": "",
          "type": "uint256"
        }
      ],
      "name": "ERC20TokenHoldingsOnConversion",
      "type": "event"
    },
    {
      "anonymous": false,
      "inputs": [
        {
          "indexed": true,
          "internalType": "address",
          "name": "_user",
          "type": "address"
        },
        {
          "indexed": true,
          "internalType": "address",
          "name": "_tokenContractAddress",
          "type": "address"
        },
        {
          "indexed": true,
          "internalType": "address",
          "name": "_uniswapExchangeAddress",
          "type": "address"
        },
        {
          "indexed": false,
          "internalType": "uint256",
          "name": "_ethDeployed",
          "type": "uint256"
        },
        {
          "indexed": false,
          "internalType": "uint256",
          "name": "_liquidityTokens",
          "type": "uint256"
        }
      ],
      "name": "uniswapGeneralv3_details",
      "type": "event"
    },
    {
      "payable": true,
      "stateMutability": "payable",
      "type": "fallback"
    },
    {
      "constant": false,
      "inputs": [
        {
          "internalType": "address",
          "name": "_TokenContractAddress",
          "type": "address"
        },
        {
          "internalType": "address",
          "name": "_towhomtoissue",
          "type": "address"
        }
      ],
      "name": "LetsInvest",
      "outputs": [
        {
          "internalType": "uint256",
          "name": "",
          "type": "uint256"
        }
      ],
      "payable": true,
      "stateMutability": "payable",
      "type": "function"
    },
    {
      "constant": true,
      "inputs": [],
      "name": "UniSwapFactoryAddress",
      "outputs": [
        {
          "internalType": "contract IuniswapFactory_UniPoolGeneralv3",
          "name": "",
          "type": "address"
        }
      ],
      "payable": false,
      "stateMutability": "view",
      "type": "function"
    },
    {
      "constant": false,
      "inputs": [],
      "name": "destruct",
      "outputs": [],
      "payable": false,
      "stateMutability": "nonpayable",
      "type": "function"
    },
    {
      "constant": true,
      "inputs": [],
      "name": "goodwill",
      "outputs": [
        {
          "internalType": "uint16",
          "name": "",
          "type": "uint16"
        }
      ],
      "payable": false,
      "stateMutability": "view",
      "type": "function"
    },
    {
      "constant": false,
      "inputs": [
        {
          "internalType": "contract IERC20",
          "name": "_TokenAddress",
          "type": "address"
        }
      ],
      "name": "inCaseTokengetsStuck",
      "outputs": [],
      "payable": false,
      "stateMutability": "nonpayable",
      "type": "function"
    },
    {
      "constant": false,
      "inputs": [],
      "name": "initialize",
      "outputs": [],
      "payable": false,
      "stateMutability": "nonpayable",
      "type": "function"
    },
    {
      "constant": false,
      "inputs": [
        {
          "internalType": "address",
          "name": "_UniSwapFactoryAddress",
          "type": "address"
        }
      ],
      "name": "initialize",
      "outputs": [],
      "payable": false,
      "stateMutability": "nonpayable",
      "type": "function"
    },
    {
      "constant": true,
      "inputs": [],
      "name": "isOwner",
      "outputs": [
        {
          "internalType": "bool",
          "name": "",
          "type": "bool"
        }
      ],
      "payable": false,
      "stateMutability": "view",
      "type": "function"
    },
    {
      "constant": true,
      "inputs": [],
      "name": "owner",
      "outputs": [
        {
          "internalType": "address payable",
          "name": "",
          "type": "address"
        }
      ],
      "payable": false,
      "stateMutability": "view",
      "type": "function"
    },
    {
      "constant": false,
      "inputs": [
        {
          "internalType": "address",
          "name": "_new_UniSwapFactoryAddress",
          "type": "address"
        }
      ],
      "name": "set_new_UniSwapFactoryAddress",
      "outputs": [],
      "payable": false,
      "stateMutability": "nonpayable",
      "type": "function"
    },
    {
      "constant": false,
      "inputs": [],
      "name": "toggleContractActive",
      "outputs": [],
      "payable": false,
      "stateMutability": "nonpayable",
      "type": "function"
    },
    {
      "constant": false,
      "inputs": [
        {
          "internalType": "address payable",
          "name": "newOwner",
          "type": "address"
        }
      ],
      "name": "transferOwnership",
      "outputs": [],
      "payable": false,
      "stateMutability": "nonpayable",
      "type": "function"
    },
    {
      "constant": false,
      "inputs": [],
      "name": "withdraw",
      "outputs": [],
      "payable": false,
      "stateMutability": "nonpayable",
      "type": "function"
    }
  ],
  "bytecode": "0x608060405234801561001057600080fd5b50611490806100206000396000f3fe6080604052600436106100d25760003560e01c80635de0398e1161007f5780638f32d59b116100595780638f32d59b14610244578063ae4de7fa1461026d578063c4d66de8146102a0578063f2fde38b146102d3576100d2565b80635de0398e146101ee5780638129fc1c1461021a5780638da5cb5b1461022f576100d2565b80633ccfd60b116100b05780633ccfd60b14610175578063525d509e1461018a578063551196d5146101bb576100d2565b80631385d24c1461010b5780632b68b9c6146101205780633a2a66cf14610135575b60665461010090046001600160a01b0316331461010957610107736b175474e89094c44da98b954eedeac495271d0f33610306565b505b005b34801561011757600080fd5b50610109610af4565b34801561012c57600080fd5b50610109610b4b565b6101636004803603604081101561014b57600080fd5b506001600160a01b0381358116916020013516610306565b60408051918252519081900360200190f35b34801561018157600080fd5b50610109610ba1565b34801561019657600080fd5b5061019f610c28565b604080516001600160a01b039092168252519081900360200190f35b3480156101c757600080fd5b50610109600480360360208110156101de57600080fd5b50356001600160a01b0316610c37565b3480156101fa57600080fd5b50610203610d7e565b6040805161ffff9092168252519081900360200190f35b34801561022657600080fd5b50610109610d8f565b34801561023b57600080fd5b5061019f610e35565b34801561025057600080fd5b50610259610e49565b604080519115158252519081900360200190f35b34801561027957600080fd5b506101096004803603602081101561029057600080fd5b50356001600160a01b0316610e5f565b3480156102ac57600080fd5b50610109600480360360208110156102c357600080fd5b50356001600160a01b0316610ed1565b3480156102df57600080fd5b50610109600480360360208110156102f657600080fd5b50356001600160a01b0316610fc8565b60665460009060ff1615610361576040805162461bcd60e51b815260206004820152601260248201527f54656d706f726172696c79205061757365640000000000000000000000000000604482015290519081900360640190fd5b606754604080516303795fb160e11b81526001600160a01b0380871660048301529151869360009316916306f2bf62916024808301926020929190829003018186803b1580156103b057600080fd5b505afa1580156103c4573d6000803e3d6000fd5b505050506040513d60208110156103da57600080fd5b5051905060006103f76103ef346101f7611014565b6103e8611074565b9050600061040534836110b6565b9050600061048d610486856001600160a01b031663cd7724c3866040518263ffffffff1660e01b81526004018082815260200191505060206040518083038186803b15801561045357600080fd5b505afa158015610467573d6000803e3d6000fd5b505050506040513d602081101561047d57600080fd5b50516062611014565b6064611074565b9050836001600160a01b031663f39b5b9b84836104ac426107086110f8565b6040518463ffffffff1660e01b815260040180838152602001828152602001925050506020604051808303818588803b1580156104e857600080fd5b505af11580156104fc573d6000803e3d6000fd5b50505050506040513d602081101561051357600080fd5b5050604080516370a0823160e01b815230600482015290516001600160a01b0387169163095ea7b391879184916370a0823191602480820192602092909190829003018186803b15801561056657600080fd5b505afa15801561057a573d6000803e3d6000fd5b505050506040513d602081101561059057600080fd5b5051604080516001600160e01b031960e086901b1681526001600160a01b03909316600484015260248301919091525160448083019260209291908290030181600087803b1580156105e157600080fd5b505af11580156105f5573d6000803e3d6000fd5b505050506040513d602081101561060b57600080fd5b5050604080516370a0823160e01b815230600482015290516000916001600160a01b038816916370a0823191602480820192602092909190829003018186803b15801561065757600080fd5b505afa15801561066b573d6000803e3d6000fd5b505050506040513d602081101561068157600080fd5b5051116106bf5760405162461bcd60e51b81526004018080602001828103825260288152602001806114066028913960400191505060405180910390fd5b604080516370a0823160e01b815230600482015290517fbaed940614d52f2fd6d87670ac237f4396f66dc0e796136c8c6f2a2b56fc40bd916001600160a01b038816916370a0823191602480820192602092909190829003018186803b15801561072857600080fd5b505afa15801561073c573d6000803e3d6000fd5b505050506040513d602081101561075257600080fd5b505160408051918252519081900360200190a16000610772858785611152565b90506000856001600160a01b031663422f104385600185610795426107086110f8565b6040518563ffffffff1660e01b81526004018084815260200183815260200182815260200193505050506020604051808303818588803b1580156107d857600080fd5b505af11580156107ec573d6000803e3d6000fd5b50505050506040513d602081101561080357600080fd5b5051604080516370a0823160e01b815230600482015290519192506001600160a01b0388169163a9059cbb918c9184916370a08231916024808301926020929190829003018186803b15801561085857600080fd5b505afa15801561086c573d6000803e3d6000fd5b505050506040513d602081101561088257600080fd5b5051604080516001600160e01b031960e086901b1681526001600160a01b03909316600484015260248301919091525160448083019260209291908290030181600087803b1580156108d357600080fd5b505af11580156108e7573d6000803e3d6000fd5b505050506040513d60208110156108fd57600080fd5b5050604080516370a0823160e01b815230600482015290516001600160a01b0380891692637237e03192918b16916370a0823191602480820192602092909190829003018186803b15801561095157600080fd5b505afa158015610965573d6000803e3d6000fd5b505050506040513d602081101561097b57600080fd5b5051600161098b426107086110f8565b8d6040518563ffffffff1660e01b815260040180858152602001848152602001838152602001826001600160a01b03166001600160a01b03168152602001945050505050602060405180830381600087803b1580156109e957600080fd5b505af11580156109fd573d6000803e3d6000fd5b505050506040513d6020811015610a1357600080fd5b50506040805163095ea7b360e01b81526001600160a01b0388811660048301526000602483018190529251908a169263095ea7b392604480820193602093909283900390910190829087803b158015610a6b57600080fd5b505af1158015610a7f573d6000803e3d6000fd5b505050506040513d6020811015610a9557600080fd5b5050604080513481526020810183905281516001600160a01b03808a16938b821693918e16927fc7ce6f15fd694bfa29310d70afd3fbfa84602850e41ba1c7e91dff02a000ba719281900390910190a496505050505050505b92915050565b610afc610e49565b610b375760405162461bcd60e51b815260040180806020018281038252602c8152602001806113b9602c913960400191505060405180910390fd5b6066805460ff19811660ff90911615179055565b610b53610e49565b610b8e5760405162461bcd60e51b815260040180806020018281038252602c8152602001806113b9602c913960400191505060405180910390fd5b60665461010090046001600160a01b0316ff5b610ba9610e49565b610be45760405162461bcd60e51b815260040180806020018281038252602c8152602001806113b9602c913960400191505060405180910390fd5b6066546040516001600160a01b036101009092049190911690303180156108fc02916000818181858888f19350505050158015610c25573d6000803e3d6000fd5b50565b6067546001600160a01b031681565b610c3f610e49565b610c7a5760405162461bcd60e51b815260040180806020018281038252602c8152602001806113b9602c913960400191505060405180910390fd5b604080516370a0823160e01b815230600482015290516000916001600160a01b038416916370a0823191602480820192602092909190829003018186803b158015610cc457600080fd5b505afa158015610cd8573d6000803e3d6000fd5b505050506040513d6020811015610cee57600080fd5b50516066546040805163a9059cbb60e01b81526101009092046001600160a01b03908116600484015260248301849052905192935084169163a9059cbb916044808201926020929091908290030181600087803b158015610d4e57600080fd5b505af1158015610d62573d6000803e3d6000fd5b505050506040513d6020811015610d7857600080fd5b50505050565b606754600160a01b900461ffff1681565b600054610100900460ff1680610da85750610da8611216565b80610db6575060005460ff16155b610df15760405162461bcd60e51b815260040180806020018281038252602e81526020018061142e602e913960400191505060405180910390fd5b600054610100900460ff16158015610e1c576000805460ff1961ff0019909116610100171660011790555b60016033558015610c25576000805461ff001916905550565b60665461010090046001600160a01b031681565b60665461010090046001600160a01b0316331490565b610e67610e49565b610ea25760405162461bcd60e51b815260040180806020018281038252602c8152602001806113b9602c913960400191505060405180910390fd5b6067805473ffffffffffffffffffffffffffffffffffffffff19166001600160a01b0392909216919091179055565b600054610100900460ff1680610eea5750610eea611216565b80610ef8575060005460ff16155b610f335760405162461bcd60e51b815260040180806020018281038252602e81526020018061142e602e913960400191505060405180910390fd5b600054610100900460ff16158015610f5e576000805460ff1961ff0019909116610100171660011790555b610f66610d8f565b6066805474ffffffffffffffffffffffffffffffffffffffffff191661010033021790556067805473ffffffffffffffffffffffffffffffffffffffff19166001600160a01b0384161790558015610fc4576000805461ff00191690555b5050565b610fd0610e49565b61100b5760405162461bcd60e51b815260040180806020018281038252602c8152602001806113b9602c913960400191505060405180910390fd5b610c258161121c565b60008261102357506000610aee565b8282028284828161103057fe5b041461106d5760405162461bcd60e51b81526004018080602001828103825260218152602001806113e56021913960400191505060405180910390fd5b9392505050565b600061106d83836040518060400160405280601a81526020017f536166654d6174683a206469766973696f6e206279207a65726f000000000000815250611296565b600061106d83836040518060400160405280601e81526020017f536166654d6174683a207375627472616374696f6e206f766572666c6f770000815250611338565b60008282018381101561106d576040805162461bcd60e51b815260206004820152601b60248201527f536166654d6174683a206164646974696f6e206f766572666c6f770000000000604482015290519081900360640190fd5b60006001600160a01b038416318161116a82856110b6565b90506000856001600160a01b03166370a08231886040518263ffffffff1660e01b815260040180826001600160a01b03166001600160a01b0316815260200191505060206040518083038186803b1580156111c457600080fd5b505afa1580156111d8573d6000803e3d6000fd5b505050506040513d60208110156111ee57600080fd5b5051905060006112076112018784611014565b84611074565b60010198975050505050505050565b303b1590565b6001600160a01b0381166112615760405162461bcd60e51b81526004018080602001828103825260268152602001806113936026913960400191505060405180910390fd5b606680546001600160a01b039092166101000274ffffffffffffffffffffffffffffffffffffffff0019909216919091179055565b600081836113225760405162461bcd60e51b81526004018080602001828103825283818151815260200191508051906020019080838360005b838110156112e75781810151838201526020016112cf565b50505050905090810190601f1680156113145780820380516001836020036101000a031916815260200191505b509250505060405180910390fd5b50600083858161132e57fe5b0495945050505050565b6000818484111561138a5760405162461bcd60e51b81526020600482018181528351602484015283519092839260449091019190850190808383600083156112e75781810151838201526020016112cf565b50505090039056fe4f776e61626c653a206e6577206f776e657220697320746865207a65726f2061646472657373796f7520617265206e6f7420617574686f726973656420746f2063616c6c20746869732066756e6374696f6e536166654d6174683a206d756c7469706c69636174696f6e206f766572666c6f7774686520636f6e76657273696f6e20646964206e6f742068617070656e20617320706c616e6e6564436f6e747261637420696e7374616e63652068617320616c7265616479206265656e20696e697469616c697a6564a265627a7a72315820a7f758239efcf4260f82489ab8d991e13e478bb0eea69efa6c5175c7fed5e90b64736f6c634300050d0032",
  "compiler": {
    "name": "solc",
    "version": "0.5.13+commit.5b0b510c.Emscripten.clang",
    "optimizer": {
      "enabled": true,
      "runs": 500
    },
    "evmVersion": "petersburg"
  }
}