{
  "fileName": "UniSwapAddLiquidityV3_UpgradableGeneral.sol",
  "contractName": "UniSwapAddLiquityV3_General",
  "source": "// Copyright (C) 2019, 2020 dipeshsukhani, nodarjonashi, toshsharma, suhailg\n\n// This program is free software: you can redistribute it and/or modify\n// it under the terms of the GNU Affero General Public License as published by\n// the Free Software Foundation, either version 2 of the License, or\n// (at your option) any later version.\n//\n// This program is distributed in the hope that it will be useful,\n// but WITHOUT ANY WARRANTY; without even the implied warranty of\n// MERCHANTABILITY or FITNESS FOR A PARTICULAR PURPOSE.  See the\n// GNU Affero General Public License for more details.\n//\n// Visit <https://www.gnu.org/licenses/>for a copy of the GNU Affero General Public License\n\n/**\n * WARNING: This is an upgradable contract. Be careful not to disrupt\n * the existing storage layout when making upgrades to the contract. In particular,\n * existing fields should not be removed and should not have their types changed.\n * The order of field declarations must not be changed, and new fields must be added\n * below all existing declarations.\n *\n * The base contracts and the order in which they are declared must not be changed.\n * New fields must not be added to base contracts (unless the base contract has\n * reserved placeholder fields for this purpose).\n *\n * See https://docs.zeppelinos.org/docs/writing_contracts.html for more info.\n*/\n\npragma solidity ^0.5.0;\n\nimport \"../../../node_modules/@openzeppelin/upgrades/contracts/Initializable.sol\";\nimport \"../../../node_modules/@openzeppelin/contracts-ethereum-package/contracts/math/SafeMath.sol\";\nimport \"../../../node_modules/@openzeppelin/contracts-ethereum-package/contracts/token/ERC20/IERC20.sol\";\nimport \"../../../node_modules/@openzeppelin/contracts-ethereum-package/contracts/utils/ReentrancyGuard.sol\";\n\n///@author DeFiZap\n///@notice this contract implements one click conversion from ETH to unipool liquidity tokens\n\ninterface IuniswapFactory_UniPoolGeneralv3 {\n    function getExchange(address token)\n        external\n        view\n        returns (address exchange);\n}\n\ninterface IuniswapExchange_UniPoolGeneralv3 {\n    function getEthToTokenInputPrice(uint256 eth_sold)\n        external\n        view\n        returns (uint256 tokens_bought);\n    function ethToTokenSwapInput(uint256 min_tokens, uint256 deadline)\n        external\n        payable\n        returns (uint256 tokens_bought);\n    function balanceOf(address _owner) external view returns (uint256);\n    function transfer(address _to, uint256 _value) external returns (bool);\n    function addLiquidity(\n        uint256 min_liquidity,\n        uint256 max_tokens,\n        uint256 deadline\n    ) external payable returns (uint256);\n    function tokenToEthSwapInput(\n        uint256 tokens_sold,\n        uint256 min_eth,\n        uint256 deadline\n    ) external returns (uint256 eth_bought);\n    function tokenToEthTransferInput(\n        uint256 tokens_sold,\n        uint256 min_eth,\n        uint256 deadline,\n        address recipient\n    ) external returns (uint256 eth_bought);\n}\n\ncontract UniSwapAddLiquityV3_General is Initializable, ReentrancyGuard {\n    using SafeMath for uint256;\n\n    // state variables\n\n    // - THESE MUST ALWAYS STAY IN THE SAME LAYOUT\n    bool private stopped;\n    address payable public owner;\n    IuniswapFactory_UniPoolGeneralv3 public UniSwapFactoryAddress;\n    uint16 public goodwill;\n\n    // events\n    event ERC20TokenHoldingsOnConversion(uint256);\n    event uniswapGeneralv3_details(\n        address indexed _user,\n        address indexed _tokenContractAddress,\n        address indexed _uniswapExchangeAddress,\n        uint256 _ethDeployed,\n        uint256 _liquidityTokens\n    );\n\n    // circuit breaker modifiers\n    modifier stopInEmergency {\n        if (stopped) {\n            revert(\"Temporarily Paused\");\n        } else {\n            _;\n        }\n    }\n    modifier onlyOwner() {\n        require(isOwner(), \"you are not authorised to call this function\");\n        _;\n    }\n\n    function initialize(address _UniSwapFactoryAddress) public initializer {\n        ReentrancyGuard.initialize();\n        stopped = false;\n        owner = msg.sender;\n        UniSwapFactoryAddress = IuniswapFactory_UniPoolGeneralv3(\n            _UniSwapFactoryAddress\n        );\n    }\n\n    function set_new_UniSwapFactoryAddress(address _new_UniSwapFactoryAddress)\n        public\n        onlyOwner\n    {\n        UniSwapFactoryAddress = IuniswapFactory_UniPoolGeneralv3(\n            _new_UniSwapFactoryAddress\n        );\n\n    }\n\n    function LetsInvest(address _TokenContractAddress, address _towhomtoissue)\n        public\n        payable\n        stopInEmergency\n        returns (uint256)\n    {\n        IERC20 ERC20TokenAddress = IERC20(_TokenContractAddress);\n        IuniswapExchange_UniPoolGeneralv3 UniSwapExchangeContractAddress = IuniswapExchange_UniPoolGeneralv3(\n            UniSwapFactoryAddress.getExchange(_TokenContractAddress)\n        );\n\n        // determining the portion of the incoming ETH to be converted to the ERC20 Token\n        uint256 conversionPortion = SafeMath.div(\n            SafeMath.mul(msg.value, 503),\n            1000\n        );\n        uint256 non_conversionPortion = SafeMath.sub(\n            msg.value,\n            conversionPortion\n        );\n\n        // coversion of ETH to the ERC20 Token\n        uint256 min_Tokens = SafeMath.div(\n            SafeMath.mul(\n                UniSwapExchangeContractAddress.getEthToTokenInputPrice(\n                    conversionPortion\n                ),\n                98\n            ),\n            100\n        );\n        UniSwapExchangeContractAddress.ethToTokenSwapInput.value(\n            conversionPortion\n        )(min_Tokens, SafeMath.add(now, 1800));\n        ERC20TokenAddress.approve(\n            address(UniSwapExchangeContractAddress),\n            ERC20TokenAddress.balanceOf(address(this))\n        );\n        require(\n            ERC20TokenAddress.balanceOf(address(this)) > 0,\n            \"the conversion did not happen as planned\"\n        );\n        emit ERC20TokenHoldingsOnConversion(\n            ERC20TokenAddress.balanceOf(address(this))\n        );\n\n        // adding Liquidity\n        uint256 max_tokens_ans = getMaxTokens(\n            address(UniSwapExchangeContractAddress),\n            ERC20TokenAddress,\n            non_conversionPortion\n        );\n        uint256 LiquidityTokens = UniSwapExchangeContractAddress\n            .addLiquidity\n            .value(non_conversionPortion)(\n            1,\n            max_tokens_ans,\n            SafeMath.add(now, 1800)\n        );\n\n        // transferring Liquidity\n        UniSwapExchangeContractAddress.transfer(\n            _towhomtoissue,\n            UniSwapExchangeContractAddress.balanceOf(address(this))\n        );\n\n        // converting the residual\n        UniSwapExchangeContractAddress.tokenToEthTransferInput(\n            ERC20TokenAddress.balanceOf(address(this)),\n            1,\n            SafeMath.add(now, 1800),\n            _towhomtoissue\n        );\n        ERC20TokenAddress.approve(address(UniSwapExchangeContractAddress), 0);\n        emit uniswapGeneralv3_details(\n            _towhomtoissue,\n            address(ERC20TokenAddress),\n            address(UniSwapExchangeContractAddress),\n            msg.value,\n            LiquidityTokens\n        );\n        return LiquidityTokens;\n    }\n\n    function getMaxTokens(\n        address _UniSwapExchangeContractAddress,\n        IERC20 _ERC20TokenAddress,\n        uint256 _value\n    ) internal view returns (uint256) {\n        uint256 contractBalance = address(_UniSwapExchangeContractAddress)\n            .balance;\n        uint256 eth_reserve = SafeMath.sub(contractBalance, _value);\n        uint256 token_reserve = _ERC20TokenAddress.balanceOf(\n            _UniSwapExchangeContractAddress\n        );\n        uint256 token_amount = SafeMath.div(\n            SafeMath.mul(_value, token_reserve),\n            eth_reserve\n        ) +\n            1;\n        return token_amount;\n    }\n\n    function inCaseTokengetsStuck(IERC20 _TokenAddress) public onlyOwner {\n        uint256 qty = _TokenAddress.balanceOf(address(this));\n        _TokenAddress.transfer(owner, qty);\n    }\n\n    // - fallback function let you / anyone send ETH to this wallet without the need to call any function\n    function() external payable {\n        if (msg.sender != owner) {\n            LetsInvest(0x6B175474E89094C44Da98b954EedeAC495271d0F, msg.sender);\n        }\n    }\n\n    // - to Pause the contract\n    function toggleContractActive() public onlyOwner {\n        stopped = !stopped;\n    }\n\n    // - to withdraw any ETH balance sitting in the contract\n    function withdraw() public onlyOwner {\n        owner.transfer(address(this).balance);\n    }\n\n    // - to kill the contract\n    function destruct() public onlyOwner {\n        selfdestruct(owner);\n    }\n\n    /**\n     * @return true if `msg.sender` is the owner of the contract.\n     */\n    function isOwner() public view returns (bool) {\n        return msg.sender == owner;\n    }\n\n    /**\n     * @dev Transfers ownership of the contract to a new account (`newOwner`).\n     * Can only be called by the current owner.\n     */\n    function transferOwnership(address payable newOwner) public onlyOwner {\n        _transferOwnership(newOwner);\n    }\n\n    /**\n     * @dev Transfers ownership of the contract to a new account (`newOwner`).\n     */\n    function _transferOwnership(address payable newOwner) internal {\n        require(\n            newOwner != address(0),\n            \"Ownable: new owner is the zero address\"\n        );\n        owner = newOwner;\n    }\n\n}\n",
  "sourcePath": "contracts/UpdatedZaps/Done/UniSwapAddLiquidityV3_UpgradableGeneral.sol",
  "abi": [
    {
      "anonymous": false,
      "inputs": [
        {
          "indexed": false,
          "internalType": "uint256",
          "name": "",
          "type": "uint256"
        }
      ],
      "name": "ERC20TokenHoldingsOnConversion",
      "type": "event"
    },
    {
      "anonymous": false,
      "inputs": [
        {
          "indexed": true,
          "internalType": "address",
          "name": "_user",
          "type": "address"
        },
        {
          "indexed": true,
          "internalType": "address",
          "name": "_tokenContractAddress",
          "type": "address"
        },
        {
          "indexed": true,
          "internalType": "address",
          "name": "_uniswapExchangeAddress",
          "type": "address"
        },
        {
          "indexed": false,
          "internalType": "uint256",
          "name": "_ethDeployed",
          "type": "uint256"
        },
        {
          "indexed": false,
          "internalType": "uint256",
          "name": "_liquidityTokens",
          "type": "uint256"
        }
      ],
      "name": "uniswapGeneralv3_details",
      "type": "event"
    },
    {
      "payable": true,
      "stateMutability": "payable",
      "type": "fallback"
    },
    {
      "constant": false,
      "inputs": [
        {
          "internalType": "address",
          "name": "_TokenContractAddress",
          "type": "address"
        },
        {
          "internalType": "address",
          "name": "_towhomtoissue",
          "type": "address"
        }
      ],
      "name": "LetsInvest",
      "outputs": [
        {
          "internalType": "uint256",
          "name": "",
          "type": "uint256"
        }
      ],
      "payable": true,
      "stateMutability": "payable",
      "type": "function"
    },
    {
      "constant": true,
      "inputs": [],
      "name": "UniSwapFactoryAddress",
      "outputs": [
        {
          "internalType": "contract IuniswapFactory_UniPoolGeneralv3",
          "name": "",
          "type": "address"
        }
      ],
      "payable": false,
      "stateMutability": "view",
      "type": "function"
    },
    {
      "constant": false,
      "inputs": [],
      "name": "destruct",
      "outputs": [],
      "payable": false,
      "stateMutability": "nonpayable",
      "type": "function"
    },
    {
      "constant": true,
      "inputs": [],
      "name": "goodwill",
      "outputs": [
        {
          "internalType": "uint16",
          "name": "",
          "type": "uint16"
        }
      ],
      "payable": false,
      "stateMutability": "view",
      "type": "function"
    },
    {
      "constant": false,
      "inputs": [
        {
          "internalType": "contract IERC20",
          "name": "_TokenAddress",
          "type": "address"
        }
      ],
      "name": "inCaseTokengetsStuck",
      "outputs": [],
      "payable": false,
      "stateMutability": "nonpayable",
      "type": "function"
    },
    {
      "constant": false,
      "inputs": [],
      "name": "initialize",
      "outputs": [],
      "payable": false,
      "stateMutability": "nonpayable",
      "type": "function"
    },
    {
      "constant": false,
      "inputs": [
        {
          "internalType": "address",
          "name": "_UniSwapFactoryAddress",
          "type": "address"
        }
      ],
      "name": "initialize",
      "outputs": [],
      "payable": false,
      "stateMutability": "nonpayable",
      "type": "function"
    },
    {
      "constant": true,
      "inputs": [],
      "name": "isOwner",
      "outputs": [
        {
          "internalType": "bool",
          "name": "",
          "type": "bool"
        }
      ],
      "payable": false,
      "stateMutability": "view",
      "type": "function"
    },
    {
      "constant": true,
      "inputs": [],
      "name": "owner",
      "outputs": [
        {
          "internalType": "address payable",
          "name": "",
          "type": "address"
        }
      ],
      "payable": false,
      "stateMutability": "view",
      "type": "function"
    },
    {
      "constant": false,
      "inputs": [
        {
          "internalType": "address",
          "name": "_new_UniSwapFactoryAddress",
          "type": "address"
        }
      ],
      "name": "set_new_UniSwapFactoryAddress",
      "outputs": [],
      "payable": false,
      "stateMutability": "nonpayable",
      "type": "function"
    },
    {
      "constant": false,
      "inputs": [],
      "name": "toggleContractActive",
      "outputs": [],
      "payable": false,
      "stateMutability": "nonpayable",
      "type": "function"
    },
    {
      "constant": false,
      "inputs": [
        {
          "internalType": "address payable",
          "name": "newOwner",
          "type": "address"
        }
      ],
      "name": "transferOwnership",
      "outputs": [],
      "payable": false,
      "stateMutability": "nonpayable",
      "type": "function"
    },
    {
      "constant": false,
      "inputs": [],
      "name": "withdraw",
      "outputs": [],
      "payable": false,
      "stateMutability": "nonpayable",
      "type": "function"
    }
  ],
  "bytecode": "0x608060405234801561001057600080fd5b50611e57806100206000396000f3fe6080604052600436106100c25760003560e01c80635de0398e1161007f5780638f32d59b116100595780638f32d59b1461033f578063ae4de7fa1461036e578063c4d66de8146103bf578063f2fde38b14610410576100c2565b80635de0398e1461029e5780638129fc1c146102d15780638da5cb5b146102e8576100c2565b80631385d24c146101395780632b68b9c6146101505780633a2a66cf146101675780633ccfd60b146101df578063525d509e146101f6578063551196d51461024d575b606660019054906101000a900473ffffffffffffffffffffffffffffffffffffffff1673ffffffffffffffffffffffffffffffffffffffff163373ffffffffffffffffffffffffffffffffffffffff161461013757610135736b175474e89094c44da98b954eedeac495271d0f33610461565b505b005b34801561014557600080fd5b5061014e610fd7565b005b34801561015c57600080fd5b50610165611060565b005b6101c96004803603604081101561017d57600080fd5b81019080803573ffffffffffffffffffffffffffffffffffffffff169060200190929190803573ffffffffffffffffffffffffffffffffffffffff169060200190929190505050610461565b6040518082815260200191505060405180910390f35b3480156101eb57600080fd5b506101f46110f8565b005b34801561020257600080fd5b5061020b6111d7565b604051808273ffffffffffffffffffffffffffffffffffffffff1673ffffffffffffffffffffffffffffffffffffffff16815260200191505060405180910390f35b34801561025957600080fd5b5061029c6004803603602081101561027057600080fd5b81019080803573ffffffffffffffffffffffffffffffffffffffff1690602001909291905050506111fd565b005b3480156102aa57600080fd5b506102b36113ff565b604051808261ffff1661ffff16815260200191505060405180910390f35b3480156102dd57600080fd5b506102e6611413565b005b3480156102f457600080fd5b506102fd61151a565b604051808273ffffffffffffffffffffffffffffffffffffffff1673ffffffffffffffffffffffffffffffffffffffff16815260200191505060405180910390f35b34801561034b57600080fd5b50610354611540565b604051808215151515815260200191505060405180910390f35b34801561037a57600080fd5b506103bd6004803603602081101561039157600080fd5b81019080803573ffffffffffffffffffffffffffffffffffffffff169060200190929190505050611598565b005b3480156103cb57600080fd5b5061040e600480360360208110156103e257600080fd5b81019080803573ffffffffffffffffffffffffffffffffffffffff169060200190929190505050611639565b005b34801561041c57600080fd5b5061045f6004803603602081101561043357600080fd5b81019080803573ffffffffffffffffffffffffffffffffffffffff1690602001909291905050506117de565b005b6000606660009054906101000a900460ff16156104e6576040517f08c379a00000000000000000000000000000000000000000000000000000000081526004018080602001828103825260128152602001807f54656d706f726172696c7920506175736564000000000000000000000000000081525060200191505060405180910390fd5b60008390506000606760009054906101000a900473ffffffffffffffffffffffffffffffffffffffff1673ffffffffffffffffffffffffffffffffffffffff166306f2bf62866040518263ffffffff1660e01b8152600401808273ffffffffffffffffffffffffffffffffffffffff1673ffffffffffffffffffffffffffffffffffffffff16815260200191505060206040518083038186803b15801561058c57600080fd5b505afa1580156105a0573d6000803e3d6000fd5b505050506040513d60208110156105b657600080fd5b8101908080519060200190929190505050905060006105e26105da346101f7611847565b6103e86118cd565b905060006105f03483611917565b9050600061069461068d8573ffffffffffffffffffffffffffffffffffffffff1663cd7724c3866040518263ffffffff1660e01b81526004018082815260200191505060206040518083038186803b15801561064b57600080fd5b505afa15801561065f573d6000803e3d6000fd5b505050506040513d602081101561067557600080fd5b81019080805190602001909291905050506062611847565b60646118cd565b90508373ffffffffffffffffffffffffffffffffffffffff1663f39b5b9b84836106c042610708611961565b6040518463ffffffff1660e01b815260040180838152602001828152602001925050506020604051808303818588803b1580156106fc57600080fd5b505af1158015610710573d6000803e3d6000fd5b50505050506040513d602081101561072757600080fd5b8101908080519060200190929190505050508473ffffffffffffffffffffffffffffffffffffffff1663095ea7b3858773ffffffffffffffffffffffffffffffffffffffff166370a08231306040518263ffffffff1660e01b8152600401808273ffffffffffffffffffffffffffffffffffffffff1673ffffffffffffffffffffffffffffffffffffffff16815260200191505060206040518083038186803b1580156107d357600080fd5b505afa1580156107e7573d6000803e3d6000fd5b505050506040513d60208110156107fd57600080fd5b81019080805190602001909291905050506040518363ffffffff1660e01b8152600401808373ffffffffffffffffffffffffffffffffffffffff1673ffffffffffffffffffffffffffffffffffffffff16815260200182815260200192505050602060405180830381600087803b15801561087757600080fd5b505af115801561088b573d6000803e3d6000fd5b505050506040513d60208110156108a157600080fd5b81019080805190602001909291905050505060008573ffffffffffffffffffffffffffffffffffffffff166370a08231306040518263ffffffff1660e01b8152600401808273ffffffffffffffffffffffffffffffffffffffff1673ffffffffffffffffffffffffffffffffffffffff16815260200191505060206040518083038186803b15801561093257600080fd5b505afa158015610946573d6000803e3d6000fd5b505050506040513d602081101561095c57600080fd5b8101908080519060200190929190505050116109c3576040517f08c379a0000000000000000000000000000000000000000000000000000000008152600401808060200182810382526028815260200180611dcd6028913960400191505060405180910390fd5b7fbaed940614d52f2fd6d87670ac237f4396f66dc0e796136c8c6f2a2b56fc40bd8573ffffffffffffffffffffffffffffffffffffffff166370a08231306040518263ffffffff1660e01b8152600401808273ffffffffffffffffffffffffffffffffffffffff1673ffffffffffffffffffffffffffffffffffffffff16815260200191505060206040518083038186803b158015610a6157600080fd5b505afa158015610a75573d6000803e3d6000fd5b505050506040513d6020811015610a8b57600080fd5b81019080805190602001909291905050506040518082815260200191505060405180910390a16000610abe8587856119e9565b905060008573ffffffffffffffffffffffffffffffffffffffff1663422f104385600185610aee42610708611961565b6040518563ffffffff1660e01b81526004018084815260200183815260200182815260200193505050506020604051808303818588803b158015610b3157600080fd5b505af1158015610b45573d6000803e3d6000fd5b50505050506040513d6020811015610b5c57600080fd5b810190808051906020019092919050505090508573ffffffffffffffffffffffffffffffffffffffff1663a9059cbb8a8873ffffffffffffffffffffffffffffffffffffffff166370a08231306040518263ffffffff1660e01b8152600401808273ffffffffffffffffffffffffffffffffffffffff1673ffffffffffffffffffffffffffffffffffffffff16815260200191505060206040518083038186803b158015610c0957600080fd5b505afa158015610c1d573d6000803e3d6000fd5b505050506040513d6020811015610c3357600080fd5b81019080805190602001909291905050506040518363ffffffff1660e01b8152600401808373ffffffffffffffffffffffffffffffffffffffff1673ffffffffffffffffffffffffffffffffffffffff16815260200182815260200192505050602060405180830381600087803b158015610cad57600080fd5b505af1158015610cc1573d6000803e3d6000fd5b505050506040513d6020811015610cd757600080fd5b8101908080519060200190929190505050508573ffffffffffffffffffffffffffffffffffffffff16637237e0318873ffffffffffffffffffffffffffffffffffffffff166370a08231306040518263ffffffff1660e01b8152600401808273ffffffffffffffffffffffffffffffffffffffff1673ffffffffffffffffffffffffffffffffffffffff16815260200191505060206040518083038186803b158015610d8257600080fd5b505afa158015610d96573d6000803e3d6000fd5b505050506040513d6020811015610dac57600080fd5b81019080805190602001909291905050506001610dcb42610708611961565b8d6040518563ffffffff1660e01b8152600401808581526020018481526020018381526020018273ffffffffffffffffffffffffffffffffffffffff1673ffffffffffffffffffffffffffffffffffffffff168152602001945050505050602060405180830381600087803b158015610e4357600080fd5b505af1158015610e57573d6000803e3d6000fd5b505050506040513d6020811015610e6d57600080fd5b8101908080519060200190929190505050508673ffffffffffffffffffffffffffffffffffffffff1663095ea7b38760006040518363ffffffff1660e01b8152600401808373ffffffffffffffffffffffffffffffffffffffff1673ffffffffffffffffffffffffffffffffffffffff16815260200182815260200192505050602060405180830381600087803b158015610f0757600080fd5b505af1158015610f1b573d6000803e3d6000fd5b505050506040513d6020811015610f3157600080fd5b8101908080519060200190929190505050508573ffffffffffffffffffffffffffffffffffffffff168773ffffffffffffffffffffffffffffffffffffffff168a73ffffffffffffffffffffffffffffffffffffffff167fc7ce6f15fd694bfa29310d70afd3fbfa84602850e41ba1c7e91dff02a000ba713485604051808381526020018281526020019250505060405180910390a48097505050505050505092915050565b610fdf611540565b611034576040517f08c379a000000000000000000000000000000000000000000000000000000000815260040180806020018281038252602c815260200180611d80602c913960400191505060405180910390fd5b606660009054906101000a900460ff1615606660006101000a81548160ff021916908315150217905550565b611068611540565b6110bd576040517f08c379a000000000000000000000000000000000000000000000000000000000815260040180806020018281038252602c815260200180611d80602c913960400191505060405180910390fd5b606660019054906101000a900473ffffffffffffffffffffffffffffffffffffffff1673ffffffffffffffffffffffffffffffffffffffff16ff5b611100611540565b611155576040517f08c379a000000000000000000000000000000000000000000000000000000000815260040180806020018281038252602c815260200180611d80602c913960400191505060405180910390fd5b606660019054906101000a900473ffffffffffffffffffffffffffffffffffffffff1673ffffffffffffffffffffffffffffffffffffffff166108fc3073ffffffffffffffffffffffffffffffffffffffff16319081150290604051600060405180830381858888f193505050501580156111d4573d6000803e3d6000fd5b50565b606760009054906101000a900473ffffffffffffffffffffffffffffffffffffffff1681565b611205611540565b61125a576040517f08c379a000000000000000000000000000000000000000000000000000000000815260040180806020018281038252602c815260200180611d80602c913960400191505060405180910390fd5b60008173ffffffffffffffffffffffffffffffffffffffff166370a08231306040518263ffffffff1660e01b8152600401808273ffffffffffffffffffffffffffffffffffffffff1673ffffffffffffffffffffffffffffffffffffffff16815260200191505060206040518083038186803b1580156112d957600080fd5b505afa1580156112ed573d6000803e3d6000fd5b505050506040513d602081101561130357600080fd5b810190808051906020019092919050505090508173ffffffffffffffffffffffffffffffffffffffff1663a9059cbb606660019054906101000a900473ffffffffffffffffffffffffffffffffffffffff16836040518363ffffffff1660e01b8152600401808373ffffffffffffffffffffffffffffffffffffffff1673ffffffffffffffffffffffffffffffffffffffff16815260200182815260200192505050602060405180830381600087803b1580156113bf57600080fd5b505af11580156113d3573d6000803e3d6000fd5b505050506040513d60208110156113e957600080fd5b8101908080519060200190929190505050505050565b606760149054906101000a900461ffff1681565b600060019054906101000a900460ff16806114325750611431611af8565b5b8061144957506000809054906101000a900460ff16155b61149e576040517f08c379a000000000000000000000000000000000000000000000000000000000815260040180806020018281038252602e815260200180611df5602e913960400191505060405180910390fd5b60008060019054906101000a900460ff1615905080156114ee576001600060016101000a81548160ff02191690831515021790555060016000806101000a81548160ff0219169083151502179055505b600160338190555080156115175760008060016101000a81548160ff0219169083151502179055505b50565b606660019054906101000a900473ffffffffffffffffffffffffffffffffffffffff1681565b6000606660019054906101000a900473ffffffffffffffffffffffffffffffffffffffff1673ffffffffffffffffffffffffffffffffffffffff163373ffffffffffffffffffffffffffffffffffffffff1614905090565b6115a0611540565b6115f5576040517f08c379a000000000000000000000000000000000000000000000000000000000815260040180806020018281038252602c815260200180611d80602c913960400191505060405180910390fd5b80606760006101000a81548173ffffffffffffffffffffffffffffffffffffffff021916908373ffffffffffffffffffffffffffffffffffffffff16021790555050565b600060019054906101000a900460ff16806116585750611657611af8565b5b8061166f57506000809054906101000a900460ff16155b6116c4576040517f08c379a000000000000000000000000000000000000000000000000000000000815260040180806020018281038252602e815260200180611df5602e913960400191505060405180910390fd5b60008060019054906101000a900460ff161590508015611714576001600060016101000a81548160ff02191690831515021790555060016000806101000a81548160ff0219169083151502179055505b61171c611413565b6000606660006101000a81548160ff02191690831515021790555033606660016101000a81548173ffffffffffffffffffffffffffffffffffffffff021916908373ffffffffffffffffffffffffffffffffffffffff16021790555081606760006101000a81548173ffffffffffffffffffffffffffffffffffffffff021916908373ffffffffffffffffffffffffffffffffffffffff16021790555080156117da5760008060016101000a81548160ff0219169083151502179055505b5050565b6117e6611540565b61183b576040517f08c379a000000000000000000000000000000000000000000000000000000000815260040180806020018281038252602c815260200180611d80602c913960400191505060405180910390fd5b61184481611b09565b50565b60008083141561185a57600090506118c7565b600082840290508284828161186b57fe5b04146118c2576040517f08c379a0000000000000000000000000000000000000000000000000000000008152600401808060200182810382526021815260200180611dac6021913960400191505060405180910390fd5b809150505b92915050565b600061190f83836040518060400160405280601a81526020017f536166654d6174683a206469766973696f6e206279207a65726f000000000000815250611bd3565b905092915050565b600061195983836040518060400160405280601e81526020017f536166654d6174683a207375627472616374696f6e206f766572666c6f770000815250611c99565b905092915050565b6000808284019050838110156119df576040517f08c379a000000000000000000000000000000000000000000000000000000000815260040180806020018281038252601b8152602001807f536166654d6174683a206164646974696f6e206f766572666c6f77000000000081525060200191505060405180910390fd5b8091505092915050565b6000808473ffffffffffffffffffffffffffffffffffffffff163190506000611a128285611917565b905060008573ffffffffffffffffffffffffffffffffffffffff166370a08231886040518263ffffffff1660e01b8152600401808273ffffffffffffffffffffffffffffffffffffffff1673ffffffffffffffffffffffffffffffffffffffff16815260200191505060206040518083038186803b158015611a9357600080fd5b505afa158015611aa7573d6000803e3d6000fd5b505050506040513d6020811015611abd57600080fd5b8101908080519060200190929190505050905060006001611ae7611ae18885611847565b856118cd565b019050809450505050509392505050565b600080303b90506000811491505090565b600073ffffffffffffffffffffffffffffffffffffffff168173ffffffffffffffffffffffffffffffffffffffff161415611b8f576040517f08c379a0000000000000000000000000000000000000000000000000000000008152600401808060200182810382526026815260200180611d5a6026913960400191505060405180910390fd5b80606660016101000a81548173ffffffffffffffffffffffffffffffffffffffff021916908373ffffffffffffffffffffffffffffffffffffffff16021790555050565b60008083118290611c7f576040517f08c379a00000000000000000000000000000000000000000000000000000000081526004018080602001828103825283818151815260200191508051906020019080838360005b83811015611c44578082015181840152602081019050611c29565b50505050905090810190601f168015611c715780820380516001836020036101000a031916815260200191505b509250505060405180910390fd5b506000838581611c8b57fe5b049050809150509392505050565b6000838311158290611d46576040517f08c379a00000000000000000000000000000000000000000000000000000000081526004018080602001828103825283818151815260200191508051906020019080838360005b83811015611d0b578082015181840152602081019050611cf0565b50505050905090810190601f168015611d385780820380516001836020036101000a031916815260200191505b509250505060405180910390fd5b506000838503905080915050939250505056fe4f776e61626c653a206e6577206f776e657220697320746865207a65726f2061646472657373796f7520617265206e6f7420617574686f726973656420746f2063616c6c20746869732066756e6374696f6e536166654d6174683a206d756c7469706c69636174696f6e206f766572666c6f7774686520636f6e76657273696f6e20646964206e6f742068617070656e20617320706c616e6e6564436f6e747261637420696e7374616e63652068617320616c7265616479206265656e20696e697469616c697a6564a265627a7a723158202bee17e104ff6b266f8f346f1d27ca2ef1c417286cfdd22d7c6b76093994a69b64736f6c634300050d0032",
  "compiler": {
    "name": "solc",
    "version": "0.5.13+commit.5b0b510c.Emscripten.clang",
    "optimizer": {
      "enabled": false,
      "runs": 200
    },
    "evmVersion": "petersburg"
  }
}