{
  "fileName": "Uniswap_ETH_wBTCZap.sol",
  "contractName": "UniSwap_ETH_wBTCZap",
  "source": "// Copyright (C) 2019, 2020 dipeshsukhani, nodarjonashi, toshsharma, suhailg\r\n\r\n// This program is free software: you can redistribute it and/or modify\r\n// it under the terms of the GNU Affero General Public License as published by\r\n// the Free Software Foundation, either version 2 of the License, or\r\n// (at your option) any later version.\r\n//\r\n// This program is distributed in the hope that it will be useful,\r\n// but WITHOUT ANY WARRANTY; without even the implied warranty of\r\n// MERCHANTABILITY or FITNESS FOR A PARTICULAR PURPOSE.  See the\r\n// GNU Affero General Public License for more details.\r\n//\r\n// Visit <https://www.gnu.org/licenses/>for a copy of the GNU Affero General Public License\r\n\r\n/**\r\n * WARNING: This is an upgradable contract. Be careful not to disrupt\r\n * the existing storage layout when making upgrades to the contract. In particular,\r\n * existing fields should not be removed and should not have their types changed.\r\n * The order of field declarations must not be changed, and new fields must be added\r\n * below all existing declarations.\r\n *\r\n * The base contracts and the order in which they are declared must not be changed.\r\n * New fields must not be added to base contracts (unless the base contract has\r\n * reserved placeholder fields for this purpose).\r\n *\r\n * See https://docs.zeppelinos.org/docs/writing_contracts.html for more info.\r\n*/\r\n// solium-disable linebreak-style\r\npragma solidity ^0.5.0;\r\n\r\nimport \"../../../node_modules/@openzeppelin/upgrades/contracts/Initializable.sol\";\r\nimport \"../../../node_modules/@openzeppelin/contracts-ethereum-package/contracts/math/SafeMath.sol\";\r\nimport \"../../../node_modules/@openzeppelin/contracts-ethereum-package/contracts/token/ERC20/IERC20.sol\";\r\n\r\n\r\ninterface UniSwapAddLiquityV2_General {\r\n    function LetsInvest(address _TokenContractAddress, address _towhomtoissue) external payable returns (uint);\r\n}\r\n\r\n\r\n// through this contract we are putting 34% allocation to 2xLongETH and 66% to Uniswap pool\r\ncontract UniSwap_ETH_wBTCZap is Initializable {\r\n    using SafeMath for uint;\r\n    \r\n    // state variables\r\n\r\n    // - THESE MUST ALWAYS STAY IN THE SAME LAYOUT\r\n    bool private stopped;\r\n    address payable public owner;\r\n    UniSwapAddLiquityV2_General public UniSwapAddLiquityV2_GeneralAddress;\r\n    address public WBTC_TOKEN_ADDRESS;\r\n\r\n    // circuit breaker modifiers\r\n    modifier stopInEmergency {\r\n        if (stopped) \r\n            {revert(\"Temporarily Paused\");} \r\n        else {\r\n            _;}\r\n        }\r\n    modifier onlyOwner() {\r\n        require(isOwner(), \"you are not authorised to call this function\");\r\n        _;\r\n    }\r\n    \r\n    function initialize (address _UniSwapAddLiquityV2_GeneralAddress, address _WBTC_TOKEN_ADDRESS) initializer public {\r\n        stopped = false;\r\n        owner = msg.sender;\r\n        UniSwapAddLiquityV2_GeneralAddress = UniSwapAddLiquityV2_General(_UniSwapAddLiquityV2_GeneralAddress);\r\n        WBTC_TOKEN_ADDRESS = _WBTC_TOKEN_ADDRESS;\r\n    }\r\n\r\n    // this function should be called should we ever want to change the underlying Kyber Interface Contract address\r\n    function set_UniSwapAddLiquityV2_GeneralAddress(address _new_UniSwapAddLiquityV2_GeneralAddress) public onlyOwner {\r\n        UniSwapAddLiquityV2_GeneralAddress = UniSwapAddLiquityV2_General (_new_UniSwapAddLiquityV2_GeneralAddress);\r\n    }\r\n    \r\n    // this function should be called should we ever want to change the wBTC token address\r\n    function set_new_WBTC_TOKEN_ADDRESS(address _new_WBTC_TOKEN_ADDRESS) public onlyOwner {\r\n        WBTC_TOKEN_ADDRESS = _new_WBTC_TOKEN_ADDRESS;\r\n    }\r\n    \r\n    // main function which will make the investments\r\n    function LetsInvest(address payable _towhomtoIssueAddress, uint _slippage, bool _residualInToken) public payable returns(uint) {\r\n        uint LiquidityTokens = UniSwapAddLiquityV2_GeneralAddress.LetsInvest.value(msg.value)(WBTC_TOKEN_ADDRESS, _towhomtoIssueAddress);\r\n        return (LiquidityTokens);\r\n    }\r\n\r\n    function inCaseTokengetsStuck(IERC20 _TokenAddress) onlyOwner public {\r\n        uint qty = _TokenAddress.balanceOf(address(this));\r\n        _TokenAddress.transfer(owner, qty);\r\n    }\r\n\r\n\r\n    // - fallback function let you / anyone send ETH to this wallet without the need to call any function\r\n    function() external payable {\r\n        if (msg.sender != owner) {\r\n            LetsInvest(msg.sender, 5, false);}\r\n    }\r\n    \r\n    // - to Pause the contract\r\n    function toggleContractActive() onlyOwner public {\r\n        stopped = !stopped;\r\n    }\r\n\r\n    // - to withdraw any ETH balance sitting in the contract\r\n    function withdraw() onlyOwner public{\r\n        owner.transfer(address(this).balance);\r\n    }\r\n    \r\n    // - to kill the contract\r\n    function destruct() public onlyOwner {\r\n        selfdestruct(owner);\r\n    }\r\n\r\n\r\n    /**\r\n     * @return true if `msg.sender` is the owner of the contract.\r\n     */\r\n    function isOwner() public view returns (bool) {\r\n        return msg.sender == owner;\r\n    }\r\n\r\n    /**\r\n     * @dev Transfers ownership of the contract to a new account (`newOwner`).\r\n     * Can only be called by the current owner.\r\n     */\r\n    function transferOwnership(address payable newOwner) public onlyOwner {\r\n        _transferOwnership(newOwner);\r\n    }\r\n\r\n    /**\r\n     * @dev Transfers ownership of the contract to a new account (`newOwner`).\r\n     */\r\n    function _transferOwnership(address payable newOwner) internal {\r\n        require(newOwner != address(0), \"Ownable: new owner is the zero address\");\r\n        owner = newOwner;\r\n    }\r\n\r\n}",
  "sourcePath": "contracts/UpdatedZaps/Done/Uniswap_ETH_wBTCZap.sol",
  "abi": [
    {
      "payable": true,
      "stateMutability": "payable",
      "type": "fallback"
    },
    {
      "constant": false,
      "inputs": [
        {
          "internalType": "address payable",
          "name": "_towhomtoIssueAddress",
          "type": "address"
        },
        {
          "internalType": "uint256",
          "name": "_slippage",
          "type": "uint256"
        },
        {
          "internalType": "bool",
          "name": "_residualInToken",
          "type": "bool"
        }
      ],
      "name": "LetsInvest",
      "outputs": [
        {
          "internalType": "uint256",
          "name": "",
          "type": "uint256"
        }
      ],
      "payable": true,
      "stateMutability": "payable",
      "type": "function"
    },
    {
      "constant": true,
      "inputs": [],
      "name": "UniSwapAddLiquityV2_GeneralAddress",
      "outputs": [
        {
          "internalType": "contract UniSwapAddLiquityV2_General",
          "name": "",
          "type": "address"
        }
      ],
      "payable": false,
      "stateMutability": "view",
      "type": "function"
    },
    {
      "constant": true,
      "inputs": [],
      "name": "WBTC_TOKEN_ADDRESS",
      "outputs": [
        {
          "internalType": "address",
          "name": "",
          "type": "address"
        }
      ],
      "payable": false,
      "stateMutability": "view",
      "type": "function"
    },
    {
      "constant": false,
      "inputs": [],
      "name": "destruct",
      "outputs": [],
      "payable": false,
      "stateMutability": "nonpayable",
      "type": "function"
    },
    {
      "constant": false,
      "inputs": [
        {
          "internalType": "contract IERC20",
          "name": "_TokenAddress",
          "type": "address"
        }
      ],
      "name": "inCaseTokengetsStuck",
      "outputs": [],
      "payable": false,
      "stateMutability": "nonpayable",
      "type": "function"
    },
    {
      "constant": false,
      "inputs": [
        {
          "internalType": "address",
          "name": "_UniSwapAddLiquityV2_GeneralAddress",
          "type": "address"
        },
        {
          "internalType": "address",
          "name": "_WBTC_TOKEN_ADDRESS",
          "type": "address"
        }
      ],
      "name": "initialize",
      "outputs": [],
      "payable": false,
      "stateMutability": "nonpayable",
      "type": "function"
    },
    {
      "constant": true,
      "inputs": [],
      "name": "isOwner",
      "outputs": [
        {
          "internalType": "bool",
          "name": "",
          "type": "bool"
        }
      ],
      "payable": false,
      "stateMutability": "view",
      "type": "function"
    },
    {
      "constant": true,
      "inputs": [],
      "name": "owner",
      "outputs": [
        {
          "internalType": "address payable",
          "name": "",
          "type": "address"
        }
      ],
      "payable": false,
      "stateMutability": "view",
      "type": "function"
    },
    {
      "constant": false,
      "inputs": [
        {
          "internalType": "address",
          "name": "_new_UniSwapAddLiquityV2_GeneralAddress",
          "type": "address"
        }
      ],
      "name": "set_UniSwapAddLiquityV2_GeneralAddress",
      "outputs": [],
      "payable": false,
      "stateMutability": "nonpayable",
      "type": "function"
    },
    {
      "constant": false,
      "inputs": [
        {
          "internalType": "address",
          "name": "_new_WBTC_TOKEN_ADDRESS",
          "type": "address"
        }
      ],
      "name": "set_new_WBTC_TOKEN_ADDRESS",
      "outputs": [],
      "payable": false,
      "stateMutability": "nonpayable",
      "type": "function"
    },
    {
      "constant": false,
      "inputs": [],
      "name": "toggleContractActive",
      "outputs": [],
      "payable": false,
      "stateMutability": "nonpayable",
      "type": "function"
    },
    {
      "constant": false,
      "inputs": [
        {
          "internalType": "address payable",
          "name": "newOwner",
          "type": "address"
        }
      ],
      "name": "transferOwnership",
      "outputs": [],
      "payable": false,
      "stateMutability": "nonpayable",
      "type": "function"
    },
    {
      "constant": false,
      "inputs": [],
      "name": "withdraw",
      "outputs": [],
      "payable": false,
      "stateMutability": "nonpayable",
      "type": "function"
    }
  ],
  "bytecode": "0x608060405234801561001057600080fd5b506109a6806100206000396000f3fe6080604052600436106100d25760003560e01c8063551196d51161007f5780639313b1f9116100595780639313b1f914610249578063c82733801461027c578063d372ddbc146102c2578063f2fde38b146102d7576100d2565b8063551196d5146101d85780638da5cb5b1461020b5780638f32d59b14610220576100d2565b80633ccfd60b116100b05780633ccfd60b1461015757806341a0622c1461016c578063485cc9551461019d576100d2565b80630fadcb48146100fa5780631385d24c1461012d5780632b68b9c614610142575b60335461010090046001600160a01b031633146100f8576100f6336005600061030a565b505b005b34801561010657600080fd5b506100f86004803603602081101561011d57600080fd5b50356001600160a01b031661039e565b34801561013957600080fd5b506100f8610403565b34801561014e57600080fd5b506100f861045a565b34801561016357600080fd5b506100f86104b0565b34801561017857600080fd5b50610181610537565b604080516001600160a01b039092168252519081900360200190f35b3480156101a957600080fd5b506100f8600480360360408110156101c057600080fd5b506001600160a01b0381358116916020013516610546565b3480156101e457600080fd5b506100f8600480360360208110156101fb57600080fd5b50356001600160a01b0316610640565b34801561021757600080fd5b50610181610787565b34801561022c57600080fd5b5061023561079b565b604080519115158252519081900360200190f35b34801561025557600080fd5b506100f86004803603602081101561026c57600080fd5b50356001600160a01b03166107b1565b6102b06004803603606081101561029257600080fd5b506001600160a01b038135169060208101359060400135151561030a565b60408051918252519081900360200190f35b3480156102ce57600080fd5b50610181610816565b3480156102e357600080fd5b506100f8600480360360208110156102fa57600080fd5b50356001600160a01b0316610825565b60345460355460408051633a2a66cf60e01b81526001600160a01b0392831660048201528683166024820152905160009384931691633a2a66cf91349160448082019260209290919082900301818588803b15801561036857600080fd5b505af115801561037c573d6000803e3d6000fd5b50505050506040513d602081101561039357600080fd5b505195945050505050565b6103a661079b565b6103e15760405162461bcd60e51b815260040180806020018281038252602c815260200180610918602c913960400191505060405180910390fd5b603580546001600160a01b0319166001600160a01b0392909216919091179055565b61040b61079b565b6104465760405162461bcd60e51b815260040180806020018281038252602c815260200180610918602c913960400191505060405180910390fd5b6033805460ff19811660ff90911615179055565b61046261079b565b61049d5760405162461bcd60e51b815260040180806020018281038252602c815260200180610918602c913960400191505060405180910390fd5b60335461010090046001600160a01b0316ff5b6104b861079b565b6104f35760405162461bcd60e51b815260040180806020018281038252602c815260200180610918602c913960400191505060405180910390fd5b6033546040516001600160a01b036101009092049190911690303180156108fc02916000818181858888f19350505050158015610534573d6000803e3d6000fd5b50565b6034546001600160a01b031681565b600054610100900460ff168061055f575061055f610871565b8061056d575060005460ff16155b6105a85760405162461bcd60e51b815260040180806020018281038252602e815260200180610944602e913960400191505060405180910390fd5b600054610100900460ff161580156105d3576000805460ff1961ff0019909116610100171660011790555b60338054336101000274ffffffffffffffffffffffffffffffffffffffffff19909116179055603480546001600160a01b038581166001600160a01b0319928316179092556035805492851692909116919091179055801561063b576000805461ff00191690555b505050565b61064861079b565b6106835760405162461bcd60e51b815260040180806020018281038252602c815260200180610918602c913960400191505060405180910390fd5b604080516370a0823160e01b815230600482015290516000916001600160a01b038416916370a0823191602480820192602092909190829003018186803b1580156106cd57600080fd5b505afa1580156106e1573d6000803e3d6000fd5b505050506040513d60208110156106f757600080fd5b50516033546040805163a9059cbb60e01b81526101009092046001600160a01b03908116600484015260248301849052905192935084169163a9059cbb916044808201926020929091908290030181600087803b15801561075757600080fd5b505af115801561076b573d6000803e3d6000fd5b505050506040513d602081101561078157600080fd5b50505050565b60335461010090046001600160a01b031681565b60335461010090046001600160a01b0316331490565b6107b961079b565b6107f45760405162461bcd60e51b815260040180806020018281038252602c815260200180610918602c913960400191505060405180910390fd5b603480546001600160a01b0319166001600160a01b0392909216919091179055565b6035546001600160a01b031681565b61082d61079b565b6108685760405162461bcd60e51b815260040180806020018281038252602c815260200180610918602c913960400191505060405180910390fd5b61053481610877565b303b1590565b6001600160a01b0381166108bc5760405162461bcd60e51b81526004018080602001828103825260268152602001806108f26026913960400191505060405180910390fd5b603380546001600160a01b039092166101000274ffffffffffffffffffffffffffffffffffffffff001990921691909117905556fe4f776e61626c653a206e6577206f776e657220697320746865207a65726f2061646472657373796f7520617265206e6f7420617574686f726973656420746f2063616c6c20746869732066756e6374696f6e436f6e747261637420696e7374616e63652068617320616c7265616479206265656e20696e697469616c697a6564a265627a7a7231582006779853874f3113b075e4072f23d5065cc849401286af251910510079a145e864736f6c634300050d0032",
  "compiler": {
    "name": "solc",
    "version": "0.5.13+commit.5b0b510c.Emscripten.clang",
    "optimizer": {
      "enabled": true,
      "runs": 500
    },
    "evmVersion": "petersburg"
  }
}