{
  "fileName": "UniSwapRemoveLiquidityGeneral_v1.sol",
  "contractName": "UniSwapRemoveLiquityGeneral_v1",
  "source": "\n// File: @openzeppelin/upgrades/contracts/Initializable.sol\n\npragma solidity >=0.4.24 <0.6.0;\n\n\n/**\n * @title Initializable\n *\n * @dev Helper contract to support initializer functions. To use it, replace\n * the constructor with a function that has the `initializer` modifier.\n * WARNING: Unlike constructors, initializer functions must be manually\n * invoked. This applies both to deploying an Initializable contract, as well\n * as extending an Initializable contract via inheritance.\n * WARNING: When used with inheritance, manual care must be taken to not invoke\n * a parent initializer twice, or ensure that all initializers are idempotent,\n * because this is not dealt with automatically as with constructors.\n */\ncontract Initializable {\n\n  /**\n   * @dev Indicates that the contract has been initialized.\n   */\n  bool private initialized;\n\n  /**\n   * @dev Indicates that the contract is in the process of being initialized.\n   */\n  bool private initializing;\n\n  /**\n   * @dev Modifier to use in the initializer function of a contract.\n   */\n  modifier initializer() {\n    require(initializing || isConstructor() || !initialized, \"Contract instance has already been initialized\");\n\n    bool isTopLevelCall = !initializing;\n    if (isTopLevelCall) {\n      initializing = true;\n      initialized = true;\n    }\n\n    _;\n\n    if (isTopLevelCall) {\n      initializing = false;\n    }\n  }\n\n  /// @dev Returns true if and only if the function is running in the constructor\n  function isConstructor() private view returns (bool) {\n    // extcodesize checks the size of the code stored in an address, and\n    // address returns the current address. Since the code is still not\n    // deployed when running a constructor, any checks on its code size will\n    // yield zero, making it an effective way to detect if a contract is\n    // under construction or not.\n    uint256 cs;\n    assembly { cs := extcodesize(address) }\n    return cs == 0;\n  }\n\n  // Reserved storage space to allow for layout changes in the future.\n  uint256[50] private ______gap;\n}\n\n// File: @openzeppelin/contracts-ethereum-package/contracts/math/SafeMath.sol\n\npragma solidity ^0.5.0;\n\n/**\n * @dev Wrappers over Solidity's arithmetic operations with added overflow\n * checks.\n *\n * Arithmetic operations in Solidity wrap on overflow. This can easily result\n * in bugs, because programmers usually assume that an overflow raises an\n * error, which is the standard behavior in high level programming languages.\n * `SafeMath` restores this intuition by reverting the transaction when an\n * operation overflows.\n *\n * Using this library instead of the unchecked operations eliminates an entire\n * class of bugs, so it's recommended to use it always.\n */\nlibrary SafeMath {\n    /**\n     * @dev Returns the addition of two unsigned integers, reverting on\n     * overflow.\n     *\n     * Counterpart to Solidity's `+` operator.\n     *\n     * Requirements:\n     * - Addition cannot overflow.\n     */\n    function add(uint256 a, uint256 b) internal pure returns (uint256) {\n        uint256 c = a + b;\n        require(c >= a, \"SafeMath: addition overflow\");\n\n        return c;\n    }\n\n    /**\n     * @dev Returns the subtraction of two unsigned integers, reverting on\n     * overflow (when the result is negative).\n     *\n     * Counterpart to Solidity's `-` operator.\n     *\n     * Requirements:\n     * - Subtraction cannot overflow.\n     */\n    function sub(uint256 a, uint256 b) internal pure returns (uint256) {\n        return sub(a, b, \"SafeMath: subtraction overflow\");\n    }\n\n    /**\n     * @dev Returns the subtraction of two unsigned integers, reverting with custom message on\n     * overflow (when the result is negative).\n     *\n     * Counterpart to Solidity's `-` operator.\n     *\n     * Requirements:\n     * - Subtraction cannot overflow.\n     *\n     * _Available since v2.4.0._\n     */\n    function sub(uint256 a, uint256 b, string memory errorMessage) internal pure returns (uint256) {\n        require(b <= a, errorMessage);\n        uint256 c = a - b;\n\n        return c;\n    }\n\n    /**\n     * @dev Returns the multiplication of two unsigned integers, reverting on\n     * overflow.\n     *\n     * Counterpart to Solidity's `*` operator.\n     *\n     * Requirements:\n     * - Multiplication cannot overflow.\n     */\n    function mul(uint256 a, uint256 b) internal pure returns (uint256) {\n        // Gas optimization: this is cheaper than requiring 'a' not being zero, but the\n        // benefit is lost if 'b' is also tested.\n        // See: https://github.com/OpenZeppelin/openzeppelin-contracts/pull/522\n        if (a == 0) {\n            return 0;\n        }\n\n        uint256 c = a * b;\n        require(c / a == b, \"SafeMath: multiplication overflow\");\n\n        return c;\n    }\n\n    /**\n     * @dev Returns the integer division of two unsigned integers. Reverts on\n     * division by zero. The result is rounded towards zero.\n     *\n     * Counterpart to Solidity's `/` operator. Note: this function uses a\n     * `revert` opcode (which leaves remaining gas untouched) while Solidity\n     * uses an invalid opcode to revert (consuming all remaining gas).\n     *\n     * Requirements:\n     * - The divisor cannot be zero.\n     */\n    function div(uint256 a, uint256 b) internal pure returns (uint256) {\n        return div(a, b, \"SafeMath: division by zero\");\n    }\n\n    /**\n     * @dev Returns the integer division of two unsigned integers. Reverts with custom message on\n     * division by zero. The result is rounded towards zero.\n     *\n     * Counterpart to Solidity's `/` operator. Note: this function uses a\n     * `revert` opcode (which leaves remaining gas untouched) while Solidity\n     * uses an invalid opcode to revert (consuming all remaining gas).\n     *\n     * Requirements:\n     * - The divisor cannot be zero.\n     *\n     * _Available since v2.4.0._\n     */\n    function div(uint256 a, uint256 b, string memory errorMessage) internal pure returns (uint256) {\n        // Solidity only automatically asserts when dividing by 0\n        require(b > 0, errorMessage);\n        uint256 c = a / b;\n        // assert(a == b * c + a % b); // There is no case in which this doesn't hold\n\n        return c;\n    }\n\n    /**\n     * @dev Returns the remainder of dividing two unsigned integers. (unsigned integer modulo),\n     * Reverts when dividing by zero.\n     *\n     * Counterpart to Solidity's `%` operator. This function uses a `revert`\n     * opcode (which leaves remaining gas untouched) while Solidity uses an\n     * invalid opcode to revert (consuming all remaining gas).\n     *\n     * Requirements:\n     * - The divisor cannot be zero.\n     */\n    function mod(uint256 a, uint256 b) internal pure returns (uint256) {\n        return mod(a, b, \"SafeMath: modulo by zero\");\n    }\n\n    /**\n     * @dev Returns the remainder of dividing two unsigned integers. (unsigned integer modulo),\n     * Reverts with custom message when dividing by zero.\n     *\n     * Counterpart to Solidity's `%` operator. This function uses a `revert`\n     * opcode (which leaves remaining gas untouched) while Solidity uses an\n     * invalid opcode to revert (consuming all remaining gas).\n     *\n     * Requirements:\n     * - The divisor cannot be zero.\n     *\n     * _Available since v2.4.0._\n     */\n    function mod(uint256 a, uint256 b, string memory errorMessage) internal pure returns (uint256) {\n        require(b != 0, errorMessage);\n        return a % b;\n    }\n}\n\n// File: @openzeppelin/contracts-ethereum-package/contracts/token/ERC20/IERC20.sol\n\npragma solidity ^0.5.0;\n\n/**\n * @dev Interface of the ERC20 standard as defined in the EIP. Does not include\n * the optional functions; to access them see {ERC20Detailed}.\n */\ninterface IERC20 {\n    /**\n     * @dev Returns the amount of tokens in existence.\n     */\n    function totalSupply() external view returns (uint256);\n\n    /**\n     * @dev Returns the amount of tokens owned by `account`.\n     */\n    function balanceOf(address account) external view returns (uint256);\n\n    /**\n     * @dev Moves `amount` tokens from the caller's account to `recipient`.\n     *\n     * Returns a boolean value indicating whether the operation succeeded.\n     *\n     * Emits a {Transfer} event.\n     */\n    function transfer(address recipient, uint256 amount) external returns (bool);\n\n    /**\n     * @dev Returns the remaining number of tokens that `spender` will be\n     * allowed to spend on behalf of `owner` through {transferFrom}. This is\n     * zero by default.\n     *\n     * This value changes when {approve} or {transferFrom} are called.\n     */\n    function allowance(address owner, address spender) external view returns (uint256);\n\n    /**\n     * @dev Sets `amount` as the allowance of `spender` over the caller's tokens.\n     *\n     * Returns a boolean value indicating whether the operation succeeded.\n     *\n     * IMPORTANT: Beware that changing an allowance with this method brings the risk\n     * that someone may use both the old and the new allowance by unfortunate\n     * transaction ordering. One possible solution to mitigate this race\n     * condition is to first reduce the spender's allowance to 0 and set the\n     * desired value afterwards:\n     * https://github.com/ethereum/EIPs/issues/20#issuecomment-263524729\n     *\n     * Emits an {Approval} event.\n     */\n    function approve(address spender, uint256 amount) external returns (bool);\n\n    /**\n     * @dev Moves `amount` tokens from `sender` to `recipient` using the\n     * allowance mechanism. `amount` is then deducted from the caller's\n     * allowance.\n     *\n     * Returns a boolean value indicating whether the operation succeeded.\n     *\n     * Emits a {Transfer} event.\n     */\n    function transferFrom(address sender, address recipient, uint256 amount) external returns (bool);\n\n    /**\n     * @dev Emitted when `value` tokens are moved from one account (`from`) to\n     * another (`to`).\n     *\n     * Note that `value` may be zero.\n     */\n    event Transfer(address indexed from, address indexed to, uint256 value);\n\n    /**\n     * @dev Emitted when the allowance of a `spender` for an `owner` is set by\n     * a call to {approve}. `value` is the new allowance.\n     */\n    event Approval(address indexed owner, address indexed spender, uint256 value);\n}\n\n// File: @openzeppelin/contracts-ethereum-package/contracts/utils/ReentrancyGuard.sol\n\npragma solidity ^0.5.0;\n\n\n/**\n * @dev Contract module that helps prevent reentrant calls to a function.\n *\n * Inheriting from `ReentrancyGuard` will make the {nonReentrant} modifier\n * available, which can be applied to functions to make sure there are no nested\n * (reentrant) calls to them.\n *\n * Note that because there is a single `nonReentrant` guard, functions marked as\n * `nonReentrant` may not call one another. This can be worked around by making\n * those functions `private`, and then adding `external` `nonReentrant` entry\n * points to them.\n */\ncontract ReentrancyGuard is Initializable {\n    // counter to allow mutex lock with only one SSTORE operation\n    uint256 private _guardCounter;\n\n    function initialize() public initializer {\n        // The counter starts at one to prevent changing it from zero to a non-zero\n        // value, which is a more expensive operation.\n        _guardCounter = 1;\n    }\n\n    /**\n     * @dev Prevents a contract from calling itself, directly or indirectly.\n     * Calling a `nonReentrant` function from another `nonReentrant`\n     * function is not supported. It is possible to prevent this from happening\n     * by making the `nonReentrant` function external, and make it call a\n     * `private` function that does the actual work.\n     */\n    modifier nonReentrant() {\n        _guardCounter += 1;\n        uint256 localCounter = _guardCounter;\n        _;\n        require(localCounter == _guardCounter, \"ReentrancyGuard: reentrant call\");\n    }\n\n    uint256[50] private ______gap;\n}\n\n// File: contracts/UpdatedZaps/WIP/UniSwapRemoveLiquidityGeneral_v1.sol\n\n// Copyright (C) 2019, 2020 dipeshsukhani, nodarjonashi, toshsharma, suhailg\n\n// This program is free software: you can redistribute it and/or modify\n// it under the terms of the GNU Affero General Public License as published by\n// the Free Software Foundation, either version 2 of the License, or\n// (at your option) any later version.\n//\n// This program is distributed in the hope that it will be useful,\n// but WITHOUT ANY WARRANTY; without even the implied warranty of\n// MERCHANTABILITY or FITNESS FOR A PARTICULAR PURPOSE.  See the\n// GNU Affero General Public License for more details.\n//\n// Visit <https://www.gnu.org/licenses/>for a copy of the GNU Affero General Public License\n\n/**\n * WARNING: This is an upgradable contract. Be careful not to disrupt\n * the existing storage layout when making upgrades to the contract. In particular,\n * existing fields should not be removed and should not have their types changed.\n * The order of field declarations must not be changed, and new fields must be added\n * below all existing declarations.\n *\n * The base contracts and the order in which they are declared must not be changed.\n * New fields must not be added to base contracts (unless the base contract has\n * reserved placeholder fields for this purpose).\n *\n * See https://docs.zeppelinos.org/docs/writing_contracts.html for more info.\n*/\n\npragma solidity ^0.5.0;\n\n\n\n\n\n///@author DeFiZap\n///@notice this contract implements one click conversion from Unipool liquidity tokens to ETH\n\ninterface IuniswapFactory_UniSwapRemoveLiquityGeneral_v1 {\n    function getExchange(address token)\n        external\n        view\n        returns (address exchange);\n}\n\ninterface IuniswapExchange_UniSwapRemoveLiquityGeneral_v1 {\n    // for removing liquidity (returns ETH removed, ERC20 Removed)\n    function removeLiquidity(\n        uint256 amount,\n        uint256 min_eth,\n        uint256 min_tokens,\n        uint256 deadline\n    ) external returns (uint256, uint256);\n\n    // to convert ERC20 to ETH and transfer\n    function getTokenToEthInputPrice(uint256 tokens_sold)\n        external\n        view\n        returns (uint256 eth_bought);\n    function tokenToEthTransferInput(\n        uint256 tokens_sold,\n        uint256 min_eth,\n        uint256 deadline,\n        address recipient\n    ) external returns (uint256 eth_bought);\n    /// -- optional\n    function tokenToEthSwapInput(\n        uint256 tokens_sold,\n        uint256 min_eth,\n        uint256 deadline\n    ) external returns (uint256 eth_bought);\n\n    // to convert ETH to ERC20 and transfer\n    function getEthToTokenInputPrice(uint256 eth_sold)\n        external\n        view\n        returns (uint256 tokens_bought);\n    function ethToTokenTransferInput(\n        uint256 min_tokens,\n        uint256 deadline,\n        address recipient\n    ) external payable returns (uint256 tokens_bought);\n    /// -- optional\n    function ethToTokenSwapInput(uint256 min_tokens, uint256 deadline)\n        external\n        payable\n        returns (uint256 tokens_bought);\n\n    // converting ERC20 to ERC20 and transfer\n    function tokenToTokenTransferInput(\n        uint256 tokens_sold,\n        uint256 min_tokens_bought,\n        uint256 min_eth_bought,\n        uint256 deadline,\n        address recipient,\n        address token_addr\n    ) external returns (uint256 tokens_bought);\n\n    // misc\n    function allowance(address _owner, address _spender)\n        external\n        view\n        returns (uint256);\n    function balanceOf(address _owner) external view returns (uint256);\n    function transfer(address _to, uint256 _value) external returns (bool);\n    function transferFrom(address from, address to, uint256 tokens)\n        external\n        returns (bool success);\n\n}\n\ncontract UniSwapRemoveLiquityGeneral_v1 is Initializable, ReentrancyGuard {\n    using SafeMath for uint256;\n\n    // state variables\n\n    // - THESE MUST ALWAYS STAY IN THE SAME LAYOUT\n    bool private stopped;\n    address payable public owner;\n    IuniswapFactory_UniSwapRemoveLiquityGeneral_v1 public UniSwapFactoryAddress;\n    uint16 public goodwill;\n    address public dzgoodwillAddress;\n    mapping(address => uint256) private userBalance;\n    IERC20 public DaiTokenAddress;\n\n    // events\n    event details(\n        IuniswapExchange_UniSwapRemoveLiquityGeneral_v1 indexed ExchangeAddress,\n        IERC20 TokenAdddress,\n        address _user,\n        uint256 LiqRed,\n        uint256 ethRec,\n        uint256 tokenRec,\n        string indexed func\n    );\n\n    // circuit breaker modifiers\n    modifier stopInEmergency {\n        if (stopped) {\n            revert(\"Temporarily Paused\");\n        } else {\n            _;\n        }\n    }\n    modifier onlyOwner() {\n        require(isOwner(), \"you are not authorised to call this function\");\n        _;\n    }\n\n    function initialize(\n        address _UniSwapFactoryAddress,\n        uint16 _goodwill,\n        address _dzgoodwillAddress,\n        address _DaiTokenAddress\n    ) public initializer {\n        ReentrancyGuard.initialize();\n        stopped = false;\n        owner = msg.sender;\n        UniSwapFactoryAddress = IuniswapFactory_UniSwapRemoveLiquityGeneral_v1(\n            _UniSwapFactoryAddress\n        );\n        goodwill = _goodwill;\n        dzgoodwillAddress = _dzgoodwillAddress;\n        DaiTokenAddress = IERC20(_DaiTokenAddress);\n    }\n\n    function set_new_UniSwapFactoryAddress(address _new_UniSwapFactoryAddress)\n        public\n        onlyOwner\n    {\n        UniSwapFactoryAddress = IuniswapFactory_UniSwapRemoveLiquityGeneral_v1(\n            _new_UniSwapFactoryAddress\n        );\n\n    }\n\n    function set_new_goodwill(uint16 _new_goodwill) public onlyOwner {\n        require(\n            _new_goodwill > 0 && _new_goodwill < 10000,\n            \"GoodWill Value not allowed\"\n        );\n        goodwill = _new_goodwill;\n\n    }\n\n    function set_new_dzgoodwillAddress(address _new_dzgoodwillAddress)\n        public\n        onlyOwner\n    {\n        dzgoodwillAddress = _new_dzgoodwillAddress;\n    }\n\n    function LetsWithdraw_onlyETH(\n        address _TokenContractAddress,\n        uint256 LiquidityTokenSold\n    ) public payable stopInEmergency nonReentrant returns (bool) {\n        IuniswapExchange_UniSwapRemoveLiquityGeneral_v1 UniSwapExchangeContractAddress = IuniswapExchange_UniSwapRemoveLiquityGeneral_v1(\n            UniSwapFactoryAddress.getExchange(_TokenContractAddress)\n        );\n        uint256 maxtokensPermitted = UniSwapExchangeContractAddress.allowance(\n            msg.sender,\n            address(this)\n        );\n        require(\n            LiquidityTokenSold <= maxtokensPermitted,\n            \"Permission to DeFiZap is less than requested\"\n        );\n        uint256 goodwillPortion = SafeMath.div(\n            SafeMath.mul(LiquidityTokenSold, goodwill),\n            10000\n        );\n        require(\n            UniSwapExchangeContractAddress.transferFrom(\n                msg.sender,\n                address(this),\n                SafeMath.sub(LiquidityTokenSold, goodwillPortion)\n            ),\n            \"error2:defizap\"\n        );\n        require(\n            UniSwapExchangeContractAddress.transferFrom(\n                msg.sender,\n                dzgoodwillAddress,\n                goodwillPortion\n            ),\n            \"error3:defizap\"\n        );\n\n        (uint256 ethReceived, uint256 erc20received) = UniSwapExchangeContractAddress\n            .removeLiquidity(\n            SafeMath.sub(LiquidityTokenSold, goodwillPortion),\n            1,\n            1,\n            SafeMath.add(now, 1800)\n        );\n\n        uint256 eth_againstERC20 = UniSwapExchangeContractAddress\n            .getTokenToEthInputPrice(erc20received);\n        IERC20(_TokenContractAddress).approve(\n            address(UniSwapExchangeContractAddress),\n            erc20received\n        );\n        UniSwapExchangeContractAddress.tokenToEthTransferInput(\n            erc20received,\n            SafeMath.div(SafeMath.mul(eth_againstERC20, 98), 100),\n            SafeMath.add(now, 1800),\n            msg.sender\n        );\n        userBalance[msg.sender] = ethReceived;\n        require(send_out_eth(msg.sender), \"issue in transfer ETH\");\n        emit details(\n            UniSwapExchangeContractAddress,\n            IERC20(_TokenContractAddress),\n            msg.sender,\n            SafeMath.sub(LiquidityTokenSold, goodwillPortion),\n            ethReceived,\n            erc20received,\n            \"onlyETH\"\n        );\n        return true;\n    }\n\n    function LetsWithdraw_onlyERC(\n        address _TokenContractAddress,\n        uint256 LiquidityTokenSold,\n        bool _returnInDai\n    ) public payable stopInEmergency nonReentrant returns (bool) {\n        IuniswapExchange_UniSwapRemoveLiquityGeneral_v1 UniSwapExchangeContractAddress = IuniswapExchange_UniSwapRemoveLiquityGeneral_v1(\n            UniSwapFactoryAddress.getExchange(_TokenContractAddress)\n        );\n        IuniswapExchange_UniSwapRemoveLiquityGeneral_v1 DAIUniSwapExchangeContractAddress = IuniswapExchange_UniSwapRemoveLiquityGeneral_v1(\n            UniSwapFactoryAddress.getExchange(address(DaiTokenAddress))\n        );\n        uint256 maxtokensPermitted = UniSwapExchangeContractAddress.allowance(\n            msg.sender,\n            address(this)\n        );\n        require(\n            LiquidityTokenSold <= maxtokensPermitted,\n            \"Permission to DeFiZap is less than requested\"\n        );\n        uint256 goodwillPortion = SafeMath.div(\n            SafeMath.mul(LiquidityTokenSold, goodwill),\n            10000\n        );\n        require(\n            UniSwapExchangeContractAddress.transferFrom(\n                msg.sender,\n                address(this),\n                SafeMath.sub(LiquidityTokenSold, goodwillPortion)\n            ),\n            \"error2:defizap\"\n        );\n        require(\n            UniSwapExchangeContractAddress.transferFrom(\n                msg.sender,\n                dzgoodwillAddress,\n                goodwillPortion\n            ),\n            \"error3:defizap\"\n        );\n        (uint256 ethReceived, uint256 erc20received) = UniSwapExchangeContractAddress\n            .removeLiquidity(\n            SafeMath.sub(LiquidityTokenSold, goodwillPortion),\n            1,\n            1,\n            SafeMath.add(now, 1800)\n        );\n        if (_returnInDai) {\n            require(\n                _TokenContractAddress != address(DaiTokenAddress),\n                \"error5:defizap\"\n            );\n            DAIUniSwapExchangeContractAddress.ethToTokenTransferInput.value(\n                ethReceived\n            )(1, SafeMath.add(now, 1800), msg.sender);\n            IERC20(_TokenContractAddress).approve(\n                address(UniSwapExchangeContractAddress),\n                erc20received\n            );\n            UniSwapExchangeContractAddress.tokenToTokenTransferInput(\n                erc20received,\n                1,\n                1,\n                SafeMath.add(now, 1800),\n                msg.sender,\n                address(DaiTokenAddress)\n            );\n            emit details(\n                UniSwapExchangeContractAddress,\n                IERC20(_TokenContractAddress),\n                msg.sender,\n                SafeMath.sub(LiquidityTokenSold, goodwillPortion),\n                ethReceived,\n                erc20received,\n                \"onlyDAI\"\n            );\n        } else {\n            UniSwapExchangeContractAddress.ethToTokenTransferInput.value(\n                ethReceived\n            )(1, SafeMath.add(now, 1800), msg.sender);\n            IERC20(_TokenContractAddress).transfer(msg.sender, erc20received);\n            emit details(\n                UniSwapExchangeContractAddress,\n                IERC20(_TokenContractAddress),\n                msg.sender,\n                SafeMath.sub(LiquidityTokenSold, goodwillPortion),\n                ethReceived,\n                erc20received,\n                \"onlyERC\"\n            );\n        }\n\n        return true;\n    }\n\n    function send_out_eth(address _towhomtosendtheETH) internal returns (bool) {\n        require(userBalance[_towhomtosendtheETH] > 0, \"error4:DefiZap\");\n        uint256 amount = userBalance[_towhomtosendtheETH];\n        userBalance[_towhomtosendtheETH] = 0;\n        (bool success, ) = _towhomtosendtheETH.call.value(amount)(\"\");\n        require(success, \"error5:DefiZap\");\n        return true;\n    }\n\n    // - fallback function let you / anyone send ETH to this wallet without the need to call any function\n    function() external payable {}\n\n    // Should there be a need to withdraw any other ERC20 token\n    function withdrawERC20Token(IERC20 _targetContractAddress)\n        public\n        onlyOwner\n    {\n        uint256 OtherTokenBalance = _targetContractAddress.balanceOf(\n            address(this)\n        );\n        _targetContractAddress.transfer(owner, OtherTokenBalance);\n    }\n\n    // - to Pause the contract\n    function toggleContractActive() public onlyOwner {\n        stopped = !stopped;\n    }\n\n    // - to withdraw any ETH balance sitting in the contract\n    function withdraw() public onlyOwner {\n        owner.transfer(address(this).balance);\n    }\n\n    // - to kill the contract\n    function destruct() public onlyOwner {\n        selfdestruct(owner);\n    }\n\n    /**\n     * @return true if `msg.sender` is the owner of the contract.\n     */\n    function isOwner() public view returns (bool) {\n        return msg.sender == owner;\n    }\n\n    /**\n     * @dev Transfers ownership of the contract to a new account (`newOwner`).\n     * Can only be called by the current owner.\n     */\n    function transferOwnership(address payable newOwner) public onlyOwner {\n        _transferOwnership(newOwner);\n    }\n\n    /**\n     * @dev Transfers ownership of the contract to a new account (`newOwner`).\n     */\n    function _transferOwnership(address payable newOwner) internal {\n        require(\n            newOwner != address(0),\n            \"Ownable: new owner is the zero address\"\n        );\n        owner = newOwner;\n    }\n\n}\n",
  "sourcePath": "contracts/Not_upgradable_done/UniSwapRemoveLiquidityGeneral_v1.sol",
  "abi": [
    {
      "anonymous": false,
      "inputs": [
        {
          "indexed": true,
          "internalType": "contract IuniswapExchange_UniSwapRemoveLiquityGeneral_v1",
          "name": "ExchangeAddress",
          "type": "address"
        },
        {
          "indexed": false,
          "internalType": "contract IERC20",
          "name": "TokenAdddress",
          "type": "address"
        },
        {
          "indexed": false,
          "internalType": "address",
          "name": "_user",
          "type": "address"
        },
        {
          "indexed": false,
          "internalType": "uint256",
          "name": "LiqRed",
          "type": "uint256"
        },
        {
          "indexed": false,
          "internalType": "uint256",
          "name": "ethRec",
          "type": "uint256"
        },
        {
          "indexed": false,
          "internalType": "uint256",
          "name": "tokenRec",
          "type": "uint256"
        },
        {
          "indexed": true,
          "internalType": "string",
          "name": "func",
          "type": "string"
        }
      ],
      "name": "details",
      "type": "event"
    },
    {
      "payable": true,
      "stateMutability": "payable",
      "type": "fallback"
    },
    {
      "constant": true,
      "inputs": [],
      "name": "DaiTokenAddress",
      "outputs": [
        {
          "internalType": "contract IERC20",
          "name": "",
          "type": "address"
        }
      ],
      "payable": false,
      "stateMutability": "view",
      "type": "function"
    },
    {
      "constant": false,
      "inputs": [
        {
          "internalType": "address",
          "name": "_TokenContractAddress",
          "type": "address"
        },
        {
          "internalType": "uint256",
          "name": "LiquidityTokenSold",
          "type": "uint256"
        },
        {
          "internalType": "bool",
          "name": "_returnInDai",
          "type": "bool"
        }
      ],
      "name": "LetsWithdraw_onlyERC",
      "outputs": [
        {
          "internalType": "bool",
          "name": "",
          "type": "bool"
        }
      ],
      "payable": true,
      "stateMutability": "payable",
      "type": "function"
    },
    {
      "constant": false,
      "inputs": [
        {
          "internalType": "address",
          "name": "_TokenContractAddress",
          "type": "address"
        },
        {
          "internalType": "uint256",
          "name": "LiquidityTokenSold",
          "type": "uint256"
        }
      ],
      "name": "LetsWithdraw_onlyETH",
      "outputs": [
        {
          "internalType": "bool",
          "name": "",
          "type": "bool"
        }
      ],
      "payable": true,
      "stateMutability": "payable",
      "type": "function"
    },
    {
      "constant": true,
      "inputs": [],
      "name": "UniSwapFactoryAddress",
      "outputs": [
        {
          "internalType": "contract IuniswapFactory_UniSwapRemoveLiquityGeneral_v1",
          "name": "",
          "type": "address"
        }
      ],
      "payable": false,
      "stateMutability": "view",
      "type": "function"
    },
    {
      "constant": false,
      "inputs": [],
      "name": "destruct",
      "outputs": [],
      "payable": false,
      "stateMutability": "nonpayable",
      "type": "function"
    },
    {
      "constant": true,
      "inputs": [],
      "name": "dzgoodwillAddress",
      "outputs": [
        {
          "internalType": "address",
          "name": "",
          "type": "address"
        }
      ],
      "payable": false,
      "stateMutability": "view",
      "type": "function"
    },
    {
      "constant": true,
      "inputs": [],
      "name": "goodwill",
      "outputs": [
        {
          "internalType": "uint16",
          "name": "",
          "type": "uint16"
        }
      ],
      "payable": false,
      "stateMutability": "view",
      "type": "function"
    },
    {
      "constant": false,
      "inputs": [
        {
          "internalType": "address",
          "name": "_UniSwapFactoryAddress",
          "type": "address"
        },
        {
          "internalType": "uint16",
          "name": "_goodwill",
          "type": "uint16"
        },
        {
          "internalType": "address",
          "name": "_dzgoodwillAddress",
          "type": "address"
        },
        {
          "internalType": "address",
          "name": "_DaiTokenAddress",
          "type": "address"
        }
      ],
      "name": "initialize",
      "outputs": [],
      "payable": false,
      "stateMutability": "nonpayable",
      "type": "function"
    },
    {
      "constant": false,
      "inputs": [],
      "name": "initialize",
      "outputs": [],
      "payable": false,
      "stateMutability": "nonpayable",
      "type": "function"
    },
    {
      "constant": true,
      "inputs": [],
      "name": "isOwner",
      "outputs": [
        {
          "internalType": "bool",
          "name": "",
          "type": "bool"
        }
      ],
      "payable": false,
      "stateMutability": "view",
      "type": "function"
    },
    {
      "constant": true,
      "inputs": [],
      "name": "owner",
      "outputs": [
        {
          "internalType": "address payable",
          "name": "",
          "type": "address"
        }
      ],
      "payable": false,
      "stateMutability": "view",
      "type": "function"
    },
    {
      "constant": false,
      "inputs": [
        {
          "internalType": "address",
          "name": "_new_UniSwapFactoryAddress",
          "type": "address"
        }
      ],
      "name": "set_new_UniSwapFactoryAddress",
      "outputs": [],
      "payable": false,
      "stateMutability": "nonpayable",
      "type": "function"
    },
    {
      "constant": false,
      "inputs": [
        {
          "internalType": "address",
          "name": "_new_dzgoodwillAddress",
          "type": "address"
        }
      ],
      "name": "set_new_dzgoodwillAddress",
      "outputs": [],
      "payable": false,
      "stateMutability": "nonpayable",
      "type": "function"
    },
    {
      "constant": false,
      "inputs": [
        {
          "internalType": "uint16",
          "name": "_new_goodwill",
          "type": "uint16"
        }
      ],
      "name": "set_new_goodwill",
      "outputs": [],
      "payable": false,
      "stateMutability": "nonpayable",
      "type": "function"
    },
    {
      "constant": false,
      "inputs": [],
      "name": "toggleContractActive",
      "outputs": [],
      "payable": false,
      "stateMutability": "nonpayable",
      "type": "function"
    },
    {
      "constant": false,
      "inputs": [
        {
          "internalType": "address payable",
          "name": "newOwner",
          "type": "address"
        }
      ],
      "name": "transferOwnership",
      "outputs": [],
      "payable": false,
      "stateMutability": "nonpayable",
      "type": "function"
    },
    {
      "constant": false,
      "inputs": [],
      "name": "withdraw",
      "outputs": [],
      "payable": false,
      "stateMutability": "nonpayable",
      "type": "function"
    },
    {
      "constant": false,
      "inputs": [
        {
          "internalType": "contract IERC20",
          "name": "_targetContractAddress",
          "type": "address"
        }
      ],
      "name": "withdrawERC20Token",
      "outputs": [],
      "payable": false,
      "stateMutability": "nonpayable",
      "type": "function"
    }
  ],
  "bytecode": "0x608060405234801561001057600080fd5b50611ff2806100206000396000f3fe6080604052600436106101095760003560e01c8063849e25f411610095578063b10e1dbc11610064578063b10e1dbc146102f5578063c3a8fcb014610323578063f2fde38b14610338578063f882cbcc1461036b578063fa6723421461039f57610109565b8063849e25f4146102515780638da5cb5b146102845780638f32d59b14610299578063ae4de7fa146102c257610109565b80633ccfd60b116100dc5780633ccfd60b14610199578063525d509e146101ae5780635de0398e146101c357806367abbc82146101ef5780638129fc1c1461023c57610109565b80631385d24c1461010b5780632a0d86d9146101205780632b68b9c6146101515780633bdebbe114610166575b005b34801561011757600080fd5b506101096103cb565b34801561012c57600080fd5b50610135610422565b604080516001600160a01b039092168252519081900360200190f35b34801561015d57600080fd5b50610109610431565b34801561017257600080fd5b506101096004803603602081101561018957600080fd5b50356001600160a01b0316610487565b3480156101a557600080fd5b506101096105ce565b3480156101ba57600080fd5b50610135610655565b3480156101cf57600080fd5b506101d8610664565b6040805161ffff9092168252519081900360200190f35b3480156101fb57600080fd5b506101096004803603608081101561021257600080fd5b506001600160a01b03813581169161ffff6020820135169160408201358116916060013516610675565b34801561024857600080fd5b50610109610799565b34801561025d57600080fd5b506101096004803603602081101561027457600080fd5b50356001600160a01b031661083f565b34801561029057600080fd5b506101356108a4565b3480156102a557600080fd5b506102ae6108b8565b604080519115158252519081900360200190f35b3480156102ce57600080fd5b50610109600480360360208110156102e557600080fd5b50356001600160a01b03166108ce565b34801561030157600080fd5b506101096004803603602081101561031857600080fd5b503561ffff16610933565b34801561032f57600080fd5b50610135610a02565b34801561034457600080fd5b506101096004803603602081101561035b57600080fd5b50356001600160a01b0316610a11565b6102ae6004803603606081101561038157600080fd5b506001600160a01b0381351690602081013590604001351515610a5d565b6102ae600480360360408110156103b557600080fd5b506001600160a01b0381351690602001356113e5565b6103d36108b8565b61040e5760405162461bcd60e51b815260040180806020018281038252602c815260200180611f17602c913960400191505060405180910390fd5b6066805460ff19811660ff90911615179055565b606a546001600160a01b031681565b6104396108b8565b6104745760405162461bcd60e51b815260040180806020018281038252602c815260200180611f17602c913960400191505060405180910390fd5b60665461010090046001600160a01b0316ff5b61048f6108b8565b6104ca5760405162461bcd60e51b815260040180806020018281038252602c815260200180611f17602c913960400191505060405180910390fd5b604080516370a0823160e01b815230600482015290516000916001600160a01b038416916370a0823191602480820192602092909190829003018186803b15801561051457600080fd5b505afa158015610528573d6000803e3d6000fd5b505050506040513d602081101561053e57600080fd5b50516066546040805163a9059cbb60e01b81526101009092046001600160a01b03908116600484015260248301849052905192935084169163a9059cbb916044808201926020929091908290030181600087803b15801561059e57600080fd5b505af11580156105b2573d6000803e3d6000fd5b505050506040513d60208110156105c857600080fd5b50505050565b6105d66108b8565b6106115760405162461bcd60e51b815260040180806020018281038252602c815260200180611f17602c913960400191505060405180910390fd5b6066546040516001600160a01b036101009092049190911690303180156108fc02916000818181858888f19350505050158015610652573d6000803e3d6000fd5b50565b6067546001600160a01b031681565b606754600160a01b900461ffff1681565b600054610100900460ff168061068e575061068e611b09565b8061069c575060005460ff16155b6106d75760405162461bcd60e51b815260040180806020018281038252602e815260200180611f64602e913960400191505060405180910390fd5b600054610100900460ff16158015610702576000805460ff1961ff0019909116610100171660011790555b61070a610799565b6066805474ffffffffffffffffffffffffffffffffffffffffff19166101003302179055606780546001600160a01b03199081166001600160a01b038881169190911761ffff60a01b1916600160a01b61ffff89160217909255606880548216868416179055606a80549091169184169190911790558015610792576000805461ff00191690555b5050505050565b600054610100900460ff16806107b257506107b2611b09565b806107c0575060005460ff16155b6107fb5760405162461bcd60e51b815260040180806020018281038252602e815260200180611f64602e913960400191505060405180910390fd5b600054610100900460ff16158015610826576000805460ff1961ff0019909116610100171660011790555b60016033558015610652576000805461ff001916905550565b6108476108b8565b6108825760405162461bcd60e51b815260040180806020018281038252602c815260200180611f17602c913960400191505060405180910390fd5b606880546001600160a01b0319166001600160a01b0392909216919091179055565b60665461010090046001600160a01b031681565b60665461010090046001600160a01b0316331490565b6108d66108b8565b6109115760405162461bcd60e51b815260040180806020018281038252602c815260200180611f17602c913960400191505060405180910390fd5b606780546001600160a01b0319166001600160a01b0392909216919091179055565b61093b6108b8565b6109765760405162461bcd60e51b815260040180806020018281038252602c815260200180611f17602c913960400191505060405180910390fd5b60008161ffff1611801561098f57506127108161ffff16105b6109e0576040805162461bcd60e51b815260206004820152601a60248201527f476f6f6457696c6c2056616c7565206e6f7420616c6c6f776564000000000000604482015290519081900360640190fd5b6067805461ffff909216600160a01b0261ffff60a01b19909216919091179055565b6068546001600160a01b031681565b610a196108b8565b610a545760405162461bcd60e51b815260040180806020018281038252602c815260200180611f17602c913960400191505060405180910390fd5b61065281611b0f565b60665460009060ff1615610aad576040805162461bcd60e51b815260206004820152601260248201527115195b5c1bdc985c9a5b1e4814185d5cd95960721b604482015290519081900360640190fd5b6033805460010190819055606754604080516303795fb160e11b81526001600160a01b038881166004830152915160009392909216916306f2bf6291602480820192602092909190829003018186803b158015610b0957600080fd5b505afa158015610b1d573d6000803e3d6000fd5b505050506040513d6020811015610b3357600080fd5b5051606754606a54604080516303795fb160e11b81526001600160a01b039283166004820152905193945060009391909216916306f2bf62916024808301926020929190829003018186803b158015610b8b57600080fd5b505afa158015610b9f573d6000803e3d6000fd5b505050506040513d6020811015610bb557600080fd5b505160408051636eb1769f60e11b815233600482015230602482015290519192506000916001600160a01b0385169163dd62ed3e916044808301926020929190829003018186803b158015610c0957600080fd5b505afa158015610c1d573d6000803e3d6000fd5b505050506040513d6020811015610c3357600080fd5b5051905080871115610c765760405162461bcd60e51b815260040180806020018281038252602c815260200180611f92602c913960400191505060405180910390fd5b606754600090610c9e90610c96908a90600160a01b900461ffff16611b89565b612710611be9565b9050836001600160a01b03166323b872dd3330610cbb8c86611c2b565b6040518463ffffffff1660e01b815260040180846001600160a01b03166001600160a01b03168152602001836001600160a01b03166001600160a01b031681526020018281526020019350505050602060405180830381600087803b158015610d2357600080fd5b505af1158015610d37573d6000803e3d6000fd5b505050506040513d6020811015610d4d57600080fd5b5051610d91576040805162461bcd60e51b815260206004820152600e60248201526d06572726f72323a646566697a61760941b604482015290519081900360640190fd5b606854604080516323b872dd60e01b81523360048201526001600160a01b039283166024820152604481018490529051918616916323b872dd916064808201926020929091908290030181600087803b158015610ded57600080fd5b505af1158015610e01573d6000803e3d6000fd5b505050506040513d6020811015610e1757600080fd5b5051610e5b576040805162461bcd60e51b815260206004820152600e60248201526d06572726f72333a646566697a61760941b604482015290519081900360640190fd5b600080856001600160a01b031663f88bf15a610e778c86611c2b565b600180610e8642610708611c6d565b6040518563ffffffff1660e01b8152600401808581526020018481526020018381526020018281526020019450505050506040805180830381600087803b158015610ed057600080fd5b505af1158015610ee4573d6000803e3d6000fd5b505050506040513d6040811015610efa57600080fd5b508051602090910151909250905088156111d657606a546001600160a01b038c811691161415610f71576040805162461bcd60e51b815260206004820152600e60248201527f6572726f72353a646566697a6170000000000000000000000000000000000000604482015290519081900360640190fd5b846001600160a01b031663ad65d76d836001610f8f42610708611c6d565b336040518563ffffffff1660e01b815260040180848152602001838152602001826001600160a01b03166001600160a01b0316815260200193505050506020604051808303818588803b158015610fe557600080fd5b505af1158015610ff9573d6000803e3d6000fd5b50505050506040513d602081101561101057600080fd5b50506040805163095ea7b360e01b81526001600160a01b038881166004830152602482018490529151918d169163095ea7b3916044808201926020929091908290030181600087803b15801561106557600080fd5b505af1158015611079573d6000803e3d6000fd5b505050506040513d602081101561108f57600080fd5b50506001600160a01b03861663f552d91b826001806110b042610708611c6d565b606a54604080516001600160e01b031960e089901b16815260048101969096526024860194909452604485019290925260648401523360848401526001600160a01b031660a48301525160c48083019260209291908290030181600087803b15801561111b57600080fd5b505af115801561112f573d6000803e3d6000fd5b505050506040513d602081101561114557600080fd5b505060408051666f6e6c7944414960c81b815290519081900360070190206001600160a01b0387167fe9fe044b3557c78a96b97e3deb80d2bf7d9460225802982c02ea824b6bb8db038d3361119a8f89611c2b565b604080516001600160a01b03948516815292909316602083015281830152606081018790526080810186905290519081900360a00190a361137d565b856001600160a01b031663ad65d76d8360016111f442610708611c6d565b336040518563ffffffff1660e01b815260040180848152602001838152602001826001600160a01b03166001600160a01b0316815260200193505050506020604051808303818588803b15801561124a57600080fd5b505af115801561125e573d6000803e3d6000fd5b50505050506040513d602081101561127557600080fd5b50506040805163a9059cbb60e01b81523360048201526024810183905290516001600160a01b038d169163a9059cbb9160448083019260209291908290030181600087803b1580156112c657600080fd5b505af11580156112da573d6000803e3d6000fd5b505050506040513d60208110156112f057600080fd5b505060408051666f6e6c7945524360c81b815290519081900360070190206001600160a01b0387167fe9fe044b3557c78a96b97e3deb80d2bf7d9460225802982c02ea824b6bb8db038d336113458f89611c2b565b604080516001600160a01b03948516815292909316602083015281830152606081018790526080810186905290519081900360a00190a35b6001975050505050505060335481146113dd576040805162461bcd60e51b815260206004820152601f60248201527f5265656e7472616e637947756172643a207265656e7472616e742063616c6c00604482015290519081900360640190fd5b509392505050565b60665460009060ff1615611435576040805162461bcd60e51b815260206004820152601260248201527115195b5c1bdc985c9a5b1e4814185d5cd95960721b604482015290519081900360640190fd5b6033805460010190819055606754604080516303795fb160e11b81526001600160a01b038781166004830152915160009392909216916306f2bf6291602480820192602092909190829003018186803b15801561149157600080fd5b505afa1580156114a5573d6000803e3d6000fd5b505050506040513d60208110156114bb57600080fd5b505160408051636eb1769f60e11b815233600482015230602482015290519192506000916001600160a01b0384169163dd62ed3e916044808301926020929190829003018186803b15801561150f57600080fd5b505afa158015611523573d6000803e3d6000fd5b505050506040513d602081101561153957600080fd5b505190508085111561157c5760405162461bcd60e51b815260040180806020018281038252602c815260200180611f92602c913960400191505060405180910390fd5b60675460009061159c90610c96908890600160a01b900461ffff16611b89565b9050826001600160a01b03166323b872dd33306115b98a86611c2b565b6040518463ffffffff1660e01b815260040180846001600160a01b03166001600160a01b03168152602001836001600160a01b03166001600160a01b031681526020018281526020019350505050602060405180830381600087803b15801561162157600080fd5b505af1158015611635573d6000803e3d6000fd5b505050506040513d602081101561164b57600080fd5b505161168f576040805162461bcd60e51b815260206004820152600e60248201526d06572726f72323a646566697a61760941b604482015290519081900360640190fd5b606854604080516323b872dd60e01b81523360048201526001600160a01b039283166024820152604481018490529051918516916323b872dd916064808201926020929091908290030181600087803b1580156116eb57600080fd5b505af11580156116ff573d6000803e3d6000fd5b505050506040513d602081101561171557600080fd5b5051611759576040805162461bcd60e51b815260206004820152600e60248201526d06572726f72333a646566697a61760941b604482015290519081900360640190fd5b600080846001600160a01b031663f88bf15a6117758a86611c2b565b60018061178442610708611c6d565b6040518563ffffffff1660e01b8152600401808581526020018481526020018381526020018281526020019450505050506040805180830381600087803b1580156117ce57600080fd5b505af11580156117e2573d6000803e3d6000fd5b505050506040513d60408110156117f857600080fd5b508051602091820151604080516395b68fe760e01b81526004810183905290519295509093506000926001600160a01b038916926395b68fe7926024808201939291829003018186803b15801561184e57600080fd5b505afa158015611862573d6000803e3d6000fd5b505050506040513d602081101561187857600080fd5b50516040805163095ea7b360e01b81526001600160a01b038981166004830152602482018690529151929350908c169163095ea7b3916044808201926020929091908290030181600087803b1580156118d057600080fd5b505af11580156118e4573d6000803e3d6000fd5b505050506040513d60208110156118fa57600080fd5b50506001600160a01b038616637237e0318361192161191a856062611b89565b6064611be9565b61192d42610708611c6d565b604080516001600160e01b031960e087901b1681526004810194909452602484019290925260448301523360648301525160848083019260209291908290030181600087803b15801561197f57600080fd5b505af1158015611993573d6000803e3d6000fd5b505050506040513d60208110156119a957600080fd5b50503360008181526069602052604090208490556119c690611cc7565b611a17576040805162461bcd60e51b815260206004820152601560248201527f697373756520696e207472616e73666572204554480000000000000000000000604482015290519081900360640190fd5b60408051660dedcd8f28aa8960cb1b815290519081900360070190206001600160a01b0387167fe9fe044b3557c78a96b97e3deb80d2bf7d9460225802982c02ea824b6bb8db038c33611a6a8e8a611c2b565b604080516001600160a01b03948516815292909316602083015281830152606081018890526080810187905290519081900360a00190a3600197505050505050506033548114611b01576040805162461bcd60e51b815260206004820152601f60248201527f5265656e7472616e637947756172643a207265656e7472616e742063616c6c00604482015290519081900360640190fd5b505b92915050565b303b1590565b6001600160a01b038116611b545760405162461bcd60e51b8152600401808060200182810382526026815260200180611ef16026913960400191505060405180910390fd5b606680546001600160a01b039092166101000274ffffffffffffffffffffffffffffffffffffffff0019909216919091179055565b600082611b9857506000611b03565b82820282848281611ba557fe5b0414611be25760405162461bcd60e51b8152600401808060200182810382526021815260200180611f436021913960400191505060405180910390fd5b9392505050565b6000611be283836040518060400160405280601a81526020017f536166654d6174683a206469766973696f6e206279207a65726f000000000000815250611df4565b6000611be283836040518060400160405280601e81526020017f536166654d6174683a207375627472616374696f6e206f766572666c6f770000815250611e96565b600082820183811015611be2576040805162461bcd60e51b815260206004820152601b60248201527f536166654d6174683a206164646974696f6e206f766572666c6f770000000000604482015290519081900360640190fd5b6001600160a01b038116600090815260696020526040812054611d31576040805162461bcd60e51b815260206004820152600e60248201527f6572726f72343a446566695a6170000000000000000000000000000000000000604482015290519081900360640190fd5b6001600160a01b038216600081815260696020526040808220805490839055905190929083908381818185875af1925050503d8060008114611d8f576040519150601f19603f3d011682016040523d82523d6000602084013e611d94565b606091505b5050905080611dea576040805162461bcd60e51b815260206004820152600e60248201527f6572726f72353a446566695a6170000000000000000000000000000000000000604482015290519081900360640190fd5b5060019392505050565b60008183611e805760405162461bcd60e51b81526004018080602001828103825283818151815260200191508051906020019080838360005b83811015611e45578181015183820152602001611e2d565b50505050905090810190601f168015611e725780820380516001836020036101000a031916815260200191505b509250505060405180910390fd5b506000838581611e8c57fe5b0495945050505050565b60008184841115611ee85760405162461bcd60e51b8152602060048201818152835160248401528351909283926044909101919085019080838360008315611e45578181015183820152602001611e2d565b50505090039056fe4f776e61626c653a206e6577206f776e657220697320746865207a65726f2061646472657373796f7520617265206e6f7420617574686f726973656420746f2063616c6c20746869732066756e6374696f6e536166654d6174683a206d756c7469706c69636174696f6e206f766572666c6f77436f6e747261637420696e7374616e63652068617320616c7265616479206265656e20696e697469616c697a65645065726d697373696f6e20746f20446546695a6170206973206c657373207468616e20726571756573746564a265627a7a72315820845d51f65a48b2758d766969e1cc9d0969832d0a410d5459a4c4846434381e6064736f6c634300050d0032",
  "compiler": {
    "name": "solc",
    "version": "0.5.13+commit.5b0b510c.Emscripten.clang",
    "optimizer": {
      "enabled": true,
      "runs": 500
    },
    "evmVersion": "petersburg"
  }
}