{
  "fileName": "Uniswap_ETH_wBTCZap.sol",
  "contractName": "UniSwap_ETH_wBTCZap",
  "source": "// Copyright (C) 2019, 2020 dipeshsukhani, nodarjonashi, toshsharma, suhailg\r\n\r\n// This program is free software: you can redistribute it and/or modify\r\n// it under the terms of the GNU Affero General Public License as published by\r\n// the Free Software Foundation, either version 2 of the License, or\r\n// (at your option) any later version.\r\n//\r\n// This program is distributed in the hope that it will be useful,\r\n// but WITHOUT ANY WARRANTY; without even the implied warranty of\r\n// MERCHANTABILITY or FITNESS FOR A PARTICULAR PURPOSE.  See the\r\n// GNU Affero General Public License for more details.\r\n//\r\n// Visit <https://www.gnu.org/licenses/>for a copy of the GNU Affero General Public License\r\n\r\n/**\r\n * WARNING: This is an upgradable contract. Be careful not to disrupt\r\n * the existing storage layout when making upgrades to the contract. In particular,\r\n * existing fields should not be removed and should not have their types changed.\r\n * The order of field declarations must not be changed, and new fields must be added\r\n * below all existing declarations.\r\n *\r\n * The base contracts and the order in which they are declared must not be changed.\r\n * New fields must not be added to base contracts (unless the base contract has\r\n * reserved placeholder fields for this purpose).\r\n *\r\n * See https://docs.zeppelinos.org/docs/writing_contracts.html for more info.\r\n*/\r\n// solium-disable linebreak-style\r\npragma solidity ^0.5.0;\r\n\r\nimport \"../../../node_modules/@openzeppelin/upgrades/contracts/Initializable.sol\";\r\nimport \"../../../node_modules/@openzeppelin/contracts-ethereum-package/contracts/math/SafeMath.sol\";\r\nimport \"../../../node_modules/@openzeppelin/contracts-ethereum-package/contracts/token/ERC20/IERC20.sol\";\r\n\r\n\r\ninterface UniSwapAddLiquityV2_General {\r\n    function LetsInvest(address _TokenContractAddress, address _towhomtoissue) external payable returns (uint);\r\n}\r\n\r\n\r\n// through this contract we are putting 34% allocation to 2xLongETH and 66% to Uniswap pool\r\ncontract UniSwap_ETH_wBTCZap is Initializable {\r\n    using SafeMath for uint;\r\n    \r\n    // state variables\r\n\r\n    // - THESE MUST ALWAYS STAY IN THE SAME LAYOUT\r\n    bool private stopped;\r\n    address payable public owner;\r\n    UniSwapAddLiquityV2_General public UniSwapAddLiquityV2_GeneralAddress;\r\n    address public WBTC_TOKEN_ADDRESS;\r\n\r\n    // circuit breaker modifiers\r\n    modifier stopInEmergency {\r\n        if (stopped) \r\n            {revert(\"Temporarily Paused\");} \r\n        else {\r\n            _;}\r\n        }\r\n    modifier onlyOwner() {\r\n        require(isOwner(), \"you are not authorised to call this function\");\r\n        _;\r\n    }\r\n    \r\n    function initialize (address _UniSwapAddLiquityV2_GeneralAddress, address _WBTC_TOKEN_ADDRESS) initializer public {\r\n        stopped = false;\r\n        owner = msg.sender;\r\n        UniSwapAddLiquityV2_GeneralAddress = UniSwapAddLiquityV2_General(_UniSwapAddLiquityV2_GeneralAddress);\r\n        WBTC_TOKEN_ADDRESS = _WBTC_TOKEN_ADDRESS;\r\n    }\r\n\r\n    // this function should be called should we ever want to change the underlying Kyber Interface Contract address\r\n    function set_UniSwapAddLiquityV2_GeneralAddress(address _new_UniSwapAddLiquityV2_GeneralAddress) public onlyOwner {\r\n        UniSwapAddLiquityV2_GeneralAddress = UniSwapAddLiquityV2_General (_new_UniSwapAddLiquityV2_GeneralAddress);\r\n    }\r\n    \r\n    // this function should be called should we ever want to change the wBTC token address\r\n    function set_new_WBTC_TOKEN_ADDRESS(address _new_WBTC_TOKEN_ADDRESS) public onlyOwner {\r\n        WBTC_TOKEN_ADDRESS = _new_WBTC_TOKEN_ADDRESS;\r\n    }\r\n    \r\n    // main function which will make the investments\r\n    function LetsInvest(address payable _towhomtoIssueAddress, uint _slippage, bool _residualInToken) public payable returns(uint) {\r\n        uint LiquidityTokens = UniSwapAddLiquityV2_GeneralAddress.LetsInvest.value(msg.value)(WBTC_TOKEN_ADDRESS, _towhomtoIssueAddress);\r\n        return (LiquidityTokens);\r\n    }\r\n\r\n    function inCaseTokengetsStuck(IERC20 _TokenAddress) onlyOwner public {\r\n        uint qty = _TokenAddress.balanceOf(address(this));\r\n        _TokenAddress.transfer(owner, qty);\r\n    }\r\n\r\n\r\n    // - fallback function let you / anyone send ETH to this wallet without the need to call any function\r\n    function() external payable {\r\n        if (msg.sender != owner) {\r\n            LetsInvest(msg.sender, 5, false);}\r\n    }\r\n    \r\n    // - to Pause the contract\r\n    function toggleContractActive() onlyOwner public {\r\n        stopped = !stopped;\r\n    }\r\n\r\n    // - to withdraw any ETH balance sitting in the contract\r\n    function withdraw() onlyOwner public{\r\n        owner.transfer(address(this).balance);\r\n    }\r\n    \r\n    // - to kill the contract\r\n    function destruct() public onlyOwner {\r\n        selfdestruct(owner);\r\n    }\r\n\r\n\r\n    /**\r\n     * @return true if `msg.sender` is the owner of the contract.\r\n     */\r\n    function isOwner() public view returns (bool) {\r\n        return msg.sender == owner;\r\n    }\r\n\r\n    /**\r\n     * @dev Transfers ownership of the contract to a new account (`newOwner`).\r\n     * Can only be called by the current owner.\r\n     */\r\n    function transferOwnership(address payable newOwner) public onlyOwner {\r\n        _transferOwnership(newOwner);\r\n    }\r\n\r\n    /**\r\n     * @dev Transfers ownership of the contract to a new account (`newOwner`).\r\n     */\r\n    function _transferOwnership(address payable newOwner) internal {\r\n        require(newOwner != address(0), \"Ownable: new owner is the zero address\");\r\n        owner = newOwner;\r\n    }\r\n\r\n}",
  "sourcePath": "contracts/UpdatedZaps/Done/Uniswap_ETH_wBTCZap.sol",
  "abi": [
    {
      "payable": true,
      "stateMutability": "payable",
      "type": "fallback"
    },
    {
      "constant": false,
      "inputs": [
        {
          "internalType": "address payable",
          "name": "_towhomtoIssueAddress",
          "type": "address"
        },
        {
          "internalType": "uint256",
          "name": "_slippage",
          "type": "uint256"
        },
        {
          "internalType": "bool",
          "name": "_residualInToken",
          "type": "bool"
        }
      ],
      "name": "LetsInvest",
      "outputs": [
        {
          "internalType": "uint256",
          "name": "",
          "type": "uint256"
        }
      ],
      "payable": true,
      "stateMutability": "payable",
      "type": "function"
    },
    {
      "constant": true,
      "inputs": [],
      "name": "UniSwapAddLiquityV2_GeneralAddress",
      "outputs": [
        {
          "internalType": "contract UniSwapAddLiquityV2_General",
          "name": "",
          "type": "address"
        }
      ],
      "payable": false,
      "stateMutability": "view",
      "type": "function"
    },
    {
      "constant": true,
      "inputs": [],
      "name": "WBTC_TOKEN_ADDRESS",
      "outputs": [
        {
          "internalType": "address",
          "name": "",
          "type": "address"
        }
      ],
      "payable": false,
      "stateMutability": "view",
      "type": "function"
    },
    {
      "constant": false,
      "inputs": [],
      "name": "destruct",
      "outputs": [],
      "payable": false,
      "stateMutability": "nonpayable",
      "type": "function"
    },
    {
      "constant": false,
      "inputs": [
        {
          "internalType": "contract IERC20",
          "name": "_TokenAddress",
          "type": "address"
        }
      ],
      "name": "inCaseTokengetsStuck",
      "outputs": [],
      "payable": false,
      "stateMutability": "nonpayable",
      "type": "function"
    },
    {
      "constant": false,
      "inputs": [
        {
          "internalType": "address",
          "name": "_UniSwapAddLiquityV2_GeneralAddress",
          "type": "address"
        },
        {
          "internalType": "address",
          "name": "_WBTC_TOKEN_ADDRESS",
          "type": "address"
        }
      ],
      "name": "initialize",
      "outputs": [],
      "payable": false,
      "stateMutability": "nonpayable",
      "type": "function"
    },
    {
      "constant": true,
      "inputs": [],
      "name": "isOwner",
      "outputs": [
        {
          "internalType": "bool",
          "name": "",
          "type": "bool"
        }
      ],
      "payable": false,
      "stateMutability": "view",
      "type": "function"
    },
    {
      "constant": true,
      "inputs": [],
      "name": "owner",
      "outputs": [
        {
          "internalType": "address payable",
          "name": "",
          "type": "address"
        }
      ],
      "payable": false,
      "stateMutability": "view",
      "type": "function"
    },
    {
      "constant": false,
      "inputs": [
        {
          "internalType": "address",
          "name": "_new_UniSwapAddLiquityV2_GeneralAddress",
          "type": "address"
        }
      ],
      "name": "set_UniSwapAddLiquityV2_GeneralAddress",
      "outputs": [],
      "payable": false,
      "stateMutability": "nonpayable",
      "type": "function"
    },
    {
      "constant": false,
      "inputs": [
        {
          "internalType": "address",
          "name": "_new_WBTC_TOKEN_ADDRESS",
          "type": "address"
        }
      ],
      "name": "set_new_WBTC_TOKEN_ADDRESS",
      "outputs": [],
      "payable": false,
      "stateMutability": "nonpayable",
      "type": "function"
    },
    {
      "constant": false,
      "inputs": [],
      "name": "toggleContractActive",
      "outputs": [],
      "payable": false,
      "stateMutability": "nonpayable",
      "type": "function"
    },
    {
      "constant": false,
      "inputs": [
        {
          "internalType": "address payable",
          "name": "newOwner",
          "type": "address"
        }
      ],
      "name": "transferOwnership",
      "outputs": [],
      "payable": false,
      "stateMutability": "nonpayable",
      "type": "function"
    },
    {
      "constant": false,
      "inputs": [],
      "name": "withdraw",
      "outputs": [],
      "payable": false,
      "stateMutability": "nonpayable",
      "type": "function"
    }
  ],
  "bytecode": "0x608060405234801561001057600080fd5b50610fed806100206000396000f3fe6080604052600436106100c25760003560e01c8063551196d51161007f5780639313b1f9116100595780639313b1f91461035d578063c8273380146103ae578063d372ddbc1461041c578063f2fde38b14610473576100c2565b8063551196d5146102865780638da5cb5b146102d75780638f32d59b1461032e576100c2565b80630fadcb48146101285780631385d24c146101795780632b68b9c6146101905780633ccfd60b146101a757806341a0622c146101be578063485cc95514610215575b603360019054906101000a900473ffffffffffffffffffffffffffffffffffffffff1673ffffffffffffffffffffffffffffffffffffffff163373ffffffffffffffffffffffffffffffffffffffff16146101265761012433600560006104c4565b505b005b34801561013457600080fd5b506101776004803603602081101561014b57600080fd5b81019080803573ffffffffffffffffffffffffffffffffffffffff169060200190929190505050610607565b005b34801561018557600080fd5b5061018e6106a8565b005b34801561019c57600080fd5b506101a5610731565b005b3480156101b357600080fd5b506101bc6107c9565b005b3480156101ca57600080fd5b506101d36108a8565b604051808273ffffffffffffffffffffffffffffffffffffffff1673ffffffffffffffffffffffffffffffffffffffff16815260200191505060405180910390f35b34801561022157600080fd5b506102846004803603604081101561023857600080fd5b81019080803573ffffffffffffffffffffffffffffffffffffffff169060200190929190803573ffffffffffffffffffffffffffffffffffffffff1690602001909291905050506108ce565b005b34801561029257600080fd5b506102d5600480360360208110156102a957600080fd5b81019080803573ffffffffffffffffffffffffffffffffffffffff169060200190929190505050610aad565b005b3480156102e357600080fd5b506102ec610caf565b604051808273ffffffffffffffffffffffffffffffffffffffff1673ffffffffffffffffffffffffffffffffffffffff16815260200191505060405180910390f35b34801561033a57600080fd5b50610343610cd5565b604051808215151515815260200191505060405180910390f35b34801561036957600080fd5b506103ac6004803603602081101561038057600080fd5b81019080803573ffffffffffffffffffffffffffffffffffffffff169060200190929190505050610d2d565b005b610406600480360360608110156103c457600080fd5b81019080803573ffffffffffffffffffffffffffffffffffffffff169060200190929190803590602001909291908035151590602001909291905050506104c4565b6040518082815260200191505060405180910390f35b34801561042857600080fd5b50610431610dce565b604051808273ffffffffffffffffffffffffffffffffffffffff1673ffffffffffffffffffffffffffffffffffffffff16815260200191505060405180910390f35b34801561047f57600080fd5b506104c26004803603602081101561049657600080fd5b81019080803573ffffffffffffffffffffffffffffffffffffffff169060200190929190505050610df4565b005b600080603460009054906101000a900473ffffffffffffffffffffffffffffffffffffffff1673ffffffffffffffffffffffffffffffffffffffff16633a2a66cf34603560009054906101000a900473ffffffffffffffffffffffffffffffffffffffff16886040518463ffffffff1660e01b8152600401808373ffffffffffffffffffffffffffffffffffffffff1673ffffffffffffffffffffffffffffffffffffffff1681526020018273ffffffffffffffffffffffffffffffffffffffff1673ffffffffffffffffffffffffffffffffffffffff168152602001925050506020604051808303818588803b1580156105be57600080fd5b505af11580156105d2573d6000803e3d6000fd5b50505050506040513d60208110156105e957600080fd5b81019080805190602001909291905050509050809150509392505050565b61060f610cd5565b610664576040517f08c379a000000000000000000000000000000000000000000000000000000000815260040180806020018281038252602c815260200180610f5f602c913960400191505060405180910390fd5b80603560006101000a81548173ffffffffffffffffffffffffffffffffffffffff021916908373ffffffffffffffffffffffffffffffffffffffff16021790555050565b6106b0610cd5565b610705576040517f08c379a000000000000000000000000000000000000000000000000000000000815260040180806020018281038252602c815260200180610f5f602c913960400191505060405180910390fd5b603360009054906101000a900460ff1615603360006101000a81548160ff021916908315150217905550565b610739610cd5565b61078e576040517f08c379a000000000000000000000000000000000000000000000000000000000815260040180806020018281038252602c815260200180610f5f602c913960400191505060405180910390fd5b603360019054906101000a900473ffffffffffffffffffffffffffffffffffffffff1673ffffffffffffffffffffffffffffffffffffffff16ff5b6107d1610cd5565b610826576040517f08c379a000000000000000000000000000000000000000000000000000000000815260040180806020018281038252602c815260200180610f5f602c913960400191505060405180910390fd5b603360019054906101000a900473ffffffffffffffffffffffffffffffffffffffff1673ffffffffffffffffffffffffffffffffffffffff166108fc3073ffffffffffffffffffffffffffffffffffffffff16319081150290604051600060405180830381858888f193505050501580156108a5573d6000803e3d6000fd5b50565b603460009054906101000a900473ffffffffffffffffffffffffffffffffffffffff1681565b600060019054906101000a900460ff16806108ed57506108ec610e5d565b5b8061090457506000809054906101000a900460ff16155b610959576040517f08c379a000000000000000000000000000000000000000000000000000000000815260040180806020018281038252602e815260200180610f8b602e913960400191505060405180910390fd5b60008060019054906101000a900460ff1615905080156109a9576001600060016101000a81548160ff02191690831515021790555060016000806101000a81548160ff0219169083151502179055505b6000603360006101000a81548160ff02191690831515021790555033603360016101000a81548173ffffffffffffffffffffffffffffffffffffffff021916908373ffffffffffffffffffffffffffffffffffffffff16021790555082603460006101000a81548173ffffffffffffffffffffffffffffffffffffffff021916908373ffffffffffffffffffffffffffffffffffffffff16021790555081603560006101000a81548173ffffffffffffffffffffffffffffffffffffffff021916908373ffffffffffffffffffffffffffffffffffffffff1602179055508015610aa85760008060016101000a81548160ff0219169083151502179055505b505050565b610ab5610cd5565b610b0a576040517f08c379a000000000000000000000000000000000000000000000000000000000815260040180806020018281038252602c815260200180610f5f602c913960400191505060405180910390fd5b60008173ffffffffffffffffffffffffffffffffffffffff166370a08231306040518263ffffffff1660e01b8152600401808273ffffffffffffffffffffffffffffffffffffffff1673ffffffffffffffffffffffffffffffffffffffff16815260200191505060206040518083038186803b158015610b8957600080fd5b505afa158015610b9d573d6000803e3d6000fd5b505050506040513d6020811015610bb357600080fd5b810190808051906020019092919050505090508173ffffffffffffffffffffffffffffffffffffffff1663a9059cbb603360019054906101000a900473ffffffffffffffffffffffffffffffffffffffff16836040518363ffffffff1660e01b8152600401808373ffffffffffffffffffffffffffffffffffffffff1673ffffffffffffffffffffffffffffffffffffffff16815260200182815260200192505050602060405180830381600087803b158015610c6f57600080fd5b505af1158015610c83573d6000803e3d6000fd5b505050506040513d6020811015610c9957600080fd5b8101908080519060200190929190505050505050565b603360019054906101000a900473ffffffffffffffffffffffffffffffffffffffff1681565b6000603360019054906101000a900473ffffffffffffffffffffffffffffffffffffffff1673ffffffffffffffffffffffffffffffffffffffff163373ffffffffffffffffffffffffffffffffffffffff1614905090565b610d35610cd5565b610d8a576040517f08c379a000000000000000000000000000000000000000000000000000000000815260040180806020018281038252602c815260200180610f5f602c913960400191505060405180910390fd5b80603460006101000a81548173ffffffffffffffffffffffffffffffffffffffff021916908373ffffffffffffffffffffffffffffffffffffffff16021790555050565b603560009054906101000a900473ffffffffffffffffffffffffffffffffffffffff1681565b610dfc610cd5565b610e51576040517f08c379a000000000000000000000000000000000000000000000000000000000815260040180806020018281038252602c815260200180610f5f602c913960400191505060405180910390fd5b610e5a81610e6e565b50565b600080303b90506000811491505090565b600073ffffffffffffffffffffffffffffffffffffffff168173ffffffffffffffffffffffffffffffffffffffff161415610ef4576040517f08c379a0000000000000000000000000000000000000000000000000000000008152600401808060200182810382526026815260200180610f396026913960400191505060405180910390fd5b80603360016101000a81548173ffffffffffffffffffffffffffffffffffffffff021916908373ffffffffffffffffffffffffffffffffffffffff1602179055505056fe4f776e61626c653a206e6577206f776e657220697320746865207a65726f2061646472657373796f7520617265206e6f7420617574686f726973656420746f2063616c6c20746869732066756e6374696f6e436f6e747261637420696e7374616e63652068617320616c7265616479206265656e20696e697469616c697a6564a265627a7a72315820eb13853f9fc2f14857401139b18eb0f254dc78c43a424be69b091ae726f2999b64736f6c634300050d0032",
  "compiler": {
    "name": "solc",
    "version": "0.5.13+commit.5b0b510c.Emscripten.clang",
    "optimizer": {
      "enabled": false,
      "runs": 200
    },
    "evmVersion": "petersburg"
  }
}