{
  "fileName": "UniSwapAddLiquidityV5_UpgradableGeneral.sol",
  "contractName": "UniSwapAddLiquityV5_General",
  "source": "// Copyright (C) 2019, 2020 dipeshsukhani, nodar, suhailg\n\n// This program is free software: you can redistribute it and/or modify\n// it under the terms of the GNU Affero General Public License as published by\n// the Free Software Foundation, either version 2 of the License, or\n// (at your option) any later version.\n//\n// This program is distributed in the hope that it will be useful,\n// but WITHOUT ANY WARRANTY; without even the implied warranty of\n// MERCHANTABILITY or FITNESS FOR A PARTICULAR PURPOSE.  See the\n// GNU Affero General Public License for more details.\n//\n// Visit <https://www.gnu.org/licenses/>for a copy of the GNU Affero General Public License\n\npragma solidity ^0.5.0;\n\nimport \"../../node_modules/@openzeppelin/upgrades/contracts/Initializable.sol\";\nimport \"../../node_modules/@openzeppelin/contracts-ethereum-package/contracts/math/SafeMath.sol\";\nimport \"../../node_modules/@openzeppelin/contracts-ethereum-package/contracts/token/ERC20/IERC20.sol\";\nimport \"../../node_modules/@openzeppelin/contracts-ethereum-package/contracts/utils/ReentrancyGuard.sol\";\n\n///@author DeFiZap\n///@notice this contract implements one click conversion from ETH to unipool liquidity tokens\n\ninterface IoneSplit_UniPoolGeneralv5 {\n    function swap(\n        IERC20 fromToken,\n        IERC20 toToken,\n        uint256 amount,\n        uint256 minReturn,\n        uint256[] calldata distribution, // [Uniswap, Kyber, Bancor, Oasis]\n        uint256 disableFlags // 16 - Compound, 32 - Fulcrum, 64 - Chai, 128 - Aave, 256 - SmartToken, 1024 - bDAI\n    ) external payable;\n}\n\ninterface IuniswapFactory_UniPoolGeneralv5 {\n    function getExchange(address token)\n        external\n        view\n        returns (address exchange);\n}\n\ninterface IuniswapExchange_UniPoolGeneralv5 {\n    \n    // Address of ERC20 token sold on this exchange\n    function tokenAddress() external view returns (address token);\n    // Address of Uniswap Factory\n    function factoryAddress() external view returns (address factory);\n    // Provide Liquidity\n    function addLiquidity(uint256 min_liquidity, uint256 max_tokens, uint256 deadline) external payable returns (uint256);\n    function removeLiquidity(uint256 amount, uint256 min_eth, uint256 min_tokens, uint256 deadline) external returns (uint256, uint256);\n    // Get Prices\n    function getEthToTokenInputPrice(uint256 eth_sold) external view returns (uint256 tokens_bought);\n    function getEthToTokenOutputPrice(uint256 tokens_bought) external view returns (uint256 eth_sold);\n    function getTokenToEthInputPrice(uint256 tokens_sold) external view returns (uint256 eth_bought);\n    function getTokenToEthOutputPrice(uint256 eth_bought) external view returns (uint256 tokens_sold);\n    // Trade ETH to ERC20\n    function ethToTokenSwapInput(uint256 min_tokens, uint256 deadline) external payable returns (uint256  tokens_bought);\n    function ethToTokenTransferInput(uint256 min_tokens, uint256 deadline, address recipient) external payable returns (uint256  tokens_bought);\n    function ethToTokenSwapOutput(uint256 tokens_bought, uint256 deadline) external payable returns (uint256  eth_sold);\n    function ethToTokenTransferOutput(uint256 tokens_bought, uint256 deadline, address recipient) external payable returns (uint256  eth_sold);\n    // Trade ERC20 to ETH\n    function tokenToEthSwapInput(uint256 tokens_sold, uint256 min_eth, uint256 deadline) external returns (uint256  eth_bought);\n    function tokenToEthTransferInput(uint256 tokens_sold, uint256 min_eth, uint256 deadline, address recipient) external returns (uint256  eth_bought);\n    function tokenToEthSwapOutput(uint256 eth_bought, uint256 max_tokens, uint256 deadline) external returns (uint256  tokens_sold);\n    function tokenToEthTransferOutput(uint256 eth_bought, uint256 max_tokens, uint256 deadline, address recipient) external returns (uint256  tokens_sold);\n    // Trade ERC20 to ERC20\n    function tokenToTokenSwapInput(uint256 tokens_sold, uint256 min_tokens_bought, uint256 min_eth_bought, uint256 deadline, address token_addr) external returns (uint256  tokens_bought);\n    function tokenToTokenTransferInput(uint256 tokens_sold, uint256 min_tokens_bought, uint256 min_eth_bought, uint256 deadline, address recipient, address token_addr) external returns (uint256  tokens_bought);\n    function tokenToTokenSwapOutput(uint256 tokens_bought, uint256 max_tokens_sold, uint256 max_eth_sold, uint256 deadline, address token_addr) external returns (uint256  tokens_sold);\n    function tokenToTokenTransferOutput(uint256 tokens_bought, uint256 max_tokens_sold, uint256 max_eth_sold, uint256 deadline, address recipient, address token_addr) external returns (uint256  tokens_sold);\n    // Trade ERC20 to Custom Pool\n    function tokenToExchangeSwapInput(uint256 tokens_sold, uint256 min_tokens_bought, uint256 min_eth_bought, uint256 deadline, address exchange_addr) external returns (uint256  tokens_bought);\n    function tokenToExchangeTransferInput(uint256 tokens_sold, uint256 min_tokens_bought, uint256 min_eth_bought, uint256 deadline, address recipient, address exchange_addr) external returns (uint256  tokens_bought);\n    function tokenToExchangeSwapOutput(uint256 tokens_bought, uint256 max_tokens_sold, uint256 max_eth_sold, uint256 deadline, address exchange_addr) external returns (uint256  tokens_sold);\n    function tokenToExchangeTransferOutput(uint256 tokens_bought, uint256 max_tokens_sold, uint256 max_eth_sold, uint256 deadline, address recipient, address exchange_addr) external returns (uint256  tokens_sold);\n   \n    function transfer(address _to, uint256 _value) external returns (bool);\n    function transferFrom(address _from, address _to, uint256 value) external returns (bool);\n    function approve(address _spender, uint256 _value) external returns (bool);\n    function allowance(address _owner, address _spender) external view returns (uint256);\n    function balanceOf(address _owner) external view returns (uint256);\n    function totalSupply() external view returns (uint256);\n    // Never use\n    function setup(address token_addr) external;\n\n}\n\ncontract UniSwapAddLiquityV5_General is Initializable, ReentrancyGuard {\n    using SafeMath for uint256;\n\n    // state variables\n\n    // - THESE MUST ALWAYS STAY IN THE SAME LAYOUT\n    bool private stopped;\n    address payable public owner;\n    IuniswapFactory_UniPoolGeneralv5 public UniSwapFactoryAddress;\n    IoneSplit_UniPoolGeneralv5 public oneSplitAddress;\n    address payable public dzgoodwillAddress;\n    uint public goodwillInBPS;\n\n    // events\n    // FIXME: NEED TO WORK ON EVENTS\n\n    // circuit breaker modifiers\n    modifier stopInEmergency {\n        if (stopped) {\n            revert(\"Temporarily Paused\");\n        } else {\n            _;\n        }\n    }\n    modifier onlyOwner() {\n        require(isOwner(), \"you are not authorised to call this function\");\n        _;\n    }\n\n    function initialize(address _UniSwapFactoryAddress, address _oneSplitAddress) public initializer {\n        ReentrancyGuard.initialize();\n        stopped = false;\n        owner = msg.sender;\n        UniSwapFactoryAddress = IuniswapFactory_UniPoolGeneralv5(\n            _UniSwapFactoryAddress\n        );\n        oneSplitAddress = IoneSplit_UniPoolGeneralv5(_oneSplitAddress);\n    }\n\n    function set_new_UniSwapFactoryAddress(address _new_UniSwapFactoryAddress)\n        public\n        onlyOwner\n    {\n        UniSwapFactoryAddress = IuniswapFactory_UniPoolGeneralv5(\n            _new_UniSwapFactoryAddress\n        );\n\n    }\n    \n    function set_new_oneSplitAddress(address _new_oneSplitAddress)\n        public\n        onlyOwner\n    {\n        oneSplitAddress = IoneSplit_UniPoolGeneralv5(\n            _new_oneSplitAddress\n        );\n\n    }\n    \n    \n    function getExchangeAddress(address _TokenContractAddress) public view returns (address uniExchangeAddress) {\n        return UniSwapFactoryAddress.getExchange(_TokenContractAddress);\n        \n    }\n    \n   \n    \n    \n\n\n    // FIXME: NEED TO UPDATE THE FUNCTION CALL SO THAT ANYONE FROM ETHERSCAN CAN ALSO SUBMIT THE ARRAY OF TOKENS AND THEIR PROPORTION\n    // function LetsInvest(address[10] _TokenContractAddresses, uint16[] _proportionInBPS, address _towhomtoissue) {\n        // to check that the total proportion is exactly 10000\n        // then we will determine the lenght of the array and also ensure that the length of the proportion is the same\n        // then we will run a loop of investing in unipool with this minor tweek\n        // - residual will be used for the next loop round from the very begining\n    // }\n    \n    \n    \n    function EasyZapIn(\n        IERC20 tokenAddress\n        ) public payable stopInEmergency returns (uint LiquidityTokens, uint residualTokens) {\n\n            uint256[] memory distribution = new uint256[](1);\n            distribution[0] = 0;\n            return ZapIn(IuniswapExchange_UniPoolGeneralv5(getExchangeAddress(address(tokenAddress))),\n                defaultSplit(msg.value),\n                getMinToken(address(IuniswapExchange_UniPoolGeneralv5(getExchangeAddress(address(tokenAddress)))), defaultSplit(msg.value), 200),\n                defaultTime(),\n                getMaxTokens(address(IuniswapExchange_UniPoolGeneralv5(getExchangeAddress(address(tokenAddress)))),tokenAddress,((msg.value).sub(defaultSplit(msg.value)))),\n                msg.sender,\n                tokenAddress,\n                false,\n                distribution,\n                0);\n        }\n        \n    \n    function ZapIn(\n            IuniswapExchange_UniPoolGeneralv5 uniExchangeAddress, \n            uint ercPortion, \n            uint min_Tokens, \n            uint deadlineInUnixEpoch, \n            uint maxTokens, \n            address _towhomtoissue, \n            IERC20 tokenAddress,\n            bool using1inch,\n            uint[] memory distribution, \n            uint _minimumReturn)\n        public\n        payable\n        stopInEmergency\n        returns (uint256 LiquidityTokens, uint residualTokens) \n    {\n    \n        if (using1inch){\n            oneSplitAddress.swap.value(ercPortion)(IERC20(0xEeeeeEeeeEeEeeEeEeEeeEEEeeeeEeeeeeeeEEeE),tokenAddress,ercPortion,((_minimumReturn).mul(99)).div(100), distribution, 0);\n        } else {\n            uniExchangeAddress.ethToTokenSwapInput.value(ercPortion)(min_Tokens, deadlineInUnixEpoch);    \n        }\n        \n        require(approveFx(address(tokenAddress), address(uniExchangeAddress), (tokenAddress.balanceOf(address(this)))));\n    \n        // adding Liquidity\n        LiquidityTokens = uniExchangeAddress.addLiquidity.value((msg.value).sub(ercPortion))(1,maxTokens,deadlineInUnixEpoch);\n\n        // transferring Liquidity\n        uniExchangeAddress.transfer(_towhomtoissue,LiquidityTokens);\n\n        // converting the residual\n        residualTokens = uniExchangeAddress.tokenToEthTransferInput(tokenAddress.balanceOf(address(this)),1,deadlineInUnixEpoch,_towhomtoissue);\n        \n        return (LiquidityTokens, residualTokens);\n    }\n    \n    function defaultSplit(uint value) public pure returns (uint ercPortion) {\n        ercPortion = SafeMath.div(\n            SafeMath.mul(value, 503),\n            1000\n        );\n        \n    }\n    \n    function getMinToken(address uniExchangeAddress, uint ercPortion, uint maxSlippageInBPS) public view returns (uint min_Tokens) {\n        return SafeMath.div(\n            SafeMath.mul(\n                IuniswapExchange_UniPoolGeneralv5(uniExchangeAddress).getEthToTokenInputPrice(\n                    ercPortion\n                ),\n                (SafeMath.sub(10000,maxSlippageInBPS))\n            ),\n            10000\n        );\n    }\n    \n    function defaultTime() public view returns (uint timeUint) {\n        return block.timestamp.add(300);\n    }\n    \n    function approveFx(address whichContractToTalkTo, address whoToApprove, uint whatIsTheLimit) public returns (bool result) {\n        return IERC20(whichContractToTalkTo).approve(whoToApprove,whatIsTheLimit);\n    }\n\n    function getMaxTokens(\n        address uniExchangeAddress,\n        IERC20 tokenAddress,\n        uint256 ethPortion\n    ) public view returns (uint256 token_amount) {\n        uint256 contractBalance = address(uniExchangeAddress)\n            .balance;\n        uint256 eth_reserve = SafeMath.sub(contractBalance, ethPortion);\n        uint256 token_reserve = tokenAddress.balanceOf(\n            uniExchangeAddress\n        );\n        token_amount = SafeMath.div(\n            SafeMath.mul(ethPortion, token_reserve),\n            eth_reserve\n        ) + 1;\n    }\n\n    function inCaseTokengetsStuck(IERC20 _TokenAddress) public onlyOwner {\n        uint256 qty = _TokenAddress.balanceOf(address(this));\n        _TokenAddress.transfer(owner, qty);\n    }\n\n    // - fallback function let you / anyone send ETH to this wallet without the need to call any function\n    function() external payable {\n       // FIXME: SHOULD THIS BE CLOSED\n    }\n\n    // - to Pause the contract\n    function toggleContractActive() public onlyOwner {\n        stopped = !stopped;\n    }\n\n    // - to withdraw any ETH balance sitting in the contract\n    function withdraw() public onlyOwner {\n        owner.transfer(address(this).balance);\n    }\n\n    // - to kill the contract\n    function destruct() public onlyOwner {\n        selfdestruct(owner);\n    }\n\n    /**\n     * @return true if `msg.sender` is the owner of the contract.\n     */\n    function isOwner() public view returns (bool) {\n        return msg.sender == owner;\n    }\n\n    /**\n     * @dev Transfers ownership of the contract to a new account (`newOwner`).\n     * Can only be called by the current owner.\n     */\n    function transferOwnership(address payable newOwner) public onlyOwner {\n        _transferOwnership(newOwner);\n    }\n\n    /**\n     * @dev Transfers ownership of the contract to a new account (`newOwner`).\n     */\n    function _transferOwnership(address payable newOwner) internal {\n        require(\n            newOwner != address(0),\n            \"Ownable: new owner is the zero address\"\n        );\n        owner = newOwner;\n    }\n\n}\n",
  "sourcePath": "contracts/Not_upgradable_done/UniSwapAddLiquidityV5_UpgradableGeneral.sol",
  "abi": [
    {
      "payable": true,
      "stateMutability": "payable",
      "type": "fallback"
    },
    {
      "constant": false,
      "inputs": [
        {
          "internalType": "contract IERC20",
          "name": "tokenAddress",
          "type": "address"
        }
      ],
      "name": "EasyZapIn",
      "outputs": [
        {
          "internalType": "uint256",
          "name": "LiquidityTokens",
          "type": "uint256"
        },
        {
          "internalType": "uint256",
          "name": "residualTokens",
          "type": "uint256"
        }
      ],
      "payable": true,
      "stateMutability": "payable",
      "type": "function"
    },
    {
      "constant": true,
      "inputs": [],
      "name": "UniSwapFactoryAddress",
      "outputs": [
        {
          "internalType": "contract IuniswapFactory_UniPoolGeneralv5",
          "name": "",
          "type": "address"
        }
      ],
      "payable": false,
      "stateMutability": "view",
      "type": "function"
    },
    {
      "constant": false,
      "inputs": [
        {
          "internalType": "contract IuniswapExchange_UniPoolGeneralv5",
          "name": "uniExchangeAddress",
          "type": "address"
        },
        {
          "internalType": "uint256",
          "name": "ercPortion",
          "type": "uint256"
        },
        {
          "internalType": "uint256",
          "name": "min_Tokens",
          "type": "uint256"
        },
        {
          "internalType": "uint256",
          "name": "deadlineInUnixEpoch",
          "type": "uint256"
        },
        {
          "internalType": "uint256",
          "name": "maxTokens",
          "type": "uint256"
        },
        {
          "internalType": "address",
          "name": "_towhomtoissue",
          "type": "address"
        },
        {
          "internalType": "contract IERC20",
          "name": "tokenAddress",
          "type": "address"
        },
        {
          "internalType": "bool",
          "name": "using1inch",
          "type": "bool"
        },
        {
          "internalType": "uint256[]",
          "name": "distribution",
          "type": "uint256[]"
        },
        {
          "internalType": "uint256",
          "name": "_minimumReturn",
          "type": "uint256"
        }
      ],
      "name": "ZapIn",
      "outputs": [
        {
          "internalType": "uint256",
          "name": "LiquidityTokens",
          "type": "uint256"
        },
        {
          "internalType": "uint256",
          "name": "residualTokens",
          "type": "uint256"
        }
      ],
      "payable": true,
      "stateMutability": "payable",
      "type": "function"
    },
    {
      "constant": false,
      "inputs": [
        {
          "internalType": "address",
          "name": "whichContractToTalkTo",
          "type": "address"
        },
        {
          "internalType": "address",
          "name": "whoToApprove",
          "type": "address"
        },
        {
          "internalType": "uint256",
          "name": "whatIsTheLimit",
          "type": "uint256"
        }
      ],
      "name": "approveFx",
      "outputs": [
        {
          "internalType": "bool",
          "name": "result",
          "type": "bool"
        }
      ],
      "payable": false,
      "stateMutability": "nonpayable",
      "type": "function"
    },
    {
      "constant": true,
      "inputs": [
        {
          "internalType": "uint256",
          "name": "value",
          "type": "uint256"
        }
      ],
      "name": "defaultSplit",
      "outputs": [
        {
          "internalType": "uint256",
          "name": "ercPortion",
          "type": "uint256"
        }
      ],
      "payable": false,
      "stateMutability": "pure",
      "type": "function"
    },
    {
      "constant": true,
      "inputs": [],
      "name": "defaultTime",
      "outputs": [
        {
          "internalType": "uint256",
          "name": "timeUint",
          "type": "uint256"
        }
      ],
      "payable": false,
      "stateMutability": "view",
      "type": "function"
    },
    {
      "constant": false,
      "inputs": [],
      "name": "destruct",
      "outputs": [],
      "payable": false,
      "stateMutability": "nonpayable",
      "type": "function"
    },
    {
      "constant": true,
      "inputs": [],
      "name": "dzgoodwillAddress",
      "outputs": [
        {
          "internalType": "address payable",
          "name": "",
          "type": "address"
        }
      ],
      "payable": false,
      "stateMutability": "view",
      "type": "function"
    },
    {
      "constant": true,
      "inputs": [
        {
          "internalType": "address",
          "name": "_TokenContractAddress",
          "type": "address"
        }
      ],
      "name": "getExchangeAddress",
      "outputs": [
        {
          "internalType": "address",
          "name": "uniExchangeAddress",
          "type": "address"
        }
      ],
      "payable": false,
      "stateMutability": "view",
      "type": "function"
    },
    {
      "constant": true,
      "inputs": [
        {
          "internalType": "address",
          "name": "uniExchangeAddress",
          "type": "address"
        },
        {
          "internalType": "contract IERC20",
          "name": "tokenAddress",
          "type": "address"
        },
        {
          "internalType": "uint256",
          "name": "ethPortion",
          "type": "uint256"
        }
      ],
      "name": "getMaxTokens",
      "outputs": [
        {
          "internalType": "uint256",
          "name": "token_amount",
          "type": "uint256"
        }
      ],
      "payable": false,
      "stateMutability": "view",
      "type": "function"
    },
    {
      "constant": true,
      "inputs": [
        {
          "internalType": "address",
          "name": "uniExchangeAddress",
          "type": "address"
        },
        {
          "internalType": "uint256",
          "name": "ercPortion",
          "type": "uint256"
        },
        {
          "internalType": "uint256",
          "name": "maxSlippageInBPS",
          "type": "uint256"
        }
      ],
      "name": "getMinToken",
      "outputs": [
        {
          "internalType": "uint256",
          "name": "min_Tokens",
          "type": "uint256"
        }
      ],
      "payable": false,
      "stateMutability": "view",
      "type": "function"
    },
    {
      "constant": true,
      "inputs": [],
      "name": "goodwillInBPS",
      "outputs": [
        {
          "internalType": "uint256",
          "name": "",
          "type": "uint256"
        }
      ],
      "payable": false,
      "stateMutability": "view",
      "type": "function"
    },
    {
      "constant": false,
      "inputs": [
        {
          "internalType": "contract IERC20",
          "name": "_TokenAddress",
          "type": "address"
        }
      ],
      "name": "inCaseTokengetsStuck",
      "outputs": [],
      "payable": false,
      "stateMutability": "nonpayable",
      "type": "function"
    },
    {
      "constant": false,
      "inputs": [
        {
          "internalType": "address",
          "name": "_UniSwapFactoryAddress",
          "type": "address"
        },
        {
          "internalType": "address",
          "name": "_oneSplitAddress",
          "type": "address"
        }
      ],
      "name": "initialize",
      "outputs": [],
      "payable": false,
      "stateMutability": "nonpayable",
      "type": "function"
    },
    {
      "constant": false,
      "inputs": [],
      "name": "initialize",
      "outputs": [],
      "payable": false,
      "stateMutability": "nonpayable",
      "type": "function"
    },
    {
      "constant": true,
      "inputs": [],
      "name": "isOwner",
      "outputs": [
        {
          "internalType": "bool",
          "name": "",
          "type": "bool"
        }
      ],
      "payable": false,
      "stateMutability": "view",
      "type": "function"
    },
    {
      "constant": true,
      "inputs": [],
      "name": "oneSplitAddress",
      "outputs": [
        {
          "internalType": "contract IoneSplit_UniPoolGeneralv5",
          "name": "",
          "type": "address"
        }
      ],
      "payable": false,
      "stateMutability": "view",
      "type": "function"
    },
    {
      "constant": true,
      "inputs": [],
      "name": "owner",
      "outputs": [
        {
          "internalType": "address payable",
          "name": "",
          "type": "address"
        }
      ],
      "payable": false,
      "stateMutability": "view",
      "type": "function"
    },
    {
      "constant": false,
      "inputs": [
        {
          "internalType": "address",
          "name": "_new_UniSwapFactoryAddress",
          "type": "address"
        }
      ],
      "name": "set_new_UniSwapFactoryAddress",
      "outputs": [],
      "payable": false,
      "stateMutability": "nonpayable",
      "type": "function"
    },
    {
      "constant": false,
      "inputs": [
        {
          "internalType": "address",
          "name": "_new_oneSplitAddress",
          "type": "address"
        }
      ],
      "name": "set_new_oneSplitAddress",
      "outputs": [],
      "payable": false,
      "stateMutability": "nonpayable",
      "type": "function"
    },
    {
      "constant": false,
      "inputs": [],
      "name": "toggleContractActive",
      "outputs": [],
      "payable": false,
      "stateMutability": "nonpayable",
      "type": "function"
    },
    {
      "constant": false,
      "inputs": [
        {
          "internalType": "address payable",
          "name": "newOwner",
          "type": "address"
        }
      ],
      "name": "transferOwnership",
      "outputs": [],
      "payable": false,
      "stateMutability": "nonpayable",
      "type": "function"
    },
    {
      "constant": false,
      "inputs": [],
      "name": "withdraw",
      "outputs": [],
      "payable": false,
      "stateMutability": "nonpayable",
      "type": "function"
    }
  ],
  "bytecode": "0x608060405234801561001057600080fd5b50611788806100206000396000f3fe6080604052600436106101705760003560e01c80638f32d59b116100d6578063b1adb1901161007f578063c3a8fcb011610059578063c3a8fcb01461058d578063d79afac4146105a2578063f2fde38b146105b757610170565b8063b1adb190146104f1578063b1f8bcae14610534578063c084e69d1461056757610170565b8063a454aaa6116100b0578063a454aaa6146103a9578063a7a1afd4146103be578063ae4de7fa146104be57610170565b80638f32d59b146103555780639a49be511461036a5780639c4205ad1461037f57610170565b8063525d509e116101385780637c5f435d116101125780637c5f435d146102f85780638129fc1c1461032b5780638da5cb5b1461034057610170565b8063525d509e14610243578063551196d5146102745780635f3b159d146102a757610170565b80631385d24c146101725780632b68b9c6146101875780633ccfd60b1461019c5780634307ce61146101b1578063485cc95514610208575b005b34801561017e57600080fd5b506101706105ea565b34801561019357600080fd5b50610170610641565b3480156101a857600080fd5b50610170610697565b3480156101bd57600080fd5b506101f4600480360360608110156101d457600080fd5b506001600160a01b0381358116916020810135909116906040013561071e565b604080519115158252519081900360200190f35b34801561021457600080fd5b506101706004803603604081101561022b57600080fd5b506001600160a01b03813581169160200135166107a5565b34801561024f57600080fd5b506102586108a7565b604080516001600160a01b039092168252519081900360200190f35b34801561028057600080fd5b506101706004803603602081101561029757600080fd5b50356001600160a01b03166108b6565b3480156102b357600080fd5b506102e6600480360360608110156102ca57600080fd5b506001600160a01b0381351690602081013590604001356109fd565b60408051918252519081900360200190f35b34801561030457600080fd5b506101706004803603602081101561031b57600080fd5b50356001600160a01b0316610a96565b34801561033757600080fd5b50610170610afb565b34801561034c57600080fd5b50610258610ba1565b34801561036157600080fd5b506101f4610bb5565b34801561037657600080fd5b506102e6610bcb565b34801561038b57600080fd5b506102e6600480360360208110156103a257600080fd5b5035610bd1565b3480156103b557600080fd5b506102e6610bf0565b6104a560048036036101408110156103d557600080fd5b6001600160a01b03823581169260208101359260408201359260608301359260808101359260a082013583169260c0830135169160e0810135151591810190610120810161010082013564010000000081111561043157600080fd5b82018360208201111561044357600080fd5b8035906020019184602083028401116401000000008311171561046557600080fd5b9190808060200260200160405190810160405280939291908181526020018383602002808284376000920191909152509295505091359250610c09915050565b6040805192835260208301919091528051918290030190f35b3480156104ca57600080fd5b50610170600480360360208110156104e157600080fd5b50356001600160a01b03166110dc565b3480156104fd57600080fd5b506102e66004803603606081101561051457600080fd5b506001600160a01b03813581169160208101359091169060400135611141565b34801561054057600080fd5b506102586004803603602081101561055757600080fd5b50356001600160a01b0316611202565b6104a56004803603602081101561057d57600080fd5b50356001600160a01b0316611285565b34801561059957600080fd5b5061025861138e565b3480156105ae57600080fd5b5061025861139d565b3480156105c357600080fd5b50610170600480360360208110156105da57600080fd5b50356001600160a01b03166113ac565b6105f2610bb5565b61062d5760405162461bcd60e51b815260040180806020018281038252602c8152602001806116d9602c913960400191505060405180910390fd5b6066805460ff19811660ff90911615179055565b610649610bb5565b6106845760405162461bcd60e51b815260040180806020018281038252602c8152602001806116d9602c913960400191505060405180910390fd5b60665461010090046001600160a01b0316ff5b61069f610bb5565b6106da5760405162461bcd60e51b815260040180806020018281038252602c8152602001806116d9602c913960400191505060405180910390fd5b6066546040516001600160a01b036101009092049190911690303180156108fc02916000818181858888f1935050505015801561071b573d6000803e3d6000fd5b50565b6040805163095ea7b360e01b81526001600160a01b03848116600483015260248201849052915160009286169163095ea7b391604480830192602092919082900301818787803b15801561077157600080fd5b505af1158015610785573d6000803e3d6000fd5b505050506040513d602081101561079b57600080fd5b5051949350505050565b600054610100900460ff16806107be57506107be6113f8565b806107cc575060005460ff16155b6108075760405162461bcd60e51b815260040180806020018281038252602e815260200180611726602e913960400191505060405180910390fd5b600054610100900460ff16158015610832576000805460ff1961ff0019909116610100171660011790555b61083a610afb565b60668054336101000274ffffffffffffffffffffffffffffffffffffffffff19909116179055606780546001600160a01b038581166001600160a01b031992831617909255606880549285169290911691909117905580156108a2576000805461ff00191690555b505050565b6067546001600160a01b031681565b6108be610bb5565b6108f95760405162461bcd60e51b815260040180806020018281038252602c8152602001806116d9602c913960400191505060405180910390fd5b604080516370a0823160e01b815230600482015290516000916001600160a01b038416916370a0823191602480820192602092909190829003018186803b15801561094357600080fd5b505afa158015610957573d6000803e3d6000fd5b505050506040513d602081101561096d57600080fd5b50516066546040805163a9059cbb60e01b81526101009092046001600160a01b03908116600484015260248301849052905192935084169163a9059cbb916044808201926020929091908290030181600087803b1580156109cd57600080fd5b505af11580156109e1573d6000803e3d6000fd5b505050506040513d60208110156109f757600080fd5b50505050565b6000610a8e610a86856001600160a01b031663cd7724c3866040518263ffffffff1660e01b81526004018082815260200191505060206040518083038186803b158015610a4957600080fd5b505afa158015610a5d573d6000803e3d6000fd5b505050506040513d6020811015610a7357600080fd5b5051610a81612710866113fe565b611447565b6127106114a0565b949350505050565b610a9e610bb5565b610ad95760405162461bcd60e51b815260040180806020018281038252602c8152602001806116d9602c913960400191505060405180910390fd5b606880546001600160a01b0319166001600160a01b0392909216919091179055565b600054610100900460ff1680610b145750610b146113f8565b80610b22575060005460ff16155b610b5d5760405162461bcd60e51b815260040180806020018281038252602e815260200180611726602e913960400191505060405180910390fd5b600054610100900460ff16158015610b88576000805460ff1961ff0019909116610100171660011790555b6001603355801561071b576000805461ff001916905550565b60665461010090046001600160a01b031681565b60665461010090046001600160a01b0316331490565b606a5481565b6000610bea610be2836101f7611447565b6103e86114a0565b92915050565b6000610c044261012c63ffffffff6114e216565b905090565b606654600090819060ff1615610c5b576040805162461bcd60e51b815260206004820152601260248201527115195b5c1bdc985c9a5b1e4814185d5cd95960721b604482015290519081900360640190fd5b8415610d87576068546001600160a01b031663e2a7515e8c73eeeeeeeeeeeeeeeeeeeeeeeeeeeeeeeeeeeeeeee8982610cac6064610ca08b606363ffffffff61144716565b9063ffffffff6114a016565b8a60006040518863ffffffff1660e01b815260040180876001600160a01b03166001600160a01b03168152602001866001600160a01b03166001600160a01b0316815260200185815260200184815260200180602001838152602001828103825284818151815260200191508051906020019060200280838360005b83811015610d40578181015183820152602001610d28565b505050509050019750505050505050506000604051808303818588803b158015610d6957600080fd5b505af1158015610d7d573d6000803e3d6000fd5b5050505050610e03565b8b6001600160a01b031663f39b5b9b8c8c8c6040518463ffffffff1660e01b815260040180838152602001828152602001925050506020604051808303818588803b158015610dd557600080fd5b505af1158015610de9573d6000803e3d6000fd5b50505050506040513d6020811015610e0057600080fd5b50505b610e8f868d886001600160a01b03166370a08231306040518263ffffffff1660e01b815260040180826001600160a01b03166001600160a01b0316815260200191505060206040518083038186803b158015610e5e57600080fd5b505afa158015610e72573d6000803e3d6000fd5b505050506040513d6020811015610e8857600080fd5b505161071e565b610e9857600080fd5b6001600160a01b038c1663422f1043610eb7348e63ffffffff6113fe16565b60018b8d6040518563ffffffff1660e01b81526004018084815260200183815260200182815260200193505050506020604051808303818588803b158015610efe57600080fd5b505af1158015610f12573d6000803e3d6000fd5b50505050506040513d6020811015610f2957600080fd5b50516040805163a9059cbb60e01b81526001600160a01b038a81166004830152602482018490529151929450908e169163a9059cbb916044808201926020929091908290030181600087803b158015610f8157600080fd5b505af1158015610f95573d6000803e3d6000fd5b505050506040513d6020811015610fab57600080fd5b5050604080516370a0823160e01b815230600482015290516001600160a01b03808f1692637237e03192918a16916370a0823191602480820192602092909190829003018186803b158015610fff57600080fd5b505afa158015611013573d6000803e3d6000fd5b505050506040513d602081101561102957600080fd5b5051604080517fffffffff0000000000000000000000000000000000000000000000000000000060e085901b168152600481019290925260016024830152604482018d90526001600160a01b038b1660648301525160848083019260209291908290030181600087803b15801561109f57600080fd5b505af11580156110b3573d6000803e3d6000fd5b505050506040513d60208110156110c957600080fd5b505190509a509a98505050505050505050565b6110e4610bb5565b61111f5760405162461bcd60e51b815260040180806020018281038252602c8152602001806116d9602c913960400191505060405180910390fd5b606780546001600160a01b0319166001600160a01b0392909216919091179055565b60006001600160a01b038416318161115982856113fe565b90506000856001600160a01b03166370a08231886040518263ffffffff1660e01b815260040180826001600160a01b03166001600160a01b0316815260200191505060206040518083038186803b1580156111b357600080fd5b505afa1580156111c7573d6000803e3d6000fd5b505050506040513d60208110156111dd57600080fd5b505190506111f46111ee8683611447565b836114a0565b600101979650505050505050565b606754604080516303795fb160e11b81526001600160a01b038481166004830152915160009392909216916306f2bf6291602480820192602092909190829003018186803b15801561125357600080fd5b505afa158015611267573d6000803e3d6000fd5b505050506040513d602081101561127d57600080fd5b505192915050565b606654600090819060ff16156112d7576040805162461bcd60e51b815260206004820152601260248201527115195b5c1bdc985c9a5b1e4814185d5cd95960721b604482015290519081900360640190fd5b6040805160018082528183019092526060916020808301908038833901905050905060008160008151811061130857fe5b60200260200101818152505061138461132085611202565b61132934610bd1565b61134561133588611202565b61133e34610bd1565b60c86109fd565b61134d610bf0565b6113786113598a611202565b8a61137361136634610bd1565b349063ffffffff6113fe16565b611141565b338a6000896000610c09565b9250925050915091565b6069546001600160a01b031681565b6068546001600160a01b031681565b6113b4610bb5565b6113ef5760405162461bcd60e51b815260040180806020018281038252602c8152602001806116d9602c913960400191505060405180910390fd5b61071b8161153c565b303b1590565b600061144083836040518060400160405280601e81526020017f536166654d6174683a207375627472616374696f6e206f766572666c6f7700008152506115b6565b9392505050565b60008261145657506000610bea565b8282028284828161146357fe5b04146114405760405162461bcd60e51b81526004018080602001828103825260218152602001806117056021913960400191505060405180910390fd5b600061144083836040518060400160405280601a81526020017f536166654d6174683a206469766973696f6e206279207a65726f00000000000081525061164d565b600082820183811015611440576040805162461bcd60e51b815260206004820152601b60248201527f536166654d6174683a206164646974696f6e206f766572666c6f770000000000604482015290519081900360640190fd5b6001600160a01b0381166115815760405162461bcd60e51b81526004018080602001828103825260268152602001806116b36026913960400191505060405180910390fd5b606680546001600160a01b039092166101000274ffffffffffffffffffffffffffffffffffffffff0019909216919091179055565b600081848411156116455760405162461bcd60e51b81526004018080602001828103825283818151815260200191508051906020019080838360005b8381101561160a5781810151838201526020016115f2565b50505050905090810190601f1680156116375780820380516001836020036101000a031916815260200191505b509250505060405180910390fd5b505050900390565b6000818361169c5760405162461bcd60e51b815260206004820181815283516024840152835190928392604490910191908501908083836000831561160a5781810151838201526020016115f2565b5060008385816116a857fe5b049594505050505056fe4f776e61626c653a206e6577206f776e657220697320746865207a65726f2061646472657373796f7520617265206e6f7420617574686f726973656420746f2063616c6c20746869732066756e6374696f6e536166654d6174683a206d756c7469706c69636174696f6e206f766572666c6f77436f6e747261637420696e7374616e63652068617320616c7265616479206265656e20696e697469616c697a6564a265627a7a72315820e7610d999fa8d6141de69d5ec2693c4043056ee42f3389f4efcc9c7f39938c6064736f6c634300050d0032",
  "compiler": {
    "name": "solc",
    "version": "0.5.13+commit.5b0b510c.Emscripten.clang",
    "optimizer": {
      "enabled": true,
      "runs": 500
    },
    "evmVersion": "petersburg"
  }
}