{
  "fileName": "UniSwapAddLiquidityV4_UpgradableGeneral.sol",
  "contractName": "UniSwapAddLiquityV4_General",
  "source": "// Copyright (C) 2019, 2020 dipeshsukhani, nodarjonashia, suhailg\n\n// This program is free software: you can redistribute it and/or modify\n// it under the terms of the GNU Affero General Public License as published by\n// the Free Software Foundation, either version 2 of the License, or\n// (at your option) any later version.\n//\n// This program is distributed in the hope that it will be useful,\n// but WITHOUT ANY WARRANTY; without even the implied warranty of\n// MERCHANTABILITY or FITNESS FOR A PARTICULAR PURPOSE.  See the\n// GNU Affero General Public License for more details.\n//\n// Visit <https://www.gnu.org/licenses/>for a copy of the GNU Affero General Public License\n\n/**\n * WARNING: This is an upgradable contract. Be careful not to disrupt\n * the existing storage layout when making upgrades to the contract. In particular,\n * existing fields should not be removed and should not have their types changed.\n * The order of field declarations must not be changed, and new fields must be added\n * below all existing declarations.\n *\n * The base contracts and the order in which they are declared must not be changed.\n * New fields must not be added to base contracts (unless the base contract has\n * reserved placeholder fields for this purpose).\n *\n * See https://docs.zeppelinos.org/docs/writing_contracts.html for more info.\n*/\n\npragma solidity ^0.5.0;\n\nimport \"../../../node_modules/@openzeppelin/upgrades/contracts/Initializable.sol\";\nimport \"../../../node_modules/@openzeppelin/contracts-ethereum-package/contracts/math/SafeMath.sol\";\nimport \"../../../node_modules/@openzeppelin/contracts-ethereum-package/contracts/token/ERC20/IERC20.sol\";\nimport \"../../../node_modules/@openzeppelin/contracts-ethereum-package/contracts/utils/ReentrancyGuard.sol\";\n\n///@author DeFiZap\n///@notice this contract implements one click conversion from ETH to unipool liquidity tokens\n\ninterface IoneSplit_UniPoolGeneralv4 {\n    function swap(\n        IERC20 fromToken,\n        IERC20 toToken,\n        uint256 amount,\n        uint256 minReturn,\n        uint256[] calldata distribution, // [Uniswap, Kyber, Bancor, Oasis]\n        uint256 disableFlags // 16 - Compound, 32 - Fulcrum, 64 - Chai, 128 - Aave, 256 - SmartToken, 1024 - bDAI\n    ) external payable;\n}\n\ninterface IuniswapFactory_UniPoolGeneralv4 {\n    function getExchange(address token)\n        external\n        view\n        returns (address exchange);\n}\n\ninterface IuniswapExchange_UniPoolGeneralv4 {\n    function getEthToTokenInputPrice(uint256 eth_sold)\n        external\n        view\n        returns (uint256 tokens_bought);\n    function ethToTokenSwapInput(uint256 min_tokens, uint256 deadline)\n        external\n        payable\n        returns (uint256 tokens_bought);\n    function balanceOf(address _owner) external view returns (uint256);\n    function transfer(address _to, uint256 _value) external returns (bool);\n    function addLiquidity(\n        uint256 min_liquidity,\n        uint256 max_tokens,\n        uint256 deadline\n    ) external payable returns (uint256);\n    function tokenToEthSwapInput(\n        uint256 tokens_sold,\n        uint256 min_eth,\n        uint256 deadline\n    ) external returns (uint256 eth_bought);\n    function tokenToEthTransferInput(\n        uint256 tokens_sold,\n        uint256 min_eth,\n        uint256 deadline,\n        address recipient\n    ) external returns (uint256 eth_bought);\n}\n\ncontract UniSwapAddLiquityV4_General is Initializable, ReentrancyGuard {\n    using SafeMath for uint256;\n\n    // state variables\n\n    // - THESE MUST ALWAYS STAY IN THE SAME LAYOUT\n    bool private stopped;\n    address payable public owner;\n    IuniswapFactory_UniPoolGeneralv4 public UniSwapFactoryAddress;\n    IoneSplit_UniPoolGeneralv4 public oneSplitAddress;\n    uint16 public conversionPortionNumber;\n\n    // events\n    event ERC20TokenHoldingsOnConversion(uint256);\n    event uniswapGeneralv4_details(\n        address indexed _user,\n        address indexed _tokenContractAddress,\n        address indexed _uniswapExchangeAddress,\n        uint256 _ethDeployed,\n        uint256 _liquidityTokens\n    );\n\n    // circuit breaker modifiers\n    modifier stopInEmergency {\n        if (stopped) {\n            revert(\"Temporarily Paused\");\n        } else {\n            _;\n        }\n    }\n    modifier onlyOwner() {\n        require(isOwner(), \"you are not authorised to call this function\");\n        _;\n    }\n\n    function initialize(address _UniSwapFactoryAddress,address _oneSplitAddress,uint16 _conversionPortionNumber) public initializer {\n        ReentrancyGuard.initialize();\n        stopped = false;\n        owner = msg.sender;\n        UniSwapFactoryAddress = IuniswapFactory_UniPoolGeneralv4(\n            _UniSwapFactoryAddress\n        );\n        oneSplitAddress = IoneSplit_UniPoolGeneralv4(_oneSplitAddress);\n        conversionPortionNumber = _conversionPortionNumber;\n    }\n\n    function set_new_UniSwapFactoryAddress(address _new_UniSwapFactoryAddress)\n        public\n        onlyOwner\n    {\n        UniSwapFactoryAddress = IuniswapFactory_UniPoolGeneralv4(\n            _new_UniSwapFactoryAddress\n        );\n\n    }\n\n    function set_new_oneSplitAddress(address _new_oneSplitAddress)\n        public\n        onlyOwner\n    {\n        oneSplitAddress = IoneSplit_UniPoolGeneralv4(\n            _new_oneSplitAddress\n        );\n\n    }\n    \n    function set_new_conversionPortionNumber(uint16 _conversionPortionNumber)\n        public\n        onlyOwner\n    {\n        conversionPortionNumber = _conversionPortionNumber;\n\n    }\n\n    function LetsInvest(address _TokenContractAddress, address _towhomtoissue, uint[] memory distribution, uint _minimumReturn)\n        public\n        payable\n        stopInEmergency\n        returns (uint256)\n    {\n        IuniswapExchange_UniPoolGeneralv4 UniSwapExchangeContractAddress = IuniswapExchange_UniPoolGeneralv4(\n            UniSwapFactoryAddress.getExchange(_TokenContractAddress)\n        );\n\n        // determining the portion of the incoming ETH to be converted to the ERC20 Token\n        uint256 conversionPortion = SafeMath.div(\n            SafeMath.mul(msg.value, conversionPortionNumber),\n            10000\n        );\n        oneSplitAddress.swap.value(conversionPortion)(IERC20(0xEeeeeEeeeEeEeeEeEeEeeEEEeeeeEeeeeeeeEEeE),\n            IERC20(_TokenContractAddress),conversionPortion, ((_minimumReturn).mul(99)).div(100), distribution, 0);\n        uint erc20balance = IERC20(_TokenContractAddress).balanceOf(address(this));\n        require(\n            erc20balance > 0,\n            \"the conversion did not happen as planned\"\n        );\n        // adding Liquidity\n        IERC20(_TokenContractAddress).approve(address(UniSwapExchangeContractAddress), erc20balance);\n        uint256 max_tokens_ans = getMaxTokens(\n            address(UniSwapExchangeContractAddress),\n            IERC20(_TokenContractAddress),\n            (msg.value).sub(conversionPortion)\n        );\n        uint256 LiquidityTokens = UniSwapExchangeContractAddress\n            .addLiquidity\n            .value((msg.value).sub(conversionPortion))(\n            1,\n            max_tokens_ans,\n            SafeMath.add(now, 1800)\n        );\n\n        // transferring Liquidity\n        UniSwapExchangeContractAddress.transfer(\n            _towhomtoissue,\n            UniSwapExchangeContractAddress.balanceOf(address(this))\n        );\n\n        // converting the residual\n        sendbackresidual(_towhomtoissue, IERC20(_TokenContractAddress), UniSwapExchangeContractAddress);\n        emit uniswapGeneralv4_details(\n            _towhomtoissue,\n            address(IERC20(_TokenContractAddress)),\n            address(UniSwapExchangeContractAddress),\n            msg.value,\n            LiquidityTokens\n        );\n        return LiquidityTokens;\n    }\n    \n    function sendbackresidual(address _towhomtoissue, IERC20 _TokenContractAddress, IuniswapExchange_UniPoolGeneralv4 UniSwapExchangeContractAddress) internal {\n        UniSwapExchangeContractAddress.tokenToEthTransferInput(\n            _TokenContractAddress.balanceOf(address(this)),\n            1,\n            SafeMath.add(now, 1800),\n            _towhomtoissue\n        );    \n    }\n    \n    function getMaxTokens(\n        address _UniSwapExchangeContractAddress,\n        IERC20 _ERC20TokenAddress,\n        uint256 _value\n    ) internal view returns (uint256) {\n        uint256 contractBalance = address(_UniSwapExchangeContractAddress)\n            .balance;\n        uint256 eth_reserve = SafeMath.sub(contractBalance, _value);\n        uint256 token_reserve = _ERC20TokenAddress.balanceOf(\n            _UniSwapExchangeContractAddress\n        );\n        uint256 token_amount = SafeMath.div(\n            SafeMath.mul(_value, token_reserve),\n            eth_reserve\n        ) +\n            1;\n        return token_amount;\n    }\n\n    function inCaseTokengetsStuck(IERC20 _TokenAddress) public onlyOwner {\n        uint256 qty = _TokenAddress.balanceOf(address(this));\n        _TokenAddress.transfer(owner, qty);\n    }\n\n    // - fallback function let you / anyone send ETH to this wallet without the need to call any function\n    function() external payable {\n        revert(\"not allowed\");\n    }\n\n    // - to Pause the contract\n    function toggleContractActive() public onlyOwner {\n        stopped = !stopped;\n    }\n\n    // - to withdraw any ETH balance sitting in the contract\n    function withdraw() public onlyOwner {\n        owner.transfer(address(this).balance);\n    }\n\n    /**\n     * @return true if `msg.sender` is the owner of the contract.\n     */\n    function isOwner() public view returns (bool) {\n        return msg.sender == owner;\n    }\n\n    /**\n     * @dev Transfers ownership of the contract to a new account (`newOwner`).\n     * Can only be called by the current owner.\n     */\n    function transferOwnership(address payable newOwner) public onlyOwner {\n        _transferOwnership(newOwner);\n    }\n\n    /**\n     * @dev Transfers ownership of the contract to a new account (`newOwner`).\n     */\n    function _transferOwnership(address payable newOwner) internal {\n        require(\n            newOwner != address(0),\n            \"Ownable: new owner is the zero address\"\n        );\n        owner = newOwner;\n    }\n\n}\n",
  "sourcePath": "contracts/UpdatedZaps/Done/UniSwapAddLiquidityV4_UpgradableGeneral.sol",
  "abi": [
    {
      "anonymous": false,
      "inputs": [
        {
          "indexed": false,
          "internalType": "uint256",
          "name": "",
          "type": "uint256"
        }
      ],
      "name": "ERC20TokenHoldingsOnConversion",
      "type": "event"
    },
    {
      "anonymous": false,
      "inputs": [
        {
          "indexed": true,
          "internalType": "address",
          "name": "_user",
          "type": "address"
        },
        {
          "indexed": true,
          "internalType": "address",
          "name": "_tokenContractAddress",
          "type": "address"
        },
        {
          "indexed": true,
          "internalType": "address",
          "name": "_uniswapExchangeAddress",
          "type": "address"
        },
        {
          "indexed": false,
          "internalType": "uint256",
          "name": "_ethDeployed",
          "type": "uint256"
        },
        {
          "indexed": false,
          "internalType": "uint256",
          "name": "_liquidityTokens",
          "type": "uint256"
        }
      ],
      "name": "uniswapGeneralv4_details",
      "type": "event"
    },
    {
      "payable": true,
      "stateMutability": "payable",
      "type": "fallback"
    },
    {
      "constant": false,
      "inputs": [
        {
          "internalType": "address",
          "name": "_TokenContractAddress",
          "type": "address"
        },
        {
          "internalType": "address",
          "name": "_towhomtoissue",
          "type": "address"
        },
        {
          "internalType": "uint256[]",
          "name": "distribution",
          "type": "uint256[]"
        },
        {
          "internalType": "uint256",
          "name": "_minimumReturn",
          "type": "uint256"
        }
      ],
      "name": "LetsInvest",
      "outputs": [
        {
          "internalType": "uint256",
          "name": "",
          "type": "uint256"
        }
      ],
      "payable": true,
      "stateMutability": "payable",
      "type": "function"
    },
    {
      "constant": true,
      "inputs": [],
      "name": "UniSwapFactoryAddress",
      "outputs": [
        {
          "internalType": "contract IuniswapFactory_UniPoolGeneralv4",
          "name": "",
          "type": "address"
        }
      ],
      "payable": false,
      "stateMutability": "view",
      "type": "function"
    },
    {
      "constant": true,
      "inputs": [],
      "name": "conversionPortionNumber",
      "outputs": [
        {
          "internalType": "uint16",
          "name": "",
          "type": "uint16"
        }
      ],
      "payable": false,
      "stateMutability": "view",
      "type": "function"
    },
    {
      "constant": false,
      "inputs": [
        {
          "internalType": "contract IERC20",
          "name": "_TokenAddress",
          "type": "address"
        }
      ],
      "name": "inCaseTokengetsStuck",
      "outputs": [],
      "payable": false,
      "stateMutability": "nonpayable",
      "type": "function"
    },
    {
      "constant": false,
      "inputs": [
        {
          "internalType": "address",
          "name": "_UniSwapFactoryAddress",
          "type": "address"
        },
        {
          "internalType": "address",
          "name": "_oneSplitAddress",
          "type": "address"
        },
        {
          "internalType": "uint16",
          "name": "_conversionPortionNumber",
          "type": "uint16"
        }
      ],
      "name": "initialize",
      "outputs": [],
      "payable": false,
      "stateMutability": "nonpayable",
      "type": "function"
    },
    {
      "constant": false,
      "inputs": [],
      "name": "initialize",
      "outputs": [],
      "payable": false,
      "stateMutability": "nonpayable",
      "type": "function"
    },
    {
      "constant": true,
      "inputs": [],
      "name": "isOwner",
      "outputs": [
        {
          "internalType": "bool",
          "name": "",
          "type": "bool"
        }
      ],
      "payable": false,
      "stateMutability": "view",
      "type": "function"
    },
    {
      "constant": true,
      "inputs": [],
      "name": "oneSplitAddress",
      "outputs": [
        {
          "internalType": "contract IoneSplit_UniPoolGeneralv4",
          "name": "",
          "type": "address"
        }
      ],
      "payable": false,
      "stateMutability": "view",
      "type": "function"
    },
    {
      "constant": true,
      "inputs": [],
      "name": "owner",
      "outputs": [
        {
          "internalType": "address payable",
          "name": "",
          "type": "address"
        }
      ],
      "payable": false,
      "stateMutability": "view",
      "type": "function"
    },
    {
      "constant": false,
      "inputs": [
        {
          "internalType": "address",
          "name": "_new_UniSwapFactoryAddress",
          "type": "address"
        }
      ],
      "name": "set_new_UniSwapFactoryAddress",
      "outputs": [],
      "payable": false,
      "stateMutability": "nonpayable",
      "type": "function"
    },
    {
      "constant": false,
      "inputs": [
        {
          "internalType": "uint16",
          "name": "_conversionPortionNumber",
          "type": "uint16"
        }
      ],
      "name": "set_new_conversionPortionNumber",
      "outputs": [],
      "payable": false,
      "stateMutability": "nonpayable",
      "type": "function"
    },
    {
      "constant": false,
      "inputs": [
        {
          "internalType": "address",
          "name": "_new_oneSplitAddress",
          "type": "address"
        }
      ],
      "name": "set_new_oneSplitAddress",
      "outputs": [],
      "payable": false,
      "stateMutability": "nonpayable",
      "type": "function"
    },
    {
      "constant": false,
      "inputs": [],
      "name": "toggleContractActive",
      "outputs": [],
      "payable": false,
      "stateMutability": "nonpayable",
      "type": "function"
    },
    {
      "constant": false,
      "inputs": [
        {
          "internalType": "address payable",
          "name": "newOwner",
          "type": "address"
        }
      ],
      "name": "transferOwnership",
      "outputs": [],
      "payable": false,
      "stateMutability": "nonpayable",
      "type": "function"
    },
    {
      "constant": false,
      "inputs": [],
      "name": "withdraw",
      "outputs": [],
      "payable": false,
      "stateMutability": "nonpayable",
      "type": "function"
    }
  ],
  "bytecode": "0x608060405234801561001057600080fd5b50611534806100206000396000f3fe6080604052600436106100e85760003560e01c80638129fc1c1161008a578063ae4de7fa11610059578063ae4de7fa146102db578063d79afac41461030e578063f2fde38b14610323578063fc70931914610356576100e8565b80638129fc1c1461025a5780638da5cb5b1461026f5780638f32d59b146102845780639e636af7146102ad576100e8565b8063551196d5116100c6578063551196d5146101805780636f6712bc146101b35780637c5f435d146101df5780637ebef52914610212576100e8565b80631385d24c146101235780633ccfd60b1461013a578063525d509e1461014f575b6040805162461bcd60e51b815260206004820152600b60248201526a1b9bdd08185b1b1bddd95960aa1b604482015290519081900360640190fd5b34801561012f57600080fd5b50610138610426565b005b34801561014657600080fd5b5061013861047d565b34801561015b57600080fd5b50610164610504565b604080516001600160a01b039092168252519081900360200190f35b34801561018c57600080fd5b50610138600480360360208110156101a357600080fd5b50356001600160a01b0316610513565b3480156101bf57600080fd5b506101c861065a565b6040805161ffff9092168252519081900360200190f35b3480156101eb57600080fd5b506101386004803603602081101561020257600080fd5b50356001600160a01b031661066b565b34801561021e57600080fd5b506101386004803603606081101561023557600080fd5b5080356001600160a01b03908116916020810135909116906040013561ffff166106d0565b34801561026657600080fd5b506101386107e6565b34801561027b57600080fd5b5061016461088c565b34801561029057600080fd5b506102996108a0565b604080519115158252519081900360200190f35b3480156102b957600080fd5b50610138600480360360208110156102d057600080fd5b503561ffff166108b6565b3480156102e757600080fd5b50610138600480360360208110156102fe57600080fd5b50356001600160a01b031661091b565b34801561031a57600080fd5b50610164610980565b34801561032f57600080fd5b506101386004803603602081101561034657600080fd5b50356001600160a01b031661098f565b6104146004803603608081101561036c57600080fd5b6001600160a01b0382358116926020810135909116918101906060810160408201356401000000008111156103a057600080fd5b8201836020820111156103b257600080fd5b803590602001918460208302840111640100000000831117156103d457600080fd5b91908080602002602001604051908101604052809392919081815260200183836020028082843760009201919091525092955050913592506109db915050565b60408051918252519081900360200190f35b61042e6108a0565b6104695760405162461bcd60e51b815260040180806020018281038252602c81526020018061145d602c913960400191505060405180910390fd5b6066805460ff19811660ff90911615179055565b6104856108a0565b6104c05760405162461bcd60e51b815260040180806020018281038252602c81526020018061145d602c913960400191505060405180910390fd5b6066546040516001600160a01b036101009092049190911690303180156108fc02916000818181858888f19350505050158015610501573d6000803e3d6000fd5b50565b6067546001600160a01b031681565b61051b6108a0565b6105565760405162461bcd60e51b815260040180806020018281038252602c81526020018061145d602c913960400191505060405180910390fd5b604080516370a0823160e01b815230600482015290516000916001600160a01b038416916370a0823191602480820192602092909190829003018186803b1580156105a057600080fd5b505afa1580156105b4573d6000803e3d6000fd5b505050506040513d60208110156105ca57600080fd5b50516066546040805163a9059cbb60e01b81526101009092046001600160a01b03908116600484015260248301849052905192935084169163a9059cbb916044808201926020929091908290030181600087803b15801561062a57600080fd5b505af115801561063e573d6000803e3d6000fd5b505050506040513d602081101561065457600080fd5b50505050565b606854600160a01b900461ffff1681565b6106736108a0565b6106ae5760405162461bcd60e51b815260040180806020018281038252602c81526020018061145d602c913960400191505060405180910390fd5b606880546001600160a01b0319166001600160a01b0392909216919091179055565b600054610100900460ff16806106e957506106e9610f88565b806106f7575060005460ff16155b6107325760405162461bcd60e51b815260040180806020018281038252602e8152602001806114d2602e913960400191505060405180910390fd5b600054610100900460ff1615801561075d576000805460ff1961ff0019909116610100171660011790555b6107656107e6565b60668054336101000274ffffffffffffffffffffffffffffffffffffffffff19909116179055606780546001600160a01b038681166001600160a01b0319928316179092556068805461ffff8616600160a01b0261ffff60a01b199488169190931617929092161790558015610654576000805461ff001916905550505050565b600054610100900460ff16806107ff57506107ff610f88565b8061080d575060005460ff16155b6108485760405162461bcd60e51b815260040180806020018281038252602e8152602001806114d2602e913960400191505060405180910390fd5b600054610100900460ff16158015610873576000805460ff1961ff0019909116610100171660011790555b60016033558015610501576000805461ff001916905550565b60665461010090046001600160a01b031681565b60665461010090046001600160a01b0316331490565b6108be6108a0565b6108f95760405162461bcd60e51b815260040180806020018281038252602c81526020018061145d602c913960400191505060405180910390fd5b6068805461ffff909216600160a01b0261ffff60a01b19909216919091179055565b6109236108a0565b61095e5760405162461bcd60e51b815260040180806020018281038252602c81526020018061145d602c913960400191505060405180910390fd5b606780546001600160a01b0319166001600160a01b0392909216919091179055565b6068546001600160a01b031681565b6109976108a0565b6109d25760405162461bcd60e51b815260040180806020018281038252602c81526020018061145d602c913960400191505060405180910390fd5b61050181610f8e565b60665460009060ff1615610a36576040805162461bcd60e51b815260206004820152601260248201527f54656d706f726172696c79205061757365640000000000000000000000000000604482015290519081900360640190fd5b606754604080516303795fb160e11b81526001600160a01b038881166004830152915160009392909216916306f2bf6291602480820192602092909190829003018186803b158015610a8757600080fd5b505afa158015610a9b573d6000803e3d6000fd5b505050506040513d6020811015610ab157600080fd5b5051606854909150600090610ade90610ad6903490600160a01b900461ffff16611008565b61271061106a565b6068549091506001600160a01b031663e2a7515e8273eeeeeeeeeeeeeeeeeeeeeeeeeeeeeeeeeeeeeeee8a82610b2c6064610b208c606363ffffffff61100816565b9063ffffffff61106a16565b8b60006040518863ffffffff1660e01b815260040180876001600160a01b03166001600160a01b03168152602001866001600160a01b03166001600160a01b0316815260200185815260200184815260200180602001838152602001828103825284818151815260200191508051906020019060200280838360005b83811015610bc0578181015183820152602001610ba8565b505050509050019750505050505050506000604051808303818588803b158015610be957600080fd5b505af1158015610bfd573d6000803e3d6000fd5b5050604080516370a0823160e01b81523060048201529051600094506001600160a01b038c1693506370a0823192506024808301926020929190829003018186803b158015610c4b57600080fd5b505afa158015610c5f573d6000803e3d6000fd5b505050506040513d6020811015610c7557600080fd5b5051905080610cb55760405162461bcd60e51b81526004018080602001828103825260288152602001806114aa6028913960400191505060405180910390fd5b876001600160a01b031663095ea7b384836040518363ffffffff1660e01b815260040180836001600160a01b03166001600160a01b0316815260200182815260200192505050602060405180830381600087803b158015610d1557600080fd5b505af1158015610d29573d6000803e3d6000fd5b505050506040513d6020811015610d3f57600080fd5b5060009050610d5e848a610d59348763ffffffff6110ac16565b6110ee565b905060006001600160a01b03851663422f1043610d81348763ffffffff6110ac16565b600185610d90426107086111b2565b6040518563ffffffff1660e01b81526004018084815260200183815260200182815260200193505050506020604051808303818588803b158015610dd357600080fd5b505af1158015610de7573d6000803e3d6000fd5b50505050506040513d6020811015610dfe57600080fd5b5051604080516370a0823160e01b815230600482015290519192506001600160a01b0387169163a9059cbb918c9184916370a08231916024808301926020929190829003018186803b158015610e5357600080fd5b505afa158015610e67573d6000803e3d6000fd5b505050506040513d6020811015610e7d57600080fd5b5051604080517fffffffff0000000000000000000000000000000000000000000000000000000060e086901b1681526001600160a01b03909316600484015260248301919091525160448083019260209291908290030181600087803b158015610ee657600080fd5b505af1158015610efa573d6000803e3d6000fd5b505050506040513d6020811015610f1057600080fd5b50610f1e9050898b8761120c565b846001600160a01b03168a6001600160a01b03168a6001600160a01b03167fde6e74f145c7ac5fa30a69c39e8ee5de7333df1c92906f5fbe601fc78c1083e73485604051808381526020018281526020019250505060405180910390a49998505050505050505050565b303b1590565b6001600160a01b038116610fd35760405162461bcd60e51b81526004018080602001828103825260268152602001806114376026913960400191505060405180910390fd5b606680546001600160a01b039092166101000274ffffffffffffffffffffffffffffffffffffffff0019909216919091179055565b60008261101757506000611064565b8282028284828161102457fe5b04146110615760405162461bcd60e51b81526004018080602001828103825260218152602001806114896021913960400191505060405180910390fd5b90505b92915050565b600061106183836040518060400160405280601a81526020017f536166654d6174683a206469766973696f6e206279207a65726f00000000000081525061133a565b600061106183836040518060400160405280601e81526020017f536166654d6174683a207375627472616374696f6e206f766572666c6f7700008152506113dc565b60006001600160a01b038416318161110682856110ac565b90506000856001600160a01b03166370a08231886040518263ffffffff1660e01b815260040180826001600160a01b03166001600160a01b0316815260200191505060206040518083038186803b15801561116057600080fd5b505afa158015611174573d6000803e3d6000fd5b505050506040513d602081101561118a57600080fd5b5051905060006111a361119d8784611008565b8461106a565b60010198975050505050505050565b600082820183811015611061576040805162461bcd60e51b815260206004820152601b60248201527f536166654d6174683a206164646974696f6e206f766572666c6f770000000000604482015290519081900360640190fd5b806001600160a01b0316637237e031836001600160a01b03166370a08231306040518263ffffffff1660e01b815260040180826001600160a01b03166001600160a01b0316815260200191505060206040518083038186803b15801561127157600080fd5b505afa158015611285573d6000803e3d6000fd5b505050506040513d602081101561129b57600080fd5b505160016112ab426107086111b2565b876040518563ffffffff1660e01b815260040180858152602001848152602001838152602001826001600160a01b03166001600160a01b03168152602001945050505050602060405180830381600087803b15801561130957600080fd5b505af115801561131d573d6000803e3d6000fd5b505050506040513d602081101561133357600080fd5b5050505050565b600081836113c65760405162461bcd60e51b81526004018080602001828103825283818151815260200191508051906020019080838360005b8381101561138b578181015183820152602001611373565b50505050905090810190601f1680156113b85780820380516001836020036101000a031916815260200191505b509250505060405180910390fd5b5060008385816113d257fe5b0495945050505050565b6000818484111561142e5760405162461bcd60e51b815260206004820181815283516024840152835190928392604490910191908501908083836000831561138b578181015183820152602001611373565b50505090039056fe4f776e61626c653a206e6577206f776e657220697320746865207a65726f2061646472657373796f7520617265206e6f7420617574686f726973656420746f2063616c6c20746869732066756e6374696f6e536166654d6174683a206d756c7469706c69636174696f6e206f766572666c6f7774686520636f6e76657273696f6e20646964206e6f742068617070656e20617320706c616e6e6564436f6e747261637420696e7374616e63652068617320616c7265616479206265656e20696e697469616c697a6564a265627a7a723158207191c4444059bc604fe9af3ce13865aa843280cbd310b7929a3fd5d2956d0e5a64736f6c634300050d0032",
  "compiler": {
    "name": "solc",
    "version": "0.5.13+commit.5b0b510c.Emscripten.clang",
    "optimizer": {
      "enabled": true,
      "runs": 500
    },
    "evmVersion": "petersburg"
  }
}