{
  "fileName": "Uniswap_ETH_LinkZap.sol",
  "contractName": "UniSwap_ETH_LinkZap",
  "source": "// Copyright (C) 2019, 2020 dipeshsukhani, nodarjonashi, toshsharma, suhailg\n\n// This program is free software: you can redistribute it and/or modify\n// it under the terms of the GNU Affero General Public License as published by\n// the Free Software Foundation, either version 2 of the License, or\n// (at your option) any later version.\n//\n// This program is distributed in the hope that it will be useful,\n// but WITHOUT ANY WARRANTY; without even the implied warranty of\n// MERCHANTABILITY or FITNESS FOR A PARTICULAR PURPOSE.  See the\n// GNU Affero General Public License for more details.\n//\n// Visit <https://www.gnu.org/licenses/>for a copy of the GNU Affero General Public License\n\n/**\n * WARNING: This is an upgradable contract. Be careful not to disrupt\n * the existing storage layout when making upgrades to the contract. In particular,\n * existing fields should not be removed and should not have their types changed.\n * The order of field declarations must not be changed, and new fields must be added\n * below all existing declarations.\n *\n * The base contracts and the order in which they are declared must not be changed.\n * New fields must not be added to base contracts (unless the base contract has\n * reserved placeholder fields for this purpose).\n *\n * See https://docs.zeppelinos.org/docs/writing_contracts.html for more info.\n*/\n\npragma solidity ^0.5.0;\n\nimport \"../../../node_modules/@openzeppelin/upgrades/contracts/Initializable.sol\";\nimport \"../../../node_modules/@openzeppelin/contracts-ethereum-package/contracts/math/SafeMath.sol\";\nimport \"../../../node_modules/@openzeppelin/contracts-ethereum-package/contracts/token/ERC20/IERC20.sol\";\n\n\ninterface UniSwapAddLiquityV2_General {\n    function LetsInvest(address _TokenContractAddress, address _towhomtoissue) external payable returns (uint);\n}\n\n\n// through this contract we are putting 34% allocation to 2xLongETH and 66% to Uniswap pool\ncontract UniSwap_ETH_LinkZap is Initializable {\n    using SafeMath for uint;\n    \n    // state variables\n\n    // - THESE MUST ALWAYS STAY IN THE SAME LAYOUT\n    bool private stopped;\n    address payable public owner;\n    UniSwapAddLiquityV2_General public UniSwapAddLiquityV2_GeneralAddress;\n    address public LINK_TOKEN_ADDRESS;\n\n    // circuit breaker modifiers\n    modifier stopInEmergency {\n        if (stopped) \n            {revert(\"Temporarily Paused\");} \n        else {\n            _;}\n        }\n    modifier onlyOwner() {\n        require(isOwner(), \"you are not authorised to call this function\");\n        _;\n    }\n    \n    function initialize (address _UniSwapAddLiquityV2_GeneralAddress, address _LINK_TOKEN_ADDRESS) initializer public {\n        stopped = false;\n        owner = msg.sender;\n        UniSwapAddLiquityV2_GeneralAddress = UniSwapAddLiquityV2_General(_UniSwapAddLiquityV2_GeneralAddress);\n        LINK_TOKEN_ADDRESS = _LINK_TOKEN_ADDRESS;\n    }\n\n    // this function should be called should we ever want to change the underlying Kyber Interface Contract address\n    function set_UniSwapAddLiquityV2_GeneralAddress(address _new_UniSwapAddLiquityV2_GeneralAddress) public onlyOwner {\n        UniSwapAddLiquityV2_GeneralAddress = UniSwapAddLiquityV2_General (_new_UniSwapAddLiquityV2_GeneralAddress);\n    }\n    \n    // this function should be called should we ever want to change the LINK token address\n    function set_new_LINK_TOKEN_ADDRESS(address _new_LINK_TOKEN_ADDRESS) public onlyOwner {\n        LINK_TOKEN_ADDRESS = _new_LINK_TOKEN_ADDRESS;\n    }\n    \n    // main function which will make the investments\n    function LetsInvest(address payable _towhomtoIssueAddress, uint _slippage, bool _residualInToken) public payable returns(uint) {\n        uint LiquidityTokens = UniSwapAddLiquityV2_GeneralAddress.LetsInvest.value(msg.value)(LINK_TOKEN_ADDRESS, _towhomtoIssueAddress);\n        return (LiquidityTokens);\n    }\n\n    function inCaseTokengetsStuck(IERC20 _TokenAddress) onlyOwner public {\n        uint qty = _TokenAddress.balanceOf(address(this));\n        _TokenAddress.transfer(owner, qty);\n    }\n\n\n    // - fallback function let you / anyone send ETH to this wallet without the need to call any function\n    function() external payable {\n        if (msg.sender != owner) {\n            LetsInvest(msg.sender, 5, false);}\n    }\n    \n    // - to Pause the contract\n    function toggleContractActive() onlyOwner public {\n        stopped = !stopped;\n    }\n\n    // - to withdraw any ETH balance sitting in the contract\n    function withdraw() onlyOwner public{\n        owner.transfer(address(this).balance);\n    }\n    \n    // - to kill the contract\n    function destruct() public onlyOwner {\n        selfdestruct(owner);\n    }\n\n\n    /**\n     * @return true if `msg.sender` is the owner of the contract.\n     */\n    function isOwner() public view returns (bool) {\n        return msg.sender == owner;\n    }\n\n    /**\n     * @dev Transfers ownership of the contract to a new account (`newOwner`).\n     * Can only be called by the current owner.\n     */\n    function transferOwnership(address payable newOwner) public onlyOwner {\n        _transferOwnership(newOwner);\n    }\n\n    /**\n     * @dev Transfers ownership of the contract to a new account (`newOwner`).\n     */\n    function _transferOwnership(address payable newOwner) internal {\n        require(newOwner != address(0), \"Ownable: new owner is the zero address\");\n        owner = newOwner;\n    }\n\n}\n",
  "sourcePath": "contracts/UpdatedZaps/Done/Uniswap_ETH_LinkZap.sol",
  "abi": [
    {
      "payable": true,
      "stateMutability": "payable",
      "type": "fallback"
    },
    {
      "constant": true,
      "inputs": [],
      "name": "LINK_TOKEN_ADDRESS",
      "outputs": [
        {
          "internalType": "address",
          "name": "",
          "type": "address"
        }
      ],
      "payable": false,
      "stateMutability": "view",
      "type": "function"
    },
    {
      "constant": false,
      "inputs": [
        {
          "internalType": "address payable",
          "name": "_towhomtoIssueAddress",
          "type": "address"
        },
        {
          "internalType": "uint256",
          "name": "_slippage",
          "type": "uint256"
        },
        {
          "internalType": "bool",
          "name": "_residualInToken",
          "type": "bool"
        }
      ],
      "name": "LetsInvest",
      "outputs": [
        {
          "internalType": "uint256",
          "name": "",
          "type": "uint256"
        }
      ],
      "payable": true,
      "stateMutability": "payable",
      "type": "function"
    },
    {
      "constant": true,
      "inputs": [],
      "name": "UniSwapAddLiquityV2_GeneralAddress",
      "outputs": [
        {
          "internalType": "contract UniSwapAddLiquityV2_General",
          "name": "",
          "type": "address"
        }
      ],
      "payable": false,
      "stateMutability": "view",
      "type": "function"
    },
    {
      "constant": false,
      "inputs": [],
      "name": "destruct",
      "outputs": [],
      "payable": false,
      "stateMutability": "nonpayable",
      "type": "function"
    },
    {
      "constant": false,
      "inputs": [
        {
          "internalType": "contract IERC20",
          "name": "_TokenAddress",
          "type": "address"
        }
      ],
      "name": "inCaseTokengetsStuck",
      "outputs": [],
      "payable": false,
      "stateMutability": "nonpayable",
      "type": "function"
    },
    {
      "constant": false,
      "inputs": [
        {
          "internalType": "address",
          "name": "_UniSwapAddLiquityV2_GeneralAddress",
          "type": "address"
        },
        {
          "internalType": "address",
          "name": "_LINK_TOKEN_ADDRESS",
          "type": "address"
        }
      ],
      "name": "initialize",
      "outputs": [],
      "payable": false,
      "stateMutability": "nonpayable",
      "type": "function"
    },
    {
      "constant": true,
      "inputs": [],
      "name": "isOwner",
      "outputs": [
        {
          "internalType": "bool",
          "name": "",
          "type": "bool"
        }
      ],
      "payable": false,
      "stateMutability": "view",
      "type": "function"
    },
    {
      "constant": true,
      "inputs": [],
      "name": "owner",
      "outputs": [
        {
          "internalType": "address payable",
          "name": "",
          "type": "address"
        }
      ],
      "payable": false,
      "stateMutability": "view",
      "type": "function"
    },
    {
      "constant": false,
      "inputs": [
        {
          "internalType": "address",
          "name": "_new_UniSwapAddLiquityV2_GeneralAddress",
          "type": "address"
        }
      ],
      "name": "set_UniSwapAddLiquityV2_GeneralAddress",
      "outputs": [],
      "payable": false,
      "stateMutability": "nonpayable",
      "type": "function"
    },
    {
      "constant": false,
      "inputs": [
        {
          "internalType": "address",
          "name": "_new_LINK_TOKEN_ADDRESS",
          "type": "address"
        }
      ],
      "name": "set_new_LINK_TOKEN_ADDRESS",
      "outputs": [],
      "payable": false,
      "stateMutability": "nonpayable",
      "type": "function"
    },
    {
      "constant": false,
      "inputs": [],
      "name": "toggleContractActive",
      "outputs": [],
      "payable": false,
      "stateMutability": "nonpayable",
      "type": "function"
    },
    {
      "constant": false,
      "inputs": [
        {
          "internalType": "address payable",
          "name": "newOwner",
          "type": "address"
        }
      ],
      "name": "transferOwnership",
      "outputs": [],
      "payable": false,
      "stateMutability": "nonpayable",
      "type": "function"
    },
    {
      "constant": false,
      "inputs": [],
      "name": "withdraw",
      "outputs": [],
      "payable": false,
      "stateMutability": "nonpayable",
      "type": "function"
    }
  ],
  "bytecode": "0x608060405234801561001057600080fd5b506109a6806100206000396000f3fe6080604052600436106100d25760003560e01c8063551196d51161007f5780639313b1f9116100595780639313b1f91461022b578063c82733801461025e578063dc29cda1146102a4578063f2fde38b146102d7576100d2565b8063551196d5146101ba5780638da5cb5b146101ed5780638f32d59b14610202576100d2565b80633ccfd60b116100b05780633ccfd60b1461015557806341a0622c1461016a578063485cc9551461017f576100d2565b806302598e0a146100fa5780631385d24c1461012b5780632b68b9c614610140575b60335461010090046001600160a01b031633146100f8576100f6336005600061030a565b505b005b34801561010657600080fd5b5061010f61039e565b604080516001600160a01b039092168252519081900360200190f35b34801561013757600080fd5b506100f86103ad565b34801561014c57600080fd5b506100f8610404565b34801561016157600080fd5b506100f861045a565b34801561017657600080fd5b5061010f6104e1565b34801561018b57600080fd5b506100f8600480360360408110156101a257600080fd5b506001600160a01b03813581169160200135166104f0565b3480156101c657600080fd5b506100f8600480360360208110156101dd57600080fd5b50356001600160a01b03166105ea565b3480156101f957600080fd5b5061010f610731565b34801561020e57600080fd5b50610217610745565b604080519115158252519081900360200190f35b34801561023757600080fd5b506100f86004803603602081101561024e57600080fd5b50356001600160a01b031661075b565b6102926004803603606081101561027457600080fd5b506001600160a01b038135169060208101359060400135151561030a565b60408051918252519081900360200190f35b3480156102b057600080fd5b506100f8600480360360208110156102c757600080fd5b50356001600160a01b03166107c0565b3480156102e357600080fd5b506100f8600480360360208110156102fa57600080fd5b50356001600160a01b0316610825565b60345460355460408051633a2a66cf60e01b81526001600160a01b0392831660048201528683166024820152905160009384931691633a2a66cf91349160448082019260209290919082900301818588803b15801561036857600080fd5b505af115801561037c573d6000803e3d6000fd5b50505050506040513d602081101561039357600080fd5b505195945050505050565b6035546001600160a01b031681565b6103b5610745565b6103f05760405162461bcd60e51b815260040180806020018281038252602c815260200180610918602c913960400191505060405180910390fd5b6033805460ff19811660ff90911615179055565b61040c610745565b6104475760405162461bcd60e51b815260040180806020018281038252602c815260200180610918602c913960400191505060405180910390fd5b60335461010090046001600160a01b0316ff5b610462610745565b61049d5760405162461bcd60e51b815260040180806020018281038252602c815260200180610918602c913960400191505060405180910390fd5b6033546040516001600160a01b036101009092049190911690303180156108fc02916000818181858888f193505050501580156104de573d6000803e3d6000fd5b50565b6034546001600160a01b031681565b600054610100900460ff16806105095750610509610871565b80610517575060005460ff16155b6105525760405162461bcd60e51b815260040180806020018281038252602e815260200180610944602e913960400191505060405180910390fd5b600054610100900460ff1615801561057d576000805460ff1961ff0019909116610100171660011790555b60338054336101000274ffffffffffffffffffffffffffffffffffffffffff19909116179055603480546001600160a01b038581166001600160a01b031992831617909255603580549285169290911691909117905580156105e5576000805461ff00191690555b505050565b6105f2610745565b61062d5760405162461bcd60e51b815260040180806020018281038252602c815260200180610918602c913960400191505060405180910390fd5b604080516370a0823160e01b815230600482015290516000916001600160a01b038416916370a0823191602480820192602092909190829003018186803b15801561067757600080fd5b505afa15801561068b573d6000803e3d6000fd5b505050506040513d60208110156106a157600080fd5b50516033546040805163a9059cbb60e01b81526101009092046001600160a01b03908116600484015260248301849052905192935084169163a9059cbb916044808201926020929091908290030181600087803b15801561070157600080fd5b505af1158015610715573d6000803e3d6000fd5b505050506040513d602081101561072b57600080fd5b50505050565b60335461010090046001600160a01b031681565b60335461010090046001600160a01b0316331490565b610763610745565b61079e5760405162461bcd60e51b815260040180806020018281038252602c815260200180610918602c913960400191505060405180910390fd5b603480546001600160a01b0319166001600160a01b0392909216919091179055565b6107c8610745565b6108035760405162461bcd60e51b815260040180806020018281038252602c815260200180610918602c913960400191505060405180910390fd5b603580546001600160a01b0319166001600160a01b0392909216919091179055565b61082d610745565b6108685760405162461bcd60e51b815260040180806020018281038252602c815260200180610918602c913960400191505060405180910390fd5b6104de81610877565b303b1590565b6001600160a01b0381166108bc5760405162461bcd60e51b81526004018080602001828103825260268152602001806108f26026913960400191505060405180910390fd5b603380546001600160a01b039092166101000274ffffffffffffffffffffffffffffffffffffffff001990921691909117905556fe4f776e61626c653a206e6577206f776e657220697320746865207a65726f2061646472657373796f7520617265206e6f7420617574686f726973656420746f2063616c6c20746869732066756e6374696f6e436f6e747261637420696e7374616e63652068617320616c7265616479206265656e20696e697469616c697a6564a265627a7a72315820d8142b0f2c2abf51bf4aa70fd9e4ec98624d9bcc7fbb3259fc0ca05d3c97963b64736f6c634300050d0032",
  "compiler": {
    "name": "solc",
    "version": "0.5.13+commit.5b0b510c.Emscripten.clang",
    "optimizer": {
      "enabled": true,
      "runs": 500
    },
    "evmVersion": "petersburg"
  }
}