{
  "fileName": "LLP_ETH_wBTCZap.sol",
  "contractName": "wBTC_LLP_2xETH",
  "source": "// Copyright (C) 2019, 2020 dipeshsukhani, nodarjonashi, toshsharma, suhailg\r\n\r\n// This program is free software: you can redistribute it and/or modify\r\n// it under the terms of the GNU Affero General Public License as published by\r\n// the Free Software Foundation, either version 2 of the License, or\r\n// (at your option) any later version.\r\n//\r\n// This program is distributed in the hope that it will be useful,\r\n// but WITHOUT ANY WARRANTY; without even the implied warranty of\r\n// MERCHANTABILITY or FITNESS FOR A PARTICULAR PURPOSE.  See the\r\n// GNU Affero General Public License for more details.\r\n//\r\n// Visit <https://www.gnu.org/licenses/>for a copy of the GNU Affero General Public License\r\n\r\n/**\r\n * WARNING: This is an upgradable contract. Be careful not to disrupt\r\n * the existing storage layout when making upgrades to the contract. In particular,\r\n * existing fields should not be removed and should not have their types changed.\r\n * The order of field declarations must not be changed, and new fields must be added\r\n * below all existing declarations.\r\n *\r\n * The base contracts and the order in which they are declared must not be changed.\r\n * New fields must not be added to base contracts (unless the base contract has\r\n * reserved placeholder fields for this purpose).\r\n *\r\n * See https://docs.zeppelinos.org/docs/writing_contracts.html for more info.\r\n*/\r\n\r\npragma solidity ^0.5.0;\r\n\r\nimport \"../../../node_modules/@openzeppelin/upgrades/contracts/Initializable.sol\";\r\nimport \"../../../node_modules/@openzeppelin/contracts-ethereum-package/contracts/math/SafeMath.sol\";\r\nimport \"../../../node_modules/@openzeppelin/contracts-ethereum-package/contracts/token/ERC20/IERC20.sol\";\r\n\r\ninterface LLP_General {\r\n    function LetsInvest(address payable _towhomtoIssueAddress, uint _2XLongETHAllocation, address _InvesteeTokenAddress, uint _slippage, bool _residualInToken) external payable returns(uint); \r\n}\r\n\r\n// through this contract we are putting 34% allocation to 2xLongETH and 66% to Uniswap pool\r\ncontract wBTC_LLP_2xETH is Initializable {\r\n    using SafeMath for uint;\r\n    \r\n    // state variables\r\n\r\n    // - THESE MUST ALWAYS STAY IN THE SAME LAYOUT\r\n    bool private stopped;\r\n    address payable public owner;\r\n    LLP_General public LLP_GeneralAddress;\r\n    address public wBTCAddress;\r\n\r\n    // circuit breaker modifiers\r\n    modifier stopInEmergency {\r\n        if (stopped) \r\n            {revert(\"Temporarily Paused\");} \r\n        else {\r\n            _;}\r\n        }\r\n    modifier onlyOwner() {\r\n        require(isOwner(), \"you are not authorised to call this function\");\r\n        _;\r\n    }\r\n    \r\n    function initialize\r\n    (address _LLP_GeneralAddress, address _wBTCAddress)\r\n    initializer public {\r\n        stopped = false;\r\n        owner = msg.sender;\r\n        LLP_GeneralAddress = LLP_General(_LLP_GeneralAddress);\r\n        wBTCAddress = _wBTCAddress;\r\n    }\r\n\r\n    // this function should be called should we ever want to change the underlying LLP_GeneralAddress Contract address\r\n    function set_LLP_GeneralAddress(address _new_LLP_GeneralAddress) public onlyOwner {\r\n        LLP_GeneralAddress = LLP_General (_new_LLP_GeneralAddress);\r\n    }\r\n\r\n    // this function should be called should we ever want to change the underlying wBTC Contract address\r\n    function set_wBTCAddress(address _new_wBTCAddress) public onlyOwner {\r\n        wBTCAddress = _new_wBTCAddress;\r\n    }\r\n    \r\n    // main function which will make the investments\r\n    function LetsInvest(address payable _towhomtoIssueAddress, uint _2XLongETHAllocation, uint _slippage, bool _residualInToken) public payable returns(uint) {\r\n       LLP_GeneralAddress.LetsInvest.value(msg.value)(_towhomtoIssueAddress, _2XLongETHAllocation, wBTCAddress, _slippage, _residualInToken);\r\n    }\r\n\r\n    function inCaseTokengetsStuck(IERC20 _TokenAddress) onlyOwner public {\r\n        uint qty = _TokenAddress.balanceOf(address(this));\r\n        _TokenAddress.transfer(owner, qty);\r\n    }\r\n\r\n\r\n    // - fallback function let you / anyone send ETH to this wallet without the need to call any function\r\n    function() external payable {\r\n        if (msg.sender != owner) {\r\n            LetsInvest(msg.sender, 34, 5, false);}\r\n    }\r\n    \r\n    // - to Pause the contract\r\n    function toggleContractActive() onlyOwner public {\r\n        stopped = !stopped;\r\n    }\r\n\r\n    // - to withdraw any ETH balance sitting in the contract\r\n    function withdraw() onlyOwner public{\r\n        owner.transfer(address(this).balance);\r\n    }\r\n    \r\n    // - to kill the contract\r\n    function destruct() public onlyOwner {\r\n        selfdestruct(owner);\r\n    }\r\n\r\n\r\n    /**\r\n     * @return true if `msg.sender` is the owner of the contract.\r\n     */\r\n    function isOwner() public view returns (bool) {\r\n        return msg.sender == owner;\r\n    }\r\n\r\n    /**\r\n     * @dev Transfers ownership of the contract to a new account (`newOwner`).\r\n     * Can only be called by the current owner.\r\n     */\r\n    function transferOwnership(address payable newOwner) public onlyOwner {\r\n        _transferOwnership(newOwner);\r\n    }\r\n\r\n    /**\r\n     * @dev Transfers ownership of the contract to a new account (`newOwner`).\r\n     */\r\n    function _transferOwnership(address payable newOwner) internal {\r\n        require(newOwner != address(0), \"Ownable: new owner is the zero address\");\r\n        owner = newOwner;\r\n    }\r\n\r\n}",
  "sourcePath": "contracts/UpdatedZaps/Done/LLP_ETH_wBTCZap.sol",
  "abi": [
    {
      "payable": true,
      "stateMutability": "payable",
      "type": "fallback"
    },
    {
      "constant": true,
      "inputs": [],
      "name": "LLP_GeneralAddress",
      "outputs": [
        {
          "internalType": "contract LLP_General",
          "name": "",
          "type": "address"
        }
      ],
      "payable": false,
      "stateMutability": "view",
      "type": "function"
    },
    {
      "constant": false,
      "inputs": [
        {
          "internalType": "address payable",
          "name": "_towhomtoIssueAddress",
          "type": "address"
        },
        {
          "internalType": "uint256",
          "name": "_2XLongETHAllocation",
          "type": "uint256"
        },
        {
          "internalType": "uint256",
          "name": "_slippage",
          "type": "uint256"
        },
        {
          "internalType": "bool",
          "name": "_residualInToken",
          "type": "bool"
        }
      ],
      "name": "LetsInvest",
      "outputs": [
        {
          "internalType": "uint256",
          "name": "",
          "type": "uint256"
        }
      ],
      "payable": true,
      "stateMutability": "payable",
      "type": "function"
    },
    {
      "constant": false,
      "inputs": [],
      "name": "destruct",
      "outputs": [],
      "payable": false,
      "stateMutability": "nonpayable",
      "type": "function"
    },
    {
      "constant": false,
      "inputs": [
        {
          "internalType": "contract IERC20",
          "name": "_TokenAddress",
          "type": "address"
        }
      ],
      "name": "inCaseTokengetsStuck",
      "outputs": [],
      "payable": false,
      "stateMutability": "nonpayable",
      "type": "function"
    },
    {
      "constant": false,
      "inputs": [
        {
          "internalType": "address",
          "name": "_LLP_GeneralAddress",
          "type": "address"
        },
        {
          "internalType": "address",
          "name": "_wBTCAddress",
          "type": "address"
        }
      ],
      "name": "initialize",
      "outputs": [],
      "payable": false,
      "stateMutability": "nonpayable",
      "type": "function"
    },
    {
      "constant": true,
      "inputs": [],
      "name": "isOwner",
      "outputs": [
        {
          "internalType": "bool",
          "name": "",
          "type": "bool"
        }
      ],
      "payable": false,
      "stateMutability": "view",
      "type": "function"
    },
    {
      "constant": true,
      "inputs": [],
      "name": "owner",
      "outputs": [
        {
          "internalType": "address payable",
          "name": "",
          "type": "address"
        }
      ],
      "payable": false,
      "stateMutability": "view",
      "type": "function"
    },
    {
      "constant": false,
      "inputs": [
        {
          "internalType": "address",
          "name": "_new_LLP_GeneralAddress",
          "type": "address"
        }
      ],
      "name": "set_LLP_GeneralAddress",
      "outputs": [],
      "payable": false,
      "stateMutability": "nonpayable",
      "type": "function"
    },
    {
      "constant": false,
      "inputs": [
        {
          "internalType": "address",
          "name": "_new_wBTCAddress",
          "type": "address"
        }
      ],
      "name": "set_wBTCAddress",
      "outputs": [],
      "payable": false,
      "stateMutability": "nonpayable",
      "type": "function"
    },
    {
      "constant": false,
      "inputs": [],
      "name": "toggleContractActive",
      "outputs": [],
      "payable": false,
      "stateMutability": "nonpayable",
      "type": "function"
    },
    {
      "constant": false,
      "inputs": [
        {
          "internalType": "address payable",
          "name": "newOwner",
          "type": "address"
        }
      ],
      "name": "transferOwnership",
      "outputs": [],
      "payable": false,
      "stateMutability": "nonpayable",
      "type": "function"
    },
    {
      "constant": true,
      "inputs": [],
      "name": "wBTCAddress",
      "outputs": [
        {
          "internalType": "address",
          "name": "",
          "type": "address"
        }
      ],
      "payable": false,
      "stateMutability": "view",
      "type": "function"
    },
    {
      "constant": false,
      "inputs": [],
      "name": "withdraw",
      "outputs": [],
      "payable": false,
      "stateMutability": "nonpayable",
      "type": "function"
    }
  ],
  "bytecode": "0x608060405234801561001057600080fd5b50611010806100206000396000f3fe6080604052600436106100c25760003560e01c8063485cc9551161007f5780638f32d59b116100595780638f32d59b146103a257806393605a03146103d1578063e1ae0d1b14610428578063f2fde38b1461047f576100c2565b8063485cc95514610289578063551196d5146102fa5780638da5cb5b1461034b576100c2565b8063127fad041461012a5780631385d24c1461017b5780631b0050b5146101925780632b68b9c6146101e3578063381480dc146101fa5780633ccfd60b14610272575b603360019054906101000a900473ffffffffffffffffffffffffffffffffffffffff1673ffffffffffffffffffffffffffffffffffffffff163373ffffffffffffffffffffffffffffffffffffffff161461012857610126336022600560006104d0565b505b005b34801561013657600080fd5b506101796004803603602081101561014d57600080fd5b81019080803573ffffffffffffffffffffffffffffffffffffffff16906020019092919050505061062a565b005b34801561018757600080fd5b506101906106cb565b005b34801561019e57600080fd5b506101e1600480360360208110156101b557600080fd5b81019080803573ffffffffffffffffffffffffffffffffffffffff169060200190929190505050610754565b005b3480156101ef57600080fd5b506101f86107f5565b005b61025c6004803603608081101561021057600080fd5b81019080803573ffffffffffffffffffffffffffffffffffffffff16906020019092919080359060200190929190803590602001909291908035151590602001909291905050506104d0565b6040518082815260200191505060405180910390f35b34801561027e57600080fd5b5061028761088d565b005b34801561029557600080fd5b506102f8600480360360408110156102ac57600080fd5b81019080803573ffffffffffffffffffffffffffffffffffffffff169060200190929190803573ffffffffffffffffffffffffffffffffffffffff16906020019092919050505061096c565b005b34801561030657600080fd5b506103496004803603602081101561031d57600080fd5b81019080803573ffffffffffffffffffffffffffffffffffffffff169060200190929190505050610b4b565b005b34801561035757600080fd5b50610360610d4d565b604051808273ffffffffffffffffffffffffffffffffffffffff1673ffffffffffffffffffffffffffffffffffffffff16815260200191505060405180910390f35b3480156103ae57600080fd5b506103b7610d73565b604051808215151515815260200191505060405180910390f35b3480156103dd57600080fd5b506103e6610dcb565b604051808273ffffffffffffffffffffffffffffffffffffffff1673ffffffffffffffffffffffffffffffffffffffff16815260200191505060405180910390f35b34801561043457600080fd5b5061043d610df1565b604051808273ffffffffffffffffffffffffffffffffffffffff1673ffffffffffffffffffffffffffffffffffffffff16815260200191505060405180910390f35b34801561048b57600080fd5b506104ce600480360360208110156104a257600080fd5b81019080803573ffffffffffffffffffffffffffffffffffffffff169060200190929190505050610e17565b005b6000603460009054906101000a900473ffffffffffffffffffffffffffffffffffffffff1673ffffffffffffffffffffffffffffffffffffffff16631eb3d97c348787603560009054906101000a900473ffffffffffffffffffffffffffffffffffffffff1688886040518763ffffffff1660e01b8152600401808673ffffffffffffffffffffffffffffffffffffffff1673ffffffffffffffffffffffffffffffffffffffff1681526020018581526020018473ffffffffffffffffffffffffffffffffffffffff1673ffffffffffffffffffffffffffffffffffffffff16815260200183815260200182151515158152602001955050505050506020604051808303818588803b1580156105e557600080fd5b505af11580156105f9573d6000803e3d6000fd5b50505050506040513d602081101561061057600080fd5b810190808051906020019092919050505050949350505050565b610632610d73565b610687576040517f08c379a000000000000000000000000000000000000000000000000000000000815260040180806020018281038252602c815260200180610f82602c913960400191505060405180910390fd5b80603460006101000a81548173ffffffffffffffffffffffffffffffffffffffff021916908373ffffffffffffffffffffffffffffffffffffffff16021790555050565b6106d3610d73565b610728576040517f08c379a000000000000000000000000000000000000000000000000000000000815260040180806020018281038252602c815260200180610f82602c913960400191505060405180910390fd5b603360009054906101000a900460ff1615603360006101000a81548160ff021916908315150217905550565b61075c610d73565b6107b1576040517f08c379a000000000000000000000000000000000000000000000000000000000815260040180806020018281038252602c815260200180610f82602c913960400191505060405180910390fd5b80603560006101000a81548173ffffffffffffffffffffffffffffffffffffffff021916908373ffffffffffffffffffffffffffffffffffffffff16021790555050565b6107fd610d73565b610852576040517f08c379a000000000000000000000000000000000000000000000000000000000815260040180806020018281038252602c815260200180610f82602c913960400191505060405180910390fd5b603360019054906101000a900473ffffffffffffffffffffffffffffffffffffffff1673ffffffffffffffffffffffffffffffffffffffff16ff5b610895610d73565b6108ea576040517f08c379a000000000000000000000000000000000000000000000000000000000815260040180806020018281038252602c815260200180610f82602c913960400191505060405180910390fd5b603360019054906101000a900473ffffffffffffffffffffffffffffffffffffffff1673ffffffffffffffffffffffffffffffffffffffff166108fc3073ffffffffffffffffffffffffffffffffffffffff16319081150290604051600060405180830381858888f19350505050158015610969573d6000803e3d6000fd5b50565b600060019054906101000a900460ff168061098b575061098a610e80565b5b806109a257506000809054906101000a900460ff16155b6109f7576040517f08c379a000000000000000000000000000000000000000000000000000000000815260040180806020018281038252602e815260200180610fae602e913960400191505060405180910390fd5b60008060019054906101000a900460ff161590508015610a47576001600060016101000a81548160ff02191690831515021790555060016000806101000a81548160ff0219169083151502179055505b6000603360006101000a81548160ff02191690831515021790555033603360016101000a81548173ffffffffffffffffffffffffffffffffffffffff021916908373ffffffffffffffffffffffffffffffffffffffff16021790555082603460006101000a81548173ffffffffffffffffffffffffffffffffffffffff021916908373ffffffffffffffffffffffffffffffffffffffff16021790555081603560006101000a81548173ffffffffffffffffffffffffffffffffffffffff021916908373ffffffffffffffffffffffffffffffffffffffff1602179055508015610b465760008060016101000a81548160ff0219169083151502179055505b505050565b610b53610d73565b610ba8576040517f08c379a000000000000000000000000000000000000000000000000000000000815260040180806020018281038252602c815260200180610f82602c913960400191505060405180910390fd5b60008173ffffffffffffffffffffffffffffffffffffffff166370a08231306040518263ffffffff1660e01b8152600401808273ffffffffffffffffffffffffffffffffffffffff1673ffffffffffffffffffffffffffffffffffffffff16815260200191505060206040518083038186803b158015610c2757600080fd5b505afa158015610c3b573d6000803e3d6000fd5b505050506040513d6020811015610c5157600080fd5b810190808051906020019092919050505090508173ffffffffffffffffffffffffffffffffffffffff1663a9059cbb603360019054906101000a900473ffffffffffffffffffffffffffffffffffffffff16836040518363ffffffff1660e01b8152600401808373ffffffffffffffffffffffffffffffffffffffff1673ffffffffffffffffffffffffffffffffffffffff16815260200182815260200192505050602060405180830381600087803b158015610d0d57600080fd5b505af1158015610d21573d6000803e3d6000fd5b505050506040513d6020811015610d3757600080fd5b8101908080519060200190929190505050505050565b603360019054906101000a900473ffffffffffffffffffffffffffffffffffffffff1681565b6000603360019054906101000a900473ffffffffffffffffffffffffffffffffffffffff1673ffffffffffffffffffffffffffffffffffffffff163373ffffffffffffffffffffffffffffffffffffffff1614905090565b603460009054906101000a900473ffffffffffffffffffffffffffffffffffffffff1681565b603560009054906101000a900473ffffffffffffffffffffffffffffffffffffffff1681565b610e1f610d73565b610e74576040517f08c379a000000000000000000000000000000000000000000000000000000000815260040180806020018281038252602c815260200180610f82602c913960400191505060405180910390fd5b610e7d81610e91565b50565b600080303b90506000811491505090565b600073ffffffffffffffffffffffffffffffffffffffff168173ffffffffffffffffffffffffffffffffffffffff161415610f17576040517f08c379a0000000000000000000000000000000000000000000000000000000008152600401808060200182810382526026815260200180610f5c6026913960400191505060405180910390fd5b80603360016101000a81548173ffffffffffffffffffffffffffffffffffffffff021916908373ffffffffffffffffffffffffffffffffffffffff1602179055505056fe4f776e61626c653a206e6577206f776e657220697320746865207a65726f2061646472657373796f7520617265206e6f7420617574686f726973656420746f2063616c6c20746869732066756e6374696f6e436f6e747261637420696e7374616e63652068617320616c7265616479206265656e20696e697469616c697a6564a265627a7a723158203ba07696f61696a2c45b1b35d40ad3b974a3417fc5a259a8a86c60be4cd81a6b64736f6c634300050d0032",
  "compiler": {
    "name": "solc",
    "version": "0.5.13+commit.5b0b510c.Emscripten.clang",
    "optimizer": {
      "enabled": false,
      "runs": 200
    },
    "evmVersion": "petersburg"
  }
}