{
  "fileName": "LLP_ETH_wBTCZap.sol",
  "contractName": "wBTC_LLP_2xETH",
  "source": "// Copyright (C) 2019, 2020 dipeshsukhani, nodarjonashi, toshsharma, suhailg\r\n\r\n// This program is free software: you can redistribute it and/or modify\r\n// it under the terms of the GNU Affero General Public License as published by\r\n// the Free Software Foundation, either version 2 of the License, or\r\n// (at your option) any later version.\r\n//\r\n// This program is distributed in the hope that it will be useful,\r\n// but WITHOUT ANY WARRANTY; without even the implied warranty of\r\n// MERCHANTABILITY or FITNESS FOR A PARTICULAR PURPOSE.  See the\r\n// GNU Affero General Public License for more details.\r\n//\r\n// Visit <https://www.gnu.org/licenses/>for a copy of the GNU Affero General Public License\r\n\r\n/**\r\n * WARNING: This is an upgradable contract. Be careful not to disrupt\r\n * the existing storage layout when making upgrades to the contract. In particular,\r\n * existing fields should not be removed and should not have their types changed.\r\n * The order of field declarations must not be changed, and new fields must be added\r\n * below all existing declarations.\r\n *\r\n * The base contracts and the order in which they are declared must not be changed.\r\n * New fields must not be added to base contracts (unless the base contract has\r\n * reserved placeholder fields for this purpose).\r\n *\r\n * See https://docs.zeppelinos.org/docs/writing_contracts.html for more info.\r\n*/\r\n\r\npragma solidity ^0.5.0;\r\n\r\nimport \"../../../node_modules/@openzeppelin/upgrades/contracts/Initializable.sol\";\r\nimport \"../../../node_modules/@openzeppelin/contracts-ethereum-package/contracts/math/SafeMath.sol\";\r\nimport \"../../../node_modules/@openzeppelin/contracts-ethereum-package/contracts/token/ERC20/IERC20.sol\";\r\n\r\ninterface LLP_General_WBTC {\r\n    function LetsInvest(\r\n        address payable _towhomtoIssueAddress,\r\n        uint256 _2XLongETHAllocation,\r\n        address _InvesteeTokenAddress,\r\n        uint256 _slippage,\r\n        bool _residualInToken\r\n    ) external payable returns (uint256);\r\n}\r\n\r\n// through this contract we are putting 34% allocation to 2xLongETH and 66% to Uniswap pool\r\ncontract wBTC_LLP_2xETH is Initializable {\r\n    using SafeMath for uint256;\r\n\r\n    // state variables\r\n\r\n    // - THESE MUST ALWAYS STAY IN THE SAME LAYOUT\r\n    bool private stopped;\r\n    address payable public owner;\r\n    LLP_General_WBTC public LLP_GeneralAddress;\r\n    address public wBTCAddress;\r\n\r\n    // circuit breaker modifiers\r\n    modifier stopInEmergency {\r\n        if (stopped) {\r\n            revert(\"Temporarily Paused\");\r\n        } else {\r\n            _;\r\n        }\r\n    }\r\n    modifier onlyOwner() {\r\n        require(isOwner(), \"you are not authorised to call this function\");\r\n        _;\r\n    }\r\n\r\n    function initialize(address _LLP_GeneralAddress, address _wBTCAddress)\r\n        public\r\n        initializer\r\n    {\r\n        stopped = false;\r\n        owner = msg.sender;\r\n        LLP_GeneralAddress = LLP_General_WBTC(_LLP_GeneralAddress);\r\n        wBTCAddress = _wBTCAddress;\r\n    }\r\n\r\n    // this function should be called should we ever want to change the underlying LLP_GeneralAddress Contract address\r\n    function set_LLP_GeneralAddress(address _new_LLP_GeneralAddress)\r\n        public\r\n        onlyOwner\r\n    {\r\n        LLP_GeneralAddress = LLP_General_WBTC(_new_LLP_GeneralAddress);\r\n    }\r\n\r\n    // this function should be called should we ever want to change the underlying wBTC Contract address\r\n    function set_wBTCAddress(address _new_wBTCAddress) public onlyOwner {\r\n        wBTCAddress = _new_wBTCAddress;\r\n    }\r\n\r\n    // main function which will make the investments\r\n    function LetsInvest(\r\n        address payable _towhomtoIssueAddress,\r\n        uint256 _2XLongETHAllocation,\r\n        uint256 _slippage,\r\n        bool _residualInToken\r\n    ) public payable returns (uint256) {\r\n        LLP_GeneralAddress.LetsInvest.value(msg.value)(\r\n            _towhomtoIssueAddress,\r\n            _2XLongETHAllocation,\r\n            wBTCAddress,\r\n            _slippage,\r\n            _residualInToken\r\n        );\r\n    }\r\n\r\n    function inCaseTokengetsStuck(IERC20 _TokenAddress) public onlyOwner {\r\n        uint256 qty = _TokenAddress.balanceOf(address(this));\r\n        _TokenAddress.transfer(owner, qty);\r\n    }\r\n\r\n    // - fallback function let you / anyone send ETH to this wallet without the need to call any function\r\n    function() external payable {\r\n        if (msg.sender != owner) {\r\n            LetsInvest(msg.sender, 34, 5, false);\r\n        }\r\n    }\r\n\r\n    // - to Pause the contract\r\n    function toggleContractActive() public onlyOwner {\r\n        stopped = !stopped;\r\n    }\r\n\r\n    // - to withdraw any ETH balance sitting in the contract\r\n    function withdraw() public onlyOwner {\r\n        owner.transfer(address(this).balance);\r\n    }\r\n\r\n    // - to kill the contract\r\n    function destruct() public onlyOwner {\r\n        selfdestruct(owner);\r\n    }\r\n\r\n    /**\r\n     * @return true if `msg.sender` is the owner of the contract.\r\n     */\r\n    function isOwner() public view returns (bool) {\r\n        return msg.sender == owner;\r\n    }\r\n\r\n    /**\r\n     * @dev Transfers ownership of the contract to a new account (`newOwner`).\r\n     * Can only be called by the current owner.\r\n     */\r\n    function transferOwnership(address payable newOwner) public onlyOwner {\r\n        _transferOwnership(newOwner);\r\n    }\r\n\r\n    /**\r\n     * @dev Transfers ownership of the contract to a new account (`newOwner`).\r\n     */\r\n    function _transferOwnership(address payable newOwner) internal {\r\n        require(\r\n            newOwner != address(0),\r\n            \"Ownable: new owner is the zero address\"\r\n        );\r\n        owner = newOwner;\r\n    }\r\n\r\n}\r\n",
  "sourcePath": "contracts/UpdatedZaps/Done/LLP_ETH_wBTCZap.sol",
  "abi": [
    {
      "payable": true,
      "stateMutability": "payable",
      "type": "fallback"
    },
    {
      "constant": true,
      "inputs": [],
      "name": "LLP_GeneralAddress",
      "outputs": [
        {
          "internalType": "contract LLP_General_WBTC",
          "name": "",
          "type": "address"
        }
      ],
      "payable": false,
      "stateMutability": "view",
      "type": "function"
    },
    {
      "constant": false,
      "inputs": [
        {
          "internalType": "address payable",
          "name": "_towhomtoIssueAddress",
          "type": "address"
        },
        {
          "internalType": "uint256",
          "name": "_2XLongETHAllocation",
          "type": "uint256"
        },
        {
          "internalType": "uint256",
          "name": "_slippage",
          "type": "uint256"
        },
        {
          "internalType": "bool",
          "name": "_residualInToken",
          "type": "bool"
        }
      ],
      "name": "LetsInvest",
      "outputs": [
        {
          "internalType": "uint256",
          "name": "",
          "type": "uint256"
        }
      ],
      "payable": true,
      "stateMutability": "payable",
      "type": "function"
    },
    {
      "constant": false,
      "inputs": [],
      "name": "destruct",
      "outputs": [],
      "payable": false,
      "stateMutability": "nonpayable",
      "type": "function"
    },
    {
      "constant": false,
      "inputs": [
        {
          "internalType": "contract IERC20",
          "name": "_TokenAddress",
          "type": "address"
        }
      ],
      "name": "inCaseTokengetsStuck",
      "outputs": [],
      "payable": false,
      "stateMutability": "nonpayable",
      "type": "function"
    },
    {
      "constant": false,
      "inputs": [
        {
          "internalType": "address",
          "name": "_LLP_GeneralAddress",
          "type": "address"
        },
        {
          "internalType": "address",
          "name": "_wBTCAddress",
          "type": "address"
        }
      ],
      "name": "initialize",
      "outputs": [],
      "payable": false,
      "stateMutability": "nonpayable",
      "type": "function"
    },
    {
      "constant": true,
      "inputs": [],
      "name": "isOwner",
      "outputs": [
        {
          "internalType": "bool",
          "name": "",
          "type": "bool"
        }
      ],
      "payable": false,
      "stateMutability": "view",
      "type": "function"
    },
    {
      "constant": true,
      "inputs": [],
      "name": "owner",
      "outputs": [
        {
          "internalType": "address payable",
          "name": "",
          "type": "address"
        }
      ],
      "payable": false,
      "stateMutability": "view",
      "type": "function"
    },
    {
      "constant": false,
      "inputs": [
        {
          "internalType": "address",
          "name": "_new_LLP_GeneralAddress",
          "type": "address"
        }
      ],
      "name": "set_LLP_GeneralAddress",
      "outputs": [],
      "payable": false,
      "stateMutability": "nonpayable",
      "type": "function"
    },
    {
      "constant": false,
      "inputs": [
        {
          "internalType": "address",
          "name": "_new_wBTCAddress",
          "type": "address"
        }
      ],
      "name": "set_wBTCAddress",
      "outputs": [],
      "payable": false,
      "stateMutability": "nonpayable",
      "type": "function"
    },
    {
      "constant": false,
      "inputs": [],
      "name": "toggleContractActive",
      "outputs": [],
      "payable": false,
      "stateMutability": "nonpayable",
      "type": "function"
    },
    {
      "constant": false,
      "inputs": [
        {
          "internalType": "address payable",
          "name": "newOwner",
          "type": "address"
        }
      ],
      "name": "transferOwnership",
      "outputs": [],
      "payable": false,
      "stateMutability": "nonpayable",
      "type": "function"
    },
    {
      "constant": true,
      "inputs": [],
      "name": "wBTCAddress",
      "outputs": [
        {
          "internalType": "address",
          "name": "",
          "type": "address"
        }
      ],
      "payable": false,
      "stateMutability": "view",
      "type": "function"
    },
    {
      "constant": false,
      "inputs": [],
      "name": "withdraw",
      "outputs": [],
      "payable": false,
      "stateMutability": "nonpayable",
      "type": "function"
    }
  ],
  "bytecode": "0x608060405234801561001057600080fd5b506109c4806100206000396000f3fe6080604052600436106100d25760003560e01c8063485cc9551161007f5780638f32d59b116100595780638f32d59b1461028c57806393605a03146102b5578063e1ae0d1b146102ca578063f2fde38b146102df576100d2565b8063485cc955146101ed578063551196d5146102285780638da5cb5b1461025b576100d2565b80632b68b9c6116100b05780632b68b9c614610177578063381480dc1461018c5780633ccfd60b146101d8576100d2565b8063127fad04146100fc5780631385d24c1461012f5780631b0050b514610144575b60335461010090046001600160a01b031633146100fa576100f833602260056000610312565b505b005b34801561010857600080fd5b506100fa6004803603602081101561011f57600080fd5b50356001600160a01b03166103bc565b34801561013b57600080fd5b506100fa610421565b34801561015057600080fd5b506100fa6004803603602081101561016757600080fd5b50356001600160a01b0316610478565b34801561018357600080fd5b506100fa6104dd565b6101c6600480360360808110156101a257600080fd5b506001600160a01b0381351690602081013590604081013590606001351515610312565b60408051918252519081900360200190f35b3480156101e457600080fd5b506100fa610533565b3480156101f957600080fd5b506100fa6004803603604081101561021057600080fd5b506001600160a01b03813581169160200135166105ba565b34801561023457600080fd5b506100fa6004803603602081101561024b57600080fd5b50356001600160a01b03166106b4565b34801561026757600080fd5b506102706107fb565b604080516001600160a01b039092168252519081900360200190f35b34801561029857600080fd5b506102a161080f565b604080519115158252519081900360200190f35b3480156102c157600080fd5b50610270610825565b3480156102d657600080fd5b50610270610834565b3480156102eb57600080fd5b506100fa6004803603602081101561030257600080fd5b50356001600160a01b0316610843565b603454603554604080516307acf65f60e21b81526001600160a01b03888116600483015260248201889052928316604482015260648101869052841515608482015290516000939290921691631eb3d97c91349160a480830192602092919082900301818588803b15801561038657600080fd5b505af115801561039a573d6000803e3d6000fd5b50505050506040513d60208110156103b157600080fd5b509095945050505050565b6103c461080f565b6103ff5760405162461bcd60e51b815260040180806020018281038252602c815260200180610936602c913960400191505060405180910390fd5b603480546001600160a01b0319166001600160a01b0392909216919091179055565b61042961080f565b6104645760405162461bcd60e51b815260040180806020018281038252602c815260200180610936602c913960400191505060405180910390fd5b6033805460ff19811660ff90911615179055565b61048061080f565b6104bb5760405162461bcd60e51b815260040180806020018281038252602c815260200180610936602c913960400191505060405180910390fd5b603580546001600160a01b0319166001600160a01b0392909216919091179055565b6104e561080f565b6105205760405162461bcd60e51b815260040180806020018281038252602c815260200180610936602c913960400191505060405180910390fd5b60335461010090046001600160a01b0316ff5b61053b61080f565b6105765760405162461bcd60e51b815260040180806020018281038252602c815260200180610936602c913960400191505060405180910390fd5b6033546040516001600160a01b036101009092049190911690303180156108fc02916000818181858888f193505050501580156105b7573d6000803e3d6000fd5b50565b600054610100900460ff16806105d357506105d361088f565b806105e1575060005460ff16155b61061c5760405162461bcd60e51b815260040180806020018281038252602e815260200180610962602e913960400191505060405180910390fd5b600054610100900460ff16158015610647576000805460ff1961ff0019909116610100171660011790555b60338054336101000274ffffffffffffffffffffffffffffffffffffffffff19909116179055603480546001600160a01b038581166001600160a01b031992831617909255603580549285169290911691909117905580156106af576000805461ff00191690555b505050565b6106bc61080f565b6106f75760405162461bcd60e51b815260040180806020018281038252602c815260200180610936602c913960400191505060405180910390fd5b604080516370a0823160e01b815230600482015290516000916001600160a01b038416916370a0823191602480820192602092909190829003018186803b15801561074157600080fd5b505afa158015610755573d6000803e3d6000fd5b505050506040513d602081101561076b57600080fd5b50516033546040805163a9059cbb60e01b81526101009092046001600160a01b03908116600484015260248301849052905192935084169163a9059cbb916044808201926020929091908290030181600087803b1580156107cb57600080fd5b505af11580156107df573d6000803e3d6000fd5b505050506040513d60208110156107f557600080fd5b50505050565b60335461010090046001600160a01b031681565b60335461010090046001600160a01b0316331490565b6034546001600160a01b031681565b6035546001600160a01b031681565b61084b61080f565b6108865760405162461bcd60e51b815260040180806020018281038252602c815260200180610936602c913960400191505060405180910390fd5b6105b781610895565b303b1590565b6001600160a01b0381166108da5760405162461bcd60e51b81526004018080602001828103825260268152602001806109106026913960400191505060405180910390fd5b603380546001600160a01b039092166101000274ffffffffffffffffffffffffffffffffffffffff001990921691909117905556fe4f776e61626c653a206e6577206f776e657220697320746865207a65726f2061646472657373796f7520617265206e6f7420617574686f726973656420746f2063616c6c20746869732066756e6374696f6e436f6e747261637420696e7374616e63652068617320616c7265616479206265656e20696e697469616c697a6564a265627a7a723158206e41a608b71c1950d3e7d61ac3cb0125a79f4de18be8590043fb7c093654dc5864736f6c634300050d0032",
  "compiler": {
    "name": "solc",
    "version": "0.5.13+commit.5b0b510c.Emscripten.clang",
    "optimizer": {
      "enabled": true,
      "runs": 500
    },
    "evmVersion": "petersburg"
  }
}