{
  "fileName": "wBTC_dLWBTC2x_LLPZap.sol",
  "contractName": "wBTC_dlWBTC2x_LLPZap",
  "source": "// Copyright (C) 2019, 2020 dipeshsukhani, nodarjonashi, toshsharma, suhailg\r\n\r\n// This program is free software: you can redistribute it and/or modify\r\n// it under the terms of the GNU Affero General Public License as published by\r\n// the Free Software Foundation, either version 2 of the License, or\r\n// (at your option) any later version.\r\n//\r\n// This program is distributed in the hope that it will be useful,\r\n// but WITHOUT ANY WARRANTY; without even the implied warranty of\r\n// MERCHANTABILITY or FITNESS FOR A PARTICULAR PURPOSE.  See the\r\n// GNU Affero General Public License for more details.\r\n//\r\n// Visit <https://www.gnu.org/licenses/>for a copy of the GNU Affero General Public License\r\n\r\n/**\r\n * WARNING: This is an upgradable contract. Be careful not to disrupt\r\n * the existing storage layout when making upgrades to the contract. In particular,\r\n * existing fields should not be removed and should not have their types changed.\r\n * The order of field declarations must not be changed, and new fields must be added\r\n * below all existing declarations.\r\n *\r\n * The base contracts and the order in which they are declared must not be changed.\r\n * New fields must not be added to base contracts (unless the base contract has\r\n * reserved placeholder fields for this purpose).\r\n *\r\n * See https://docs.zeppelinos.org/docs/writing_contracts.html for more info.\r\n*/\r\n\r\npragma solidity ^0.5.0;\r\n\r\nimport \"../../../node_modules/@openzeppelin/upgrades/contracts/Initializable.sol\";\r\nimport \"../../../node_modules/@openzeppelin/contracts-ethereum-package/contracts/math/SafeMath.sol\";\r\nimport \"../../../node_modules/@openzeppelin/contracts-ethereum-package/contracts/token/ERC20/IERC20.sol\";\r\n\r\ninterface LLP_ERC20Token_General_wBTCInhertiance {\r\n    function LetsInvest(address payable _towhomtoIssueAddress, uint _fulcrumPortionAllocation, address _InvesteeTokenAddress, address _fulcrumAddress, address _ERC20forFulcrum) external payable returns(uint); \r\n}\r\n\r\n// through this contract we are putting 34% allocation to 2xLong wBTC and 66% to Uniswap pool\r\ncontract wBTC_dlWBTC2x_LLPZap is Initializable {\r\n    using SafeMath for uint;\r\n    \r\n    // state variables\r\n\r\n    // - THESE MUST ALWAYS STAY IN THE SAME LAYOUT\r\n    bool private stopped;\r\n    address payable public owner;\r\n    LLP_ERC20Token_General_wBTCInhertiance public LLP_ERC20Token_GeneralAddress;\r\n    address public wBTCAddress;\r\n    address public dLWBTC2xFulCrumAddress;\r\n\r\n    // circuit breaker modifiers\r\n    modifier stopInEmergency {\r\n        if (stopped) \r\n            {revert(\"Temporarily Paused\");} \r\n        else {\r\n            _;}\r\n        }\r\n    modifier onlyOwner() {\r\n        require(isOwner(), \"you are not authorised to call this function\");\r\n        _;\r\n    }\r\n    \r\n    function initialize\r\n    (address _LLP_ERC20Token_GeneralAddress,\r\n     address _wBTCAddress,\r\n     address _dLWBTC2xFulCrumAddress)\r\n    initializer public {\r\n        stopped = false;\r\n        owner = msg.sender;\r\n        LLP_ERC20Token_GeneralAddress = LLP_ERC20Token_General_wBTCInhertiance(_LLP_ERC20Token_GeneralAddress);\r\n        wBTCAddress = _wBTCAddress;\r\n        dLWBTC2xFulCrumAddress = _dLWBTC2xFulCrumAddress;\r\n    }\r\n\r\n    // this function should be called should we ever want to change the underlying LLP_GeneralAddress Contract address\r\n    function set_LLP_ERC20Token_GeneralAddress(address _new_LLP_ERC20Token_GeneralAddress) public onlyOwner {\r\n        LLP_ERC20Token_GeneralAddress = LLP_ERC20Token_General_wBTCInhertiance (_new_LLP_ERC20Token_GeneralAddress);\r\n    }\r\n\r\n    // this function should be called should we ever want to change the underlying wBTC Contract address\r\n    function set_wBTCAddress(address _new_wBTCAddress) public onlyOwner {\r\n        wBTCAddress = _new_wBTCAddress;\r\n    }\r\n\r\n    // this function should be called should we ever want to change the underlying Fulcrum 2xLong wBTC Contract address\r\n    function set_wBTCFulCrumAddress(address _new_dLWBTC2xFulCrumAddress) public onlyOwner {\r\n        dLWBTC2xFulCrumAddress = _new_dLWBTC2xFulCrumAddress;\r\n    }\r\n    \r\n    // main function which will make the investments\r\n    function LetsInvest(address payable _towhomtoIssueAddress, uint _FulcrumAllocation) public payable returns(uint) {\r\n       LLP_ERC20Token_GeneralAddress.LetsInvest.value(msg.value)(_towhomtoIssueAddress, _FulcrumAllocation, wBTCAddress, dLWBTC2xFulCrumAddress, wBTCAddress);\r\n    }\r\n\r\n    function inCaseTokengetsStuck(IERC20 _TokenAddress) onlyOwner public {\r\n        uint qty = _TokenAddress.balanceOf(address(this));\r\n        _TokenAddress.transfer(owner, qty);\r\n    }\r\n\r\n\r\n    // - fallback function let you / anyone send ETH to this wallet without the need to call any function\r\n    function() external payable {\r\n        if (msg.sender != owner) {\r\n            LetsInvest(msg.sender, 34);}\r\n    }\r\n    \r\n    // - to Pause the contract\r\n    function toggleContractActive() onlyOwner public {\r\n        stopped = !stopped;\r\n    }\r\n\r\n    // - to withdraw any ETH balance sitting in the contract\r\n    function withdraw() onlyOwner public{\r\n        owner.transfer(address(this).balance);\r\n    }\r\n    \r\n    // - to kill the contract\r\n    function destruct() public onlyOwner {\r\n        selfdestruct(owner);\r\n    }\r\n\r\n    /**\r\n     * @return true if `msg.sender` is the owner of the contract.\r\n     */\r\n    function isOwner() public view returns (bool) {\r\n        return msg.sender == owner;\r\n    }\r\n\r\n    /**\r\n     * @dev Transfers ownership of the contract to a new account (`newOwner`).\r\n     * Can only be called by the current owner.\r\n     */\r\n    function transferOwnership(address payable newOwner) public onlyOwner {\r\n        _transferOwnership(newOwner);\r\n    }\r\n\r\n    /**\r\n     * @dev Transfers ownership of the contract to a new account (`newOwner`).\r\n     */\r\n    function _transferOwnership(address payable newOwner) internal {\r\n        require(newOwner != address(0), \"Ownable: new owner is the zero address\");\r\n        owner = newOwner;\r\n    }\r\n\r\n}",
  "sourcePath": "contracts/UpdatedZaps/Done/wBTC_dLWBTC2x_LLPZap.sol",
  "abi": [
    {
      "payable": true,
      "stateMutability": "payable",
      "type": "fallback"
    },
    {
      "constant": true,
      "inputs": [],
      "name": "LLP_ERC20Token_GeneralAddress",
      "outputs": [
        {
          "internalType": "contract LLP_ERC20Token_General_wBTCInhertiance",
          "name": "",
          "type": "address"
        }
      ],
      "payable": false,
      "stateMutability": "view",
      "type": "function"
    },
    {
      "constant": false,
      "inputs": [
        {
          "internalType": "address payable",
          "name": "_towhomtoIssueAddress",
          "type": "address"
        },
        {
          "internalType": "uint256",
          "name": "_FulcrumAllocation",
          "type": "uint256"
        }
      ],
      "name": "LetsInvest",
      "outputs": [
        {
          "internalType": "uint256",
          "name": "",
          "type": "uint256"
        }
      ],
      "payable": true,
      "stateMutability": "payable",
      "type": "function"
    },
    {
      "constant": true,
      "inputs": [],
      "name": "dLWBTC2xFulCrumAddress",
      "outputs": [
        {
          "internalType": "address",
          "name": "",
          "type": "address"
        }
      ],
      "payable": false,
      "stateMutability": "view",
      "type": "function"
    },
    {
      "constant": false,
      "inputs": [],
      "name": "destruct",
      "outputs": [],
      "payable": false,
      "stateMutability": "nonpayable",
      "type": "function"
    },
    {
      "constant": false,
      "inputs": [
        {
          "internalType": "contract IERC20",
          "name": "_TokenAddress",
          "type": "address"
        }
      ],
      "name": "inCaseTokengetsStuck",
      "outputs": [],
      "payable": false,
      "stateMutability": "nonpayable",
      "type": "function"
    },
    {
      "constant": false,
      "inputs": [
        {
          "internalType": "address",
          "name": "_LLP_ERC20Token_GeneralAddress",
          "type": "address"
        },
        {
          "internalType": "address",
          "name": "_wBTCAddress",
          "type": "address"
        },
        {
          "internalType": "address",
          "name": "_dLWBTC2xFulCrumAddress",
          "type": "address"
        }
      ],
      "name": "initialize",
      "outputs": [],
      "payable": false,
      "stateMutability": "nonpayable",
      "type": "function"
    },
    {
      "constant": true,
      "inputs": [],
      "name": "isOwner",
      "outputs": [
        {
          "internalType": "bool",
          "name": "",
          "type": "bool"
        }
      ],
      "payable": false,
      "stateMutability": "view",
      "type": "function"
    },
    {
      "constant": true,
      "inputs": [],
      "name": "owner",
      "outputs": [
        {
          "internalType": "address payable",
          "name": "",
          "type": "address"
        }
      ],
      "payable": false,
      "stateMutability": "view",
      "type": "function"
    },
    {
      "constant": false,
      "inputs": [
        {
          "internalType": "address",
          "name": "_new_LLP_ERC20Token_GeneralAddress",
          "type": "address"
        }
      ],
      "name": "set_LLP_ERC20Token_GeneralAddress",
      "outputs": [],
      "payable": false,
      "stateMutability": "nonpayable",
      "type": "function"
    },
    {
      "constant": false,
      "inputs": [
        {
          "internalType": "address",
          "name": "_new_wBTCAddress",
          "type": "address"
        }
      ],
      "name": "set_wBTCAddress",
      "outputs": [],
      "payable": false,
      "stateMutability": "nonpayable",
      "type": "function"
    },
    {
      "constant": false,
      "inputs": [
        {
          "internalType": "address",
          "name": "_new_dLWBTC2xFulCrumAddress",
          "type": "address"
        }
      ],
      "name": "set_wBTCFulCrumAddress",
      "outputs": [],
      "payable": false,
      "stateMutability": "nonpayable",
      "type": "function"
    },
    {
      "constant": false,
      "inputs": [],
      "name": "toggleContractActive",
      "outputs": [],
      "payable": false,
      "stateMutability": "nonpayable",
      "type": "function"
    },
    {
      "constant": false,
      "inputs": [
        {
          "internalType": "address payable",
          "name": "newOwner",
          "type": "address"
        }
      ],
      "name": "transferOwnership",
      "outputs": [],
      "payable": false,
      "stateMutability": "nonpayable",
      "type": "function"
    },
    {
      "constant": true,
      "inputs": [],
      "name": "wBTCAddress",
      "outputs": [
        {
          "internalType": "address",
          "name": "",
          "type": "address"
        }
      ],
      "payable": false,
      "stateMutability": "view",
      "type": "function"
    },
    {
      "constant": false,
      "inputs": [],
      "name": "withdraw",
      "outputs": [],
      "payable": false,
      "stateMutability": "nonpayable",
      "type": "function"
    }
  ],
  "bytecode": "0x608060405234801561001057600080fd5b50610a9d806100206000396000f3fe6080604052600436106100e85760003560e01c80636ea7c43b1161008a578063c0c53b8b11610059578063c0c53b8b1461029d578063e1ae0d1b146102e2578063e8c949c3146102f7578063f2fde38b14610335576100e8565b80636ea7c43b146101f95780638da5cb5b1461022c5780638f32d59b1461024157806391e2bb001461026a576100e8565b80633ccfd60b116100c65780633ccfd60b1461016b57806352fac32a14610180578063551196d5146101b15780636d58b716146101e4576100e8565b80631385d24c1461010e5780631b0050b5146101235780632b68b9c614610156575b60335461010090046001600160a01b0316331461010c5761010a336022610368565b505b005b34801561011a57600080fd5b5061010c610415565b34801561012f57600080fd5b5061010c6004803603602081101561014657600080fd5b50356001600160a01b031661046c565b34801561016257600080fd5b5061010c6104d1565b34801561017757600080fd5b5061010c610527565b34801561018c57600080fd5b506101956105ae565b604080516001600160a01b039092168252519081900360200190f35b3480156101bd57600080fd5b5061010c600480360360208110156101d457600080fd5b50356001600160a01b03166105bd565b3480156101f057600080fd5b50610195610704565b34801561020557600080fd5b5061010c6004803603602081101561021c57600080fd5b50356001600160a01b0316610713565b34801561023857600080fd5b50610195610778565b34801561024d57600080fd5b5061025661078c565b604080519115158252519081900360200190f35b34801561027657600080fd5b5061010c6004803603602081101561028d57600080fd5b50356001600160a01b03166107a2565b3480156102a957600080fd5b5061010c600480360360608110156102c057600080fd5b506001600160a01b038135811691602081013582169160409091013516610807565b3480156102ee57600080fd5b5061019561090d565b6103236004803603604081101561030d57600080fd5b506001600160a01b038135169060200135610368565b60408051918252519081900360200190f35b34801561034157600080fd5b5061010c6004803603602081101561035857600080fd5b50356001600160a01b031661091c565b60345460355460365460408051631ae52f2760e11b81526001600160a01b0387811660048301526024820187905293841660448201819052928416606482015260848101929092525160009392909216916335ca5e4e91349160a480830192602092919082900301818588803b1580156103e157600080fd5b505af11580156103f5573d6000803e3d6000fd5b50505050506040513d602081101561040c57600080fd5b50909392505050565b61041d61078c565b6104585760405162461bcd60e51b815260040180806020018281038252602c815260200180610a0f602c913960400191505060405180910390fd5b6033805460ff19811660ff90911615179055565b61047461078c565b6104af5760405162461bcd60e51b815260040180806020018281038252602c815260200180610a0f602c913960400191505060405180910390fd5b603580546001600160a01b0319166001600160a01b0392909216919091179055565b6104d961078c565b6105145760405162461bcd60e51b815260040180806020018281038252602c815260200180610a0f602c913960400191505060405180910390fd5b60335461010090046001600160a01b0316ff5b61052f61078c565b61056a5760405162461bcd60e51b815260040180806020018281038252602c815260200180610a0f602c913960400191505060405180910390fd5b6033546040516001600160a01b036101009092049190911690303180156108fc02916000818181858888f193505050501580156105ab573d6000803e3d6000fd5b50565b6034546001600160a01b031681565b6105c561078c565b6106005760405162461bcd60e51b815260040180806020018281038252602c815260200180610a0f602c913960400191505060405180910390fd5b604080516370a0823160e01b815230600482015290516000916001600160a01b038416916370a0823191602480820192602092909190829003018186803b15801561064a57600080fd5b505afa15801561065e573d6000803e3d6000fd5b505050506040513d602081101561067457600080fd5b50516033546040805163a9059cbb60e01b81526101009092046001600160a01b03908116600484015260248301849052905192935084169163a9059cbb916044808201926020929091908290030181600087803b1580156106d457600080fd5b505af11580156106e8573d6000803e3d6000fd5b505050506040513d60208110156106fe57600080fd5b50505050565b6036546001600160a01b031681565b61071b61078c565b6107565760405162461bcd60e51b815260040180806020018281038252602c815260200180610a0f602c913960400191505060405180910390fd5b603680546001600160a01b0319166001600160a01b0392909216919091179055565b60335461010090046001600160a01b031681565b60335461010090046001600160a01b0316331490565b6107aa61078c565b6107e55760405162461bcd60e51b815260040180806020018281038252602c815260200180610a0f602c913960400191505060405180910390fd5b603480546001600160a01b0319166001600160a01b0392909216919091179055565b600054610100900460ff16806108205750610820610968565b8061082e575060005460ff16155b6108695760405162461bcd60e51b815260040180806020018281038252602e815260200180610a3b602e913960400191505060405180910390fd5b600054610100900460ff16158015610894576000805460ff1961ff0019909116610100171660011790555b6033805474ffffffffffffffffffffffffffffffffffffffffff19166101003302179055603480546001600160a01b03199081166001600160a01b03878116919091179092556035805482168684161790556036805490911691841691909117905580156106fe576000805461ff001916905550505050565b6035546001600160a01b031681565b61092461078c565b61095f5760405162461bcd60e51b815260040180806020018281038252602c815260200180610a0f602c913960400191505060405180910390fd5b6105ab8161096e565b303b1590565b6001600160a01b0381166109b35760405162461bcd60e51b81526004018080602001828103825260268152602001806109e96026913960400191505060405180910390fd5b603380546001600160a01b039092166101000274ffffffffffffffffffffffffffffffffffffffff001990921691909117905556fe4f776e61626c653a206e6577206f776e657220697320746865207a65726f2061646472657373796f7520617265206e6f7420617574686f726973656420746f2063616c6c20746869732066756e6374696f6e436f6e747261637420696e7374616e63652068617320616c7265616479206265656e20696e697469616c697a6564a265627a7a723158201ab2792c5acba1a130f801b7cebf6865008ee1f2243c03e20fd5a14e50fcd5fa64736f6c634300050d0032",
  "compiler": {
    "name": "solc",
    "version": "0.5.13+commit.5b0b510c.Emscripten.clang",
    "optimizer": {
      "enabled": true,
      "runs": 500
    },
    "evmVersion": "petersburg"
  }
}